{
  "transactions": [
    {
      "hash": "0xf47f48be520a775443992fa1126fcc9793f1b025bc3a132bba2fdaa245dc9742",
      "transactionType": "CALL",
      "contractName": null,
      "contractAddress": "0xd925c84b55e4e44a53749ff5f2a5a13f63d128fd",
      "function": "setPeer(uint16,bytes32,uint8,uint256)",
      "arguments": [
        "23",
        "0x000000000000000000000000d925c84b55e4e44a53749ff5f2a5a13f63d128fd",
        "6",
        "0"
      ],
      "transaction": {
        "from": "0xf2f1acbe0ba726fee8d75f3e32900526874740bb",
        "to": "0xd925c84b55e4e44a53749ff5f2a5a13f63d128fd",
        "gas": "0x1b14d",
        "value": "0x0",
        "input": "0x7c9186340000000000000000000000000000000000000000000000000000000000000017000000000000000000000000d925c84b55e4e44a53749ff5f2a5a13f63d128fd00000000000000000000000000000000000000000000000000000000000000060000000000000000000000000000000000000000000000000000000000000000",
        "nonce": "0x39",
        "chainId": "0x1"
      },
      "additionalContracts": [],
      "isFixedGasLimit": false
    },
    {
      "hash": "0x9fc4c3b86a8e47806dfacd2ef2bac748c71259de63f5727c7b0e473d55ee6aec",
      "transactionType": "CALL",
      "contractName": null,
      "contractAddress": "0xd925c84b55e4e44a53749ff5f2a5a13f63d128fd",
      "function": "setDestinationMToken(uint16,bytes32)",
      "arguments": [
        "23",
        "0x000000000000000000000000866a2bf4e572cbcf37d5071a7a58503bfb36be1b"
      ],
      "transaction": {
        "from": "0xf2f1acbe0ba726fee8d75f3e32900526874740bb",
        "to": "0xd925c84b55e4e44a53749ff5f2a5a13f63d128fd",
        "gas": "0x12e11",
        "value": "0x0",
        "input": "0x76a4a5390000000000000000000000000000000000000000000000000000000000000017000000000000000000000000866a2bf4e572cbcf37d5071a7a58503bfb36be1b",
        "nonce": "0x3a",
        "chainId": "0x1"
      },
      "additionalContracts": [],
      "isFixedGasLimit": false
    },
    {
      "hash": "0xc31ab309e1e5d03a80053b2b8cb631e230101a0582d65dc46f50c6ecfc176765",
      "transactionType": "CALL",
      "contractName": null,
      "contractAddress": "0xd925c84b55e4e44a53749ff5f2a5a13f63d128fd",
      "function": "setSupportedBridgingPath(address,uint16,bytes32,bool)",
      "arguments": [
        "0x866A2BF4E572CbcF37D5071A7a58503Bfb36be1b",
        "23",
        "0x000000000000000000000000866a2bf4e572cbcf37d5071a7a58503bfb36be1b",
        "true"
      ],
      "transaction": {
        "from": "0xf2f1acbe0ba726fee8d75f3e32900526874740bb",
        "to": "0xd925c84b55e4e44a53749ff5f2a5a13f63d128fd",
        "gas": "0x134f7",
        "value": "0x0",
        "input": "0x1482cb4a000000000000000000000000866a2bf4e572cbcf37d5071a7a58503bfb36be1b0000000000000000000000000000000000000000000000000000000000000017000000000000000000000000866a2bf4e572cbcf37d5071a7a58503bfb36be1b0000000000000000000000000000000000000000000000000000000000000001",
        "nonce": "0x3b",
        "chainId": "0x1"
      },
      "additionalContracts": [],
      "isFixedGasLimit": false
    },
    {
      "hash": "0x7d5172654c53d8a44d6a188d344dfa3e1f02a5cd84e9855fcb69107ec3b836b3",
      "transactionType": "CALL",
      "contractName": null,
      "contractAddress": "0xd925c84b55e4e44a53749ff5f2a5a13f63d128fd",
      "function": "setSupportedBridgingPath(address,uint16,bytes32,bool)",
      "arguments": [
        "0x866A2BF4E572CbcF37D5071A7a58503Bfb36be1b",
        "23",
        "0x000000000000000000000000437cc33344a0b27a429f795ff6b469c72698b291",
        "true"
      ],
      "transaction": {
        "from": "0xf2f1acbe0ba726fee8d75f3e32900526874740bb",
        "to": "0xd925c84b55e4e44a53749ff5f2a5a13f63d128fd",
        "gas": "0x134f7",
        "value": "0x0",
        "input": "0x1482cb4a000000000000000000000000866a2bf4e572cbcf37d5071a7a58503bfb36be1b0000000000000000000000000000000000000000000000000000000000000017000000000000000000000000437cc33344a0b27a429f795ff6b469c72698b2910000000000000000000000000000000000000000000000000000000000000001",
        "nonce": "0x3c",
        "chainId": "0x1"
      },
      "additionalContracts": [],
      "isFixedGasLimit": false
    },
    {
      "hash": "0xe786d9034343f51ba4065909821f0d3b4ff2a7b086b61ef3db0aae2148acf7ed",
      "transactionType": "CALL",
      "contractName": null,
      "contractAddress": "0xd925c84b55e4e44a53749ff5f2a5a13f63d128fd",
      "function": "setSupportedBridgingPath(address,uint16,bytes32,bool)",
      "arguments": [
        "0x437cc33344a0B27A429f795ff6B469C72698B291",
        "23",
        "0x000000000000000000000000866a2bf4e572cbcf37d5071a7a58503bfb36be1b",
        "true"
      ],
      "transaction": {
        "from": "0xf2f1acbe0ba726fee8d75f3e32900526874740bb",
        "to": "0xd925c84b55e4e44a53749ff5f2a5a13f63d128fd",
        "gas": "0x134f7",
        "value": "0x0",
        "input": "0x1482cb4a000000000000000000000000437cc33344a0b27a429f795ff6b469c72698b2910000000000000000000000000000000000000000000000000000000000000017000000000000000000000000866a2bf4e572cbcf37d5071a7a58503bfb36be1b0000000000000000000000000000000000000000000000000000000000000001",
        "nonce": "0x3d",
        "chainId": "0x1"
      },
      "additionalContracts": [],
      "isFixedGasLimit": false
    },
    {
      "hash": "0x57b04766c5e5c3e03761eac43dcb0b586e29f744e600439ba7c1d9e9553169c7",
      "transactionType": "CALL",
      "contractName": null,
      "contractAddress": "0xd925c84b55e4e44a53749ff5f2a5a13f63d128fd",
      "function": "setSupportedBridgingPath(address,uint16,bytes32,bool)",
      "arguments": [
        "0x437cc33344a0B27A429f795ff6B469C72698B291",
        "23",
        "0x000000000000000000000000437cc33344a0b27a429f795ff6b469c72698b291",
        "true"
      ],
      "transaction": {
        "from": "0xf2f1acbe0ba726fee8d75f3e32900526874740bb",
        "to": "0xd925c84b55e4e44a53749ff5f2a5a13f63d128fd",
        "gas": "0x134f7",
        "value": "0x0",
        "input": "0x1482cb4a000000000000000000000000437cc33344a0b27a429f795ff6b469c72698b2910000000000000000000000000000000000000000000000000000000000000017000000000000000000000000437cc33344a0b27a429f795ff6b469c72698b2910000000000000000000000000000000000000000000000000000000000000001",
        "nonce": "0x3e",
        "chainId": "0x1"
      },
      "additionalContracts": [],
      "isFixedGasLimit": false
    },
    {
      "hash": "0xe29fa205f114960cb67381afa29b0c44579b874306c9dba98dcfd81f1cf9ab5d",
      "transactionType": "CALL",
      "contractName": null,
      "contractAddress": "0x0763196a091575adf99e2306e5e90e0be5154841",
      "function": "setIsWormholeRelayingEnabled(uint16,bool)",
      "arguments": ["23", "true"],
      "transaction": {
        "from": "0xf2f1acbe0ba726fee8d75f3e32900526874740bb",
        "to": "0x0763196a091575adf99e2306e5e90e0be5154841",
        "gas": "0x11ac1",
        "value": "0x0",
        "input": "0x657b3b2f00000000000000000000000000000000000000000000000000000000000000170000000000000000000000000000000000000000000000000000000000000001",
        "nonce": "0x3f",
        "chainId": "0x1"
      },
      "additionalContracts": [],
      "isFixedGasLimit": false
    },
    {
      "hash": "0xa05d255e4142f89cfe34e3ba03de84204d80f2b1dd1b153d3fed9d8750cd37b7",
      "transactionType": "CALL",
      "contractName": null,
      "contractAddress": "0x0763196a091575adf99e2306e5e90e0be5154841",
      "function": "setWormholePeer(uint16,bytes32)",
      "arguments": [
        "23",
        "0x0000000000000000000000000763196a091575adf99e2306e5e90e0be5154841"
      ],
      "transaction": {
        "from": "0xf2f1acbe0ba726fee8d75f3e32900526874740bb",
        "to": "0x0763196a091575adf99e2306e5e90e0be5154841",
        "gas": "0x1a247",
        "value": "0x0",
        "input": "0x7ab5640300000000000000000000000000000000000000000000000000000000000000170000000000000000000000000763196a091575adf99e2306e5e90e0be5154841",
        "nonce": "0x40",
        "chainId": "0x1"
      },
      "additionalContracts": [],
      "isFixedGasLimit": false
    },
    {
      "hash": "0x84f884cbdc6ce6a3d39d2cc259dd2da4ee830406ca7c797937259b40887ec70b",
      "transactionType": "CALL",
      "contractName": null,
      "contractAddress": "0x0763196a091575adf99e2306e5e90e0be5154841",
      "function": "setIsWormholeEvmChain(uint16,bool)",
      "arguments": ["23", "true"],
      "transaction": {
        "from": "0xf2f1acbe0ba726fee8d75f3e32900526874740bb",
        "to": "0x0763196a091575adf99e2306e5e90e0be5154841",
        "gas": "0x11c4c",
        "value": "0x0",
        "input": "0x96dddc6300000000000000000000000000000000000000000000000000000000000000170000000000000000000000000000000000000000000000000000000000000001",
        "nonce": "0x41",
        "chainId": "0x1"
      },
      "additionalContracts": [],
      "isFixedGasLimit": false
    },
    {
      "hash": "0xa79479fb6d4af3fa7744dce503419b9c38ca5faf916fe132d7c391f4ed714c35",
      "transactionType": "CALL",
      "contractName": null,
      "contractAddress": "0xd925c84b55e4e44a53749ff5f2a5a13f63d128fd",
      "function": "setPeer(uint16,bytes32,uint8,uint256)",
      "arguments": [
        "24",
        "0x000000000000000000000000d925c84b55e4e44a53749ff5f2a5a13f63d128fd",
        "6",
        "0"
      ],
      "transaction": {
        "from": "0xf2f1acbe0ba726fee8d75f3e32900526874740bb",
        "to": "0xd925c84b55e4e44a53749ff5f2a5a13f63d128fd",
        "gas": "0x1b14d",
        "value": "0x0",
        "input": "0x7c9186340000000000000000000000000000000000000000000000000000000000000018000000000000000000000000d925c84b55e4e44a53749ff5f2a5a13f63d128fd00000000000000000000000000000000000000000000000000000000000000060000000000000000000000000000000000000000000000000000000000000000",
        "nonce": "0x42",
        "chainId": "0x1"
      },
      "additionalContracts": [],
      "isFixedGasLimit": false
    },
    {
      "hash": "0xd5471331f32a09f72ac0515f9121adab232150ed5cda76a996d9f43a05d80726",
      "transactionType": "CALL",
      "contractName": null,
      "contractAddress": "0xd925c84b55e4e44a53749ff5f2a5a13f63d128fd",
      "function": "setDestinationMToken(uint16,bytes32)",
      "arguments": [
        "24",
        "0x000000000000000000000000866a2bf4e572cbcf37d5071a7a58503bfb36be1b"
      ],
      "transaction": {
        "from": "0xf2f1acbe0ba726fee8d75f3e32900526874740bb",
        "to": "0xd925c84b55e4e44a53749ff5f2a5a13f63d128fd",
        "gas": "0x12e11",
        "value": "0x0",
        "input": "0x76a4a5390000000000000000000000000000000000000000000000000000000000000018000000000000000000000000866a2bf4e572cbcf37d5071a7a58503bfb36be1b",
        "nonce": "0x43",
        "chainId": "0x1"
      },
      "additionalContracts": [],
      "isFixedGasLimit": false
    },
    {
      "hash": "0x5a6629c3be1ac3b33df6ca9b92c5d72cd9df4a24513efaa659fdeda57a2c75ed",
      "transactionType": "CALL",
      "contractName": null,
      "contractAddress": "0xd925c84b55e4e44a53749ff5f2a5a13f63d128fd",
      "function": "setSupportedBridgingPath(address,uint16,bytes32,bool)",
      "arguments": [
        "0x866A2BF4E572CbcF37D5071A7a58503Bfb36be1b",
        "24",
        "0x000000000000000000000000866a2bf4e572cbcf37d5071a7a58503bfb36be1b",
        "true"
      ],
      "transaction": {
        "from": "0xf2f1acbe0ba726fee8d75f3e32900526874740bb",
        "to": "0xd925c84b55e4e44a53749ff5f2a5a13f63d128fd",
        "gas": "0x134f7",
        "value": "0x0",
        "input": "0x1482cb4a000000000000000000000000866a2bf4e572cbcf37d5071a7a58503bfb36be1b0000000000000000000000000000000000000000000000000000000000000018000000000000000000000000866a2bf4e572cbcf37d5071a7a58503bfb36be1b0000000000000000000000000000000000000000000000000000000000000001",
        "nonce": "0x44",
        "chainId": "0x1"
      },
      "additionalContracts": [],
      "isFixedGasLimit": false
    },
    {
      "hash": "0xcd123f381db083826ff75e90cf727dcf26675e60bc1c21d5472b9d0c3fcdd8d2",
      "transactionType": "CALL",
      "contractName": null,
      "contractAddress": "0xd925c84b55e4e44a53749ff5f2a5a13f63d128fd",
      "function": "setSupportedBridgingPath(address,uint16,bytes32,bool)",
      "arguments": [
        "0x866A2BF4E572CbcF37D5071A7a58503Bfb36be1b",
        "24",
        "0x000000000000000000000000437cc33344a0b27a429f795ff6b469c72698b291",
        "true"
      ],
      "transaction": {
        "from": "0xf2f1acbe0ba726fee8d75f3e32900526874740bb",
        "to": "0xd925c84b55e4e44a53749ff5f2a5a13f63d128fd",
        "gas": "0x134f7",
        "value": "0x0",
        "input": "0x1482cb4a000000000000000000000000866a2bf4e572cbcf37d5071a7a58503bfb36be1b0000000000000000000000000000000000000000000000000000000000000018000000000000000000000000437cc33344a0b27a429f795ff6b469c72698b2910000000000000000000000000000000000000000000000000000000000000001",
        "nonce": "0x45",
        "chainId": "0x1"
      },
      "additionalContracts": [],
      "isFixedGasLimit": false
    },
    {
      "hash": "0xc8d2311ce6528184ba36d87401eb096647899831e00e6d53b11bbca360ab17b8",
      "transactionType": "CALL",
      "contractName": null,
      "contractAddress": "0xd925c84b55e4e44a53749ff5f2a5a13f63d128fd",
      "function": "setSupportedBridgingPath(address,uint16,bytes32,bool)",
      "arguments": [
        "0x437cc33344a0B27A429f795ff6B469C72698B291",
        "24",
        "0x000000000000000000000000866a2bf4e572cbcf37d5071a7a58503bfb36be1b",
        "true"
      ],
      "transaction": {
        "from": "0xf2f1acbe0ba726fee8d75f3e32900526874740bb",
        "to": "0xd925c84b55e4e44a53749ff5f2a5a13f63d128fd",
        "gas": "0x134f7",
        "value": "0x0",
        "input": "0x1482cb4a000000000000000000000000437cc33344a0b27a429f795ff6b469c72698b2910000000000000000000000000000000000000000000000000000000000000018000000000000000000000000866a2bf4e572cbcf37d5071a7a58503bfb36be1b0000000000000000000000000000000000000000000000000000000000000001",
        "nonce": "0x46",
        "chainId": "0x1"
      },
      "additionalContracts": [],
      "isFixedGasLimit": false
    },
    {
      "hash": "0xcdb4231bca93d3a1270aeb3c7b661b85941b3ef92915102e0d1ce52793cceadd",
      "transactionType": "CALL",
      "contractName": null,
      "contractAddress": "0xd925c84b55e4e44a53749ff5f2a5a13f63d128fd",
      "function": "setSupportedBridgingPath(address,uint16,bytes32,bool)",
      "arguments": [
        "0x437cc33344a0B27A429f795ff6B469C72698B291",
        "24",
        "0x000000000000000000000000437cc33344a0b27a429f795ff6b469c72698b291",
        "true"
      ],
      "transaction": {
        "from": "0xf2f1acbe0ba726fee8d75f3e32900526874740bb",
        "to": "0xd925c84b55e4e44a53749ff5f2a5a13f63d128fd",
        "gas": "0x134f7",
        "value": "0x0",
        "input": "0x1482cb4a000000000000000000000000437cc33344a0b27a429f795ff6b469c72698b2910000000000000000000000000000000000000000000000000000000000000018000000000000000000000000437cc33344a0b27a429f795ff6b469c72698b2910000000000000000000000000000000000000000000000000000000000000001",
        "nonce": "0x47",
        "chainId": "0x1"
      },
      "additionalContracts": [],
      "isFixedGasLimit": false
    },
    {
      "hash": "0xe26e0e2db3f23a2d07759d1eca36ea75647beffd523f5bed5a23885042fc46f2",
      "transactionType": "CALL",
      "contractName": null,
      "contractAddress": "0x0763196a091575adf99e2306e5e90e0be5154841",
      "function": "setIsWormholeRelayingEnabled(uint16,bool)",
      "arguments": ["24", "true"],
      "transaction": {
        "from": "0xf2f1acbe0ba726fee8d75f3e32900526874740bb",
        "to": "0x0763196a091575adf99e2306e5e90e0be5154841",
        "gas": "0x11ac1",
        "value": "0x0",
        "input": "0x657b3b2f00000000000000000000000000000000000000000000000000000000000000180000000000000000000000000000000000000000000000000000000000000001",
        "nonce": "0x48",
        "chainId": "0x1"
      },
      "additionalContracts": [],
      "isFixedGasLimit": false
    },
    {
      "hash": "0x5a1636c3f1a7d4522c64d6594ae721e210bfa7c7eaf81f66cb01603f25e16798",
      "transactionType": "CALL",
      "contractName": null,
      "contractAddress": "0x0763196a091575adf99e2306e5e90e0be5154841",
      "function": "setWormholePeer(uint16,bytes32)",
      "arguments": [
        "24",
        "0x0000000000000000000000000763196a091575adf99e2306e5e90e0be5154841"
      ],
      "transaction": {
        "from": "0xf2f1acbe0ba726fee8d75f3e32900526874740bb",
        "to": "0x0763196a091575adf99e2306e5e90e0be5154841",
        "gas": "0x1a247",
        "value": "0x0",
        "input": "0x7ab5640300000000000000000000000000000000000000000000000000000000000000180000000000000000000000000763196a091575adf99e2306e5e90e0be5154841",
        "nonce": "0x49",
        "chainId": "0x1"
      },
      "additionalContracts": [],
      "isFixedGasLimit": false
    },
    {
      "hash": "0xf0e5e7acb3936b3acadabad96712507e5abbae8f57dbeb2a0fc5fc6c5cd7878d",
      "transactionType": "CALL",
      "contractName": null,
      "contractAddress": "0x0763196a091575adf99e2306e5e90e0be5154841",
      "function": "setIsWormholeEvmChain(uint16,bool)",
      "arguments": ["24", "true"],
      "transaction": {
        "from": "0xf2f1acbe0ba726fee8d75f3e32900526874740bb",
        "to": "0x0763196a091575adf99e2306e5e90e0be5154841",
        "gas": "0x11c4c",
        "value": "0x0",
        "input": "0x96dddc6300000000000000000000000000000000000000000000000000000000000000180000000000000000000000000000000000000000000000000000000000000001",
        "nonce": "0x4a",
        "chainId": "0x1"
      },
      "additionalContracts": [],
      "isFixedGasLimit": false
    }
  ],
  "receipts": [
    {
      "status": "0x1",
      "cumulativeGasUsed": "0xade475",
      "logs": [
        {
          "address": "0xd925c84b55e4e44a53749ff5f2a5a13f63d128fd",
          "topics": [
            "0x1456404e7f41f35c3daac941bb50bad417a66275c3040061b4287d787719599d",
            "0x0000000000000000000000000000000000000000000000000000000000000017"
          ],
          "data": "0x00000000000000000000000000000000000000000000000000000000000000000000000000000000000000000000000000000000000000000000000000000000000000000000000000000000d925c84b55e4e44a53749ff5f2a5a13f63d128fd0000000000000000000000000000000000000000000000000000000000000006",
          "blockHash": "0x46b5e07ab8adc8768540a5629ba22a2a60024949c14066fc1a685d3114cbe50f",
          "blockNumber": "0x14de576",
          "transactionHash": "0xf47f48be520a775443992fa1126fcc9793f1b025bc3a132bba2fdaa245dc9742",
          "transactionIndex": "0x73",
          "logIndex": "0x130",
          "removed": false
        }
      ],
      "logsBloom": "0x00000000000000000000000000000000000000000000000000000000000000000000000000000000002000000000000000001000000000000000001000000000000000000000000000000000000000000000000000024000000000000000000000002000000000000000000000000000000000000000000000000000000000000000000000000000000008000000000000000000000000000000000000000000000000000000000000000000000000000000000000000000000000000000080000000000000000000000000000000000000000000000000000000000000000000000000000000000000000000000000000000000000000000000000000080000",
      "type": "0x2",
      "transactionHash": "0xf47f48be520a775443992fa1126fcc9793f1b025bc3a132bba2fdaa245dc9742",
      "transactionIndex": "0x73",
      "blockHash": "0x46b5e07ab8adc8768540a5629ba22a2a60024949c14066fc1a685d3114cbe50f",
      "blockNumber": "0x14de576",
      "gasUsed": "0x139b4",
      "effectiveGasPrice": "0x3aecd624",
      "from": "0xf2f1acbe0ba726fee8d75f3e32900526874740bb",
      "to": "0xd925c84b55e4e44a53749ff5f2a5a13f63d128fd",
      "contractAddress": null
    },
    {
      "status": "0x1",
      "cumulativeGasUsed": "0xce26fa",
      "logs": [
        {
          "address": "0xd925c84b55e4e44a53749ff5f2a5a13f63d128fd",
          "topics": [
            "0xe6658eeba76934cef78dc5f420ee40406e4876e8d3e767f7b700c63daf1bf0ba",
            "0x0000000000000000000000000000000000000000000000000000000000000017"
          ],
          "data": "0x000000000000000000000000866a2bf4e572cbcf37d5071a7a58503bfb36be1b",
          "blockHash": "0xf10932689919cb6aac9b07b6be18baa5e8ce9366a2e89c6314de70de9ea97550",
          "blockNumber": "0x14de577",
          "transactionHash": "0x9fc4c3b86a8e47806dfacd2ef2bac748c71259de63f5727c7b0e473d55ee6aec",
          "transactionIndex": "0x86",
          "logIndex": "0x18d",
          "removed": false
        }
      ],
      "logsBloom": "0x00000000000000000000000000000000000000000000000000000000000000000000000000000000000000000000000000001000000000000000001000000000000000000000000000000000002000000000000000024000000000000000000000000000000000000000000000000000000000000000000000000000000000000000000000000000000000000000000000000000000000000000000000000000000080000000000000000000000000000000000000000000000000000000080000000000000020000000000000000000000000000000000000000000000000000000000000000000000000000000000000000000000000000000000000080000",
      "type": "0x2",
      "transactionHash": "0x9fc4c3b86a8e47806dfacd2ef2bac748c71259de63f5727c7b0e473d55ee6aec",
      "transactionIndex": "0x86",
      "blockHash": "0xf10932689919cb6aac9b07b6be18baa5e8ce9366a2e89c6314de70de9ea97550",
      "blockNumber": "0x14de577",
      "gasUsed": "0xce8b",
      "effectiveGasPrice": "0x3a1de614",
      "from": "0xf2f1acbe0ba726fee8d75f3e32900526874740bb",
      "to": "0xd925c84b55e4e44a53749ff5f2a5a13f63d128fd",
      "contractAddress": null
    },
    {
      "status": "0x1",
      "cumulativeGasUsed": "0xf75084",
      "logs": [
        {
          "address": "0xd925c84b55e4e44a53749ff5f2a5a13f63d128fd",
          "topics": [
            "0xeb8377c150d1438121333afa2027232605a400b1208ae6f9cfa156438e453f6d",
            "0x000000000000000000000000866a2bf4e572cbcf37d5071a7a58503bfb36be1b",
            "0x0000000000000000000000000000000000000000000000000000000000000017",
            "0x000000000000000000000000866a2bf4e572cbcf37d5071a7a58503bfb36be1b"
          ],
          "data": "0x0000000000000000000000000000000000000000000000000000000000000001",
          "blockHash": "0x22caf00959944d1253b1fe1825543bfdc61901ea3c9827fe748b642fb60a2644",
          "blockNumber": "0x14de578",
          "transactionHash": "0xc31ab309e1e5d03a80053b2b8cb631e230101a0582d65dc46f50c6ecfc176765",
          "transactionIndex": "0xa4",
          "logIndex": "0x1cc",
          "removed": false
        }
      ],
      "logsBloom": "0x00000008000000000000000000000000000000000000000000000000000000000000000000000000000000000000000000001000000000000000001000000000800000000000000000000000000000000000000000024000000000000000000000000000000000000000000000000000000000000000000100000000000000000000000000000000000000000040000000000000000000000000000000000000000000000000000000000000008000000000000000000000000000000000080000000000000400000000000000000000000000000000000000000000000000000000000000000000000000000000000000000000000000000000000000080000",
      "type": "0x2",
      "transactionHash": "0xc31ab309e1e5d03a80053b2b8cb631e230101a0582d65dc46f50c6ecfc176765",
      "transactionIndex": "0xa4",
      "blockHash": "0x22caf00959944d1253b1fe1825543bfdc61901ea3c9827fe748b642fb60a2644",
      "blockNumber": "0x14de578",
      "gasUsed": "0xd343",
      "effectiveGasPrice": "0x3923cba2",
      "from": "0xf2f1acbe0ba726fee8d75f3e32900526874740bb",
      "to": "0xd925c84b55e4e44a53749ff5f2a5a13f63d128fd",
      "contractAddress": null
    },
    {
      "status": "0x1",
      "cumulativeGasUsed": "0x198cd2b",
      "logs": [
        {
          "address": "0xd925c84b55e4e44a53749ff5f2a5a13f63d128fd",
          "topics": [
            "0xeb8377c150d1438121333afa2027232605a400b1208ae6f9cfa156438e453f6d",
            "0x000000000000000000000000866a2bf4e572cbcf37d5071a7a58503bfb36be1b",
            "0x0000000000000000000000000000000000000000000000000000000000000017",
            "0x000000000000000000000000437cc33344a0b27a429f795ff6b469c72698b291"
          ],
          "data": "0x0000000000000000000000000000000000000000000000000000000000000001",
          "blockHash": "0x6559ad66fa6c871b5afedf3871720a05fe8df5bfce8c612ba6a2fd804ee69ea9",
          "blockNumber": "0x14de579",
          "transactionHash": "0x7d5172654c53d8a44d6a188d344dfa3e1f02a5cd84e9855fcb69107ec3b836b3",
          "transactionIndex": "0xa0",
          "logIndex": "0x278",
          "removed": false
        }
      ],
      "logsBloom": "0x00000008000002000000000000000000000000000000000000000000000000000000000000000000000000000000000000001000000000000000001000000000800000000000000000000000000000000000000000024000000000000000000000000000000000000000000000000000000000000000000100000000000000000000000000000000000000000040000000000000000000000000000000000000000000000000000000000000008000000000000000020000000000000000080000000000000400000000000000000000000000000000000000000000000000200000000000000000000000000000000000000000000000000000000000080000",
      "type": "0x2",
      "transactionHash": "0x7d5172654c53d8a44d6a188d344dfa3e1f02a5cd84e9855fcb69107ec3b836b3",
      "transactionIndex": "0xa0",
      "blockHash": "0x6559ad66fa6c871b5afedf3871720a05fe8df5bfce8c612ba6a2fd804ee69ea9",
      "blockNumber": "0x14de579",
      "gasUsed": "0xd343",
      "effectiveGasPrice": "0x396abf87",
      "from": "0xf2f1acbe0ba726fee8d75f3e32900526874740bb",
      "to": "0xd925c84b55e4e44a53749ff5f2a5a13f63d128fd",
      "contractAddress": null
    },
    {
      "status": "0x1",
      "cumulativeGasUsed": "0xd7b0ca",
      "logs": [
        {
          "address": "0xd925c84b55e4e44a53749ff5f2a5a13f63d128fd",
          "topics": [
            "0xeb8377c150d1438121333afa2027232605a400b1208ae6f9cfa156438e453f6d",
            "0x000000000000000000000000437cc33344a0b27a429f795ff6b469c72698b291",
            "0x0000000000000000000000000000000000000000000000000000000000000017",
            "0x000000000000000000000000866a2bf4e572cbcf37d5071a7a58503bfb36be1b"
          ],
          "data": "0x0000000000000000000000000000000000000000000000000000000000000001",
          "blockHash": "0xc2c5c06d09ccf6548bdbf374eb36b4d37e27c47391694b024d8c4465ccd5b4cd",
          "blockNumber": "0x14de57a",
          "transactionHash": "0xe786d9034343f51ba4065909821f0d3b4ff2a7b086b61ef3db0aae2148acf7ed",
          "transactionIndex": "0x8d",
          "logIndex": "0x1df",
          "removed": false
        }
      ],
      "logsBloom": "0x00000008000002000000000000000000000000000000000000000000000000000000000000000000000000000000000000001000000000000000001000000000800000000000000000000000000000000000000000024000000000000000000000000000000000000000000000000000000000000000000100000000000000000000000000000000000000000040000000000000000000000000000000000000000000000000000000000000008000000000000000020000000000000000080000000000000400000000000000000000000000000000000000000000000000200000000000000000000000000000000000000000000000000000000000080000",
      "type": "0x2",
      "transactionHash": "0xe786d9034343f51ba4065909821f0d3b4ff2a7b086b61ef3db0aae2148acf7ed",
      "transactionIndex": "0x8d",
      "blockHash": "0xc2c5c06d09ccf6548bdbf374eb36b4d37e27c47391694b024d8c4465ccd5b4cd",
      "blockNumber": "0x14de57a",
      "gasUsed": "0xd343",
      "effectiveGasPrice": "0x3f5d240c",
      "from": "0xf2f1acbe0ba726fee8d75f3e32900526874740bb",
      "to": "0xd925c84b55e4e44a53749ff5f2a5a13f63d128fd",
      "contractAddress": null
    },
    {
      "status": "0x1",
      "cumulativeGasUsed": "0x148c5dc",
      "logs": [
        {
          "address": "0xd925c84b55e4e44a53749ff5f2a5a13f63d128fd",
          "topics": [
            "0xeb8377c150d1438121333afa2027232605a400b1208ae6f9cfa156438e453f6d",
            "0x000000000000000000000000437cc33344a0b27a429f795ff6b469c72698b291",
            "0x0000000000000000000000000000000000000000000000000000000000000017",
            "0x000000000000000000000000437cc33344a0b27a429f795ff6b469c72698b291"
          ],
          "data": "0x0000000000000000000000000000000000000000000000000000000000000001",
          "blockHash": "0x51a654749e4cda0d01b8bda2309f3364ef22a02f7dd0619b359d3106b608286c",
          "blockNumber": "0x14de57c",
          "transactionHash": "0x57b04766c5e5c3e03761eac43dcb0b586e29f744e600439ba7c1d9e9553169c7",
          "transactionIndex": "0xd9",
          "logIndex": "0x254",
          "removed": false
        }
      ],
      "logsBloom": "0x00000008000002000000000000000000000000000000000000000000000000000000000000000000000000000000000000001000000000000000001000000000800000000000000000000000000000000000000000024000000000000000000000000000000000000000000000000000000000000000000000000000000000000000000000000000000000000000000000000000000000000000000000000000000000000000000000000000008000000000000000020000000000000000080000000000000000000000000000000000000000000000000000000000000000200000000000000000000000000000000000000000000000000000000000080000",
      "type": "0x2",
      "transactionHash": "0x57b04766c5e5c3e03761eac43dcb0b586e29f744e600439ba7c1d9e9553169c7",
      "transactionIndex": "0xd9",
      "blockHash": "0x51a654749e4cda0d01b8bda2309f3364ef22a02f7dd0619b359d3106b608286c",
      "blockNumber": "0x14de57c",
      "gasUsed": "0xd343",
      "effectiveGasPrice": "0x3ad66c65",
      "from": "0xf2f1acbe0ba726fee8d75f3e32900526874740bb",
      "to": "0xd925c84b55e4e44a53749ff5f2a5a13f63d128fd",
      "contractAddress": null
    },
    {
      "status": "0x1",
      "cumulativeGasUsed": "0xe2102b",
      "logs": [
        {
          "address": "0x0763196a091575adf99e2306e5e90e0be5154841",
          "topics": [
            "0x528b18a533e892b5401d1fb63597275df9d2bb45b13e7695c3147cd07b9746c3"
          ],
          "data": "0x00000000000000000000000000000000000000000000000000000000000000170000000000000000000000000000000000000000000000000000000000000001",
          "blockHash": "0x7cbf078c94ab5c69ce54bd85ff8531c7a7a0052f5fd465063aea288fab485c3e",
          "blockNumber": "0x14de57d",
          "transactionHash": "0xe29fa205f114960cb67381afa29b0c44579b874306c9dba98dcfd81f1cf9ab5d",
          "transactionIndex": "0xab",
          "logIndex": "0x196",
          "removed": false
        }
      ],
      "logsBloom": "0x00000000000000000000000000000000000000000000000000000000000080000000000000400000000000000000000000000000000000000000000000000000000000000000000000000000800000000000000000000000000000000001000000000000000000001000000000000000000000000000000000000000000000000000000000000000000000000000000000000000000000000000000000000000002000000000000000000000000000000000000000000000000000000000000000000000000000000000000000000000000000000000000000000000000000000000000000000000000000000000000000000000000000000000000000000000",
      "type": "0x2",
      "transactionHash": "0xe29fa205f114960cb67381afa29b0c44579b874306c9dba98dcfd81f1cf9ab5d",
      "transactionIndex": "0xab",
      "blockHash": "0x7cbf078c94ab5c69ce54bd85ff8531c7a7a0052f5fd465063aea288fab485c3e",
      "blockNumber": "0x14de57d",
      "gasUsed": "0xccb6",
      "effectiveGasPrice": "0x3ddf5278",
      "from": "0xf2f1acbe0ba726fee8d75f3e32900526874740bb",
      "to": "0x0763196a091575adf99e2306e5e90e0be5154841",
      "contractAddress": null
    },
    {
      "status": "0x1",
      "cumulativeGasUsed": "0x87a8e1",
      "logs": [
        {
          "address": "0x98f3c9e6e3face36baad05fe09d375ef1464288b",
          "topics": [
            "0x6eb224fb001ed210e379b335e35efe88672a8ce935d981a6896b27ffdf52a3b2",
            "0x0000000000000000000000000763196a091575adf99e2306e5e90e0be5154841"
          ],
          "data": "0x0000000000000000000000000000000000000000000000000000000000000001000000000000000000000000000000000000000000000000000000000000000000000000000000000000000000000000000000000000000000000000000000800000000000000000000000000000000000000000000000000000000000000001000000000000000000000000000000000000000000000000000000000000002618fc67c200170000000000000000000000000763196a091575adf99e2306e5e90e0be51548410000000000000000000000000000000000000000000000000000",
          "blockHash": "0x0a7867293a277088755eb6b12f4fbd0124683959dc880c83e84e69ffa22f81d9",
          "blockNumber": "0x14de57e",
          "transactionHash": "0xa05d255e4142f89cfe34e3ba03de84204d80f2b1dd1b153d3fed9d8750cd37b7",
          "transactionIndex": "0x5e",
          "logIndex": "0xec",
          "removed": false
        },
        {
          "address": "0x0763196a091575adf99e2306e5e90e0be5154841",
          "topics": [
            "0xa559263ee060c7a2560843b3a064ff0376c9753ae3e2449b595a3b615d326466"
          ],
          "data": "0x00000000000000000000000000000000000000000000000000000000000000170000000000000000000000000763196a091575adf99e2306e5e90e0be5154841",
          "blockHash": "0x0a7867293a277088755eb6b12f4fbd0124683959dc880c83e84e69ffa22f81d9",
          "blockNumber": "0x14de57e",
          "transactionHash": "0xa05d255e4142f89cfe34e3ba03de84204d80f2b1dd1b153d3fed9d8750cd37b7",
          "transactionIndex": "0x5e",
          "logIndex": "0xed",
          "removed": false
        }
      ],
      "logsBloom": "0x00000000000100000000000000000000000000000000000000000000000000000010000000000000000000000010000000000000000000000000000000000000000000000000000000000000000000000000000100000000000000000001000000000000000000001000000000000000000000000000000000000000000000000000000000000000000000000000000000000000000000000000000000000400002000000400000001000000000000000000004000040000000000008000000000000000000000000000000000000000000000000000000000000000000000000000000000000000210000000000000000000000000000000000000000000000",
      "type": "0x2",
      "transactionHash": "0xa05d255e4142f89cfe34e3ba03de84204d80f2b1dd1b153d3fed9d8750cd37b7",
      "transactionIndex": "0x5e",
      "blockHash": "0x0a7867293a277088755eb6b12f4fbd0124683959dc880c83e84e69ffa22f81d9",
      "blockNumber": "0x14de57e",
      "gasUsed": "0x12ed4",
      "effectiveGasPrice": "0x3d353809",
      "from": "0xf2f1acbe0ba726fee8d75f3e32900526874740bb",
      "to": "0x0763196a091575adf99e2306e5e90e0be5154841",
      "contractAddress": null
    },
    {
      "status": "0x1",
      "cumulativeGasUsed": "0xaf5ff6",
      "logs": [
        {
          "address": "0x0763196a091575adf99e2306e5e90e0be5154841",
          "topics": [
            "0x4add57d97a7bf5035340ea1212aeeb3d4d3887eb1faf3821a8224c3a6956a10c"
          ],
          "data": "0x00000000000000000000000000000000000000000000000000000000000000170000000000000000000000000000000000000000000000000000000000000001",
          "blockHash": "0x4e361557f8e7cc9f0b452bba59d80225e974d755e61c17add8a8ed364bce4051",
          "blockNumber": "0x14de57f",
          "transactionHash": "0x84f884cbdc6ce6a3d39d2cc259dd2da4ee830406ca7c797937259b40887ec70b",
          "transactionIndex": "0x8b",
          "logIndex": "0x125",
          "removed": false
        }
      ],
      "logsBloom": "0x00000000000000080000000000000000000000000000000000000000000000000000000000000000000000000000000000000000000000000000000000000000000000000000000000000000000000000000000000000000000000000001000000000000000000001000000000000000000000000000000000000080000000000000000000000000000000000000000000000000000000000000000000000000002000000000000000000000000000000000000000000000000000000000000000000000000000000000000000000000000000000000000000000000000000000000000000000000000000000000000000000040000000000000000000000000",
      "type": "0x2",
      "transactionHash": "0x84f884cbdc6ce6a3d39d2cc259dd2da4ee830406ca7c797937259b40887ec70b",
      "transactionIndex": "0x8b",
      "blockHash": "0x4e361557f8e7cc9f0b452bba59d80225e974d755e61c17add8a8ed364bce4051",
      "blockNumber": "0x14de57f",
      "gasUsed": "0xcdd4",
      "effectiveGasPrice": "0x3aa26c1d",
      "from": "0xf2f1acbe0ba726fee8d75f3e32900526874740bb",
      "to": "0x0763196a091575adf99e2306e5e90e0be5154841",
      "contractAddress": null
    },
    {
      "status": "0x1",
      "cumulativeGasUsed": "0xd3a6e5",
      "logs": [
        {
          "address": "0xd925c84b55e4e44a53749ff5f2a5a13f63d128fd",
          "topics": [
            "0x1456404e7f41f35c3daac941bb50bad417a66275c3040061b4287d787719599d",
            "0x0000000000000000000000000000000000000000000000000000000000000018"
          ],
          "data": "0x00000000000000000000000000000000000000000000000000000000000000000000000000000000000000000000000000000000000000000000000000000000000000000000000000000000d925c84b55e4e44a53749ff5f2a5a13f63d128fd0000000000000000000000000000000000000000000000000000000000000006",
          "blockHash": "0x6858fd54311b535ab2214a8dc947d40da995dfad5cb88315dfa87f5e624ae75a",
          "blockNumber": "0x14de580",
          "transactionHash": "0xa79479fb6d4af3fa7744dce503419b9c38ca5faf916fe132d7c391f4ed714c35",
          "transactionIndex": "0x95",
          "logIndex": "0x14f",
          "removed": false
        }
      ],
      "logsBloom": "0x00000000000000000000000000000000000000000000000000000000000000000000000000000000002000000000000000000000000000000000000000000000000000000000000000000000000000000040000000024000000000000000000000002000000000000000000000000000000000000000000000000000000000000000000000000000000008000000000000000000000000000000000000000000000000000000000000000000000000000000000000000000000000000000080000100000000000000000000000000000000000000000000020000000000000000000000000000000000000000000000000000000000000000000000000000000",
      "type": "0x2",
      "transactionHash": "0xa79479fb6d4af3fa7744dce503419b9c38ca5faf916fe132d7c391f4ed714c35",
      "transactionIndex": "0x95",
      "blockHash": "0x6858fd54311b535ab2214a8dc947d40da995dfad5cb88315dfa87f5e624ae75a",
      "blockNumber": "0x14de580",
      "gasUsed": "0x139b4",
      "effectiveGasPrice": "0x3bc3ce9b",
      "from": "0xf2f1acbe0ba726fee8d75f3e32900526874740bb",
      "to": "0xd925c84b55e4e44a53749ff5f2a5a13f63d128fd",
      "contractAddress": null
    },
    {
      "status": "0x1",
      "cumulativeGasUsed": "0x435666",
      "logs": [
        {
          "address": "0xd925c84b55e4e44a53749ff5f2a5a13f63d128fd",
          "topics": [
            "0xe6658eeba76934cef78dc5f420ee40406e4876e8d3e767f7b700c63daf1bf0ba",
            "0x0000000000000000000000000000000000000000000000000000000000000018"
          ],
          "data": "0x000000000000000000000000866a2bf4e572cbcf37d5071a7a58503bfb36be1b",
          "blockHash": "0x547ee6dbe6014f733f984ab8e5be83d840b3e5a24968f37f02f8d7f34bec0f39",
          "blockNumber": "0x14de581",
          "transactionHash": "0xd5471331f32a09f72ac0515f9121adab232150ed5cda76a996d9f43a05d80726",
          "transactionIndex": "0x4a",
          "logIndex": "0x86",
          "removed": false
        }
      ],
      "logsBloom": "0x00000000000000000000000000000000000000000000000000000000000000000000000000000000000000000000000000000000000000000000000000000000000000000000000000000000002000000040000000024000000000000000000000000000000000000000000000000000000000000000000000000000000000000000000000000000000000000000000000000000000000000000000000000000000080000000000000000000000000000000000000000000000000000000080000100000000020000000000000000000000000000000000020000000000000000000000000000000000000000000000000000000000000000000000000000000",
      "type": "0x2",
      "transactionHash": "0xd5471331f32a09f72ac0515f9121adab232150ed5cda76a996d9f43a05d80726",
      "transactionIndex": "0x4a",
      "blockHash": "0x547ee6dbe6014f733f984ab8e5be83d840b3e5a24968f37f02f8d7f34bec0f39",
      "blockNumber": "0x14de581",
      "gasUsed": "0xce8b",
      "effectiveGasPrice": "0x3afc9e69",
      "from": "0xf2f1acbe0ba726fee8d75f3e32900526874740bb",
      "to": "0xd925c84b55e4e44a53749ff5f2a5a13f63d128fd",
      "contractAddress": null
    },
    {
      "status": "0x1",
      "cumulativeGasUsed": "0x10bfd3c",
      "logs": [
        {
          "address": "0xd925c84b55e4e44a53749ff5f2a5a13f63d128fd",
          "topics": [
            "0xeb8377c150d1438121333afa2027232605a400b1208ae6f9cfa156438e453f6d",
            "0x000000000000000000000000866a2bf4e572cbcf37d5071a7a58503bfb36be1b",
            "0x0000000000000000000000000000000000000000000000000000000000000018",
            "0x000000000000000000000000866a2bf4e572cbcf37d5071a7a58503bfb36be1b"
          ],
          "data": "0x0000000000000000000000000000000000000000000000000000000000000001",
          "blockHash": "0xbe6a5261b5fe7c3b1ff5b550995c4cf1d3ec209abf0c873981b837f7d5ed59c7",
          "blockNumber": "0x14de582",
          "transactionHash": "0x5a6629c3be1ac3b33df6ca9b92c5d72cd9df4a24513efaa659fdeda57a2c75ed",
          "transactionIndex": "0xbb",
          "logIndex": "0x1d4",
          "removed": false
        }
      ],
      "logsBloom": "0x00000008000000000000000000000000000000000000000000000000000000000000000000000000000000000000000000000000000000000000000000000000800000000000000000000000000000000040000000024000000000000000000000000000000000000000000000000000000000000000000100000000000000000000000000000000000000000040000000000000000000000000000000000000000000000000000000000000008000000000000000000000000000000000080000100000000400000000000000000000000000000000000020000000000000000000000000000000000000000000000000000000000000000000000000000000",
      "type": "0x2",
      "transactionHash": "0x5a6629c3be1ac3b33df6ca9b92c5d72cd9df4a24513efaa659fdeda57a2c75ed",
      "transactionIndex": "0xbb",
      "blockHash": "0xbe6a5261b5fe7c3b1ff5b550995c4cf1d3ec209abf0c873981b837f7d5ed59c7",
      "blockNumber": "0x14de582",
      "gasUsed": "0xd343",
      "effectiveGasPrice": "0x3a757226",
      "from": "0xf2f1acbe0ba726fee8d75f3e32900526874740bb",
      "to": "0xd925c84b55e4e44a53749ff5f2a5a13f63d128fd",
      "contractAddress": null
    },
    {
      "status": "0x1",
      "cumulativeGasUsed": "0xb73a3c",
      "logs": [
        {
          "address": "0xd925c84b55e4e44a53749ff5f2a5a13f63d128fd",
          "topics": [
            "0xeb8377c150d1438121333afa2027232605a400b1208ae6f9cfa156438e453f6d",
            "0x000000000000000000000000866a2bf4e572cbcf37d5071a7a58503bfb36be1b",
            "0x0000000000000000000000000000000000000000000000000000000000000018",
            "0x000000000000000000000000437cc33344a0b27a429f795ff6b469c72698b291"
          ],
          "data": "0x0000000000000000000000000000000000000000000000000000000000000001",
          "blockHash": "0xd44582e1609bf34cd725705565b38251204df90419c16d54858eeb98c3779566",
          "blockNumber": "0x14de583",
          "transactionHash": "0xcd123f381db083826ff75e90cf727dcf26675e60bc1c21d5472b9d0c3fcdd8d2",
          "transactionIndex": "0x8c",
          "logIndex": "0x115",
          "removed": false
        }
      ],
      "logsBloom": "0x00000008000002000000000000000000000000000000000000000000000000000000000000000000000000000000000000000000000000000000000000000000800000000000000000000000000000000040000000024000000000000000000000000000000000000000000000000000000000000000000100000000000000000000000000000000000000000040000000000000000000000000000000000000000000000000000000000000008000000000000000020000000000000000080000100000000400000000000000000000000000000000000020000000000000200000000000000000000000000000000000000000000000000000000000000000",
      "type": "0x2",
      "transactionHash": "0xcd123f381db083826ff75e90cf727dcf26675e60bc1c21d5472b9d0c3fcdd8d2",
      "transactionIndex": "0x8c",
      "blockHash": "0xd44582e1609bf34cd725705565b38251204df90419c16d54858eeb98c3779566",
      "blockNumber": "0x14de583",
      "gasUsed": "0xd343",
      "effectiveGasPrice": "0x3b5d3ff3",
      "from": "0xf2f1acbe0ba726fee8d75f3e32900526874740bb",
      "to": "0xd925c84b55e4e44a53749ff5f2a5a13f63d128fd",
      "contractAddress": null
    },
    {
      "status": "0x1",
      "cumulativeGasUsed": "0xe84737",
      "logs": [
        {
          "address": "0xd925c84b55e4e44a53749ff5f2a5a13f63d128fd",
          "topics": [
            "0xeb8377c150d1438121333afa2027232605a400b1208ae6f9cfa156438e453f6d",
            "0x000000000000000000000000437cc33344a0b27a429f795ff6b469c72698b291",
            "0x0000000000000000000000000000000000000000000000000000000000000018",
            "0x000000000000000000000000866a2bf4e572cbcf37d5071a7a58503bfb36be1b"
          ],
          "data": "0x0000000000000000000000000000000000000000000000000000000000000001",
          "blockHash": "0x36effe6076c44fdd9a765d6b2dd8de3f68cfa0fc02ff4e3d80c3bc56f00efbf3",
          "blockNumber": "0x14de584",
          "transactionHash": "0xc8d2311ce6528184ba36d87401eb096647899831e00e6d53b11bbca360ab17b8",
          "transactionIndex": "0xd0",
          "logIndex": "0x176",
          "removed": false
        }
      ],
      "logsBloom": "0x00000008000002000000000000000000000000000000000000000000000000000000000000000000000000000000000000000000000000000000000000000000800000000000000000000000000000000040000000024000000000000000000000000000000000000000000000000000000000000000000100000000000000000000000000000000000000000040000000000000000000000000000000000000000000000000000000000000008000000000000000020000000000000000080000100000000400000000000000000000000000000000000020000000000000200000000000000000000000000000000000000000000000000000000000000000",
      "type": "0x2",
      "transactionHash": "0xc8d2311ce6528184ba36d87401eb096647899831e00e6d53b11bbca360ab17b8",
      "transactionIndex": "0xd0",
      "blockHash": "0x36effe6076c44fdd9a765d6b2dd8de3f68cfa0fc02ff4e3d80c3bc56f00efbf3",
      "blockNumber": "0x14de584",
      "gasUsed": "0xd343",
      "effectiveGasPrice": "0x3bb0d029",
      "from": "0xf2f1acbe0ba726fee8d75f3e32900526874740bb",
      "to": "0xd925c84b55e4e44a53749ff5f2a5a13f63d128fd",
      "contractAddress": null
    },
    {
      "status": "0x1",
      "cumulativeGasUsed": "0x125d2dc",
      "logs": [
        {
          "address": "0xd925c84b55e4e44a53749ff5f2a5a13f63d128fd",
          "topics": [
            "0xeb8377c150d1438121333afa2027232605a400b1208ae6f9cfa156438e453f6d",
            "0x000000000000000000000000437cc33344a0b27a429f795ff6b469c72698b291",
            "0x0000000000000000000000000000000000000000000000000000000000000018",
            "0x000000000000000000000000437cc33344a0b27a429f795ff6b469c72698b291"
          ],
          "data": "0x0000000000000000000000000000000000000000000000000000000000000001",
          "blockHash": "0x92c2cf822d0d7d834ff38c216b04a64e64d7fbe1c5b74d1fa08f8db724169b71",
          "blockNumber": "0x14de585",
          "transactionHash": "0xcdb4231bca93d3a1270aeb3c7b661b85941b3ef92915102e0d1ce52793cceadd",
          "transactionIndex": "0x9c",
          "logIndex": "0x1da",
          "removed": false
        }
      ],
      "logsBloom": "0x00000008000002000000000000000000000000000000000000000000000000000000000000000000000000000000000000000000000000000000000000000000800000000000000000000000000000000040000000024000000000000000000000000000000000000000000000000000000000000000000000000000000000000000000000000000000000000000000000000000000000000000000000000000000000000000000000000000008000000000000000020000000000000000080000100000000000000000000000000000000000000000000020000000000000200000000000000000000000000000000000000000000000000000000000000000",
      "type": "0x2",
      "transactionHash": "0xcdb4231bca93d3a1270aeb3c7b661b85941b3ef92915102e0d1ce52793cceadd",
      "transactionIndex": "0x9c",
      "blockHash": "0x92c2cf822d0d7d834ff38c216b04a64e64d7fbe1c5b74d1fa08f8db724169b71",
      "blockNumber": "0x14de585",
      "gasUsed": "0xd343",
      "effectiveGasPrice": "0x3d41e61b",
      "from": "0xf2f1acbe0ba726fee8d75f3e32900526874740bb",
      "to": "0xd925c84b55e4e44a53749ff5f2a5a13f63d128fd",
      "contractAddress": null
    },
    {
      "status": "0x1",
      "cumulativeGasUsed": "0xcff5dd",
      "logs": [
        {
          "address": "0x0763196a091575adf99e2306e5e90e0be5154841",
          "topics": [
            "0x528b18a533e892b5401d1fb63597275df9d2bb45b13e7695c3147cd07b9746c3"
          ],
          "data": "0x00000000000000000000000000000000000000000000000000000000000000180000000000000000000000000000000000000000000000000000000000000001",
          "blockHash": "0xd0bd9c6a376ac5c47da47518709b9976c60faca865b66245bb7ceeb1c9397a29",
          "blockNumber": "0x14de586",
          "transactionHash": "0xe26e0e2db3f23a2d07759d1eca36ea75647beffd523f5bed5a23885042fc46f2",
          "transactionIndex": "0x94",
          "logIndex": "0x187",
          "removed": false
        }
      ],
      "logsBloom": "0x00000000000000000000000000000000000000000000000000000000000080000000000000400000000000000000000000000000000000000000000000000000000000000000000000000000800000000000000000000000000000000001000000000000000000001000000000000000000000000000000000000000000000000000000000000000000000000000000000000000000000000000000000000000002000000000000000000000000000000000000000000000000000000000000000000000000000000000000000000000000000000000000000000000000000000000000000000000000000000000000000000000000000000000000000000000",
      "type": "0x2",
      "transactionHash": "0xe26e0e2db3f23a2d07759d1eca36ea75647beffd523f5bed5a23885042fc46f2",
      "transactionIndex": "0x94",
      "blockHash": "0xd0bd9c6a376ac5c47da47518709b9976c60faca865b66245bb7ceeb1c9397a29",
      "blockNumber": "0x14de586",
      "gasUsed": "0xccb6",
      "effectiveGasPrice": "0x3f4a48e3",
      "from": "0xf2f1acbe0ba726fee8d75f3e32900526874740bb",
      "to": "0x0763196a091575adf99e2306e5e90e0be5154841",
      "contractAddress": null
    },
    {
      "status": "0x1",
      "cumulativeGasUsed": "0x498060",
      "logs": [
        {
          "address": "0x98f3c9e6e3face36baad05fe09d375ef1464288b",
          "topics": [
            "0x6eb224fb001ed210e379b335e35efe88672a8ce935d981a6896b27ffdf52a3b2",
            "0x0000000000000000000000000763196a091575adf99e2306e5e90e0be5154841"
          ],
          "data": "0x0000000000000000000000000000000000000000000000000000000000000002000000000000000000000000000000000000000000000000000000000000000000000000000000000000000000000000000000000000000000000000000000800000000000000000000000000000000000000000000000000000000000000001000000000000000000000000000000000000000000000000000000000000002618fc67c200180000000000000000000000000763196a091575adf99e2306e5e90e0be51548410000000000000000000000000000000000000000000000000000",
          "blockHash": "0x0a92645514efd54fabbe38dcf57876b11350651c2319ca8af9e821ed86badfb0",
          "blockNumber": "0x14de587",
          "transactionHash": "0x5a1636c3f1a7d4522c64d6594ae721e210bfa7c7eaf81f66cb01603f25e16798",
          "transactionIndex": "0x4f",
          "logIndex": "0x57",
          "removed": false
        },
        {
          "address": "0x0763196a091575adf99e2306e5e90e0be5154841",
          "topics": [
            "0xa559263ee060c7a2560843b3a064ff0376c9753ae3e2449b595a3b615d326466"
          ],
          "data": "0x00000000000000000000000000000000000000000000000000000000000000180000000000000000000000000763196a091575adf99e2306e5e90e0be5154841",
          "blockHash": "0x0a92645514efd54fabbe38dcf57876b11350651c2319ca8af9e821ed86badfb0",
          "blockNumber": "0x14de587",
          "transactionHash": "0x5a1636c3f1a7d4522c64d6594ae721e210bfa7c7eaf81f66cb01603f25e16798",
          "transactionIndex": "0x4f",
          "logIndex": "0x58",
          "removed": false
        }
      ],
      "logsBloom": "0x00000000000100000000000000000000000000000000000000000000000000000010000000000000000000000010000000000000000000000000000000000000000000000000000000000000000000000000000100000000000000000001000000000000000000001000000000000000000000000000000000000000000000000000000000000000000000000000000000000000000000000000000000000400002000000400000001000000000000000000004000040000000000008000000000000000000000000000000000000000000000000000000000000000000000000000000000000000210000000000000000000000000000000000000000000000",
      "type": "0x2",
      "transactionHash": "0x5a1636c3f1a7d4522c64d6594ae721e210bfa7c7eaf81f66cb01603f25e16798",
      "transactionIndex": "0x4f",
      "blockHash": "0x0a92645514efd54fabbe38dcf57876b11350651c2319ca8af9e821ed86badfb0",
      "blockNumber": "0x14de587",
      "gasUsed": "0x12ed4",
      "effectiveGasPrice": "0x3e2e6746",
      "from": "0xf2f1acbe0ba726fee8d75f3e32900526874740bb",
      "to": "0x0763196a091575adf99e2306e5e90e0be5154841",
      "contractAddress": null
    },
    {
      "status": "0x1",
      "cumulativeGasUsed": "0x129b34e",
      "logs": [
        {
          "address": "0x0763196a091575adf99e2306e5e90e0be5154841",
          "topics": [
            "0x4add57d97a7bf5035340ea1212aeeb3d4d3887eb1faf3821a8224c3a6956a10c"
          ],
          "data": "0x00000000000000000000000000000000000000000000000000000000000000180000000000000000000000000000000000000000000000000000000000000001",
          "blockHash": "0x63e7fe783f0350d56e34e73aaf6cbb27f31319c092c2120253d0ffbb70cd4183",
          "blockNumber": "0x14de588",
          "transactionHash": "0xf0e5e7acb3936b3acadabad96712507e5abbae8f57dbeb2a0fc5fc6c5cd7878d",
          "transactionIndex": "0xe3",
          "logIndex": "0x25f",
          "removed": false
        }
      ],
      "logsBloom": "0x00000000000000080000000000000000000000000000000000000000000000000000000000000000000000000000000000000000000000000000000000000000000000000000000000000000000000000000000000000000000000000001000000000000000000001000000000000000000000000000000000000080000000000000000000000000000000000000000000000000000000000000000000000000002000000000000000000000000000000000000000000000000000000000000000000000000000000000000000000000000000000000000000000000000000000000000000000000000000000000000000000040000000000000000000000000",
      "type": "0x2",
      "transactionHash": "0xf0e5e7acb3936b3acadabad96712507e5abbae8f57dbeb2a0fc5fc6c5cd7878d",
      "transactionIndex": "0xe3",
      "blockHash": "0x63e7fe783f0350d56e34e73aaf6cbb27f31319c092c2120253d0ffbb70cd4183",
      "blockNumber": "0x14de588",
      "gasUsed": "0xcdd4",
      "effectiveGasPrice": "0x39b622ba",
      "from": "0xf2f1acbe0ba726fee8d75f3e32900526874740bb",
      "to": "0x0763196a091575adf99e2306e5e90e0be5154841",
      "contractAddress": null
    }
  ],
  "libraries": [],
  "pending": [],
  "returns": {},
  "timestamp": 1739990222,
  "chain": 1,
  "commit": "6824811"
}
