{
  "transactions": [
    {
      "hash": "0x2dd02b7067c2f99f9cd077768b6f0a27341d7bf37c8f660f96e776f98a3b64c8",
      "transactionType": "CALL",
      "contractName": null,
      "contractAddress": "0xd925c84b55e4e44a53749ff5f2a5a13f63d128fd",
      "function": "setPeer(uint16,bytes32,uint8,uint256)",
      "arguments": [
        "2",
        "0x000000000000000000000000d925c84b55e4e44a53749ff5f2a5a13f63d128fd",
        "6",
        "0"
      ],
      "transaction": {
        "from": "0xf2f1acbe0ba726fee8d75f3e32900526874740bb",
        "to": "0xd925c84b55e4e44a53749ff5f2a5a13f63d128fd",
        "gas": "0x1cac7",
        "value": "0x0",
        "input": "0x7c9186340000000000000000000000000000000000000000000000000000000000000002000000000000000000000000d925c84b55e4e44a53749ff5f2a5a13f63d128fd00000000000000000000000000000000000000000000000000000000000000060000000000000000000000000000000000000000000000000000000000000000",
        "nonce": "0x29",
        "chainId": "0xa"
      },
      "additionalContracts": [],
      "isFixedGasLimit": false
    },
    {
      "hash": "0x16e28bfe5b1296aa93f10a3d1a29caa9a0912e2cf84417b6fa16005f7d9607f3",
      "transactionType": "CALL",
      "contractName": null,
      "contractAddress": "0xd925c84b55e4e44a53749ff5f2a5a13f63d128fd",
      "function": "setDestinationMToken(uint16,bytes32)",
      "arguments": [
        "2",
        "0x000000000000000000000000866a2bf4e572cbcf37d5071a7a58503bfb36be1b"
      ],
      "transaction": {
        "from": "0xf2f1acbe0ba726fee8d75f3e32900526874740bb",
        "to": "0xd925c84b55e4e44a53749ff5f2a5a13f63d128fd",
        "gas": "0x12e1c",
        "value": "0x0",
        "input": "0x76a4a5390000000000000000000000000000000000000000000000000000000000000002000000000000000000000000866a2bf4e572cbcf37d5071a7a58503bfb36be1b",
        "nonce": "0x2a",
        "chainId": "0xa"
      },
      "additionalContracts": [],
      "isFixedGasLimit": false
    },
    {
      "hash": "0xff3a8900a7c0c6fde37a31ba270ec73be2cab615d99022077789a8dd9d0c94d8",
      "transactionType": "CALL",
      "contractName": null,
      "contractAddress": "0xd925c84b55e4e44a53749ff5f2a5a13f63d128fd",
      "function": "setSupportedBridgingPath(address,uint16,bytes32,bool)",
      "arguments": [
        "0x866A2BF4E572CbcF37D5071A7a58503Bfb36be1b",
        "2",
        "0x000000000000000000000000866a2bf4e572cbcf37d5071a7a58503bfb36be1b",
        "true"
      ],
      "transaction": {
        "from": "0xf2f1acbe0ba726fee8d75f3e32900526874740bb",
        "to": "0xd925c84b55e4e44a53749ff5f2a5a13f63d128fd",
        "gas": "0x13524",
        "value": "0x0",
        "input": "0x1482cb4a000000000000000000000000866a2bf4e572cbcf37d5071a7a58503bfb36be1b0000000000000000000000000000000000000000000000000000000000000002000000000000000000000000866a2bf4e572cbcf37d5071a7a58503bfb36be1b0000000000000000000000000000000000000000000000000000000000000001",
        "nonce": "0x2b",
        "chainId": "0xa"
      },
      "additionalContracts": [],
      "isFixedGasLimit": false
    },
    {
      "hash": "0xcd063c09b728f8652786f8241f742585f3870708d94de7f8836215bdb208bbed",
      "transactionType": "CALL",
      "contractName": null,
      "contractAddress": "0xd925c84b55e4e44a53749ff5f2a5a13f63d128fd",
      "function": "setSupportedBridgingPath(address,uint16,bytes32,bool)",
      "arguments": [
        "0x866A2BF4E572CbcF37D5071A7a58503Bfb36be1b",
        "2",
        "0x000000000000000000000000437cc33344a0b27a429f795ff6b469c72698b291",
        "true"
      ],
      "transaction": {
        "from": "0xf2f1acbe0ba726fee8d75f3e32900526874740bb",
        "to": "0xd925c84b55e4e44a53749ff5f2a5a13f63d128fd",
        "gas": "0x13524",
        "value": "0x0",
        "input": "0x1482cb4a000000000000000000000000866a2bf4e572cbcf37d5071a7a58503bfb36be1b0000000000000000000000000000000000000000000000000000000000000002000000000000000000000000437cc33344a0b27a429f795ff6b469c72698b2910000000000000000000000000000000000000000000000000000000000000001",
        "nonce": "0x2c",
        "chainId": "0xa"
      },
      "additionalContracts": [],
      "isFixedGasLimit": false
    },
    {
      "hash": "0xd710da8a886ddcbf0daa3079386d4b35c422efdaa0d86345fb82452f9ab3f4c3",
      "transactionType": "CALL",
      "contractName": null,
      "contractAddress": "0xd925c84b55e4e44a53749ff5f2a5a13f63d128fd",
      "function": "setSupportedBridgingPath(address,uint16,bytes32,bool)",
      "arguments": [
        "0x437cc33344a0B27A429f795ff6B469C72698B291",
        "2",
        "0x000000000000000000000000866a2bf4e572cbcf37d5071a7a58503bfb36be1b",
        "true"
      ],
      "transaction": {
        "from": "0xf2f1acbe0ba726fee8d75f3e32900526874740bb",
        "to": "0xd925c84b55e4e44a53749ff5f2a5a13f63d128fd",
        "gas": "0x13524",
        "value": "0x0",
        "input": "0x1482cb4a000000000000000000000000437cc33344a0b27a429f795ff6b469c72698b2910000000000000000000000000000000000000000000000000000000000000002000000000000000000000000866a2bf4e572cbcf37d5071a7a58503bfb36be1b0000000000000000000000000000000000000000000000000000000000000001",
        "nonce": "0x2d",
        "chainId": "0xa"
      },
      "additionalContracts": [],
      "isFixedGasLimit": false
    },
    {
      "hash": "0xee53ea25d138f4efe609bb947aedb310df0f5ce01f8a98b5533a3165e6754886",
      "transactionType": "CALL",
      "contractName": null,
      "contractAddress": "0xd925c84b55e4e44a53749ff5f2a5a13f63d128fd",
      "function": "setSupportedBridgingPath(address,uint16,bytes32,bool)",
      "arguments": [
        "0x437cc33344a0B27A429f795ff6B469C72698B291",
        "2",
        "0x000000000000000000000000437cc33344a0b27a429f795ff6b469c72698b291",
        "true"
      ],
      "transaction": {
        "from": "0xf2f1acbe0ba726fee8d75f3e32900526874740bb",
        "to": "0xd925c84b55e4e44a53749ff5f2a5a13f63d128fd",
        "gas": "0x13524",
        "value": "0x0",
        "input": "0x1482cb4a000000000000000000000000437cc33344a0b27a429f795ff6b469c72698b2910000000000000000000000000000000000000000000000000000000000000002000000000000000000000000437cc33344a0b27a429f795ff6b469c72698b2910000000000000000000000000000000000000000000000000000000000000001",
        "nonce": "0x2e",
        "chainId": "0xa"
      },
      "additionalContracts": [],
      "isFixedGasLimit": false
    },
    {
      "hash": "0xb125402dd02ca46b786f885e9bfe1c18e92b6ff056d45007b498ca9c2ca33b52",
      "transactionType": "CALL",
      "contractName": null,
      "contractAddress": "0x0763196a091575adf99e2306e5e90e0be5154841",
      "function": "setIsWormholeRelayingEnabled(uint16,bool)",
      "arguments": ["2", "true"],
      "transaction": {
        "from": "0xf2f1acbe0ba726fee8d75f3e32900526874740bb",
        "to": "0x0763196a091575adf99e2306e5e90e0be5154841",
        "gas": "0x11ac1",
        "value": "0x0",
        "input": "0x657b3b2f00000000000000000000000000000000000000000000000000000000000000020000000000000000000000000000000000000000000000000000000000000001",
        "nonce": "0x2f",
        "chainId": "0xa"
      },
      "additionalContracts": [],
      "isFixedGasLimit": false
    },
    {
      "hash": "0x045d31d550a0494662cdf0f23a3b0aaa09738dfbfc70a5467284bb6119b447e8",
      "transactionType": "CALL",
      "contractName": null,
      "contractAddress": "0x0763196a091575adf99e2306e5e90e0be5154841",
      "function": "setWormholePeer(uint16,bytes32)",
      "arguments": [
        "2",
        "0x0000000000000000000000000763196a091575adf99e2306e5e90e0be5154841"
      ],
      "transaction": {
        "from": "0xf2f1acbe0ba726fee8d75f3e32900526874740bb",
        "to": "0x0763196a091575adf99e2306e5e90e0be5154841",
        "gas": "0x1a247",
        "value": "0x0",
        "input": "0x7ab5640300000000000000000000000000000000000000000000000000000000000000020000000000000000000000000763196a091575adf99e2306e5e90e0be5154841",
        "nonce": "0x30",
        "chainId": "0xa"
      },
      "additionalContracts": [],
      "isFixedGasLimit": false
    },
    {
      "hash": "0x37b06d9200646bbd9037d2d313702dc130828760506aa917f044cb82c0b6211d",
      "transactionType": "CALL",
      "contractName": null,
      "contractAddress": "0x0763196a091575adf99e2306e5e90e0be5154841",
      "function": "setIsWormholeEvmChain(uint16,bool)",
      "arguments": ["2", "true"],
      "transaction": {
        "from": "0xf2f1acbe0ba726fee8d75f3e32900526874740bb",
        "to": "0x0763196a091575adf99e2306e5e90e0be5154841",
        "gas": "0x11c4c",
        "value": "0x0",
        "input": "0x96dddc6300000000000000000000000000000000000000000000000000000000000000020000000000000000000000000000000000000000000000000000000000000001",
        "nonce": "0x31",
        "chainId": "0xa"
      },
      "additionalContracts": [],
      "isFixedGasLimit": false
    },
    {
      "hash": "0x9863bd79e1596d55daecd0ae5aecbe6bbbe62949d67d66abf214c5a3d801481e",
      "transactionType": "CALL",
      "contractName": null,
      "contractAddress": "0xd925c84b55e4e44a53749ff5f2a5a13f63d128fd",
      "function": "setPeer(uint16,bytes32,uint8,uint256)",
      "arguments": [
        "23",
        "0x000000000000000000000000d925c84b55e4e44a53749ff5f2a5a13f63d128fd",
        "6",
        "0"
      ],
      "transaction": {
        "from": "0xf2f1acbe0ba726fee8d75f3e32900526874740bb",
        "to": "0xd925c84b55e4e44a53749ff5f2a5a13f63d128fd",
        "gas": "0x1cac7",
        "value": "0x0",
        "input": "0x7c9186340000000000000000000000000000000000000000000000000000000000000017000000000000000000000000d925c84b55e4e44a53749ff5f2a5a13f63d128fd00000000000000000000000000000000000000000000000000000000000000060000000000000000000000000000000000000000000000000000000000000000",
        "nonce": "0x32",
        "chainId": "0xa"
      },
      "additionalContracts": [],
      "isFixedGasLimit": false
    },
    {
      "hash": "0x365c2d94a8e78acf8e0a894514d51790297dd8f211a971a5ef2fb016a3a37ebb",
      "transactionType": "CALL",
      "contractName": null,
      "contractAddress": "0xd925c84b55e4e44a53749ff5f2a5a13f63d128fd",
      "function": "setDestinationMToken(uint16,bytes32)",
      "arguments": [
        "23",
        "0x000000000000000000000000866a2bf4e572cbcf37d5071a7a58503bfb36be1b"
      ],
      "transaction": {
        "from": "0xf2f1acbe0ba726fee8d75f3e32900526874740bb",
        "to": "0xd925c84b55e4e44a53749ff5f2a5a13f63d128fd",
        "gas": "0x12e1c",
        "value": "0x0",
        "input": "0x76a4a5390000000000000000000000000000000000000000000000000000000000000017000000000000000000000000866a2bf4e572cbcf37d5071a7a58503bfb36be1b",
        "nonce": "0x33",
        "chainId": "0xa"
      },
      "additionalContracts": [],
      "isFixedGasLimit": false
    },
    {
      "hash": "0x849c67dffda14c313fc6b0eb045ac874f9ed8b85a36bef3a5cc8863ded3e19c0",
      "transactionType": "CALL",
      "contractName": null,
      "contractAddress": "0xd925c84b55e4e44a53749ff5f2a5a13f63d128fd",
      "function": "setSupportedBridgingPath(address,uint16,bytes32,bool)",
      "arguments": [
        "0x866A2BF4E572CbcF37D5071A7a58503Bfb36be1b",
        "23",
        "0x000000000000000000000000866a2bf4e572cbcf37d5071a7a58503bfb36be1b",
        "true"
      ],
      "transaction": {
        "from": "0xf2f1acbe0ba726fee8d75f3e32900526874740bb",
        "to": "0xd925c84b55e4e44a53749ff5f2a5a13f63d128fd",
        "gas": "0x13524",
        "value": "0x0",
        "input": "0x1482cb4a000000000000000000000000866a2bf4e572cbcf37d5071a7a58503bfb36be1b0000000000000000000000000000000000000000000000000000000000000017000000000000000000000000866a2bf4e572cbcf37d5071a7a58503bfb36be1b0000000000000000000000000000000000000000000000000000000000000001",
        "nonce": "0x34",
        "chainId": "0xa"
      },
      "additionalContracts": [],
      "isFixedGasLimit": false
    },
    {
      "hash": "0x009e9e01a8d002d60b5d114db00cb897fd78f1b311d2c1d020f8ca421edf6fd5",
      "transactionType": "CALL",
      "contractName": null,
      "contractAddress": "0xd925c84b55e4e44a53749ff5f2a5a13f63d128fd",
      "function": "setSupportedBridgingPath(address,uint16,bytes32,bool)",
      "arguments": [
        "0x866A2BF4E572CbcF37D5071A7a58503Bfb36be1b",
        "23",
        "0x000000000000000000000000437cc33344a0b27a429f795ff6b469c72698b291",
        "true"
      ],
      "transaction": {
        "from": "0xf2f1acbe0ba726fee8d75f3e32900526874740bb",
        "to": "0xd925c84b55e4e44a53749ff5f2a5a13f63d128fd",
        "gas": "0x13524",
        "value": "0x0",
        "input": "0x1482cb4a000000000000000000000000866a2bf4e572cbcf37d5071a7a58503bfb36be1b0000000000000000000000000000000000000000000000000000000000000017000000000000000000000000437cc33344a0b27a429f795ff6b469c72698b2910000000000000000000000000000000000000000000000000000000000000001",
        "nonce": "0x35",
        "chainId": "0xa"
      },
      "additionalContracts": [],
      "isFixedGasLimit": false
    },
    {
      "hash": "0xdc968f5e8cc95a645c9d64cc703a13365c15bda7e2da1c9b3f8ee2379828a3be",
      "transactionType": "CALL",
      "contractName": null,
      "contractAddress": "0xd925c84b55e4e44a53749ff5f2a5a13f63d128fd",
      "function": "setSupportedBridgingPath(address,uint16,bytes32,bool)",
      "arguments": [
        "0x437cc33344a0B27A429f795ff6B469C72698B291",
        "23",
        "0x000000000000000000000000866a2bf4e572cbcf37d5071a7a58503bfb36be1b",
        "true"
      ],
      "transaction": {
        "from": "0xf2f1acbe0ba726fee8d75f3e32900526874740bb",
        "to": "0xd925c84b55e4e44a53749ff5f2a5a13f63d128fd",
        "gas": "0x13524",
        "value": "0x0",
        "input": "0x1482cb4a000000000000000000000000437cc33344a0b27a429f795ff6b469c72698b2910000000000000000000000000000000000000000000000000000000000000017000000000000000000000000866a2bf4e572cbcf37d5071a7a58503bfb36be1b0000000000000000000000000000000000000000000000000000000000000001",
        "nonce": "0x36",
        "chainId": "0xa"
      },
      "additionalContracts": [],
      "isFixedGasLimit": false
    },
    {
      "hash": "0xf8d8e0a224095fb07c36f99765fca3632e496cd93176ddc944ffaae0e0e91aea",
      "transactionType": "CALL",
      "contractName": null,
      "contractAddress": "0xd925c84b55e4e44a53749ff5f2a5a13f63d128fd",
      "function": "setSupportedBridgingPath(address,uint16,bytes32,bool)",
      "arguments": [
        "0x437cc33344a0B27A429f795ff6B469C72698B291",
        "23",
        "0x000000000000000000000000437cc33344a0b27a429f795ff6b469c72698b291",
        "true"
      ],
      "transaction": {
        "from": "0xf2f1acbe0ba726fee8d75f3e32900526874740bb",
        "to": "0xd925c84b55e4e44a53749ff5f2a5a13f63d128fd",
        "gas": "0x13524",
        "value": "0x0",
        "input": "0x1482cb4a000000000000000000000000437cc33344a0b27a429f795ff6b469c72698b2910000000000000000000000000000000000000000000000000000000000000017000000000000000000000000437cc33344a0b27a429f795ff6b469c72698b2910000000000000000000000000000000000000000000000000000000000000001",
        "nonce": "0x37",
        "chainId": "0xa"
      },
      "additionalContracts": [],
      "isFixedGasLimit": false
    },
    {
      "hash": "0xcdbbb0a9350fe203b022e7769f7475fc49f5709ffe0fcd47db7ae5539ea42021",
      "transactionType": "CALL",
      "contractName": null,
      "contractAddress": "0x0763196a091575adf99e2306e5e90e0be5154841",
      "function": "setIsWormholeRelayingEnabled(uint16,bool)",
      "arguments": ["23", "true"],
      "transaction": {
        "from": "0xf2f1acbe0ba726fee8d75f3e32900526874740bb",
        "to": "0x0763196a091575adf99e2306e5e90e0be5154841",
        "gas": "0x11ac1",
        "value": "0x0",
        "input": "0x657b3b2f00000000000000000000000000000000000000000000000000000000000000170000000000000000000000000000000000000000000000000000000000000001",
        "nonce": "0x38",
        "chainId": "0xa"
      },
      "additionalContracts": [],
      "isFixedGasLimit": false
    },
    {
      "hash": "0x594fc0ac55acac3e15b8d1f7b95a22ed7b8918bc0eec92cdbabf24470d7ad0db",
      "transactionType": "CALL",
      "contractName": null,
      "contractAddress": "0x0763196a091575adf99e2306e5e90e0be5154841",
      "function": "setWormholePeer(uint16,bytes32)",
      "arguments": [
        "23",
        "0x0000000000000000000000000763196a091575adf99e2306e5e90e0be5154841"
      ],
      "transaction": {
        "from": "0xf2f1acbe0ba726fee8d75f3e32900526874740bb",
        "to": "0x0763196a091575adf99e2306e5e90e0be5154841",
        "gas": "0x1a247",
        "value": "0x0",
        "input": "0x7ab5640300000000000000000000000000000000000000000000000000000000000000170000000000000000000000000763196a091575adf99e2306e5e90e0be5154841",
        "nonce": "0x39",
        "chainId": "0xa"
      },
      "additionalContracts": [],
      "isFixedGasLimit": false
    },
    {
      "hash": "0x66bfba2dcae0dad8c12b68f8056e19bd5c4cf52dc913a6223ab1647969f76215",
      "transactionType": "CALL",
      "contractName": null,
      "contractAddress": "0x0763196a091575adf99e2306e5e90e0be5154841",
      "function": "setIsWormholeEvmChain(uint16,bool)",
      "arguments": ["23", "true"],
      "transaction": {
        "from": "0xf2f1acbe0ba726fee8d75f3e32900526874740bb",
        "to": "0x0763196a091575adf99e2306e5e90e0be5154841",
        "gas": "0x11c4c",
        "value": "0x0",
        "input": "0x96dddc6300000000000000000000000000000000000000000000000000000000000000170000000000000000000000000000000000000000000000000000000000000001",
        "nonce": "0x3a",
        "chainId": "0xa"
      },
      "additionalContracts": [],
      "isFixedGasLimit": false
    }
  ],
  "receipts": [
    {
      "status": "0x1",
      "cumulativeGasUsed": "0x147b59",
      "logs": [
        {
          "address": "0xd925c84b55e4e44a53749ff5f2a5a13f63d128fd",
          "topics": [
            "0x1456404e7f41f35c3daac941bb50bad417a66275c3040061b4287d787719599d",
            "0x0000000000000000000000000000000000000000000000000000000000000002"
          ],
          "data": "0x00000000000000000000000000000000000000000000000000000000000000000000000000000000000000000000000000000000000000000000000000000000000000000000000000000000d925c84b55e4e44a53749ff5f2a5a13f63d128fd0000000000000000000000000000000000000000000000000000000000000006",
          "blockHash": "0x77748c1aaa06118e05bfa95b18381f393262192b62f017e1a2a960493a53875c",
          "blockNumber": "0x7e1268a",
          "transactionHash": "0x2dd02b7067c2f99f9cd077768b6f0a27341d7bf37c8f660f96e776f98a3b64c8",
          "transactionIndex": "0x4",
          "logIndex": "0x1",
          "removed": false
        }
      ],
      "logsBloom": "0x04000000000000000000000000000000000000000000000000000000000000000000000000000000002000000000000000000000000000000000000000000000000000000000000000000000000000000000000000024000000000000000000000002000000000000000000000000000000000000000000000000000000000000000000000000000000008000000000000000000000000000000000000000000000000000000000000000100000000000000000000000000000000000000080000000000000000000000000000000000000000000000000000000000000000000000000000000000000000000000000000000000008000000000000000000000",
      "type": "0x2",
      "transactionHash": "0x2dd02b7067c2f99f9cd077768b6f0a27341d7bf37c8f660f96e776f98a3b64c8",
      "transactionIndex": "0x4",
      "blockHash": "0x77748c1aaa06118e05bfa95b18381f393262192b62f017e1a2a960493a53875c",
      "blockNumber": "0x7e1268a",
      "gasUsed": "0x139b2",
      "effectiveGasPrice": "0x18a31",
      "from": "0xf2f1acbe0ba726fee8d75f3e32900526874740bb",
      "to": "0xd925c84b55e4e44a53749ff5f2a5a13f63d128fd",
      "contractAddress": null,
      "l1BaseFeeScalar": "0x146b",
      "l1BlobBaseFee": "0x1b9dff",
      "l1BlobBaseFeeScalar": "0xf79c5",
      "l1Fee": "0x1b5285046",
      "l1GasPrice": "0x32f69a2e",
      "l1GasUsed": "0x640"
    },
    {
      "status": "0x1",
      "cumulativeGasUsed": "0x51e201",
      "logs": [
        {
          "address": "0xd925c84b55e4e44a53749ff5f2a5a13f63d128fd",
          "topics": [
            "0xe6658eeba76934cef78dc5f420ee40406e4876e8d3e767f7b700c63daf1bf0ba",
            "0x0000000000000000000000000000000000000000000000000000000000000002"
          ],
          "data": "0x000000000000000000000000866a2bf4e572cbcf37d5071a7a58503bfb36be1b",
          "blockHash": "0x05b5c42264776ea1134cfc0893aa04595e929d8d426a7e1ca6ad52acfea18e37",
          "blockNumber": "0x7e1268c",
          "transactionHash": "0x16e28bfe5b1296aa93f10a3d1a29caa9a0912e2cf84417b6fa16005f7d9607f3",
          "transactionIndex": "0x13",
          "logIndex": "0x35",
          "removed": false
        }
      ],
      "logsBloom": "0x04000000000000000000000000000000000000000000000000000000000000000000000000000000000000000000000000000000000000000000000000000000000000000000000000000000002000000000000000024000000000000000000000000000000000000000000000000000000000000000000000000000000000000000000000000000000000000000000000000000000000000000000000000000000080000000000000000100000000000000000000000000000000000000080000000000000020000000000000000000000000000000000000000000000000000000000000000000000000000000000000000000008000000000000000000000",
      "type": "0x2",
      "transactionHash": "0x16e28bfe5b1296aa93f10a3d1a29caa9a0912e2cf84417b6fa16005f7d9607f3",
      "transactionIndex": "0x13",
      "blockHash": "0x05b5c42264776ea1134cfc0893aa04595e929d8d426a7e1ca6ad52acfea18e37",
      "blockNumber": "0x7e1268c",
      "gasUsed": "0xce93",
      "effectiveGasPrice": "0x18a32",
      "from": "0xf2f1acbe0ba726fee8d75f3e32900526874740bb",
      "to": "0xd925c84b55e4e44a53749ff5f2a5a13f63d128fd",
      "contractAddress": null,
      "l1BaseFeeScalar": "0x146b",
      "l1BlobBaseFee": "0x1f11bf",
      "l1BlobBaseFeeScalar": "0xf79c5",
      "l1Fee": "0x1b5d7f309",
      "l1GasPrice": "0x32e1bd20",
      "l1GasUsed": "0x640"
    },
    {
      "status": "0x1",
      "cumulativeGasUsed": "0x3b7263",
      "logs": [
        {
          "address": "0xd925c84b55e4e44a53749ff5f2a5a13f63d128fd",
          "topics": [
            "0xeb8377c150d1438121333afa2027232605a400b1208ae6f9cfa156438e453f6d",
            "0x000000000000000000000000866a2bf4e572cbcf37d5071a7a58503bfb36be1b",
            "0x0000000000000000000000000000000000000000000000000000000000000002",
            "0x000000000000000000000000866a2bf4e572cbcf37d5071a7a58503bfb36be1b"
          ],
          "data": "0x0000000000000000000000000000000000000000000000000000000000000001",
          "blockHash": "0x167af1e923ea93d1799362825a3f96e52b572ae53cccc3c7cbd64306403081dd",
          "blockNumber": "0x7e1268d",
          "transactionHash": "0xff3a8900a7c0c6fde37a31ba270ec73be2cab615d99022077789a8dd9d0c94d8",
          "transactionIndex": "0x13",
          "logIndex": "0x19",
          "removed": false
        }
      ],
      "logsBloom": "0x04000008000000000000000000000000000000000000000000000000000000000000000000000000000000000000000000000000000000000000000000000000800000000000000000000000000000000000000000024000000000000000000000000000000000000000000000000000000000000000000100000000000000000000000000000000000000000040000000000000000000000000000000000000000000000000000000000100008000000000000000000000000000000000080000000000000400000000000000000000000000000000000000000000000000000000000000000000000000000000000000000000008000000000000000000000",
      "type": "0x2",
      "transactionHash": "0xff3a8900a7c0c6fde37a31ba270ec73be2cab615d99022077789a8dd9d0c94d8",
      "transactionIndex": "0x13",
      "blockHash": "0x167af1e923ea93d1799362825a3f96e52b572ae53cccc3c7cbd64306403081dd",
      "blockNumber": "0x7e1268d",
      "gasUsed": "0xd361",
      "effectiveGasPrice": "0x18a32",
      "from": "0xf2f1acbe0ba726fee8d75f3e32900526874740bb",
      "to": "0xd925c84b55e4e44a53749ff5f2a5a13f63d128fd",
      "contractAddress": null,
      "l1BaseFeeScalar": "0x146b",
      "l1BlobBaseFee": "0x1f11bf",
      "l1BlobBaseFeeScalar": "0xf79c5",
      "l1Fee": "0x1b5d7f309",
      "l1GasPrice": "0x32e1bd20",
      "l1GasUsed": "0x640"
    },
    {
      "status": "0x1",
      "cumulativeGasUsed": "0x62e808",
      "logs": [
        {
          "address": "0xd925c84b55e4e44a53749ff5f2a5a13f63d128fd",
          "topics": [
            "0xeb8377c150d1438121333afa2027232605a400b1208ae6f9cfa156438e453f6d",
            "0x000000000000000000000000866a2bf4e572cbcf37d5071a7a58503bfb36be1b",
            "0x0000000000000000000000000000000000000000000000000000000000000002",
            "0x000000000000000000000000437cc33344a0b27a429f795ff6b469c72698b291"
          ],
          "data": "0x0000000000000000000000000000000000000000000000000000000000000001",
          "blockHash": "0x17fdd515be826d557611b98f6ee784008279393a58c4a0de2da71933c364cce4",
          "blockNumber": "0x7e1268e",
          "transactionHash": "0xcd063c09b728f8652786f8241f742585f3870708d94de7f8836215bdb208bbed",
          "transactionIndex": "0x13",
          "logIndex": "0x23",
          "removed": false
        }
      ],
      "logsBloom": "0x04000008000002000000000000000000000000000000000000000000000000000000000000000000000000000000000000000000000000000000000000000000800000000000000000000000000000000000000000024000000000000000000000000000000000000000000000000000000000000000000100000000000000000000000000000000000000000040000000000000000000000000000000000000000000000000000000000100008000000000000000020000000000000000080000000000000400000000000000000000000000000000000000000000000000200000000000000000000000000000000000000000008000000000000000000000",
      "type": "0x2",
      "transactionHash": "0xcd063c09b728f8652786f8241f742585f3870708d94de7f8836215bdb208bbed",
      "transactionIndex": "0x13",
      "blockHash": "0x17fdd515be826d557611b98f6ee784008279393a58c4a0de2da71933c364cce4",
      "blockNumber": "0x7e1268e",
      "gasUsed": "0xd361",
      "effectiveGasPrice": "0x18a32",
      "from": "0xf2f1acbe0ba726fee8d75f3e32900526874740bb",
      "to": "0xd925c84b55e4e44a53749ff5f2a5a13f63d128fd",
      "contractAddress": null,
      "l1BaseFeeScalar": "0x146b",
      "l1BlobBaseFee": "0x1f11bf",
      "l1BlobBaseFeeScalar": "0xf79c5",
      "l1Fee": "0x1e020bb22",
      "l1GasPrice": "0x32e1bd20",
      "l1GasUsed": "0x6da"
    },
    {
      "status": "0x1",
      "cumulativeGasUsed": "0x2eeeff",
      "logs": [
        {
          "address": "0xd925c84b55e4e44a53749ff5f2a5a13f63d128fd",
          "topics": [
            "0xeb8377c150d1438121333afa2027232605a400b1208ae6f9cfa156438e453f6d",
            "0x000000000000000000000000437cc33344a0b27a429f795ff6b469c72698b291",
            "0x0000000000000000000000000000000000000000000000000000000000000002",
            "0x000000000000000000000000866a2bf4e572cbcf37d5071a7a58503bfb36be1b"
          ],
          "data": "0x0000000000000000000000000000000000000000000000000000000000000001",
          "blockHash": "0x395ad709595729fe20b7546281bbd94c21a1f1b36c8b18118237cbfba302068d",
          "blockNumber": "0x7e12690",
          "transactionHash": "0xd710da8a886ddcbf0daa3079386d4b35c422efdaa0d86345fb82452f9ab3f4c3",
          "transactionIndex": "0xe",
          "logIndex": "0xc",
          "removed": false
        }
      ],
      "logsBloom": "0x04000008000002000000000000000000000000000000000000000000000000000000000000000000000000000000000000000000000000000000000000000000800000000000000000000000000000000000000000024000000000000000000000000000000000000000000000000000000000000000000100000000000000000000000000000000000000000040000000000000000000000000000000000000000000000000000000000100008000000000000000020000000000000000080000000000000400000000000000000000000000000000000000000000000000200000000000000000000000000000000000000000008000000000000000000000",
      "type": "0x2",
      "transactionHash": "0xd710da8a886ddcbf0daa3079386d4b35c422efdaa0d86345fb82452f9ab3f4c3",
      "transactionIndex": "0xe",
      "blockHash": "0x395ad709595729fe20b7546281bbd94c21a1f1b36c8b18118237cbfba302068d",
      "blockNumber": "0x7e12690",
      "gasUsed": "0xd361",
      "effectiveGasPrice": "0x18a31",
      "from": "0xf2f1acbe0ba726fee8d75f3e32900526874740bb",
      "to": "0xd925c84b55e4e44a53749ff5f2a5a13f63d128fd",
      "contractAddress": null,
      "l1BaseFeeScalar": "0x146b",
      "l1BlobBaseFee": "0x1f11bf",
      "l1BlobBaseFeeScalar": "0xf79c5",
      "l1Fee": "0x1e020bb22",
      "l1GasPrice": "0x32e1bd20",
      "l1GasUsed": "0x6da"
    },
    {
      "status": "0x1",
      "cumulativeGasUsed": "0x771fd1",
      "logs": [
        {
          "address": "0xd925c84b55e4e44a53749ff5f2a5a13f63d128fd",
          "topics": [
            "0xeb8377c150d1438121333afa2027232605a400b1208ae6f9cfa156438e453f6d",
            "0x000000000000000000000000437cc33344a0b27a429f795ff6b469c72698b291",
            "0x0000000000000000000000000000000000000000000000000000000000000002",
            "0x000000000000000000000000437cc33344a0b27a429f795ff6b469c72698b291"
          ],
          "data": "0x0000000000000000000000000000000000000000000000000000000000000001",
          "blockHash": "0xa08d50f5a34a60fe417ff6a0af95ccc3c980a2f4503e31b3b5d8e54a3a587849",
          "blockNumber": "0x7e12692",
          "transactionHash": "0xee53ea25d138f4efe609bb947aedb310df0f5ce01f8a98b5533a3165e6754886",
          "transactionIndex": "0x22",
          "logIndex": "0x47",
          "removed": false
        }
      ],
      "logsBloom": "0x04000008000002000000000000000000000000000000000000000000000000000000000000000000000000000000000000000000000000000000000000000000800000000000000000000000000000000000000000024000000000000000000000000000000000000000000000000000000000000000000000000000000000000000000000000000000000000000000000000000000000000000000000000000000000000000000000000100008000000000000000020000000000000000080000000000000000000000000000000000000000000000000000000000000000200000000000000000000000000000000000000000008000000000000000000000",
      "type": "0x2",
      "transactionHash": "0xee53ea25d138f4efe609bb947aedb310df0f5ce01f8a98b5533a3165e6754886",
      "transactionIndex": "0x22",
      "blockHash": "0xa08d50f5a34a60fe417ff6a0af95ccc3c980a2f4503e31b3b5d8e54a3a587849",
      "blockNumber": "0x7e12692",
      "gasUsed": "0xd361",
      "effectiveGasPrice": "0x18a31",
      "from": "0xf2f1acbe0ba726fee8d75f3e32900526874740bb",
      "to": "0xd925c84b55e4e44a53749ff5f2a5a13f63d128fd",
      "contractAddress": null,
      "l1BaseFeeScalar": "0x146b",
      "l1BlobBaseFee": "0x1b9dff",
      "l1BlobBaseFeeScalar": "0xf79c5",
      "l1Fee": "0x1b15f59c4",
      "l1GasPrice": "0x3282bdf1",
      "l1GasUsed": "0x640"
    },
    {
      "status": "0x1",
      "cumulativeGasUsed": "0x7ea7bb",
      "logs": [
        {
          "address": "0x0763196a091575adf99e2306e5e90e0be5154841",
          "topics": [
            "0x528b18a533e892b5401d1fb63597275df9d2bb45b13e7695c3147cd07b9746c3"
          ],
          "data": "0x00000000000000000000000000000000000000000000000000000000000000020000000000000000000000000000000000000000000000000000000000000001",
          "blockHash": "0x422bdb739141eab77858ca14fb8607d268f393b35a952bfea2b87b3ce6f5df9b",
          "blockNumber": "0x7e12694",
          "transactionHash": "0xb125402dd02ca46b786f885e9bfe1c18e92b6ff056d45007b498ca9c2ca33b52",
          "transactionIndex": "0x17",
          "logIndex": "0x14",
          "removed": false
        }
      ],
      "logsBloom": "0x00000000000000000000000000000000000000000000000000000000000080000000000000400000000000000000000000000000000000000000000000000000000000000000000000000000800000000000000000000000000000000001000000000000000000001000000000000000000000000000000000000000000000000000000000000000000000000000000000000000000000000000000000000000002000000000000000000000000000000000000000000000000000000000000000000000000000000000000000000000000000000000000000000000000000000000000000000000000000000000000000000000000000000000000000000000",
      "type": "0x2",
      "transactionHash": "0xb125402dd02ca46b786f885e9bfe1c18e92b6ff056d45007b498ca9c2ca33b52",
      "transactionIndex": "0x17",
      "blockHash": "0x422bdb739141eab77858ca14fb8607d268f393b35a952bfea2b87b3ce6f5df9b",
      "blockNumber": "0x7e12694",
      "gasUsed": "0xccb6",
      "effectiveGasPrice": "0x18a31",
      "from": "0xf2f1acbe0ba726fee8d75f3e32900526874740bb",
      "to": "0x0763196a091575adf99e2306e5e90e0be5154841",
      "contractAddress": null,
      "l1BaseFeeScalar": "0x146b",
      "l1BlobBaseFee": "0x1b9dff",
      "l1BlobBaseFeeScalar": "0xf79c5",
      "l1Fee": "0x1b15f59c4",
      "l1GasPrice": "0x3282bdf1",
      "l1GasUsed": "0x640"
    },
    {
      "status": "0x1",
      "cumulativeGasUsed": "0x8e93be",
      "logs": [
        {
          "address": "0xee91c335eab126df5fdb3797ea9d6ad93aec9722",
          "topics": [
            "0x6eb224fb001ed210e379b335e35efe88672a8ce935d981a6896b27ffdf52a3b2",
            "0x0000000000000000000000000763196a091575adf99e2306e5e90e0be5154841"
          ],
          "data": "0x0000000000000000000000000000000000000000000000000000000000000001000000000000000000000000000000000000000000000000000000000000000000000000000000000000000000000000000000000000000000000000000000800000000000000000000000000000000000000000000000000000000000000001000000000000000000000000000000000000000000000000000000000000002618fc67c200020000000000000000000000000763196a091575adf99e2306e5e90e0be51548410000000000000000000000000000000000000000000000000000",
          "blockHash": "0x85f4b74ff7f4a6156fe82c49945fa0040dfb5825729a37376e0de6ce29f37bda",
          "blockNumber": "0x7e12696",
          "transactionHash": "0x045d31d550a0494662cdf0f23a3b0aaa09738dfbfc70a5467284bb6119b447e8",
          "transactionIndex": "0x18",
          "logIndex": "0x49",
          "removed": false
        },
        {
          "address": "0x0763196a091575adf99e2306e5e90e0be5154841",
          "topics": [
            "0xa559263ee060c7a2560843b3a064ff0376c9753ae3e2449b595a3b615d326466"
          ],
          "data": "0x00000000000000000000000000000000000000000000000000000000000000020000000000000000000000000763196a091575adf99e2306e5e90e0be5154841",
          "blockHash": "0x85f4b74ff7f4a6156fe82c49945fa0040dfb5825729a37376e0de6ce29f37bda",
          "blockNumber": "0x7e12696",
          "transactionHash": "0x045d31d550a0494662cdf0f23a3b0aaa09738dfbfc70a5467284bb6119b447e8",
          "transactionIndex": "0x18",
          "logIndex": "0x4a",
          "removed": false
        }
      ],
      "logsBloom": "0x00000000000100000000000000000000000000000000000000000000000000000010000000000000000000000010000000000000000000000000000000000000000000000000000000000000000000000000000100000000000000000011000000000000000000001000000000000000000000000000000000000000000000000000000000000000000000000000000000000000000000001000000000000000002000400400000000000000000000000000004000000000000000008000000000000000000000000000000000000000000000000000000000000000000000000000000000000000210000000000000000000000000000000000000000000000",
      "type": "0x2",
      "transactionHash": "0x045d31d550a0494662cdf0f23a3b0aaa09738dfbfc70a5467284bb6119b447e8",
      "transactionIndex": "0x18",
      "blockHash": "0x85f4b74ff7f4a6156fe82c49945fa0040dfb5825729a37376e0de6ce29f37bda",
      "blockNumber": "0x7e12696",
      "gasUsed": "0x12ed4",
      "effectiveGasPrice": "0x18a31",
      "from": "0xf2f1acbe0ba726fee8d75f3e32900526874740bb",
      "to": "0x0763196a091575adf99e2306e5e90e0be5154841",
      "contractAddress": null,
      "l1BaseFeeScalar": "0x146b",
      "l1BlobBaseFee": "0x1b9dff",
      "l1BlobBaseFeeScalar": "0xf79c5",
      "l1Fee": "0x1b15f59c4",
      "l1GasPrice": "0x3282bdf1",
      "l1GasUsed": "0x640"
    },
    {
      "status": "0x1",
      "cumulativeGasUsed": "0x3e70ea",
      "logs": [
        {
          "address": "0x0763196a091575adf99e2306e5e90e0be5154841",
          "topics": [
            "0x4add57d97a7bf5035340ea1212aeeb3d4d3887eb1faf3821a8224c3a6956a10c"
          ],
          "data": "0x00000000000000000000000000000000000000000000000000000000000000020000000000000000000000000000000000000000000000000000000000000001",
          "blockHash": "0xc0e66009003bb857a5ea466251708abeecf6565b85d6943661e1b428a25a38ec",
          "blockNumber": "0x7e12698",
          "transactionHash": "0x37b06d9200646bbd9037d2d313702dc130828760506aa917f044cb82c0b6211d",
          "transactionIndex": "0xf",
          "logIndex": "0x1a",
          "removed": false
        }
      ],
      "logsBloom": "0x00000000000000080000000000000000000000000000000000000000000000000000000000000000000000000000000000000000000000000000000000000000000000000000000000000000000000000000000000000000000000000001000000000000000000001000000000000000000000000000000000000080000000000000000000000000000000000000000000000000000000000000000000000000002000000000000000000000000000000000000000000000000000000000000000000000000000000000000000000000000000000000000000000000000000000000000000000000000000000000000000000040000000000000000000000000",
      "type": "0x2",
      "transactionHash": "0x37b06d9200646bbd9037d2d313702dc130828760506aa917f044cb82c0b6211d",
      "transactionIndex": "0xf",
      "blockHash": "0xc0e66009003bb857a5ea466251708abeecf6565b85d6943661e1b428a25a38ec",
      "blockNumber": "0x7e12698",
      "gasUsed": "0xcdd4",
      "effectiveGasPrice": "0x18a32",
      "from": "0xf2f1acbe0ba726fee8d75f3e32900526874740bb",
      "to": "0x0763196a091575adf99e2306e5e90e0be5154841",
      "contractAddress": null,
      "l1BaseFeeScalar": "0x146b",
      "l1BlobBaseFee": "0x1cb918",
      "l1BlobBaseFeeScalar": "0xf79c5",
      "l1Fee": "0x1b1d26bb2",
      "l1GasPrice": "0x3283171e",
      "l1GasUsed": "0x640"
    },
    {
      "status": "0x1",
      "cumulativeGasUsed": "0x85cd27",
      "logs": [
        {
          "address": "0xd925c84b55e4e44a53749ff5f2a5a13f63d128fd",
          "topics": [
            "0x1456404e7f41f35c3daac941bb50bad417a66275c3040061b4287d787719599d",
            "0x0000000000000000000000000000000000000000000000000000000000000017"
          ],
          "data": "0x00000000000000000000000000000000000000000000000000000000000000000000000000000000000000000000000000000000000000000000000000000000000000000000000000000000d925c84b55e4e44a53749ff5f2a5a13f63d128fd0000000000000000000000000000000000000000000000000000000000000006",
          "blockHash": "0xa13e7fef589cc7e2dabf300957d5123f9c9a12c4bec60ce9bd29bb26afac8881",
          "blockNumber": "0x7e1269a",
          "transactionHash": "0x9863bd79e1596d55daecd0ae5aecbe6bbbe62949d67d66abf214c5a3d801481e",
          "transactionIndex": "0xb",
          "logIndex": "0x1a1",
          "removed": false
        }
      ],
      "logsBloom": "0x00000000000000000000000000000000000000000000000000000000000000000000000000000000002000000000000000001000000000000000001000000000000000000000000000000000000000000000000000024000000000000000000000002000000000000000000000000000000000000000000000000000000000000000000000000000000008000000000000000000000000000000000000000000000000000000000000000000000000000000000000000000000000000000080000000000000000000000000000000000000000000000000000000000000000000000000000000000000000000000000000000000000000000000000000080000",
      "type": "0x2",
      "transactionHash": "0x9863bd79e1596d55daecd0ae5aecbe6bbbe62949d67d66abf214c5a3d801481e",
      "transactionIndex": "0xb",
      "blockHash": "0xa13e7fef589cc7e2dabf300957d5123f9c9a12c4bec60ce9bd29bb26afac8881",
      "blockNumber": "0x7e1269a",
      "gasUsed": "0x139b2",
      "effectiveGasPrice": "0x18a33",
      "from": "0xf2f1acbe0ba726fee8d75f3e32900526874740bb",
      "to": "0xd925c84b55e4e44a53749ff5f2a5a13f63d128fd",
      "contractAddress": null,
      "l1BaseFeeScalar": "0x146b",
      "l1BlobBaseFee": "0x1cb918",
      "l1BlobBaseFeeScalar": "0xf79c5",
      "l1Fee": "0x1b1d26bb2",
      "l1GasPrice": "0x3283171e",
      "l1GasUsed": "0x640"
    },
    {
      "status": "0x1",
      "cumulativeGasUsed": "0x1ac303",
      "logs": [
        {
          "address": "0xd925c84b55e4e44a53749ff5f2a5a13f63d128fd",
          "topics": [
            "0xe6658eeba76934cef78dc5f420ee40406e4876e8d3e767f7b700c63daf1bf0ba",
            "0x0000000000000000000000000000000000000000000000000000000000000017"
          ],
          "data": "0x000000000000000000000000866a2bf4e572cbcf37d5071a7a58503bfb36be1b",
          "blockHash": "0x939966e4142af3fcb77037a81ce4902c0ac50c1470d1bf23a40b77c5450266ec",
          "blockNumber": "0x7e1269c",
          "transactionHash": "0x365c2d94a8e78acf8e0a894514d51790297dd8f211a971a5ef2fb016a3a37ebb",
          "transactionIndex": "0x8",
          "logIndex": "0x10",
          "removed": false
        }
      ],
      "logsBloom": "0x00000000000000000000000000000000000000000000000000000000000000000000000000000000000000000000000000001000000000000000001000000000000000000000000000000000002000000000000000024000000000000000000000000000000000000000000000000000000000000000000000000000000000000000000000000000000000000000000000000000000000000000000000000000000080000000000000000000000000000000000000000000000000000000080000000000000020000000000000000000000000000000000000000000000000000000000000000000000000000000000000000000000000000000000000080000",
      "type": "0x2",
      "transactionHash": "0x365c2d94a8e78acf8e0a894514d51790297dd8f211a971a5ef2fb016a3a37ebb",
      "transactionIndex": "0x8",
      "blockHash": "0x939966e4142af3fcb77037a81ce4902c0ac50c1470d1bf23a40b77c5450266ec",
      "blockNumber": "0x7e1269c",
      "gasUsed": "0xce93",
      "effectiveGasPrice": "0x18a34",
      "from": "0xf2f1acbe0ba726fee8d75f3e32900526874740bb",
      "to": "0xd925c84b55e4e44a53749ff5f2a5a13f63d128fd",
      "contractAddress": null,
      "l1BaseFeeScalar": "0x146b",
      "l1BlobBaseFee": "0x1cb918",
      "l1BlobBaseFeeScalar": "0xf79c5",
      "l1Fee": "0x1b1d26bb2",
      "l1GasPrice": "0x3283171e",
      "l1GasUsed": "0x640"
    },
    {
      "status": "0x1",
      "cumulativeGasUsed": "0x354715",
      "logs": [
        {
          "address": "0xd925c84b55e4e44a53749ff5f2a5a13f63d128fd",
          "topics": [
            "0xeb8377c150d1438121333afa2027232605a400b1208ae6f9cfa156438e453f6d",
            "0x000000000000000000000000866a2bf4e572cbcf37d5071a7a58503bfb36be1b",
            "0x0000000000000000000000000000000000000000000000000000000000000017",
            "0x000000000000000000000000866a2bf4e572cbcf37d5071a7a58503bfb36be1b"
          ],
          "data": "0x0000000000000000000000000000000000000000000000000000000000000001",
          "blockHash": "0x1c861da8e96bb6cd806d4080cbe09353ac2137b06c458aa87df7580cde29b2a0",
          "blockNumber": "0x7e1269e",
          "transactionHash": "0x849c67dffda14c313fc6b0eb045ac874f9ed8b85a36bef3a5cc8863ded3e19c0",
          "transactionIndex": "0xd",
          "logIndex": "0x17",
          "removed": false
        }
      ],
      "logsBloom": "0x00000008000000000000000000000000000000000000000000000000000000000000000000000000000000000000000000001000000000000000001000000000800000000000000000000000000000000000000000024000000000000000000000000000000000000000000000000000000000000000000100000000000000000000000000000000000000000040000000000000000000000000000000000000000000000000000000000000008000000000000000000000000000000000080000000000000400000000000000000000000000000000000000000000000000000000000000000000000000000000000000000000000000000000000000080000",
      "type": "0x2",
      "transactionHash": "0x849c67dffda14c313fc6b0eb045ac874f9ed8b85a36bef3a5cc8863ded3e19c0",
      "transactionIndex": "0xd",
      "blockHash": "0x1c861da8e96bb6cd806d4080cbe09353ac2137b06c458aa87df7580cde29b2a0",
      "blockNumber": "0x7e1269e",
      "gasUsed": "0xd361",
      "effectiveGasPrice": "0x18a35",
      "from": "0xf2f1acbe0ba726fee8d75f3e32900526874740bb",
      "to": "0xd925c84b55e4e44a53749ff5f2a5a13f63d128fd",
      "contractAddress": null,
      "l1BaseFeeScalar": "0x146b",
      "l1BlobBaseFee": "0x198815",
      "l1BlobBaseFeeScalar": "0xf79c5",
      "l1Fee": "0x188c9453e",
      "l1GasPrice": "0x2dc1ad5f",
      "l1GasUsed": "0x640"
    },
    {
      "status": "0x1",
      "cumulativeGasUsed": "0x358659",
      "logs": [
        {
          "address": "0xd925c84b55e4e44a53749ff5f2a5a13f63d128fd",
          "topics": [
            "0xeb8377c150d1438121333afa2027232605a400b1208ae6f9cfa156438e453f6d",
            "0x000000000000000000000000866a2bf4e572cbcf37d5071a7a58503bfb36be1b",
            "0x0000000000000000000000000000000000000000000000000000000000000017",
            "0x000000000000000000000000437cc33344a0b27a429f795ff6b469c72698b291"
          ],
          "data": "0x0000000000000000000000000000000000000000000000000000000000000001",
          "blockHash": "0x9dc078177b4c810c36d8898d21b531e9abd5cba21bf88eb366a6301bf1a6e68f",
          "blockNumber": "0x7e126a0",
          "transactionHash": "0x009e9e01a8d002d60b5d114db00cb897fd78f1b311d2c1d020f8ca421edf6fd5",
          "transactionIndex": "0xd",
          "logIndex": "0x13",
          "removed": false
        }
      ],
      "logsBloom": "0x00000008000002000000000000000000000000000000000000000000000000000000000000000000000000000000000000001000000000000000001000000000800000000000000000000000000000000000000000024000000000000000000000000000000000000000000000000000000000000000000100000000000000000000000000000000000000000040000000000000000000000000000000000000000000000000000000000000008000000000000000020000000000000000080000000000000400000000000000000000000000000000000000000000000000200000000000000000000000000000000000000000000000000000000000080000",
      "type": "0x2",
      "transactionHash": "0x009e9e01a8d002d60b5d114db00cb897fd78f1b311d2c1d020f8ca421edf6fd5",
      "transactionIndex": "0xd",
      "blockHash": "0x9dc078177b4c810c36d8898d21b531e9abd5cba21bf88eb366a6301bf1a6e68f",
      "blockNumber": "0x7e126a0",
      "gasUsed": "0xd361",
      "effectiveGasPrice": "0x18a34",
      "from": "0xf2f1acbe0ba726fee8d75f3e32900526874740bb",
      "to": "0xd925c84b55e4e44a53749ff5f2a5a13f63d128fd",
      "contractAddress": null,
      "l1BaseFeeScalar": "0x146b",
      "l1BlobBaseFee": "0x198815",
      "l1BlobBaseFeeScalar": "0xf79c5",
      "l1Fee": "0x1aeb81a1e",
      "l1GasPrice": "0x2dc1ad5f",
      "l1GasUsed": "0x6da"
    },
    {
      "status": "0x1",
      "cumulativeGasUsed": "0x670e4d",
      "logs": [
        {
          "address": "0xd925c84b55e4e44a53749ff5f2a5a13f63d128fd",
          "topics": [
            "0xeb8377c150d1438121333afa2027232605a400b1208ae6f9cfa156438e453f6d",
            "0x000000000000000000000000437cc33344a0b27a429f795ff6b469c72698b291",
            "0x0000000000000000000000000000000000000000000000000000000000000017",
            "0x000000000000000000000000866a2bf4e572cbcf37d5071a7a58503bfb36be1b"
          ],
          "data": "0x0000000000000000000000000000000000000000000000000000000000000001",
          "blockHash": "0x4bdc008d20895d266ce44facfb0555335a132125cf24c48bd369b61b49200067",
          "blockNumber": "0x7e126a1",
          "transactionHash": "0xdc968f5e8cc95a645c9d64cc703a13365c15bda7e2da1c9b3f8ee2379828a3be",
          "transactionIndex": "0x14",
          "logIndex": "0x2b",
          "removed": false
        }
      ],
      "logsBloom": "0x00000008000002000000000000000000000000000000000000000000000000000000000000000000000000000000000000001000000000000000001000000000800000000000000000000000000000000000000000024000000000000000000000000000000000000000000000000000000000000000000100000000000000000000000000000000000000000040000000000000000000000000000000000000000000000000000000000000008000000000000000020000000000000000080000000000000400000000000000000000000000000000000000000000000000200000000000000000000000000000000000000000000000000000000000080000",
      "type": "0x2",
      "transactionHash": "0xdc968f5e8cc95a645c9d64cc703a13365c15bda7e2da1c9b3f8ee2379828a3be",
      "transactionIndex": "0x14",
      "blockHash": "0x4bdc008d20895d266ce44facfb0555335a132125cf24c48bd369b61b49200067",
      "blockNumber": "0x7e126a1",
      "gasUsed": "0xd361",
      "effectiveGasPrice": "0x18a34",
      "from": "0xf2f1acbe0ba726fee8d75f3e32900526874740bb",
      "to": "0xd925c84b55e4e44a53749ff5f2a5a13f63d128fd",
      "contractAddress": null,
      "l1BaseFeeScalar": "0x146b",
      "l1BlobBaseFee": "0x198815",
      "l1BlobBaseFeeScalar": "0xf79c5",
      "l1Fee": "0x1aeb81a1e",
      "l1GasPrice": "0x2dc1ad5f",
      "l1GasUsed": "0x6da"
    },
    {
      "status": "0x1",
      "cumulativeGasUsed": "0x6bf70b",
      "logs": [
        {
          "address": "0xd925c84b55e4e44a53749ff5f2a5a13f63d128fd",
          "topics": [
            "0xeb8377c150d1438121333afa2027232605a400b1208ae6f9cfa156438e453f6d",
            "0x000000000000000000000000437cc33344a0b27a429f795ff6b469c72698b291",
            "0x0000000000000000000000000000000000000000000000000000000000000017",
            "0x000000000000000000000000437cc33344a0b27a429f795ff6b469c72698b291"
          ],
          "data": "0x0000000000000000000000000000000000000000000000000000000000000001",
          "blockHash": "0x9f8515742702cbb7145bbed819d7d34ba182a74075fac1e2794a94231b2c6a49",
          "blockNumber": "0x7e126a2",
          "transactionHash": "0xf8d8e0a224095fb07c36f99765fca3632e496cd93176ddc944ffaae0e0e91aea",
          "transactionIndex": "0x11",
          "logIndex": "0x2e",
          "removed": false
        }
      ],
      "logsBloom": "0x00000008000002000000000000000000000000000000000000000000000000000000000000000000000000000000000000001000000000000000001000000000800000000000000000000000000000000000000000024000000000000000000000000000000000000000000000000000000000000000000000000000000000000000000000000000000000000000000000000000000000000000000000000000000000000000000000000000008000000000000000020000000000000000080000000000000000000000000000000000000000000000000000000000000000200000000000000000000000000000000000000000000000000000000000080000",
      "type": "0x2",
      "transactionHash": "0xf8d8e0a224095fb07c36f99765fca3632e496cd93176ddc944ffaae0e0e91aea",
      "transactionIndex": "0x11",
      "blockHash": "0x9f8515742702cbb7145bbed819d7d34ba182a74075fac1e2794a94231b2c6a49",
      "blockNumber": "0x7e126a2",
      "gasUsed": "0xd361",
      "effectiveGasPrice": "0x18a33",
      "from": "0xf2f1acbe0ba726fee8d75f3e32900526874740bb",
      "to": "0xd925c84b55e4e44a53749ff5f2a5a13f63d128fd",
      "contractAddress": null,
      "l1BaseFeeScalar": "0x146b",
      "l1BlobBaseFee": "0x198815",
      "l1BlobBaseFeeScalar": "0xf79c5",
      "l1Fee": "0x188c9453e",
      "l1GasPrice": "0x2dc1ad5f",
      "l1GasUsed": "0x640"
    },
    {
      "status": "0x1",
      "cumulativeGasUsed": "0x73c210",
      "logs": [
        {
          "address": "0x0763196a091575adf99e2306e5e90e0be5154841",
          "topics": [
            "0x528b18a533e892b5401d1fb63597275df9d2bb45b13e7695c3147cd07b9746c3"
          ],
          "data": "0x00000000000000000000000000000000000000000000000000000000000000170000000000000000000000000000000000000000000000000000000000000001",
          "blockHash": "0x53293be8e9016b09283bac57e1e358f266e4736da7d6627d949d8adb0eda6ad8",
          "blockNumber": "0x7e126a3",
          "transactionHash": "0xcdbbb0a9350fe203b022e7769f7475fc49f5709ffe0fcd47db7ae5539ea42021",
          "transactionIndex": "0x11",
          "logIndex": "0x44",
          "removed": false
        }
      ],
      "logsBloom": "0x00000000000000000000000000000000000000000000000000000000000080000000000000400000000000000000000000000000000000000000000000000000000000000000000000000000800000000000000000000000000000000001000000000000000000001000000000000000000000000000000000000000000000000000000000000000000000000000000000000000000000000000000000000000002000000000000000000000000000000000000000000000000000000000000000000000000000000000000000000000000000000000000000000000000000000000000000000000000000000000000000000000000000000000000000000000",
      "type": "0x2",
      "transactionHash": "0xcdbbb0a9350fe203b022e7769f7475fc49f5709ffe0fcd47db7ae5539ea42021",
      "transactionIndex": "0x11",
      "blockHash": "0x53293be8e9016b09283bac57e1e358f266e4736da7d6627d949d8adb0eda6ad8",
      "blockNumber": "0x7e126a3",
      "gasUsed": "0xccb6",
      "effectiveGasPrice": "0x18a33",
      "from": "0xf2f1acbe0ba726fee8d75f3e32900526874740bb",
      "to": "0x0763196a091575adf99e2306e5e90e0be5154841",
      "contractAddress": null,
      "l1BaseFeeScalar": "0x146b",
      "l1BlobBaseFee": "0x198815",
      "l1BlobBaseFeeScalar": "0xf79c5",
      "l1Fee": "0x188c9453e",
      "l1GasPrice": "0x2dc1ad5f",
      "l1GasUsed": "0x640"
    },
    {
      "status": "0x1",
      "cumulativeGasUsed": "0xdc08cb",
      "logs": [
        {
          "address": "0xee91c335eab126df5fdb3797ea9d6ad93aec9722",
          "topics": [
            "0x6eb224fb001ed210e379b335e35efe88672a8ce935d981a6896b27ffdf52a3b2",
            "0x0000000000000000000000000763196a091575adf99e2306e5e90e0be5154841"
          ],
          "data": "0x0000000000000000000000000000000000000000000000000000000000000002000000000000000000000000000000000000000000000000000000000000000000000000000000000000000000000000000000000000000000000000000000800000000000000000000000000000000000000000000000000000000000000001000000000000000000000000000000000000000000000000000000000000002618fc67c200170000000000000000000000000763196a091575adf99e2306e5e90e0be51548410000000000000000000000000000000000000000000000000000",
          "blockHash": "0xfe2499bea404f6e0e34f9e87233a07696d1fdc128f089995edd04ebd2844f905",
          "blockNumber": "0x7e126a5",
          "transactionHash": "0x594fc0ac55acac3e15b8d1f7b95a22ed7b8918bc0eec92cdbabf24470d7ad0db",
          "transactionIndex": "0x1c",
          "logIndex": "0x1e1",
          "removed": false
        },
        {
          "address": "0x0763196a091575adf99e2306e5e90e0be5154841",
          "topics": [
            "0xa559263ee060c7a2560843b3a064ff0376c9753ae3e2449b595a3b615d326466"
          ],
          "data": "0x00000000000000000000000000000000000000000000000000000000000000170000000000000000000000000763196a091575adf99e2306e5e90e0be5154841",
          "blockHash": "0xfe2499bea404f6e0e34f9e87233a07696d1fdc128f089995edd04ebd2844f905",
          "blockNumber": "0x7e126a5",
          "transactionHash": "0x594fc0ac55acac3e15b8d1f7b95a22ed7b8918bc0eec92cdbabf24470d7ad0db",
          "transactionIndex": "0x1c",
          "logIndex": "0x1e2",
          "removed": false
        }
      ],
      "logsBloom": "0x00000000000100000000000000000000000000000000000000000000000000000010000000000000000000000010000000000000000000000000000000000000000000000000000000000000000000000000000100000000000000000011000000000000000000001000000000000000000000000000000000000000000000000000000000000000000000000000000000000000000000001000000000000000002000400400000000000000000000000000004000000000000000008000000000000000000000000000000000000000000000000000000000000000000000000000000000000000210000000000000000000000000000000000000000000000",
      "type": "0x2",
      "transactionHash": "0x594fc0ac55acac3e15b8d1f7b95a22ed7b8918bc0eec92cdbabf24470d7ad0db",
      "transactionIndex": "0x1c",
      "blockHash": "0xfe2499bea404f6e0e34f9e87233a07696d1fdc128f089995edd04ebd2844f905",
      "blockNumber": "0x7e126a5",
      "gasUsed": "0x12ed4",
      "effectiveGasPrice": "0x18a32",
      "from": "0xf2f1acbe0ba726fee8d75f3e32900526874740bb",
      "to": "0x0763196a091575adf99e2306e5e90e0be5154841",
      "contractAddress": null,
      "l1BaseFeeScalar": "0x146b",
      "l1BlobBaseFee": "0x198815",
      "l1BlobBaseFeeScalar": "0xf79c5",
      "l1Fee": "0x1ad4decaa",
      "l1GasPrice": "0x321f8268",
      "l1GasUsed": "0x640"
    },
    {
      "status": "0x1",
      "cumulativeGasUsed": "0x595471",
      "logs": [
        {
          "address": "0x0763196a091575adf99e2306e5e90e0be5154841",
          "topics": [
            "0x4add57d97a7bf5035340ea1212aeeb3d4d3887eb1faf3821a8224c3a6956a10c"
          ],
          "data": "0x00000000000000000000000000000000000000000000000000000000000000170000000000000000000000000000000000000000000000000000000000000001",
          "blockHash": "0x2cf6f3107ffd9fdcc03adfb7db0c6470daa5a5ac85ae9c880528b8392ff93b6d",
          "blockNumber": "0x7e126a7",
          "transactionHash": "0x66bfba2dcae0dad8c12b68f8056e19bd5c4cf52dc913a6223ab1647969f76215",
          "transactionIndex": "0x10",
          "logIndex": "0x10",
          "removed": false
        }
      ],
      "logsBloom": "0x00000000000000080000000000000000000000000000000000000000000000000000000000000000000000000000000000000000000000000000000000000000000000000000000000000000000000000000000000000000000000000001000000000000000000001000000000000000000000000000000000000080000000000000000000000000000000000000000000000000000000000000000000000000002000000000000000000000000000000000000000000000000000000000000000000000000000000000000000000000000000000000000000000000000000000000000000000000000000000000000000000040000000000000000000000000",
      "type": "0x2",
      "transactionHash": "0x66bfba2dcae0dad8c12b68f8056e19bd5c4cf52dc913a6223ab1647969f76215",
      "transactionIndex": "0x10",
      "blockHash": "0x2cf6f3107ffd9fdcc03adfb7db0c6470daa5a5ac85ae9c880528b8392ff93b6d",
      "blockNumber": "0x7e126a7",
      "gasUsed": "0xcdd4",
      "effectiveGasPrice": "0x18a35",
      "from": "0xf2f1acbe0ba726fee8d75f3e32900526874740bb",
      "to": "0x0763196a091575adf99e2306e5e90e0be5154841",
      "contractAddress": null,
      "l1BaseFeeScalar": "0x146b",
      "l1BlobBaseFee": "0x198815",
      "l1BlobBaseFeeScalar": "0xf79c5",
      "l1Fee": "0x1ad4decaa",
      "l1GasPrice": "0x321f8268",
      "l1GasUsed": "0x640"
    }
  ],
  "libraries": [],
  "pending": [],
  "returns": {},
  "timestamp": 1739990792,
  "chain": 10,
  "commit": "6824811"
}
