{
  "transactions": [
    {
      "hash": "0xbec6f8a90edc304388f34ecdc9a96260abca02240e7ac37ff5f9eb5662179752",
      "transactionType": "CALL",
      "contractName": null,
      "contractAddress": "0xd925c84b55e4e44a53749ff5f2a5a13f63d128fd",
      "function": "setPeer(uint16,bytes32,uint8,uint256)",
      "arguments": [
        "1",
        "0x0b86ec181cd4c5c984e9062b13f2b2de7b9f5b5e68e84349231d6614cdf3f99f",
        "6",
        "0"
      ],
      "transaction": {
        "from": "0xf2f1acbe0ba726fee8d75f3e32900526874740bb",
        "to": "0xd925c84b55e4e44a53749ff5f2a5a13f63d128fd",
        "gas": "0x1cb99",
        "value": "0x0",
        "input": "0x7c91863400000000000000000000000000000000000000000000000000000000000000010b86ec181cd4c5c984e9062b13f2b2de7b9f5b5e68e84349231d6614cdf3f99f00000000000000000000000000000000000000000000000000000000000000060000000000000000000000000000000000000000000000000000000000000000",
        "nonce": "0x3f",
        "chainId": "0xa"
      },
      "additionalContracts": [],
      "isFixedGasLimit": false
    },
    {
      "hash": "0x62cf9e50c9ea9ef9db36f30ed9a83fc7adf3864e3f9c0c84ac6a42f517b31bed",
      "transactionType": "CALL",
      "contractName": null,
      "contractAddress": "0xd925c84b55e4e44a53749ff5f2a5a13f63d128fd",
      "function": "setDestinationMToken(uint16,bytes32)",
      "arguments": [
        "1",
        "0x0b86be66d32bc5a4b5ab1febdf48e33b06c3b5a163b19c1730ed78705f7ef68c"
      ],
      "transaction": {
        "from": "0xf2f1acbe0ba726fee8d75f3e32900526874740bb",
        "to": "0xd925c84b55e4e44a53749ff5f2a5a13f63d128fd",
        "gas": "0x12eef",
        "value": "0x0",
        "input": "0x76a4a53900000000000000000000000000000000000000000000000000000000000000010b86be66d32bc5a4b5ab1febdf48e33b06c3b5a163b19c1730ed78705f7ef68c",
        "nonce": "0x40",
        "chainId": "0xa"
      },
      "additionalContracts": [],
      "isFixedGasLimit": false
    },
    {
      "hash": "0x829c324f4cddf4d61c84746d0dc570c6c5f1fa554fcac8c4ea656c13b2acffdc",
      "transactionType": "CALL",
      "contractName": null,
      "contractAddress": "0xd925c84b55e4e44a53749ff5f2a5a13f63d128fd",
      "function": "setSupportedBridgingPath(address,uint16,bytes32,bool)",
      "arguments": [
        "0x866A2BF4E572CbcF37D5071A7a58503Bfb36be1b",
        "1",
        "0x0b86be66d32bc5a4b5ab1febdf48e33b06c3b5a163b19c1730ed78705f7ef68c",
        "true"
      ],
      "transaction": {
        "from": "0xf2f1acbe0ba726fee8d75f3e32900526874740bb",
        "to": "0xd925c84b55e4e44a53749ff5f2a5a13f63d128fd",
        "gas": "0x135f6",
        "value": "0x0",
        "input": "0x1482cb4a000000000000000000000000866a2bf4e572cbcf37d5071a7a58503bfb36be1b00000000000000000000000000000000000000000000000000000000000000010b86be66d32bc5a4b5ab1febdf48e33b06c3b5a163b19c1730ed78705f7ef68c0000000000000000000000000000000000000000000000000000000000000001",
        "nonce": "0x41",
        "chainId": "0xa"
      },
      "additionalContracts": [],
      "isFixedGasLimit": false
    },
    {
      "hash": "0xb5105d5b5ed78817d9029c94b1cebd15e4c684b184a4f426843212b6a8cfdd92",
      "transactionType": "CALL",
      "contractName": null,
      "contractAddress": "0xd925c84b55e4e44a53749ff5f2a5a13f63d128fd",
      "function": "setSupportedBridgingPath(address,uint16,bytes32,bool)",
      "arguments": [
        "0x437cc33344a0B27A429f795ff6B469C72698B291",
        "1",
        "0x0b86be66d32bc5a4b5ab1febdf48e33b06c3b5a163b19c1730ed78705f7ef68c",
        "true"
      ],
      "transaction": {
        "from": "0xf2f1acbe0ba726fee8d75f3e32900526874740bb",
        "to": "0xd925c84b55e4e44a53749ff5f2a5a13f63d128fd",
        "gas": "0x135f6",
        "value": "0x0",
        "input": "0x1482cb4a000000000000000000000000437cc33344a0b27a429f795ff6b469c72698b29100000000000000000000000000000000000000000000000000000000000000010b86be66d32bc5a4b5ab1febdf48e33b06c3b5a163b19c1730ed78705f7ef68c0000000000000000000000000000000000000000000000000000000000000001",
        "nonce": "0x42",
        "chainId": "0xa"
      },
      "additionalContracts": [],
      "isFixedGasLimit": false
    },
    {
      "hash": "0x3b162577757532cc674550d9bfc7808211f623672f2bed5438bad650aa4c94e7",
      "transactionType": "CALL",
      "contractName": null,
      "contractAddress": "0x0763196a091575adf99e2306e5e90e0be5154841",
      "function": "setIsSpecialRelayingEnabled(uint16,bool)",
      "arguments": ["1", "true"],
      "transaction": {
        "from": "0xf2f1acbe0ba726fee8d75f3e32900526874740bb",
        "to": "0x0763196a091575adf99e2306e5e90e0be5154841",
        "gas": "0x11a66",
        "value": "0x0",
        "input": "0x4b795b2100000000000000000000000000000000000000000000000000000000000000010000000000000000000000000000000000000000000000000000000000000001",
        "nonce": "0x43",
        "chainId": "0xa"
      },
      "additionalContracts": [],
      "isFixedGasLimit": false
    },
    {
      "hash": "0xd9c67aece5c5deb696bda2c2482b879a71b8b89de00a92e3ddea121bcc0b3271",
      "transactionType": "CALL",
      "contractName": null,
      "contractAddress": "0x0763196a091575adf99e2306e5e90e0be5154841",
      "function": "setWormholePeer(uint16,bytes32)",
      "arguments": [
        "1",
        "0xfcbdac3b256685bd2cc3a97bfcd815fb76b8d33df924e607c409c0bce3fa1668"
      ],
      "transaction": {
        "from": "0xf2f1acbe0ba726fee8d75f3e32900526874740bb",
        "to": "0x0763196a091575adf99e2306e5e90e0be5154841",
        "gas": "0x1a2fd",
        "value": "0x0",
        "input": "0x7ab564030000000000000000000000000000000000000000000000000000000000000001fcbdac3b256685bd2cc3a97bfcd815fb76b8d33df924e607c409c0bce3fa1668",
        "nonce": "0x44",
        "chainId": "0xa"
      },
      "additionalContracts": [],
      "isFixedGasLimit": false
    }
  ],
  "receipts": [
    {
      "status": "0x1",
      "cumulativeGasUsed": "0x51e18d",
      "logs": [
        {
          "address": "0xd925c84b55e4e44a53749ff5f2a5a13f63d128fd",
          "topics": [
            "0x1456404e7f41f35c3daac941bb50bad417a66275c3040061b4287d787719599d",
            "0x0000000000000000000000000000000000000000000000000000000000000001"
          ],
          "data": "0x000000000000000000000000000000000000000000000000000000000000000000000000000000000000000000000000000000000000000000000000000000000b86ec181cd4c5c984e9062b13f2b2de7b9f5b5e68e84349231d6614cdf3f99f0000000000000000000000000000000000000000000000000000000000000006",
          "blockHash": "0x4dfc80a3170a816c9afb8f3c463a63a49e9f05257b48ab899f263c19d62dfc01",
          "blockNumber": "0x8096d81",
          "transactionHash": "0xbec6f8a90edc304388f34ecdc9a96260abca02240e7ac37ff5f9eb5662179752",
          "transactionIndex": "0xc",
          "logIndex": "0xb",
          "removed": false
        }
      ],
      "logsBloom": "0x00000000000000000000000000000000000000000000000000000000000000000000000000000000002000000000000000000000000000000000000000040000000000000000000000000000000000000000000000064000000000000000000000002000000000000000000000000000000000000000000000000000000000000000000000000000000008000000000000000000000000000000000000000000000000000000000000000000000000000000000000000000000000000000080000000000000000000000000000000000000000000000000000000000000040000000000000000000000000000000000000000000000000000000000000000000",
      "type": "0x2",
      "transactionHash": "0xbec6f8a90edc304388f34ecdc9a96260abca02240e7ac37ff5f9eb5662179752",
      "transactionIndex": "0xc",
      "blockHash": "0x4dfc80a3170a816c9afb8f3c463a63a49e9f05257b48ab899f263c19d62dfc01",
      "blockNumber": "0x8096d81",
      "gasUsed": "0x13a42",
      "effectiveGasPrice": "0x1e530d",
      "from": "0xf2f1acbe0ba726fee8d75f3e32900526874740bb",
      "to": "0xd925c84b55e4e44a53749ff5f2a5a13f63d128fd",
      "contractAddress": null,
      "l1BaseFeeScalar": "0x146b",
      "l1BlobBaseFee": "0x152d",
      "l1BlobBaseFeeScalar": "0xf79c5",
      "l1Fee": "0xd938ebf5",
      "l1GasPrice": "0x19f83c92",
      "l1GasUsed": "0x640"
    },
    {
      "status": "0x1",
      "cumulativeGasUsed": "0x77a0b3",
      "logs": [
        {
          "address": "0xd925c84b55e4e44a53749ff5f2a5a13f63d128fd",
          "topics": [
            "0xe6658eeba76934cef78dc5f420ee40406e4876e8d3e767f7b700c63daf1bf0ba",
            "0x0000000000000000000000000000000000000000000000000000000000000001"
          ],
          "data": "0x0b86be66d32bc5a4b5ab1febdf48e33b06c3b5a163b19c1730ed78705f7ef68c",
          "blockHash": "0x6d8bbf8ede02986516763b3bd8a2122f8d1e2881e66eac9ce67ffa8567d0a319",
          "blockNumber": "0x8096d82",
          "transactionHash": "0x62cf9e50c9ea9ef9db36f30ed9a83fc7adf3864e3f9c0c84ac6a42f517b31bed",
          "transactionIndex": "0x12",
          "logIndex": "0xb",
          "removed": false
        }
      ],
      "logsBloom": "0x00000000000000000000000000000000000000000000000000000000000000000000000000000000000000000000000000000000000000000000000000040000000000000000000000000000002000000000000000064000000000000000000000000000000000000000000000000000000000000000000000000000000000000000000000000000000000000000000000000000000000000000000000000000000080000000000000000000000000000000000000000000000000000000080000000000000020000000000000000000000000000000000000000000000040000000000000000000000000000000000000000000000000000000000000000000",
      "type": "0x2",
      "transactionHash": "0x62cf9e50c9ea9ef9db36f30ed9a83fc7adf3864e3f9c0c84ac6a42f517b31bed",
      "transactionIndex": "0x12",
      "blockHash": "0x6d8bbf8ede02986516763b3bd8a2122f8d1e2881e66eac9ce67ffa8567d0a319",
      "blockNumber": "0x8096d82",
      "gasUsed": "0xcf23",
      "effectiveGasPrice": "0x1e4aa6",
      "from": "0xf2f1acbe0ba726fee8d75f3e32900526874740bb",
      "to": "0xd925c84b55e4e44a53749ff5f2a5a13f63d128fd",
      "contractAddress": null,
      "l1BaseFeeScalar": "0x146b",
      "l1BlobBaseFee": "0x152d",
      "l1BlobBaseFeeScalar": "0xf79c5",
      "l1Fee": "0xd938ebf5",
      "l1GasPrice": "0x19f83c92",
      "l1GasUsed": "0x640"
    },
    {
      "status": "0x1",
      "cumulativeGasUsed": "0x7d02af",
      "logs": [
        {
          "address": "0xd925c84b55e4e44a53749ff5f2a5a13f63d128fd",
          "topics": [
            "0xeb8377c150d1438121333afa2027232605a400b1208ae6f9cfa156438e453f6d",
            "0x000000000000000000000000866a2bf4e572cbcf37d5071a7a58503bfb36be1b",
            "0x0000000000000000000000000000000000000000000000000000000000000001",
            "0x0b86be66d32bc5a4b5ab1febdf48e33b06c3b5a163b19c1730ed78705f7ef68c"
          ],
          "data": "0x0000000000000000000000000000000000000000000000000000000000000001",
          "blockHash": "0x4dd913d243c98049cec66085e49c75d4d615c0d0cb3715183f22a42f2b475220",
          "blockNumber": "0x8096d83",
          "transactionHash": "0x829c324f4cddf4d61c84746d0dc570c6c5f1fa554fcac8c4ea656c13b2acffdc",
          "transactionIndex": "0x10",
          "logIndex": "0x11",
          "removed": false
        }
      ],
      "logsBloom": "0x00000008000000000000000000000000000000000000000000000000000000000000000000000000000000000000000000000000200000000000000000040000800000000000000000000000000000000000000000064000000000000000000000000000000000000000000000000020000000000000000100000000000000000000000000000000000000000040000000000000000000000000000000000000000000000000000000000000008000000000000000000000000000200000080000000000000400000000000000000000000000000000000000000000000040000000000000000000000000000000000000000000000000000000000000000000",
      "type": "0x2",
      "transactionHash": "0x829c324f4cddf4d61c84746d0dc570c6c5f1fa554fcac8c4ea656c13b2acffdc",
      "transactionIndex": "0x10",
      "blockHash": "0x4dd913d243c98049cec66085e49c75d4d615c0d0cb3715183f22a42f2b475220",
      "blockNumber": "0x8096d83",
      "gasUsed": "0xd3f1",
      "effectiveGasPrice": "0x1e43f3",
      "from": "0xf2f1acbe0ba726fee8d75f3e32900526874740bb",
      "to": "0xd925c84b55e4e44a53749ff5f2a5a13f63d128fd",
      "contractAddress": null,
      "l1BaseFeeScalar": "0x146b",
      "l1BlobBaseFee": "0x152d",
      "l1BlobBaseFeeScalar": "0xf79c5",
      "l1Fee": "0xf91a4f3b",
      "l1GasPrice": "0x19f83c92",
      "l1GasUsed": "0x72a"
    },
    {
      "status": "0x1",
      "cumulativeGasUsed": "0x8c1e28",
      "logs": [
        {
          "address": "0xd925c84b55e4e44a53749ff5f2a5a13f63d128fd",
          "topics": [
            "0xeb8377c150d1438121333afa2027232605a400b1208ae6f9cfa156438e453f6d",
            "0x000000000000000000000000437cc33344a0b27a429f795ff6b469c72698b291",
            "0x0000000000000000000000000000000000000000000000000000000000000001",
            "0x0b86be66d32bc5a4b5ab1febdf48e33b06c3b5a163b19c1730ed78705f7ef68c"
          ],
          "data": "0x0000000000000000000000000000000000000000000000000000000000000001",
          "blockHash": "0xac3d1aaa6a87259f0b1b1912adaae02d0e3fdf90c0c2fca95197e465d595baf7",
          "blockNumber": "0x8096d84",
          "transactionHash": "0xb5105d5b5ed78817d9029c94b1cebd15e4c684b184a4f426843212b6a8cfdd92",
          "transactionIndex": "0x11",
          "logIndex": "0x25",
          "removed": false
        }
      ],
      "logsBloom": "0x00000008000002000000000000000000000000000000000000000000000000000000000000000000000000000000000000000000200000000000000000040000800000000000000000000000000000000000000000064000000000000000000000000000000000000000000000000020000000000000000000000000000000000000000000000000000000000000000000000000000000000000000000000000000000000000000000000000008000000000000000020000000000200000080000000000000000000000000000000000000000000000000000000000000040200000000000000000000000000000000000000000000000000000000000000000",
      "type": "0x2",
      "transactionHash": "0xb5105d5b5ed78817d9029c94b1cebd15e4c684b184a4f426843212b6a8cfdd92",
      "transactionIndex": "0x11",
      "blockHash": "0xac3d1aaa6a87259f0b1b1912adaae02d0e3fdf90c0c2fca95197e465d595baf7",
      "blockNumber": "0x8096d84",
      "gasUsed": "0xd3f1",
      "effectiveGasPrice": "0x1e3e5a",
      "from": "0xf2f1acbe0ba726fee8d75f3e32900526874740bb",
      "to": "0xd925c84b55e4e44a53749ff5f2a5a13f63d128fd",
      "contractAddress": null,
      "l1BaseFeeScalar": "0x146b",
      "l1BlobBaseFee": "0x152d",
      "l1BlobBaseFeeScalar": "0xf79c5",
      "l1Fee": "0xf91a4f3b",
      "l1GasPrice": "0x19f83c92",
      "l1GasUsed": "0x72a"
    },
    {
      "status": "0x1",
      "cumulativeGasUsed": "0x8038d7",
      "logs": [
        {
          "address": "0x0763196a091575adf99e2306e5e90e0be5154841",
          "topics": [
            "0x0fe301480713b2c2072ee91b3bcfcbf2c0014f0447c89046f020f0f80727003c"
          ],
          "data": "0x00000000000000000000000000000000000000000000000000000000000000010000000000000000000000000000000000000000000000000000000000000001",
          "blockHash": "0x851c670306b76e55956134e4020ae6f8f50e7395cba36da259c6f787c0844175",
          "blockNumber": "0x8096d85",
          "transactionHash": "0x3b162577757532cc674550d9bfc7808211f623672f2bed5438bad650aa4c94e7",
          "transactionIndex": "0xd",
          "logIndex": "0x25",
          "removed": false
        }
      ],
      "logsBloom": "0x00000000000000000000000000000000000000000000000000000000000000000000000000000000000000000000000000000000000000000000000000000000000000000000000000000000000000000000000000000000000000000001000000000000000000001000000000000000000000000000000000000000000000000000000000000000000000001000000000000000000000000000000000000000002002000000000000000000000000000000000000000000000000000000000000000000000000000000000000000000000000000000000000000000000000000000000000000000000000000000000000000000000000000000000400000000",
      "type": "0x2",
      "transactionHash": "0x3b162577757532cc674550d9bfc7808211f623672f2bed5438bad650aa4c94e7",
      "transactionIndex": "0xd",
      "blockHash": "0x851c670306b76e55956134e4020ae6f8f50e7395cba36da259c6f787c0844175",
      "blockNumber": "0x8096d85",
      "gasUsed": "0xcc74",
      "effectiveGasPrice": "0x1e3bd3",
      "from": "0xf2f1acbe0ba726fee8d75f3e32900526874740bb",
      "to": "0x0763196a091575adf99e2306e5e90e0be5154841",
      "contractAddress": null,
      "l1BaseFeeScalar": "0x146b",
      "l1BlobBaseFee": "0x152d",
      "l1BlobBaseFeeScalar": "0xf79c5",
      "l1Fee": "0xd938ebf5",
      "l1GasPrice": "0x19f83c92",
      "l1GasUsed": "0x640"
    },
    {
      "status": "0x1",
      "cumulativeGasUsed": "0x70809d",
      "logs": [
        {
          "address": "0xee91c335eab126df5fdb3797ea9d6ad93aec9722",
          "topics": [
            "0x6eb224fb001ed210e379b335e35efe88672a8ce935d981a6896b27ffdf52a3b2",
            "0x0000000000000000000000000763196a091575adf99e2306e5e90e0be5154841"
          ],
          "data": "0x0000000000000000000000000000000000000000000000000000000000000003000000000000000000000000000000000000000000000000000000000000000000000000000000000000000000000000000000000000000000000000000000800000000000000000000000000000000000000000000000000000000000000001000000000000000000000000000000000000000000000000000000000000002618fc67c20001fcbdac3b256685bd2cc3a97bfcd815fb76b8d33df924e607c409c0bce3fa16680000000000000000000000000000000000000000000000000000",
          "blockHash": "0xb6ecce23776cc411b71d15d6481884bcabb32ba543159cb19dfe5362e6990769",
          "blockNumber": "0x8096d86",
          "transactionHash": "0xd9c67aece5c5deb696bda2c2482b879a71b8b89de00a92e3ddea121bcc0b3271",
          "transactionIndex": "0xc",
          "logIndex": "0xe",
          "removed": false
        },
        {
          "address": "0x0763196a091575adf99e2306e5e90e0be5154841",
          "topics": [
            "0xa559263ee060c7a2560843b3a064ff0376c9753ae3e2449b595a3b615d326466"
          ],
          "data": "0x0000000000000000000000000000000000000000000000000000000000000001fcbdac3b256685bd2cc3a97bfcd815fb76b8d33df924e607c409c0bce3fa1668",
          "blockHash": "0xb6ecce23776cc411b71d15d6481884bcabb32ba543159cb19dfe5362e6990769",
          "blockNumber": "0x8096d86",
          "transactionHash": "0xd9c67aece5c5deb696bda2c2482b879a71b8b89de00a92e3ddea121bcc0b3271",
          "transactionIndex": "0xc",
          "logIndex": "0xf",
          "removed": false
        }
      ],
      "logsBloom": "0x00000000000100000000000000000000000000000000000000000000000000000010000000000000000000000010000000000000000000000000000000000000000000000000000000000000000000000000000100000000000000000011000000000000000000001000000000000000000000000000000000000000000000000000000000000000000000000000000000000000000000001000000000000000002000400400000000000000000000000000004000000000000000008000000000000000000000000000000000000000000000000000000000000000000000000000000000000000210000000000000000000000000000000000000000000000",
      "type": "0x2",
      "transactionHash": "0xd9c67aece5c5deb696bda2c2482b879a71b8b89de00a92e3ddea121bcc0b3271",
      "transactionIndex": "0xc",
      "blockHash": "0xb6ecce23776cc411b71d15d6481884bcabb32ba543159cb19dfe5362e6990769",
      "blockNumber": "0x8096d86",
      "gasUsed": "0x12f58",
      "effectiveGasPrice": "0x1e36e2",
      "from": "0xf2f1acbe0ba726fee8d75f3e32900526874740bb",
      "to": "0x0763196a091575adf99e2306e5e90e0be5154841",
      "contractAddress": null,
      "l1BaseFeeScalar": "0x146b",
      "l1BlobBaseFee": "0x152d",
      "l1BlobBaseFeeScalar": "0xf79c5",
      "l1Fee": "0xd938ebf5",
      "l1GasPrice": "0x19f83c92",
      "l1GasUsed": "0x640"
    }
  ],
  "libraries": [],
  "pending": [],
  "returns": {},
  "timestamp": 1745269958,
  "chain": 10,
  "commit": "5c64749"
}
