{
  "transactions": [
    {
      "hash": "0x65e27967406cba91467a14700d6b856eb83d8ad364bba90e9fe8545517e1d121",
      "transactionType": "CALL",
      "contractName": null,
      "contractAddress": "0xd925c84b55e4e44a53749ff5f2a5a13f63d128fd",
      "function": "setPeer(uint16,bytes32,uint8,uint256)",
      "arguments": [
        "10002",
        "0x000000000000000000000000d925c84b55e4e44a53749ff5f2a5a13f63d128fd",
        "6",
        "0"
      ],
      "transaction": {
        "from": "0xf2f1acbe0ba726fee8d75f3e32900526874740bb",
        "to": "0xd925c84b55e4e44a53749ff5f2a5a13f63d128fd",
        "gas": "0x19c72",
        "value": "0x0",
        "input": "0x7c9186340000000000000000000000000000000000000000000000000000000000002712000000000000000000000000d925c84b55e4e44a53749ff5f2a5a13f63d128fd00000000000000000000000000000000000000000000000000000000000000060000000000000000000000000000000000000000000000000000000000000000",
        "nonce": "0x29",
        "chainId": "0x66eee"
      },
      "additionalContracts": [],
      "isFixedGasLimit": false
    },
    {
      "hash": "0x4e9cc623cea44b1d4d9b0f4bcb8db6d2abaee6067cd06364099d3369f0576662",
      "transactionType": "CALL",
      "contractName": null,
      "contractAddress": "0xd925c84b55e4e44a53749ff5f2a5a13f63d128fd",
      "function": "setDestinationMToken(uint16,bytes32)",
      "arguments": [
        "10002",
        "0x000000000000000000000000866a2bf4e572cbcf37d5071a7a58503bfb36be1b"
      ],
      "transaction": {
        "from": "0xf2f1acbe0ba726fee8d75f3e32900526874740bb",
        "to": "0xd925c84b55e4e44a53749ff5f2a5a13f63d128fd",
        "gas": "0x110a2",
        "value": "0x0",
        "input": "0x76a4a5390000000000000000000000000000000000000000000000000000000000002712000000000000000000000000866a2bf4e572cbcf37d5071a7a58503bfb36be1b",
        "nonce": "0x2a",
        "chainId": "0x66eee"
      },
      "additionalContracts": [],
      "isFixedGasLimit": false
    },
    {
      "hash": "0xee84774094543e0c57e5ca909c25d375e78b77c98ee4bf9c0792a0289edbc355",
      "transactionType": "CALL",
      "contractName": null,
      "contractAddress": "0xd925c84b55e4e44a53749ff5f2a5a13f63d128fd",
      "function": "setSupportedBridgingPath(address,uint16,bytes32,bool)",
      "arguments": [
        "0x866A2BF4E572CbcF37D5071A7a58503Bfb36be1b",
        "10002",
        "0x000000000000000000000000866a2bf4e572cbcf37d5071a7a58503bfb36be1b",
        "true"
      ],
      "transaction": {
        "from": "0xf2f1acbe0ba726fee8d75f3e32900526874740bb",
        "to": "0xd925c84b55e4e44a53749ff5f2a5a13f63d128fd",
        "gas": "0x116e7",
        "value": "0x0",
        "input": "0x1482cb4a000000000000000000000000866a2bf4e572cbcf37d5071a7a58503bfb36be1b0000000000000000000000000000000000000000000000000000000000002712000000000000000000000000866a2bf4e572cbcf37d5071a7a58503bfb36be1b0000000000000000000000000000000000000000000000000000000000000001",
        "nonce": "0x2b",
        "chainId": "0x66eee"
      },
      "additionalContracts": [],
      "isFixedGasLimit": false
    },
    {
      "hash": "0x281ce6af991e4315100fb39f9341d971a8391471f8a62641a1d1f218ad7e889f",
      "transactionType": "CALL",
      "contractName": null,
      "contractAddress": "0xd925c84b55e4e44a53749ff5f2a5a13f63d128fd",
      "function": "setSupportedBridgingPath(address,uint16,bytes32,bool)",
      "arguments": [
        "0x866A2BF4E572CbcF37D5071A7a58503Bfb36be1b",
        "10002",
        "0x000000000000000000000000437cc33344a0b27a429f795ff6b469c72698b291",
        "true"
      ],
      "transaction": {
        "from": "0xf2f1acbe0ba726fee8d75f3e32900526874740bb",
        "to": "0xd925c84b55e4e44a53749ff5f2a5a13f63d128fd",
        "gas": "0x116e7",
        "value": "0x0",
        "input": "0x1482cb4a000000000000000000000000866a2bf4e572cbcf37d5071a7a58503bfb36be1b0000000000000000000000000000000000000000000000000000000000002712000000000000000000000000437cc33344a0b27a429f795ff6b469c72698b2910000000000000000000000000000000000000000000000000000000000000001",
        "nonce": "0x2c",
        "chainId": "0x66eee"
      },
      "additionalContracts": [],
      "isFixedGasLimit": false
    },
    {
      "hash": "0x55e28564340c1f91016fbd2a2e2ef187b57d19d1890ad83c1451d0f1e4085205",
      "transactionType": "CALL",
      "contractName": null,
      "contractAddress": "0xd925c84b55e4e44a53749ff5f2a5a13f63d128fd",
      "function": "setSupportedBridgingPath(address,uint16,bytes32,bool)",
      "arguments": [
        "0x437cc33344a0B27A429f795ff6B469C72698B291",
        "10002",
        "0x000000000000000000000000866a2bf4e572cbcf37d5071a7a58503bfb36be1b",
        "true"
      ],
      "transaction": {
        "from": "0xf2f1acbe0ba726fee8d75f3e32900526874740bb",
        "to": "0xd925c84b55e4e44a53749ff5f2a5a13f63d128fd",
        "gas": "0x116e7",
        "value": "0x0",
        "input": "0x1482cb4a000000000000000000000000437cc33344a0b27a429f795ff6b469c72698b2910000000000000000000000000000000000000000000000000000000000002712000000000000000000000000866a2bf4e572cbcf37d5071a7a58503bfb36be1b0000000000000000000000000000000000000000000000000000000000000001",
        "nonce": "0x2d",
        "chainId": "0x66eee"
      },
      "additionalContracts": [],
      "isFixedGasLimit": false
    },
    {
      "hash": "0x72aa82460fd9b7055040c57f435ce1372b0a5bd2ae71fce7cb6c6057c4edc2f1",
      "transactionType": "CALL",
      "contractName": null,
      "contractAddress": "0xd925c84b55e4e44a53749ff5f2a5a13f63d128fd",
      "function": "setSupportedBridgingPath(address,uint16,bytes32,bool)",
      "arguments": [
        "0x437cc33344a0B27A429f795ff6B469C72698B291",
        "10002",
        "0x000000000000000000000000437cc33344a0b27a429f795ff6b469c72698b291",
        "true"
      ],
      "transaction": {
        "from": "0xf2f1acbe0ba726fee8d75f3e32900526874740bb",
        "to": "0xd925c84b55e4e44a53749ff5f2a5a13f63d128fd",
        "gas": "0x116e7",
        "value": "0x0",
        "input": "0x1482cb4a000000000000000000000000437cc33344a0b27a429f795ff6b469c72698b2910000000000000000000000000000000000000000000000000000000000002712000000000000000000000000437cc33344a0b27a429f795ff6b469c72698b2910000000000000000000000000000000000000000000000000000000000000001",
        "nonce": "0x2e",
        "chainId": "0x66eee"
      },
      "additionalContracts": [],
      "isFixedGasLimit": false
    },
    {
      "hash": "0x6016bd3730f9849666eaf6f05ae2b735d14f0ad6c94b801283a3c590a312048e",
      "transactionType": "CALL",
      "contractName": null,
      "contractAddress": "0x0763196a091575adf99e2306e5e90e0be5154841",
      "function": "setIsWormholeRelayingEnabled(uint16,bool)",
      "arguments": ["10002", "true"],
      "transaction": {
        "from": "0xf2f1acbe0ba726fee8d75f3e32900526874740bb",
        "to": "0x0763196a091575adf99e2306e5e90e0be5154841",
        "gas": "0x10e33",
        "value": "0x0",
        "input": "0x657b3b2f00000000000000000000000000000000000000000000000000000000000027120000000000000000000000000000000000000000000000000000000000000001",
        "nonce": "0x2f",
        "chainId": "0x66eee"
      },
      "additionalContracts": [],
      "isFixedGasLimit": false
    },
    {
      "hash": "0x5c6057c682109c96e4f2e95f967dab9c1e6bdad1b6f748d7488023f36048a742",
      "transactionType": "CALL",
      "contractName": null,
      "contractAddress": "0x0763196a091575adf99e2306e5e90e0be5154841",
      "function": "setWormholePeer(uint16,bytes32)",
      "arguments": [
        "10002",
        "0x0000000000000000000000000763196a091575adf99e2306e5e90e0be5154841"
      ],
      "transaction": {
        "from": "0xf2f1acbe0ba726fee8d75f3e32900526874740bb",
        "to": "0x0763196a091575adf99e2306e5e90e0be5154841",
        "gas": "0x18e43",
        "value": "0x0",
        "input": "0x7ab5640300000000000000000000000000000000000000000000000000000000000027120000000000000000000000000763196a091575adf99e2306e5e90e0be5154841",
        "nonce": "0x30",
        "chainId": "0x66eee"
      },
      "additionalContracts": [],
      "isFixedGasLimit": false
    },
    {
      "hash": "0xb49bb1393b84054fd7d963b2caef9a51fd5f912e9240b81171917352f3d0c01e",
      "transactionType": "CALL",
      "contractName": null,
      "contractAddress": "0x0763196a091575adf99e2306e5e90e0be5154841",
      "function": "setIsWormholeEvmChain(uint16,bool)",
      "arguments": ["10002", "true"],
      "transaction": {
        "from": "0xf2f1acbe0ba726fee8d75f3e32900526874740bb",
        "to": "0x0763196a091575adf99e2306e5e90e0be5154841",
        "gas": "0x10fa8",
        "value": "0x0",
        "input": "0x96dddc6300000000000000000000000000000000000000000000000000000000000027120000000000000000000000000000000000000000000000000000000000000001",
        "nonce": "0x31",
        "chainId": "0x66eee"
      },
      "additionalContracts": [],
      "isFixedGasLimit": false
    },
    {
      "hash": "0xef95463d247e759d9266f1baade7e1cb5ce5a85c11e29b5f60581438f4ddd507",
      "transactionType": "CALL",
      "contractName": null,
      "contractAddress": "0xd925c84b55e4e44a53749ff5f2a5a13f63d128fd",
      "function": "setPeer(uint16,bytes32,uint8,uint256)",
      "arguments": [
        "10005",
        "0x000000000000000000000000d925c84b55e4e44a53749ff5f2a5a13f63d128fd",
        "6",
        "0"
      ],
      "transaction": {
        "from": "0xf2f1acbe0ba726fee8d75f3e32900526874740bb",
        "to": "0xd925c84b55e4e44a53749ff5f2a5a13f63d128fd",
        "gas": "0x19c72",
        "value": "0x0",
        "input": "0x7c9186340000000000000000000000000000000000000000000000000000000000002715000000000000000000000000d925c84b55e4e44a53749ff5f2a5a13f63d128fd00000000000000000000000000000000000000000000000000000000000000060000000000000000000000000000000000000000000000000000000000000000",
        "nonce": "0x32",
        "chainId": "0x66eee"
      },
      "additionalContracts": [],
      "isFixedGasLimit": false
    },
    {
      "hash": "0xfef617ca71ef1fe595d683a3c7365ec0ae679ed6c0c3c4736cb3a2f736fa5209",
      "transactionType": "CALL",
      "contractName": null,
      "contractAddress": "0xd925c84b55e4e44a53749ff5f2a5a13f63d128fd",
      "function": "setDestinationMToken(uint16,bytes32)",
      "arguments": [
        "10005",
        "0x000000000000000000000000866a2bf4e572cbcf37d5071a7a58503bfb36be1b"
      ],
      "transaction": {
        "from": "0xf2f1acbe0ba726fee8d75f3e32900526874740bb",
        "to": "0xd925c84b55e4e44a53749ff5f2a5a13f63d128fd",
        "gas": "0x110a2",
        "value": "0x0",
        "input": "0x76a4a5390000000000000000000000000000000000000000000000000000000000002715000000000000000000000000866a2bf4e572cbcf37d5071a7a58503bfb36be1b",
        "nonce": "0x33",
        "chainId": "0x66eee"
      },
      "additionalContracts": [],
      "isFixedGasLimit": false
    },
    {
      "hash": "0xcdad770a719c6c1ea83bda22d55481b97105063c99d57b37513b0a744c96c80f",
      "transactionType": "CALL",
      "contractName": null,
      "contractAddress": "0xd925c84b55e4e44a53749ff5f2a5a13f63d128fd",
      "function": "setSupportedBridgingPath(address,uint16,bytes32,bool)",
      "arguments": [
        "0x866A2BF4E572CbcF37D5071A7a58503Bfb36be1b",
        "10005",
        "0x000000000000000000000000866a2bf4e572cbcf37d5071a7a58503bfb36be1b",
        "true"
      ],
      "transaction": {
        "from": "0xf2f1acbe0ba726fee8d75f3e32900526874740bb",
        "to": "0xd925c84b55e4e44a53749ff5f2a5a13f63d128fd",
        "gas": "0x116e7",
        "value": "0x0",
        "input": "0x1482cb4a000000000000000000000000866a2bf4e572cbcf37d5071a7a58503bfb36be1b0000000000000000000000000000000000000000000000000000000000002715000000000000000000000000866a2bf4e572cbcf37d5071a7a58503bfb36be1b0000000000000000000000000000000000000000000000000000000000000001",
        "nonce": "0x34",
        "chainId": "0x66eee"
      },
      "additionalContracts": [],
      "isFixedGasLimit": false
    },
    {
      "hash": "0xb1d625396a6070e71561ab4f6d6f5dc6ff03121b86718b5edf4aa2a567ed4c8d",
      "transactionType": "CALL",
      "contractName": null,
      "contractAddress": "0xd925c84b55e4e44a53749ff5f2a5a13f63d128fd",
      "function": "setSupportedBridgingPath(address,uint16,bytes32,bool)",
      "arguments": [
        "0x866A2BF4E572CbcF37D5071A7a58503Bfb36be1b",
        "10005",
        "0x000000000000000000000000437cc33344a0b27a429f795ff6b469c72698b291",
        "true"
      ],
      "transaction": {
        "from": "0xf2f1acbe0ba726fee8d75f3e32900526874740bb",
        "to": "0xd925c84b55e4e44a53749ff5f2a5a13f63d128fd",
        "gas": "0x116e7",
        "value": "0x0",
        "input": "0x1482cb4a000000000000000000000000866a2bf4e572cbcf37d5071a7a58503bfb36be1b0000000000000000000000000000000000000000000000000000000000002715000000000000000000000000437cc33344a0b27a429f795ff6b469c72698b2910000000000000000000000000000000000000000000000000000000000000001",
        "nonce": "0x35",
        "chainId": "0x66eee"
      },
      "additionalContracts": [],
      "isFixedGasLimit": false
    },
    {
      "hash": "0x4724829874bcf343a6a745df6511b6c33661b8ef6ff874511426fabab56f46a1",
      "transactionType": "CALL",
      "contractName": null,
      "contractAddress": "0xd925c84b55e4e44a53749ff5f2a5a13f63d128fd",
      "function": "setSupportedBridgingPath(address,uint16,bytes32,bool)",
      "arguments": [
        "0x437cc33344a0B27A429f795ff6B469C72698B291",
        "10005",
        "0x000000000000000000000000866a2bf4e572cbcf37d5071a7a58503bfb36be1b",
        "true"
      ],
      "transaction": {
        "from": "0xf2f1acbe0ba726fee8d75f3e32900526874740bb",
        "to": "0xd925c84b55e4e44a53749ff5f2a5a13f63d128fd",
        "gas": "0x116e7",
        "value": "0x0",
        "input": "0x1482cb4a000000000000000000000000437cc33344a0b27a429f795ff6b469c72698b2910000000000000000000000000000000000000000000000000000000000002715000000000000000000000000866a2bf4e572cbcf37d5071a7a58503bfb36be1b0000000000000000000000000000000000000000000000000000000000000001",
        "nonce": "0x36",
        "chainId": "0x66eee"
      },
      "additionalContracts": [],
      "isFixedGasLimit": false
    },
    {
      "hash": "0x8d07f44e0ab0ac570c1321ac6149b90ce54488c976d10763386e3ff49b395704",
      "transactionType": "CALL",
      "contractName": null,
      "contractAddress": "0xd925c84b55e4e44a53749ff5f2a5a13f63d128fd",
      "function": "setSupportedBridgingPath(address,uint16,bytes32,bool)",
      "arguments": [
        "0x437cc33344a0B27A429f795ff6B469C72698B291",
        "10005",
        "0x000000000000000000000000437cc33344a0b27a429f795ff6b469c72698b291",
        "true"
      ],
      "transaction": {
        "from": "0xf2f1acbe0ba726fee8d75f3e32900526874740bb",
        "to": "0xd925c84b55e4e44a53749ff5f2a5a13f63d128fd",
        "gas": "0x116e7",
        "value": "0x0",
        "input": "0x1482cb4a000000000000000000000000437cc33344a0b27a429f795ff6b469c72698b2910000000000000000000000000000000000000000000000000000000000002715000000000000000000000000437cc33344a0b27a429f795ff6b469c72698b2910000000000000000000000000000000000000000000000000000000000000001",
        "nonce": "0x37",
        "chainId": "0x66eee"
      },
      "additionalContracts": [],
      "isFixedGasLimit": false
    },
    {
      "hash": "0xcc23902d1ee80842e26af44ddf5469b4808fe8d47b6175f301759f40e6212781",
      "transactionType": "CALL",
      "contractName": null,
      "contractAddress": "0x0763196a091575adf99e2306e5e90e0be5154841",
      "function": "setIsWormholeRelayingEnabled(uint16,bool)",
      "arguments": ["10005", "true"],
      "transaction": {
        "from": "0xf2f1acbe0ba726fee8d75f3e32900526874740bb",
        "to": "0x0763196a091575adf99e2306e5e90e0be5154841",
        "gas": "0x10e33",
        "value": "0x0",
        "input": "0x657b3b2f00000000000000000000000000000000000000000000000000000000000027150000000000000000000000000000000000000000000000000000000000000001",
        "nonce": "0x38",
        "chainId": "0x66eee"
      },
      "additionalContracts": [],
      "isFixedGasLimit": false
    },
    {
      "hash": "0x087b111e2b27ac64b75ddd418802b42c98b36e6003aac09487e1aa84c9f9cb42",
      "transactionType": "CALL",
      "contractName": null,
      "contractAddress": "0x0763196a091575adf99e2306e5e90e0be5154841",
      "function": "setWormholePeer(uint16,bytes32)",
      "arguments": [
        "10005",
        "0x0000000000000000000000000763196a091575adf99e2306e5e90e0be5154841"
      ],
      "transaction": {
        "from": "0xf2f1acbe0ba726fee8d75f3e32900526874740bb",
        "to": "0x0763196a091575adf99e2306e5e90e0be5154841",
        "gas": "0x18e43",
        "value": "0x0",
        "input": "0x7ab5640300000000000000000000000000000000000000000000000000000000000027150000000000000000000000000763196a091575adf99e2306e5e90e0be5154841",
        "nonce": "0x39",
        "chainId": "0x66eee"
      },
      "additionalContracts": [],
      "isFixedGasLimit": false
    },
    {
      "hash": "0x55b053ce3e297b0221a4632bb487c0513be1126bdf2218292cdf48bbc8b0ee82",
      "transactionType": "CALL",
      "contractName": null,
      "contractAddress": "0x0763196a091575adf99e2306e5e90e0be5154841",
      "function": "setIsWormholeEvmChain(uint16,bool)",
      "arguments": ["10005", "true"],
      "transaction": {
        "from": "0xf2f1acbe0ba726fee8d75f3e32900526874740bb",
        "to": "0x0763196a091575adf99e2306e5e90e0be5154841",
        "gas": "0x10fa8",
        "value": "0x0",
        "input": "0x96dddc6300000000000000000000000000000000000000000000000000000000000027150000000000000000000000000000000000000000000000000000000000000001",
        "nonce": "0x3a",
        "chainId": "0x66eee"
      },
      "additionalContracts": [],
      "isFixedGasLimit": false
    }
  ],
  "receipts": [
    {
      "status": "0x1",
      "cumulativeGasUsed": "0x2058a",
      "logs": [
        {
          "address": "0xd925c84b55e4e44a53749ff5f2a5a13f63d128fd",
          "topics": [
            "0x1456404e7f41f35c3daac941bb50bad417a66275c3040061b4287d787719599d",
            "0x0000000000000000000000000000000000000000000000000000000000002712"
          ],
          "data": "0x00000000000000000000000000000000000000000000000000000000000000000000000000000000000000000000000000000000000000000000000000000000000000000000000000000000d925c84b55e4e44a53749ff5f2a5a13f63d128fd0000000000000000000000000000000000000000000000000000000000000006",
          "blockHash": "0xfa90388aa3f00c79e4ae24a27b3a16bfac8e78b035bbf9251ac26714fd58ad52",
          "blockNumber": "0x77216e2",
          "transactionHash": "0x65e27967406cba91467a14700d6b856eb83d8ad364bba90e9fe8545517e1d121",
          "transactionIndex": "0x2",
          "logIndex": "0x1",
          "removed": false
        }
      ],
      "logsBloom": "0x00000000000000000000000000000000000000000000000000000000000000000000000000000000002000000000000000000000000000000000000000000000000000000000000000000000000000000000000000024000000000000000000000002000000000000000000000000000000000000000000000000000000000000000000000000000000008000000000000000000000000000000000000000008000000000000000000000040000000000000000000000000000000000000080000400000000000000000000000000000000000000000000000000000000000000000000000000000000000000000000000000000000000000000000000000000",
      "type": "0x2",
      "transactionHash": "0x65e27967406cba91467a14700d6b856eb83d8ad364bba90e9fe8545517e1d121",
      "transactionIndex": "0x2",
      "blockHash": "0xfa90388aa3f00c79e4ae24a27b3a16bfac8e78b035bbf9251ac26714fd58ad52",
      "blockNumber": "0x77216e2",
      "gasUsed": "0x139be",
      "effectiveGasPrice": "0x5f5e100",
      "from": "0xf2f1acbe0ba726fee8d75f3e32900526874740bb",
      "to": "0xd925c84b55e4e44a53749ff5f2a5a13f63d128fd",
      "contractAddress": null,
      "gasUsedForL1": "0x0",
      "l1BlockNumber": "0x75ff64"
    },
    {
      "status": "0x1",
      "cumulativeGasUsed": "0x8b4a0",
      "logs": [
        {
          "address": "0xd925c84b55e4e44a53749ff5f2a5a13f63d128fd",
          "topics": [
            "0xe6658eeba76934cef78dc5f420ee40406e4876e8d3e767f7b700c63daf1bf0ba",
            "0x0000000000000000000000000000000000000000000000000000000000002712"
          ],
          "data": "0x000000000000000000000000866a2bf4e572cbcf37d5071a7a58503bfb36be1b",
          "blockHash": "0xbc01dc3b3f0611ff81853c9b02610b3c9e3a86b4efb829080cd01e6e6725cd45",
          "blockNumber": "0x77216e5",
          "transactionHash": "0x4e9cc623cea44b1d4d9b0f4bcb8db6d2abaee6067cd06364099d3369f0576662",
          "transactionIndex": "0x4",
          "logIndex": "0x4",
          "removed": false
        }
      ],
      "logsBloom": "0x00000000000000000000000000000000000000000000000000000000000000000000000000000000000000000000000000000000000000000000000000000000000000000000000000000000002000000000000000024000000000000000000000000000000000000000000000000000000000000000000000000000000000000000000000000000000000000000000000000000000000000000000000000008000080000000000000000040000000000000000000000000000000000000080000400000000020000000000000000000000000000000000000000000000000000000000000000000000000000000000000000000000000000000000000000000",
      "type": "0x2",
      "transactionHash": "0x4e9cc623cea44b1d4d9b0f4bcb8db6d2abaee6067cd06364099d3369f0576662",
      "transactionIndex": "0x4",
      "blockHash": "0xbc01dc3b3f0611ff81853c9b02610b3c9e3a86b4efb829080cd01e6e6725cd45",
      "blockNumber": "0x77216e5",
      "gasUsed": "0xce9f",
      "effectiveGasPrice": "0x5f5e100",
      "from": "0xf2f1acbe0ba726fee8d75f3e32900526874740bb",
      "to": "0xd925c84b55e4e44a53749ff5f2a5a13f63d128fd",
      "contractAddress": null,
      "gasUsedForL1": "0x0",
      "l1BlockNumber": "0x75ff64",
      "timeboosted": false
    },
    {
      "status": "0x1",
      "cumulativeGasUsed": "0xd36d",
      "logs": [
        {
          "address": "0xd925c84b55e4e44a53749ff5f2a5a13f63d128fd",
          "topics": [
            "0xeb8377c150d1438121333afa2027232605a400b1208ae6f9cfa156438e453f6d",
            "0x000000000000000000000000866a2bf4e572cbcf37d5071a7a58503bfb36be1b",
            "0x0000000000000000000000000000000000000000000000000000000000002712",
            "0x000000000000000000000000866a2bf4e572cbcf37d5071a7a58503bfb36be1b"
          ],
          "data": "0x0000000000000000000000000000000000000000000000000000000000000001",
          "blockHash": "0x63e4fd9bae700988bcc5b6fea0b1db4af91cca4088065c388e225da98e4df165",
          "blockNumber": "0x77216e8",
          "transactionHash": "0xee84774094543e0c57e5ca909c25d375e78b77c98ee4bf9c0792a0289edbc355",
          "transactionIndex": "0x1",
          "logIndex": "0x0",
          "removed": false
        }
      ],
      "logsBloom": "0x00000008000000000000000000000000000000000000000000000000000000000000000000000000000000000000000000000000000000000000000000000000800000000000000000000000000000000000000000024000000000000000000000000000000000000000000000000000000000000000000100000000000000000000000000000000000000000040000000000000000000000000000000000008000000000000000000000040008000000000000000000000000000000000080000400000000400000000000000000000000000000000000000000000000000000000000000000000000000000000000000000000000000000000000000000000",
      "type": "0x2",
      "transactionHash": "0xee84774094543e0c57e5ca909c25d375e78b77c98ee4bf9c0792a0289edbc355",
      "transactionIndex": "0x1",
      "blockHash": "0x63e4fd9bae700988bcc5b6fea0b1db4af91cca4088065c388e225da98e4df165",
      "blockNumber": "0x77216e8",
      "gasUsed": "0xd36d",
      "effectiveGasPrice": "0x5f5e100",
      "from": "0xf2f1acbe0ba726fee8d75f3e32900526874740bb",
      "to": "0xd925c84b55e4e44a53749ff5f2a5a13f63d128fd",
      "contractAddress": null,
      "gasUsedForL1": "0x0",
      "l1BlockNumber": "0x75ff64"
    },
    {
      "status": "0x1",
      "cumulativeGasUsed": "0xd36d",
      "logs": [
        {
          "address": "0xd925c84b55e4e44a53749ff5f2a5a13f63d128fd",
          "topics": [
            "0xeb8377c150d1438121333afa2027232605a400b1208ae6f9cfa156438e453f6d",
            "0x000000000000000000000000866a2bf4e572cbcf37d5071a7a58503bfb36be1b",
            "0x0000000000000000000000000000000000000000000000000000000000002712",
            "0x000000000000000000000000437cc33344a0b27a429f795ff6b469c72698b291"
          ],
          "data": "0x0000000000000000000000000000000000000000000000000000000000000001",
          "blockHash": "0x94970b91561973148c692901d289f85c0e820a582f2a75611def120e44d22b47",
          "blockNumber": "0x77216eb",
          "transactionHash": "0x281ce6af991e4315100fb39f9341d971a8391471f8a62641a1d1f218ad7e889f",
          "transactionIndex": "0x1",
          "logIndex": "0x0",
          "removed": false
        }
      ],
      "logsBloom": "0x00000008000002000000000000000000000000000000000000000000000000000000000000000000000000000000000000000000000000000000000000000000800000000000000000000000000000000000000000024000000000000000000000000000000000000000000000000000000000000000000100000000000000000000000000000000000000000040000000000000000000000000000000000008000000000000000000000040008000000000000000020000000000000000080000400000000400000000000000000000000000000000000000000000000000200000000000000000000000000000000000000000000000000000000000000000",
      "type": "0x2",
      "transactionHash": "0x281ce6af991e4315100fb39f9341d971a8391471f8a62641a1d1f218ad7e889f",
      "transactionIndex": "0x1",
      "blockHash": "0x94970b91561973148c692901d289f85c0e820a582f2a75611def120e44d22b47",
      "blockNumber": "0x77216eb",
      "gasUsed": "0xd36d",
      "effectiveGasPrice": "0x5f5e100",
      "from": "0xf2f1acbe0ba726fee8d75f3e32900526874740bb",
      "to": "0xd925c84b55e4e44a53749ff5f2a5a13f63d128fd",
      "contractAddress": null,
      "gasUsedForL1": "0x0",
      "l1BlockNumber": "0x75ff64"
    },
    {
      "status": "0x1",
      "cumulativeGasUsed": "0xc9cc8",
      "logs": [
        {
          "address": "0xd925c84b55e4e44a53749ff5f2a5a13f63d128fd",
          "topics": [
            "0xeb8377c150d1438121333afa2027232605a400b1208ae6f9cfa156438e453f6d",
            "0x000000000000000000000000437cc33344a0b27a429f795ff6b469c72698b291",
            "0x0000000000000000000000000000000000000000000000000000000000002712",
            "0x000000000000000000000000866a2bf4e572cbcf37d5071a7a58503bfb36be1b"
          ],
          "data": "0x0000000000000000000000000000000000000000000000000000000000000001",
          "blockHash": "0x03d1b9d525f030cabbc48f687255b3798cf02e726ead3f8acf153c22b894a951",
          "blockNumber": "0x77216ee",
          "transactionHash": "0x55e28564340c1f91016fbd2a2e2ef187b57d19d1890ad83c1451d0f1e4085205",
          "transactionIndex": "0x3",
          "logIndex": "0x2",
          "removed": false
        }
      ],
      "logsBloom": "0x00000008000002000000000000000000000000000000000000000000000000000000000000000000000000000000000000000000000000000000000000000000800000000000000000000000000000000000000000024000000000000000000000000000000000000000000000000000000000000000000100000000000000000000000000000000000000000040000000000000000000000000000000000008000000000000000000000040008000000000000000020000000000000000080000400000000400000000000000000000000000000000000000000000000000200000000000000000000000000000000000000000000000000000000000000000",
      "type": "0x2",
      "transactionHash": "0x55e28564340c1f91016fbd2a2e2ef187b57d19d1890ad83c1451d0f1e4085205",
      "transactionIndex": "0x3",
      "blockHash": "0x03d1b9d525f030cabbc48f687255b3798cf02e726ead3f8acf153c22b894a951",
      "blockNumber": "0x77216ee",
      "gasUsed": "0xd36d",
      "effectiveGasPrice": "0x5f5e100",
      "from": "0xf2f1acbe0ba726fee8d75f3e32900526874740bb",
      "to": "0xd925c84b55e4e44a53749ff5f2a5a13f63d128fd",
      "contractAddress": null,
      "gasUsedForL1": "0x0",
      "l1BlockNumber": "0x75ff64",
      "timeboosted": false
    },
    {
      "status": "0x1",
      "cumulativeGasUsed": "0x28c5d",
      "logs": [
        {
          "address": "0xd925c84b55e4e44a53749ff5f2a5a13f63d128fd",
          "topics": [
            "0xeb8377c150d1438121333afa2027232605a400b1208ae6f9cfa156438e453f6d",
            "0x000000000000000000000000437cc33344a0b27a429f795ff6b469c72698b291",
            "0x0000000000000000000000000000000000000000000000000000000000002712",
            "0x000000000000000000000000437cc33344a0b27a429f795ff6b469c72698b291"
          ],
          "data": "0x0000000000000000000000000000000000000000000000000000000000000001",
          "blockHash": "0x64c6e130cb777e25184c0633a69a7eb006983721d045911864c2b4d8191c1359",
          "blockNumber": "0x77216f1",
          "transactionHash": "0x72aa82460fd9b7055040c57f435ce1372b0a5bd2ae71fce7cb6c6057c4edc2f1",
          "transactionIndex": "0x2",
          "logIndex": "0x4",
          "removed": false
        }
      ],
      "logsBloom": "0x00000008000002000000000000000000000000000000000000000000000000000000000000000000000000000000000000000000000000000000000000000000800000000000000000000000000000000000000000024000000000000000000000000000000000000000000000000000000000000000000000000000000000000000000000000000000000000000000000000000000000000000000000000008000000000000000000000040008000000000000000020000000000000000080000400000000000000000000000000000000000000000000000000000000000200000000000000000000000000000000000000000000000000000000000000000",
      "type": "0x2",
      "transactionHash": "0x72aa82460fd9b7055040c57f435ce1372b0a5bd2ae71fce7cb6c6057c4edc2f1",
      "transactionIndex": "0x2",
      "blockHash": "0x64c6e130cb777e25184c0633a69a7eb006983721d045911864c2b4d8191c1359",
      "blockNumber": "0x77216f1",
      "gasUsed": "0xd36d",
      "effectiveGasPrice": "0x5f5e100",
      "from": "0xf2f1acbe0ba726fee8d75f3e32900526874740bb",
      "to": "0xd925c84b55e4e44a53749ff5f2a5a13f63d128fd",
      "contractAddress": null,
      "gasUsedForL1": "0x0",
      "l1BlockNumber": "0x75ff64",
      "timeboosted": false
    },
    {
      "status": "0x1",
      "cumulativeGasUsed": "0xc0db5",
      "logs": [
        {
          "address": "0x0763196a091575adf99e2306e5e90e0be5154841",
          "topics": [
            "0x528b18a533e892b5401d1fb63597275df9d2bb45b13e7695c3147cd07b9746c3"
          ],
          "data": "0x00000000000000000000000000000000000000000000000000000000000027120000000000000000000000000000000000000000000000000000000000000001",
          "blockHash": "0x2eb1fa555939fa1551c977c06fa007fd2e2037574204f49fd39e364d8e17e58c",
          "blockNumber": "0x77216f4",
          "transactionHash": "0x6016bd3730f9849666eaf6f05ae2b735d14f0ad6c94b801283a3c590a312048e",
          "transactionIndex": "0x3",
          "logIndex": "0x2",
          "removed": false
        }
      ],
      "logsBloom": "0x00000000000000000000000000000000000000000000000000000000000080000000000000400000000000000000000000000000000000000000000000000000000000000000000000000000800000000000000000000000000000000001000000000000000000001000000000000000000000000000000000000000000000000000000000000000000000000000000000000000000000000000000000000000002000000000000000000000000000000000000000000000000000000000000000000000000000000000000000000000000000000000000000000000000000000000000000000000000000000000000000000000000000000000000000000000",
      "type": "0x2",
      "transactionHash": "0x6016bd3730f9849666eaf6f05ae2b735d14f0ad6c94b801283a3c590a312048e",
      "transactionIndex": "0x3",
      "blockHash": "0x2eb1fa555939fa1551c977c06fa007fd2e2037574204f49fd39e364d8e17e58c",
      "blockNumber": "0x77216f4",
      "gasUsed": "0xccc2",
      "effectiveGasPrice": "0x5f5e100",
      "from": "0xf2f1acbe0ba726fee8d75f3e32900526874740bb",
      "to": "0x0763196a091575adf99e2306e5e90e0be5154841",
      "contractAddress": null,
      "gasUsedForL1": "0x0",
      "l1BlockNumber": "0x75ff64",
      "timeboosted": false
    },
    {
      "status": "0x1",
      "cumulativeGasUsed": "0x12ee0",
      "logs": [
        {
          "address": "0x6b9c8671cddc8deab9c719bb87cbd3e782ba6a35",
          "topics": [
            "0x6eb224fb001ed210e379b335e35efe88672a8ce935d981a6896b27ffdf52a3b2",
            "0x0000000000000000000000000763196a091575adf99e2306e5e90e0be5154841"
          ],
          "data": "0x00000000000000000000000000000000000000000000000000000000000000010000000000000000000000000000000000000000000000000000000000000000000000000000000000000000000000000000000000000000000000000000008000000000000000000000000000000000000000000000000000000000000000c8000000000000000000000000000000000000000000000000000000000000002618fc67c227120000000000000000000000000763196a091575adf99e2306e5e90e0be51548410000000000000000000000000000000000000000000000000000",
          "blockHash": "0x299861f4659674fd8f04ce00e57de4604cc3ccd525cc6156998a30442a2dde83",
          "blockNumber": "0x77216f8",
          "transactionHash": "0x5c6057c682109c96e4f2e95f967dab9c1e6bdad1b6f748d7488023f36048a742",
          "transactionIndex": "0x1",
          "logIndex": "0x0",
          "removed": false
        },
        {
          "address": "0x0763196a091575adf99e2306e5e90e0be5154841",
          "topics": [
            "0xa559263ee060c7a2560843b3a064ff0376c9753ae3e2449b595a3b615d326466"
          ],
          "data": "0x00000000000000000000000000000000000000000000000000000000000027120000000000000000000000000763196a091575adf99e2306e5e90e0be5154841",
          "blockHash": "0x299861f4659674fd8f04ce00e57de4604cc3ccd525cc6156998a30442a2dde83",
          "blockNumber": "0x77216f8",
          "transactionHash": "0x5c6057c682109c96e4f2e95f967dab9c1e6bdad1b6f748d7488023f36048a742",
          "transactionIndex": "0x1",
          "logIndex": "0x1",
          "removed": false
        }
      ],
      "logsBloom": "0x00000000000100000000000000000000000000000000000000000000000000000010000000000000000000000010000000000000000000000000000000000000000000000000000000000000000000000000000100000000000000000001000000000000000000001000000000000000000000000000000000000000000000000000000000000000000000000000000000000000000000000000000000000004002000000400000000000000000000000000004000000000000000008000000000000000000000000000000000000000000000000000000000000000000000000002000000000000210000000000000020000000000000000000000000000000",
      "type": "0x2",
      "transactionHash": "0x5c6057c682109c96e4f2e95f967dab9c1e6bdad1b6f748d7488023f36048a742",
      "transactionIndex": "0x1",
      "blockHash": "0x299861f4659674fd8f04ce00e57de4604cc3ccd525cc6156998a30442a2dde83",
      "blockNumber": "0x77216f8",
      "gasUsed": "0x12ee0",
      "effectiveGasPrice": "0x5f5e100",
      "from": "0xf2f1acbe0ba726fee8d75f3e32900526874740bb",
      "to": "0x0763196a091575adf99e2306e5e90e0be5154841",
      "contractAddress": null,
      "gasUsedForL1": "0x0",
      "l1BlockNumber": "0x75ff64"
    },
    {
      "status": "0x1",
      "cumulativeGasUsed": "0x24357",
      "logs": [
        {
          "address": "0x0763196a091575adf99e2306e5e90e0be5154841",
          "topics": [
            "0x4add57d97a7bf5035340ea1212aeeb3d4d3887eb1faf3821a8224c3a6956a10c"
          ],
          "data": "0x00000000000000000000000000000000000000000000000000000000000027120000000000000000000000000000000000000000000000000000000000000001",
          "blockHash": "0x73d18133dffe6046dbf10eee541dfc91dd1181f82dfc4bd327a75d2897bb53a5",
          "blockNumber": "0x77216fb",
          "transactionHash": "0xb49bb1393b84054fd7d963b2caef9a51fd5f912e9240b81171917352f3d0c01e",
          "transactionIndex": "0x2",
          "logIndex": "0x1",
          "removed": false
        }
      ],
      "logsBloom": "0x00000000000000080000000000000000000000000000000000000000000000000000000000000000000000000000000000000000000000000000000000000000000000000000000000000000000000000000000000000000000000000001000000000000000000001000000000000000000000000000000000000080000000000000000000000000000000000000000000000000000000000000000000000000002000000000000000000000000000000000000000000000000000000000000000000000000000000000000000000000000000000000000000000000000000000000000000000000000000000000000000000040000000000000000000000000",
      "type": "0x2",
      "transactionHash": "0xb49bb1393b84054fd7d963b2caef9a51fd5f912e9240b81171917352f3d0c01e",
      "transactionIndex": "0x2",
      "blockHash": "0x73d18133dffe6046dbf10eee541dfc91dd1181f82dfc4bd327a75d2897bb53a5",
      "blockNumber": "0x77216fb",
      "gasUsed": "0xcde0",
      "effectiveGasPrice": "0x5f5e100",
      "from": "0xf2f1acbe0ba726fee8d75f3e32900526874740bb",
      "to": "0x0763196a091575adf99e2306e5e90e0be5154841",
      "contractAddress": null,
      "gasUsedForL1": "0x0",
      "l1BlockNumber": "0x75ff64",
      "timeboosted": false
    },
    {
      "status": "0x1",
      "cumulativeGasUsed": "0x2af35",
      "logs": [
        {
          "address": "0xd925c84b55e4e44a53749ff5f2a5a13f63d128fd",
          "topics": [
            "0x1456404e7f41f35c3daac941bb50bad417a66275c3040061b4287d787719599d",
            "0x0000000000000000000000000000000000000000000000000000000000002715"
          ],
          "data": "0x00000000000000000000000000000000000000000000000000000000000000000000000000000000000000000000000000000000000000000000000000000000000000000000000000000000d925c84b55e4e44a53749ff5f2a5a13f63d128fd0000000000000000000000000000000000000000000000000000000000000006",
          "blockHash": "0x629ca614b634ef3187f792e8ac03c7b216af9679f19beb616d403d146617618d",
          "blockNumber": "0x77216fe",
          "transactionHash": "0xef95463d247e759d9266f1baade7e1cb5ce5a85c11e29b5f60581438f4ddd507",
          "transactionIndex": "0x2",
          "logIndex": "0x1",
          "removed": false
        }
      ],
      "logsBloom": "0x00000000000000000000000000000000000000000000000000000000010000000000800000000000002000000000000000000000000000000000000000000000000000000000000000000000000000000000000000024000000000000000000000002000000000000000000000000000000000000000000000000000000000000000000000000000000008000000000000000000000000000000000000000000000000000000000000000000000000000000000000000000000000000000080000000000000000000000000000000000000000000000000000000000000000000000000000000000000000000000008000000000000000000000000000000000",
      "type": "0x2",
      "transactionHash": "0xef95463d247e759d9266f1baade7e1cb5ce5a85c11e29b5f60581438f4ddd507",
      "transactionIndex": "0x2",
      "blockHash": "0x629ca614b634ef3187f792e8ac03c7b216af9679f19beb616d403d146617618d",
      "blockNumber": "0x77216fe",
      "gasUsed": "0x139be",
      "effectiveGasPrice": "0x5f5e100",
      "from": "0xf2f1acbe0ba726fee8d75f3e32900526874740bb",
      "to": "0xd925c84b55e4e44a53749ff5f2a5a13f63d128fd",
      "contractAddress": null,
      "gasUsedForL1": "0x0",
      "l1BlockNumber": "0x75ff64"
    },
    {
      "status": "0x1",
      "cumulativeGasUsed": "0xce9f",
      "logs": [
        {
          "address": "0xd925c84b55e4e44a53749ff5f2a5a13f63d128fd",
          "topics": [
            "0xe6658eeba76934cef78dc5f420ee40406e4876e8d3e767f7b700c63daf1bf0ba",
            "0x0000000000000000000000000000000000000000000000000000000000002715"
          ],
          "data": "0x000000000000000000000000866a2bf4e572cbcf37d5071a7a58503bfb36be1b",
          "blockHash": "0x8acef859da755d23308e4e887d5a359e7eec3512f3c8978e33cc1c387a2627c4",
          "blockNumber": "0x7721701",
          "transactionHash": "0xfef617ca71ef1fe595d683a3c7365ec0ae679ed6c0c3c4736cb3a2f736fa5209",
          "transactionIndex": "0x1",
          "logIndex": "0x0",
          "removed": false
        }
      ],
      "logsBloom": "0x00000000000000000000000000000000000000000000000000000000010000000000800000000000000000000000000000000000000000000000000000000000000000000000000000000000002000000000000000024000000000000000000000000000000000000000000000000000000000000000000000000000000000000000000000000000000000000000000000000000000000000000000000000000000080000000000000000000000000000000000000000000000000000000080000000000000020000000000000000000000000000000000000000000000000000000000000000000000000000000008000000000000000000000000000000000",
      "type": "0x2",
      "transactionHash": "0xfef617ca71ef1fe595d683a3c7365ec0ae679ed6c0c3c4736cb3a2f736fa5209",
      "transactionIndex": "0x1",
      "blockHash": "0x8acef859da755d23308e4e887d5a359e7eec3512f3c8978e33cc1c387a2627c4",
      "blockNumber": "0x7721701",
      "gasUsed": "0xce9f",
      "effectiveGasPrice": "0x5f5e100",
      "from": "0xf2f1acbe0ba726fee8d75f3e32900526874740bb",
      "to": "0xd925c84b55e4e44a53749ff5f2a5a13f63d128fd",
      "contractAddress": null,
      "gasUsedForL1": "0x0",
      "l1BlockNumber": "0x75ff64"
    },
    {
      "status": "0x1",
      "cumulativeGasUsed": "0x248e4",
      "logs": [
        {
          "address": "0xd925c84b55e4e44a53749ff5f2a5a13f63d128fd",
          "topics": [
            "0xeb8377c150d1438121333afa2027232605a400b1208ae6f9cfa156438e453f6d",
            "0x000000000000000000000000866a2bf4e572cbcf37d5071a7a58503bfb36be1b",
            "0x0000000000000000000000000000000000000000000000000000000000002715",
            "0x000000000000000000000000866a2bf4e572cbcf37d5071a7a58503bfb36be1b"
          ],
          "data": "0x0000000000000000000000000000000000000000000000000000000000000001",
          "blockHash": "0x7026452d17c904b1e0813fa70708ef79c39c25e518e240e0268138336ae3b3fc",
          "blockNumber": "0x7721704",
          "transactionHash": "0xcdad770a719c6c1ea83bda22d55481b97105063c99d57b37513b0a744c96c80f",
          "transactionIndex": "0x2",
          "logIndex": "0x1",
          "removed": false
        }
      ],
      "logsBloom": "0x00000008000000000000000000000000000000000000000000000000010000000000800000000000000000000000000000000000000000000000000000000000800000000000000000000000000000000000000000024000000000000000000000000000000000000000000000000000000000000000000100000000000000000000000000000000000000000040000000000000000000000000000000000000000000000000000000000000008000000000000000000000000000000000080000000000000400000000000000000000000000000000000000000000000000000000000000000000000000000000008000000000000000000000000000000000",
      "type": "0x2",
      "transactionHash": "0xcdad770a719c6c1ea83bda22d55481b97105063c99d57b37513b0a744c96c80f",
      "transactionIndex": "0x2",
      "blockHash": "0x7026452d17c904b1e0813fa70708ef79c39c25e518e240e0268138336ae3b3fc",
      "blockNumber": "0x7721704",
      "gasUsed": "0xd36d",
      "effectiveGasPrice": "0x5f5e100",
      "from": "0xf2f1acbe0ba726fee8d75f3e32900526874740bb",
      "to": "0xd925c84b55e4e44a53749ff5f2a5a13f63d128fd",
      "contractAddress": null,
      "gasUsedForL1": "0x0",
      "l1BlockNumber": "0x75ff64"
    },
    {
      "status": "0x1",
      "cumulativeGasUsed": "0x1593a",
      "logs": [
        {
          "address": "0xd925c84b55e4e44a53749ff5f2a5a13f63d128fd",
          "topics": [
            "0xeb8377c150d1438121333afa2027232605a400b1208ae6f9cfa156438e453f6d",
            "0x000000000000000000000000866a2bf4e572cbcf37d5071a7a58503bfb36be1b",
            "0x0000000000000000000000000000000000000000000000000000000000002715",
            "0x000000000000000000000000437cc33344a0b27a429f795ff6b469c72698b291"
          ],
          "data": "0x0000000000000000000000000000000000000000000000000000000000000001",
          "blockHash": "0xe9d5d09d5a868bbe05407c96b53da651119d23e7ad96f0f590867f31b2c36159",
          "blockNumber": "0x7721707",
          "transactionHash": "0xb1d625396a6070e71561ab4f6d6f5dc6ff03121b86718b5edf4aa2a567ed4c8d",
          "transactionIndex": "0x2",
          "logIndex": "0x1",
          "removed": false
        }
      ],
      "logsBloom": "0x00000008000002000000000000000000000000000000000000000000010000000000800000000000000000000000000000000000000000000000000000000000800000000000000000000000000000000000000000024000000000000000000000000000000000000000000000000000000000000000000100000000000000000000000000000000000000000040000000000000000000000000000000000000000000000000000000000000008000000000000000020000000000000000080000000000000400000000000000000000000000000000000000000000000000200000000000000000000000000000008000000000000000000000000000000000",
      "type": "0x2",
      "transactionHash": "0xb1d625396a6070e71561ab4f6d6f5dc6ff03121b86718b5edf4aa2a567ed4c8d",
      "transactionIndex": "0x2",
      "blockHash": "0xe9d5d09d5a868bbe05407c96b53da651119d23e7ad96f0f590867f31b2c36159",
      "blockNumber": "0x7721707",
      "gasUsed": "0xd36d",
      "effectiveGasPrice": "0x5f5e100",
      "from": "0xf2f1acbe0ba726fee8d75f3e32900526874740bb",
      "to": "0xd925c84b55e4e44a53749ff5f2a5a13f63d128fd",
      "contractAddress": null,
      "gasUsedForL1": "0x0",
      "l1BlockNumber": "0x75ff64"
    },
    {
      "status": "0x1",
      "cumulativeGasUsed": "0xd36d",
      "logs": [
        {
          "address": "0xd925c84b55e4e44a53749ff5f2a5a13f63d128fd",
          "topics": [
            "0xeb8377c150d1438121333afa2027232605a400b1208ae6f9cfa156438e453f6d",
            "0x000000000000000000000000437cc33344a0b27a429f795ff6b469c72698b291",
            "0x0000000000000000000000000000000000000000000000000000000000002715",
            "0x000000000000000000000000866a2bf4e572cbcf37d5071a7a58503bfb36be1b"
          ],
          "data": "0x0000000000000000000000000000000000000000000000000000000000000001",
          "blockHash": "0xd770df9f220d35b6889008bfe71f53e828dd1aec6893371af1da516808f8a4db",
          "blockNumber": "0x772170a",
          "transactionHash": "0x4724829874bcf343a6a745df6511b6c33661b8ef6ff874511426fabab56f46a1",
          "transactionIndex": "0x1",
          "logIndex": "0x0",
          "removed": false
        }
      ],
      "logsBloom": "0x00000008000002000000000000000000000000000000000000000000010000000000800000000000000000000000000000000000000000000000000000000000800000000000000000000000000000000000000000024000000000000000000000000000000000000000000000000000000000000000000100000000000000000000000000000000000000000040000000000000000000000000000000000000000000000000000000000000008000000000000000020000000000000000080000000000000400000000000000000000000000000000000000000000000000200000000000000000000000000000008000000000000000000000000000000000",
      "type": "0x2",
      "transactionHash": "0x4724829874bcf343a6a745df6511b6c33661b8ef6ff874511426fabab56f46a1",
      "transactionIndex": "0x1",
      "blockHash": "0xd770df9f220d35b6889008bfe71f53e828dd1aec6893371af1da516808f8a4db",
      "blockNumber": "0x772170a",
      "gasUsed": "0xd36d",
      "effectiveGasPrice": "0x5f5e100",
      "from": "0xf2f1acbe0ba726fee8d75f3e32900526874740bb",
      "to": "0xd925c84b55e4e44a53749ff5f2a5a13f63d128fd",
      "contractAddress": null,
      "gasUsedForL1": "0x0",
      "l1BlockNumber": "0x75ff64",
      "timeboosted": false
    },
    {
      "status": "0x1",
      "cumulativeGasUsed": "0x34803",
      "logs": [
        {
          "address": "0xd925c84b55e4e44a53749ff5f2a5a13f63d128fd",
          "topics": [
            "0xeb8377c150d1438121333afa2027232605a400b1208ae6f9cfa156438e453f6d",
            "0x000000000000000000000000437cc33344a0b27a429f795ff6b469c72698b291",
            "0x0000000000000000000000000000000000000000000000000000000000002715",
            "0x000000000000000000000000437cc33344a0b27a429f795ff6b469c72698b291"
          ],
          "data": "0x0000000000000000000000000000000000000000000000000000000000000001",
          "blockHash": "0x0e83d1debf475aaf3ad7a3de5cb47b40d598dbb1e446af32529e19f9a47e55c3",
          "blockNumber": "0x772170d",
          "transactionHash": "0x8d07f44e0ab0ac570c1321ac6149b90ce54488c976d10763386e3ff49b395704",
          "transactionIndex": "0x2",
          "logIndex": "0x3",
          "removed": false
        }
      ],
      "logsBloom": "0x00000008000002000000000000000000000000000000000000000000010000000000800000000000000000000000000000000000000000000000000000000000800000000000000000000000000000000000000000024000000000000000000000000000000000000000000000000000000000000000000000000000000000000000000000000000000000000000000000000000000000000000000000000000000000000000000000000000008000000000000000020000000000000000080000000000000000000000000000000000000000000000000000000000000000200000000000000000000000000000008000000000000000000000000000000000",
      "type": "0x2",
      "transactionHash": "0x8d07f44e0ab0ac570c1321ac6149b90ce54488c976d10763386e3ff49b395704",
      "transactionIndex": "0x2",
      "blockHash": "0x0e83d1debf475aaf3ad7a3de5cb47b40d598dbb1e446af32529e19f9a47e55c3",
      "blockNumber": "0x772170d",
      "gasUsed": "0xd36d",
      "effectiveGasPrice": "0x5f5e100",
      "from": "0xf2f1acbe0ba726fee8d75f3e32900526874740bb",
      "to": "0xd925c84b55e4e44a53749ff5f2a5a13f63d128fd",
      "contractAddress": null,
      "gasUsedForL1": "0x0",
      "l1BlockNumber": "0x75ff64"
    },
    {
      "status": "0x1",
      "cumulativeGasUsed": "0xb20a6",
      "logs": [
        {
          "address": "0x0763196a091575adf99e2306e5e90e0be5154841",
          "topics": [
            "0x528b18a533e892b5401d1fb63597275df9d2bb45b13e7695c3147cd07b9746c3"
          ],
          "data": "0x00000000000000000000000000000000000000000000000000000000000027150000000000000000000000000000000000000000000000000000000000000001",
          "blockHash": "0x653ca253d4c29a8702fbe71ae04006f754f0ad2858131d60d181bfacd90c3fdc",
          "blockNumber": "0x7721710",
          "transactionHash": "0xcc23902d1ee80842e26af44ddf5469b4808fe8d47b6175f301759f40e6212781",
          "transactionIndex": "0x2",
          "logIndex": "0x1",
          "removed": false
        }
      ],
      "logsBloom": "0x00000000000000000000000000000000000000000000000000000000000080000000000000400000000000000000000000000000000000000000000000000000000000000000000000000000800000000000000000000000000000000001000000000000000000001000000000000000000000000000000000000000000000000000000000000000000000000000000000000000000000000000000000000000002000000000000000000000000000000000000000000000000000000000000000000000000000000000000000000000000000000000000000000000000000000000000000000000000000000000000000000000000000000000000000000000",
      "type": "0x2",
      "transactionHash": "0xcc23902d1ee80842e26af44ddf5469b4808fe8d47b6175f301759f40e6212781",
      "transactionIndex": "0x2",
      "blockHash": "0x653ca253d4c29a8702fbe71ae04006f754f0ad2858131d60d181bfacd90c3fdc",
      "blockNumber": "0x7721710",
      "gasUsed": "0xccc2",
      "effectiveGasPrice": "0x5f5e100",
      "from": "0xf2f1acbe0ba726fee8d75f3e32900526874740bb",
      "to": "0x0763196a091575adf99e2306e5e90e0be5154841",
      "contractAddress": null,
      "gasUsedForL1": "0x0",
      "l1BlockNumber": "0x75ff65"
    },
    {
      "status": "0x1",
      "cumulativeGasUsed": "0x2a457",
      "logs": [
        {
          "address": "0x6b9c8671cddc8deab9c719bb87cbd3e782ba6a35",
          "topics": [
            "0x6eb224fb001ed210e379b335e35efe88672a8ce935d981a6896b27ffdf52a3b2",
            "0x0000000000000000000000000763196a091575adf99e2306e5e90e0be5154841"
          ],
          "data": "0x00000000000000000000000000000000000000000000000000000000000000020000000000000000000000000000000000000000000000000000000000000000000000000000000000000000000000000000000000000000000000000000008000000000000000000000000000000000000000000000000000000000000000c8000000000000000000000000000000000000000000000000000000000000002618fc67c227150000000000000000000000000763196a091575adf99e2306e5e90e0be51548410000000000000000000000000000000000000000000000000000",
          "blockHash": "0xea8a72456f4dad22dc9374674c388620d7afbdea6b6391643886b4a22d5c3d78",
          "blockNumber": "0x7721713",
          "transactionHash": "0x087b111e2b27ac64b75ddd418802b42c98b36e6003aac09487e1aa84c9f9cb42",
          "transactionIndex": "0x2",
          "logIndex": "0x1",
          "removed": false
        },
        {
          "address": "0x0763196a091575adf99e2306e5e90e0be5154841",
          "topics": [
            "0xa559263ee060c7a2560843b3a064ff0376c9753ae3e2449b595a3b615d326466"
          ],
          "data": "0x00000000000000000000000000000000000000000000000000000000000027150000000000000000000000000763196a091575adf99e2306e5e90e0be5154841",
          "blockHash": "0xea8a72456f4dad22dc9374674c388620d7afbdea6b6391643886b4a22d5c3d78",
          "blockNumber": "0x7721713",
          "transactionHash": "0x087b111e2b27ac64b75ddd418802b42c98b36e6003aac09487e1aa84c9f9cb42",
          "transactionIndex": "0x2",
          "logIndex": "0x2",
          "removed": false
        }
      ],
      "logsBloom": "0x00000000000100000000000000000000000000000000000000000000000000000010000000000000000000000010000000000000000000000000000000000000000000000000000000000000000000000000000100000000000000000001000000000000000000001000000000000000000000000000000000000000000000000000000000000000000000000000000000000000000000000000000000000004002000000400000000000000000000000000004000000000000000008000000000000000000000000000000000000000000000000000000000000000000000000002000000000000210000000000000020000000000000000000000000000000",
      "type": "0x2",
      "transactionHash": "0x087b111e2b27ac64b75ddd418802b42c98b36e6003aac09487e1aa84c9f9cb42",
      "transactionIndex": "0x2",
      "blockHash": "0xea8a72456f4dad22dc9374674c388620d7afbdea6b6391643886b4a22d5c3d78",
      "blockNumber": "0x7721713",
      "gasUsed": "0x12ee0",
      "effectiveGasPrice": "0x5f5e100",
      "from": "0xf2f1acbe0ba726fee8d75f3e32900526874740bb",
      "to": "0x0763196a091575adf99e2306e5e90e0be5154841",
      "contractAddress": null,
      "gasUsedForL1": "0x0",
      "l1BlockNumber": "0x75ff65",
      "timeboosted": false
    },
    {
      "status": "0x1",
      "cumulativeGasUsed": "0xcde0",
      "logs": [
        {
          "address": "0x0763196a091575adf99e2306e5e90e0be5154841",
          "topics": [
            "0x4add57d97a7bf5035340ea1212aeeb3d4d3887eb1faf3821a8224c3a6956a10c"
          ],
          "data": "0x00000000000000000000000000000000000000000000000000000000000027150000000000000000000000000000000000000000000000000000000000000001",
          "blockHash": "0xa508a6e866cbf3cfdf96afecd43df8a5e716a8b568d4860cbde2858eca93a1ac",
          "blockNumber": "0x7721716",
          "transactionHash": "0x55b053ce3e297b0221a4632bb487c0513be1126bdf2218292cdf48bbc8b0ee82",
          "transactionIndex": "0x1",
          "logIndex": "0x0",
          "removed": false
        }
      ],
      "logsBloom": "0x00000000000000080000000000000000000000000000000000000000000000000000000000000000000000000000000000000000000000000000000000000000000000000000000000000000000000000000000000000000000000000001000000000000000000001000000000000000000000000000000000000080000000000000000000000000000000000000000000000000000000000000000000000000002000000000000000000000000000000000000000000000000000000000000000000000000000000000000000000000000000000000000000000000000000000000000000000000000000000000000000000040000000000000000000000000",
      "type": "0x2",
      "transactionHash": "0x55b053ce3e297b0221a4632bb487c0513be1126bdf2218292cdf48bbc8b0ee82",
      "transactionIndex": "0x1",
      "blockHash": "0xa508a6e866cbf3cfdf96afecd43df8a5e716a8b568d4860cbde2858eca93a1ac",
      "blockNumber": "0x7721716",
      "gasUsed": "0xcde0",
      "effectiveGasPrice": "0x5f5e100",
      "from": "0xf2f1acbe0ba726fee8d75f3e32900526874740bb",
      "to": "0x0763196a091575adf99e2306e5e90e0be5154841",
      "contractAddress": null,
      "gasUsedForL1": "0x0",
      "l1BlockNumber": "0x75ff65"
    }
  ],
  "libraries": [],
  "pending": [],
  "returns": {},
  "timestamp": 1739873010,
  "chain": 421614,
  "commit": "6558790"
}
