{
  "transactions": [
    {
      "hash": "0x9063748d594fc9a4676018a5e0408dba68d93103f4f69ac0985fc9b84149b5bd",
      "transactionType": "CALL",
      "contractName": null,
      "contractAddress": "0x0763196a091575adf99e2306e5e90e0be5154841",
      "function": "setWormholePeer(uint16,bytes32)",
      "arguments": [
        "1",
        "0xfcbdac3b256685bd2cc3a97bfcd815fb76b8d33df924e607c409c0bce3fa1668"
      ],
      "transaction": {
        "from": "0xf2f1acbe0ba726fee8d75f3e32900526874740bb",
        "to": "0x0763196a091575adf99e2306e5e90e0be5154841",
        "gas": "0x14ad4",
        "value": "0x0",
        "input": "0x7ab564030000000000000000000000000000000000000000000000000000000000000001fcbdac3b256685bd2cc3a97bfcd815fb76b8d33df924e607c409c0bce3fa1668",
        "nonce": "0x46",
        "chainId": "0x66eee"
      },
      "additionalContracts": [],
      "isFixedGasLimit": false
    }
  ],
  "receipts": [
    {
      "status": "0x1",
      "cumulativeGasUsed": "0xf7df",
      "logs": [
        {
          "address": "0x6b9c8671cddc8deab9c719bb87cbd3e782ba6a35",
          "topics": [
            "0x6eb224fb001ed210e379b335e35efe88672a8ce935d981a6896b27ffdf52a3b2",
            "0x0000000000000000000000000763196a091575adf99e2306e5e90e0be5154841"
          ],
          "data": "0x00000000000000000000000000000000000000000000000000000000000000040000000000000000000000000000000000000000000000000000000000000000000000000000000000000000000000000000000000000000000000000000008000000000000000000000000000000000000000000000000000000000000000c8000000000000000000000000000000000000000000000000000000000000002618fc67c20001fcbdac3b256685bd2cc3a97bfcd815fb76b8d33df924e607c409c0bce3fa16680000000000000000000000000000000000000000000000000000",
          "blockHash": "0x86ddc155101f01dd6dc6cd10295b2117e1036b5e4244b7eaf64e82ae5e73f033",
          "blockNumber": "0x7dad36e",
          "transactionHash": "0x9063748d594fc9a4676018a5e0408dba68d93103f4f69ac0985fc9b84149b5bd",
          "transactionIndex": "0x1",
          "logIndex": "0x0",
          "removed": false
        },
        {
          "address": "0x0763196a091575adf99e2306e5e90e0be5154841",
          "topics": [
            "0xa559263ee060c7a2560843b3a064ff0376c9753ae3e2449b595a3b615d326466"
          ],
          "data": "0x0000000000000000000000000000000000000000000000000000000000000001fcbdac3b256685bd2cc3a97bfcd815fb76b8d33df924e607c409c0bce3fa1668",
          "blockHash": "0x86ddc155101f01dd6dc6cd10295b2117e1036b5e4244b7eaf64e82ae5e73f033",
          "blockNumber": "0x7dad36e",
          "transactionHash": "0x9063748d594fc9a4676018a5e0408dba68d93103f4f69ac0985fc9b84149b5bd",
          "transactionIndex": "0x1",
          "logIndex": "0x1",
          "removed": false
        }
      ],
      "logsBloom": "0x00000000000100000000000000000000000000000000000000000000000000000010000000000000000000000010000000000000000000000000000000000000000000000000000000000000000000000000000100000000000000000001000000000000000000001000000000000000000000000000000000000000000000000000000000000000000000000000000000000000000000000000000000000004002000000400000000000000000000000000004000000000000000008000000000000000000000000000000000000000000000000000000000000000000000000002000000000000210000000000000020000000000000000000000000000000",
      "type": "0x2",
      "transactionHash": "0x9063748d594fc9a4676018a5e0408dba68d93103f4f69ac0985fc9b84149b5bd",
      "transactionIndex": "0x1",
      "blockHash": "0x86ddc155101f01dd6dc6cd10295b2117e1036b5e4244b7eaf64e82ae5e73f033",
      "blockNumber": "0x7dad36e",
      "gasUsed": "0xf7df",
      "effectiveGasPrice": "0x5f5e100",
      "from": "0xf2f1acbe0ba726fee8d75f3e32900526874740bb",
      "to": "0x0763196a091575adf99e2306e5e90e0be5154841",
      "contractAddress": null,
      "gasUsedForL1": "0xb99",
      "l1BlockNumber": "0x786130",
      "timeboosted": false
    }
  ],
  "libraries": [],
  "pending": [],
  "returns": {},
  "timestamp": 1741810921,
  "chain": 421614,
  "commit": "335be00"
}
