{
  "transactions": [
    {
      "hash": "0x15829f774501a8549d4ae1dd77f07df07c4410abfaf5ed3298b6ce1084bfb4fd",
      "transactionType": "CALL",
      "contractName": null,
      "contractAddress": "0xd925c84b55e4e44a53749ff5f2a5a13f63d128fd",
      "function": "setPeer(uint16,bytes32,uint8,uint256)",
      "arguments": [
        "1",
        "0x0b86ec181cd4c5c984e9062b13f2b2de7b9f5b5e68e84349231d6614cdf3f99f",
        "6",
        "0"
      ],
      "transaction": {
        "from": "0xf2f1acbe0ba726fee8d75f3e32900526874740bb",
        "to": "0xd925c84b55e4e44a53749ff5f2a5a13f63d128fd",
        "gas": "0x19d1d",
        "value": "0x0",
        "input": "0x7c91863400000000000000000000000000000000000000000000000000000000000000010b86ec181cd4c5c984e9062b13f2b2de7b9f5b5e68e84349231d6614cdf3f99f00000000000000000000000000000000000000000000000000000000000000060000000000000000000000000000000000000000000000000000000000000000",
        "nonce": "0x3c",
        "chainId": "0x66eee"
      },
      "additionalContracts": [],
      "isFixedGasLimit": false
    },
    {
      "hash": "0xd1f2b45947f2d8949927e91cb21fe5012bbf84e7ab28d083e301199af7f1c1d5",
      "transactionType": "CALL",
      "contractName": null,
      "contractAddress": "0xd925c84b55e4e44a53749ff5f2a5a13f63d128fd",
      "function": "setDestinationMToken(uint16,bytes32)",
      "arguments": [
        "1",
        "0x0b86be66bfceb4c1d7e927bcc4d014be0f2863ab9df85fda610851b64dbd0ae5"
      ],
      "transaction": {
        "from": "0xf2f1acbe0ba726fee8d75f3e32900526874740bb",
        "to": "0xd925c84b55e4e44a53749ff5f2a5a13f63d128fd",
        "gas": "0x1114e",
        "value": "0x0",
        "input": "0x76a4a53900000000000000000000000000000000000000000000000000000000000000010b86be66bfceb4c1d7e927bcc4d014be0f2863ab9df85fda610851b64dbd0ae5",
        "nonce": "0x3d",
        "chainId": "0x66eee"
      },
      "additionalContracts": [],
      "isFixedGasLimit": false
    },
    {
      "hash": "0x07729f6a208a54e4ccebaac46abb17279af3af996aa1bce897822ba301c031c1",
      "transactionType": "CALL",
      "contractName": null,
      "contractAddress": "0xd925c84b55e4e44a53749ff5f2a5a13f63d128fd",
      "function": "setSupportedBridgingPath(address,uint16,bytes32,bool)",
      "arguments": [
        "0x866A2BF4E572CbcF37D5071A7a58503Bfb36be1b",
        "1",
        "0x0b86be66bfceb4c1d7e927bcc4d014be0f2863ab9df85fda610851b64dbd0ae5",
        "true"
      ],
      "transaction": {
        "from": "0xf2f1acbe0ba726fee8d75f3e32900526874740bb",
        "to": "0xd925c84b55e4e44a53749ff5f2a5a13f63d128fd",
        "gas": "0x11793",
        "value": "0x0",
        "input": "0x1482cb4a000000000000000000000000866a2bf4e572cbcf37d5071a7a58503bfb36be1b00000000000000000000000000000000000000000000000000000000000000010b86be66bfceb4c1d7e927bcc4d014be0f2863ab9df85fda610851b64dbd0ae50000000000000000000000000000000000000000000000000000000000000001",
        "nonce": "0x3e",
        "chainId": "0x66eee"
      },
      "additionalContracts": [],
      "isFixedGasLimit": false
    },
    {
      "hash": "0xa396e723be177ab5dc1367de4d54b1f21e2533270546b0d874d1f4f49b5b3c5d",
      "transactionType": "CALL",
      "contractName": null,
      "contractAddress": "0xd925c84b55e4e44a53749ff5f2a5a13f63d128fd",
      "function": "setSupportedBridgingPath(address,uint16,bytes32,bool)",
      "arguments": [
        "0x437cc33344a0B27A429f795ff6B469C72698B291",
        "1",
        "0x0b86be66bfceb4c1d7e927bcc4d014be0f2863ab9df85fda610851b64dbd0ae5",
        "true"
      ],
      "transaction": {
        "from": "0xf2f1acbe0ba726fee8d75f3e32900526874740bb",
        "to": "0xd925c84b55e4e44a53749ff5f2a5a13f63d128fd",
        "gas": "0x11793",
        "value": "0x0",
        "input": "0x1482cb4a000000000000000000000000437cc33344a0b27a429f795ff6b469c72698b29100000000000000000000000000000000000000000000000000000000000000010b86be66bfceb4c1d7e927bcc4d014be0f2863ab9df85fda610851b64dbd0ae50000000000000000000000000000000000000000000000000000000000000001",
        "nonce": "0x3f",
        "chainId": "0x66eee"
      },
      "additionalContracts": [],
      "isFixedGasLimit": false
    },
    {
      "hash": "0x1bc81e5f090919a232acefd2a95ebbe5457d926aead6153913e229ff03abc15f",
      "transactionType": "CALL",
      "contractName": null,
      "contractAddress": "0x0763196a091575adf99e2306e5e90e0be5154841",
      "function": "setIsSpecialRelayingEnabled(uint16,bool)",
      "arguments": ["1", "true"],
      "transaction": {
        "from": "0xf2f1acbe0ba726fee8d75f3e32900526874740bb",
        "to": "0x0763196a091575adf99e2306e5e90e0be5154841",
        "gas": "0x10dce",
        "value": "0x0",
        "input": "0x4b795b2100000000000000000000000000000000000000000000000000000000000000010000000000000000000000000000000000000000000000000000000000000001",
        "nonce": "0x40",
        "chainId": "0x66eee"
      },
      "additionalContracts": [],
      "isFixedGasLimit": false
    },
    {
      "hash": "0x0386519b046507e1d839ff40779a1d00dffaffd233e544b5e10fa356a1597ca0",
      "transactionType": "CALL",
      "contractName": null,
      "contractAddress": "0x0763196a091575adf99e2306e5e90e0be5154841",
      "function": "setWormholePeer(uint16,bytes32)",
      "arguments": [
        "1",
        "0x0b86ec181cd4c5c984e9062b13f2b2de7b9f5b5e68e84349231d6614cdf3f99f"
      ],
      "transaction": {
        "from": "0xf2f1acbe0ba726fee8d75f3e32900526874740bb",
        "to": "0x0763196a091575adf99e2306e5e90e0be5154841",
        "gas": "0x18eee",
        "value": "0x0",
        "input": "0x7ab5640300000000000000000000000000000000000000000000000000000000000000010b86ec181cd4c5c984e9062b13f2b2de7b9f5b5e68e84349231d6614cdf3f99f",
        "nonce": "0x41",
        "chainId": "0x66eee"
      },
      "additionalContracts": [],
      "isFixedGasLimit": false
    }
  ],
  "receipts": [
    {
      "status": "0x1",
      "cumulativeGasUsed": "0x13a42",
      "logs": [
        {
          "address": "0xd925c84b55e4e44a53749ff5f2a5a13f63d128fd",
          "topics": [
            "0x1456404e7f41f35c3daac941bb50bad417a66275c3040061b4287d787719599d",
            "0x0000000000000000000000000000000000000000000000000000000000000001"
          ],
          "data": "0x000000000000000000000000000000000000000000000000000000000000000000000000000000000000000000000000000000000000000000000000000000000b86ec181cd4c5c984e9062b13f2b2de7b9f5b5e68e84349231d6614cdf3f99f0000000000000000000000000000000000000000000000000000000000000006",
          "blockHash": "0xf8f02c2c0f993077c0bc8e257a3468e15904d4a8a620fda642f9c63dda86e338",
          "blockNumber": "0x7b76d46",
          "transactionHash": "0x15829f774501a8549d4ae1dd77f07df07c4410abfaf5ed3298b6ce1084bfb4fd",
          "transactionIndex": "0x1",
          "logIndex": "0x0",
          "removed": false
        }
      ],
      "logsBloom": "0x00000000000000000000000000000000000000000000000000000000000000000000000000000000002000000000000000000000000000000000000000040000000000000000000000000000000000000000000000064000000000000000000000002000000000000000000000000000000000000000000000000000000000000000000000000000000008000000000000000000000000000000000000000000000000000000000000000000000000000000000000000000000000000000080000000000000000000000000000000000000000000000000000000000000040000000000000000000000000000000000000000000000000000000000000000000",
      "type": "0x2",
      "transactionHash": "0x15829f774501a8549d4ae1dd77f07df07c4410abfaf5ed3298b6ce1084bfb4fd",
      "transactionIndex": "0x1",
      "blockHash": "0xf8f02c2c0f993077c0bc8e257a3468e15904d4a8a620fda642f9c63dda86e338",
      "blockNumber": "0x7b76d46",
      "gasUsed": "0x13a42",
      "effectiveGasPrice": "0x5f5e100",
      "from": "0xf2f1acbe0ba726fee8d75f3e32900526874740bb",
      "to": "0xd925c84b55e4e44a53749ff5f2a5a13f63d128fd",
      "contractAddress": null,
      "gasUsedForL1": "0x0",
      "l1BlockNumber": "0x7789ea",
      "timeboosted": false
    },
    {
      "status": "0x1",
      "cumulativeGasUsed": "0xcf23",
      "logs": [
        {
          "address": "0xd925c84b55e4e44a53749ff5f2a5a13f63d128fd",
          "topics": [
            "0xe6658eeba76934cef78dc5f420ee40406e4876e8d3e767f7b700c63daf1bf0ba",
            "0x0000000000000000000000000000000000000000000000000000000000000001"
          ],
          "data": "0x0b86be66bfceb4c1d7e927bcc4d014be0f2863ab9df85fda610851b64dbd0ae5",
          "blockHash": "0x0dfbeea7df486d443fbbaff7ae754612b41c25ec246bce26a725084fe241397e",
          "blockNumber": "0x7b76d49",
          "transactionHash": "0xd1f2b45947f2d8949927e91cb21fe5012bbf84e7ab28d083e301199af7f1c1d5",
          "transactionIndex": "0x1",
          "logIndex": "0x0",
          "removed": false
        }
      ],
      "logsBloom": "0x00000000000000000000000000000000000000000000000000000000000000000000000000000000000000000000000000000000000000000000000000040000000000000000000000000000002000000000000000064000000000000000000000000000000000000000000000000000000000000000000000000000000000000000000000000000000000000000000000000000000000000000000000000000000080000000000000000000000000000000000000000000000000000000080000000000000020000000000000000000000000000000000000000000000040000000000000000000000000000000000000000000000000000000000000000000",
      "type": "0x2",
      "transactionHash": "0xd1f2b45947f2d8949927e91cb21fe5012bbf84e7ab28d083e301199af7f1c1d5",
      "transactionIndex": "0x1",
      "blockHash": "0x0dfbeea7df486d443fbbaff7ae754612b41c25ec246bce26a725084fe241397e",
      "blockNumber": "0x7b76d49",
      "gasUsed": "0xcf23",
      "effectiveGasPrice": "0x5f5e100",
      "from": "0xf2f1acbe0ba726fee8d75f3e32900526874740bb",
      "to": "0xd925c84b55e4e44a53749ff5f2a5a13f63d128fd",
      "contractAddress": null,
      "gasUsedForL1": "0x0",
      "l1BlockNumber": "0x7789ea",
      "timeboosted": false
    },
    {
      "status": "0x1",
      "cumulativeGasUsed": "0xd3f1",
      "logs": [
        {
          "address": "0xd925c84b55e4e44a53749ff5f2a5a13f63d128fd",
          "topics": [
            "0xeb8377c150d1438121333afa2027232605a400b1208ae6f9cfa156438e453f6d",
            "0x000000000000000000000000866a2bf4e572cbcf37d5071a7a58503bfb36be1b",
            "0x0000000000000000000000000000000000000000000000000000000000000001",
            "0x0b86be66bfceb4c1d7e927bcc4d014be0f2863ab9df85fda610851b64dbd0ae5"
          ],
          "data": "0x0000000000000000000000000000000000000000000000000000000000000001",
          "blockHash": "0x21f132e06c72a6b4b241597fbb1d8080397a539b1d321a85aab2718416c5335a",
          "blockNumber": "0x7b76d4c",
          "transactionHash": "0x07729f6a208a54e4ccebaac46abb17279af3af996aa1bce897822ba301c031c1",
          "transactionIndex": "0x1",
          "logIndex": "0x0",
          "removed": false
        }
      ],
      "logsBloom": "0x00000008000000000000000000000000000000000001000000000000000000000000000000000000000000000000000000200000000000000000000000040000800000000000000000000000000000000000000000064000000000000000000000000000000000000000000000000000000000000000000100000000000000000000000000000000000000000040000000000000000000000000000000000000000000000000000000000000008000000000000000000000000000000000080000000000000400000000000001000000000000000000000000000000000040000000000000000000000000000000000000000000000000000000000000000000",
      "type": "0x2",
      "transactionHash": "0x07729f6a208a54e4ccebaac46abb17279af3af996aa1bce897822ba301c031c1",
      "transactionIndex": "0x1",
      "blockHash": "0x21f132e06c72a6b4b241597fbb1d8080397a539b1d321a85aab2718416c5335a",
      "blockNumber": "0x7b76d4c",
      "gasUsed": "0xd3f1",
      "effectiveGasPrice": "0x5f5e100",
      "from": "0xf2f1acbe0ba726fee8d75f3e32900526874740bb",
      "to": "0xd925c84b55e4e44a53749ff5f2a5a13f63d128fd",
      "contractAddress": null,
      "gasUsedForL1": "0x0",
      "l1BlockNumber": "0x7789ea",
      "timeboosted": false
    },
    {
      "status": "0x1",
      "cumulativeGasUsed": "0xd3f1",
      "logs": [
        {
          "address": "0xd925c84b55e4e44a53749ff5f2a5a13f63d128fd",
          "topics": [
            "0xeb8377c150d1438121333afa2027232605a400b1208ae6f9cfa156438e453f6d",
            "0x000000000000000000000000437cc33344a0b27a429f795ff6b469c72698b291",
            "0x0000000000000000000000000000000000000000000000000000000000000001",
            "0x0b86be66bfceb4c1d7e927bcc4d014be0f2863ab9df85fda610851b64dbd0ae5"
          ],
          "data": "0x0000000000000000000000000000000000000000000000000000000000000001",
          "blockHash": "0x02b2a2a05e4c9164ec423c961cc829df01c092103f75f41ba34fc001849fd233",
          "blockNumber": "0x7b76d50",
          "transactionHash": "0xa396e723be177ab5dc1367de4d54b1f21e2533270546b0d874d1f4f49b5b3c5d",
          "transactionIndex": "0x1",
          "logIndex": "0x0",
          "removed": false
        }
      ],
      "logsBloom": "0x00000008000002000000000000000000000000000001000000000000000000000000000000000000000000000000000000200000000000000000000000040000800000000000000000000000000000000000000000064000000000000000000000000000000000000000000000000000000000000000000000000000000000000000000000000000000000000000000000000000000000000000000000000000000000000000000000000000008000000000000000020000000000000000080000000000000000000000000001000000000000000000000000000000000040200000000000000000000000000000000000000000000000000000000000000000",
      "type": "0x2",
      "transactionHash": "0xa396e723be177ab5dc1367de4d54b1f21e2533270546b0d874d1f4f49b5b3c5d",
      "transactionIndex": "0x1",
      "blockHash": "0x02b2a2a05e4c9164ec423c961cc829df01c092103f75f41ba34fc001849fd233",
      "blockNumber": "0x7b76d50",
      "gasUsed": "0xd3f1",
      "effectiveGasPrice": "0x5f5e100",
      "from": "0xf2f1acbe0ba726fee8d75f3e32900526874740bb",
      "to": "0xd925c84b55e4e44a53749ff5f2a5a13f63d128fd",
      "contractAddress": null,
      "gasUsedForL1": "0x0",
      "l1BlockNumber": "0x7789ea",
      "timeboosted": false
    },
    {
      "status": "0x1",
      "cumulativeGasUsed": "0xcc74",
      "logs": [
        {
          "address": "0x0763196a091575adf99e2306e5e90e0be5154841",
          "topics": [
            "0x0fe301480713b2c2072ee91b3bcfcbf2c0014f0447c89046f020f0f80727003c"
          ],
          "data": "0x00000000000000000000000000000000000000000000000000000000000000010000000000000000000000000000000000000000000000000000000000000001",
          "blockHash": "0x96283a836e2a288d1a16970948983128aa6e01b25563c290b3b83428ca3023ec",
          "blockNumber": "0x7b76d56",
          "transactionHash": "0x1bc81e5f090919a232acefd2a95ebbe5457d926aead6153913e229ff03abc15f",
          "transactionIndex": "0x1",
          "logIndex": "0x0",
          "removed": false
        }
      ],
      "logsBloom": "0x00000000000000000000000000000000000000000000000000000000000000000000000000000000000000000000000000000000000000000000000000000000000000000000000000000000000000000000000000000000000000000001000000000000000000001000000000000000000000000000000000000000000000000000000000000000000000001000000000000000000000000000000000000000002002000000000000000000000000000000000000000000000000000000000000000000000000000000000000000000000000000000000000000000000000000000000000000000000000000000000000000000000000000000000400000000",
      "type": "0x2",
      "transactionHash": "0x1bc81e5f090919a232acefd2a95ebbe5457d926aead6153913e229ff03abc15f",
      "transactionIndex": "0x1",
      "blockHash": "0x96283a836e2a288d1a16970948983128aa6e01b25563c290b3b83428ca3023ec",
      "blockNumber": "0x7b76d56",
      "gasUsed": "0xcc74",
      "effectiveGasPrice": "0x5f5e100",
      "from": "0xf2f1acbe0ba726fee8d75f3e32900526874740bb",
      "to": "0x0763196a091575adf99e2306e5e90e0be5154841",
      "contractAddress": null,
      "gasUsedForL1": "0x0",
      "l1BlockNumber": "0x7789ea",
      "timeboosted": false
    },
    {
      "status": "0x1",
      "cumulativeGasUsed": "0x12f64",
      "logs": [
        {
          "address": "0x6b9c8671cddc8deab9c719bb87cbd3e782ba6a35",
          "topics": [
            "0x6eb224fb001ed210e379b335e35efe88672a8ce935d981a6896b27ffdf52a3b2",
            "0x0000000000000000000000000763196a091575adf99e2306e5e90e0be5154841"
          ],
          "data": "0x00000000000000000000000000000000000000000000000000000000000000030000000000000000000000000000000000000000000000000000000000000000000000000000000000000000000000000000000000000000000000000000008000000000000000000000000000000000000000000000000000000000000000c8000000000000000000000000000000000000000000000000000000000000002618fc67c200010b86ec181cd4c5c984e9062b13f2b2de7b9f5b5e68e84349231d6614cdf3f99f0000000000000000000000000000000000000000000000000000",
          "blockHash": "0x42ce4dc065419757b4354c8df7d083e655c9cd07adeb0de2aeb88f575b3a2a4b",
          "blockNumber": "0x7b76d5a",
          "transactionHash": "0x0386519b046507e1d839ff40779a1d00dffaffd233e544b5e10fa356a1597ca0",
          "transactionIndex": "0x1",
          "logIndex": "0x0",
          "removed": false
        },
        {
          "address": "0x0763196a091575adf99e2306e5e90e0be5154841",
          "topics": [
            "0xa559263ee060c7a2560843b3a064ff0376c9753ae3e2449b595a3b615d326466"
          ],
          "data": "0x00000000000000000000000000000000000000000000000000000000000000010b86ec181cd4c5c984e9062b13f2b2de7b9f5b5e68e84349231d6614cdf3f99f",
          "blockHash": "0x42ce4dc065419757b4354c8df7d083e655c9cd07adeb0de2aeb88f575b3a2a4b",
          "blockNumber": "0x7b76d5a",
          "transactionHash": "0x0386519b046507e1d839ff40779a1d00dffaffd233e544b5e10fa356a1597ca0",
          "transactionIndex": "0x1",
          "logIndex": "0x1",
          "removed": false
        }
      ],
      "logsBloom": "0x00000000000100000000000000000000000000000000000000000000000000000010000000000000000000000010000000000000000000000000000000000000000000000000000000000000000000000000000100000000000000000001000000000000000000001000000000000000000000000000000000000000000000000000000000000000000000000000000000000000000000000000000000000004002000000400000000000000000000000000004000000000000000008000000000000000000000000000000000000000000000000000000000000000000000000002000000000000210000000000000020000000000000000000000000000000",
      "type": "0x2",
      "transactionHash": "0x0386519b046507e1d839ff40779a1d00dffaffd233e544b5e10fa356a1597ca0",
      "transactionIndex": "0x1",
      "blockHash": "0x42ce4dc065419757b4354c8df7d083e655c9cd07adeb0de2aeb88f575b3a2a4b",
      "blockNumber": "0x7b76d5a",
      "gasUsed": "0x12f64",
      "effectiveGasPrice": "0x5f5e100",
      "from": "0xf2f1acbe0ba726fee8d75f3e32900526874740bb",
      "to": "0x0763196a091575adf99e2306e5e90e0be5154841",
      "contractAddress": null,
      "gasUsedForL1": "0x0",
      "l1BlockNumber": "0x7789ea",
      "timeboosted": false
    }
  ],
  "libraries": [],
  "pending": [],
  "returns": {},
  "timestamp": 1741131179,
  "chain": 421614,
  "commit": "d30de18"
}
