{
  "transactions": [
    {
      "hash": "0xc5ed403fb03de5c0584618f0e7d48c8f5de949d028fdf1f1354d694c4dcb6dd0",
      "transactionType": "CALL",
      "contractName": null,
      "contractAddress": "0xb1725758f7255b025cdbf2814bc428b403623562",
      "function": "setIsWormholeRelayingEnabled(uint16,bool)",
      "arguments": ["10002", "true"],
      "transaction": {
        "from": "0xc68d74f5a99a2c1f3e3625e1d69919e2b77ac7d2",
        "to": "0xb1725758f7255b025cdbf2814bc428b403623562",
        "gas": "0x29037",
        "value": "0x0",
        "input": "0x657b3b2f00000000000000000000000000000000000000000000000000000000000027120000000000000000000000000000000000000000000000000000000000000001",
        "nonce": "0x29",
        "chainId": "0x66eee"
      },
      "additionalContracts": [],
      "isFixedGasLimit": false
    },
    {
      "hash": "0xc8f9f29cb9a176b8ddb48e1268b3e28f8c59b2b473f4c5f21ad4714bcc91498d",
      "transactionType": "CALL",
      "contractName": null,
      "contractAddress": "0xb1725758f7255b025cdbf2814bc428b403623562",
      "function": "setWormholePeer(uint16,bytes32)",
      "arguments": [
        "10002",
        "0x000000000000000000000000b1725758f7255b025cdbf2814bc428b403623562"
      ],
      "transaction": {
        "from": "0xc68d74f5a99a2c1f3e3625e1d69919e2b77ac7d2",
        "to": "0xb1725758f7255b025cdbf2814bc428b403623562",
        "gas": "0x31046",
        "value": "0x0",
        "input": "0x7ab564030000000000000000000000000000000000000000000000000000000000002712000000000000000000000000b1725758f7255b025cdbf2814bc428b403623562",
        "nonce": "0x2a",
        "chainId": "0x66eee"
      },
      "additionalContracts": [],
      "isFixedGasLimit": false
    },
    {
      "hash": "0x1b9fa1e82fb8e21ff11c48fd2fd23fbd96f4fd07c6b73be7ccae8e7979240d48",
      "transactionType": "CALL",
      "contractName": null,
      "contractAddress": "0xb1725758f7255b025cdbf2814bc428b403623562",
      "function": "setIsWormholeEvmChain(uint16,bool)",
      "arguments": ["10002", "true"],
      "transaction": {
        "from": "0xc68d74f5a99a2c1f3e3625e1d69919e2b77ac7d2",
        "to": "0xb1725758f7255b025cdbf2814bc428b403623562",
        "gas": "0x291ac",
        "value": "0x0",
        "input": "0x96dddc6300000000000000000000000000000000000000000000000000000000000027120000000000000000000000000000000000000000000000000000000000000001",
        "nonce": "0x2b",
        "chainId": "0x66eee"
      },
      "additionalContracts": [],
      "isFixedGasLimit": false
    },
    {
      "hash": "0x91fb34363b0a3248ae78e35fc86dc5860e3376a2f66381cfb86b2e2c447b2bad",
      "transactionType": "CALL",
      "contractName": null,
      "contractAddress": "0xb1725758f7255b025cdbf2814bc428b403623562",
      "function": "setIsWormholeRelayingEnabled(uint16,bool)",
      "arguments": ["10005", "true"],
      "transaction": {
        "from": "0xc68d74f5a99a2c1f3e3625e1d69919e2b77ac7d2",
        "to": "0xb1725758f7255b025cdbf2814bc428b403623562",
        "gas": "0x29037",
        "value": "0x0",
        "input": "0x657b3b2f00000000000000000000000000000000000000000000000000000000000027150000000000000000000000000000000000000000000000000000000000000001",
        "nonce": "0x2c",
        "chainId": "0x66eee"
      },
      "additionalContracts": [],
      "isFixedGasLimit": false
    },
    {
      "hash": "0x4ae83550356781f7e3eb6c5e28fbe85f53f07fb187eb4a43ab3bd36f81f620f6",
      "transactionType": "CALL",
      "contractName": null,
      "contractAddress": "0xb1725758f7255b025cdbf2814bc428b403623562",
      "function": "setWormholePeer(uint16,bytes32)",
      "arguments": [
        "10005",
        "0x000000000000000000000000b1725758f7255b025cdbf2814bc428b403623562"
      ],
      "transaction": {
        "from": "0xc68d74f5a99a2c1f3e3625e1d69919e2b77ac7d2",
        "to": "0xb1725758f7255b025cdbf2814bc428b403623562",
        "gas": "0x31046",
        "value": "0x0",
        "input": "0x7ab564030000000000000000000000000000000000000000000000000000000000002715000000000000000000000000b1725758f7255b025cdbf2814bc428b403623562",
        "nonce": "0x2d",
        "chainId": "0x66eee"
      },
      "additionalContracts": [],
      "isFixedGasLimit": false
    },
    {
      "hash": "0x98bef8bee41a1258872c88e94205eb79b0981a8cb4874ffdebb661bc2dcbe025",
      "transactionType": "CALL",
      "contractName": null,
      "contractAddress": "0xb1725758f7255b025cdbf2814bc428b403623562",
      "function": "setIsWormholeEvmChain(uint16,bool)",
      "arguments": ["10005", "true"],
      "transaction": {
        "from": "0xc68d74f5a99a2c1f3e3625e1d69919e2b77ac7d2",
        "to": "0xb1725758f7255b025cdbf2814bc428b403623562",
        "gas": "0x291ac",
        "value": "0x0",
        "input": "0x96dddc6300000000000000000000000000000000000000000000000000000000000027150000000000000000000000000000000000000000000000000000000000000001",
        "nonce": "0x2e",
        "chainId": "0x66eee"
      },
      "additionalContracts": [],
      "isFixedGasLimit": false
    },
    {
      "hash": "0xef18b87cc97999059a7137357325eb81c401052190fbc5de4daa6b7a59fbb55e",
      "transactionType": "CALL",
      "contractName": null,
      "contractAddress": "0xf1669804140fa31cdaa805a1b3be91e6282d5e41",
      "function": "setPeer(uint16,bytes32,uint8,uint256)",
      "arguments": [
        "10002",
        "0x000000000000000000000000f1669804140fa31cdaa805a1b3be91e6282d5e41",
        "6",
        "0"
      ],
      "transaction": {
        "from": "0xc68d74f5a99a2c1f3e3625e1d69919e2b77ac7d2",
        "to": "0xf1669804140fa31cdaa805a1b3be91e6282d5e41",
        "gas": "0x37e9a",
        "value": "0x0",
        "input": "0x7c9186340000000000000000000000000000000000000000000000000000000000002712000000000000000000000000f1669804140fa31cdaa805a1b3be91e6282d5e4100000000000000000000000000000000000000000000000000000000000000060000000000000000000000000000000000000000000000000000000000000000",
        "nonce": "0x2f",
        "chainId": "0x66eee"
      },
      "additionalContracts": [],
      "isFixedGasLimit": false
    },
    {
      "hash": "0x86e6abfeea6c4759430d25b64138d509c29b4d777b1e59a5383a5aeb2b3e758f",
      "transactionType": "CALL",
      "contractName": null,
      "contractAddress": "0xf1669804140fa31cdaa805a1b3be91e6282d5e41",
      "function": "setDestinationMToken(uint16,bytes32)",
      "arguments": [
        "10002",
        "0x000000000000000000000000245902cab620e32df09da4a26094064e096dd480"
      ],
      "transaction": {
        "from": "0xc68d74f5a99a2c1f3e3625e1d69919e2b77ac7d2",
        "to": "0xf1669804140fa31cdaa805a1b3be91e6282d5e41",
        "gas": "0x292a5",
        "value": "0x0",
        "input": "0x76a4a5390000000000000000000000000000000000000000000000000000000000002712000000000000000000000000245902cab620e32df09da4a26094064e096dd480",
        "nonce": "0x30",
        "chainId": "0x66eee"
      },
      "additionalContracts": [],
      "isFixedGasLimit": false
    },
    {
      "hash": "0x50ccdb2e69867a8ba60cf147a789a19636840f7762d894452f29d92ceff7f25b",
      "transactionType": "CALL",
      "contractName": null,
      "contractAddress": "0xf1669804140fa31cdaa805a1b3be91e6282d5e41",
      "function": "setSupportedBridgingPath(address,uint16,bytes32,bool)",
      "arguments": [
        "0x58582438ab47FfA2206570AC93E85B42640bef09",
        "10002",
        "0x000000000000000000000000245902cab620e32df09da4a26094064e096dd480",
        "true"
      ],
      "transaction": {
        "from": "0xc68d74f5a99a2c1f3e3625e1d69919e2b77ac7d2",
        "to": "0xf1669804140fa31cdaa805a1b3be91e6282d5e41",
        "gas": "0x30e1e",
        "value": "0x0",
        "input": "0x1482cb4a00000000000000000000000058582438ab47ffa2206570ac93e85b42640bef090000000000000000000000000000000000000000000000000000000000002712000000000000000000000000245902cab620e32df09da4a26094064e096dd4800000000000000000000000000000000000000000000000000000000000000001",
        "nonce": "0x31",
        "chainId": "0x66eee"
      },
      "additionalContracts": [],
      "isFixedGasLimit": false
    },
    {
      "hash": "0xbe0444d7570b2b71f94a54c04793da32cab08b17019488150d790967abef6ad0",
      "transactionType": "CALL",
      "contractName": null,
      "contractAddress": "0xf1669804140fa31cdaa805a1b3be91e6282d5e41",
      "function": "setSupportedBridgingPath(address,uint16,bytes32,bool)",
      "arguments": [
        "0x71c72Ee9F587DAC1df749940c7581E4BbC789F85",
        "10002",
        "0x000000000000000000000000245902cab620e32df09da4a26094064e096dd480",
        "true"
      ],
      "transaction": {
        "from": "0xc68d74f5a99a2c1f3e3625e1d69919e2b77ac7d2",
        "to": "0xf1669804140fa31cdaa805a1b3be91e6282d5e41",
        "gas": "0x30e1e",
        "value": "0x0",
        "input": "0x1482cb4a00000000000000000000000071c72ee9f587dac1df749940c7581e4bbc789f850000000000000000000000000000000000000000000000000000000000002712000000000000000000000000245902cab620e32df09da4a26094064e096dd4800000000000000000000000000000000000000000000000000000000000000001",
        "nonce": "0x32",
        "chainId": "0x66eee"
      },
      "additionalContracts": [],
      "isFixedGasLimit": false
    },
    {
      "hash": "0x320c14fe498749afe9a0be22a97f38086ded29af87ed1b5ba6e824d986597481",
      "transactionType": "CALL",
      "contractName": null,
      "contractAddress": "0xf1669804140fa31cdaa805a1b3be91e6282d5e41",
      "function": "setSupportedBridgingPath(address,uint16,bytes32,bool)",
      "arguments": [
        "0x58582438ab47FfA2206570AC93E85B42640bef09",
        "10002",
        "0x000000000000000000000000e91a93a2b782781744a07118bab5855fb256b881",
        "true"
      ],
      "transaction": {
        "from": "0xc68d74f5a99a2c1f3e3625e1d69919e2b77ac7d2",
        "to": "0xf1669804140fa31cdaa805a1b3be91e6282d5e41",
        "gas": "0x30e1e",
        "value": "0x0",
        "input": "0x1482cb4a00000000000000000000000058582438ab47ffa2206570ac93e85b42640bef090000000000000000000000000000000000000000000000000000000000002712000000000000000000000000e91a93a2b782781744a07118bab5855fb256b8810000000000000000000000000000000000000000000000000000000000000001",
        "nonce": "0x33",
        "chainId": "0x66eee"
      },
      "additionalContracts": [],
      "isFixedGasLimit": false
    },
    {
      "hash": "0xf116f931eb36444332088c0145729e9554a1f2a7b225cfed7197ada9b776651d",
      "transactionType": "CALL",
      "contractName": null,
      "contractAddress": "0xf1669804140fa31cdaa805a1b3be91e6282d5e41",
      "function": "setSupportedBridgingPath(address,uint16,bytes32,bool)",
      "arguments": [
        "0x71c72Ee9F587DAC1df749940c7581E4BbC789F85",
        "10002",
        "0x000000000000000000000000e91a93a2b782781744a07118bab5855fb256b881",
        "true"
      ],
      "transaction": {
        "from": "0xc68d74f5a99a2c1f3e3625e1d69919e2b77ac7d2",
        "to": "0xf1669804140fa31cdaa805a1b3be91e6282d5e41",
        "gas": "0x30e1e",
        "value": "0x0",
        "input": "0x1482cb4a00000000000000000000000071c72ee9f587dac1df749940c7581e4bbc789f850000000000000000000000000000000000000000000000000000000000002712000000000000000000000000e91a93a2b782781744a07118bab5855fb256b8810000000000000000000000000000000000000000000000000000000000000001",
        "nonce": "0x34",
        "chainId": "0x66eee"
      },
      "additionalContracts": [],
      "isFixedGasLimit": false
    },
    {
      "hash": "0xee962550cfc1470744f79d69646550e88d33d20a9b2b8cb4b47c614c17ef30ce",
      "transactionType": "CALL",
      "contractName": null,
      "contractAddress": "0xf1669804140fa31cdaa805a1b3be91e6282d5e41",
      "function": "setPeer(uint16,bytes32,uint8,uint256)",
      "arguments": [
        "10005",
        "0x000000000000000000000000f1669804140fa31cdaa805a1b3be91e6282d5e41",
        "6",
        "0"
      ],
      "transaction": {
        "from": "0xc68d74f5a99a2c1f3e3625e1d69919e2b77ac7d2",
        "to": "0xf1669804140fa31cdaa805a1b3be91e6282d5e41",
        "gas": "0x3823e",
        "value": "0x0",
        "input": "0x7c9186340000000000000000000000000000000000000000000000000000000000002715000000000000000000000000f1669804140fa31cdaa805a1b3be91e6282d5e4100000000000000000000000000000000000000000000000000000000000000060000000000000000000000000000000000000000000000000000000000000000",
        "nonce": "0x35",
        "chainId": "0x66eee"
      },
      "additionalContracts": [],
      "isFixedGasLimit": false
    },
    {
      "hash": "0xd22aaab9e28bc4736eba9c186773bfb6c8e5a41676ac404c434ade94d29e9b76",
      "transactionType": "CALL",
      "contractName": null,
      "contractAddress": "0xf1669804140fa31cdaa805a1b3be91e6282d5e41",
      "function": "setDestinationMToken(uint16,bytes32)",
      "arguments": [
        "10005",
        "0x00000000000000000000000058582438ab47ffa2206570ac93e85b42640bef09"
      ],
      "transaction": {
        "from": "0xc68d74f5a99a2c1f3e3625e1d69919e2b77ac7d2",
        "to": "0xf1669804140fa31cdaa805a1b3be91e6282d5e41",
        "gas": "0x292a5",
        "value": "0x0",
        "input": "0x76a4a539000000000000000000000000000000000000000000000000000000000000271500000000000000000000000058582438ab47ffa2206570ac93e85b42640bef09",
        "nonce": "0x36",
        "chainId": "0x66eee"
      },
      "additionalContracts": [],
      "isFixedGasLimit": false
    },
    {
      "hash": "0xf65fd175ae61362544d0ee3dd264c689b9e607e7078b43a33a2190767905e2bf",
      "transactionType": "CALL",
      "contractName": null,
      "contractAddress": "0xf1669804140fa31cdaa805a1b3be91e6282d5e41",
      "function": "setSupportedBridgingPath(address,uint16,bytes32,bool)",
      "arguments": [
        "0x58582438ab47FfA2206570AC93E85B42640bef09",
        "10005",
        "0x00000000000000000000000058582438ab47ffa2206570ac93e85b42640bef09",
        "true"
      ],
      "transaction": {
        "from": "0xc68d74f5a99a2c1f3e3625e1d69919e2b77ac7d2",
        "to": "0xf1669804140fa31cdaa805a1b3be91e6282d5e41",
        "gas": "0x30e1e",
        "value": "0x0",
        "input": "0x1482cb4a00000000000000000000000058582438ab47ffa2206570ac93e85b42640bef09000000000000000000000000000000000000000000000000000000000000271500000000000000000000000058582438ab47ffa2206570ac93e85b42640bef090000000000000000000000000000000000000000000000000000000000000001",
        "nonce": "0x37",
        "chainId": "0x66eee"
      },
      "additionalContracts": [],
      "isFixedGasLimit": false
    },
    {
      "hash": "0xd4d571e5f73b549bac91887948ab540f82e9cd4f965a9168ee9f9c3ef3b49553",
      "transactionType": "CALL",
      "contractName": null,
      "contractAddress": "0xf1669804140fa31cdaa805a1b3be91e6282d5e41",
      "function": "setSupportedBridgingPath(address,uint16,bytes32,bool)",
      "arguments": [
        "0x71c72Ee9F587DAC1df749940c7581E4BbC789F85",
        "10005",
        "0x00000000000000000000000058582438ab47ffa2206570ac93e85b42640bef09",
        "true"
      ],
      "transaction": {
        "from": "0xc68d74f5a99a2c1f3e3625e1d69919e2b77ac7d2",
        "to": "0xf1669804140fa31cdaa805a1b3be91e6282d5e41",
        "gas": "0x30e1e",
        "value": "0x0",
        "input": "0x1482cb4a00000000000000000000000071c72ee9f587dac1df749940c7581e4bbc789f85000000000000000000000000000000000000000000000000000000000000271500000000000000000000000058582438ab47ffa2206570ac93e85b42640bef090000000000000000000000000000000000000000000000000000000000000001",
        "nonce": "0x38",
        "chainId": "0x66eee"
      },
      "additionalContracts": [],
      "isFixedGasLimit": false
    },
    {
      "hash": "0xa77868bcc215a5a7b727a2b22d426ee41f3b5c0e975a6cb31387d09f4f2bf1a3",
      "transactionType": "CALL",
      "contractName": null,
      "contractAddress": "0xf1669804140fa31cdaa805a1b3be91e6282d5e41",
      "function": "setSupportedBridgingPath(address,uint16,bytes32,bool)",
      "arguments": [
        "0x58582438ab47FfA2206570AC93E85B42640bef09",
        "10005",
        "0x00000000000000000000000071c72ee9f587dac1df749940c7581e4bbc789f85",
        "true"
      ],
      "transaction": {
        "from": "0xc68d74f5a99a2c1f3e3625e1d69919e2b77ac7d2",
        "to": "0xf1669804140fa31cdaa805a1b3be91e6282d5e41",
        "gas": "0x30e1e",
        "value": "0x0",
        "input": "0x1482cb4a00000000000000000000000058582438ab47ffa2206570ac93e85b42640bef09000000000000000000000000000000000000000000000000000000000000271500000000000000000000000071c72ee9f587dac1df749940c7581e4bbc789f850000000000000000000000000000000000000000000000000000000000000001",
        "nonce": "0x39",
        "chainId": "0x66eee"
      },
      "additionalContracts": [],
      "isFixedGasLimit": false
    },
    {
      "hash": "0x79bad283fc8007c8deed07d7b02eacddb5602fb53eafe24e1e8ae6c478b69006",
      "transactionType": "CALL",
      "contractName": null,
      "contractAddress": "0xf1669804140fa31cdaa805a1b3be91e6282d5e41",
      "function": "setSupportedBridgingPath(address,uint16,bytes32,bool)",
      "arguments": [
        "0x71c72Ee9F587DAC1df749940c7581E4BbC789F85",
        "10005",
        "0x00000000000000000000000071c72ee9f587dac1df749940c7581e4bbc789f85",
        "true"
      ],
      "transaction": {
        "from": "0xc68d74f5a99a2c1f3e3625e1d69919e2b77ac7d2",
        "to": "0xf1669804140fa31cdaa805a1b3be91e6282d5e41",
        "gas": "0x30e1e",
        "value": "0x0",
        "input": "0x1482cb4a00000000000000000000000071c72ee9f587dac1df749940c7581e4bbc789f85000000000000000000000000000000000000000000000000000000000000271500000000000000000000000071c72ee9f587dac1df749940c7581e4bbc789f850000000000000000000000000000000000000000000000000000000000000001",
        "nonce": "0x3a",
        "chainId": "0x66eee"
      },
      "additionalContracts": [],
      "isFixedGasLimit": false
    }
  ],
  "receipts": [
    {
      "status": "0x1",
      "cumulativeGasUsed": "0x1b26f",
      "logs": [
        {
          "address": "0xb1725758f7255b025cdbf2814bc428b403623562",
          "topics": [
            "0x528b18a533e892b5401d1fb63597275df9d2bb45b13e7695c3147cd07b9746c3"
          ],
          "data": "0x00000000000000000000000000000000000000000000000000000000000027120000000000000000000000000000000000000000000000000000000000000001",
          "blockHash": "0xa7a49c9640fc18ed826b0b5e8a1c9bf30f7fadbbb45e80f0dfcc303b385ff6b9",
          "blockNumber": "0x73aa4d4",
          "transactionHash": "0xc5ed403fb03de5c0584618f0e7d48c8f5de949d028fdf1f1354d694c4dcb6dd0",
          "transactionIndex": "0x1",
          "logIndex": "0x0",
          "removed": false
        }
      ],
      "logsBloom": "0x00000000000000000000000000000000000000000000000000000000000080000000000000400000000000000000000000000000001000000000000000000000000000000000000000000000800000000000000000000000000000000000000000000010000000000000000000000000000000000000000000000000000000000000000000000000000000000000000000000000000000000000000000000000000000000000000000000000000000000000000000000000000000000000000000000000000000000000000000000000000000000000000000000000000000000000000000000000200000000000000000000000000000000000000000000000",
      "type": "0x2",
      "transactionHash": "0xc5ed403fb03de5c0584618f0e7d48c8f5de949d028fdf1f1354d694c4dcb6dd0",
      "transactionIndex": "0x1",
      "blockHash": "0xa7a49c9640fc18ed826b0b5e8a1c9bf30f7fadbbb45e80f0dfcc303b385ff6b9",
      "blockNumber": "0x73aa4d4",
      "gasUsed": "0x1b26f",
      "effectiveGasPrice": "0x5f5e100",
      "from": "0xc68d74f5a99a2c1f3e3625e1d69919e2b77ac7d2",
      "to": "0xb1725758f7255b025cdbf2814bc428b403623562",
      "contractAddress": null,
      "gasUsedForL1": "0xe5ad",
      "l1BlockNumber": "0x74aa14"
    },
    {
      "status": "0x1",
      "cumulativeGasUsed": "0x2148d",
      "logs": [
        {
          "address": "0x6b9c8671cddc8deab9c719bb87cbd3e782ba6a35",
          "topics": [
            "0x6eb224fb001ed210e379b335e35efe88672a8ce935d981a6896b27ffdf52a3b2",
            "0x000000000000000000000000b1725758f7255b025cdbf2814bc428b403623562"
          ],
          "data": "0x00000000000000000000000000000000000000000000000000000000000000010000000000000000000000000000000000000000000000000000000000000000000000000000000000000000000000000000000000000000000000000000008000000000000000000000000000000000000000000000000000000000000000c8000000000000000000000000000000000000000000000000000000000000002618fc67c22712000000000000000000000000b1725758f7255b025cdbf2814bc428b4036235620000000000000000000000000000000000000000000000000000",
          "blockHash": "0x2b91ba65ad24529b2d463eeafa52eb671f42731b9584a6b7ef02de6797e5d88e",
          "blockNumber": "0x73aa4d6",
          "transactionHash": "0xc8f9f29cb9a176b8ddb48e1268b3e28f8c59b2b473f4c5f21ad4714bcc91498d",
          "transactionIndex": "0x1",
          "logIndex": "0x0",
          "removed": false
        },
        {
          "address": "0xb1725758f7255b025cdbf2814bc428b403623562",
          "topics": [
            "0xa559263ee060c7a2560843b3a064ff0376c9753ae3e2449b595a3b615d326466"
          ],
          "data": "0x0000000000000000000000000000000000000000000000000000000000002712000000000000000000000000b1725758f7255b025cdbf2814bc428b403623562",
          "blockHash": "0x2b91ba65ad24529b2d463eeafa52eb671f42731b9584a6b7ef02de6797e5d88e",
          "blockNumber": "0x73aa4d6",
          "transactionHash": "0xc8f9f29cb9a176b8ddb48e1268b3e28f8c59b2b473f4c5f21ad4714bcc91498d",
          "transactionIndex": "0x1",
          "logIndex": "0x1",
          "removed": false
        }
      ],
      "logsBloom": "0x00000000000100000000000000000000000000000000000000000000000000000014000000000000000000000010000000000000001000000000000000000000000000000000000000000000000000000000000100000000000000000000000000000010000000000000000000000000000000000000000000000000000000000000000000000400000000000000000000000000000000000000000000000004000000000400000000000000000000010000000000000000000000000000000000000000000000000000000000000000000000000000000000000000000000000002000000000000210000000000000020000000000000000000000000000000",
      "type": "0x2",
      "transactionHash": "0xc8f9f29cb9a176b8ddb48e1268b3e28f8c59b2b473f4c5f21ad4714bcc91498d",
      "transactionIndex": "0x1",
      "blockHash": "0x2b91ba65ad24529b2d463eeafa52eb671f42731b9584a6b7ef02de6797e5d88e",
      "blockNumber": "0x73aa4d6",
      "gasUsed": "0x2148d",
      "effectiveGasPrice": "0x5f5e100",
      "from": "0xc68d74f5a99a2c1f3e3625e1d69919e2b77ac7d2",
      "to": "0xb1725758f7255b025cdbf2814bc428b403623562",
      "contractAddress": null,
      "gasUsedForL1": "0xe5ad",
      "l1BlockNumber": "0x74aa14"
    },
    {
      "status": "0x1",
      "cumulativeGasUsed": "0x1b38d",
      "logs": [
        {
          "address": "0xb1725758f7255b025cdbf2814bc428b403623562",
          "topics": [
            "0x4add57d97a7bf5035340ea1212aeeb3d4d3887eb1faf3821a8224c3a6956a10c"
          ],
          "data": "0x00000000000000000000000000000000000000000000000000000000000027120000000000000000000000000000000000000000000000000000000000000001",
          "blockHash": "0xe19ac6c99195fe8532b10e892f1551342717f553fd5dfd70d0f7f7a06f95f586",
          "blockNumber": "0x73aa4d9",
          "transactionHash": "0x1b9fa1e82fb8e21ff11c48fd2fd23fbd96f4fd07c6b73be7ccae8e7979240d48",
          "transactionIndex": "0x1",
          "logIndex": "0x0",
          "removed": false
        }
      ],
      "logsBloom": "0x00000000000000080000000000000000000000000000000000000000000000000000000000000000000000000000000000000000001000000000000000000000000000000000000000000000000000000000000000000000000000000000000000000010000000000000000000000000000000000000000000000080000000000000000000000000000000000000000000000000000000000000000000000000000000000000000000000000000000000000000000000000000000000000000000000000000000000000000000000000000000000000000000000000000000000000000000000000200000000000000000000040000000000000000000000000",
      "type": "0x2",
      "transactionHash": "0x1b9fa1e82fb8e21ff11c48fd2fd23fbd96f4fd07c6b73be7ccae8e7979240d48",
      "transactionIndex": "0x1",
      "blockHash": "0xe19ac6c99195fe8532b10e892f1551342717f553fd5dfd70d0f7f7a06f95f586",
      "blockNumber": "0x73aa4d9",
      "gasUsed": "0x1b38d",
      "effectiveGasPrice": "0x5f5e100",
      "from": "0xc68d74f5a99a2c1f3e3625e1d69919e2b77ac7d2",
      "to": "0xb1725758f7255b025cdbf2814bc428b403623562",
      "contractAddress": null,
      "gasUsedForL1": "0xe5ad",
      "l1BlockNumber": "0x74aa14"
    },
    {
      "status": "0x1",
      "cumulativeGasUsed": "0x1b26f",
      "logs": [
        {
          "address": "0xb1725758f7255b025cdbf2814bc428b403623562",
          "topics": [
            "0x528b18a533e892b5401d1fb63597275df9d2bb45b13e7695c3147cd07b9746c3"
          ],
          "data": "0x00000000000000000000000000000000000000000000000000000000000027150000000000000000000000000000000000000000000000000000000000000001",
          "blockHash": "0x01c73b6d6bc8476d37fb99d7af6e9e0a2695990e974eb4d662131f5ebbe3ad78",
          "blockNumber": "0x73aa4da",
          "transactionHash": "0x91fb34363b0a3248ae78e35fc86dc5860e3376a2f66381cfb86b2e2c447b2bad",
          "transactionIndex": "0x1",
          "logIndex": "0x0",
          "removed": false
        }
      ],
      "logsBloom": "0x00000000000000000000000000000000000000000000000000000000000080000000000000400000000000000000000000000000001000000000000000000000000000000000000000000000800000000000000000000000000000000000000000000010000000000000000000000000000000000000000000000000000000000000000000000000000000000000000000000000000000000000000000000000000000000000000000000000000000000000000000000000000000000000000000000000000000000000000000000000000000000000000000000000000000000000000000000000200000000000000000000000000000000000000000000000",
      "type": "0x2",
      "transactionHash": "0x91fb34363b0a3248ae78e35fc86dc5860e3376a2f66381cfb86b2e2c447b2bad",
      "transactionIndex": "0x1",
      "blockHash": "0x01c73b6d6bc8476d37fb99d7af6e9e0a2695990e974eb4d662131f5ebbe3ad78",
      "blockNumber": "0x73aa4da",
      "gasUsed": "0x1b26f",
      "effectiveGasPrice": "0x5f5e100",
      "from": "0xc68d74f5a99a2c1f3e3625e1d69919e2b77ac7d2",
      "to": "0xb1725758f7255b025cdbf2814bc428b403623562",
      "contractAddress": null,
      "gasUsedForL1": "0xe5ad",
      "l1BlockNumber": "0x74aa14"
    },
    {
      "status": "0x1",
      "cumulativeGasUsed": "0x2148d",
      "logs": [
        {
          "address": "0x6b9c8671cddc8deab9c719bb87cbd3e782ba6a35",
          "topics": [
            "0x6eb224fb001ed210e379b335e35efe88672a8ce935d981a6896b27ffdf52a3b2",
            "0x000000000000000000000000b1725758f7255b025cdbf2814bc428b403623562"
          ],
          "data": "0x00000000000000000000000000000000000000000000000000000000000000020000000000000000000000000000000000000000000000000000000000000000000000000000000000000000000000000000000000000000000000000000008000000000000000000000000000000000000000000000000000000000000000c8000000000000000000000000000000000000000000000000000000000000002618fc67c22715000000000000000000000000b1725758f7255b025cdbf2814bc428b4036235620000000000000000000000000000000000000000000000000000",
          "blockHash": "0xe5bb3cee359c7454e0842128fa71c46e48f1ff9551838e94cbfbd086cc983c17",
          "blockNumber": "0x73aa4de",
          "transactionHash": "0x4ae83550356781f7e3eb6c5e28fbe85f53f07fb187eb4a43ab3bd36f81f620f6",
          "transactionIndex": "0x1",
          "logIndex": "0x0",
          "removed": false
        },
        {
          "address": "0xb1725758f7255b025cdbf2814bc428b403623562",
          "topics": [
            "0xa559263ee060c7a2560843b3a064ff0376c9753ae3e2449b595a3b615d326466"
          ],
          "data": "0x0000000000000000000000000000000000000000000000000000000000002715000000000000000000000000b1725758f7255b025cdbf2814bc428b403623562",
          "blockHash": "0xe5bb3cee359c7454e0842128fa71c46e48f1ff9551838e94cbfbd086cc983c17",
          "blockNumber": "0x73aa4de",
          "transactionHash": "0x4ae83550356781f7e3eb6c5e28fbe85f53f07fb187eb4a43ab3bd36f81f620f6",
          "transactionIndex": "0x1",
          "logIndex": "0x1",
          "removed": false
        }
      ],
      "logsBloom": "0x00000000000100000000000000000000000000000000000000000000000000000014000000000000000000000010000000000000001000000000000000000000000000000000000000000000000000000000000100000000000000000000000000000010000000000000000000000000000000000000000000000000000000000000000000000400000000000000000000000000000000000000000000000004000000000400000000000000000000010000000000000000000000000000000000000000000000000000000000000000000000000000000000000000000000000002000000000000210000000000000020000000000000000000000000000000",
      "type": "0x2",
      "transactionHash": "0x4ae83550356781f7e3eb6c5e28fbe85f53f07fb187eb4a43ab3bd36f81f620f6",
      "transactionIndex": "0x1",
      "blockHash": "0xe5bb3cee359c7454e0842128fa71c46e48f1ff9551838e94cbfbd086cc983c17",
      "blockNumber": "0x73aa4de",
      "gasUsed": "0x2148d",
      "effectiveGasPrice": "0x5f5e100",
      "from": "0xc68d74f5a99a2c1f3e3625e1d69919e2b77ac7d2",
      "to": "0xb1725758f7255b025cdbf2814bc428b403623562",
      "contractAddress": null,
      "gasUsedForL1": "0xe5ad",
      "l1BlockNumber": "0x74aa14"
    },
    {
      "status": "0x1",
      "cumulativeGasUsed": "0x1b38d",
      "logs": [
        {
          "address": "0xb1725758f7255b025cdbf2814bc428b403623562",
          "topics": [
            "0x4add57d97a7bf5035340ea1212aeeb3d4d3887eb1faf3821a8224c3a6956a10c"
          ],
          "data": "0x00000000000000000000000000000000000000000000000000000000000027150000000000000000000000000000000000000000000000000000000000000001",
          "blockHash": "0x24bd51060e1b774e72389ed12a4ad4dc0a55eff06ea9f954fd9d072156ea6d44",
          "blockNumber": "0x73aa4e1",
          "transactionHash": "0x98bef8bee41a1258872c88e94205eb79b0981a8cb4874ffdebb661bc2dcbe025",
          "transactionIndex": "0x1",
          "logIndex": "0x0",
          "removed": false
        }
      ],
      "logsBloom": "0x00000000000000080000000000000000000000000000000000000000000000000000000000000000000000000000000000000000001000000000000000000000000000000000000000000000000000000000000000000000000000000000000000000010000000000000000000000000000000000000000000000080000000000000000000000000000000000000000000000000000000000000000000000000000000000000000000000000000000000000000000000000000000000000000000000000000000000000000000000000000000000000000000000000000000000000000000000000200000000000000000000040000000000000000000000000",
      "type": "0x2",
      "transactionHash": "0x98bef8bee41a1258872c88e94205eb79b0981a8cb4874ffdebb661bc2dcbe025",
      "transactionIndex": "0x1",
      "blockHash": "0x24bd51060e1b774e72389ed12a4ad4dc0a55eff06ea9f954fd9d072156ea6d44",
      "blockNumber": "0x73aa4e1",
      "gasUsed": "0x1b38d",
      "effectiveGasPrice": "0x5f5e100",
      "from": "0xc68d74f5a99a2c1f3e3625e1d69919e2b77ac7d2",
      "to": "0xb1725758f7255b025cdbf2814bc428b403623562",
      "contractAddress": null,
      "gasUsedForL1": "0xe5ad",
      "l1BlockNumber": "0x74aa14"
    },
    {
      "status": "0x1",
      "cumulativeGasUsed": "0x480c1",
      "logs": [
        {
          "address": "0xf1669804140fa31cdaa805a1b3be91e6282d5e41",
          "topics": [
            "0x1456404e7f41f35c3daac941bb50bad417a66275c3040061b4287d787719599d",
            "0x0000000000000000000000000000000000000000000000000000000000002712"
          ],
          "data": "0x00000000000000000000000000000000000000000000000000000000000000000000000000000000000000000000000000000000000000000000000000000000000000000000000000000000f1669804140fa31cdaa805a1b3be91e6282d5e410000000000000000000000000000000000000000000000000000000000000006",
          "blockHash": "0xa8a219c1b0eaf8be61012c570cae1c785844dfe8021c57e7d4c383a8b4b0dc5a",
          "blockNumber": "0x73aa4e4",
          "transactionHash": "0xef18b87cc97999059a7137357325eb81c401052190fbc5de4daa6b7a59fbb55e",
          "transactionIndex": "0x2",
          "logIndex": "0x0",
          "removed": false
        }
      ],
      "logsBloom": "0x00000000000080000000000000000000000000000000000000000040000000000000000000000000002000000000000000000000000000000000000000000000000000000000000000000000000000000000000000000000000000000000000000002000000000000000000000000000000000000000000000000000000000000000000000000000000008000000000000000000000000000000000000000008000000000000000000000040000000000000000000000000000000000000000000400000000000000000000000000000000000000000000000000000000000000000000000000000000000000000000000000000000000000080000000000000",
      "type": "0x2",
      "transactionHash": "0xef18b87cc97999059a7137357325eb81c401052190fbc5de4daa6b7a59fbb55e",
      "transactionIndex": "0x2",
      "blockHash": "0xa8a219c1b0eaf8be61012c570cae1c785844dfe8021c57e7d4c383a8b4b0dc5a",
      "blockNumber": "0x73aa4e4",
      "gasUsed": "0x251e5",
      "effectiveGasPrice": "0x5f5e100",
      "from": "0xc68d74f5a99a2c1f3e3625e1d69919e2b77ac7d2",
      "to": "0xf1669804140fa31cdaa805a1b3be91e6282d5e41",
      "contractAddress": null,
      "gasUsedForL1": "0x11827",
      "l1BlockNumber": "0x74aa14"
    },
    {
      "status": "0x1",
      "cumulativeGasUsed": "0x1b44c",
      "logs": [
        {
          "address": "0xf1669804140fa31cdaa805a1b3be91e6282d5e41",
          "topics": [
            "0xe6658eeba76934cef78dc5f420ee40406e4876e8d3e767f7b700c63daf1bf0ba",
            "0x0000000000000000000000000000000000000000000000000000000000002712"
          ],
          "data": "0x000000000000000000000000245902cab620e32df09da4a26094064e096dd480",
          "blockHash": "0x5e6d0f8212feec7237b0412102e39da47d0aa17ed1c1f51098c3eecd3cc09900",
          "blockNumber": "0x73aa4e7",
          "transactionHash": "0x86e6abfeea6c4759430d25b64138d509c29b4d777b1e59a5383a5aeb2b3e758f",
          "transactionIndex": "0x1",
          "logIndex": "0x0",
          "removed": false
        }
      ],
      "logsBloom": "0x00000000000080000000000000000000000000000000000000000040000000000000000000000000000000000000000000000000000000000000000000000000000000000000000000000000002000000000000000000000000000000000000000000000000000000000000000000000000000000000000000000000000000000000000000000000000000000000000000000000000000000000000000000008000080000000000000000040000000000000000000000000000000000000000000400000000020000000000000000000000000000000000000000000000000000000000000000000000000000000000000000000000000000080000000000000",
      "type": "0x2",
      "transactionHash": "0x86e6abfeea6c4759430d25b64138d509c29b4d777b1e59a5383a5aeb2b3e758f",
      "transactionIndex": "0x1",
      "blockHash": "0x5e6d0f8212feec7237b0412102e39da47d0aa17ed1c1f51098c3eecd3cc09900",
      "blockNumber": "0x73aa4e7",
      "gasUsed": "0x1b44c",
      "effectiveGasPrice": "0x5f5e100",
      "from": "0xc68d74f5a99a2c1f3e3625e1d69919e2b77ac7d2",
      "to": "0xf1669804140fa31cdaa805a1b3be91e6282d5e41",
      "contractAddress": null,
      "gasUsedForL1": "0xe5ad",
      "l1BlockNumber": "0x74aa14"
    },
    {
      "status": "0x1",
      "cumulativeGasUsed": "0x209dd",
      "logs": [
        {
          "address": "0xf1669804140fa31cdaa805a1b3be91e6282d5e41",
          "topics": [
            "0xeb8377c150d1438121333afa2027232605a400b1208ae6f9cfa156438e453f6d",
            "0x00000000000000000000000058582438ab47ffa2206570ac93e85b42640bef09",
            "0x0000000000000000000000000000000000000000000000000000000000002712",
            "0x000000000000000000000000245902cab620e32df09da4a26094064e096dd480"
          ],
          "data": "0x0000000000000000000000000000000000000000000000000000000000000001",
          "blockHash": "0xc0ec270c0285f51a95968e662a55c069b889873d9bbe304ef57d8d2d676df351",
          "blockNumber": "0x73aa4e9",
          "transactionHash": "0x50ccdb2e69867a8ba60cf147a789a19636840f7762d894452f29d92ceff7f25b",
          "transactionIndex": "0x1",
          "logIndex": "0x0",
          "removed": false
        }
      ],
      "logsBloom": "0x00000008000080000000000000000000000000000000000000000040000000000000000000000008000000000000000000000000000000000000000000000000808000000000000000000000000004000000000000000000000000000000000000000000000010000000000000000000000000000000000000000000000000000000000000000000000000000000000000000000000000000000000000000008000000000000000000000040008000000000000200000000000000000000000000400000000000000000000000000000000000000000000000000000000000000000000000000000000000001000000000000000000000000080000000000000",
      "type": "0x2",
      "transactionHash": "0x50ccdb2e69867a8ba60cf147a789a19636840f7762d894452f29d92ceff7f25b",
      "transactionIndex": "0x1",
      "blockHash": "0xc0ec270c0285f51a95968e662a55c069b889873d9bbe304ef57d8d2d676df351",
      "blockNumber": "0x73aa4e9",
      "gasUsed": "0x209dd",
      "effectiveGasPrice": "0x5f5e100",
      "from": "0xc68d74f5a99a2c1f3e3625e1d69919e2b77ac7d2",
      "to": "0xf1669804140fa31cdaa805a1b3be91e6282d5e41",
      "contractAddress": null,
      "gasUsedForL1": "0x13670",
      "l1BlockNumber": "0x74aa14"
    },
    {
      "status": "0x1",
      "cumulativeGasUsed": "0x209dd",
      "logs": [
        {
          "address": "0xf1669804140fa31cdaa805a1b3be91e6282d5e41",
          "topics": [
            "0xeb8377c150d1438121333afa2027232605a400b1208ae6f9cfa156438e453f6d",
            "0x00000000000000000000000071c72ee9f587dac1df749940c7581e4bbc789f85",
            "0x0000000000000000000000000000000000000000000000000000000000002712",
            "0x000000000000000000000000245902cab620e32df09da4a26094064e096dd480"
          ],
          "data": "0x0000000000000000000000000000000000000000000000000000000000000001",
          "blockHash": "0x411daf5b2b18409d01ba34feb5c34b21dd7d24144eab23c408beecabc818c6eb",
          "blockNumber": "0x73aa4ea",
          "transactionHash": "0xbe0444d7570b2b71f94a54c04793da32cab08b17019488150d790967abef6ad0",
          "transactionIndex": "0x1",
          "logIndex": "0x0",
          "removed": false
        }
      ],
      "logsBloom": "0x00000008000080000000000000000000000000000000000000000040000000000000000000000008000000000000000000000000000000000000000000000000800000000000000000000000000000000000000000000000000000000000000000000000000010000000000000000000000000000000000000000000000000000000000001000000000000000000000000000000000000000000000000000008000000000000000000000040008000000000000000000000000010000000000000400000000000000000000000000000000000000000000000000000000000000000000000000000000000001000400000000000000000000080000000000000",
      "type": "0x2",
      "transactionHash": "0xbe0444d7570b2b71f94a54c04793da32cab08b17019488150d790967abef6ad0",
      "transactionIndex": "0x1",
      "blockHash": "0x411daf5b2b18409d01ba34feb5c34b21dd7d24144eab23c408beecabc818c6eb",
      "blockNumber": "0x73aa4ea",
      "gasUsed": "0x209dd",
      "effectiveGasPrice": "0x5f5e100",
      "from": "0xc68d74f5a99a2c1f3e3625e1d69919e2b77ac7d2",
      "to": "0xf1669804140fa31cdaa805a1b3be91e6282d5e41",
      "contractAddress": null,
      "gasUsedForL1": "0x13670",
      "l1BlockNumber": "0x74aa14"
    },
    {
      "status": "0x1",
      "cumulativeGasUsed": "0x209dd",
      "logs": [
        {
          "address": "0xf1669804140fa31cdaa805a1b3be91e6282d5e41",
          "topics": [
            "0xeb8377c150d1438121333afa2027232605a400b1208ae6f9cfa156438e453f6d",
            "0x00000000000000000000000058582438ab47ffa2206570ac93e85b42640bef09",
            "0x0000000000000000000000000000000000000000000000000000000000002712",
            "0x000000000000000000000000e91a93a2b782781744a07118bab5855fb256b881"
          ],
          "data": "0x0000000000000000000000000000000000000000000000000000000000000001",
          "blockHash": "0xc275392fd34b143692643370e8e83f5713b7684f7d6b4d7fb5e90e39360e1397",
          "blockNumber": "0x73aa4ed",
          "transactionHash": "0x320c14fe498749afe9a0be22a97f38086ded29af87ed1b5ba6e824d986597481",
          "transactionIndex": "0x1",
          "logIndex": "0x0",
          "removed": false
        }
      ],
      "logsBloom": "0x00000008000080000000000000000000000000000000000000000040000000000000000000200000000000000000000000000000000000000000000000000000808000000000000000000000000004000000000000100000000000000000000000000000000000000000000000000000000000000000000000000000000004000000000000000000000000000000000000000000000000000000000000000008000000000000000000000040008000000000000200000000000000000000000000400000000000000000000000000000000000000000000000000000000000000000000000000000000000000000000000000000000000000080000000000000",
      "type": "0x2",
      "transactionHash": "0x320c14fe498749afe9a0be22a97f38086ded29af87ed1b5ba6e824d986597481",
      "transactionIndex": "0x1",
      "blockHash": "0xc275392fd34b143692643370e8e83f5713b7684f7d6b4d7fb5e90e39360e1397",
      "blockNumber": "0x73aa4ed",
      "gasUsed": "0x209dd",
      "effectiveGasPrice": "0x5f5e100",
      "from": "0xc68d74f5a99a2c1f3e3625e1d69919e2b77ac7d2",
      "to": "0xf1669804140fa31cdaa805a1b3be91e6282d5e41",
      "contractAddress": null,
      "gasUsedForL1": "0x13670",
      "l1BlockNumber": "0x74aa16"
    },
    {
      "status": "0x1",
      "cumulativeGasUsed": "0x209dd",
      "logs": [
        {
          "address": "0xf1669804140fa31cdaa805a1b3be91e6282d5e41",
          "topics": [
            "0xeb8377c150d1438121333afa2027232605a400b1208ae6f9cfa156438e453f6d",
            "0x00000000000000000000000071c72ee9f587dac1df749940c7581e4bbc789f85",
            "0x0000000000000000000000000000000000000000000000000000000000002712",
            "0x000000000000000000000000e91a93a2b782781744a07118bab5855fb256b881"
          ],
          "data": "0x0000000000000000000000000000000000000000000000000000000000000001",
          "blockHash": "0x38c1519a606a2a4096eeed1ca5138ac5416e3c0dc02cae08f16b7171ecd39834",
          "blockNumber": "0x73aa4f0",
          "transactionHash": "0xf116f931eb36444332088c0145729e9554a1f2a7b225cfed7197ada9b776651d",
          "transactionIndex": "0x1",
          "logIndex": "0x0",
          "removed": false
        }
      ],
      "logsBloom": "0x00000008000080000000000000000000000000000000000000000040000000000000000000200000000000000000000000000000000000000000000000000000800000000000000000000000000000000000000000100000000000000000000000000000000000000000000000000000000000000000000000000000000004000000000001000000000000000000000000000000000000000000000000000008000000000000000000000040008000000000000000000000000010000000000000400000000000000000000000000000000000000000000000000000000000000000000000000000000000000000400000000000000000000080000000000000",
      "type": "0x2",
      "transactionHash": "0xf116f931eb36444332088c0145729e9554a1f2a7b225cfed7197ada9b776651d",
      "transactionIndex": "0x1",
      "blockHash": "0x38c1519a606a2a4096eeed1ca5138ac5416e3c0dc02cae08f16b7171ecd39834",
      "blockNumber": "0x73aa4f0",
      "gasUsed": "0x209dd",
      "effectiveGasPrice": "0x5f5e100",
      "from": "0xc68d74f5a99a2c1f3e3625e1d69919e2b77ac7d2",
      "to": "0xf1669804140fa31cdaa805a1b3be91e6282d5e41",
      "contractAddress": null,
      "gasUsedForL1": "0x13670",
      "l1BlockNumber": "0x74aa16"
    },
    {
      "status": "0x1",
      "cumulativeGasUsed": "0x25e84",
      "logs": [
        {
          "address": "0xf1669804140fa31cdaa805a1b3be91e6282d5e41",
          "topics": [
            "0x1456404e7f41f35c3daac941bb50bad417a66275c3040061b4287d787719599d",
            "0x0000000000000000000000000000000000000000000000000000000000002715"
          ],
          "data": "0x00000000000000000000000000000000000000000000000000000000000000000000000000000000000000000000000000000000000000000000000000000000000000000000000000000000f1669804140fa31cdaa805a1b3be91e6282d5e410000000000000000000000000000000000000000000000000000000000000006",
          "blockHash": "0xbf1e753bc35e2925f1271e8a45f39bcaf8b277f68e7cba6e3b441935aca4bd6b",
          "blockNumber": "0x73aa4f3",
          "transactionHash": "0xee962550cfc1470744f79d69646550e88d33d20a9b2b8cb4b47c614c17ef30ce",
          "transactionIndex": "0x1",
          "logIndex": "0x0",
          "removed": false
        }
      ],
      "logsBloom": "0x00000000000080000000000000000000000000000000000000000040010000000000800000000000002000000000000000000000000000000000000000000000000000000000000000000000000000000000000000000000000000000000000000002000000000000000000000000000000000000000000000000000000000000000000000000000000008000000000000000000000000000000000000000000000000000000000000000000000000000000000000000000000000000000000000000000000000000000000000000000000000000000000000000000000000000000000000000000000000000000008000000000000000000080000000000000",
      "type": "0x2",
      "transactionHash": "0xee962550cfc1470744f79d69646550e88d33d20a9b2b8cb4b47c614c17ef30ce",
      "transactionIndex": "0x1",
      "blockHash": "0xbf1e753bc35e2925f1271e8a45f39bcaf8b277f68e7cba6e3b441935aca4bd6b",
      "blockNumber": "0x73aa4f3",
      "gasUsed": "0x25e84",
      "effectiveGasPrice": "0x5f5e100",
      "from": "0xc68d74f5a99a2c1f3e3625e1d69919e2b77ac7d2",
      "to": "0xf1669804140fa31cdaa805a1b3be91e6282d5e41",
      "contractAddress": null,
      "gasUsedForL1": "0x124c6",
      "l1BlockNumber": "0x74aa16"
    },
    {
      "status": "0x1",
      "cumulativeGasUsed": "0x1b44c",
      "logs": [
        {
          "address": "0xf1669804140fa31cdaa805a1b3be91e6282d5e41",
          "topics": [
            "0xe6658eeba76934cef78dc5f420ee40406e4876e8d3e767f7b700c63daf1bf0ba",
            "0x0000000000000000000000000000000000000000000000000000000000002715"
          ],
          "data": "0x00000000000000000000000058582438ab47ffa2206570ac93e85b42640bef09",
          "blockHash": "0xad251b3069288813c7bf281421376b159e45b8c443d96685e3ff619265dc18c5",
          "blockNumber": "0x73aa4f5",
          "transactionHash": "0xd22aaab9e28bc4736eba9c186773bfb6c8e5a41676ac404c434ade94d29e9b76",
          "transactionIndex": "0x1",
          "logIndex": "0x0",
          "removed": false
        }
      ],
      "logsBloom": "0x00000000000080000000000000000000000000000000000000000040010000000000800000000000000000000000000000000000000000000000000000000000000000000000000000000000002000000000000000000000000000000000000000000000000000000000000000000000000000000000000000000000000000000000000000000000000000000000000000000000000000000000000000000000000080000000000000000000000000000000000000000000000000000000000000000000000020000000000000000000000000000000000000000000000000000000000000000000000000000000008000000000000000000080000000000000",
      "type": "0x2",
      "transactionHash": "0xd22aaab9e28bc4736eba9c186773bfb6c8e5a41676ac404c434ade94d29e9b76",
      "transactionIndex": "0x1",
      "blockHash": "0xad251b3069288813c7bf281421376b159e45b8c443d96685e3ff619265dc18c5",
      "blockNumber": "0x73aa4f5",
      "gasUsed": "0x1b44c",
      "effectiveGasPrice": "0x5f5e100",
      "from": "0xc68d74f5a99a2c1f3e3625e1d69919e2b77ac7d2",
      "to": "0xf1669804140fa31cdaa805a1b3be91e6282d5e41",
      "contractAddress": null,
      "gasUsedForL1": "0xe5ad",
      "l1BlockNumber": "0x74aa16"
    },
    {
      "status": "0x1",
      "cumulativeGasUsed": "0x209dd",
      "logs": [
        {
          "address": "0xf1669804140fa31cdaa805a1b3be91e6282d5e41",
          "topics": [
            "0xeb8377c150d1438121333afa2027232605a400b1208ae6f9cfa156438e453f6d",
            "0x00000000000000000000000058582438ab47ffa2206570ac93e85b42640bef09",
            "0x0000000000000000000000000000000000000000000000000000000000002715",
            "0x00000000000000000000000058582438ab47ffa2206570ac93e85b42640bef09"
          ],
          "data": "0x0000000000000000000000000000000000000000000000000000000000000001",
          "blockHash": "0x4a8ffe06da8fb1e288dbfcfe2ef8b02456a62eb4c1a0eb6a6df4f99bfa592de9",
          "blockNumber": "0x73aa4f9",
          "transactionHash": "0xf65fd175ae61362544d0ee3dd264c689b9e607e7078b43a33a2190767905e2bf",
          "transactionIndex": "0x1",
          "logIndex": "0x0",
          "removed": false
        }
      ],
      "logsBloom": "0x00000008000080000000000000000000000000000000000000000040010000000000800000000000000000000000000000000000000000000000000000000000808000000000000000000000000004000000000000000000000000000000000000000000000000000000000000000000000000000000000000000000000000000000000000000000000000000000000000000000000000000000000000000000000000000000000000000000008000000000000200000000000000000000000000000000000000000000000000000000000000000000000000000000000000000000000000000000000000000000008000000000000000000080000000000000",
      "type": "0x2",
      "transactionHash": "0xf65fd175ae61362544d0ee3dd264c689b9e607e7078b43a33a2190767905e2bf",
      "transactionIndex": "0x1",
      "blockHash": "0x4a8ffe06da8fb1e288dbfcfe2ef8b02456a62eb4c1a0eb6a6df4f99bfa592de9",
      "blockNumber": "0x73aa4f9",
      "gasUsed": "0x209dd",
      "effectiveGasPrice": "0x5f5e100",
      "from": "0xc68d74f5a99a2c1f3e3625e1d69919e2b77ac7d2",
      "to": "0xf1669804140fa31cdaa805a1b3be91e6282d5e41",
      "contractAddress": null,
      "gasUsedForL1": "0x13670",
      "l1BlockNumber": "0x74aa16"
    },
    {
      "status": "0x1",
      "cumulativeGasUsed": "0x209dd",
      "logs": [
        {
          "address": "0xf1669804140fa31cdaa805a1b3be91e6282d5e41",
          "topics": [
            "0xeb8377c150d1438121333afa2027232605a400b1208ae6f9cfa156438e453f6d",
            "0x00000000000000000000000071c72ee9f587dac1df749940c7581e4bbc789f85",
            "0x0000000000000000000000000000000000000000000000000000000000002715",
            "0x00000000000000000000000058582438ab47ffa2206570ac93e85b42640bef09"
          ],
          "data": "0x0000000000000000000000000000000000000000000000000000000000000001",
          "blockHash": "0xf891cffd4ae4ae5b0abab2ac7b4605839be6cea632bcd95148b30dfb31305dd9",
          "blockNumber": "0x73aa4fc",
          "transactionHash": "0xd4d571e5f73b549bac91887948ab540f82e9cd4f965a9168ee9f9c3ef3b49553",
          "transactionIndex": "0x1",
          "logIndex": "0x0",
          "removed": false
        }
      ],
      "logsBloom": "0x00000008000080000000000000000000000000000000000000000040010000000000800000000000000000000000000000000000000000000000000000000000808000000000000000000000000004000000000000000000000000000000000000000000000000000000000000000000000000000000000000000000000000000000000001000000000000000000000000000000000000000000000000000000000000000000000000000000008000000000000200000000000010000000000000000000000000000000000000000000000000000000000000000000000000000000000000000000000000000000408000000000000000000080000000000000",
      "type": "0x2",
      "transactionHash": "0xd4d571e5f73b549bac91887948ab540f82e9cd4f965a9168ee9f9c3ef3b49553",
      "transactionIndex": "0x1",
      "blockHash": "0xf891cffd4ae4ae5b0abab2ac7b4605839be6cea632bcd95148b30dfb31305dd9",
      "blockNumber": "0x73aa4fc",
      "gasUsed": "0x209dd",
      "effectiveGasPrice": "0x5f5e100",
      "from": "0xc68d74f5a99a2c1f3e3625e1d69919e2b77ac7d2",
      "to": "0xf1669804140fa31cdaa805a1b3be91e6282d5e41",
      "contractAddress": null,
      "gasUsedForL1": "0x13670",
      "l1BlockNumber": "0x74aa16"
    },
    {
      "status": "0x1",
      "cumulativeGasUsed": "0x209dd",
      "logs": [
        {
          "address": "0xf1669804140fa31cdaa805a1b3be91e6282d5e41",
          "topics": [
            "0xeb8377c150d1438121333afa2027232605a400b1208ae6f9cfa156438e453f6d",
            "0x00000000000000000000000058582438ab47ffa2206570ac93e85b42640bef09",
            "0x0000000000000000000000000000000000000000000000000000000000002715",
            "0x00000000000000000000000071c72ee9f587dac1df749940c7581e4bbc789f85"
          ],
          "data": "0x0000000000000000000000000000000000000000000000000000000000000001",
          "blockHash": "0x83afcd1635aa2cb0a57bf8ac3a3b47138e3385552e6171003f9c4d44b3c991cc",
          "blockNumber": "0x73aa4ff",
          "transactionHash": "0xa77868bcc215a5a7b727a2b22d426ee41f3b5c0e975a6cb31387d09f4f2bf1a3",
          "transactionIndex": "0x1",
          "logIndex": "0x0",
          "removed": false
        }
      ],
      "logsBloom": "0x00000008000080000000000000000000000000000000000000000040010000000000800000000000000000000000000000000000000000000000000000000000808000000000000000000000000004000000000000000000000000000000000000000000000000000000000000000000000000000000000000000000000000000000000001000000000000000000000000000000000000000000000000000000000000000000000000000000008000000000000200000000000010000000000000000000000000000000000000000000000000000000000000000000000000000000000000000000000000000000408000000000000000000080000000000000",
      "type": "0x2",
      "transactionHash": "0xa77868bcc215a5a7b727a2b22d426ee41f3b5c0e975a6cb31387d09f4f2bf1a3",
      "transactionIndex": "0x1",
      "blockHash": "0x83afcd1635aa2cb0a57bf8ac3a3b47138e3385552e6171003f9c4d44b3c991cc",
      "blockNumber": "0x73aa4ff",
      "gasUsed": "0x209dd",
      "effectiveGasPrice": "0x5f5e100",
      "from": "0xc68d74f5a99a2c1f3e3625e1d69919e2b77ac7d2",
      "to": "0xf1669804140fa31cdaa805a1b3be91e6282d5e41",
      "contractAddress": null,
      "gasUsedForL1": "0x13670",
      "l1BlockNumber": "0x74aa16"
    },
    {
      "status": "0x1",
      "cumulativeGasUsed": "0x4bed7",
      "logs": [
        {
          "address": "0xf1669804140fa31cdaa805a1b3be91e6282d5e41",
          "topics": [
            "0xeb8377c150d1438121333afa2027232605a400b1208ae6f9cfa156438e453f6d",
            "0x00000000000000000000000071c72ee9f587dac1df749940c7581e4bbc789f85",
            "0x0000000000000000000000000000000000000000000000000000000000002715",
            "0x00000000000000000000000071c72ee9f587dac1df749940c7581e4bbc789f85"
          ],
          "data": "0x0000000000000000000000000000000000000000000000000000000000000001",
          "blockHash": "0x424392efea728eff89aa3d145612439caa0ae4697514d6bf0ec13854cb29d16a",
          "blockNumber": "0x73aa502",
          "transactionHash": "0x79bad283fc8007c8deed07d7b02eacddb5602fb53eafe24e1e8ae6c478b69006",
          "transactionIndex": "0x2",
          "logIndex": "0x3",
          "removed": false
        }
      ],
      "logsBloom": "0x00000008000080000000000000000000000000000000000000000040010000000000800000000000000000000000000000000000000000000000000000000000800000000000000000000000000000000000000000000000000000000000000000000000000000000000000000000000000000000000000000000000000000000000000001000000000000000000000000000000000000000000000000000000000000000000000000000000008000000000000000000000000010000000000000000000000000000000000000000000000000000000000000000000000000000000000000000000000000000000408000000000000000000080000000000000",
      "type": "0x2",
      "transactionHash": "0x79bad283fc8007c8deed07d7b02eacddb5602fb53eafe24e1e8ae6c478b69006",
      "transactionIndex": "0x2",
      "blockHash": "0x424392efea728eff89aa3d145612439caa0ae4697514d6bf0ec13854cb29d16a",
      "blockNumber": "0x73aa502",
      "gasUsed": "0x209dd",
      "effectiveGasPrice": "0x5f5e100",
      "from": "0xc68d74f5a99a2c1f3e3625e1d69919e2b77ac7d2",
      "to": "0xf1669804140fa31cdaa805a1b3be91e6282d5e41",
      "contractAddress": null,
      "gasUsedForL1": "0x13670",
      "l1BlockNumber": "0x74aa16"
    }
  ],
  "libraries": [],
  "pending": [],
  "returns": {},
  "timestamp": 1738769144,
  "chain": 421614,
  "commit": "422d087"
}
