{
  "transactions": [
    {
      "hash": "0xe247c0f683476a0faf0c846fda2650ca856469b0a2a312d9d68ae5fb5754417a",
      "transactionType": "CALL",
      "contractName": null,
      "contractAddress": "0xd925c84b55e4e44a53749ff5f2a5a13f63d128fd",
      "function": "setPeer(uint16,bytes32,uint8,uint256)",
      "arguments": [
        "2",
        "0x000000000000000000000000d925c84b55e4e44a53749ff5f2a5a13f63d128fd",
        "6",
        "0"
      ],
      "transaction": {
        "from": "0xf2f1acbe0ba726fee8d75f3e32900526874740bb",
        "to": "0xd925c84b55e4e44a53749ff5f2a5a13f63d128fd",
        "gas": "0x1cb2d",
        "value": "0x0",
        "input": "0x7c9186340000000000000000000000000000000000000000000000000000000000000002000000000000000000000000d925c84b55e4e44a53749ff5f2a5a13f63d128fd00000000000000000000000000000000000000000000000000000000000000060000000000000000000000000000000000000000000000000000000000000000",
        "nonce": "0x2d",
        "chainId": "0x2105"
      },
      "additionalContracts": [],
      "isFixedGasLimit": false
    },
    {
      "hash": "0x92a1697004f4c8fdddfd0510e656d36171ddda8e02f06bc85c28c03b9522a5f5",
      "transactionType": "CALL",
      "contractName": null,
      "contractAddress": "0xd925c84b55e4e44a53749ff5f2a5a13f63d128fd",
      "function": "setDestinationMToken(uint16,bytes32)",
      "arguments": [
        "2",
        "0x000000000000000000000000866a2bf4e572cbcf37d5071a7a58503bfb36be1b"
      ],
      "transaction": {
        "from": "0xf2f1acbe0ba726fee8d75f3e32900526874740bb",
        "to": "0xd925c84b55e4e44a53749ff5f2a5a13f63d128fd",
        "gas": "0x12dcb",
        "value": "0x0",
        "input": "0x76a4a5390000000000000000000000000000000000000000000000000000000000000002000000000000000000000000866a2bf4e572cbcf37d5071a7a58503bfb36be1b",
        "nonce": "0x2e",
        "chainId": "0x2105"
      },
      "additionalContracts": [],
      "isFixedGasLimit": false
    },
    {
      "hash": "0x9f357c562b027ca0d123ef6368a5c5cc563012a2bb7b2c677372a7372bef4265",
      "transactionType": "CALL",
      "contractName": null,
      "contractAddress": "0xd925c84b55e4e44a53749ff5f2a5a13f63d128fd",
      "function": "setSupportedBridgingPath(address,uint16,bytes32,bool)",
      "arguments": [
        "0x866A2BF4E572CbcF37D5071A7a58503Bfb36be1b",
        "2",
        "0x000000000000000000000000866a2bf4e572cbcf37d5071a7a58503bfb36be1b",
        "true"
      ],
      "transaction": {
        "from": "0xf2f1acbe0ba726fee8d75f3e32900526874740bb",
        "to": "0xd925c84b55e4e44a53749ff5f2a5a13f63d128fd",
        "gas": "0x123e6",
        "value": "0x0",
        "input": "0x1482cb4a000000000000000000000000866a2bf4e572cbcf37d5071a7a58503bfb36be1b0000000000000000000000000000000000000000000000000000000000000002000000000000000000000000866a2bf4e572cbcf37d5071a7a58503bfb36be1b0000000000000000000000000000000000000000000000000000000000000001",
        "nonce": "0x2f",
        "chainId": "0x2105"
      },
      "additionalContracts": [],
      "isFixedGasLimit": false
    },
    {
      "hash": "0x79c3cc9454b94c6126d6337ee3aa322e22ef1ac88bc5d1239e298c0167cb622b",
      "transactionType": "CALL",
      "contractName": null,
      "contractAddress": "0xd925c84b55e4e44a53749ff5f2a5a13f63d128fd",
      "function": "setSupportedBridgingPath(address,uint16,bytes32,bool)",
      "arguments": [
        "0x866A2BF4E572CbcF37D5071A7a58503Bfb36be1b",
        "2",
        "0x000000000000000000000000437cc33344a0b27a429f795ff6b469c72698b291",
        "true"
      ],
      "transaction": {
        "from": "0xf2f1acbe0ba726fee8d75f3e32900526874740bb",
        "to": "0xd925c84b55e4e44a53749ff5f2a5a13f63d128fd",
        "gas": "0x123e6",
        "value": "0x0",
        "input": "0x1482cb4a000000000000000000000000866a2bf4e572cbcf37d5071a7a58503bfb36be1b0000000000000000000000000000000000000000000000000000000000000002000000000000000000000000437cc33344a0b27a429f795ff6b469c72698b2910000000000000000000000000000000000000000000000000000000000000001",
        "nonce": "0x30",
        "chainId": "0x2105"
      },
      "additionalContracts": [],
      "isFixedGasLimit": false
    },
    {
      "hash": "0x22d685c7a74b3c3b86f4d78f42c19bfa13c450af947ba51a639024d6e3169374",
      "transactionType": "CALL",
      "contractName": null,
      "contractAddress": "0xd925c84b55e4e44a53749ff5f2a5a13f63d128fd",
      "function": "setSupportedBridgingPath(address,uint16,bytes32,bool)",
      "arguments": [
        "0x437cc33344a0B27A429f795ff6B469C72698B291",
        "2",
        "0x000000000000000000000000866a2bf4e572cbcf37d5071a7a58503bfb36be1b",
        "true"
      ],
      "transaction": {
        "from": "0xf2f1acbe0ba726fee8d75f3e32900526874740bb",
        "to": "0xd925c84b55e4e44a53749ff5f2a5a13f63d128fd",
        "gas": "0x123e6",
        "value": "0x0",
        "input": "0x1482cb4a000000000000000000000000437cc33344a0b27a429f795ff6b469c72698b2910000000000000000000000000000000000000000000000000000000000000002000000000000000000000000866a2bf4e572cbcf37d5071a7a58503bfb36be1b0000000000000000000000000000000000000000000000000000000000000001",
        "nonce": "0x31",
        "chainId": "0x2105"
      },
      "additionalContracts": [],
      "isFixedGasLimit": false
    },
    {
      "hash": "0x6593a4e9a1d3ef47b7ed96ccc30fce02a7767e8596d78b3dfb0e4bece71eb36d",
      "transactionType": "CALL",
      "contractName": null,
      "contractAddress": "0xd925c84b55e4e44a53749ff5f2a5a13f63d128fd",
      "function": "setSupportedBridgingPath(address,uint16,bytes32,bool)",
      "arguments": [
        "0x437cc33344a0B27A429f795ff6B469C72698B291",
        "2",
        "0x000000000000000000000000437cc33344a0b27a429f795ff6b469c72698b291",
        "true"
      ],
      "transaction": {
        "from": "0xf2f1acbe0ba726fee8d75f3e32900526874740bb",
        "to": "0xd925c84b55e4e44a53749ff5f2a5a13f63d128fd",
        "gas": "0x123e6",
        "value": "0x0",
        "input": "0x1482cb4a000000000000000000000000437cc33344a0b27a429f795ff6b469c72698b2910000000000000000000000000000000000000000000000000000000000000002000000000000000000000000437cc33344a0b27a429f795ff6b469c72698b2910000000000000000000000000000000000000000000000000000000000000001",
        "nonce": "0x32",
        "chainId": "0x2105"
      },
      "additionalContracts": [],
      "isFixedGasLimit": false
    },
    {
      "hash": "0x364a5d46e62edcc37a08411ecb070f47190a33459172360fc8279d8ccaf5c4f0",
      "transactionType": "CALL",
      "contractName": "ERC1967Proxy",
      "contractAddress": "0x0763196a091575adf99e2306e5e90e0be5154841",
      "function": null,
      "arguments": null,
      "transaction": {
        "from": "0xf2f1acbe0ba726fee8d75f3e32900526874740bb",
        "to": "0x0763196a091575adf99e2306e5e90e0be5154841",
        "gas": "0x11ac1",
        "value": "0x0",
        "input": "0x657b3b2f00000000000000000000000000000000000000000000000000000000000000020000000000000000000000000000000000000000000000000000000000000001",
        "nonce": "0x33",
        "chainId": "0x2105"
      },
      "additionalContracts": [],
      "isFixedGasLimit": false
    },
    {
      "hash": "0x3fbc87c530f325151aeef736b3b3a3620791979c5ea90b7369c69de78f9de1e9",
      "transactionType": "CALL",
      "contractName": "ERC1967Proxy",
      "contractAddress": "0x0763196a091575adf99e2306e5e90e0be5154841",
      "function": null,
      "arguments": null,
      "transaction": {
        "from": "0xf2f1acbe0ba726fee8d75f3e32900526874740bb",
        "to": "0x0763196a091575adf99e2306e5e90e0be5154841",
        "gas": "0x1a236",
        "value": "0x0",
        "input": "0x7ab5640300000000000000000000000000000000000000000000000000000000000000020000000000000000000000000763196a091575adf99e2306e5e90e0be5154841",
        "nonce": "0x34",
        "chainId": "0x2105"
      },
      "additionalContracts": [],
      "isFixedGasLimit": false
    },
    {
      "hash": "0x5d2d5e3b0a15be819558e8c43a540f01621196df6ed5bcad5932797136486340",
      "transactionType": "CALL",
      "contractName": "ERC1967Proxy",
      "contractAddress": "0x0763196a091575adf99e2306e5e90e0be5154841",
      "function": null,
      "arguments": null,
      "transaction": {
        "from": "0xf2f1acbe0ba726fee8d75f3e32900526874740bb",
        "to": "0x0763196a091575adf99e2306e5e90e0be5154841",
        "gas": "0x11c4c",
        "value": "0x0",
        "input": "0x96dddc6300000000000000000000000000000000000000000000000000000000000000020000000000000000000000000000000000000000000000000000000000000001",
        "nonce": "0x35",
        "chainId": "0x2105"
      },
      "additionalContracts": [],
      "isFixedGasLimit": false
    },
    {
      "hash": "0x69e0aff28d220ad61e586c93ede89900dce311fefc0094e488d4d105d62dd9a3",
      "transactionType": "CALL",
      "contractName": null,
      "contractAddress": "0xd925c84b55e4e44a53749ff5f2a5a13f63d128fd",
      "function": "setPeer(uint16,bytes32,uint8,uint256)",
      "arguments": [
        "23",
        "0x000000000000000000000000d925c84b55e4e44a53749ff5f2a5a13f63d128fd",
        "6",
        "0"
      ],
      "transaction": {
        "from": "0xf2f1acbe0ba726fee8d75f3e32900526874740bb",
        "to": "0xd925c84b55e4e44a53749ff5f2a5a13f63d128fd",
        "gas": "0x1cb2d",
        "value": "0x0",
        "input": "0x7c9186340000000000000000000000000000000000000000000000000000000000000017000000000000000000000000d925c84b55e4e44a53749ff5f2a5a13f63d128fd00000000000000000000000000000000000000000000000000000000000000060000000000000000000000000000000000000000000000000000000000000000",
        "nonce": "0x36",
        "chainId": "0x2105"
      },
      "additionalContracts": [],
      "isFixedGasLimit": false
    },
    {
      "hash": "0xb0cbae83d669d5a585b100fed5a389ef07bf8115207f63b1e429819c314eab03",
      "transactionType": "CALL",
      "contractName": null,
      "contractAddress": "0xd925c84b55e4e44a53749ff5f2a5a13f63d128fd",
      "function": "setDestinationMToken(uint16,bytes32)",
      "arguments": [
        "23",
        "0x000000000000000000000000866a2bf4e572cbcf37d5071a7a58503bfb36be1b"
      ],
      "transaction": {
        "from": "0xf2f1acbe0ba726fee8d75f3e32900526874740bb",
        "to": "0xd925c84b55e4e44a53749ff5f2a5a13f63d128fd",
        "gas": "0x12dcb",
        "value": "0x0",
        "input": "0x76a4a5390000000000000000000000000000000000000000000000000000000000000017000000000000000000000000866a2bf4e572cbcf37d5071a7a58503bfb36be1b",
        "nonce": "0x37",
        "chainId": "0x2105"
      },
      "additionalContracts": [],
      "isFixedGasLimit": false
    },
    {
      "hash": "0xd34ef0b6e0b12bc4d65107550aca490e9417a5db9d1a7e256cfeb3a155643435",
      "transactionType": "CALL",
      "contractName": null,
      "contractAddress": "0xd925c84b55e4e44a53749ff5f2a5a13f63d128fd",
      "function": "setSupportedBridgingPath(address,uint16,bytes32,bool)",
      "arguments": [
        "0x866A2BF4E572CbcF37D5071A7a58503Bfb36be1b",
        "23",
        "0x000000000000000000000000866a2bf4e572cbcf37d5071a7a58503bfb36be1b",
        "true"
      ],
      "transaction": {
        "from": "0xf2f1acbe0ba726fee8d75f3e32900526874740bb",
        "to": "0xd925c84b55e4e44a53749ff5f2a5a13f63d128fd",
        "gas": "0x123e6",
        "value": "0x0",
        "input": "0x1482cb4a000000000000000000000000866a2bf4e572cbcf37d5071a7a58503bfb36be1b0000000000000000000000000000000000000000000000000000000000000017000000000000000000000000866a2bf4e572cbcf37d5071a7a58503bfb36be1b0000000000000000000000000000000000000000000000000000000000000001",
        "nonce": "0x38",
        "chainId": "0x2105"
      },
      "additionalContracts": [],
      "isFixedGasLimit": false
    },
    {
      "hash": "0x780896c7071d3469503cd532e979c046e74dc4f67b792fea8d25d8d74f183c40",
      "transactionType": "CALL",
      "contractName": null,
      "contractAddress": "0xd925c84b55e4e44a53749ff5f2a5a13f63d128fd",
      "function": "setSupportedBridgingPath(address,uint16,bytes32,bool)",
      "arguments": [
        "0x866A2BF4E572CbcF37D5071A7a58503Bfb36be1b",
        "23",
        "0x000000000000000000000000437cc33344a0b27a429f795ff6b469c72698b291",
        "true"
      ],
      "transaction": {
        "from": "0xf2f1acbe0ba726fee8d75f3e32900526874740bb",
        "to": "0xd925c84b55e4e44a53749ff5f2a5a13f63d128fd",
        "gas": "0x123e6",
        "value": "0x0",
        "input": "0x1482cb4a000000000000000000000000866a2bf4e572cbcf37d5071a7a58503bfb36be1b0000000000000000000000000000000000000000000000000000000000000017000000000000000000000000437cc33344a0b27a429f795ff6b469c72698b2910000000000000000000000000000000000000000000000000000000000000001",
        "nonce": "0x39",
        "chainId": "0x2105"
      },
      "additionalContracts": [],
      "isFixedGasLimit": false
    },
    {
      "hash": "0xd96798b281a96e98add7401898fe7ae348c754c30273187cdc7d0b372d9da128",
      "transactionType": "CALL",
      "contractName": null,
      "contractAddress": "0xd925c84b55e4e44a53749ff5f2a5a13f63d128fd",
      "function": "setSupportedBridgingPath(address,uint16,bytes32,bool)",
      "arguments": [
        "0x437cc33344a0B27A429f795ff6B469C72698B291",
        "23",
        "0x000000000000000000000000866a2bf4e572cbcf37d5071a7a58503bfb36be1b",
        "true"
      ],
      "transaction": {
        "from": "0xf2f1acbe0ba726fee8d75f3e32900526874740bb",
        "to": "0xd925c84b55e4e44a53749ff5f2a5a13f63d128fd",
        "gas": "0x123e6",
        "value": "0x0",
        "input": "0x1482cb4a000000000000000000000000437cc33344a0b27a429f795ff6b469c72698b2910000000000000000000000000000000000000000000000000000000000000017000000000000000000000000866a2bf4e572cbcf37d5071a7a58503bfb36be1b0000000000000000000000000000000000000000000000000000000000000001",
        "nonce": "0x3a",
        "chainId": "0x2105"
      },
      "additionalContracts": [],
      "isFixedGasLimit": false
    },
    {
      "hash": "0x066985d7a86bb20fd087d706ff2ecd033f0e504d7cc9a2f5600968e128183804",
      "transactionType": "CALL",
      "contractName": null,
      "contractAddress": "0xd925c84b55e4e44a53749ff5f2a5a13f63d128fd",
      "function": "setSupportedBridgingPath(address,uint16,bytes32,bool)",
      "arguments": [
        "0x437cc33344a0B27A429f795ff6B469C72698B291",
        "23",
        "0x000000000000000000000000437cc33344a0b27a429f795ff6b469c72698b291",
        "true"
      ],
      "transaction": {
        "from": "0xf2f1acbe0ba726fee8d75f3e32900526874740bb",
        "to": "0xd925c84b55e4e44a53749ff5f2a5a13f63d128fd",
        "gas": "0x123e6",
        "value": "0x0",
        "input": "0x1482cb4a000000000000000000000000437cc33344a0b27a429f795ff6b469c72698b2910000000000000000000000000000000000000000000000000000000000000017000000000000000000000000437cc33344a0b27a429f795ff6b469c72698b2910000000000000000000000000000000000000000000000000000000000000001",
        "nonce": "0x3b",
        "chainId": "0x2105"
      },
      "additionalContracts": [],
      "isFixedGasLimit": false
    },
    {
      "hash": "0xf44fdc1dd4279b7e33698acffc3207b0b36a8339a2d53a3c692d9ca2b2472b86",
      "transactionType": "CALL",
      "contractName": "ERC1967Proxy",
      "contractAddress": "0x0763196a091575adf99e2306e5e90e0be5154841",
      "function": null,
      "arguments": null,
      "transaction": {
        "from": "0xf2f1acbe0ba726fee8d75f3e32900526874740bb",
        "to": "0x0763196a091575adf99e2306e5e90e0be5154841",
        "gas": "0x11ac1",
        "value": "0x0",
        "input": "0x657b3b2f00000000000000000000000000000000000000000000000000000000000000170000000000000000000000000000000000000000000000000000000000000001",
        "nonce": "0x3c",
        "chainId": "0x2105"
      },
      "additionalContracts": [],
      "isFixedGasLimit": false
    },
    {
      "hash": "0xfe98a20e32a1688618f544d677a21233ce81d03240dc8fe76b818483ece29ec5",
      "transactionType": "CALL",
      "contractName": "ERC1967Proxy",
      "contractAddress": "0x0763196a091575adf99e2306e5e90e0be5154841",
      "function": null,
      "arguments": null,
      "transaction": {
        "from": "0xf2f1acbe0ba726fee8d75f3e32900526874740bb",
        "to": "0x0763196a091575adf99e2306e5e90e0be5154841",
        "gas": "0x1a236",
        "value": "0x0",
        "input": "0x7ab5640300000000000000000000000000000000000000000000000000000000000000170000000000000000000000000763196a091575adf99e2306e5e90e0be5154841",
        "nonce": "0x3d",
        "chainId": "0x2105"
      },
      "additionalContracts": [],
      "isFixedGasLimit": false
    },
    {
      "hash": "0xf5bc846fbd3209737406efe3b3b1f8d3c7a31148d1c7011c63c4e8e351e99810",
      "transactionType": "CALL",
      "contractName": "ERC1967Proxy",
      "contractAddress": "0x0763196a091575adf99e2306e5e90e0be5154841",
      "function": null,
      "arguments": null,
      "transaction": {
        "from": "0xf2f1acbe0ba726fee8d75f3e32900526874740bb",
        "to": "0x0763196a091575adf99e2306e5e90e0be5154841",
        "gas": "0x11c4c",
        "value": "0x0",
        "input": "0x96dddc6300000000000000000000000000000000000000000000000000000000000000170000000000000000000000000000000000000000000000000000000000000001",
        "nonce": "0x3e",
        "chainId": "0x2105"
      },
      "additionalContracts": [],
      "isFixedGasLimit": false
    },
    {
      "hash": "0x40ec79b0aaade51b5d039fccd0371998e348cc35bf40e24e8cd4ad8c9d4643d4",
      "transactionType": "CALL",
      "contractName": null,
      "contractAddress": "0xd925c84b55e4e44a53749ff5f2a5a13f63d128fd",
      "function": "setPeer(uint16,bytes32,uint8,uint256)",
      "arguments": [
        "24",
        "0x000000000000000000000000d925c84b55e4e44a53749ff5f2a5a13f63d128fd",
        "6",
        "0"
      ],
      "transaction": {
        "from": "0xf2f1acbe0ba726fee8d75f3e32900526874740bb",
        "to": "0xd925c84b55e4e44a53749ff5f2a5a13f63d128fd",
        "gas": "0x1cb2d",
        "value": "0x0",
        "input": "0x7c9186340000000000000000000000000000000000000000000000000000000000000018000000000000000000000000d925c84b55e4e44a53749ff5f2a5a13f63d128fd00000000000000000000000000000000000000000000000000000000000000060000000000000000000000000000000000000000000000000000000000000000",
        "nonce": "0x3f",
        "chainId": "0x2105"
      },
      "additionalContracts": [],
      "isFixedGasLimit": false
    },
    {
      "hash": "0x2f8c9faa58e613e61eb5294919c96f998f66eaa2297fd161f1ea5d827c44ebe5",
      "transactionType": "CALL",
      "contractName": null,
      "contractAddress": "0xd925c84b55e4e44a53749ff5f2a5a13f63d128fd",
      "function": "setDestinationMToken(uint16,bytes32)",
      "arguments": [
        "24",
        "0x000000000000000000000000866a2bf4e572cbcf37d5071a7a58503bfb36be1b"
      ],
      "transaction": {
        "from": "0xf2f1acbe0ba726fee8d75f3e32900526874740bb",
        "to": "0xd925c84b55e4e44a53749ff5f2a5a13f63d128fd",
        "gas": "0x12dcb",
        "value": "0x0",
        "input": "0x76a4a5390000000000000000000000000000000000000000000000000000000000000018000000000000000000000000866a2bf4e572cbcf37d5071a7a58503bfb36be1b",
        "nonce": "0x40",
        "chainId": "0x2105"
      },
      "additionalContracts": [],
      "isFixedGasLimit": false
    },
    {
      "hash": "0x35e7a063f526fd4a7d833458436fdb752facc0143059f205ad34d97f22d0427b",
      "transactionType": "CALL",
      "contractName": null,
      "contractAddress": "0xd925c84b55e4e44a53749ff5f2a5a13f63d128fd",
      "function": "setSupportedBridgingPath(address,uint16,bytes32,bool)",
      "arguments": [
        "0x866A2BF4E572CbcF37D5071A7a58503Bfb36be1b",
        "24",
        "0x000000000000000000000000866a2bf4e572cbcf37d5071a7a58503bfb36be1b",
        "true"
      ],
      "transaction": {
        "from": "0xf2f1acbe0ba726fee8d75f3e32900526874740bb",
        "to": "0xd925c84b55e4e44a53749ff5f2a5a13f63d128fd",
        "gas": "0x123e6",
        "value": "0x0",
        "input": "0x1482cb4a000000000000000000000000866a2bf4e572cbcf37d5071a7a58503bfb36be1b0000000000000000000000000000000000000000000000000000000000000018000000000000000000000000866a2bf4e572cbcf37d5071a7a58503bfb36be1b0000000000000000000000000000000000000000000000000000000000000001",
        "nonce": "0x41",
        "chainId": "0x2105"
      },
      "additionalContracts": [],
      "isFixedGasLimit": false
    },
    {
      "hash": "0x89ebcc69526933e7cbee2ae73a4ba5b2c7153ed850c990bacbd8238449a6792e",
      "transactionType": "CALL",
      "contractName": null,
      "contractAddress": "0xd925c84b55e4e44a53749ff5f2a5a13f63d128fd",
      "function": "setSupportedBridgingPath(address,uint16,bytes32,bool)",
      "arguments": [
        "0x866A2BF4E572CbcF37D5071A7a58503Bfb36be1b",
        "24",
        "0x000000000000000000000000437cc33344a0b27a429f795ff6b469c72698b291",
        "true"
      ],
      "transaction": {
        "from": "0xf2f1acbe0ba726fee8d75f3e32900526874740bb",
        "to": "0xd925c84b55e4e44a53749ff5f2a5a13f63d128fd",
        "gas": "0x123e6",
        "value": "0x0",
        "input": "0x1482cb4a000000000000000000000000866a2bf4e572cbcf37d5071a7a58503bfb36be1b0000000000000000000000000000000000000000000000000000000000000018000000000000000000000000437cc33344a0b27a429f795ff6b469c72698b2910000000000000000000000000000000000000000000000000000000000000001",
        "nonce": "0x42",
        "chainId": "0x2105"
      },
      "additionalContracts": [],
      "isFixedGasLimit": false
    },
    {
      "hash": "0xf374ba441b1f6de4dca4bd064688eaad1a0fc07bc099220548d418a52a4fee95",
      "transactionType": "CALL",
      "contractName": null,
      "contractAddress": "0xd925c84b55e4e44a53749ff5f2a5a13f63d128fd",
      "function": "setSupportedBridgingPath(address,uint16,bytes32,bool)",
      "arguments": [
        "0x437cc33344a0B27A429f795ff6B469C72698B291",
        "24",
        "0x000000000000000000000000866a2bf4e572cbcf37d5071a7a58503bfb36be1b",
        "true"
      ],
      "transaction": {
        "from": "0xf2f1acbe0ba726fee8d75f3e32900526874740bb",
        "to": "0xd925c84b55e4e44a53749ff5f2a5a13f63d128fd",
        "gas": "0x123e6",
        "value": "0x0",
        "input": "0x1482cb4a000000000000000000000000437cc33344a0b27a429f795ff6b469c72698b2910000000000000000000000000000000000000000000000000000000000000018000000000000000000000000866a2bf4e572cbcf37d5071a7a58503bfb36be1b0000000000000000000000000000000000000000000000000000000000000001",
        "nonce": "0x43",
        "chainId": "0x2105"
      },
      "additionalContracts": [],
      "isFixedGasLimit": false
    },
    {
      "hash": "0x06aac4bcfa2473c37d843f019b801308f78b67b4911c686003f175b5a12eaed3",
      "transactionType": "CALL",
      "contractName": null,
      "contractAddress": "0xd925c84b55e4e44a53749ff5f2a5a13f63d128fd",
      "function": "setSupportedBridgingPath(address,uint16,bytes32,bool)",
      "arguments": [
        "0x437cc33344a0B27A429f795ff6B469C72698B291",
        "24",
        "0x000000000000000000000000437cc33344a0b27a429f795ff6b469c72698b291",
        "true"
      ],
      "transaction": {
        "from": "0xf2f1acbe0ba726fee8d75f3e32900526874740bb",
        "to": "0xd925c84b55e4e44a53749ff5f2a5a13f63d128fd",
        "gas": "0x123e6",
        "value": "0x0",
        "input": "0x1482cb4a000000000000000000000000437cc33344a0b27a429f795ff6b469c72698b2910000000000000000000000000000000000000000000000000000000000000018000000000000000000000000437cc33344a0b27a429f795ff6b469c72698b2910000000000000000000000000000000000000000000000000000000000000001",
        "nonce": "0x44",
        "chainId": "0x2105"
      },
      "additionalContracts": [],
      "isFixedGasLimit": false
    },
    {
      "hash": "0x07204585eb72f74a1e1edb36a10b7e2dfabbfcd3abae2f442d604057c22880a7",
      "transactionType": "CALL",
      "contractName": "ERC1967Proxy",
      "contractAddress": "0x0763196a091575adf99e2306e5e90e0be5154841",
      "function": null,
      "arguments": null,
      "transaction": {
        "from": "0xf2f1acbe0ba726fee8d75f3e32900526874740bb",
        "to": "0x0763196a091575adf99e2306e5e90e0be5154841",
        "gas": "0x11ac1",
        "value": "0x0",
        "input": "0x657b3b2f00000000000000000000000000000000000000000000000000000000000000180000000000000000000000000000000000000000000000000000000000000001",
        "nonce": "0x45",
        "chainId": "0x2105"
      },
      "additionalContracts": [],
      "isFixedGasLimit": false
    },
    {
      "hash": "0x32d111999da35c1de47ad0d7e4a491293070867d638cff5ad226fe1cac7e0045",
      "transactionType": "CALL",
      "contractName": "ERC1967Proxy",
      "contractAddress": "0x0763196a091575adf99e2306e5e90e0be5154841",
      "function": null,
      "arguments": null,
      "transaction": {
        "from": "0xf2f1acbe0ba726fee8d75f3e32900526874740bb",
        "to": "0x0763196a091575adf99e2306e5e90e0be5154841",
        "gas": "0x1a236",
        "value": "0x0",
        "input": "0x7ab5640300000000000000000000000000000000000000000000000000000000000000180000000000000000000000000763196a091575adf99e2306e5e90e0be5154841",
        "nonce": "0x46",
        "chainId": "0x2105"
      },
      "additionalContracts": [],
      "isFixedGasLimit": false
    },
    {
      "hash": "0x37f0b97634a097454a31339b1d71a0e878569939a84b76ae9309562cd7333035",
      "transactionType": "CALL",
      "contractName": "ERC1967Proxy",
      "contractAddress": "0x0763196a091575adf99e2306e5e90e0be5154841",
      "function": null,
      "arguments": null,
      "transaction": {
        "from": "0xf2f1acbe0ba726fee8d75f3e32900526874740bb",
        "to": "0x0763196a091575adf99e2306e5e90e0be5154841",
        "gas": "0x11c4c",
        "value": "0x0",
        "input": "0x96dddc6300000000000000000000000000000000000000000000000000000000000000180000000000000000000000000000000000000000000000000000000000000001",
        "nonce": "0x47",
        "chainId": "0x2105"
      },
      "additionalContracts": [],
      "isFixedGasLimit": false
    }
  ],
  "receipts": [
    {
      "status": "0x1",
      "cumulativeGasUsed": "0x127e6f7",
      "logs": [
        {
          "address": "0xd925c84b55e4e44a53749ff5f2a5a13f63d128fd",
          "topics": [
            "0x1456404e7f41f35c3daac941bb50bad417a66275c3040061b4287d787719599d",
            "0x0000000000000000000000000000000000000000000000000000000000000002"
          ],
          "data": "0x00000000000000000000000000000000000000000000000000000000000000000000000000000000000000000000000000000000000000000000000000000000000000000000000000000000d925c84b55e4e44a53749ff5f2a5a13f63d128fd0000000000000000000000000000000000000000000000000000000000000006",
          "blockHash": "0x6dfe74f0cb20d9128ac387f736f570e5859ff9ef9267cc2a5f1a2b0f58c7bacc",
          "blockNumber": "0x23cf985",
          "blockTimestamp": "0x69044fed",
          "transactionHash": "0xe247c0f683476a0faf0c846fda2650ca856469b0a2a312d9d68ae5fb5754417a",
          "transactionIndex": "0x4c",
          "logIndex": "0xbf",
          "removed": false
        }
      ],
      "logsBloom": "0x04000000000000000000000000000000000000000000000000000000000000000000000000000000002000000000000000000000000000000000000000000000000000000000000000000000000000000000000000024000000000000000000000002000000000000000000000000000000000000000000000000000000000000000000000000000000008000000000000000000000000000000000000000000000000000000000000000100000000000000000000000000000000000000080000000000000000000000000000000000000000000000000000000000000000000000000000000000000000000000000000000000008000000000000000000000",
      "type": "0x2",
      "transactionHash": "0xe247c0f683476a0faf0c846fda2650ca856469b0a2a312d9d68ae5fb5754417a",
      "transactionIndex": "0x4c",
      "blockHash": "0x6dfe74f0cb20d9128ac387f736f570e5859ff9ef9267cc2a5f1a2b0f58c7bacc",
      "blockNumber": "0x23cf985",
      "gasUsed": "0x14c70",
      "effectiveGasPrice": "0x37c1c2",
      "from": "0xf2f1acbe0ba726fee8d75f3e32900526874740bb",
      "to": "0xd925c84b55e4e44a53749ff5f2a5a13f63d128fd",
      "contractAddress": null,
      "l1BaseFeeScalar": "0x8dd",
      "l1BlobBaseFee": "0x1",
      "l1BlobBaseFeeScalar": "0x101c12",
      "l1Fee": "0x17bb9447",
      "l1GasPrice": "0x6898747",
      "l1GasUsed": "0x640"
    },
    {
      "status": "0x1",
      "cumulativeGasUsed": "0x1c7ced9",
      "logs": [
        {
          "address": "0xd925c84b55e4e44a53749ff5f2a5a13f63d128fd",
          "topics": [
            "0xe6658eeba76934cef78dc5f420ee40406e4876e8d3e767f7b700c63daf1bf0ba",
            "0x0000000000000000000000000000000000000000000000000000000000000002"
          ],
          "data": "0x000000000000000000000000866a2bf4e572cbcf37d5071a7a58503bfb36be1b",
          "blockHash": "0x9e10be3ab576852d3e7f4da9b1a83c605810542a519360e69c4c07cf04c4e253",
          "blockNumber": "0x23cf986",
          "blockTimestamp": "0x69044fef",
          "transactionHash": "0x92a1697004f4c8fdddfd0510e656d36171ddda8e02f06bc85c28c03b9522a5f5",
          "transactionIndex": "0x11d",
          "logIndex": "0x13f",
          "removed": false
        }
      ],
      "logsBloom": "0x04000000000000000000000000000000000000000000000000000000000000000000000000000000000000000000000000000000000000000000000000000000000000000000000000000000002000000000000000024000000000000000000000000000000000000000000000000000000000000000000000000000000000000000000000000000000000000000000000000000000000000000000000000000000080000000000000000100000000000000000000000000000000000000080000000000000020000000000000000000000000000000000000000000000000000000000000000000000000000000000000000000008000000000000000000000",
      "type": "0x2",
      "transactionHash": "0x92a1697004f4c8fdddfd0510e656d36171ddda8e02f06bc85c28c03b9522a5f5",
      "transactionIndex": "0x11d",
      "blockHash": "0x9e10be3ab576852d3e7f4da9b1a83c605810542a519360e69c4c07cf04c4e253",
      "blockNumber": "0x23cf986",
      "gasUsed": "0xce5b",
      "effectiveGasPrice": "0x37d19e",
      "from": "0xf2f1acbe0ba726fee8d75f3e32900526874740bb",
      "to": "0xd925c84b55e4e44a53749ff5f2a5a13f63d128fd",
      "contractAddress": null,
      "l1BaseFeeScalar": "0x8dd",
      "l1BlobBaseFee": "0x1",
      "l1BlobBaseFeeScalar": "0x101c12",
      "l1Fee": "0x17bb9447",
      "l1GasPrice": "0x6898747",
      "l1GasUsed": "0x640"
    },
    {
      "status": "0x1",
      "cumulativeGasUsed": "0x1ecaeaa",
      "logs": [
        {
          "address": "0xd925c84b55e4e44a53749ff5f2a5a13f63d128fd",
          "topics": [
            "0xeb8377c150d1438121333afa2027232605a400b1208ae6f9cfa156438e453f6d",
            "0x000000000000000000000000866a2bf4e572cbcf37d5071a7a58503bfb36be1b",
            "0x0000000000000000000000000000000000000000000000000000000000000002",
            "0x000000000000000000000000866a2bf4e572cbcf37d5071a7a58503bfb36be1b"
          ],
          "data": "0x0000000000000000000000000000000000000000000000000000000000000001",
          "blockHash": "0x9dd71ecbef17067155812514750ba2f8fac5e99724ca397bf77a71b43aa13311",
          "blockNumber": "0x23cf987",
          "blockTimestamp": "0x69044ff1",
          "transactionHash": "0x9f357c562b027ca0d123ef6368a5c5cc563012a2bb7b2c677372a7372bef4265",
          "transactionIndex": "0x124",
          "logIndex": "0x165",
          "removed": false
        }
      ],
      "logsBloom": "0x04000008000000000000000000000000000000000000000000000000000000000000000000000000000000000000000000000000000000000000000000000000800000000000000000000000000000000000000000024000000000000000000000000000000000000000000000000000000000000000000100000000000000000000000000000000000000000040000000000000000000000000000000000000000000000000000000000100008000000000000000000000000000000000080000000000000400000000000000000000000000000000000000000000000000000000000000000000000000000000000000000000008000000000000000000000",
      "type": "0x2",
      "transactionHash": "0x9f357c562b027ca0d123ef6368a5c5cc563012a2bb7b2c677372a7372bef4265",
      "transactionIndex": "0x124",
      "blockHash": "0x9dd71ecbef17067155812514750ba2f8fac5e99724ca397bf77a71b43aa13311",
      "blockNumber": "0x23cf987",
      "gasUsed": "0xd355",
      "effectiveGasPrice": "0x37b5dd",
      "from": "0xf2f1acbe0ba726fee8d75f3e32900526874740bb",
      "to": "0xd925c84b55e4e44a53749ff5f2a5a13f63d128fd",
      "contractAddress": null,
      "l1BaseFeeScalar": "0x8dd",
      "l1BlobBaseFee": "0x1",
      "l1BlobBaseFeeScalar": "0x101c12",
      "l1Fee": "0x17bb9447",
      "l1GasPrice": "0x6898747",
      "l1GasUsed": "0x640"
    },
    {
      "status": "0x1",
      "cumulativeGasUsed": "0x3b3b8b4",
      "logs": [
        {
          "address": "0xd925c84b55e4e44a53749ff5f2a5a13f63d128fd",
          "topics": [
            "0xeb8377c150d1438121333afa2027232605a400b1208ae6f9cfa156438e453f6d",
            "0x000000000000000000000000866a2bf4e572cbcf37d5071a7a58503bfb36be1b",
            "0x0000000000000000000000000000000000000000000000000000000000000002",
            "0x000000000000000000000000437cc33344a0b27a429f795ff6b469c72698b291"
          ],
          "data": "0x0000000000000000000000000000000000000000000000000000000000000001",
          "blockHash": "0x7fc4e6457d364c81d49a11db09da5b781d9746c3ea336db4a6a1168b357d6691",
          "blockNumber": "0x23cf988",
          "blockTimestamp": "0x69044ff3",
          "transactionHash": "0x79c3cc9454b94c6126d6337ee3aa322e22ef1ac88bc5d1239e298c0167cb622b",
          "transactionIndex": "0x1d1",
          "logIndex": "0x2a9",
          "removed": false
        }
      ],
      "logsBloom": "0x04000008000002000000000000000000000000000000000000000000000000000000000000000000000000000000000000000000000000000000000000000000800000000000000000000000000000000000000000024000000000000000000000000000000000000000000000000000000000000000000100000000000000000000000000000000000000000040000000000000000000000000000000000000000000000000000000000100008000000000000000020000000000000000080000000000000400000000000000000000000000000000000000000000000000200000000000000000000000000000000000000000008000000000000000000000",
      "type": "0x2",
      "transactionHash": "0x79c3cc9454b94c6126d6337ee3aa322e22ef1ac88bc5d1239e298c0167cb622b",
      "transactionIndex": "0x1d1",
      "blockHash": "0x7fc4e6457d364c81d49a11db09da5b781d9746c3ea336db4a6a1168b357d6691",
      "blockNumber": "0x23cf988",
      "gasUsed": "0xd355",
      "effectiveGasPrice": "0x378f5a",
      "from": "0xf2f1acbe0ba726fee8d75f3e32900526874740bb",
      "to": "0xd925c84b55e4e44a53749ff5f2a5a13f63d128fd",
      "contractAddress": null,
      "l1BaseFeeScalar": "0x8dd",
      "l1BlobBaseFee": "0x1",
      "l1BlobBaseFeeScalar": "0x101c12",
      "l1Fee": "0x197d57bc",
      "l1GasPrice": "0x64e7d0f",
      "l1GasUsed": "0x6f5"
    },
    {
      "status": "0x1",
      "cumulativeGasUsed": "0x2da4ab6",
      "logs": [
        {
          "address": "0xd925c84b55e4e44a53749ff5f2a5a13f63d128fd",
          "topics": [
            "0xeb8377c150d1438121333afa2027232605a400b1208ae6f9cfa156438e453f6d",
            "0x000000000000000000000000437cc33344a0b27a429f795ff6b469c72698b291",
            "0x0000000000000000000000000000000000000000000000000000000000000002",
            "0x000000000000000000000000866a2bf4e572cbcf37d5071a7a58503bfb36be1b"
          ],
          "data": "0x0000000000000000000000000000000000000000000000000000000000000001",
          "blockHash": "0xad109329540f40f2bc811521f25aa7048e3b42bb993692f23de36606047edf50",
          "blockNumber": "0x23cf989",
          "blockTimestamp": "0x69044ff5",
          "transactionHash": "0x22d685c7a74b3c3b86f4d78f42c19bfa13c450af947ba51a639024d6e3169374",
          "transactionIndex": "0x157",
          "logIndex": "0x1c4",
          "removed": false
        }
      ],
      "logsBloom": "0x04000008000002000000000000000000000000000000000000000000000000000000000000000000000000000000000000000000000000000000000000000000800000000000000000000000000000000000000000024000000000000000000000000000000000000000000000000000000000000000000100000000000000000000000000000000000000000040000000000000000000000000000000000000000000000000000000000100008000000000000000020000000000000000080000000000000400000000000000000000000000000000000000000000000000200000000000000000000000000000000000000000008000000000000000000000",
      "type": "0x2",
      "transactionHash": "0x22d685c7a74b3c3b86f4d78f42c19bfa13c450af947ba51a639024d6e3169374",
      "transactionIndex": "0x157",
      "blockHash": "0xad109329540f40f2bc811521f25aa7048e3b42bb993692f23de36606047edf50",
      "blockNumber": "0x23cf989",
      "gasUsed": "0xd355",
      "effectiveGasPrice": "0x37d5d1",
      "from": "0xf2f1acbe0ba726fee8d75f3e32900526874740bb",
      "to": "0xd925c84b55e4e44a53749ff5f2a5a13f63d128fd",
      "contractAddress": null,
      "l1BaseFeeScalar": "0x8dd",
      "l1BlobBaseFee": "0x1",
      "l1BlobBaseFeeScalar": "0x101c12",
      "l1Fee": "0x197d57bc",
      "l1GasPrice": "0x64e7d0f",
      "l1GasUsed": "0x6f5"
    },
    {
      "status": "0x1",
      "cumulativeGasUsed": "0x85e85d",
      "logs": [
        {
          "address": "0xd925c84b55e4e44a53749ff5f2a5a13f63d128fd",
          "topics": [
            "0xeb8377c150d1438121333afa2027232605a400b1208ae6f9cfa156438e453f6d",
            "0x000000000000000000000000437cc33344a0b27a429f795ff6b469c72698b291",
            "0x0000000000000000000000000000000000000000000000000000000000000002",
            "0x000000000000000000000000437cc33344a0b27a429f795ff6b469c72698b291"
          ],
          "data": "0x0000000000000000000000000000000000000000000000000000000000000001",
          "blockHash": "0x1fbc60820cae0686765b25a67e17c9bf55a1f1746c2acbbd467f0dd0a51739f8",
          "blockNumber": "0x23cf98b",
          "blockTimestamp": "0x69044ff9",
          "transactionHash": "0x6593a4e9a1d3ef47b7ed96ccc30fce02a7767e8596d78b3dfb0e4bece71eb36d",
          "transactionIndex": "0x4a",
          "logIndex": "0x41",
          "removed": false
        }
      ],
      "logsBloom": "0x04000008000002000000000000000000000000000000000000000000000000000000000000000000000000000000000000000000000000000000000000000000800000000000000000000000000000000000000000024000000000000000000000000000000000000000000000000000000000000000000000000000000000000000000000000000000000000000000000000000000000000000000000000000000000000000000000000100008000000000000000020000000000000000080000000000000000000000000000000000000000000000000000000000000000200000000000000000000000000000000000000000008000000000000000000000",
      "type": "0x2",
      "transactionHash": "0x6593a4e9a1d3ef47b7ed96ccc30fce02a7767e8596d78b3dfb0e4bece71eb36d",
      "transactionIndex": "0x4a",
      "blockHash": "0x1fbc60820cae0686765b25a67e17c9bf55a1f1746c2acbbd467f0dd0a51739f8",
      "blockNumber": "0x23cf98b",
      "gasUsed": "0xd355",
      "effectiveGasPrice": "0x37f942",
      "from": "0xf2f1acbe0ba726fee8d75f3e32900526874740bb",
      "to": "0xd925c84b55e4e44a53749ff5f2a5a13f63d128fd",
      "contractAddress": null,
      "l1BaseFeeScalar": "0x8dd",
      "l1BlobBaseFee": "0x1",
      "l1BlobBaseFeeScalar": "0x101c12",
      "l1Fee": "0x16e53d9e",
      "l1GasPrice": "0x64e7d0f",
      "l1GasUsed": "0x640"
    },
    {
      "status": "0x1",
      "cumulativeGasUsed": "0x77c71d",
      "logs": [
        {
          "address": "0x0763196a091575adf99e2306e5e90e0be5154841",
          "topics": [
            "0x528b18a533e892b5401d1fb63597275df9d2bb45b13e7695c3147cd07b9746c3"
          ],
          "data": "0x00000000000000000000000000000000000000000000000000000000000000020000000000000000000000000000000000000000000000000000000000000001",
          "blockHash": "0x3122caa5323b474e7b639596a24535b59bad6da9ccc32630072a5fa6335c0c43",
          "blockNumber": "0x23cf98d",
          "blockTimestamp": "0x69044ffd",
          "transactionHash": "0x364a5d46e62edcc37a08411ecb070f47190a33459172360fc8279d8ccaf5c4f0",
          "transactionIndex": "0x3c",
          "logIndex": "0x32",
          "removed": false
        }
      ],
      "logsBloom": "0x00000000000000000000000000000000000000000000000000000000000080000000000000400000000000000000000000000000000000000000000000000000000000000000000000000000800000000000000000000000000000000001000000000000000000001000000000000000000000000000000000000000000000000000000000000000000000000000000000000000000000000000000000000000002000000000000000000000000000000000000000000000000000000000000000000000000000000000000000000000000000000000000000000000000000000000000000000000000000000000000000000000000000000000000000000000",
      "type": "0x2",
      "transactionHash": "0x364a5d46e62edcc37a08411ecb070f47190a33459172360fc8279d8ccaf5c4f0",
      "transactionIndex": "0x3c",
      "blockHash": "0x3122caa5323b474e7b639596a24535b59bad6da9ccc32630072a5fa6335c0c43",
      "blockNumber": "0x23cf98d",
      "gasUsed": "0xccb6",
      "effectiveGasPrice": "0x383c3e",
      "from": "0xf2f1acbe0ba726fee8d75f3e32900526874740bb",
      "to": "0x0763196a091575adf99e2306e5e90e0be5154841",
      "contractAddress": null,
      "l1BaseFeeScalar": "0x8dd",
      "l1BlobBaseFee": "0x1",
      "l1BlobBaseFeeScalar": "0x101c12",
      "l1Fee": "0x16e53d9e",
      "l1GasPrice": "0x64e7d0f",
      "l1GasUsed": "0x640"
    },
    {
      "status": "0x1",
      "cumulativeGasUsed": "0x7f2128",
      "logs": [
        {
          "address": "0xbebdb6c8ddc678ffa9f8748f85c815c556dd8ac6",
          "topics": [
            "0x6eb224fb001ed210e379b335e35efe88672a8ce935d981a6896b27ffdf52a3b2",
            "0x0000000000000000000000000763196a091575adf99e2306e5e90e0be5154841"
          ],
          "data": "0x0000000000000000000000000000000000000000000000000000000000000001000000000000000000000000000000000000000000000000000000000000000000000000000000000000000000000000000000000000000000000000000000800000000000000000000000000000000000000000000000000000000000000001000000000000000000000000000000000000000000000000000000000000002618fc67c200020000000000000000000000000763196a091575adf99e2306e5e90e0be51548410000000000000000000000000000000000000000000000000000",
          "blockHash": "0x75cbae1e55fc8fc4e836f63c79877b88371efd5b3f7495fe993cf0822c9ce787",
          "blockNumber": "0x23cf98f",
          "blockTimestamp": "0x69045001",
          "transactionHash": "0x3fbc87c530f325151aeef736b3b3a3620791979c5ea90b7369c69de78f9de1e9",
          "transactionIndex": "0x41",
          "logIndex": "0x6b",
          "removed": false
        },
        {
          "address": "0x0763196a091575adf99e2306e5e90e0be5154841",
          "topics": [
            "0xa559263ee060c7a2560843b3a064ff0376c9753ae3e2449b595a3b615d326466"
          ],
          "data": "0x00000000000000000000000000000000000000000000000000000000000000020000000000000000000000000763196a091575adf99e2306e5e90e0be5154841",
          "blockHash": "0x75cbae1e55fc8fc4e836f63c79877b88371efd5b3f7495fe993cf0822c9ce787",
          "blockNumber": "0x23cf98f",
          "blockTimestamp": "0x69045001",
          "transactionHash": "0x3fbc87c530f325151aeef736b3b3a3620791979c5ea90b7369c69de78f9de1e9",
          "transactionIndex": "0x41",
          "logIndex": "0x6c",
          "removed": false
        }
      ],
      "logsBloom": "0x00000000000100000000000000000000000000000000000000000000000000000010000000000000000000000010000000000000000000000000000000000000000000000000000000000000000000000000000100000000000000000001000000000000000000001000000000000000000000800000000000000000000000000000000000000000000000000000000000000000000000000000000000000000002000000400000000000000000000000000004000000000000000008000000000000000000000000000000000000000000000000001000000000000000000000000000100000000210000000000000000000000000000000000000000000000",
      "type": "0x2",
      "transactionHash": "0x3fbc87c530f325151aeef736b3b3a3620791979c5ea90b7369c69de78f9de1e9",
      "transactionIndex": "0x41",
      "blockHash": "0x75cbae1e55fc8fc4e836f63c79877b88371efd5b3f7495fe993cf0822c9ce787",
      "blockNumber": "0x23cf98f",
      "gasUsed": "0x12ec8",
      "effectiveGasPrice": "0x386a21",
      "from": "0xf2f1acbe0ba726fee8d75f3e32900526874740bb",
      "to": "0x0763196a091575adf99e2306e5e90e0be5154841",
      "contractAddress": null,
      "l1BaseFeeScalar": "0x8dd",
      "l1BlobBaseFee": "0x1",
      "l1BlobBaseFeeScalar": "0x101c12",
      "l1Fee": "0x16c76178",
      "l1GasPrice": "0x6464377",
      "l1GasUsed": "0x640"
    },
    {
      "status": "0x1",
      "cumulativeGasUsed": "0x83f883",
      "logs": [
        {
          "address": "0x0763196a091575adf99e2306e5e90e0be5154841",
          "topics": [
            "0x4add57d97a7bf5035340ea1212aeeb3d4d3887eb1faf3821a8224c3a6956a10c"
          ],
          "data": "0x00000000000000000000000000000000000000000000000000000000000000020000000000000000000000000000000000000000000000000000000000000001",
          "blockHash": "0x51cbb68c03895bd7c4a7c5875aedc5515bcff2dbd6e88895727479cfa5078d84",
          "blockNumber": "0x23cf991",
          "blockTimestamp": "0x69045005",
          "transactionHash": "0x5d2d5e3b0a15be819558e8c43a540f01621196df6ed5bcad5932797136486340",
          "transactionIndex": "0x47",
          "logIndex": "0x89",
          "removed": false
        }
      ],
      "logsBloom": "0x00000000000000080000000000000000000000000000000000000000000000000000000000000000000000000000000000000000000000000000000000000000000000000000000000000000000000000000000000000000000000000001000000000000000000001000000000000000000000000000000000000080000000000000000000000000000000000000000000000000000000000000000000000000002000000000000000000000000000000000000000000000000000000000000000000000000000000000000000000000000000000000000000000000000000000000000000000000000000000000000000000040000000000000000000000000",
      "type": "0x2",
      "transactionHash": "0x5d2d5e3b0a15be819558e8c43a540f01621196df6ed5bcad5932797136486340",
      "transactionIndex": "0x47",
      "blockHash": "0x51cbb68c03895bd7c4a7c5875aedc5515bcff2dbd6e88895727479cfa5078d84",
      "blockNumber": "0x23cf991",
      "gasUsed": "0xcdd4",
      "effectiveGasPrice": "0x38b001",
      "from": "0xf2f1acbe0ba726fee8d75f3e32900526874740bb",
      "to": "0x0763196a091575adf99e2306e5e90e0be5154841",
      "contractAddress": null,
      "l1BaseFeeScalar": "0x8dd",
      "l1BlobBaseFee": "0x1",
      "l1BlobBaseFeeScalar": "0x101c12",
      "l1Fee": "0x16c76178",
      "l1GasPrice": "0x6464377",
      "l1GasUsed": "0x640"
    },
    {
      "status": "0x1",
      "cumulativeGasUsed": "0x12365b2",
      "logs": [
        {
          "address": "0xd925c84b55e4e44a53749ff5f2a5a13f63d128fd",
          "topics": [
            "0x1456404e7f41f35c3daac941bb50bad417a66275c3040061b4287d787719599d",
            "0x0000000000000000000000000000000000000000000000000000000000000017"
          ],
          "data": "0x00000000000000000000000000000000000000000000000000000000000000000000000000000000000000000000000000000000000000000000000000000000000000000000000000000000d925c84b55e4e44a53749ff5f2a5a13f63d128fd0000000000000000000000000000000000000000000000000000000000000006",
          "blockHash": "0x660517863f6cbc8d47b05eea4a4ff21fc619b3b918572fa488ad9edac178acb2",
          "blockNumber": "0x23cf992",
          "blockTimestamp": "0x69045007",
          "transactionHash": "0x69e0aff28d220ad61e586c93ede89900dce311fefc0094e488d4d105d62dd9a3",
          "transactionIndex": "0xb4",
          "logIndex": "0xb6",
          "removed": false
        }
      ],
      "logsBloom": "0x00000000000000000000000000000000000000000000000000000000000000000000000000000000002000000000000000001000000000000000001000000000000000000000000000000000000000000000000000024000000000000000000000002000000000000000000000000000000000000000000000000000000000000000000000000000000008000000000000000000000000000000000000000000000000000000000000000000000000000000000000000000000000000000080000000000000000000000000000000000000000000000000000000000000000000000000000000000000000000000000000000000000000000000000000080000",
      "type": "0x2",
      "transactionHash": "0x69e0aff28d220ad61e586c93ede89900dce311fefc0094e488d4d105d62dd9a3",
      "transactionIndex": "0xb4",
      "blockHash": "0x660517863f6cbc8d47b05eea4a4ff21fc619b3b918572fa488ad9edac178acb2",
      "blockNumber": "0x23cf992",
      "gasUsed": "0x14c70",
      "effectiveGasPrice": "0x38c9b1",
      "from": "0xf2f1acbe0ba726fee8d75f3e32900526874740bb",
      "to": "0xd925c84b55e4e44a53749ff5f2a5a13f63d128fd",
      "contractAddress": null,
      "l1BaseFeeScalar": "0x8dd",
      "l1BlobBaseFee": "0x1",
      "l1BlobBaseFeeScalar": "0x101c12",
      "l1Fee": "0x16c76178",
      "l1GasPrice": "0x6464377",
      "l1GasUsed": "0x640"
    },
    {
      "status": "0x1",
      "cumulativeGasUsed": "0x2cc97b6",
      "logs": [
        {
          "address": "0xd925c84b55e4e44a53749ff5f2a5a13f63d128fd",
          "topics": [
            "0xe6658eeba76934cef78dc5f420ee40406e4876e8d3e767f7b700c63daf1bf0ba",
            "0x0000000000000000000000000000000000000000000000000000000000000017"
          ],
          "data": "0x000000000000000000000000866a2bf4e572cbcf37d5071a7a58503bfb36be1b",
          "blockHash": "0xa3b0d6eb163f7bba8b9449ba8f87b1cc5e8cdef79809ddaa21a5f0608829cbe5",
          "blockNumber": "0x23cf993",
          "blockTimestamp": "0x69045009",
          "transactionHash": "0xb0cbae83d669d5a585b100fed5a389ef07bf8115207f63b1e429819c314eab03",
          "transactionIndex": "0x14f",
          "logIndex": "0x321",
          "removed": false
        }
      ],
      "logsBloom": "0x00000000000000000000000000000000000000000000000000000000000000000000000000000000000000000000000000001000000000000000001000000000000000000000000000000000002000000000000000024000000000000000000000000000000000000000000000000000000000000000000000000000000000000000000000000000000000000000000000000000000000000000000000000000000080000000000000000000000000000000000000000000000000000000080000000000000020000000000000000000000000000000000000000000000000000000000000000000000000000000000000000000000000000000000000080000",
      "type": "0x2",
      "transactionHash": "0xb0cbae83d669d5a585b100fed5a389ef07bf8115207f63b1e429819c314eab03",
      "transactionIndex": "0x14f",
      "blockHash": "0xa3b0d6eb163f7bba8b9449ba8f87b1cc5e8cdef79809ddaa21a5f0608829cbe5",
      "blockNumber": "0x23cf993",
      "gasUsed": "0xce5b",
      "effectiveGasPrice": "0x38a60a",
      "from": "0xf2f1acbe0ba726fee8d75f3e32900526874740bb",
      "to": "0xd925c84b55e4e44a53749ff5f2a5a13f63d128fd",
      "contractAddress": null,
      "l1BaseFeeScalar": "0x8dd",
      "l1BlobBaseFee": "0x1",
      "l1BlobBaseFeeScalar": "0x101c12",
      "l1Fee": "0x16c76178",
      "l1GasPrice": "0x6464377",
      "l1GasUsed": "0x640"
    },
    {
      "status": "0x1",
      "cumulativeGasUsed": "0x2933175",
      "logs": [
        {
          "address": "0xd925c84b55e4e44a53749ff5f2a5a13f63d128fd",
          "topics": [
            "0xeb8377c150d1438121333afa2027232605a400b1208ae6f9cfa156438e453f6d",
            "0x000000000000000000000000866a2bf4e572cbcf37d5071a7a58503bfb36be1b",
            "0x0000000000000000000000000000000000000000000000000000000000000017",
            "0x000000000000000000000000866a2bf4e572cbcf37d5071a7a58503bfb36be1b"
          ],
          "data": "0x0000000000000000000000000000000000000000000000000000000000000001",
          "blockHash": "0x9f39756fe8b81c50e00bff186dcff8d49ce5bc457a46f0dcccb81728c6ccb1e5",
          "blockNumber": "0x23cf994",
          "blockTimestamp": "0x6904500b",
          "transactionHash": "0xd34ef0b6e0b12bc4d65107550aca490e9417a5db9d1a7e256cfeb3a155643435",
          "transactionIndex": "0x15c",
          "logIndex": "0x23d",
          "removed": false
        }
      ],
      "logsBloom": "0x00000008000000000000000000000000000000000000000000000000000000000000000000000000000000000000000000001000000000000000001000000000800000000000000000000000000000000000000000024000000000000000000000000000000000000000000000000000000000000000000100000000000000000000000000000000000000000040000000000000000000000000000000000000000000000000000000000000008000000000000000000000000000000000080000000000000400000000000000000000000000000000000000000000000000000000000000000000000000000000000000000000000000000000000000080000",
      "type": "0x2",
      "transactionHash": "0xd34ef0b6e0b12bc4d65107550aca490e9417a5db9d1a7e256cfeb3a155643435",
      "transactionIndex": "0x15c",
      "blockHash": "0x9f39756fe8b81c50e00bff186dcff8d49ce5bc457a46f0dcccb81728c6ccb1e5",
      "blockNumber": "0x23cf994",
      "gasUsed": "0xd355",
      "effectiveGasPrice": "0x38f2ec",
      "from": "0xf2f1acbe0ba726fee8d75f3e32900526874740bb",
      "to": "0xd925c84b55e4e44a53749ff5f2a5a13f63d128fd",
      "contractAddress": null,
      "l1BaseFeeScalar": "0x8dd",
      "l1BlobBaseFee": "0x1",
      "l1BlobBaseFeeScalar": "0x101c12",
      "l1Fee": "0x15f79a4b",
      "l1GasPrice": "0x60d07dd",
      "l1GasUsed": "0x640"
    },
    {
      "status": "0x1",
      "cumulativeGasUsed": "0xb05b04",
      "logs": [
        {
          "address": "0xd925c84b55e4e44a53749ff5f2a5a13f63d128fd",
          "topics": [
            "0xeb8377c150d1438121333afa2027232605a400b1208ae6f9cfa156438e453f6d",
            "0x000000000000000000000000866a2bf4e572cbcf37d5071a7a58503bfb36be1b",
            "0x0000000000000000000000000000000000000000000000000000000000000017",
            "0x000000000000000000000000437cc33344a0b27a429f795ff6b469c72698b291"
          ],
          "data": "0x0000000000000000000000000000000000000000000000000000000000000001",
          "blockHash": "0x8b6e61562540cc9a1a3ace047e03c92fa32e6c4f484a83ed45a7e5774167545a",
          "blockNumber": "0x23cf996",
          "blockTimestamp": "0x6904500f",
          "transactionHash": "0x780896c7071d3469503cd532e979c046e74dc4f67b792fea8d25d8d74f183c40",
          "transactionIndex": "0x48",
          "logIndex": "0x73",
          "removed": false
        }
      ],
      "logsBloom": "0x00000008000002000000000000000000000000000000000000000000000000000000000000000000000000000000000000001000000000000000001000000000800000000000000000000000000000000000000000024000000000000000000000000000000000000000000000000000000000000000000100000000000000000000000000000000000000000040000000000000000000000000000000000000000000000000000000000000008000000000000000020000000000000000080000000000000400000000000000000000000000000000000000000000000000200000000000000000000000000000000000000000000000000000000000080000",
      "type": "0x2",
      "transactionHash": "0x780896c7071d3469503cd532e979c046e74dc4f67b792fea8d25d8d74f183c40",
      "transactionIndex": "0x48",
      "blockHash": "0x8b6e61562540cc9a1a3ace047e03c92fa32e6c4f484a83ed45a7e5774167545a",
      "blockNumber": "0x23cf996",
      "gasUsed": "0xd355",
      "effectiveGasPrice": "0x38dc87",
      "from": "0xf2f1acbe0ba726fee8d75f3e32900526874740bb",
      "to": "0xd925c84b55e4e44a53749ff5f2a5a13f63d128fd",
      "contractAddress": null,
      "l1BaseFeeScalar": "0x8dd",
      "l1BlobBaseFee": "0x1",
      "l1BlobBaseFeeScalar": "0x101c12",
      "l1Fee": "0x1874c787",
      "l1GasPrice": "0x60d07dd",
      "l1GasUsed": "0x6f5"
    },
    {
      "status": "0x1",
      "cumulativeGasUsed": "0x13911f7",
      "logs": [
        {
          "address": "0xd925c84b55e4e44a53749ff5f2a5a13f63d128fd",
          "topics": [
            "0xeb8377c150d1438121333afa2027232605a400b1208ae6f9cfa156438e453f6d",
            "0x000000000000000000000000437cc33344a0b27a429f795ff6b469c72698b291",
            "0x0000000000000000000000000000000000000000000000000000000000000017",
            "0x000000000000000000000000866a2bf4e572cbcf37d5071a7a58503bfb36be1b"
          ],
          "data": "0x0000000000000000000000000000000000000000000000000000000000000001",
          "blockHash": "0xeadb769a18bf34a41027bbe543c82e8d27eeeb4042154c2e0f905e279ca7254b",
          "blockNumber": "0x23cf998",
          "blockTimestamp": "0x69045013",
          "transactionHash": "0xd96798b281a96e98add7401898fe7ae348c754c30273187cdc7d0b372d9da128",
          "transactionIndex": "0x9d",
          "logIndex": "0xdf",
          "removed": false
        }
      ],
      "logsBloom": "0x00000008000002000000000000000000000000000000000000000000000000000000000000000000000000000000000000001000000000000000001000000000800000000000000000000000000000000000000000024000000000000000000000000000000000000000000000000000000000000000000100000000000000000000000000000000000000000040000000000000000000000000000000000000000000000000000000000000008000000000000000020000000000000000080000000000000400000000000000000000000000000000000000000000000000200000000000000000000000000000000000000000000000000000000000080000",
      "type": "0x2",
      "transactionHash": "0xd96798b281a96e98add7401898fe7ae348c754c30273187cdc7d0b372d9da128",
      "transactionIndex": "0x9d",
      "blockHash": "0xeadb769a18bf34a41027bbe543c82e8d27eeeb4042154c2e0f905e279ca7254b",
      "blockNumber": "0x23cf998",
      "gasUsed": "0xd355",
      "effectiveGasPrice": "0x38d3de",
      "from": "0xf2f1acbe0ba726fee8d75f3e32900526874740bb",
      "to": "0xd925c84b55e4e44a53749ff5f2a5a13f63d128fd",
      "contractAddress": null,
      "l1BaseFeeScalar": "0x8dd",
      "l1BlobBaseFee": "0x1",
      "l1BlobBaseFeeScalar": "0x101c12",
      "l1Fee": "0x1b947bdc",
      "l1GasPrice": "0x60d07dd",
      "l1GasUsed": "0x6f5"
    },
    {
      "status": "0x1",
      "cumulativeGasUsed": "0x1172575",
      "logs": [
        {
          "address": "0xd925c84b55e4e44a53749ff5f2a5a13f63d128fd",
          "topics": [
            "0xeb8377c150d1438121333afa2027232605a400b1208ae6f9cfa156438e453f6d",
            "0x000000000000000000000000437cc33344a0b27a429f795ff6b469c72698b291",
            "0x0000000000000000000000000000000000000000000000000000000000000017",
            "0x000000000000000000000000437cc33344a0b27a429f795ff6b469c72698b291"
          ],
          "data": "0x0000000000000000000000000000000000000000000000000000000000000001",
          "blockHash": "0x82ad1964a2d4d54ea3ab4e824ded91bb56d9d1b8ae68b273bb0887f6cad9b874",
          "blockNumber": "0x23cf999",
          "blockTimestamp": "0x69045015",
          "transactionHash": "0x066985d7a86bb20fd087d706ff2ecd033f0e504d7cc9a2f5600968e128183804",
          "transactionIndex": "0x99",
          "logIndex": "0xa6",
          "removed": false
        }
      ],
      "logsBloom": "0x00000008000002000000000000000000000000000000000000000000000000000000000000000000000000000000000000001000000000000000001000000000800000000000000000000000000000000000000000024000000000000000000000000000000000000000000000000000000000000000000000000000000000000000000000000000000000000000000000000000000000000000000000000000000000000000000000000000008000000000000000020000000000000000080000000000000000000000000000000000000000000000000000000000000000200000000000000000000000000000000000000000000000000000000000080000",
      "type": "0x2",
      "transactionHash": "0x066985d7a86bb20fd087d706ff2ecd033f0e504d7cc9a2f5600968e128183804",
      "transactionIndex": "0x99",
      "blockHash": "0x82ad1964a2d4d54ea3ab4e824ded91bb56d9d1b8ae68b273bb0887f6cad9b874",
      "blockNumber": "0x23cf999",
      "gasUsed": "0xd355",
      "effectiveGasPrice": "0x38d32e",
      "from": "0xf2f1acbe0ba726fee8d75f3e32900526874740bb",
      "to": "0xd925c84b55e4e44a53749ff5f2a5a13f63d128fd",
      "contractAddress": null,
      "l1BaseFeeScalar": "0x8dd",
      "l1BlobBaseFee": "0x1",
      "l1BlobBaseFeeScalar": "0x101c12",
      "l1Fee": "0x15f79a4b",
      "l1GasPrice": "0x60d07dd",
      "l1GasUsed": "0x640"
    },
    {
      "status": "0x1",
      "cumulativeGasUsed": "0x2398c03",
      "logs": [
        {
          "address": "0x0763196a091575adf99e2306e5e90e0be5154841",
          "topics": [
            "0x528b18a533e892b5401d1fb63597275df9d2bb45b13e7695c3147cd07b9746c3"
          ],
          "data": "0x00000000000000000000000000000000000000000000000000000000000000170000000000000000000000000000000000000000000000000000000000000001",
          "blockHash": "0xee0859a844eb89638f0d7dc55bcbbdb2c03f7111ea89a5b12ca6d5d626dcc40b",
          "blockNumber": "0x23cf99a",
          "blockTimestamp": "0x69045017",
          "transactionHash": "0xf44fdc1dd4279b7e33698acffc3207b0b36a8339a2d53a3c692d9ca2b2472b86",
          "transactionIndex": "0x152",
          "logIndex": "0x165",
          "removed": false
        }
      ],
      "logsBloom": "0x00000000000000000000000000000000000000000000000000000000000080000000000000400000000000000000000000000000000000000000000000000000000000000000000000000000800000000000000000000000000000000001000000000000000000001000000000000000000000000000000000000000000000000000000000000000000000000000000000000000000000000000000000000000002000000000000000000000000000000000000000000000000000000000000000000000000000000000000000000000000000000000000000000000000000000000000000000000000000000000000000000000000000000000000000000000",
      "type": "0x2",
      "transactionHash": "0xf44fdc1dd4279b7e33698acffc3207b0b36a8339a2d53a3c692d9ca2b2472b86",
      "transactionIndex": "0x152",
      "blockHash": "0xee0859a844eb89638f0d7dc55bcbbdb2c03f7111ea89a5b12ca6d5d626dcc40b",
      "blockNumber": "0x23cf99a",
      "gasUsed": "0xccb6",
      "effectiveGasPrice": "0x38e1c6",
      "from": "0xf2f1acbe0ba726fee8d75f3e32900526874740bb",
      "to": "0x0763196a091575adf99e2306e5e90e0be5154841",
      "contractAddress": null,
      "l1BaseFeeScalar": "0x8dd",
      "l1BlobBaseFee": "0x1",
      "l1BlobBaseFeeScalar": "0x101c12",
      "l1Fee": "0x16061363",
      "l1GasPrice": "0x6110470",
      "l1GasUsed": "0x640"
    },
    {
      "status": "0x1",
      "cumulativeGasUsed": "0x23ce955",
      "logs": [
        {
          "address": "0xbebdb6c8ddc678ffa9f8748f85c815c556dd8ac6",
          "topics": [
            "0x6eb224fb001ed210e379b335e35efe88672a8ce935d981a6896b27ffdf52a3b2",
            "0x0000000000000000000000000763196a091575adf99e2306e5e90e0be5154841"
          ],
          "data": "0x0000000000000000000000000000000000000000000000000000000000000002000000000000000000000000000000000000000000000000000000000000000000000000000000000000000000000000000000000000000000000000000000800000000000000000000000000000000000000000000000000000000000000001000000000000000000000000000000000000000000000000000000000000002618fc67c200170000000000000000000000000763196a091575adf99e2306e5e90e0be51548410000000000000000000000000000000000000000000000000000",
          "blockHash": "0x19dbeef98dba4d071f0c95366cb61f04a1acfd694998937269f549ba825ce4ca",
          "blockNumber": "0x23cf99b",
          "blockTimestamp": "0x69045019",
          "transactionHash": "0xfe98a20e32a1688618f544d677a21233ce81d03240dc8fe76b818483ece29ec5",
          "transactionIndex": "0x15a",
          "logIndex": "0x209",
          "removed": false
        },
        {
          "address": "0x0763196a091575adf99e2306e5e90e0be5154841",
          "topics": [
            "0xa559263ee060c7a2560843b3a064ff0376c9753ae3e2449b595a3b615d326466"
          ],
          "data": "0x00000000000000000000000000000000000000000000000000000000000000170000000000000000000000000763196a091575adf99e2306e5e90e0be5154841",
          "blockHash": "0x19dbeef98dba4d071f0c95366cb61f04a1acfd694998937269f549ba825ce4ca",
          "blockNumber": "0x23cf99b",
          "blockTimestamp": "0x69045019",
          "transactionHash": "0xfe98a20e32a1688618f544d677a21233ce81d03240dc8fe76b818483ece29ec5",
          "transactionIndex": "0x15a",
          "logIndex": "0x20a",
          "removed": false
        }
      ],
      "logsBloom": "0x00000000000100000000000000000000000000000000000000000000000000000010000000000000000000000010000000000000000000000000000000000000000000000000000000000000000000000000000100000000000000000001000000000000000000001000000000000000000000800000000000000000000000000000000000000000000000000000000000000000000000000000000000000000002000000400000000000000000000000000004000000000000000008000000000000000000000000000000000000000000000000001000000000000000000000000000100000000210000000000000000000000000000000000000000000000",
      "type": "0x2",
      "transactionHash": "0xfe98a20e32a1688618f544d677a21233ce81d03240dc8fe76b818483ece29ec5",
      "transactionIndex": "0x15a",
      "blockHash": "0x19dbeef98dba4d071f0c95366cb61f04a1acfd694998937269f549ba825ce4ca",
      "blockNumber": "0x23cf99b",
      "gasUsed": "0x12ec8",
      "effectiveGasPrice": "0x38f397",
      "from": "0xf2f1acbe0ba726fee8d75f3e32900526874740bb",
      "to": "0x0763196a091575adf99e2306e5e90e0be5154841",
      "contractAddress": null,
      "l1BaseFeeScalar": "0x8dd",
      "l1BlobBaseFee": "0x1",
      "l1BlobBaseFeeScalar": "0x101c12",
      "l1Fee": "0x16061363",
      "l1GasPrice": "0x6110470",
      "l1GasUsed": "0x640"
    },
    {
      "status": "0x1",
      "cumulativeGasUsed": "0x6dc1ad",
      "logs": [
        {
          "address": "0x0763196a091575adf99e2306e5e90e0be5154841",
          "topics": [
            "0x4add57d97a7bf5035340ea1212aeeb3d4d3887eb1faf3821a8224c3a6956a10c"
          ],
          "data": "0x00000000000000000000000000000000000000000000000000000000000000170000000000000000000000000000000000000000000000000000000000000001",
          "blockHash": "0x5ae90e6f203019c46e40331d94ee16fabd6b585ba107a4d3f99c3a5abe02b1b4",
          "blockNumber": "0x23cf99d",
          "blockTimestamp": "0x6904501d",
          "transactionHash": "0xf5bc846fbd3209737406efe3b3b1f8d3c7a31148d1c7011c63c4e8e351e99810",
          "transactionIndex": "0x4f",
          "logIndex": "0x5a",
          "removed": false
        }
      ],
      "logsBloom": "0x00000000000000080000000000000000000000000000000000000000000000000000000000000000000000000000000000000000000000000000000000000000000000000000000000000000000000000000000000000000000000000001000000000000000000001000000000000000000000000000000000000080000000000000000000000000000000000000000000000000000000000000000000000000002000000000000000000000000000000000000000000000000000000000000000000000000000000000000000000000000000000000000000000000000000000000000000000000000000000000000000000040000000000000000000000000",
      "type": "0x2",
      "transactionHash": "0xf5bc846fbd3209737406efe3b3b1f8d3c7a31148d1c7011c63c4e8e351e99810",
      "transactionIndex": "0x4f",
      "blockHash": "0x5ae90e6f203019c46e40331d94ee16fabd6b585ba107a4d3f99c3a5abe02b1b4",
      "blockNumber": "0x23cf99d",
      "gasUsed": "0xcdd4",
      "effectiveGasPrice": "0x38dc10",
      "from": "0xf2f1acbe0ba726fee8d75f3e32900526874740bb",
      "to": "0x0763196a091575adf99e2306e5e90e0be5154841",
      "contractAddress": null,
      "l1BaseFeeScalar": "0x8dd",
      "l1BlobBaseFee": "0x1",
      "l1BlobBaseFeeScalar": "0x101c12",
      "l1Fee": "0x16061363",
      "l1GasPrice": "0x6110470",
      "l1GasUsed": "0x640"
    },
    {
      "status": "0x1",
      "cumulativeGasUsed": "0x91ef00",
      "logs": [
        {
          "address": "0xd925c84b55e4e44a53749ff5f2a5a13f63d128fd",
          "topics": [
            "0x1456404e7f41f35c3daac941bb50bad417a66275c3040061b4287d787719599d",
            "0x0000000000000000000000000000000000000000000000000000000000000018"
          ],
          "data": "0x00000000000000000000000000000000000000000000000000000000000000000000000000000000000000000000000000000000000000000000000000000000000000000000000000000000d925c84b55e4e44a53749ff5f2a5a13f63d128fd0000000000000000000000000000000000000000000000000000000000000006",
          "blockHash": "0x0e8e0889f837a40ad5bd6ed691ef2c50d3905679540db26080d4c318755aac14",
          "blockNumber": "0x23cf99f",
          "blockTimestamp": "0x69045021",
          "transactionHash": "0x40ec79b0aaade51b5d039fccd0371998e348cc35bf40e24e8cd4ad8c9d4643d4",
          "transactionIndex": "0x45",
          "logIndex": "0x77",
          "removed": false
        }
      ],
      "logsBloom": "0x00000000000000000000000000000000000000000000000000000000000000000000000000000000002000000000000000000000000000000000000000000000000000000000000000000000000000000040000000024000000000000000000000002000000000000000000000000000000000000000000000000000000000000000000000000000000008000000000000000000000000000000000000000000000000000000000000000000000000000000000000000000000000000000080000100000000000000000000000000000000000000000000020000000000000000000000000000000000000000000000000000000000000000000000000000000",
      "type": "0x2",
      "transactionHash": "0x40ec79b0aaade51b5d039fccd0371998e348cc35bf40e24e8cd4ad8c9d4643d4",
      "transactionIndex": "0x45",
      "blockHash": "0x0e8e0889f837a40ad5bd6ed691ef2c50d3905679540db26080d4c318755aac14",
      "blockNumber": "0x23cf99f",
      "gasUsed": "0x14c70",
      "effectiveGasPrice": "0x38e597",
      "from": "0xf2f1acbe0ba726fee8d75f3e32900526874740bb",
      "to": "0xd925c84b55e4e44a53749ff5f2a5a13f63d128fd",
      "contractAddress": null,
      "l1BaseFeeScalar": "0x8dd",
      "l1BlobBaseFee": "0x1",
      "l1BlobBaseFeeScalar": "0x101c12",
      "l1Fee": "0x16061363",
      "l1GasPrice": "0x6110470",
      "l1GasUsed": "0x640"
    },
    {
      "status": "0x1",
      "cumulativeGasUsed": "0x7fec7e",
      "logs": [
        {
          "address": "0xd925c84b55e4e44a53749ff5f2a5a13f63d128fd",
          "topics": [
            "0xe6658eeba76934cef78dc5f420ee40406e4876e8d3e767f7b700c63daf1bf0ba",
            "0x0000000000000000000000000000000000000000000000000000000000000018"
          ],
          "data": "0x000000000000000000000000866a2bf4e572cbcf37d5071a7a58503bfb36be1b",
          "blockHash": "0x2c72689975f53e6d886dcd6262c94ac1ed3b7a5554d4d7a664f547299d703a20",
          "blockNumber": "0x23cf9a1",
          "blockTimestamp": "0x69045025",
          "transactionHash": "0x2f8c9faa58e613e61eb5294919c96f998f66eaa2297fd161f1ea5d827c44ebe5",
          "transactionIndex": "0x4f",
          "logIndex": "0x55",
          "removed": false
        }
      ],
      "logsBloom": "0x00000000000000000000000000000000000000000000000000000000000000000000000000000000000000000000000000000000000000000000000000000000000000000000000000000000002000000040000000024000000000000000000000000000000000000000000000000000000000000000000000000000000000000000000000000000000000000000000000000000000000000000000000000000000080000000000000000000000000000000000000000000000000000000080000100000000020000000000000000000000000000000000020000000000000000000000000000000000000000000000000000000000000000000000000000000",
      "type": "0x2",
      "transactionHash": "0x2f8c9faa58e613e61eb5294919c96f998f66eaa2297fd161f1ea5d827c44ebe5",
      "transactionIndex": "0x4f",
      "blockHash": "0x2c72689975f53e6d886dcd6262c94ac1ed3b7a5554d4d7a664f547299d703a20",
      "blockNumber": "0x23cf9a1",
      "gasUsed": "0xce5b",
      "effectiveGasPrice": "0x38a59e",
      "from": "0xf2f1acbe0ba726fee8d75f3e32900526874740bb",
      "to": "0xd925c84b55e4e44a53749ff5f2a5a13f63d128fd",
      "contractAddress": null,
      "l1BaseFeeScalar": "0x8dd",
      "l1BlobBaseFee": "0x1",
      "l1BlobBaseFeeScalar": "0x101c12",
      "l1Fee": "0x154a0ecb",
      "l1GasPrice": "0x5dd3a3b",
      "l1GasUsed": "0x640"
    },
    {
      "status": "0x1",
      "cumulativeGasUsed": "0x194f76a",
      "logs": [
        {
          "address": "0xd925c84b55e4e44a53749ff5f2a5a13f63d128fd",
          "topics": [
            "0xeb8377c150d1438121333afa2027232605a400b1208ae6f9cfa156438e453f6d",
            "0x000000000000000000000000866a2bf4e572cbcf37d5071a7a58503bfb36be1b",
            "0x0000000000000000000000000000000000000000000000000000000000000018",
            "0x000000000000000000000000866a2bf4e572cbcf37d5071a7a58503bfb36be1b"
          ],
          "data": "0x0000000000000000000000000000000000000000000000000000000000000001",
          "blockHash": "0xc7415170e0492aca30d5526aa323cfad7d674d8bd7b1160ecfe369cff72ac31a",
          "blockNumber": "0x23cf9a3",
          "blockTimestamp": "0x69045029",
          "transactionHash": "0x35e7a063f526fd4a7d833458436fdb752facc0143059f205ad34d97f22d0427b",
          "transactionIndex": "0xfc",
          "logIndex": "0x148",
          "removed": false
        }
      ],
      "logsBloom": "0x00000008000000000000000000000000000000000000000000000000000000000000000000000000000000000000000000000000000000000000000000000000800000000000000000000000000000000040000000024000000000000000000000000000000000000000000000000000000000000000000100000000000000000000000000000000000000000040000000000000000000000000000000000000000000000000000000000000008000000000000000000000000000000000080000100000000400000000000000000000000000000000000020000000000000000000000000000000000000000000000000000000000000000000000000000000",
      "type": "0x2",
      "transactionHash": "0x35e7a063f526fd4a7d833458436fdb752facc0143059f205ad34d97f22d0427b",
      "transactionIndex": "0xfc",
      "blockHash": "0xc7415170e0492aca30d5526aa323cfad7d674d8bd7b1160ecfe369cff72ac31a",
      "blockNumber": "0x23cf9a3",
      "gasUsed": "0xd355",
      "effectiveGasPrice": "0x38d9f6",
      "from": "0xf2f1acbe0ba726fee8d75f3e32900526874740bb",
      "to": "0xd925c84b55e4e44a53749ff5f2a5a13f63d128fd",
      "contractAddress": null,
      "l1BaseFeeScalar": "0x8dd",
      "l1BlobBaseFee": "0x1",
      "l1BlobBaseFeeScalar": "0x101c12",
      "l1Fee": "0x154a0ecb",
      "l1GasPrice": "0x5dd3a3b",
      "l1GasUsed": "0x640"
    },
    {
      "status": "0x1",
      "cumulativeGasUsed": "0x24e50c9",
      "logs": [
        {
          "address": "0xd925c84b55e4e44a53749ff5f2a5a13f63d128fd",
          "topics": [
            "0xeb8377c150d1438121333afa2027232605a400b1208ae6f9cfa156438e453f6d",
            "0x000000000000000000000000866a2bf4e572cbcf37d5071a7a58503bfb36be1b",
            "0x0000000000000000000000000000000000000000000000000000000000000018",
            "0x000000000000000000000000437cc33344a0b27a429f795ff6b469c72698b291"
          ],
          "data": "0x0000000000000000000000000000000000000000000000000000000000000001",
          "blockHash": "0xeaa928a3159ed3f879c001d099b0e7ef09e2475fb1d8b773320897c2fde33526",
          "blockNumber": "0x23cf9a4",
          "blockTimestamp": "0x6904502b",
          "transactionHash": "0x89ebcc69526933e7cbee2ae73a4ba5b2c7153ed850c990bacbd8238449a6792e",
          "transactionIndex": "0x151",
          "logIndex": "0x1b8",
          "removed": false
        }
      ],
      "logsBloom": "0x00000008000002000000000000000000000000000000000000000000000000000000000000000000000000000000000000000000000000000000000000000000800000000000000000000000000000000040000000024000000000000000000000000000000000000000000000000000000000000000000100000000000000000000000000000000000000000040000000000000000000000000000000000000000000000000000000000000008000000000000000020000000000000000080000100000000400000000000000000000000000000000000020000000000000200000000000000000000000000000000000000000000000000000000000000000",
      "type": "0x2",
      "transactionHash": "0x89ebcc69526933e7cbee2ae73a4ba5b2c7153ed850c990bacbd8238449a6792e",
      "transactionIndex": "0x151",
      "blockHash": "0xeaa928a3159ed3f879c001d099b0e7ef09e2475fb1d8b773320897c2fde33526",
      "blockNumber": "0x23cf9a4",
      "gasUsed": "0xd355",
      "effectiveGasPrice": "0x38c4f0",
      "from": "0xf2f1acbe0ba726fee8d75f3e32900526874740bb",
      "to": "0xd925c84b55e4e44a53749ff5f2a5a13f63d128fd",
      "contractAddress": null,
      "l1BaseFeeScalar": "0x8dd",
      "l1BlobBaseFee": "0x1",
      "l1BlobBaseFeeScalar": "0x101c12",
      "l1Fee": "0x17b39236",
      "l1GasPrice": "0x5dd3a3b",
      "l1GasUsed": "0x6f5"
    },
    {
      "status": "0x1",
      "cumulativeGasUsed": "0x2989900",
      "logs": [
        {
          "address": "0xd925c84b55e4e44a53749ff5f2a5a13f63d128fd",
          "topics": [
            "0xeb8377c150d1438121333afa2027232605a400b1208ae6f9cfa156438e453f6d",
            "0x000000000000000000000000437cc33344a0b27a429f795ff6b469c72698b291",
            "0x0000000000000000000000000000000000000000000000000000000000000018",
            "0x000000000000000000000000866a2bf4e572cbcf37d5071a7a58503bfb36be1b"
          ],
          "data": "0x0000000000000000000000000000000000000000000000000000000000000001",
          "blockHash": "0xbd6730daba97107a46fa9ad2f05a54fc6391741641d42a725dff0b0f12c0a5c3",
          "blockNumber": "0x23cf9a5",
          "blockTimestamp": "0x6904502d",
          "transactionHash": "0xf374ba441b1f6de4dca4bd064688eaad1a0fc07bc099220548d418a52a4fee95",
          "transactionIndex": "0x176",
          "logIndex": "0x262",
          "removed": false
        }
      ],
      "logsBloom": "0x00000008000002000000000000000000000000000000000000000000000000000000000000000000000000000000000000000000000000000000000000000000800000000000000000000000000000000040000000024000000000000000000000000000000000000000000000000000000000000000000100000000000000000000000000000000000000000040000000000000000000000000000000000000000000000000000000000000008000000000000000020000000000000000080000100000000400000000000000000000000000000000000020000000000000200000000000000000000000000000000000000000000000000000000000000000",
      "type": "0x2",
      "transactionHash": "0xf374ba441b1f6de4dca4bd064688eaad1a0fc07bc099220548d418a52a4fee95",
      "transactionIndex": "0x176",
      "blockHash": "0xbd6730daba97107a46fa9ad2f05a54fc6391741641d42a725dff0b0f12c0a5c3",
      "blockNumber": "0x23cf9a5",
      "gasUsed": "0xd355",
      "effectiveGasPrice": "0x38b3d9",
      "from": "0xf2f1acbe0ba726fee8d75f3e32900526874740bb",
      "to": "0xd925c84b55e4e44a53749ff5f2a5a13f63d128fd",
      "contractAddress": null,
      "l1BaseFeeScalar": "0x8dd",
      "l1BlobBaseFee": "0x1",
      "l1BlobBaseFeeScalar": "0x101c12",
      "l1Fee": "0x17b39236",
      "l1GasPrice": "0x5dd3a3b",
      "l1GasUsed": "0x6f5"
    },
    {
      "status": "0x1",
      "cumulativeGasUsed": "0x4bb5494",
      "logs": [
        {
          "address": "0xd925c84b55e4e44a53749ff5f2a5a13f63d128fd",
          "topics": [
            "0xeb8377c150d1438121333afa2027232605a400b1208ae6f9cfa156438e453f6d",
            "0x000000000000000000000000437cc33344a0b27a429f795ff6b469c72698b291",
            "0x0000000000000000000000000000000000000000000000000000000000000018",
            "0x000000000000000000000000437cc33344a0b27a429f795ff6b469c72698b291"
          ],
          "data": "0x0000000000000000000000000000000000000000000000000000000000000001",
          "blockHash": "0x8ffe2c97a7fd9693abe0eb7a37bc4fd3c6dee8dd8b5b7591b23e24132c58aaa8",
          "blockNumber": "0x23cf9a6",
          "blockTimestamp": "0x6904502f",
          "transactionHash": "0x06aac4bcfa2473c37d843f019b801308f78b67b4911c686003f175b5a12eaed3",
          "transactionIndex": "0x1d8",
          "logIndex": "0x709",
          "removed": false
        }
      ],
      "logsBloom": "0x00000008000002000000000000000000000000000000000000000000000000000000000000000000000000000000000000000000000000000000000000000000800000000000000000000000000000000040000000024000000000000000000000000000000000000000000000000000000000000000000000000000000000000000000000000000000000000000000000000000000000000000000000000000000000000000000000000000008000000000000000020000000000000000080000100000000000000000000000000000000000000000000020000000000000200000000000000000000000000000000000000000000000000000000000000000",
      "type": "0x2",
      "transactionHash": "0x06aac4bcfa2473c37d843f019b801308f78b67b4911c686003f175b5a12eaed3",
      "transactionIndex": "0x1d8",
      "blockHash": "0x8ffe2c97a7fd9693abe0eb7a37bc4fd3c6dee8dd8b5b7591b23e24132c58aaa8",
      "blockNumber": "0x23cf9a6",
      "gasUsed": "0xd355",
      "effectiveGasPrice": "0x38ba25",
      "from": "0xf2f1acbe0ba726fee8d75f3e32900526874740bb",
      "to": "0xd925c84b55e4e44a53749ff5f2a5a13f63d128fd",
      "contractAddress": null,
      "l1BaseFeeScalar": "0x8dd",
      "l1BlobBaseFee": "0x1",
      "l1BlobBaseFeeScalar": "0x101c12",
      "l1Fee": "0x169528f6",
      "l1GasPrice": "0x6386e1e",
      "l1GasUsed": "0x640"
    },
    {
      "status": "0x1",
      "cumulativeGasUsed": "0x34d60eb",
      "logs": [
        {
          "address": "0x0763196a091575adf99e2306e5e90e0be5154841",
          "topics": [
            "0x528b18a533e892b5401d1fb63597275df9d2bb45b13e7695c3147cd07b9746c3"
          ],
          "data": "0x00000000000000000000000000000000000000000000000000000000000000180000000000000000000000000000000000000000000000000000000000000001",
          "blockHash": "0xe9e89f40ff8d3095294779a48347d33955986420deae9ca87acc1df98c8bf297",
          "blockNumber": "0x23cf9a7",
          "blockTimestamp": "0x69045031",
          "transactionHash": "0x07204585eb72f74a1e1edb36a10b7e2dfabbfcd3abae2f442d604057c22880a7",
          "transactionIndex": "0x166",
          "logIndex": "0x359",
          "removed": false
        }
      ],
      "logsBloom": "0x00000000000000000000000000000000000000000000000000000000000080000000000000400000000000000000000000000000000000000000000000000000000000000000000000000000800000000000000000000000000000000001000000000000000000001000000000000000000000000000000000000000000000000000000000000000000000000000000000000000000000000000000000000000002000000000000000000000000000000000000000000000000000000000000000000000000000000000000000000000000000000000000000000000000000000000000000000000000000000000000000000000000000000000000000000000",
      "type": "0x2",
      "transactionHash": "0x07204585eb72f74a1e1edb36a10b7e2dfabbfcd3abae2f442d604057c22880a7",
      "transactionIndex": "0x166",
      "blockHash": "0xe9e89f40ff8d3095294779a48347d33955986420deae9ca87acc1df98c8bf297",
      "blockNumber": "0x23cf9a7",
      "gasUsed": "0xccb6",
      "effectiveGasPrice": "0x3937b9",
      "from": "0xf2f1acbe0ba726fee8d75f3e32900526874740bb",
      "to": "0x0763196a091575adf99e2306e5e90e0be5154841",
      "contractAddress": null,
      "l1BaseFeeScalar": "0x8dd",
      "l1BlobBaseFee": "0x1",
      "l1BlobBaseFeeScalar": "0x101c12",
      "l1Fee": "0x169528f6",
      "l1GasPrice": "0x6386e1e",
      "l1GasUsed": "0x640"
    },
    {
      "status": "0x1",
      "cumulativeGasUsed": "0x4c5ec5",
      "logs": [
        {
          "address": "0xbebdb6c8ddc678ffa9f8748f85c815c556dd8ac6",
          "topics": [
            "0x6eb224fb001ed210e379b335e35efe88672a8ce935d981a6896b27ffdf52a3b2",
            "0x0000000000000000000000000763196a091575adf99e2306e5e90e0be5154841"
          ],
          "data": "0x0000000000000000000000000000000000000000000000000000000000000003000000000000000000000000000000000000000000000000000000000000000000000000000000000000000000000000000000000000000000000000000000800000000000000000000000000000000000000000000000000000000000000001000000000000000000000000000000000000000000000000000000000000002618fc67c200180000000000000000000000000763196a091575adf99e2306e5e90e0be51548410000000000000000000000000000000000000000000000000000",
          "blockHash": "0xe1ee859a935ba1adb4b01d3c6e6c69c35789df1e8f832c8a9d2dc7934e08599e",
          "blockNumber": "0x23cf9a9",
          "blockTimestamp": "0x69045035",
          "transactionHash": "0x32d111999da35c1de47ad0d7e4a491293070867d638cff5ad226fe1cac7e0045",
          "transactionIndex": "0x3e",
          "logIndex": "0x1b",
          "removed": false
        },
        {
          "address": "0x0763196a091575adf99e2306e5e90e0be5154841",
          "topics": [
            "0xa559263ee060c7a2560843b3a064ff0376c9753ae3e2449b595a3b615d326466"
          ],
          "data": "0x00000000000000000000000000000000000000000000000000000000000000180000000000000000000000000763196a091575adf99e2306e5e90e0be5154841",
          "blockHash": "0xe1ee859a935ba1adb4b01d3c6e6c69c35789df1e8f832c8a9d2dc7934e08599e",
          "blockNumber": "0x23cf9a9",
          "blockTimestamp": "0x69045035",
          "transactionHash": "0x32d111999da35c1de47ad0d7e4a491293070867d638cff5ad226fe1cac7e0045",
          "transactionIndex": "0x3e",
          "logIndex": "0x1c",
          "removed": false
        }
      ],
      "logsBloom": "0x00000000000100000000000000000000000000000000000000000000000000000010000000000000000000000010000000000000000000000000000000000000000000000000000000000000000000000000000100000000000000000001000000000000000000001000000000000000000000800000000000000000000000000000000000000000000000000000000000000000000000000000000000000000002000000400000000000000000000000000004000000000000000008000000000000000000000000000000000000000000000000001000000000000000000000000000100000000210000000000000000000000000000000000000000000000",
      "type": "0x2",
      "transactionHash": "0x32d111999da35c1de47ad0d7e4a491293070867d638cff5ad226fe1cac7e0045",
      "transactionIndex": "0x3e",
      "blockHash": "0xe1ee859a935ba1adb4b01d3c6e6c69c35789df1e8f832c8a9d2dc7934e08599e",
      "blockNumber": "0x23cf9a9",
      "gasUsed": "0x12ec8",
      "effectiveGasPrice": "0x3972b8",
      "from": "0xf2f1acbe0ba726fee8d75f3e32900526874740bb",
      "to": "0x0763196a091575adf99e2306e5e90e0be5154841",
      "contractAddress": null,
      "l1BaseFeeScalar": "0x8dd",
      "l1BlobBaseFee": "0x1",
      "l1BlobBaseFeeScalar": "0x101c12",
      "l1Fee": "0x169528f6",
      "l1GasPrice": "0x6386e1e",
      "l1GasUsed": "0x640"
    },
    {
      "status": "0x1",
      "cumulativeGasUsed": "0x910aca",
      "logs": [
        {
          "address": "0x0763196a091575adf99e2306e5e90e0be5154841",
          "topics": [
            "0x4add57d97a7bf5035340ea1212aeeb3d4d3887eb1faf3821a8224c3a6956a10c"
          ],
          "data": "0x00000000000000000000000000000000000000000000000000000000000000180000000000000000000000000000000000000000000000000000000000000001",
          "blockHash": "0xfb4f6f156d331cc9a074a2b15a3b2a377ed309970065ae49ee1e2f946f007070",
          "blockNumber": "0x23cf9ab",
          "blockTimestamp": "0x69045039",
          "transactionHash": "0x37f0b97634a097454a31339b1d71a0e878569939a84b76ae9309562cd7333035",
          "transactionIndex": "0x41",
          "logIndex": "0x8f",
          "removed": false
        }
      ],
      "logsBloom": "0x00000000000000080000000000000000000000000000000000000000000000000000000000000000000000000000000000000000000000000000000000000000000000000000000000000000000000000000000000000000000000000001000000000000000000001000000000000000000000000000000000000080000000000000000000000000000000000000000000000000000000000000000000000000002000000000000000000000000000000000000000000000000000000000000000000000000000000000000000000000000000000000000000000000000000000000000000000000000000000000000000000040000000000000000000000000",
      "type": "0x2",
      "transactionHash": "0x37f0b97634a097454a31339b1d71a0e878569939a84b76ae9309562cd7333035",
      "transactionIndex": "0x41",
      "blockHash": "0xfb4f6f156d331cc9a074a2b15a3b2a377ed309970065ae49ee1e2f946f007070",
      "blockNumber": "0x23cf9ab",
      "gasUsed": "0xcdd4",
      "effectiveGasPrice": "0x396e02",
      "from": "0xf2f1acbe0ba726fee8d75f3e32900526874740bb",
      "to": "0x0763196a091575adf99e2306e5e90e0be5154841",
      "contractAddress": null,
      "l1BaseFeeScalar": "0x8dd",
      "l1BlobBaseFee": "0x1",
      "l1BlobBaseFeeScalar": "0x101c12",
      "l1Fee": "0x169528f6",
      "l1GasPrice": "0x6386e1e",
      "l1GasUsed": "0x640"
    }
  ],
  "libraries": [],
  "pending": [],
  "returns": {},
  "timestamp": 1761890362,
  "chain": 8453,
  "commit": "2573ad2"
}
