{
  "transactions": [
    {
      "hash": "0x82ee494487ce9125db593caeee1dc3f16fc316ef75513bfdbf35fd43fd14fb3e",
      "transactionType": "CALL",
      "contractName": null,
      "contractAddress": "0xd925c84b55e4e44a53749ff5f2a5a13f63d128fd",
      "function": "setPeer(uint16,bytes32,uint8,uint256)",
      "arguments": [
        "1",
        "0x0b86ec181cd4c5c984e9062b13f2b2de7b9f5b5e68e84349231d6614cdf3f99f",
        "6",
        "0"
      ],
      "transaction": {
        "from": "0xf2f1acbe0ba726fee8d75f3e32900526874740bb",
        "to": "0xd925c84b55e4e44a53749ff5f2a5a13f63d128fd",
        "gas": "0x1cbf4",
        "value": "0x0",
        "input": "0x7c91863400000000000000000000000000000000000000000000000000000000000000010b86ec181cd4c5c984e9062b13f2b2de7b9f5b5e68e84349231d6614cdf3f99f00000000000000000000000000000000000000000000000000000000000000060000000000000000000000000000000000000000000000000000000000000000",
        "nonce": "0x48",
        "chainId": "0x2105"
      },
      "additionalContracts": [],
      "isFixedGasLimit": false
    },
    {
      "hash": "0xde340044c963121af1acafad672c0d8a771eb1ad4787a2a01699580f04bf0b5b",
      "transactionType": "CALL",
      "contractName": null,
      "contractAddress": "0xd925c84b55e4e44a53749ff5f2a5a13f63d128fd",
      "function": "setDestinationMToken(uint16,bytes32)",
      "arguments": [
        "1",
        "0x0b86be66bfceb4c1d7e927bcc4d014be0f2863ab9df85fda610851b64dbd0ae5"
      ],
      "transaction": {
        "from": "0xf2f1acbe0ba726fee8d75f3e32900526874740bb",
        "to": "0xd925c84b55e4e44a53749ff5f2a5a13f63d128fd",
        "gas": "0x12e9d",
        "value": "0x0",
        "input": "0x76a4a53900000000000000000000000000000000000000000000000000000000000000010b86be66bfceb4c1d7e927bcc4d014be0f2863ab9df85fda610851b64dbd0ae5",
        "nonce": "0x49",
        "chainId": "0x2105"
      },
      "additionalContracts": [],
      "isFixedGasLimit": false
    },
    {
      "hash": "0x9cb54ecb4782a4c62ef041b6e2bd926aadeeac9c8b44472d0c81192b3483c6a4",
      "transactionType": "CALL",
      "contractName": null,
      "contractAddress": "0xd925c84b55e4e44a53749ff5f2a5a13f63d128fd",
      "function": "setSupportedBridgingPath(address,uint16,bytes32,bool)",
      "arguments": [
        "0x866A2BF4E572CbcF37D5071A7a58503Bfb36be1b",
        "1",
        "0x0b86be66bfceb4c1d7e927bcc4d014be0f2863ab9df85fda610851b64dbd0ae5",
        "true"
      ],
      "transaction": {
        "from": "0xf2f1acbe0ba726fee8d75f3e32900526874740bb",
        "to": "0xd925c84b55e4e44a53749ff5f2a5a13f63d128fd",
        "gas": "0x124ad",
        "value": "0x0",
        "input": "0x1482cb4a000000000000000000000000866a2bf4e572cbcf37d5071a7a58503bfb36be1b00000000000000000000000000000000000000000000000000000000000000010b86be66bfceb4c1d7e927bcc4d014be0f2863ab9df85fda610851b64dbd0ae50000000000000000000000000000000000000000000000000000000000000001",
        "nonce": "0x4a",
        "chainId": "0x2105"
      },
      "additionalContracts": [],
      "isFixedGasLimit": false
    },
    {
      "hash": "0xce164c3d1fe15655bce217e94c831c563b3ac9bdfcb665444cc3caf09bc6cdfc",
      "transactionType": "CALL",
      "contractName": null,
      "contractAddress": "0xd925c84b55e4e44a53749ff5f2a5a13f63d128fd",
      "function": "setSupportedBridgingPath(address,uint16,bytes32,bool)",
      "arguments": [
        "0x866A2BF4E572CbcF37D5071A7a58503Bfb36be1b",
        "1",
        "0x0b86be66bc1f98b47d20a3be615a4905a825b826864e2a0f4c948467d33ee709",
        "true"
      ],
      "transaction": {
        "from": "0xf2f1acbe0ba726fee8d75f3e32900526874740bb",
        "to": "0xd925c84b55e4e44a53749ff5f2a5a13f63d128fd",
        "gas": "0x124ad",
        "value": "0x0",
        "input": "0x1482cb4a000000000000000000000000866a2bf4e572cbcf37d5071a7a58503bfb36be1b00000000000000000000000000000000000000000000000000000000000000010b86be66bc1f98b47d20a3be615a4905a825b826864e2a0f4c948467d33ee7090000000000000000000000000000000000000000000000000000000000000001",
        "nonce": "0x4b",
        "chainId": "0x2105"
      },
      "additionalContracts": [],
      "isFixedGasLimit": false
    },
    {
      "hash": "0xf4f170325687d4630f61cf62ca34ef4e16646b247d7b38b79193296df24c6817",
      "transactionType": "CALL",
      "contractName": null,
      "contractAddress": "0xd925c84b55e4e44a53749ff5f2a5a13f63d128fd",
      "function": "setSupportedBridgingPath(address,uint16,bytes32,bool)",
      "arguments": [
        "0x437cc33344a0B27A429f795ff6B469C72698B291",
        "1",
        "0x0b86be66bfceb4c1d7e927bcc4d014be0f2863ab9df85fda610851b64dbd0ae5",
        "true"
      ],
      "transaction": {
        "from": "0xf2f1acbe0ba726fee8d75f3e32900526874740bb",
        "to": "0xd925c84b55e4e44a53749ff5f2a5a13f63d128fd",
        "gas": "0x124ad",
        "value": "0x0",
        "input": "0x1482cb4a000000000000000000000000437cc33344a0b27a429f795ff6b469c72698b29100000000000000000000000000000000000000000000000000000000000000010b86be66bfceb4c1d7e927bcc4d014be0f2863ab9df85fda610851b64dbd0ae50000000000000000000000000000000000000000000000000000000000000001",
        "nonce": "0x4c",
        "chainId": "0x2105"
      },
      "additionalContracts": [],
      "isFixedGasLimit": false
    },
    {
      "hash": "0xd91be55db1341e206afa4840ff8edf9c0455ff96c156eeb0e6ac2beb2e9965fa",
      "transactionType": "CALL",
      "contractName": null,
      "contractAddress": "0xd925c84b55e4e44a53749ff5f2a5a13f63d128fd",
      "function": "setSupportedBridgingPath(address,uint16,bytes32,bool)",
      "arguments": [
        "0x437cc33344a0B27A429f795ff6B469C72698B291",
        "1",
        "0x0b86be66bc1f98b47d20a3be615a4905a825b826864e2a0f4c948467d33ee709",
        "true"
      ],
      "transaction": {
        "from": "0xf2f1acbe0ba726fee8d75f3e32900526874740bb",
        "to": "0xd925c84b55e4e44a53749ff5f2a5a13f63d128fd",
        "gas": "0x124ad",
        "value": "0x0",
        "input": "0x1482cb4a000000000000000000000000437cc33344a0b27a429f795ff6b469c72698b29100000000000000000000000000000000000000000000000000000000000000010b86be66bc1f98b47d20a3be615a4905a825b826864e2a0f4c948467d33ee7090000000000000000000000000000000000000000000000000000000000000001",
        "nonce": "0x4d",
        "chainId": "0x2105"
      },
      "additionalContracts": [],
      "isFixedGasLimit": false
    },
    {
      "hash": "0xbd158eb4893fc7922310312b084af539d1b54431bdb8193994467855a490ad31",
      "transactionType": "CALL",
      "contractName": null,
      "contractAddress": "0xd925c84b55e4e44a53749ff5f2a5a13f63d128fd",
      "function": "setSupportedBridgingPath(address,uint16,bytes32,bool)",
      "arguments": [
        "0x866A2BF4E572CbcF37D5071A7a58503Bfb36be1b",
        "1",
        "0x0d8b7427213bf00314ad7d773e51ed3158573ccbc8aa35181ba8169e54c37582",
        "true"
      ],
      "transaction": {
        "from": "0xf2f1acbe0ba726fee8d75f3e32900526874740bb",
        "to": "0xd925c84b55e4e44a53749ff5f2a5a13f63d128fd",
        "gas": "0x124ad",
        "value": "0x0",
        "input": "0x1482cb4a000000000000000000000000866a2bf4e572cbcf37d5071a7a58503bfb36be1b00000000000000000000000000000000000000000000000000000000000000010d8b7427213bf00314ad7d773e51ed3158573ccbc8aa35181ba8169e54c375820000000000000000000000000000000000000000000000000000000000000001",
        "nonce": "0x4e",
        "chainId": "0x2105"
      },
      "additionalContracts": [],
      "isFixedGasLimit": false
    },
    {
      "hash": "0x1404292c9162f42bc887af142984ca48358a6581e2ad88f03e488ae1c02b6ef5",
      "transactionType": "CALL",
      "contractName": null,
      "contractAddress": "0xd925c84b55e4e44a53749ff5f2a5a13f63d128fd",
      "function": "setSupportedBridgingPath(address,uint16,bytes32,bool)",
      "arguments": [
        "0x866A2BF4E572CbcF37D5071A7a58503Bfb36be1b",
        "1",
        "0x0d8b742f62a9c8a57ad10368e9dbbbeba3d31427e1ea84a4385da7ea2f0e3678",
        "true"
      ],
      "transaction": {
        "from": "0xf2f1acbe0ba726fee8d75f3e32900526874740bb",
        "to": "0xd925c84b55e4e44a53749ff5f2a5a13f63d128fd",
        "gas": "0x124ad",
        "value": "0x0",
        "input": "0x1482cb4a000000000000000000000000866a2bf4e572cbcf37d5071a7a58503bfb36be1b00000000000000000000000000000000000000000000000000000000000000010d8b742f62a9c8a57ad10368e9dbbbeba3d31427e1ea84a4385da7ea2f0e36780000000000000000000000000000000000000000000000000000000000000001",
        "nonce": "0x4f",
        "chainId": "0x2105"
      },
      "additionalContracts": [],
      "isFixedGasLimit": false
    },
    {
      "hash": "0x93bf929646fe7366efe466b1706f6c2c1316ab9c91e6a583ed4a8ce0967cf53b",
      "transactionType": "CALL",
      "contractName": null,
      "contractAddress": "0xd925c84b55e4e44a53749ff5f2a5a13f63d128fd",
      "function": "setSupportedBridgingPath(address,uint16,bytes32,bool)",
      "arguments": [
        "0x437cc33344a0B27A429f795ff6B469C72698B291",
        "1",
        "0x0d8b7427213bf00314ad7d773e51ed3158573ccbc8aa35181ba8169e54c37582",
        "true"
      ],
      "transaction": {
        "from": "0xf2f1acbe0ba726fee8d75f3e32900526874740bb",
        "to": "0xd925c84b55e4e44a53749ff5f2a5a13f63d128fd",
        "gas": "0x124ad",
        "value": "0x0",
        "input": "0x1482cb4a000000000000000000000000437cc33344a0b27a429f795ff6b469c72698b29100000000000000000000000000000000000000000000000000000000000000010d8b7427213bf00314ad7d773e51ed3158573ccbc8aa35181ba8169e54c375820000000000000000000000000000000000000000000000000000000000000001",
        "nonce": "0x50",
        "chainId": "0x2105"
      },
      "additionalContracts": [],
      "isFixedGasLimit": false
    },
    {
      "hash": "0xe1f4eeb3993fe0e5f5441c6bd7c059f654a61a792391cf217d87c17c816a7bf4",
      "transactionType": "CALL",
      "contractName": null,
      "contractAddress": "0xd925c84b55e4e44a53749ff5f2a5a13f63d128fd",
      "function": "setSupportedBridgingPath(address,uint16,bytes32,bool)",
      "arguments": [
        "0x437cc33344a0B27A429f795ff6B469C72698B291",
        "1",
        "0x0d8b742f62a9c8a57ad10368e9dbbbeba3d31427e1ea84a4385da7ea2f0e3678",
        "true"
      ],
      "transaction": {
        "from": "0xf2f1acbe0ba726fee8d75f3e32900526874740bb",
        "to": "0xd925c84b55e4e44a53749ff5f2a5a13f63d128fd",
        "gas": "0x124ad",
        "value": "0x0",
        "input": "0x1482cb4a000000000000000000000000437cc33344a0b27a429f795ff6b469c72698b29100000000000000000000000000000000000000000000000000000000000000010d8b742f62a9c8a57ad10368e9dbbbeba3d31427e1ea84a4385da7ea2f0e36780000000000000000000000000000000000000000000000000000000000000001",
        "nonce": "0x51",
        "chainId": "0x2105"
      },
      "additionalContracts": [],
      "isFixedGasLimit": false
    },
    {
      "hash": "0x9c002e74dfaec3e7baad03f039f12c743c8048c0ef29279ad16333e3d67601bc",
      "transactionType": "CALL",
      "contractName": "ERC1967Proxy",
      "contractAddress": "0x0763196a091575adf99e2306e5e90e0be5154841",
      "function": null,
      "arguments": null,
      "transaction": {
        "from": "0xf2f1acbe0ba726fee8d75f3e32900526874740bb",
        "to": "0x0763196a091575adf99e2306e5e90e0be5154841",
        "gas": "0x11a66",
        "value": "0x0",
        "input": "0x4b795b2100000000000000000000000000000000000000000000000000000000000000010000000000000000000000000000000000000000000000000000000000000001",
        "nonce": "0x52",
        "chainId": "0x2105"
      },
      "additionalContracts": [],
      "isFixedGasLimit": false
    },
    {
      "hash": "0xcef7a7e4e91867ddbe19e942d670008f13e41eb9599a9d6f13e447ecfe1ea3f8",
      "transactionType": "CALL",
      "contractName": "ERC1967Proxy",
      "contractAddress": "0x0763196a091575adf99e2306e5e90e0be5154841",
      "function": null,
      "arguments": null,
      "transaction": {
        "from": "0xf2f1acbe0ba726fee8d75f3e32900526874740bb",
        "to": "0x0763196a091575adf99e2306e5e90e0be5154841",
        "gas": "0x1a2fd",
        "value": "0x0",
        "input": "0x7ab564030000000000000000000000000000000000000000000000000000000000000001fcbdac3b256685bd2cc3a97bfcd815fb76b8d33df924e607c409c0bce3fa1668",
        "nonce": "0x53",
        "chainId": "0x2105"
      },
      "additionalContracts": [],
      "isFixedGasLimit": false
    }
  ],
  "receipts": [
    {
      "status": "0x1",
      "cumulativeGasUsed": "0x1d0da70",
      "logs": [
        {
          "address": "0xd925c84b55e4e44a53749ff5f2a5a13f63d128fd",
          "topics": [
            "0x1456404e7f41f35c3daac941bb50bad417a66275c3040061b4287d787719599d",
            "0x0000000000000000000000000000000000000000000000000000000000000001"
          ],
          "data": "0x000000000000000000000000000000000000000000000000000000000000000000000000000000000000000000000000000000000000000000000000000000000b86ec181cd4c5c984e9062b13f2b2de7b9f5b5e68e84349231d6614cdf3f99f0000000000000000000000000000000000000000000000000000000000000006",
          "blockHash": "0xa8ae4b4f2f7ee852e2233f207af2ab27a951b05afb6b76b06661a6b521855a20",
          "blockNumber": "0x23d5438",
          "blockTimestamp": "0x69050553",
          "transactionHash": "0x82ee494487ce9125db593caeee1dc3f16fc316ef75513bfdbf35fd43fd14fb3e",
          "transactionIndex": "0xac",
          "logIndex": "0x2aa",
          "removed": false
        }
      ],
      "logsBloom": "0x00000000000000000000000000000000000000000000000000000000000000000000000000000000002000000000000000000000000000000000000000040000000000000000000000000000000000000000000000064000000000000000000000002000000000000000000000000000000000000000000000000000000000000000000000000000000008000000000000000000000000000000000000000000000000000000000000000000000000000000000000000000000000000000080000000000000000000000000000000000000000000000000000000000000040000000000000000000000000000000000000000000000000000000000000000000",
      "type": "0x2",
      "transactionHash": "0x82ee494487ce9125db593caeee1dc3f16fc316ef75513bfdbf35fd43fd14fb3e",
      "transactionIndex": "0xac",
      "blockHash": "0xa8ae4b4f2f7ee852e2233f207af2ab27a951b05afb6b76b06661a6b521855a20",
      "blockNumber": "0x23d5438",
      "gasUsed": "0x14d00",
      "effectiveGasPrice": "0x915598",
      "from": "0xf2f1acbe0ba726fee8d75f3e32900526874740bb",
      "to": "0xd925c84b55e4e44a53749ff5f2a5a13f63d128fd",
      "contractAddress": null,
      "l1BaseFeeScalar": "0x8dd",
      "l1BlobBaseFee": "0x1",
      "l1BlobBaseFeeScalar": "0x101c12",
      "l1Fee": "0x55f30395",
      "l1GasPrice": "0x1791432e",
      "l1GasUsed": "0x647"
    },
    {
      "status": "0x1",
      "cumulativeGasUsed": "0x2224f4b",
      "logs": [
        {
          "address": "0xd925c84b55e4e44a53749ff5f2a5a13f63d128fd",
          "topics": [
            "0xe6658eeba76934cef78dc5f420ee40406e4876e8d3e767f7b700c63daf1bf0ba",
            "0x0000000000000000000000000000000000000000000000000000000000000001"
          ],
          "data": "0x0b86be66bfceb4c1d7e927bcc4d014be0f2863ab9df85fda610851b64dbd0ae5",
          "blockHash": "0x829f8c9ce20bb20860bc2c698482f52be962020a3ee82a2bda516903ee48766a",
          "blockNumber": "0x23d5439",
          "blockTimestamp": "0x69050555",
          "transactionHash": "0xde340044c963121af1acafad672c0d8a771eb1ad4787a2a01699580f04bf0b5b",
          "transactionIndex": "0xcc",
          "logIndex": "0x268",
          "removed": false
        }
      ],
      "logsBloom": "0x00000000000000000000000000000000000000000000000000000000000000000000000000000000000000000000000000000000000000000000000000040000000000000000000000000000002000000000000000064000000000000000000000000000000000000000000000000000000000000000000000000000000000000000000000000000000000000000000000000000000000000000000000000000000080000000000000000000000000000000000000000000000000000000080000000000000020000000000000000000000000000000000000000000000040000000000000000000000000000000000000000000000000000000000000000000",
      "type": "0x2",
      "transactionHash": "0xde340044c963121af1acafad672c0d8a771eb1ad4787a2a01699580f04bf0b5b",
      "transactionIndex": "0xcc",
      "blockHash": "0x829f8c9ce20bb20860bc2c698482f52be962020a3ee82a2bda516903ee48766a",
      "blockNumber": "0x23d5439",
      "gasUsed": "0xceeb",
      "effectiveGasPrice": "0x90e3b8",
      "from": "0xf2f1acbe0ba726fee8d75f3e32900526874740bb",
      "to": "0xd925c84b55e4e44a53749ff5f2a5a13f63d128fd",
      "contractAddress": null,
      "l1BaseFeeScalar": "0x8dd",
      "l1BlobBaseFee": "0x1",
      "l1BlobBaseFeeScalar": "0x101c12",
      "l1Fee": "0x558f2852",
      "l1GasPrice": "0x1791432e",
      "l1GasUsed": "0x640"
    },
    {
      "status": "0x1",
      "cumulativeGasUsed": "0x3491af1",
      "logs": [
        {
          "address": "0xd925c84b55e4e44a53749ff5f2a5a13f63d128fd",
          "topics": [
            "0xeb8377c150d1438121333afa2027232605a400b1208ae6f9cfa156438e453f6d",
            "0x000000000000000000000000866a2bf4e572cbcf37d5071a7a58503bfb36be1b",
            "0x0000000000000000000000000000000000000000000000000000000000000001",
            "0x0b86be66bfceb4c1d7e927bcc4d014be0f2863ab9df85fda610851b64dbd0ae5"
          ],
          "data": "0x0000000000000000000000000000000000000000000000000000000000000001",
          "blockHash": "0x61018ba2efc17bf177d4b1306c689938bb45507303544bc63222d3c52b427de7",
          "blockNumber": "0x23d543a",
          "blockTimestamp": "0x69050557",
          "transactionHash": "0x9cb54ecb4782a4c62ef041b6e2bd926aadeeac9c8b44472d0c81192b3483c6a4",
          "transactionIndex": "0xf6",
          "logIndex": "0x393",
          "removed": false
        }
      ],
      "logsBloom": "0x00000008000000000000000000000000000000000001000000000000000000000000000000000000000000000000000000200000000000000000000000040000800000000000000000000000000000000000000000064000000000000000000000000000000000000000000000000000000000000000000100000000000000000000000000000000000000000040000000000000000000000000000000000000000000000000000000000000008000000000000000000000000000000000080000000000000400000000000001000000000000000000000000000000000040000000000000000000000000000000000000000000000000000000000000000000",
      "type": "0x2",
      "transactionHash": "0x9cb54ecb4782a4c62ef041b6e2bd926aadeeac9c8b44472d0c81192b3483c6a4",
      "transactionIndex": "0xf6",
      "blockHash": "0x61018ba2efc17bf177d4b1306c689938bb45507303544bc63222d3c52b427de7",
      "blockNumber": "0x23d543a",
      "gasUsed": "0xd3e5",
      "effectiveGasPrice": "0x902a99",
      "from": "0xf2f1acbe0ba726fee8d75f3e32900526874740bb",
      "to": "0xd925c84b55e4e44a53749ff5f2a5a13f63d128fd",
      "contractAddress": null,
      "l1BaseFeeScalar": "0x8dd",
      "l1BlobBaseFee": "0x1",
      "l1BlobBaseFeeScalar": "0x101c12",
      "l1Fee": "0x6669126d",
      "l1GasPrice": "0x1791432e",
      "l1GasUsed": "0x77b"
    },
    {
      "status": "0x1",
      "cumulativeGasUsed": "0x2f28533",
      "logs": [
        {
          "address": "0xd925c84b55e4e44a53749ff5f2a5a13f63d128fd",
          "topics": [
            "0xeb8377c150d1438121333afa2027232605a400b1208ae6f9cfa156438e453f6d",
            "0x000000000000000000000000866a2bf4e572cbcf37d5071a7a58503bfb36be1b",
            "0x0000000000000000000000000000000000000000000000000000000000000001",
            "0x0b86be66bc1f98b47d20a3be615a4905a825b826864e2a0f4c948467d33ee709"
          ],
          "data": "0x0000000000000000000000000000000000000000000000000000000000000001",
          "blockHash": "0x077c08afa4a7b03811b6c0bca7bf52798fc45fc4b7a3289f12ada7867b2d2df0",
          "blockNumber": "0x23d543b",
          "blockTimestamp": "0x69050559",
          "transactionHash": "0xce164c3d1fe15655bce217e94c831c563b3ac9bdfcb665444cc3caf09bc6cdfc",
          "transactionIndex": "0x109",
          "logIndex": "0x547",
          "removed": false
        }
      ],
      "logsBloom": "0x00000008000000000000000000000000000000000000000000000000000000000000000000000000000000000000000000008000000000000000000000040000800000000000000000000000000000000000000000064000000000000000200000000000000000000000000000000000000000000000000100000000000000000000000000000000000000000040000000000000000000000000000000000000000000000000000000000000008000000000000000000000000000000000080000000000000400000000000000000000000000000000000000000000000040001000000000000000000000000000000000000000000000000000000000000000",
      "type": "0x2",
      "transactionHash": "0xce164c3d1fe15655bce217e94c831c563b3ac9bdfcb665444cc3caf09bc6cdfc",
      "transactionIndex": "0x109",
      "blockHash": "0x077c08afa4a7b03811b6c0bca7bf52798fc45fc4b7a3289f12ada7867b2d2df0",
      "blockNumber": "0x23d543b",
      "gasUsed": "0xd3e5",
      "effectiveGasPrice": "0x907033",
      "from": "0xf2f1acbe0ba726fee8d75f3e32900526874740bb",
      "to": "0xd925c84b55e4e44a53749ff5f2a5a13f63d128fd",
      "contractAddress": null,
      "l1BaseFeeScalar": "0x8dd",
      "l1BlobBaseFee": "0x1",
      "l1BlobBaseFeeScalar": "0x101c12",
      "l1Fee": "0x6669126d",
      "l1GasPrice": "0x1791432e",
      "l1GasUsed": "0x77b"
    },
    {
      "status": "0x1",
      "cumulativeGasUsed": "0x25b887d",
      "logs": [
        {
          "address": "0xd925c84b55e4e44a53749ff5f2a5a13f63d128fd",
          "topics": [
            "0xeb8377c150d1438121333afa2027232605a400b1208ae6f9cfa156438e453f6d",
            "0x000000000000000000000000437cc33344a0b27a429f795ff6b469c72698b291",
            "0x0000000000000000000000000000000000000000000000000000000000000001",
            "0x0b86be66bfceb4c1d7e927bcc4d014be0f2863ab9df85fda610851b64dbd0ae5"
          ],
          "data": "0x0000000000000000000000000000000000000000000000000000000000000001",
          "blockHash": "0x715022606b98b5a04f3bde79c7612023d8954c62bb290673d0b20355f835de60",
          "blockNumber": "0x23d543c",
          "blockTimestamp": "0x6905055b",
          "transactionHash": "0xf4f170325687d4630f61cf62ca34ef4e16646b247d7b38b79193296df24c6817",
          "transactionIndex": "0xc2",
          "logIndex": "0x327",
          "removed": false
        }
      ],
      "logsBloom": "0x00000008000002000000000000000000000000000001000000000000000000000000000000000000000000000000000000200000000000000000000000040000800000000000000000000000000000000000000000064000000000000000000000000000000000000000000000000000000000000000000000000000000000000000000000000000000000000000000000000000000000000000000000000000000000000000000000000000008000000000000000020000000000000000080000000000000000000000000001000000000000000000000000000000000040200000000000000000000000000000000000000000000000000000000000000000",
      "type": "0x2",
      "transactionHash": "0xf4f170325687d4630f61cf62ca34ef4e16646b247d7b38b79193296df24c6817",
      "transactionIndex": "0xc2",
      "blockHash": "0x715022606b98b5a04f3bde79c7612023d8954c62bb290673d0b20355f835de60",
      "blockNumber": "0x23d543c",
      "gasUsed": "0xd3e5",
      "effectiveGasPrice": "0x906a6b",
      "from": "0xf2f1acbe0ba726fee8d75f3e32900526874740bb",
      "to": "0xd925c84b55e4e44a53749ff5f2a5a13f63d128fd",
      "contractAddress": null,
      "l1BaseFeeScalar": "0x8dd",
      "l1BlobBaseFee": "0x1",
      "l1BlobBaseFeeScalar": "0x101c12",
      "l1Fee": "0x62bc98a2",
      "l1GasPrice": "0x16b8d554",
      "l1GasUsed": "0x77b"
    },
    {
      "status": "0x1",
      "cumulativeGasUsed": "0x20020aa",
      "logs": [
        {
          "address": "0xd925c84b55e4e44a53749ff5f2a5a13f63d128fd",
          "topics": [
            "0xeb8377c150d1438121333afa2027232605a400b1208ae6f9cfa156438e453f6d",
            "0x000000000000000000000000437cc33344a0b27a429f795ff6b469c72698b291",
            "0x0000000000000000000000000000000000000000000000000000000000000001",
            "0x0b86be66bc1f98b47d20a3be615a4905a825b826864e2a0f4c948467d33ee709"
          ],
          "data": "0x0000000000000000000000000000000000000000000000000000000000000001",
          "blockHash": "0xc75379bebad16e9b7d90c3e64399f1b02ad258d6762e875c63dc8fb777d6d2b5",
          "blockNumber": "0x23d543d",
          "blockTimestamp": "0x6905055d",
          "transactionHash": "0xd91be55db1341e206afa4840ff8edf9c0455ff96c156eeb0e6ac2beb2e9965fa",
          "transactionIndex": "0xbb",
          "logIndex": "0x244",
          "removed": false
        }
      ],
      "logsBloom": "0x00000008000002000000000000000000000000000000000000000000000000000000000000000000000000000000000000008000000000000000000000040000800000000000000000000000000000000000000000064000000000000000200000000000000000000000000000000000000000000000000000000000000000000000000000000000000000000000000000000000000000000000000000000000000000000000000000000000008000000000000000020000000000000000080000000000000000000000000000000000000000000000000000000000000040201000000000000000000000000000000000000000000000000000000000000000",
      "type": "0x2",
      "transactionHash": "0xd91be55db1341e206afa4840ff8edf9c0455ff96c156eeb0e6ac2beb2e9965fa",
      "transactionIndex": "0xbb",
      "blockHash": "0xc75379bebad16e9b7d90c3e64399f1b02ad258d6762e875c63dc8fb777d6d2b5",
      "blockNumber": "0x23d543d",
      "gasUsed": "0xd3e5",
      "effectiveGasPrice": "0x90106e",
      "from": "0xf2f1acbe0ba726fee8d75f3e32900526874740bb",
      "to": "0xd925c84b55e4e44a53749ff5f2a5a13f63d128fd",
      "contractAddress": null,
      "l1BaseFeeScalar": "0x8dd",
      "l1BlobBaseFee": "0x1",
      "l1BlobBaseFeeScalar": "0x101c12",
      "l1Fee": "0x62bc98a2",
      "l1GasPrice": "0x16b8d554",
      "l1GasUsed": "0x77b"
    },
    {
      "status": "0x1",
      "cumulativeGasUsed": "0x1dc03d3",
      "logs": [
        {
          "address": "0xd925c84b55e4e44a53749ff5f2a5a13f63d128fd",
          "topics": [
            "0xeb8377c150d1438121333afa2027232605a400b1208ae6f9cfa156438e453f6d",
            "0x000000000000000000000000866a2bf4e572cbcf37d5071a7a58503bfb36be1b",
            "0x0000000000000000000000000000000000000000000000000000000000000001",
            "0x0d8b7427213bf00314ad7d773e51ed3158573ccbc8aa35181ba8169e54c37582"
          ],
          "data": "0x0000000000000000000000000000000000000000000000000000000000000001",
          "blockHash": "0xda43849ecb28a1ae09222cc4afa026661315b55b5771cfb4fcbd67ae6983e298",
          "blockNumber": "0x23d543e",
          "blockTimestamp": "0x6905055f",
          "transactionHash": "0xbd158eb4893fc7922310312b084af539d1b54431bdb8193994467855a490ad31",
          "transactionIndex": "0xb8",
          "logIndex": "0x314",
          "removed": false
        }
      ],
      "logsBloom": "0x00000008020000000000000000000000000000000000000000000000000000000000000000000000000000000000000000000000000000080000000000040000800000000000000000000000000000000000000000064000000000000000000000000000000000000000000000000000000000000000000100000000000000000000000000000000000000000040000000000000000000000000000000000000000000000000000000000000008000000000000000000000000000000000080000000000000400000000000000000000000000000000000000000000000040000000000000000000000000000000000000000000000000200000000000000000",
      "type": "0x2",
      "transactionHash": "0xbd158eb4893fc7922310312b084af539d1b54431bdb8193994467855a490ad31",
      "transactionIndex": "0xb8",
      "blockHash": "0xda43849ecb28a1ae09222cc4afa026661315b55b5771cfb4fcbd67ae6983e298",
      "blockNumber": "0x23d543e",
      "gasUsed": "0xd3e5",
      "effectiveGasPrice": "0x8f5988",
      "from": "0xf2f1acbe0ba726fee8d75f3e32900526874740bb",
      "to": "0xd925c84b55e4e44a53749ff5f2a5a13f63d128fd",
      "contractAddress": null,
      "l1BaseFeeScalar": "0x8dd",
      "l1BlobBaseFee": "0x1",
      "l1BlobBaseFeeScalar": "0x101c12",
      "l1Fee": "0x62bc98a2",
      "l1GasPrice": "0x16b8d554",
      "l1GasUsed": "0x77b"
    },
    {
      "status": "0x1",
      "cumulativeGasUsed": "0x145432c",
      "logs": [
        {
          "address": "0xd925c84b55e4e44a53749ff5f2a5a13f63d128fd",
          "topics": [
            "0xeb8377c150d1438121333afa2027232605a400b1208ae6f9cfa156438e453f6d",
            "0x000000000000000000000000866a2bf4e572cbcf37d5071a7a58503bfb36be1b",
            "0x0000000000000000000000000000000000000000000000000000000000000001",
            "0x0d8b742f62a9c8a57ad10368e9dbbbeba3d31427e1ea84a4385da7ea2f0e3678"
          ],
          "data": "0x0000000000000000000000000000000000000000000000000000000000000001",
          "blockHash": "0x8afa20e845c92123936f6ebf746e4cb8f1dccb843b50ba9dcf70ae277d327e2f",
          "blockNumber": "0x23d543f",
          "blockTimestamp": "0x69050561",
          "transactionHash": "0x1404292c9162f42bc887af142984ca48358a6581e2ad88f03e488ae1c02b6ef5",
          "transactionIndex": "0x96",
          "logIndex": "0x193",
          "removed": false
        }
      ],
      "logsBloom": "0x00000008000000000000000000000000000000000000000000000000000000000000000000000000000000000000000000000000000000000000000000040000800000000000000000000000000000000000000000064000000000000000000000000000000000000000000000000000000000000000000100000000000000000000000000000000000000000040000000000000000000200000000000000000000000000000000000000000008000000000000000000000000000000000080000000000000400100000000000000000000000000000000000000000000040000000000000000000000004000000000000000000000000000000000000000000",
      "type": "0x2",
      "transactionHash": "0x1404292c9162f42bc887af142984ca48358a6581e2ad88f03e488ae1c02b6ef5",
      "transactionIndex": "0x96",
      "blockHash": "0x8afa20e845c92123936f6ebf746e4cb8f1dccb843b50ba9dcf70ae277d327e2f",
      "blockNumber": "0x23d543f",
      "gasUsed": "0xd3e5",
      "effectiveGasPrice": "0x8e8088",
      "from": "0xf2f1acbe0ba726fee8d75f3e32900526874740bb",
      "to": "0xd925c84b55e4e44a53749ff5f2a5a13f63d128fd",
      "contractAddress": null,
      "l1BaseFeeScalar": "0x8dd",
      "l1BlobBaseFee": "0x1",
      "l1BlobBaseFeeScalar": "0x101c12",
      "l1Fee": "0x62bc98a2",
      "l1GasPrice": "0x16b8d554",
      "l1GasUsed": "0x77b"
    },
    {
      "status": "0x1",
      "cumulativeGasUsed": "0x1f15814",
      "logs": [
        {
          "address": "0xd925c84b55e4e44a53749ff5f2a5a13f63d128fd",
          "topics": [
            "0xeb8377c150d1438121333afa2027232605a400b1208ae6f9cfa156438e453f6d",
            "0x000000000000000000000000437cc33344a0b27a429f795ff6b469c72698b291",
            "0x0000000000000000000000000000000000000000000000000000000000000001",
            "0x0d8b7427213bf00314ad7d773e51ed3158573ccbc8aa35181ba8169e54c37582"
          ],
          "data": "0x0000000000000000000000000000000000000000000000000000000000000001",
          "blockHash": "0x60f42d2feb32d19702349df0434c528794a850b6e709831296a56ffc3b5b7b41",
          "blockNumber": "0x23d5440",
          "blockTimestamp": "0x69050563",
          "transactionHash": "0x93bf929646fe7366efe466b1706f6c2c1316ab9c91e6a583ed4a8ce0967cf53b",
          "transactionIndex": "0xc0",
          "logIndex": "0x2e0",
          "removed": false
        }
      ],
      "logsBloom": "0x00000008020002000000000000000000000000000000000000000000000000000000000000000000000000000000000000000000000000080000000000040000800000000000000000000000000000000000000000064000000000000000000000000000000000000000000000000000000000000000000000000000000000000000000000000000000000000000000000000000000000000000000000000000000000000000000000000000008000000000000000020000000000000000080000000000000000000000000000000000000000000000000000000000000040200000000000000000000000000000000000000000000000200000000000000000",
      "type": "0x2",
      "transactionHash": "0x93bf929646fe7366efe466b1706f6c2c1316ab9c91e6a583ed4a8ce0967cf53b",
      "transactionIndex": "0xc0",
      "blockHash": "0x60f42d2feb32d19702349df0434c528794a850b6e709831296a56ffc3b5b7b41",
      "blockNumber": "0x23d5440",
      "gasUsed": "0xd3e5",
      "effectiveGasPrice": "0x8d6202",
      "from": "0xf2f1acbe0ba726fee8d75f3e32900526874740bb",
      "to": "0xd925c84b55e4e44a53749ff5f2a5a13f63d128fd",
      "contractAddress": null,
      "l1BaseFeeScalar": "0x8dd",
      "l1BlobBaseFee": "0x1",
      "l1BlobBaseFeeScalar": "0x101c12",
      "l1Fee": "0x62bc98a2",
      "l1GasPrice": "0x16b8d554",
      "l1GasUsed": "0x77b"
    },
    {
      "status": "0x1",
      "cumulativeGasUsed": "0x1e3823e",
      "logs": [
        {
          "address": "0xd925c84b55e4e44a53749ff5f2a5a13f63d128fd",
          "topics": [
            "0xeb8377c150d1438121333afa2027232605a400b1208ae6f9cfa156438e453f6d",
            "0x000000000000000000000000437cc33344a0b27a429f795ff6b469c72698b291",
            "0x0000000000000000000000000000000000000000000000000000000000000001",
            "0x0d8b742f62a9c8a57ad10368e9dbbbeba3d31427e1ea84a4385da7ea2f0e3678"
          ],
          "data": "0x0000000000000000000000000000000000000000000000000000000000000001",
          "blockHash": "0x5c77c37ff29fc7faa98e64410850b3cff9040ddce0f377610ee435f13c3076ca",
          "blockNumber": "0x23d5441",
          "blockTimestamp": "0x69050565",
          "transactionHash": "0xe1f4eeb3993fe0e5f5441c6bd7c059f654a61a792391cf217d87c17c816a7bf4",
          "transactionIndex": "0x8a",
          "logIndex": "0x1dc",
          "removed": false
        }
      ],
      "logsBloom": "0x00000008000002000000000000000000000000000000000000000000000000000000000000000000000000000000000000000000000000000000000000040000800000000000000000000000000000000000000000064000000000000000000000000000000000000000000000000000000000000000000000000000000000000000000000000000000000000000000000000000000000200000000000000000000000000000000000000000008000000000000000020000000000000000080000000000000000100000000000000000000000000000000000000000000040200000000000000000000004000000000000000000000000000000000000000000",
      "type": "0x2",
      "transactionHash": "0xe1f4eeb3993fe0e5f5441c6bd7c059f654a61a792391cf217d87c17c816a7bf4",
      "transactionIndex": "0x8a",
      "blockHash": "0x5c77c37ff29fc7faa98e64410850b3cff9040ddce0f377610ee435f13c3076ca",
      "blockNumber": "0x23d5441",
      "gasUsed": "0xd3e5",
      "effectiveGasPrice": "0x8cc562",
      "from": "0xf2f1acbe0ba726fee8d75f3e32900526874740bb",
      "to": "0xd925c84b55e4e44a53749ff5f2a5a13f63d128fd",
      "contractAddress": null,
      "l1BaseFeeScalar": "0x8dd",
      "l1BlobBaseFee": "0x1",
      "l1BlobBaseFeeScalar": "0x101c12",
      "l1Fee": "0x62bc98a2",
      "l1GasPrice": "0x16b8d554",
      "l1GasUsed": "0x77b"
    },
    {
      "status": "0x1",
      "cumulativeGasUsed": "0x1d752e5",
      "logs": [
        {
          "address": "0x0763196a091575adf99e2306e5e90e0be5154841",
          "topics": [
            "0x0fe301480713b2c2072ee91b3bcfcbf2c0014f0447c89046f020f0f80727003c"
          ],
          "data": "0x00000000000000000000000000000000000000000000000000000000000000010000000000000000000000000000000000000000000000000000000000000001",
          "blockHash": "0xf190750fedfb683773830199a7e2573f1d07258305e2a358b36046e841367a9d",
          "blockNumber": "0x23d5442",
          "blockTimestamp": "0x69050567",
          "transactionHash": "0x9c002e74dfaec3e7baad03f039f12c743c8048c0ef29279ad16333e3d67601bc",
          "transactionIndex": "0xb8",
          "logIndex": "0x405",
          "removed": false
        }
      ],
      "logsBloom": "0x00000000000000000000000000000000000000000000000000000000000000000000000000000000000000000000000000000000000000000000000000000000000000000000000000000000000000000000000000000000000000000001000000000000000000001000000000000000000000000000000000000000000000000000000000000000000000001000000000000000000000000000000000000000002002000000000000000000000000000000000000000000000000000000000000000000000000000000000000000000000000000000000000000000000000000000000000000000000000000000000000000000000000000000000400000000",
      "type": "0x2",
      "transactionHash": "0x9c002e74dfaec3e7baad03f039f12c743c8048c0ef29279ad16333e3d67601bc",
      "transactionIndex": "0xb8",
      "blockHash": "0xf190750fedfb683773830199a7e2573f1d07258305e2a358b36046e841367a9d",
      "blockNumber": "0x23d5442",
      "gasUsed": "0xcc74",
      "effectiveGasPrice": "0x8c45f6",
      "from": "0xf2f1acbe0ba726fee8d75f3e32900526874740bb",
      "to": "0x0763196a091575adf99e2306e5e90e0be5154841",
      "contractAddress": null,
      "l1BaseFeeScalar": "0x8dd",
      "l1BlobBaseFee": "0x1",
      "l1BlobBaseFeeScalar": "0x101c12",
      "l1Fee": "0x5325a334",
      "l1GasPrice": "0x16e72a5c",
      "l1GasUsed": "0x640"
    },
    {
      "status": "0x1",
      "cumulativeGasUsed": "0x1346ff0",
      "logs": [
        {
          "address": "0xbebdb6c8ddc678ffa9f8748f85c815c556dd8ac6",
          "topics": [
            "0x6eb224fb001ed210e379b335e35efe88672a8ce935d981a6896b27ffdf52a3b2",
            "0x0000000000000000000000000763196a091575adf99e2306e5e90e0be5154841"
          ],
          "data": "0x0000000000000000000000000000000000000000000000000000000000000004000000000000000000000000000000000000000000000000000000000000000000000000000000000000000000000000000000000000000000000000000000800000000000000000000000000000000000000000000000000000000000000001000000000000000000000000000000000000000000000000000000000000002618fc67c20001fcbdac3b256685bd2cc3a97bfcd815fb76b8d33df924e607c409c0bce3fa16680000000000000000000000000000000000000000000000000000",
          "blockHash": "0xa3b0ae46f2ce671c9358c46fb0841b891aa4591f31bf085168a78b626dc9bf01",
          "blockNumber": "0x23d5443",
          "blockTimestamp": "0x69050569",
          "transactionHash": "0xcef7a7e4e91867ddbe19e942d670008f13e41eb9599a9d6f13e447ecfe1ea3f8",
          "transactionIndex": "0x85",
          "logIndex": "0x182",
          "removed": false
        },
        {
          "address": "0x0763196a091575adf99e2306e5e90e0be5154841",
          "topics": [
            "0xa559263ee060c7a2560843b3a064ff0376c9753ae3e2449b595a3b615d326466"
          ],
          "data": "0x0000000000000000000000000000000000000000000000000000000000000001fcbdac3b256685bd2cc3a97bfcd815fb76b8d33df924e607c409c0bce3fa1668",
          "blockHash": "0xa3b0ae46f2ce671c9358c46fb0841b891aa4591f31bf085168a78b626dc9bf01",
          "blockNumber": "0x23d5443",
          "blockTimestamp": "0x69050569",
          "transactionHash": "0xcef7a7e4e91867ddbe19e942d670008f13e41eb9599a9d6f13e447ecfe1ea3f8",
          "transactionIndex": "0x85",
          "logIndex": "0x183",
          "removed": false
        }
      ],
      "logsBloom": "0x00000000000100000000000000000000000000000000000000000000000000000010000000000000000000000010000000000000000000000000000000000000000000000000000000000000000000000000000100000000000000000001000000000000000000001000000000000000000000800000000000000000000000000000000000000000000000000000000000000000000000000000000000000000002000000400000000000000000000000000004000000000000000008000000000000000000000000000000000000000000000000001000000000000000000000000000100000000210000000000000000000000000000000000000000000000",
      "type": "0x2",
      "transactionHash": "0xcef7a7e4e91867ddbe19e942d670008f13e41eb9599a9d6f13e447ecfe1ea3f8",
      "transactionIndex": "0x85",
      "blockHash": "0xa3b0ae46f2ce671c9358c46fb0841b891aa4591f31bf085168a78b626dc9bf01",
      "blockNumber": "0x23d5443",
      "gasUsed": "0x12f58",
      "effectiveGasPrice": "0x8bb9d3",
      "from": "0xf2f1acbe0ba726fee8d75f3e32900526874740bb",
      "to": "0x0763196a091575adf99e2306e5e90e0be5154841",
      "contractAddress": null,
      "l1BaseFeeScalar": "0x8dd",
      "l1BlobBaseFee": "0x1",
      "l1BlobBaseFeeScalar": "0x101c12",
      "l1Fee": "0x5325a334",
      "l1GasPrice": "0x16e72a5c",
      "l1GasUsed": "0x640"
    }
  ],
  "libraries": [],
  "pending": [],
  "returns": {},
  "timestamp": 1761936745,
  "chain": 8453,
  "commit": "3893460"
}
