{
  "transactions": [
    {
      "hash": "0x30729c00f1210e7333827fe7ed53312f7b4abf0a1af62bb6301151fb44d15539",
      "transactionType": "CALL",
      "contractName": null,
      "contractAddress": "0xd925c84b55e4e44a53749ff5f2a5a13f63d128fd",
      "function": "setPeer(uint16,bytes32,uint8,uint256)",
      "arguments": [
        "10002",
        "0x000000000000000000000000d925c84b55e4e44a53749ff5f2a5a13f63d128fd",
        "6",
        "0"
      ],
      "transaction": {
        "from": "0xf2f1acbe0ba726fee8d75f3e32900526874740bb",
        "to": "0xd925c84b55e4e44a53749ff5f2a5a13f63d128fd",
        "gas": "0x1cb3d",
        "value": "0x0",
        "input": "0x7c9186340000000000000000000000000000000000000000000000000000000000002712000000000000000000000000d925c84b55e4e44a53749ff5f2a5a13f63d128fd00000000000000000000000000000000000000000000000000000000000000060000000000000000000000000000000000000000000000000000000000000000",
        "nonce": "0x2b",
        "chainId": "0x14a34"
      },
      "additionalContracts": [],
      "isFixedGasLimit": false
    },
    {
      "hash": "0x7353a0d741107f048f4f6150cdbfbb742a1b030b4f4290574b7b1763a204db46",
      "transactionType": "CALL",
      "contractName": null,
      "contractAddress": "0xd925c84b55e4e44a53749ff5f2a5a13f63d128fd",
      "function": "setDestinationMToken(uint16,bytes32)",
      "arguments": [
        "10002",
        "0x000000000000000000000000866a2bf4e572cbcf37d5071a7a58503bfb36be1b"
      ],
      "transaction": {
        "from": "0xf2f1acbe0ba726fee8d75f3e32900526874740bb",
        "to": "0xd925c84b55e4e44a53749ff5f2a5a13f63d128fd",
        "gas": "0x11d17",
        "value": "0x0",
        "input": "0x76a4a5390000000000000000000000000000000000000000000000000000000000002712000000000000000000000000866a2bf4e572cbcf37d5071a7a58503bfb36be1b",
        "nonce": "0x2c",
        "chainId": "0x14a34"
      },
      "additionalContracts": [],
      "isFixedGasLimit": false
    },
    {
      "hash": "0x4179be28efb095b5322ff27eccfd1fae1a1a11be66fbf7352b75dbdedfd603ad",
      "transactionType": "CALL",
      "contractName": null,
      "contractAddress": "0xd925c84b55e4e44a53749ff5f2a5a13f63d128fd",
      "function": "setSupportedBridgingPath(address,uint16,bytes32,bool)",
      "arguments": [
        "0x866A2BF4E572CbcF37D5071A7a58503Bfb36be1b",
        "10002",
        "0x000000000000000000000000866a2bf4e572cbcf37d5071a7a58503bfb36be1b",
        "true"
      ],
      "transaction": {
        "from": "0xf2f1acbe0ba726fee8d75f3e32900526874740bb",
        "to": "0xd925c84b55e4e44a53749ff5f2a5a13f63d128fd",
        "gas": "0x13524",
        "value": "0x0",
        "input": "0x1482cb4a000000000000000000000000866a2bf4e572cbcf37d5071a7a58503bfb36be1b0000000000000000000000000000000000000000000000000000000000002712000000000000000000000000866a2bf4e572cbcf37d5071a7a58503bfb36be1b0000000000000000000000000000000000000000000000000000000000000001",
        "nonce": "0x2d",
        "chainId": "0x14a34"
      },
      "additionalContracts": [],
      "isFixedGasLimit": false
    },
    {
      "hash": "0x99abc7393ecd729726c1086b8857c79a08762cc1dba477f85ed668cdd58a2f1e",
      "transactionType": "CALL",
      "contractName": null,
      "contractAddress": "0xd925c84b55e4e44a53749ff5f2a5a13f63d128fd",
      "function": "setSupportedBridgingPath(address,uint16,bytes32,bool)",
      "arguments": [
        "0x866A2BF4E572CbcF37D5071A7a58503Bfb36be1b",
        "10002",
        "0x000000000000000000000000437cc33344a0b27a429f795ff6b469c72698b291",
        "true"
      ],
      "transaction": {
        "from": "0xf2f1acbe0ba726fee8d75f3e32900526874740bb",
        "to": "0xd925c84b55e4e44a53749ff5f2a5a13f63d128fd",
        "gas": "0x13524",
        "value": "0x0",
        "input": "0x1482cb4a000000000000000000000000866a2bf4e572cbcf37d5071a7a58503bfb36be1b0000000000000000000000000000000000000000000000000000000000002712000000000000000000000000437cc33344a0b27a429f795ff6b469c72698b2910000000000000000000000000000000000000000000000000000000000000001",
        "nonce": "0x2e",
        "chainId": "0x14a34"
      },
      "additionalContracts": [],
      "isFixedGasLimit": false
    },
    {
      "hash": "0x264dd6ac8fbe0bc38c22fbefe16210fe0dc105111c12aaebfeb7416eb3e1eb3a",
      "transactionType": "CALL",
      "contractName": null,
      "contractAddress": "0xd925c84b55e4e44a53749ff5f2a5a13f63d128fd",
      "function": "setSupportedBridgingPath(address,uint16,bytes32,bool)",
      "arguments": [
        "0x437cc33344a0B27A429f795ff6B469C72698B291",
        "10002",
        "0x000000000000000000000000866a2bf4e572cbcf37d5071a7a58503bfb36be1b",
        "true"
      ],
      "transaction": {
        "from": "0xf2f1acbe0ba726fee8d75f3e32900526874740bb",
        "to": "0xd925c84b55e4e44a53749ff5f2a5a13f63d128fd",
        "gas": "0x13524",
        "value": "0x0",
        "input": "0x1482cb4a000000000000000000000000437cc33344a0b27a429f795ff6b469c72698b2910000000000000000000000000000000000000000000000000000000000002712000000000000000000000000866a2bf4e572cbcf37d5071a7a58503bfb36be1b0000000000000000000000000000000000000000000000000000000000000001",
        "nonce": "0x2f",
        "chainId": "0x14a34"
      },
      "additionalContracts": [],
      "isFixedGasLimit": false
    },
    {
      "hash": "0x0496f522179bc9fa5e03c0b55e054fb6a92f1fc76640e9eb046aeebb598f00b8",
      "transactionType": "CALL",
      "contractName": null,
      "contractAddress": "0xd925c84b55e4e44a53749ff5f2a5a13f63d128fd",
      "function": "setSupportedBridgingPath(address,uint16,bytes32,bool)",
      "arguments": [
        "0x437cc33344a0B27A429f795ff6B469C72698B291",
        "10002",
        "0x000000000000000000000000437cc33344a0b27a429f795ff6b469c72698b291",
        "true"
      ],
      "transaction": {
        "from": "0xf2f1acbe0ba726fee8d75f3e32900526874740bb",
        "to": "0xd925c84b55e4e44a53749ff5f2a5a13f63d128fd",
        "gas": "0x13524",
        "value": "0x0",
        "input": "0x1482cb4a000000000000000000000000437cc33344a0b27a429f795ff6b469c72698b2910000000000000000000000000000000000000000000000000000000000002712000000000000000000000000437cc33344a0b27a429f795ff6b469c72698b2910000000000000000000000000000000000000000000000000000000000000001",
        "nonce": "0x30",
        "chainId": "0x14a34"
      },
      "additionalContracts": [],
      "isFixedGasLimit": false
    },
    {
      "hash": "0x4d3d434fc0549c8437ba324cf6990bac3ae522d6371399ea1f32efec1e9f79e3",
      "transactionType": "CALL",
      "contractName": "ERC1967Proxy",
      "contractAddress": "0x0763196a091575adf99e2306e5e90e0be5154841",
      "function": null,
      "arguments": null,
      "transaction": {
        "from": "0xf2f1acbe0ba726fee8d75f3e32900526874740bb",
        "to": "0x0763196a091575adf99e2306e5e90e0be5154841",
        "gas": "0x12b75",
        "value": "0x0",
        "input": "0x657b3b2f00000000000000000000000000000000000000000000000000000000000027120000000000000000000000000000000000000000000000000000000000000001",
        "nonce": "0x31",
        "chainId": "0x14a34"
      },
      "additionalContracts": [],
      "isFixedGasLimit": false
    },
    {
      "hash": "0xa0a66cd453cd8c7a91760351e8e83bd5c2d6e5740fcc0eeffd7383ca4e959eb8",
      "transactionType": "CALL",
      "contractName": "ERC1967Proxy",
      "contractAddress": "0x0763196a091575adf99e2306e5e90e0be5154841",
      "function": null,
      "arguments": null,
      "transaction": {
        "from": "0xf2f1acbe0ba726fee8d75f3e32900526874740bb",
        "to": "0x0763196a091575adf99e2306e5e90e0be5154841",
        "gas": "0x1a247",
        "value": "0x0",
        "input": "0x7ab5640300000000000000000000000000000000000000000000000000000000000027120000000000000000000000000763196a091575adf99e2306e5e90e0be5154841",
        "nonce": "0x32",
        "chainId": "0x14a34"
      },
      "additionalContracts": [],
      "isFixedGasLimit": false
    },
    {
      "hash": "0xfc9780693d0db951bf4debd94398c8c4a59ca5283e3342194ef107c57a43772d",
      "transactionType": "CALL",
      "contractName": "ERC1967Proxy",
      "contractAddress": "0x0763196a091575adf99e2306e5e90e0be5154841",
      "function": null,
      "arguments": null,
      "transaction": {
        "from": "0xf2f1acbe0ba726fee8d75f3e32900526874740bb",
        "to": "0x0763196a091575adf99e2306e5e90e0be5154841",
        "gas": "0x11c5d",
        "value": "0x0",
        "input": "0x96dddc6300000000000000000000000000000000000000000000000000000000000027120000000000000000000000000000000000000000000000000000000000000001",
        "nonce": "0x33",
        "chainId": "0x14a34"
      },
      "additionalContracts": [],
      "isFixedGasLimit": false
    }
  ],
  "receipts": [
    {
      "status": "0x1",
      "cumulativeGasUsed": "0xdb56f",
      "logs": [
        {
          "address": "0xd925c84b55e4e44a53749ff5f2a5a13f63d128fd",
          "topics": [
            "0x1456404e7f41f35c3daac941bb50bad417a66275c3040061b4287d787719599d",
            "0x0000000000000000000000000000000000000000000000000000000000002712"
          ],
          "data": "0x00000000000000000000000000000000000000000000000000000000000000000000000000000000000000000000000000000000000000000000000000000000000000000000000000000000d925c84b55e4e44a53749ff5f2a5a13f63d128fd0000000000000000000000000000000000000000000000000000000000000006",
          "blockHash": "0xa6402fc63c1cba0723ba765ed715dab65356ad4403b49da58c612d62c2f20e6c",
          "blockNumber": "0x1f86af3",
          "blockTimestamp": "0x690434c6",
          "transactionHash": "0x30729c00f1210e7333827fe7ed53312f7b4abf0a1af62bb6301151fb44d15539",
          "transactionIndex": "0x3",
          "logIndex": "0x29",
          "removed": false
        }
      ],
      "logsBloom": "0x00000000000000000000000000000000000000000000000000000000000000000000000000000000002000000000000000000000000000000000000000000000000000000000000000000000000000000000000000024000000000000000000000002000000000000000000000000000000000000000000000000000000000000000000000000000000008000000000000000000000000000000000000000008000000000000000000000040000000000000000000000000000000000000080000400000000000000000000000000000000000000000000000000000000000000000000000000000000000000000000000000000000000000000000000000000",
      "type": "0x2",
      "transactionHash": "0x30729c00f1210e7333827fe7ed53312f7b4abf0a1af62bb6301151fb44d15539",
      "transactionIndex": "0x3",
      "blockHash": "0xa6402fc63c1cba0723ba765ed715dab65356ad4403b49da58c612d62c2f20e6c",
      "blockNumber": "0x1f86af3",
      "gasUsed": "0x14c7c",
      "effectiveGasPrice": "0xf4295",
      "from": "0xf2f1acbe0ba726fee8d75f3e32900526874740bb",
      "to": "0xd925c84b55e4e44a53749ff5f2a5a13f63d128fd",
      "contractAddress": null,
      "l1BaseFeeScalar": "0x44d",
      "l1BlobBaseFee": "0x1",
      "l1BlobBaseFeeScalar": "0xa118b",
      "l1Fee": "0x50",
      "l1GasPrice": "0x8",
      "l1GasUsed": "0x640"
    },
    {
      "status": "0x1",
      "cumulativeGasUsed": "0x2ca4e1",
      "logs": [
        {
          "address": "0xd925c84b55e4e44a53749ff5f2a5a13f63d128fd",
          "topics": [
            "0xe6658eeba76934cef78dc5f420ee40406e4876e8d3e767f7b700c63daf1bf0ba",
            "0x0000000000000000000000000000000000000000000000000000000000002712"
          ],
          "data": "0x000000000000000000000000866a2bf4e572cbcf37d5071a7a58503bfb36be1b",
          "blockHash": "0xcf6e1891bd325306939fecc6e78c27fe5f22cccae42879b2be35b1ed6780f0e6",
          "blockNumber": "0x1f86af4",
          "blockTimestamp": "0x690434c8",
          "transactionHash": "0x7353a0d741107f048f4f6150cdbfbb742a1b030b4f4290574b7b1763a204db46",
          "transactionIndex": "0xf",
          "logIndex": "0x53",
          "removed": false
        }
      ],
      "logsBloom": "0x00000000000000000000000000000000000000000000000000000000000000000000000000000000000000000000000000000000000000000000000000000000000000000000000000000000002000000000000000024000000000000000000000000000000000000000000000000000000000000000000000000000000000000000000000000000000000000000000000000000000000000000000000000008000080000000000000000040000000000000000000000000000000000000080000400000000020000000000000000000000000000000000000000000000000000000000000000000000000000000000000000000000000000000000000000000",
      "type": "0x2",
      "transactionHash": "0x7353a0d741107f048f4f6150cdbfbb742a1b030b4f4290574b7b1763a204db46",
      "transactionIndex": "0xf",
      "blockHash": "0xcf6e1891bd325306939fecc6e78c27fe5f22cccae42879b2be35b1ed6780f0e6",
      "blockNumber": "0x1f86af4",
      "gasUsed": "0xce67",
      "effectiveGasPrice": "0xf4295",
      "from": "0xf2f1acbe0ba726fee8d75f3e32900526874740bb",
      "to": "0xd925c84b55e4e44a53749ff5f2a5a13f63d128fd",
      "contractAddress": null,
      "l1BaseFeeScalar": "0x44d",
      "l1BlobBaseFee": "0x1",
      "l1BlobBaseFeeScalar": "0xa118b",
      "l1Fee": "0x50",
      "l1GasPrice": "0x8",
      "l1GasUsed": "0x640"
    },
    {
      "status": "0x1",
      "cumulativeGasUsed": "0xd79d43",
      "logs": [
        {
          "address": "0xd925c84b55e4e44a53749ff5f2a5a13f63d128fd",
          "topics": [
            "0xeb8377c150d1438121333afa2027232605a400b1208ae6f9cfa156438e453f6d",
            "0x000000000000000000000000866a2bf4e572cbcf37d5071a7a58503bfb36be1b",
            "0x0000000000000000000000000000000000000000000000000000000000002712",
            "0x000000000000000000000000866a2bf4e572cbcf37d5071a7a58503bfb36be1b"
          ],
          "data": "0x0000000000000000000000000000000000000000000000000000000000000001",
          "blockHash": "0xdb70c30d0d0e95ab2a80abbbbdbbb428d934cddfb780f254ea56c2f8b6e43466",
          "blockNumber": "0x1f86af5",
          "blockTimestamp": "0x690434ca",
          "transactionHash": "0x4179be28efb095b5322ff27eccfd1fae1a1a11be66fbf7352b75dbdedfd603ad",
          "transactionIndex": "0x11",
          "logIndex": "0x101",
          "removed": false
        }
      ],
      "logsBloom": "0x00000008000000000000000000000000000000000000000000000000000000000000000000000000000000000000000000000000000000000000000000000000800000000000000000000000000000000000000000024000000000000000000000000000000000000000000000000000000000000000000100000000000000000000000000000000000000000040000000000000000000000000000000000008000000000000000000000040008000000000000000000000000000000000080000400000000400000000000000000000000000000000000000000000000000000000000000000000000000000000000000000000000000000000000000000000",
      "type": "0x2",
      "transactionHash": "0x4179be28efb095b5322ff27eccfd1fae1a1a11be66fbf7352b75dbdedfd603ad",
      "transactionIndex": "0x11",
      "blockHash": "0xdb70c30d0d0e95ab2a80abbbbdbbb428d934cddfb780f254ea56c2f8b6e43466",
      "blockNumber": "0x1f86af5",
      "gasUsed": "0xd361",
      "effectiveGasPrice": "0xf4294",
      "from": "0xf2f1acbe0ba726fee8d75f3e32900526874740bb",
      "to": "0xd925c84b55e4e44a53749ff5f2a5a13f63d128fd",
      "contractAddress": null,
      "l1BaseFeeScalar": "0x44d",
      "l1BlobBaseFee": "0x1",
      "l1BlobBaseFeeScalar": "0xa118b",
      "l1Fee": "0x50",
      "l1GasPrice": "0x8",
      "l1GasUsed": "0x640"
    },
    {
      "status": "0x1",
      "cumulativeGasUsed": "0x550ac7",
      "logs": [
        {
          "address": "0xd925c84b55e4e44a53749ff5f2a5a13f63d128fd",
          "topics": [
            "0xeb8377c150d1438121333afa2027232605a400b1208ae6f9cfa156438e453f6d",
            "0x000000000000000000000000866a2bf4e572cbcf37d5071a7a58503bfb36be1b",
            "0x0000000000000000000000000000000000000000000000000000000000002712",
            "0x000000000000000000000000437cc33344a0b27a429f795ff6b469c72698b291"
          ],
          "data": "0x0000000000000000000000000000000000000000000000000000000000000001",
          "blockHash": "0xcd5767e9949e462d01ac88cdb48c4717383458fec64bf3f74166b6dbe8d30f7e",
          "blockNumber": "0x1f86af6",
          "blockTimestamp": "0x690434cc",
          "transactionHash": "0x99abc7393ecd729726c1086b8857c79a08762cc1dba477f85ed668cdd58a2f1e",
          "transactionIndex": "0x12",
          "logIndex": "0x97",
          "removed": false
        }
      ],
      "logsBloom": "0x00000008000002000000000000000000000000000000000000000000000000000000000000000000000000000000000000000000000000000000000000000000800000000000000000000000000000000000000000024000000000000000000000000000000000000000000000000000000000000000000100000000000000000000000000000000000000000040000000000000000000000000000000000008000000000000000000000040008000000000000000020000000000000000080000400000000400000000000000000000000000000000000000000000000000200000000000000000000000000000000000000000000000000000000000000000",
      "type": "0x2",
      "transactionHash": "0x99abc7393ecd729726c1086b8857c79a08762cc1dba477f85ed668cdd58a2f1e",
      "transactionIndex": "0x12",
      "blockHash": "0xcd5767e9949e462d01ac88cdb48c4717383458fec64bf3f74166b6dbe8d30f7e",
      "blockNumber": "0x1f86af6",
      "gasUsed": "0xd361",
      "effectiveGasPrice": "0xf4294",
      "from": "0xf2f1acbe0ba726fee8d75f3e32900526874740bb",
      "to": "0xd925c84b55e4e44a53749ff5f2a5a13f63d128fd",
      "contractAddress": null,
      "l1BaseFeeScalar": "0x44d",
      "l1BlobBaseFee": "0x1",
      "l1BlobBaseFeeScalar": "0xa118b",
      "l1Fee": "0x50",
      "l1GasPrice": "0x8",
      "l1GasUsed": "0x710"
    },
    {
      "status": "0x1",
      "cumulativeGasUsed": "0x482f78",
      "logs": [
        {
          "address": "0xd925c84b55e4e44a53749ff5f2a5a13f63d128fd",
          "topics": [
            "0xeb8377c150d1438121333afa2027232605a400b1208ae6f9cfa156438e453f6d",
            "0x000000000000000000000000437cc33344a0b27a429f795ff6b469c72698b291",
            "0x0000000000000000000000000000000000000000000000000000000000002712",
            "0x000000000000000000000000866a2bf4e572cbcf37d5071a7a58503bfb36be1b"
          ],
          "data": "0x0000000000000000000000000000000000000000000000000000000000000001",
          "blockHash": "0x86a63d93b48521828e36925b924e74cfb01821d95ccb3100be56bdd8e536b9c7",
          "blockNumber": "0x1f86af7",
          "blockTimestamp": "0x690434ce",
          "transactionHash": "0x264dd6ac8fbe0bc38c22fbefe16210fe0dc105111c12aaebfeb7416eb3e1eb3a",
          "transactionIndex": "0xc",
          "logIndex": "0x42",
          "removed": false
        }
      ],
      "logsBloom": "0x00000008000002000000000000000000000000000000000000000000000000000000000000000000000000000000000000000000000000000000000000000000800000000000000000000000000000000000000000024000000000000000000000000000000000000000000000000000000000000000000100000000000000000000000000000000000000000040000000000000000000000000000000000008000000000000000000000040008000000000000000020000000000000000080000400000000400000000000000000000000000000000000000000000000000200000000000000000000000000000000000000000000000000000000000000000",
      "type": "0x2",
      "transactionHash": "0x264dd6ac8fbe0bc38c22fbefe16210fe0dc105111c12aaebfeb7416eb3e1eb3a",
      "transactionIndex": "0xc",
      "blockHash": "0x86a63d93b48521828e36925b924e74cfb01821d95ccb3100be56bdd8e536b9c7",
      "blockNumber": "0x1f86af7",
      "gasUsed": "0xd361",
      "effectiveGasPrice": "0xf4294",
      "from": "0xf2f1acbe0ba726fee8d75f3e32900526874740bb",
      "to": "0xd925c84b55e4e44a53749ff5f2a5a13f63d128fd",
      "contractAddress": null,
      "l1BaseFeeScalar": "0x44d",
      "l1BlobBaseFee": "0x1",
      "l1BlobBaseFeeScalar": "0xa118b",
      "l1Fee": "0x50",
      "l1GasPrice": "0x8",
      "l1GasUsed": "0x710"
    },
    {
      "status": "0x1",
      "cumulativeGasUsed": "0x2bf3d8",
      "logs": [
        {
          "address": "0xd925c84b55e4e44a53749ff5f2a5a13f63d128fd",
          "topics": [
            "0xeb8377c150d1438121333afa2027232605a400b1208ae6f9cfa156438e453f6d",
            "0x000000000000000000000000437cc33344a0b27a429f795ff6b469c72698b291",
            "0x0000000000000000000000000000000000000000000000000000000000002712",
            "0x000000000000000000000000437cc33344a0b27a429f795ff6b469c72698b291"
          ],
          "data": "0x0000000000000000000000000000000000000000000000000000000000000001",
          "blockHash": "0xe8653929378bb941637814bb0669b4c06cb63c0e544f69de478b823d516c916f",
          "blockNumber": "0x1f86af8",
          "blockTimestamp": "0x690434d0",
          "transactionHash": "0x0496f522179bc9fa5e03c0b55e054fb6a92f1fc76640e9eb046aeebb598f00b8",
          "transactionIndex": "0xe",
          "logIndex": "0x64",
          "removed": false
        }
      ],
      "logsBloom": "0x00000008000002000000000000000000000000000000000000000000000000000000000000000000000000000000000000000000000000000000000000000000800000000000000000000000000000000000000000024000000000000000000000000000000000000000000000000000000000000000000000000000000000000000000000000000000000000000000000000000000000000000000000000008000000000000000000000040008000000000000000020000000000000000080000400000000000000000000000000000000000000000000000000000000000200000000000000000000000000000000000000000000000000000000000000000",
      "type": "0x2",
      "transactionHash": "0x0496f522179bc9fa5e03c0b55e054fb6a92f1fc76640e9eb046aeebb598f00b8",
      "transactionIndex": "0xe",
      "blockHash": "0xe8653929378bb941637814bb0669b4c06cb63c0e544f69de478b823d516c916f",
      "blockNumber": "0x1f86af8",
      "gasUsed": "0xd361",
      "effectiveGasPrice": "0xf4295",
      "from": "0xf2f1acbe0ba726fee8d75f3e32900526874740bb",
      "to": "0xd925c84b55e4e44a53749ff5f2a5a13f63d128fd",
      "contractAddress": null,
      "l1BaseFeeScalar": "0x44d",
      "l1BlobBaseFee": "0x1",
      "l1BlobBaseFeeScalar": "0xa118b",
      "l1Fee": "0x50",
      "l1GasPrice": "0x8",
      "l1GasUsed": "0x640"
    },
    {
      "status": "0x1",
      "cumulativeGasUsed": "0x863384",
      "logs": [
        {
          "address": "0x0763196a091575adf99e2306e5e90e0be5154841",
          "topics": [
            "0x528b18a533e892b5401d1fb63597275df9d2bb45b13e7695c3147cd07b9746c3"
          ],
          "data": "0x00000000000000000000000000000000000000000000000000000000000027120000000000000000000000000000000000000000000000000000000000000001",
          "blockHash": "0xfa7e7d5fe902094e60bba910e136113850e2c835b1eab2742bb36b82f6c3fa95",
          "blockNumber": "0x1f86af9",
          "blockTimestamp": "0x690434d2",
          "transactionHash": "0x4d3d434fc0549c8437ba324cf6990bac3ae522d6371399ea1f32efec1e9f79e3",
          "transactionIndex": "0x7",
          "logIndex": "0x11f",
          "removed": false
        }
      ],
      "logsBloom": "0x00000000000000000000000000000000000000000000000000000000000080000000000000400000000000000000000000000000000000000000000000000000000000000000000000000000800000000000000000000000000000000001000000000000000000001000000000000000000000000000000000000000000000000000000000000000000000000000000000000000000000000000000000000000002000000000000000000000000000000000000000000000000000000000000000000000000000000000000000000000000000000000000000000000000000000000000000000000000000000000000000000000000000000000000000000000",
      "type": "0x2",
      "transactionHash": "0x4d3d434fc0549c8437ba324cf6990bac3ae522d6371399ea1f32efec1e9f79e3",
      "transactionIndex": "0x7",
      "blockHash": "0xfa7e7d5fe902094e60bba910e136113850e2c835b1eab2742bb36b82f6c3fa95",
      "blockNumber": "0x1f86af9",
      "gasUsed": "0xccc2",
      "effectiveGasPrice": "0xf4294",
      "from": "0xf2f1acbe0ba726fee8d75f3e32900526874740bb",
      "to": "0x0763196a091575adf99e2306e5e90e0be5154841",
      "contractAddress": null,
      "l1BaseFeeScalar": "0x44d",
      "l1BlobBaseFee": "0x1",
      "l1BlobBaseFeeScalar": "0xa118b",
      "l1Fee": "0x54",
      "l1GasPrice": "0x8",
      "l1GasUsed": "0x640"
    },
    {
      "status": "0x1",
      "cumulativeGasUsed": "0x2a8ddb",
      "logs": [
        {
          "address": "0x79a1027a6a159502049f10906d333ec57e95f083",
          "topics": [
            "0x6eb224fb001ed210e379b335e35efe88672a8ce935d981a6896b27ffdf52a3b2",
            "0x0000000000000000000000000763196a091575adf99e2306e5e90e0be5154841"
          ],
          "data": "0x00000000000000000000000000000000000000000000000000000000000000010000000000000000000000000000000000000000000000000000000000000000000000000000000000000000000000000000000000000000000000000000008000000000000000000000000000000000000000000000000000000000000000c8000000000000000000000000000000000000000000000000000000000000002618fc67c227120000000000000000000000000763196a091575adf99e2306e5e90e0be51548410000000000000000000000000000000000000000000000000000",
          "blockHash": "0x96f63dc0b3673841af5cf1c96b1d84653beb57500cb1d8076eb6eb1ae3ef1676",
          "blockNumber": "0x1f86afa",
          "blockTimestamp": "0x690434d4",
          "transactionHash": "0xa0a66cd453cd8c7a91760351e8e83bd5c2d6e5740fcc0eeffd7383ca4e959eb8",
          "transactionIndex": "0xf",
          "logIndex": "0x52",
          "removed": false
        },
        {
          "address": "0x0763196a091575adf99e2306e5e90e0be5154841",
          "topics": [
            "0xa559263ee060c7a2560843b3a064ff0376c9753ae3e2449b595a3b615d326466"
          ],
          "data": "0x00000000000000000000000000000000000000000000000000000000000027120000000000000000000000000763196a091575adf99e2306e5e90e0be5154841",
          "blockHash": "0x96f63dc0b3673841af5cf1c96b1d84653beb57500cb1d8076eb6eb1ae3ef1676",
          "blockNumber": "0x1f86afa",
          "blockTimestamp": "0x690434d4",
          "transactionHash": "0xa0a66cd453cd8c7a91760351e8e83bd5c2d6e5740fcc0eeffd7383ca4e959eb8",
          "transactionIndex": "0xf",
          "logIndex": "0x53",
          "removed": false
        }
      ],
      "logsBloom": "0x00000000000100000000000000000000000000000000000000000000000000000010000000000000000000000010000000000000000000000000000000000000000000000000000000000000000000000000000100000000000000000001000000000000000000001000000000000000000000000000000000000000000000000000000000000000000000000000000000000000000000000000000000000000002000000400000000000000000100000000044000000000000000008000000000000000000000000000000000000000400000000000000000000000000000000000000000000000210000000000000000000000000000000000000000000000",
      "type": "0x2",
      "transactionHash": "0xa0a66cd453cd8c7a91760351e8e83bd5c2d6e5740fcc0eeffd7383ca4e959eb8",
      "transactionIndex": "0xf",
      "blockHash": "0x96f63dc0b3673841af5cf1c96b1d84653beb57500cb1d8076eb6eb1ae3ef1676",
      "blockNumber": "0x1f86afa",
      "gasUsed": "0x12ed4",
      "effectiveGasPrice": "0xf4294",
      "from": "0xf2f1acbe0ba726fee8d75f3e32900526874740bb",
      "to": "0x0763196a091575adf99e2306e5e90e0be5154841",
      "contractAddress": null,
      "l1BaseFeeScalar": "0x44d",
      "l1BlobBaseFee": "0x1",
      "l1BlobBaseFeeScalar": "0xa118b",
      "l1Fee": "0x50",
      "l1GasPrice": "0x8",
      "l1GasUsed": "0x640"
    },
    {
      "status": "0x1",
      "cumulativeGasUsed": "0xb0e857",
      "logs": [
        {
          "address": "0x0763196a091575adf99e2306e5e90e0be5154841",
          "topics": [
            "0x4add57d97a7bf5035340ea1212aeeb3d4d3887eb1faf3821a8224c3a6956a10c"
          ],
          "data": "0x00000000000000000000000000000000000000000000000000000000000027120000000000000000000000000000000000000000000000000000000000000001",
          "blockHash": "0x258e10040465102fba039f573b23d6c8c2d42342b5348309f2ad4c208c832957",
          "blockNumber": "0x1f86afb",
          "blockTimestamp": "0x690434d6",
          "transactionHash": "0xfc9780693d0db951bf4debd94398c8c4a59ca5283e3342194ef107c57a43772d",
          "transactionIndex": "0x15",
          "logIndex": "0x113",
          "removed": false
        }
      ],
      "logsBloom": "0x00000000000000080000000000000000000000000000000000000000000000000000000000000000000000000000000000000000000000000000000000000000000000000000000000000000000000000000000000000000000000000001000000000000000000001000000000000000000000000000000000000080000000000000000000000000000000000000000000000000000000000000000000000000002000000000000000000000000000000000000000000000000000000000000000000000000000000000000000000000000000000000000000000000000000000000000000000000000000000000000000000040000000000000000000000000",
      "type": "0x2",
      "transactionHash": "0xfc9780693d0db951bf4debd94398c8c4a59ca5283e3342194ef107c57a43772d",
      "transactionIndex": "0x15",
      "blockHash": "0x258e10040465102fba039f573b23d6c8c2d42342b5348309f2ad4c208c832957",
      "blockNumber": "0x1f86afb",
      "gasUsed": "0xcde0",
      "effectiveGasPrice": "0xf4293",
      "from": "0xf2f1acbe0ba726fee8d75f3e32900526874740bb",
      "to": "0x0763196a091575adf99e2306e5e90e0be5154841",
      "contractAddress": null,
      "l1BaseFeeScalar": "0x44d",
      "l1BlobBaseFee": "0x1",
      "l1BlobBaseFeeScalar": "0xa118b",
      "l1Fee": "0xcf",
      "l1GasPrice": "0x8",
      "l1GasUsed": "0x640"
    }
  ],
  "libraries": [],
  "pending": [],
  "returns": {},
  "timestamp": 1761883349,
  "chain": 84532,
  "commit": "2573ad2"
}
