{
  "transactions": [
    {
      "hash": "0x98fc5dd162cf89b11ed893b2d9d2019147ea5ce1fdd8cce77fc58634201bed00",
      "transactionType": "CALL",
      "contractName": null,
      "contractAddress": "0xd925c84b55e4e44a53749ff5f2a5a13f63d128fd",
      "function": "setPeer(uint16,bytes32,uint8,uint256)",
      "arguments": [
        "1",
        "0x0b86ec181cd4c5c984e9062b13f2b2de7b9f5b5e68e84349231d6614cdf3f99f",
        "6",
        "0"
      ],
      "transaction": {
        "from": "0xf2f1acbe0ba726fee8d75f3e32900526874740bb",
        "to": "0xd925c84b55e4e44a53749ff5f2a5a13f63d128fd",
        "gas": "0x1cbf4",
        "value": "0x0",
        "input": "0x7c91863400000000000000000000000000000000000000000000000000000000000000010b86ec181cd4c5c984e9062b13f2b2de7b9f5b5e68e84349231d6614cdf3f99f00000000000000000000000000000000000000000000000000000000000000060000000000000000000000000000000000000000000000000000000000000000",
        "nonce": "0x4c",
        "chainId": "0x14a34"
      },
      "additionalContracts": [],
      "isFixedGasLimit": false
    },
    {
      "hash": "0x970729291471c3c78a3063841b6b919cc953950a584687f323c829b7fb143a72",
      "transactionType": "CALL",
      "contractName": null,
      "contractAddress": "0xd925c84b55e4e44a53749ff5f2a5a13f63d128fd",
      "function": "setDestinationMToken(uint16,bytes32)",
      "arguments": [
        "1",
        "0x0b86be66bfceb4c1d7e927bcc4d014be0f2863ab9df85fda610851b64dbd0ae5"
      ],
      "transaction": {
        "from": "0xf2f1acbe0ba726fee8d75f3e32900526874740bb",
        "to": "0xd925c84b55e4e44a53749ff5f2a5a13f63d128fd",
        "gas": "0x12e9d",
        "value": "0x0",
        "input": "0x76a4a53900000000000000000000000000000000000000000000000000000000000000010b86be66bfceb4c1d7e927bcc4d014be0f2863ab9df85fda610851b64dbd0ae5",
        "nonce": "0x4d",
        "chainId": "0x14a34"
      },
      "additionalContracts": [],
      "isFixedGasLimit": false
    },
    {
      "hash": "0xd2b494dcc5684f269124413d70ee00e0fecf794664d763cde18db1b727568857",
      "transactionType": "CALL",
      "contractName": null,
      "contractAddress": "0xd925c84b55e4e44a53749ff5f2a5a13f63d128fd",
      "function": "setSupportedBridgingPath(address,uint16,bytes32,bool)",
      "arguments": [
        "0x866A2BF4E572CbcF37D5071A7a58503Bfb36be1b",
        "1",
        "0x0b86be66bfceb4c1d7e927bcc4d014be0f2863ab9df85fda610851b64dbd0ae5",
        "true"
      ],
      "transaction": {
        "from": "0xf2f1acbe0ba726fee8d75f3e32900526874740bb",
        "to": "0xd925c84b55e4e44a53749ff5f2a5a13f63d128fd",
        "gas": "0x124ad",
        "value": "0x0",
        "input": "0x1482cb4a000000000000000000000000866a2bf4e572cbcf37d5071a7a58503bfb36be1b00000000000000000000000000000000000000000000000000000000000000010b86be66bfceb4c1d7e927bcc4d014be0f2863ab9df85fda610851b64dbd0ae50000000000000000000000000000000000000000000000000000000000000001",
        "nonce": "0x4e",
        "chainId": "0x14a34"
      },
      "additionalContracts": [],
      "isFixedGasLimit": false
    },
    {
      "hash": "0x7e5c1c9aa52ea5d75867215d121f01c447494f779410a5d1ede1a1e9b00e74ed",
      "transactionType": "CALL",
      "contractName": null,
      "contractAddress": "0xd925c84b55e4e44a53749ff5f2a5a13f63d128fd",
      "function": "setSupportedBridgingPath(address,uint16,bytes32,bool)",
      "arguments": [
        "0x866A2BF4E572CbcF37D5071A7a58503Bfb36be1b",
        "1",
        "0x0b86be66bc1f98b47d20a3be615a4905a825b826864e2a0f4c948467d33ee709",
        "true"
      ],
      "transaction": {
        "from": "0xf2f1acbe0ba726fee8d75f3e32900526874740bb",
        "to": "0xd925c84b55e4e44a53749ff5f2a5a13f63d128fd",
        "gas": "0x124ad",
        "value": "0x0",
        "input": "0x1482cb4a000000000000000000000000866a2bf4e572cbcf37d5071a7a58503bfb36be1b00000000000000000000000000000000000000000000000000000000000000010b86be66bc1f98b47d20a3be615a4905a825b826864e2a0f4c948467d33ee7090000000000000000000000000000000000000000000000000000000000000001",
        "nonce": "0x4f",
        "chainId": "0x14a34"
      },
      "additionalContracts": [],
      "isFixedGasLimit": false
    },
    {
      "hash": "0x6867dd9855d69a78271d293bfb7cb71caa497dcb18b5e354dc45229bfc05d2cb",
      "transactionType": "CALL",
      "contractName": null,
      "contractAddress": "0xd925c84b55e4e44a53749ff5f2a5a13f63d128fd",
      "function": "setSupportedBridgingPath(address,uint16,bytes32,bool)",
      "arguments": [
        "0x437cc33344a0B27A429f795ff6B469C72698B291",
        "1",
        "0x0b86be66bfceb4c1d7e927bcc4d014be0f2863ab9df85fda610851b64dbd0ae5",
        "true"
      ],
      "transaction": {
        "from": "0xf2f1acbe0ba726fee8d75f3e32900526874740bb",
        "to": "0xd925c84b55e4e44a53749ff5f2a5a13f63d128fd",
        "gas": "0x124ad",
        "value": "0x0",
        "input": "0x1482cb4a000000000000000000000000437cc33344a0b27a429f795ff6b469c72698b29100000000000000000000000000000000000000000000000000000000000000010b86be66bfceb4c1d7e927bcc4d014be0f2863ab9df85fda610851b64dbd0ae50000000000000000000000000000000000000000000000000000000000000001",
        "nonce": "0x50",
        "chainId": "0x14a34"
      },
      "additionalContracts": [],
      "isFixedGasLimit": false
    },
    {
      "hash": "0xde79ce214086c401246087dda806363c3acb4a6fded5c865f8aa5708d37c6735",
      "transactionType": "CALL",
      "contractName": null,
      "contractAddress": "0xd925c84b55e4e44a53749ff5f2a5a13f63d128fd",
      "function": "setSupportedBridgingPath(address,uint16,bytes32,bool)",
      "arguments": [
        "0x437cc33344a0B27A429f795ff6B469C72698B291",
        "1",
        "0x0b86be66bc1f98b47d20a3be615a4905a825b826864e2a0f4c948467d33ee709",
        "true"
      ],
      "transaction": {
        "from": "0xf2f1acbe0ba726fee8d75f3e32900526874740bb",
        "to": "0xd925c84b55e4e44a53749ff5f2a5a13f63d128fd",
        "gas": "0x124ad",
        "value": "0x0",
        "input": "0x1482cb4a000000000000000000000000437cc33344a0b27a429f795ff6b469c72698b29100000000000000000000000000000000000000000000000000000000000000010b86be66bc1f98b47d20a3be615a4905a825b826864e2a0f4c948467d33ee7090000000000000000000000000000000000000000000000000000000000000001",
        "nonce": "0x51",
        "chainId": "0x14a34"
      },
      "additionalContracts": [],
      "isFixedGasLimit": false
    },
    {
      "hash": "0x8916de638c71460bd8c2dfbad9ad0769d6647598b495c452379418495c377d47",
      "transactionType": "CALL",
      "contractName": null,
      "contractAddress": "0xd925c84b55e4e44a53749ff5f2a5a13f63d128fd",
      "function": "setSupportedBridgingPath(address,uint16,bytes32,bool)",
      "arguments": [
        "0x866A2BF4E572CbcF37D5071A7a58503Bfb36be1b",
        "1",
        "0x0d8b7427213bf00314ad7d773e51ed3158573ccbc8aa35181ba8169e54c37582",
        "true"
      ],
      "transaction": {
        "from": "0xf2f1acbe0ba726fee8d75f3e32900526874740bb",
        "to": "0xd925c84b55e4e44a53749ff5f2a5a13f63d128fd",
        "gas": "0x124ad",
        "value": "0x0",
        "input": "0x1482cb4a000000000000000000000000866a2bf4e572cbcf37d5071a7a58503bfb36be1b00000000000000000000000000000000000000000000000000000000000000010d8b7427213bf00314ad7d773e51ed3158573ccbc8aa35181ba8169e54c375820000000000000000000000000000000000000000000000000000000000000001",
        "nonce": "0x52",
        "chainId": "0x14a34"
      },
      "additionalContracts": [],
      "isFixedGasLimit": false
    },
    {
      "hash": "0x4a5eb925c30bf4b2e94df7da300c72ef3a950d1a52e708e5a375f35f1cc6ed54",
      "transactionType": "CALL",
      "contractName": null,
      "contractAddress": "0xd925c84b55e4e44a53749ff5f2a5a13f63d128fd",
      "function": "setSupportedBridgingPath(address,uint16,bytes32,bool)",
      "arguments": [
        "0x866A2BF4E572CbcF37D5071A7a58503Bfb36be1b",
        "1",
        "0x0d8b742f62a9c8a57ad10368e9dbbbeba3d31427e1ea84a4385da7ea2f0e3678",
        "true"
      ],
      "transaction": {
        "from": "0xf2f1acbe0ba726fee8d75f3e32900526874740bb",
        "to": "0xd925c84b55e4e44a53749ff5f2a5a13f63d128fd",
        "gas": "0x124ad",
        "value": "0x0",
        "input": "0x1482cb4a000000000000000000000000866a2bf4e572cbcf37d5071a7a58503bfb36be1b00000000000000000000000000000000000000000000000000000000000000010d8b742f62a9c8a57ad10368e9dbbbeba3d31427e1ea84a4385da7ea2f0e36780000000000000000000000000000000000000000000000000000000000000001",
        "nonce": "0x53",
        "chainId": "0x14a34"
      },
      "additionalContracts": [],
      "isFixedGasLimit": false
    },
    {
      "hash": "0x571f119601a020b594ec0daeb7873399ed6cb060a4d60f0626bde1dc4e799ea6",
      "transactionType": "CALL",
      "contractName": null,
      "contractAddress": "0xd925c84b55e4e44a53749ff5f2a5a13f63d128fd",
      "function": "setSupportedBridgingPath(address,uint16,bytes32,bool)",
      "arguments": [
        "0x437cc33344a0B27A429f795ff6B469C72698B291",
        "1",
        "0x0d8b7427213bf00314ad7d773e51ed3158573ccbc8aa35181ba8169e54c37582",
        "true"
      ],
      "transaction": {
        "from": "0xf2f1acbe0ba726fee8d75f3e32900526874740bb",
        "to": "0xd925c84b55e4e44a53749ff5f2a5a13f63d128fd",
        "gas": "0x124ad",
        "value": "0x0",
        "input": "0x1482cb4a000000000000000000000000437cc33344a0b27a429f795ff6b469c72698b29100000000000000000000000000000000000000000000000000000000000000010d8b7427213bf00314ad7d773e51ed3158573ccbc8aa35181ba8169e54c375820000000000000000000000000000000000000000000000000000000000000001",
        "nonce": "0x54",
        "chainId": "0x14a34"
      },
      "additionalContracts": [],
      "isFixedGasLimit": false
    },
    {
      "hash": "0x287b0f80f34fa19f9c16f49cb7c2534e4175c81e49f364831365a7b09eff4a0c",
      "transactionType": "CALL",
      "contractName": null,
      "contractAddress": "0xd925c84b55e4e44a53749ff5f2a5a13f63d128fd",
      "function": "setSupportedBridgingPath(address,uint16,bytes32,bool)",
      "arguments": [
        "0x437cc33344a0B27A429f795ff6B469C72698B291",
        "1",
        "0x0d8b742f62a9c8a57ad10368e9dbbbeba3d31427e1ea84a4385da7ea2f0e3678",
        "true"
      ],
      "transaction": {
        "from": "0xf2f1acbe0ba726fee8d75f3e32900526874740bb",
        "to": "0xd925c84b55e4e44a53749ff5f2a5a13f63d128fd",
        "gas": "0x124ad",
        "value": "0x0",
        "input": "0x1482cb4a000000000000000000000000437cc33344a0b27a429f795ff6b469c72698b29100000000000000000000000000000000000000000000000000000000000000010d8b742f62a9c8a57ad10368e9dbbbeba3d31427e1ea84a4385da7ea2f0e36780000000000000000000000000000000000000000000000000000000000000001",
        "nonce": "0x55",
        "chainId": "0x14a34"
      },
      "additionalContracts": [],
      "isFixedGasLimit": false
    },
    {
      "hash": "0xe3c4f78463c7dc0703fdca4c486d94ffc7c1dc89823d0c132d5113f10ceab124",
      "transactionType": "CALL",
      "contractName": "ERC1967Proxy",
      "contractAddress": "0x0763196a091575adf99e2306e5e90e0be5154841",
      "function": null,
      "arguments": null,
      "transaction": {
        "from": "0xf2f1acbe0ba726fee8d75f3e32900526874740bb",
        "to": "0x0763196a091575adf99e2306e5e90e0be5154841",
        "gas": "0x11a66",
        "value": "0x0",
        "input": "0x4b795b2100000000000000000000000000000000000000000000000000000000000000010000000000000000000000000000000000000000000000000000000000000001",
        "nonce": "0x56",
        "chainId": "0x14a34"
      },
      "additionalContracts": [],
      "isFixedGasLimit": false
    },
    {
      "hash": "0x56777e0d8be960f33a6ac3fc37c7a0e5cd91e135b70b3ca970629c07998facda",
      "transactionType": "CALL",
      "contractName": "ERC1967Proxy",
      "contractAddress": "0x0763196a091575adf99e2306e5e90e0be5154841",
      "function": null,
      "arguments": null,
      "transaction": {
        "from": "0xf2f1acbe0ba726fee8d75f3e32900526874740bb",
        "to": "0x0763196a091575adf99e2306e5e90e0be5154841",
        "gas": "0x1a2fd",
        "value": "0x0",
        "input": "0x7ab564030000000000000000000000000000000000000000000000000000000000000001fcbdac3b256685bd2cc3a97bfcd815fb76b8d33df924e607c409c0bce3fa1668",
        "nonce": "0x57",
        "chainId": "0x14a34"
      },
      "additionalContracts": [],
      "isFixedGasLimit": false
    }
  ],
  "receipts": [
    {
      "status": "0x1",
      "cumulativeGasUsed": "0x593a11",
      "logs": [
        {
          "address": "0xd925c84b55e4e44a53749ff5f2a5a13f63d128fd",
          "topics": [
            "0x1456404e7f41f35c3daac941bb50bad417a66275c3040061b4287d787719599d",
            "0x0000000000000000000000000000000000000000000000000000000000000001"
          ],
          "data": "0x000000000000000000000000000000000000000000000000000000000000000000000000000000000000000000000000000000000000000000000000000000000b86ec181cd4c5c984e9062b13f2b2de7b9f5b5e68e84349231d6614cdf3f99f0000000000000000000000000000000000000000000000000000000000000006",
          "blockHash": "0x4e6286e289de3e88c0372777e9420da59f9e6b85aa9d7708ef55702f7825a1f0",
          "blockNumber": "0x1f8cb2b",
          "blockTimestamp": "0x6904f536",
          "transactionHash": "0x98fc5dd162cf89b11ed893b2d9d2019147ea5ce1fdd8cce77fc58634201bed00",
          "transactionIndex": "0xe",
          "logIndex": "0x4d",
          "removed": false
        }
      ],
      "logsBloom": "0x00000000000000000000000000000000000000000000000000000000000000000000000000000000002000000000000000000000000000000000000000040000000000000000000000000000000000000000000000064000000000000000000000002000000000000000000000000000000000000000000000000000000000000000000000000000000008000000000000000000000000000000000000000000000000000000000000000000000000000000000000000000000000000000080000000000000000000000000000000000000000000000000000000000000040000000000000000000000000000000000000000000000000000000000000000000",
      "type": "0x2",
      "transactionHash": "0x98fc5dd162cf89b11ed893b2d9d2019147ea5ce1fdd8cce77fc58634201bed00",
      "transactionIndex": "0xe",
      "blockHash": "0x4e6286e289de3e88c0372777e9420da59f9e6b85aa9d7708ef55702f7825a1f0",
      "blockNumber": "0x1f8cb2b",
      "gasUsed": "0x14d00",
      "effectiveGasPrice": "0xf42fb",
      "from": "0xf2f1acbe0ba726fee8d75f3e32900526874740bb",
      "to": "0xd925c84b55e4e44a53749ff5f2a5a13f63d128fd",
      "contractAddress": null,
      "l1BaseFeeScalar": "0x44d",
      "l1BlobBaseFee": "0x1",
      "l1BlobBaseFeeScalar": "0xa118b",
      "l1Fee": "0x53",
      "l1GasPrice": "0xa",
      "l1GasUsed": "0x647"
    },
    {
      "status": "0x1",
      "cumulativeGasUsed": "0x9d7d2b",
      "logs": [
        {
          "address": "0xd925c84b55e4e44a53749ff5f2a5a13f63d128fd",
          "topics": [
            "0xe6658eeba76934cef78dc5f420ee40406e4876e8d3e767f7b700c63daf1bf0ba",
            "0x0000000000000000000000000000000000000000000000000000000000000001"
          ],
          "data": "0x0b86be66bfceb4c1d7e927bcc4d014be0f2863ab9df85fda610851b64dbd0ae5",
          "blockHash": "0x0e1bff576f90336efae4f8a40f42c5d7801862e447d5e040cf0b17f7fc4e5ceb",
          "blockNumber": "0x1f8cb2c",
          "blockTimestamp": "0x6904f538",
          "transactionHash": "0x970729291471c3c78a3063841b6b919cc953950a584687f323c829b7fb143a72",
          "transactionIndex": "0x22",
          "logIndex": "0x154",
          "removed": false
        }
      ],
      "logsBloom": "0x00000000000000000000000000000000000000000000000000000000000000000000000000000000000000000000000000000000000000000000000000040000000000000000000000000000002000000000000000064000000000000000000000000000000000000000000000000000000000000000000000000000000000000000000000000000000000000000000000000000000000000000000000000000000080000000000000000000000000000000000000000000000000000000080000000000000020000000000000000000000000000000000000000000000040000000000000000000000000000000000000000000000000000000000000000000",
      "type": "0x2",
      "transactionHash": "0x970729291471c3c78a3063841b6b919cc953950a584687f323c829b7fb143a72",
      "transactionIndex": "0x22",
      "blockHash": "0x0e1bff576f90336efae4f8a40f42c5d7801862e447d5e040cf0b17f7fc4e5ceb",
      "blockNumber": "0x1f8cb2c",
      "gasUsed": "0xceeb",
      "effectiveGasPrice": "0xf42fc",
      "from": "0xf2f1acbe0ba726fee8d75f3e32900526874740bb",
      "to": "0xd925c84b55e4e44a53749ff5f2a5a13f63d128fd",
      "contractAddress": null,
      "l1BaseFeeScalar": "0x44d",
      "l1BlobBaseFee": "0x1",
      "l1BlobBaseFeeScalar": "0xa118b",
      "l1Fee": "0x53",
      "l1GasPrice": "0xa",
      "l1GasUsed": "0x640"
    },
    {
      "status": "0x1",
      "cumulativeGasUsed": "0xa1b48e",
      "logs": [
        {
          "address": "0xd925c84b55e4e44a53749ff5f2a5a13f63d128fd",
          "topics": [
            "0xeb8377c150d1438121333afa2027232605a400b1208ae6f9cfa156438e453f6d",
            "0x000000000000000000000000866a2bf4e572cbcf37d5071a7a58503bfb36be1b",
            "0x0000000000000000000000000000000000000000000000000000000000000001",
            "0x0b86be66bfceb4c1d7e927bcc4d014be0f2863ab9df85fda610851b64dbd0ae5"
          ],
          "data": "0x0000000000000000000000000000000000000000000000000000000000000001",
          "blockHash": "0xbc053473e55d7672e44a93100acf9d6bdc7a9a7711fc42dcb22ebca241f2ac2c",
          "blockNumber": "0x1f8cb2d",
          "blockTimestamp": "0x6904f53a",
          "transactionHash": "0xd2b494dcc5684f269124413d70ee00e0fecf794664d763cde18db1b727568857",
          "transactionIndex": "0x13",
          "logIndex": "0x11c",
          "removed": false
        }
      ],
      "logsBloom": "0x00000008000000000000000000000000000000000001000000000000000000000000000000000000000000000000000000200000000000000000000000040000800000000000000000000000000000000000000000064000000000000000000000000000000000000000000000000000000000000000000100000000000000000000000000000000000000000040000000000000000000000000000000000000000000000000000000000000008000000000000000000000000000000000080000000000000400000000000001000000000000000000000000000000000040000000000000000000000000000000000000000000000000000000000000000000",
      "type": "0x2",
      "transactionHash": "0xd2b494dcc5684f269124413d70ee00e0fecf794664d763cde18db1b727568857",
      "transactionIndex": "0x13",
      "blockHash": "0xbc053473e55d7672e44a93100acf9d6bdc7a9a7711fc42dcb22ebca241f2ac2c",
      "blockNumber": "0x1f8cb2d",
      "gasUsed": "0xd3e5",
      "effectiveGasPrice": "0xf42fd",
      "from": "0xf2f1acbe0ba726fee8d75f3e32900526874740bb",
      "to": "0xd925c84b55e4e44a53749ff5f2a5a13f63d128fd",
      "contractAddress": null,
      "l1BaseFeeScalar": "0x44d",
      "l1BlobBaseFee": "0x1",
      "l1BlobBaseFeeScalar": "0xa118b",
      "l1Fee": "0x6f",
      "l1GasPrice": "0xa",
      "l1GasUsed": "0x77b"
    },
    {
      "status": "0x1",
      "cumulativeGasUsed": "0x72f427",
      "logs": [
        {
          "address": "0xd925c84b55e4e44a53749ff5f2a5a13f63d128fd",
          "topics": [
            "0xeb8377c150d1438121333afa2027232605a400b1208ae6f9cfa156438e453f6d",
            "0x000000000000000000000000866a2bf4e572cbcf37d5071a7a58503bfb36be1b",
            "0x0000000000000000000000000000000000000000000000000000000000000001",
            "0x0b86be66bc1f98b47d20a3be615a4905a825b826864e2a0f4c948467d33ee709"
          ],
          "data": "0x0000000000000000000000000000000000000000000000000000000000000001",
          "blockHash": "0xdca043d038fb5315bac8be56554d3b1c8588f120dc422088cef36c79c2d37a89",
          "blockNumber": "0x1f8cb2e",
          "blockTimestamp": "0x6904f53c",
          "transactionHash": "0x7e5c1c9aa52ea5d75867215d121f01c447494f779410a5d1ede1a1e9b00e74ed",
          "transactionIndex": "0x15",
          "logIndex": "0x148",
          "removed": false
        }
      ],
      "logsBloom": "0x00000008000000000000000000000000000000000000000000000000000000000000000000000000000000000000000000008000000000000000000000040000800000000000000000000000000000000000000000064000000000000000200000000000000000000000000000000000000000000000000100000000000000000000000000000000000000000040000000000000000000000000000000000000000000000000000000000000008000000000000000000000000000000000080000000000000400000000000000000000000000000000000000000000000040001000000000000000000000000000000000000000000000000000000000000000",
      "type": "0x2",
      "transactionHash": "0x7e5c1c9aa52ea5d75867215d121f01c447494f779410a5d1ede1a1e9b00e74ed",
      "transactionIndex": "0x15",
      "blockHash": "0xdca043d038fb5315bac8be56554d3b1c8588f120dc422088cef36c79c2d37a89",
      "blockNumber": "0x1f8cb2e",
      "gasUsed": "0xd3e5",
      "effectiveGasPrice": "0xf42fe",
      "from": "0xf2f1acbe0ba726fee8d75f3e32900526874740bb",
      "to": "0xd925c84b55e4e44a53749ff5f2a5a13f63d128fd",
      "contractAddress": null,
      "l1BaseFeeScalar": "0x44d",
      "l1BlobBaseFee": "0x1",
      "l1BlobBaseFeeScalar": "0xa118b",
      "l1Fee": "0x53",
      "l1GasPrice": "0xa",
      "l1GasUsed": "0x77b"
    },
    {
      "status": "0x1",
      "cumulativeGasUsed": "0xd1b559",
      "logs": [
        {
          "address": "0xd925c84b55e4e44a53749ff5f2a5a13f63d128fd",
          "topics": [
            "0xeb8377c150d1438121333afa2027232605a400b1208ae6f9cfa156438e453f6d",
            "0x000000000000000000000000437cc33344a0b27a429f795ff6b469c72698b291",
            "0x0000000000000000000000000000000000000000000000000000000000000001",
            "0x0b86be66bfceb4c1d7e927bcc4d014be0f2863ab9df85fda610851b64dbd0ae5"
          ],
          "data": "0x0000000000000000000000000000000000000000000000000000000000000001",
          "blockHash": "0xa280e452988fc3db3c18371821b21be75c933bed0eec6242af30b61755ba02aa",
          "blockNumber": "0x1f8cb2f",
          "blockTimestamp": "0x6904f53e",
          "transactionHash": "0x6867dd9855d69a78271d293bfb7cb71caa497dcb18b5e354dc45229bfc05d2cb",
          "transactionIndex": "0x10",
          "logIndex": "0x14d",
          "removed": false
        }
      ],
      "logsBloom": "0x00000008000002000000000000000000000000000001000000000000000000000000000000000000000000000000000000200000000000000000000000040000800000000000000000000000000000000000000000064000000000000000000000000000000000000000000000000000000000000000000000000000000000000000000000000000000000000000000000000000000000000000000000000000000000000000000000000000008000000000000000020000000000000000080000000000000000000000000001000000000000000000000000000000000040200000000000000000000000000000000000000000000000000000000000000000",
      "type": "0x2",
      "transactionHash": "0x6867dd9855d69a78271d293bfb7cb71caa497dcb18b5e354dc45229bfc05d2cb",
      "transactionIndex": "0x10",
      "blockHash": "0xa280e452988fc3db3c18371821b21be75c933bed0eec6242af30b61755ba02aa",
      "blockNumber": "0x1f8cb2f",
      "gasUsed": "0xd3e5",
      "effectiveGasPrice": "0xf42fd",
      "from": "0xf2f1acbe0ba726fee8d75f3e32900526874740bb",
      "to": "0xd925c84b55e4e44a53749ff5f2a5a13f63d128fd",
      "contractAddress": null,
      "l1BaseFeeScalar": "0x44d",
      "l1BlobBaseFee": "0x1",
      "l1BlobBaseFeeScalar": "0xa118b",
      "l1Fee": "0x3bd",
      "l1GasPrice": "0xa",
      "l1GasUsed": "0x76d"
    },
    {
      "status": "0x1",
      "cumulativeGasUsed": "0x6155d1",
      "logs": [
        {
          "address": "0xd925c84b55e4e44a53749ff5f2a5a13f63d128fd",
          "topics": [
            "0xeb8377c150d1438121333afa2027232605a400b1208ae6f9cfa156438e453f6d",
            "0x000000000000000000000000437cc33344a0b27a429f795ff6b469c72698b291",
            "0x0000000000000000000000000000000000000000000000000000000000000001",
            "0x0b86be66bc1f98b47d20a3be615a4905a825b826864e2a0f4c948467d33ee709"
          ],
          "data": "0x0000000000000000000000000000000000000000000000000000000000000001",
          "blockHash": "0x27fd52c8cec8456697b14e0a608b5f86e16751e5f4b42961d49e9ff017898e99",
          "blockNumber": "0x1f8cb30",
          "blockTimestamp": "0x6904f540",
          "transactionHash": "0xde79ce214086c401246087dda806363c3acb4a6fded5c865f8aa5708d37c6735",
          "transactionIndex": "0x11",
          "logIndex": "0xc6",
          "removed": false
        }
      ],
      "logsBloom": "0x00000008000002000000000000000000000000000000000000000000000000000000000000000000000000000000000000008000000000000000000000040000800000000000000000000000000000000000000000064000000000000000200000000000000000000000000000000000000000000000000000000000000000000000000000000000000000000000000000000000000000000000000000000000000000000000000000000000008000000000000000020000000000000000080000000000000000000000000000000000000000000000000000000000000040201000000000000000000000000000000000000000000000000000000000000000",
      "type": "0x2",
      "transactionHash": "0xde79ce214086c401246087dda806363c3acb4a6fded5c865f8aa5708d37c6735",
      "transactionIndex": "0x11",
      "blockHash": "0x27fd52c8cec8456697b14e0a608b5f86e16751e5f4b42961d49e9ff017898e99",
      "blockNumber": "0x1f8cb30",
      "gasUsed": "0xd3e5",
      "effectiveGasPrice": "0xf42fe",
      "from": "0xf2f1acbe0ba726fee8d75f3e32900526874740bb",
      "to": "0xd925c84b55e4e44a53749ff5f2a5a13f63d128fd",
      "contractAddress": null,
      "l1BaseFeeScalar": "0x44d",
      "l1BlobBaseFee": "0x1",
      "l1BlobBaseFeeScalar": "0xa118b",
      "l1Fee": "0x53",
      "l1GasPrice": "0xa",
      "l1GasUsed": "0x77b"
    },
    {
      "status": "0x1",
      "cumulativeGasUsed": "0x1ad036",
      "logs": [
        {
          "address": "0xd925c84b55e4e44a53749ff5f2a5a13f63d128fd",
          "topics": [
            "0xeb8377c150d1438121333afa2027232605a400b1208ae6f9cfa156438e453f6d",
            "0x000000000000000000000000866a2bf4e572cbcf37d5071a7a58503bfb36be1b",
            "0x0000000000000000000000000000000000000000000000000000000000000001",
            "0x0d8b7427213bf00314ad7d773e51ed3158573ccbc8aa35181ba8169e54c37582"
          ],
          "data": "0x0000000000000000000000000000000000000000000000000000000000000001",
          "blockHash": "0xd8156eadc47387ad8d3cedfa9dbde10fac2fa7a1e859a0dcc0a585c32752011f",
          "blockNumber": "0x1f8cb31",
          "blockTimestamp": "0x6904f542",
          "transactionHash": "0x8916de638c71460bd8c2dfbad9ad0769d6647598b495c452379418495c377d47",
          "transactionIndex": "0x8",
          "logIndex": "0x10",
          "removed": false
        }
      ],
      "logsBloom": "0x00000008020000000000000000000000000000000000000000000000000000000000000000000000000000000000000000000000000000080000000000040000800000000000000000000000000000000000000000064000000000000000000000000000000000000000000000000000000000000000000100000000000000000000000000000000000000000040000000000000000000000000000000000000000000000000000000000000008000000000000000000000000000000000080000000000000400000000000000000000000000000000000000000000000040000000000000000000000000000000000000000000000000200000000000000000",
      "type": "0x2",
      "transactionHash": "0x8916de638c71460bd8c2dfbad9ad0769d6647598b495c452379418495c377d47",
      "transactionIndex": "0x8",
      "blockHash": "0xd8156eadc47387ad8d3cedfa9dbde10fac2fa7a1e859a0dcc0a585c32752011f",
      "blockNumber": "0x1f8cb31",
      "gasUsed": "0xd3e5",
      "effectiveGasPrice": "0xf42ff",
      "from": "0xf2f1acbe0ba726fee8d75f3e32900526874740bb",
      "to": "0xd925c84b55e4e44a53749ff5f2a5a13f63d128fd",
      "contractAddress": null,
      "l1BaseFeeScalar": "0x44d",
      "l1BlobBaseFee": "0x1",
      "l1BlobBaseFeeScalar": "0xa118b",
      "l1Fee": "0x58",
      "l1GasPrice": "0xa",
      "l1GasUsed": "0x77b"
    },
    {
      "status": "0x1",
      "cumulativeGasUsed": "0xa98721",
      "logs": [
        {
          "address": "0xd925c84b55e4e44a53749ff5f2a5a13f63d128fd",
          "topics": [
            "0xeb8377c150d1438121333afa2027232605a400b1208ae6f9cfa156438e453f6d",
            "0x000000000000000000000000866a2bf4e572cbcf37d5071a7a58503bfb36be1b",
            "0x0000000000000000000000000000000000000000000000000000000000000001",
            "0x0d8b742f62a9c8a57ad10368e9dbbbeba3d31427e1ea84a4385da7ea2f0e3678"
          ],
          "data": "0x0000000000000000000000000000000000000000000000000000000000000001",
          "blockHash": "0x8eeb73fdf483fb502f58c9ed102824f9ecc90fa1e153e4528c8be5f139cf68d1",
          "blockNumber": "0x1f8cb32",
          "blockTimestamp": "0x6904f544",
          "transactionHash": "0x4a5eb925c30bf4b2e94df7da300c72ef3a950d1a52e708e5a375f35f1cc6ed54",
          "transactionIndex": "0x17",
          "logIndex": "0xe0",
          "removed": false
        }
      ],
      "logsBloom": "0x00000008000000000000000000000000000000000000000000000000000000000000000000000000000000000000000000000000000000000000000000040000800000000000000000000000000000000000000000064000000000000000000000000000000000000000000000000000000000000000000100000000000000000000000000000000000000000040000000000000000000200000000000000000000000000000000000000000008000000000000000000000000000000000080000000000000400100000000000000000000000000000000000000000000040000000000000000000000004000000000000000000000000000000000000000000",
      "type": "0x2",
      "transactionHash": "0x4a5eb925c30bf4b2e94df7da300c72ef3a950d1a52e708e5a375f35f1cc6ed54",
      "transactionIndex": "0x17",
      "blockHash": "0x8eeb73fdf483fb502f58c9ed102824f9ecc90fa1e153e4528c8be5f139cf68d1",
      "blockNumber": "0x1f8cb32",
      "gasUsed": "0xd3e5",
      "effectiveGasPrice": "0xf4300",
      "from": "0xf2f1acbe0ba726fee8d75f3e32900526874740bb",
      "to": "0xd925c84b55e4e44a53749ff5f2a5a13f63d128fd",
      "contractAddress": null,
      "l1BaseFeeScalar": "0x44d",
      "l1BlobBaseFee": "0x1",
      "l1BlobBaseFeeScalar": "0xa118b",
      "l1Fee": "0x53",
      "l1GasPrice": "0xa",
      "l1GasUsed": "0x77b"
    },
    {
      "status": "0x1",
      "cumulativeGasUsed": "0x6cc9c4",
      "logs": [
        {
          "address": "0xd925c84b55e4e44a53749ff5f2a5a13f63d128fd",
          "topics": [
            "0xeb8377c150d1438121333afa2027232605a400b1208ae6f9cfa156438e453f6d",
            "0x000000000000000000000000437cc33344a0b27a429f795ff6b469c72698b291",
            "0x0000000000000000000000000000000000000000000000000000000000000001",
            "0x0d8b7427213bf00314ad7d773e51ed3158573ccbc8aa35181ba8169e54c37582"
          ],
          "data": "0x0000000000000000000000000000000000000000000000000000000000000001",
          "blockHash": "0x9703d1fff7de467599448b56d075cb5eb317a01d44daccc462bfee4827851da0",
          "blockNumber": "0x1f8cb33",
          "blockTimestamp": "0x6904f546",
          "transactionHash": "0x571f119601a020b594ec0daeb7873399ed6cb060a4d60f0626bde1dc4e799ea6",
          "transactionIndex": "0x16",
          "logIndex": "0x13b",
          "removed": false
        }
      ],
      "logsBloom": "0x00000008020002000000000000000000000000000000000000000000000000000000000000000000000000000000000000000000000000080000000000040000800000000000000000000000000000000000000000064000000000000000000000000000000000000000000000000000000000000000000000000000000000000000000000000000000000000000000000000000000000000000000000000000000000000000000000000000008000000000000000020000000000000000080000000000000000000000000000000000000000000000000000000000000040200000000000000000000000000000000000000000000000200000000000000000",
      "type": "0x2",
      "transactionHash": "0x571f119601a020b594ec0daeb7873399ed6cb060a4d60f0626bde1dc4e799ea6",
      "transactionIndex": "0x16",
      "blockHash": "0x9703d1fff7de467599448b56d075cb5eb317a01d44daccc462bfee4827851da0",
      "blockNumber": "0x1f8cb33",
      "gasUsed": "0xd3e5",
      "effectiveGasPrice": "0xf4300",
      "from": "0xf2f1acbe0ba726fee8d75f3e32900526874740bb",
      "to": "0xd925c84b55e4e44a53749ff5f2a5a13f63d128fd",
      "contractAddress": null,
      "l1BaseFeeScalar": "0x44d",
      "l1BlobBaseFee": "0x1",
      "l1BlobBaseFeeScalar": "0xa118b",
      "l1Fee": "0x53",
      "l1GasPrice": "0xa",
      "l1GasUsed": "0x77b"
    },
    {
      "status": "0x1",
      "cumulativeGasUsed": "0x1dc0b6",
      "logs": [
        {
          "address": "0xd925c84b55e4e44a53749ff5f2a5a13f63d128fd",
          "topics": [
            "0xeb8377c150d1438121333afa2027232605a400b1208ae6f9cfa156438e453f6d",
            "0x000000000000000000000000437cc33344a0b27a429f795ff6b469c72698b291",
            "0x0000000000000000000000000000000000000000000000000000000000000001",
            "0x0d8b742f62a9c8a57ad10368e9dbbbeba3d31427e1ea84a4385da7ea2f0e3678"
          ],
          "data": "0x0000000000000000000000000000000000000000000000000000000000000001",
          "blockHash": "0xa3d9c666c5a8818a2556945df41c4418ebd7554ac445a6a1b86096251c9a27d8",
          "blockNumber": "0x1f8cb34",
          "blockTimestamp": "0x6904f548",
          "transactionHash": "0x287b0f80f34fa19f9c16f49cb7c2534e4175c81e49f364831365a7b09eff4a0c",
          "transactionIndex": "0xb",
          "logIndex": "0x38",
          "removed": false
        }
      ],
      "logsBloom": "0x00000008000002000000000000000000000000000000000000000000000000000000000000000000000000000000000000000000000000000000000000040000800000000000000000000000000000000000000000064000000000000000000000000000000000000000000000000000000000000000000000000000000000000000000000000000000000000000000000000000000000200000000000000000000000000000000000000000008000000000000000020000000000000000080000000000000000100000000000000000000000000000000000000000000040200000000000000000000004000000000000000000000000000000000000000000",
      "type": "0x2",
      "transactionHash": "0x287b0f80f34fa19f9c16f49cb7c2534e4175c81e49f364831365a7b09eff4a0c",
      "transactionIndex": "0xb",
      "blockHash": "0xa3d9c666c5a8818a2556945df41c4418ebd7554ac445a6a1b86096251c9a27d8",
      "blockNumber": "0x1f8cb34",
      "gasUsed": "0xd3e5",
      "effectiveGasPrice": "0xf4303",
      "from": "0xf2f1acbe0ba726fee8d75f3e32900526874740bb",
      "to": "0xd925c84b55e4e44a53749ff5f2a5a13f63d128fd",
      "contractAddress": null,
      "l1BaseFeeScalar": "0x44d",
      "l1BlobBaseFee": "0x1",
      "l1BlobBaseFeeScalar": "0xa118b",
      "l1Fee": "0xc3",
      "l1GasPrice": "0xa",
      "l1GasUsed": "0x77b"
    },
    {
      "status": "0x1",
      "cumulativeGasUsed": "0x1e5d4c",
      "logs": [
        {
          "address": "0x0763196a091575adf99e2306e5e90e0be5154841",
          "topics": [
            "0x0fe301480713b2c2072ee91b3bcfcbf2c0014f0447c89046f020f0f80727003c"
          ],
          "data": "0x00000000000000000000000000000000000000000000000000000000000000010000000000000000000000000000000000000000000000000000000000000001",
          "blockHash": "0xfe7143b64573b14076da240bc8d9a42a703312d1607e4aa9d84708cb9b2eaf44",
          "blockNumber": "0x1f8cb35",
          "blockTimestamp": "0x6904f54a",
          "transactionHash": "0xe3c4f78463c7dc0703fdca4c486d94ffc7c1dc89823d0c132d5113f10ceab124",
          "transactionIndex": "0x8",
          "logIndex": "0x11",
          "removed": false
        }
      ],
      "logsBloom": "0x00000000000000000000000000000000000000000000000000000000000000000000000000000000000000000000000000000000000000000000000000000000000000000000000000000000000000000000000000000000000000000001000000000000000000001000000000000000000000000000000000000000000000000000000000000000000000001000000000000000000000000000000000000000002002000000000000000000000000000000000000000000000000000000000000000000000000000000000000000000000000000000000000000000000000000000000000000000000000000000000000000000000000000000000400000000",
      "type": "0x2",
      "transactionHash": "0xe3c4f78463c7dc0703fdca4c486d94ffc7c1dc89823d0c132d5113f10ceab124",
      "transactionIndex": "0x8",
      "blockHash": "0xfe7143b64573b14076da240bc8d9a42a703312d1607e4aa9d84708cb9b2eaf44",
      "blockNumber": "0x1f8cb35",
      "gasUsed": "0xcc74",
      "effectiveGasPrice": "0xf4301",
      "from": "0xf2f1acbe0ba726fee8d75f3e32900526874740bb",
      "to": "0x0763196a091575adf99e2306e5e90e0be5154841",
      "contractAddress": null,
      "l1BaseFeeScalar": "0x44d",
      "l1BlobBaseFee": "0x1",
      "l1BlobBaseFeeScalar": "0xa118b",
      "l1Fee": "0xad",
      "l1GasPrice": "0xa",
      "l1GasUsed": "0x640"
    },
    {
      "status": "0x1",
      "cumulativeGasUsed": "0x64e7d2",
      "logs": [
        {
          "address": "0x79a1027a6a159502049f10906d333ec57e95f083",
          "topics": [
            "0x6eb224fb001ed210e379b335e35efe88672a8ce935d981a6896b27ffdf52a3b2",
            "0x0000000000000000000000000763196a091575adf99e2306e5e90e0be5154841"
          ],
          "data": "0x00000000000000000000000000000000000000000000000000000000000000040000000000000000000000000000000000000000000000000000000000000000000000000000000000000000000000000000000000000000000000000000008000000000000000000000000000000000000000000000000000000000000000c8000000000000000000000000000000000000000000000000000000000000002618fc67c20001fcbdac3b256685bd2cc3a97bfcd815fb76b8d33df924e607c409c0bce3fa16680000000000000000000000000000000000000000000000000000",
          "blockHash": "0x0e10be95aea30e558eb5dd4c17f1b9ef1b200516026f98a7a10e5247b86afbc0",
          "blockNumber": "0x1f8cb36",
          "blockTimestamp": "0x6904f54c",
          "transactionHash": "0x56777e0d8be960f33a6ac3fc37c7a0e5cd91e135b70b3ca970629c07998facda",
          "transactionIndex": "0x18",
          "logIndex": "0x115",
          "removed": false
        },
        {
          "address": "0x0763196a091575adf99e2306e5e90e0be5154841",
          "topics": [
            "0xa559263ee060c7a2560843b3a064ff0376c9753ae3e2449b595a3b615d326466"
          ],
          "data": "0x0000000000000000000000000000000000000000000000000000000000000001fcbdac3b256685bd2cc3a97bfcd815fb76b8d33df924e607c409c0bce3fa1668",
          "blockHash": "0x0e10be95aea30e558eb5dd4c17f1b9ef1b200516026f98a7a10e5247b86afbc0",
          "blockNumber": "0x1f8cb36",
          "blockTimestamp": "0x6904f54c",
          "transactionHash": "0x56777e0d8be960f33a6ac3fc37c7a0e5cd91e135b70b3ca970629c07998facda",
          "transactionIndex": "0x18",
          "logIndex": "0x116",
          "removed": false
        }
      ],
      "logsBloom": "0x00000000000100000000000000000000000000000000000000000000000000000010000000000000000000000010000000000000000000000000000000000000000000000000000000000000000000000000000100000000000000000001000000000000000000001000000000000000000000000000000000000000000000000000000000000000000000000000000000000000000000000000000000000000002000000400000000000000000100000000044000000000000000008000000000000000000000000000000000000000400000000000000000000000000000000000000000000000210000000000000000000000000000000000000000000000",
      "type": "0x2",
      "transactionHash": "0x56777e0d8be960f33a6ac3fc37c7a0e5cd91e135b70b3ca970629c07998facda",
      "transactionIndex": "0x18",
      "blockHash": "0x0e10be95aea30e558eb5dd4c17f1b9ef1b200516026f98a7a10e5247b86afbc0",
      "blockNumber": "0x1f8cb36",
      "gasUsed": "0x12f58",
      "effectiveGasPrice": "0xf4301",
      "from": "0xf2f1acbe0ba726fee8d75f3e32900526874740bb",
      "to": "0x0763196a091575adf99e2306e5e90e0be5154841",
      "contractAddress": null,
      "l1BaseFeeScalar": "0x44d",
      "l1BlobBaseFee": "0x1",
      "l1BlobBaseFeeScalar": "0xa118b",
      "l1Fee": "0x5e",
      "l1GasPrice": "0xa",
      "l1GasUsed": "0x640"
    }
  ],
  "libraries": [],
  "pending": [],
  "returns": {},
  "timestamp": 1761932619,
  "chain": 84532,
  "commit": "3893460"
}
