{
  "transactions": [
    {
      "hash": "0x2596d746d033f9facda7332fbdb85f1197aed98fa1ba676ad88f13bd52b7a394",
      "transactionType": "CALL",
      "contractName": null,
      "contractAddress": "0xd925c84b55e4e44a53749ff5f2a5a13f63d128fd",
      "function": "setPeer(uint16,bytes32,uint8,uint256)",
      "arguments": [
        "10003",
        "0x000000000000000000000000d925c84b55e4e44a53749ff5f2a5a13f63d128fd",
        "6",
        "0"
      ],
      "transaction": {
        "from": "0xf2f1acbe0ba726fee8d75f3e32900526874740bb",
        "to": "0xd925c84b55e4e44a53749ff5f2a5a13f63d128fd",
        "gas": "0x1cb3d",
        "value": "0x0",
        "input": "0x7c9186340000000000000000000000000000000000000000000000000000000000002713000000000000000000000000d925c84b55e4e44a53749ff5f2a5a13f63d128fd00000000000000000000000000000000000000000000000000000000000000060000000000000000000000000000000000000000000000000000000000000000",
        "nonce": "0x3a",
        "chainId": "0x14a34"
      },
      "additionalContracts": [],
      "isFixedGasLimit": false
    },
    {
      "hash": "0x50e559abd7e3f771425e94ec614b4ae36c9de91ea11f97e5798beccdfe34586c",
      "transactionType": "CALL",
      "contractName": null,
      "contractAddress": "0xd925c84b55e4e44a53749ff5f2a5a13f63d128fd",
      "function": "setDestinationMToken(uint16,bytes32)",
      "arguments": [
        "10003",
        "0x000000000000000000000000866a2bf4e572cbcf37d5071a7a58503bfb36be1b"
      ],
      "transaction": {
        "from": "0xf2f1acbe0ba726fee8d75f3e32900526874740bb",
        "to": "0xd925c84b55e4e44a53749ff5f2a5a13f63d128fd",
        "gas": "0x11d17",
        "value": "0x0",
        "input": "0x76a4a5390000000000000000000000000000000000000000000000000000000000002713000000000000000000000000866a2bf4e572cbcf37d5071a7a58503bfb36be1b",
        "nonce": "0x3b",
        "chainId": "0x14a34"
      },
      "additionalContracts": [],
      "isFixedGasLimit": false
    },
    {
      "hash": "0x6e3b5f5fbe8a10f3aacba2d87e3733975a222d6af336a1b62b9e0eb5ce1682ad",
      "transactionType": "CALL",
      "contractName": null,
      "contractAddress": "0xd925c84b55e4e44a53749ff5f2a5a13f63d128fd",
      "function": "setSupportedBridgingPath(address,uint16,bytes32,bool)",
      "arguments": [
        "0x866A2BF4E572CbcF37D5071A7a58503Bfb36be1b",
        "10003",
        "0x000000000000000000000000866a2bf4e572cbcf37d5071a7a58503bfb36be1b",
        "true"
      ],
      "transaction": {
        "from": "0xf2f1acbe0ba726fee8d75f3e32900526874740bb",
        "to": "0xd925c84b55e4e44a53749ff5f2a5a13f63d128fd",
        "gas": "0x13524",
        "value": "0x0",
        "input": "0x1482cb4a000000000000000000000000866a2bf4e572cbcf37d5071a7a58503bfb36be1b0000000000000000000000000000000000000000000000000000000000002713000000000000000000000000866a2bf4e572cbcf37d5071a7a58503bfb36be1b0000000000000000000000000000000000000000000000000000000000000001",
        "nonce": "0x3c",
        "chainId": "0x14a34"
      },
      "additionalContracts": [],
      "isFixedGasLimit": false
    },
    {
      "hash": "0x17f3ae5a71b85044975be960d6fc15eeeaaaad03cebedff774fd929d272e9e2b",
      "transactionType": "CALL",
      "contractName": null,
      "contractAddress": "0xd925c84b55e4e44a53749ff5f2a5a13f63d128fd",
      "function": "setSupportedBridgingPath(address,uint16,bytes32,bool)",
      "arguments": [
        "0x866A2BF4E572CbcF37D5071A7a58503Bfb36be1b",
        "10003",
        "0x000000000000000000000000437cc33344a0b27a429f795ff6b469c72698b291",
        "true"
      ],
      "transaction": {
        "from": "0xf2f1acbe0ba726fee8d75f3e32900526874740bb",
        "to": "0xd925c84b55e4e44a53749ff5f2a5a13f63d128fd",
        "gas": "0x13524",
        "value": "0x0",
        "input": "0x1482cb4a000000000000000000000000866a2bf4e572cbcf37d5071a7a58503bfb36be1b0000000000000000000000000000000000000000000000000000000000002713000000000000000000000000437cc33344a0b27a429f795ff6b469c72698b2910000000000000000000000000000000000000000000000000000000000000001",
        "nonce": "0x3d",
        "chainId": "0x14a34"
      },
      "additionalContracts": [],
      "isFixedGasLimit": false
    },
    {
      "hash": "0x9c36f1268a369a590614a6ee3c9a688c7f24209bb6760dbc5e8899b61274777d",
      "transactionType": "CALL",
      "contractName": null,
      "contractAddress": "0xd925c84b55e4e44a53749ff5f2a5a13f63d128fd",
      "function": "setSupportedBridgingPath(address,uint16,bytes32,bool)",
      "arguments": [
        "0x437cc33344a0B27A429f795ff6B469C72698B291",
        "10003",
        "0x000000000000000000000000866a2bf4e572cbcf37d5071a7a58503bfb36be1b",
        "true"
      ],
      "transaction": {
        "from": "0xf2f1acbe0ba726fee8d75f3e32900526874740bb",
        "to": "0xd925c84b55e4e44a53749ff5f2a5a13f63d128fd",
        "gas": "0x13524",
        "value": "0x0",
        "input": "0x1482cb4a000000000000000000000000437cc33344a0b27a429f795ff6b469c72698b2910000000000000000000000000000000000000000000000000000000000002713000000000000000000000000866a2bf4e572cbcf37d5071a7a58503bfb36be1b0000000000000000000000000000000000000000000000000000000000000001",
        "nonce": "0x3e",
        "chainId": "0x14a34"
      },
      "additionalContracts": [],
      "isFixedGasLimit": false
    },
    {
      "hash": "0xbd69b05226bd18fb653d7896932ea123e405ce52d302c9148d8a25277f55d7f2",
      "transactionType": "CALL",
      "contractName": null,
      "contractAddress": "0xd925c84b55e4e44a53749ff5f2a5a13f63d128fd",
      "function": "setSupportedBridgingPath(address,uint16,bytes32,bool)",
      "arguments": [
        "0x437cc33344a0B27A429f795ff6B469C72698B291",
        "10003",
        "0x000000000000000000000000437cc33344a0b27a429f795ff6b469c72698b291",
        "true"
      ],
      "transaction": {
        "from": "0xf2f1acbe0ba726fee8d75f3e32900526874740bb",
        "to": "0xd925c84b55e4e44a53749ff5f2a5a13f63d128fd",
        "gas": "0x13524",
        "value": "0x0",
        "input": "0x1482cb4a000000000000000000000000437cc33344a0b27a429f795ff6b469c72698b2910000000000000000000000000000000000000000000000000000000000002713000000000000000000000000437cc33344a0b27a429f795ff6b469c72698b2910000000000000000000000000000000000000000000000000000000000000001",
        "nonce": "0x3f",
        "chainId": "0x14a34"
      },
      "additionalContracts": [],
      "isFixedGasLimit": false
    },
    {
      "hash": "0x5a9cdb29adbb9ae995509a84a75b965085fb646c4e8b7471770afa63069f4a4d",
      "transactionType": "CALL",
      "contractName": "ERC1967Proxy",
      "contractAddress": "0x0763196a091575adf99e2306e5e90e0be5154841",
      "function": null,
      "arguments": null,
      "transaction": {
        "from": "0xf2f1acbe0ba726fee8d75f3e32900526874740bb",
        "to": "0x0763196a091575adf99e2306e5e90e0be5154841",
        "gas": "0x12b75",
        "value": "0x0",
        "input": "0x657b3b2f00000000000000000000000000000000000000000000000000000000000027130000000000000000000000000000000000000000000000000000000000000001",
        "nonce": "0x40",
        "chainId": "0x14a34"
      },
      "additionalContracts": [],
      "isFixedGasLimit": false
    },
    {
      "hash": "0xfa9d744bcd2c3ee270c4ff645853338aa6d7f6a043a388f6cf0889d144d3b40d",
      "transactionType": "CALL",
      "contractName": "ERC1967Proxy",
      "contractAddress": "0x0763196a091575adf99e2306e5e90e0be5154841",
      "function": null,
      "arguments": null,
      "transaction": {
        "from": "0xf2f1acbe0ba726fee8d75f3e32900526874740bb",
        "to": "0x0763196a091575adf99e2306e5e90e0be5154841",
        "gas": "0x1a247",
        "value": "0x0",
        "input": "0x7ab5640300000000000000000000000000000000000000000000000000000000000027130000000000000000000000000763196a091575adf99e2306e5e90e0be5154841",
        "nonce": "0x41",
        "chainId": "0x14a34"
      },
      "additionalContracts": [],
      "isFixedGasLimit": false
    },
    {
      "hash": "0x6881ad80b8285aca930df093ef6dc33aa1968a095563f1349d1ad47a9e58e732",
      "transactionType": "CALL",
      "contractName": "ERC1967Proxy",
      "contractAddress": "0x0763196a091575adf99e2306e5e90e0be5154841",
      "function": null,
      "arguments": null,
      "transaction": {
        "from": "0xf2f1acbe0ba726fee8d75f3e32900526874740bb",
        "to": "0x0763196a091575adf99e2306e5e90e0be5154841",
        "gas": "0x11c5d",
        "value": "0x0",
        "input": "0x96dddc6300000000000000000000000000000000000000000000000000000000000027130000000000000000000000000000000000000000000000000000000000000001",
        "nonce": "0x42",
        "chainId": "0x14a34"
      },
      "additionalContracts": [],
      "isFixedGasLimit": false
    },
    {
      "hash": "0x999e5b62581eaad0d4802ff733016c451b26788d640f7225199c314eb8199ba4",
      "transactionType": "CALL",
      "contractName": null,
      "contractAddress": "0xd925c84b55e4e44a53749ff5f2a5a13f63d128fd",
      "function": "setPeer(uint16,bytes32,uint8,uint256)",
      "arguments": [
        "10005",
        "0x000000000000000000000000d925c84b55e4e44a53749ff5f2a5a13f63d128fd",
        "6",
        "0"
      ],
      "transaction": {
        "from": "0xf2f1acbe0ba726fee8d75f3e32900526874740bb",
        "to": "0xd925c84b55e4e44a53749ff5f2a5a13f63d128fd",
        "gas": "0x1cb3d",
        "value": "0x0",
        "input": "0x7c9186340000000000000000000000000000000000000000000000000000000000002715000000000000000000000000d925c84b55e4e44a53749ff5f2a5a13f63d128fd00000000000000000000000000000000000000000000000000000000000000060000000000000000000000000000000000000000000000000000000000000000",
        "nonce": "0x43",
        "chainId": "0x14a34"
      },
      "additionalContracts": [],
      "isFixedGasLimit": false
    },
    {
      "hash": "0xa7e566f894edc93bd3b43d30d261f739ece28cd0d9f83149b605f31d82fab2df",
      "transactionType": "CALL",
      "contractName": null,
      "contractAddress": "0xd925c84b55e4e44a53749ff5f2a5a13f63d128fd",
      "function": "setDestinationMToken(uint16,bytes32)",
      "arguments": [
        "10005",
        "0x000000000000000000000000866a2bf4e572cbcf37d5071a7a58503bfb36be1b"
      ],
      "transaction": {
        "from": "0xf2f1acbe0ba726fee8d75f3e32900526874740bb",
        "to": "0xd925c84b55e4e44a53749ff5f2a5a13f63d128fd",
        "gas": "0x11d17",
        "value": "0x0",
        "input": "0x76a4a5390000000000000000000000000000000000000000000000000000000000002715000000000000000000000000866a2bf4e572cbcf37d5071a7a58503bfb36be1b",
        "nonce": "0x44",
        "chainId": "0x14a34"
      },
      "additionalContracts": [],
      "isFixedGasLimit": false
    },
    {
      "hash": "0x4a43606fa1974a382f85da8642dc2d71eab5947b98b2723b93f4c60771d15130",
      "transactionType": "CALL",
      "contractName": null,
      "contractAddress": "0xd925c84b55e4e44a53749ff5f2a5a13f63d128fd",
      "function": "setSupportedBridgingPath(address,uint16,bytes32,bool)",
      "arguments": [
        "0x866A2BF4E572CbcF37D5071A7a58503Bfb36be1b",
        "10005",
        "0x000000000000000000000000866a2bf4e572cbcf37d5071a7a58503bfb36be1b",
        "true"
      ],
      "transaction": {
        "from": "0xf2f1acbe0ba726fee8d75f3e32900526874740bb",
        "to": "0xd925c84b55e4e44a53749ff5f2a5a13f63d128fd",
        "gas": "0x13524",
        "value": "0x0",
        "input": "0x1482cb4a000000000000000000000000866a2bf4e572cbcf37d5071a7a58503bfb36be1b0000000000000000000000000000000000000000000000000000000000002715000000000000000000000000866a2bf4e572cbcf37d5071a7a58503bfb36be1b0000000000000000000000000000000000000000000000000000000000000001",
        "nonce": "0x45",
        "chainId": "0x14a34"
      },
      "additionalContracts": [],
      "isFixedGasLimit": false
    },
    {
      "hash": "0xa74add71453dfc559cb3cd7ba28e7e6511c88303d9484bb0fab7c438263fe8a0",
      "transactionType": "CALL",
      "contractName": null,
      "contractAddress": "0xd925c84b55e4e44a53749ff5f2a5a13f63d128fd",
      "function": "setSupportedBridgingPath(address,uint16,bytes32,bool)",
      "arguments": [
        "0x866A2BF4E572CbcF37D5071A7a58503Bfb36be1b",
        "10005",
        "0x000000000000000000000000437cc33344a0b27a429f795ff6b469c72698b291",
        "true"
      ],
      "transaction": {
        "from": "0xf2f1acbe0ba726fee8d75f3e32900526874740bb",
        "to": "0xd925c84b55e4e44a53749ff5f2a5a13f63d128fd",
        "gas": "0x13524",
        "value": "0x0",
        "input": "0x1482cb4a000000000000000000000000866a2bf4e572cbcf37d5071a7a58503bfb36be1b0000000000000000000000000000000000000000000000000000000000002715000000000000000000000000437cc33344a0b27a429f795ff6b469c72698b2910000000000000000000000000000000000000000000000000000000000000001",
        "nonce": "0x46",
        "chainId": "0x14a34"
      },
      "additionalContracts": [],
      "isFixedGasLimit": false
    },
    {
      "hash": "0xb52f4123eaf3fb388132ce1a95a4120e66b5ea42ccb908b6d7565be4a8629b9c",
      "transactionType": "CALL",
      "contractName": null,
      "contractAddress": "0xd925c84b55e4e44a53749ff5f2a5a13f63d128fd",
      "function": "setSupportedBridgingPath(address,uint16,bytes32,bool)",
      "arguments": [
        "0x437cc33344a0B27A429f795ff6B469C72698B291",
        "10005",
        "0x000000000000000000000000866a2bf4e572cbcf37d5071a7a58503bfb36be1b",
        "true"
      ],
      "transaction": {
        "from": "0xf2f1acbe0ba726fee8d75f3e32900526874740bb",
        "to": "0xd925c84b55e4e44a53749ff5f2a5a13f63d128fd",
        "gas": "0x13524",
        "value": "0x0",
        "input": "0x1482cb4a000000000000000000000000437cc33344a0b27a429f795ff6b469c72698b2910000000000000000000000000000000000000000000000000000000000002715000000000000000000000000866a2bf4e572cbcf37d5071a7a58503bfb36be1b0000000000000000000000000000000000000000000000000000000000000001",
        "nonce": "0x47",
        "chainId": "0x14a34"
      },
      "additionalContracts": [],
      "isFixedGasLimit": false
    },
    {
      "hash": "0xf12786ac1c86e840cd404d82cd92777966310d6f1446c2f4ea32968754e893b1",
      "transactionType": "CALL",
      "contractName": null,
      "contractAddress": "0xd925c84b55e4e44a53749ff5f2a5a13f63d128fd",
      "function": "setSupportedBridgingPath(address,uint16,bytes32,bool)",
      "arguments": [
        "0x437cc33344a0B27A429f795ff6B469C72698B291",
        "10005",
        "0x000000000000000000000000437cc33344a0b27a429f795ff6b469c72698b291",
        "true"
      ],
      "transaction": {
        "from": "0xf2f1acbe0ba726fee8d75f3e32900526874740bb",
        "to": "0xd925c84b55e4e44a53749ff5f2a5a13f63d128fd",
        "gas": "0x13524",
        "value": "0x0",
        "input": "0x1482cb4a000000000000000000000000437cc33344a0b27a429f795ff6b469c72698b2910000000000000000000000000000000000000000000000000000000000002715000000000000000000000000437cc33344a0b27a429f795ff6b469c72698b2910000000000000000000000000000000000000000000000000000000000000001",
        "nonce": "0x48",
        "chainId": "0x14a34"
      },
      "additionalContracts": [],
      "isFixedGasLimit": false
    },
    {
      "hash": "0x6c05048d3fbda8e453d7ff004c2fd5cd1eb78fee7c25fb83bf4fe2bb3afe469a",
      "transactionType": "CALL",
      "contractName": "ERC1967Proxy",
      "contractAddress": "0x0763196a091575adf99e2306e5e90e0be5154841",
      "function": null,
      "arguments": null,
      "transaction": {
        "from": "0xf2f1acbe0ba726fee8d75f3e32900526874740bb",
        "to": "0x0763196a091575adf99e2306e5e90e0be5154841",
        "gas": "0x12b75",
        "value": "0x0",
        "input": "0x657b3b2f00000000000000000000000000000000000000000000000000000000000027150000000000000000000000000000000000000000000000000000000000000001",
        "nonce": "0x49",
        "chainId": "0x14a34"
      },
      "additionalContracts": [],
      "isFixedGasLimit": false
    },
    {
      "hash": "0xb1e37bb284fe3e34eb7e61e88455417df218e607cfeea4794d49ee26f2f85c94",
      "transactionType": "CALL",
      "contractName": "ERC1967Proxy",
      "contractAddress": "0x0763196a091575adf99e2306e5e90e0be5154841",
      "function": null,
      "arguments": null,
      "transaction": {
        "from": "0xf2f1acbe0ba726fee8d75f3e32900526874740bb",
        "to": "0x0763196a091575adf99e2306e5e90e0be5154841",
        "gas": "0x1a247",
        "value": "0x0",
        "input": "0x7ab5640300000000000000000000000000000000000000000000000000000000000027150000000000000000000000000763196a091575adf99e2306e5e90e0be5154841",
        "nonce": "0x4a",
        "chainId": "0x14a34"
      },
      "additionalContracts": [],
      "isFixedGasLimit": false
    },
    {
      "hash": "0xeb3fc1e32fb07692f2d8ad6f9609d16dd3d4c961333d9ff87ce948fa8f64f0a8",
      "transactionType": "CALL",
      "contractName": "ERC1967Proxy",
      "contractAddress": "0x0763196a091575adf99e2306e5e90e0be5154841",
      "function": null,
      "arguments": null,
      "transaction": {
        "from": "0xf2f1acbe0ba726fee8d75f3e32900526874740bb",
        "to": "0x0763196a091575adf99e2306e5e90e0be5154841",
        "gas": "0x11c5d",
        "value": "0x0",
        "input": "0x96dddc6300000000000000000000000000000000000000000000000000000000000027150000000000000000000000000000000000000000000000000000000000000001",
        "nonce": "0x4b",
        "chainId": "0x14a34"
      },
      "additionalContracts": [],
      "isFixedGasLimit": false
    }
  ],
  "receipts": [
    {
      "status": "0x1",
      "cumulativeGasUsed": "0x361d1a",
      "logs": [
        {
          "address": "0xd925c84b55e4e44a53749ff5f2a5a13f63d128fd",
          "topics": [
            "0x1456404e7f41f35c3daac941bb50bad417a66275c3040061b4287d787719599d",
            "0x0000000000000000000000000000000000000000000000000000000000002713"
          ],
          "data": "0x00000000000000000000000000000000000000000000000000000000000000000000000000000000000000000000000000000000000000000000000000000000000000000000000000000000d925c84b55e4e44a53749ff5f2a5a13f63d128fd0000000000000000000000000000000000000000000000000000000000000006",
          "blockHash": "0x26f18504c6b02ffd424b1d166e8e2f463f8a19ec5b878b8e7959b9644015c671",
          "blockNumber": "0x1f8ba5b",
          "blockTimestamp": "0x6904d396",
          "transactionHash": "0x2596d746d033f9facda7332fbdb85f1197aed98fa1ba676ad88f13bd52b7a394",
          "transactionIndex": "0x10",
          "logIndex": "0x46",
          "removed": false
        }
      ],
      "logsBloom": "0x00000000000000000000000000000000000000000000000000000000000000000100000000000000002000000000000000000000000000000000000000000000000000000000000000000000000000100000000000024000000000000000000000002000000000000000000000000000000000000000000000000000000000000000000000000000000008000000000000000000000000000000000000000000000000000000000000000000000000000000000000000000000000000000080000000000000000000000000000000000000000000000000000000000000000000000000000000000000000000000000000010000000000000000000000000000",
      "type": "0x2",
      "transactionHash": "0x2596d746d033f9facda7332fbdb85f1197aed98fa1ba676ad88f13bd52b7a394",
      "transactionIndex": "0x10",
      "blockHash": "0x26f18504c6b02ffd424b1d166e8e2f463f8a19ec5b878b8e7959b9644015c671",
      "blockNumber": "0x1f8ba5b",
      "gasUsed": "0x14c7c",
      "effectiveGasPrice": "0xedd54",
      "from": "0xf2f1acbe0ba726fee8d75f3e32900526874740bb",
      "to": "0xd925c84b55e4e44a53749ff5f2a5a13f63d128fd",
      "contractAddress": null,
      "l1BaseFeeScalar": "0x44d",
      "l1BlobBaseFee": "0x1",
      "l1BlobBaseFeeScalar": "0xa118b",
      "l1Fee": "0x51",
      "l1GasPrice": "0x9",
      "l1GasUsed": "0x640"
    },
    {
      "status": "0x1",
      "cumulativeGasUsed": "0x9f2e7e",
      "logs": [
        {
          "address": "0xd925c84b55e4e44a53749ff5f2a5a13f63d128fd",
          "topics": [
            "0xe6658eeba76934cef78dc5f420ee40406e4876e8d3e767f7b700c63daf1bf0ba",
            "0x0000000000000000000000000000000000000000000000000000000000002713"
          ],
          "data": "0x000000000000000000000000866a2bf4e572cbcf37d5071a7a58503bfb36be1b",
          "blockHash": "0xb009a9b148d60637e62e94614e01dd753e4de1f5442c3a3752a13a71ac5f9fc2",
          "blockNumber": "0x1f8ba5c",
          "blockTimestamp": "0x6904d398",
          "transactionHash": "0x50e559abd7e3f771425e94ec614b4ae36c9de91ea11f97e5798beccdfe34586c",
          "transactionIndex": "0x20",
          "logIndex": "0x12d",
          "removed": false
        }
      ],
      "logsBloom": "0x00000000000000000000000000000000000000000000000000000000000000000100000000000000000000000000000000000000000000000000000000000000000000000000000000000000002000100000000000024000000000000000000000000000000000000000000000000000000000000000000000000000000000000000000000000000000000000000000000000000000000000000000000000000000080000000000000000000000000000000000000000000000000000000080000000000000020000000000000000000000000000000000000000000000000000000000000000000000000000000000000010000000000000000000000000000",
      "type": "0x2",
      "transactionHash": "0x50e559abd7e3f771425e94ec614b4ae36c9de91ea11f97e5798beccdfe34586c",
      "transactionIndex": "0x20",
      "blockHash": "0xb009a9b148d60637e62e94614e01dd753e4de1f5442c3a3752a13a71ac5f9fc2",
      "blockNumber": "0x1f8ba5c",
      "gasUsed": "0xce67",
      "effectiveGasPrice": "0xedd54",
      "from": "0xf2f1acbe0ba726fee8d75f3e32900526874740bb",
      "to": "0xd925c84b55e4e44a53749ff5f2a5a13f63d128fd",
      "contractAddress": null,
      "l1BaseFeeScalar": "0x44d",
      "l1BlobBaseFee": "0x1",
      "l1BlobBaseFeeScalar": "0xa118b",
      "l1Fee": "0x51",
      "l1GasPrice": "0x9",
      "l1GasUsed": "0x640"
    },
    {
      "status": "0x1",
      "cumulativeGasUsed": "0x7ac6d5",
      "logs": [
        {
          "address": "0xd925c84b55e4e44a53749ff5f2a5a13f63d128fd",
          "topics": [
            "0xeb8377c150d1438121333afa2027232605a400b1208ae6f9cfa156438e453f6d",
            "0x000000000000000000000000866a2bf4e572cbcf37d5071a7a58503bfb36be1b",
            "0x0000000000000000000000000000000000000000000000000000000000002713",
            "0x000000000000000000000000866a2bf4e572cbcf37d5071a7a58503bfb36be1b"
          ],
          "data": "0x0000000000000000000000000000000000000000000000000000000000000001",
          "blockHash": "0x4413a760b4e16976f850e55f48595f979d72179d52f421573afd93720779f149",
          "blockNumber": "0x1f8ba5d",
          "blockTimestamp": "0x6904d39a",
          "transactionHash": "0x6e3b5f5fbe8a10f3aacba2d87e3733975a222d6af336a1b62b9e0eb5ce1682ad",
          "transactionIndex": "0x1b",
          "logIndex": "0x4e",
          "removed": false
        }
      ],
      "logsBloom": "0x00000008000000000000000000000000000000000000000000000000000000000100000000000000000000000000000000000000000000000000000000000000800000000000000000000000000000100000000000024000000000000000000000000000000000000000000000000000000000000000000100000000000000000000000000000000000000000040000000000000000000000000000000000000000000000000000000000000008000000000000000000000000000000000080000000000000400000000000000000000000000000000000000000000000000000000000000000000000000000000000000010000000000000000000000000000",
      "type": "0x2",
      "transactionHash": "0x6e3b5f5fbe8a10f3aacba2d87e3733975a222d6af336a1b62b9e0eb5ce1682ad",
      "transactionIndex": "0x1b",
      "blockHash": "0x4413a760b4e16976f850e55f48595f979d72179d52f421573afd93720779f149",
      "blockNumber": "0x1f8ba5d",
      "gasUsed": "0xd361",
      "effectiveGasPrice": "0xedd54",
      "from": "0xf2f1acbe0ba726fee8d75f3e32900526874740bb",
      "to": "0xd925c84b55e4e44a53749ff5f2a5a13f63d128fd",
      "contractAddress": null,
      "l1BaseFeeScalar": "0x44d",
      "l1BlobBaseFee": "0x1",
      "l1BlobBaseFeeScalar": "0xa118b",
      "l1Fee": "0x51",
      "l1GasPrice": "0x9",
      "l1GasUsed": "0x640"
    },
    {
      "status": "0x1",
      "cumulativeGasUsed": "0x2527ee",
      "logs": [
        {
          "address": "0xd925c84b55e4e44a53749ff5f2a5a13f63d128fd",
          "topics": [
            "0xeb8377c150d1438121333afa2027232605a400b1208ae6f9cfa156438e453f6d",
            "0x000000000000000000000000866a2bf4e572cbcf37d5071a7a58503bfb36be1b",
            "0x0000000000000000000000000000000000000000000000000000000000002713",
            "0x000000000000000000000000437cc33344a0b27a429f795ff6b469c72698b291"
          ],
          "data": "0x0000000000000000000000000000000000000000000000000000000000000001",
          "blockHash": "0xb9cd6f735af9d2a666cf329640aad5903460bfbe05d094cec0e8597be1e7a657",
          "blockNumber": "0x1f8ba5e",
          "blockTimestamp": "0x6904d39c",
          "transactionHash": "0x17f3ae5a71b85044975be960d6fc15eeeaaaad03cebedff774fd929d272e9e2b",
          "transactionIndex": "0x18",
          "logIndex": "0x45",
          "removed": false
        }
      ],
      "logsBloom": "0x00000008000002000000000000000000000000000000000000000000000000000100000000000000000000000000000000000000000000000000000000000000800000000000000000000000000000100000000000024000000000000000000000000000000000000000000000000000000000000000000100000000000000000000000000000000000000000040000000000000000000000000000000000000000000000000000000000000008000000000000000020000000000000000080000000000000400000000000000000000000000000000000000000000000000200000000000000000000000000000000000010000000000000000000000000000",
      "type": "0x2",
      "transactionHash": "0x17f3ae5a71b85044975be960d6fc15eeeaaaad03cebedff774fd929d272e9e2b",
      "transactionIndex": "0x18",
      "blockHash": "0xb9cd6f735af9d2a666cf329640aad5903460bfbe05d094cec0e8597be1e7a657",
      "blockNumber": "0x1f8ba5e",
      "gasUsed": "0xd361",
      "effectiveGasPrice": "0xedd54",
      "from": "0xf2f1acbe0ba726fee8d75f3e32900526874740bb",
      "to": "0xd925c84b55e4e44a53749ff5f2a5a13f63d128fd",
      "contractAddress": null,
      "l1BaseFeeScalar": "0x44d",
      "l1BlobBaseFee": "0x1",
      "l1BlobBaseFeeScalar": "0xa118b",
      "l1Fee": "0x5c",
      "l1GasPrice": "0x9",
      "l1GasUsed": "0x710"
    },
    {
      "status": "0x1",
      "cumulativeGasUsed": "0x125ca5",
      "logs": [
        {
          "address": "0xd925c84b55e4e44a53749ff5f2a5a13f63d128fd",
          "topics": [
            "0xeb8377c150d1438121333afa2027232605a400b1208ae6f9cfa156438e453f6d",
            "0x000000000000000000000000437cc33344a0b27a429f795ff6b469c72698b291",
            "0x0000000000000000000000000000000000000000000000000000000000002713",
            "0x000000000000000000000000866a2bf4e572cbcf37d5071a7a58503bfb36be1b"
          ],
          "data": "0x0000000000000000000000000000000000000000000000000000000000000001",
          "blockHash": "0x39caf2d667b13de4ae41e3990762715a0b0a49a851ee2a9d99b5e1efcbb2058b",
          "blockNumber": "0x1f8ba5f",
          "blockTimestamp": "0x6904d39e",
          "transactionHash": "0x9c36f1268a369a590614a6ee3c9a688c7f24209bb6760dbc5e8899b61274777d",
          "transactionIndex": "0xa",
          "logIndex": "0x11",
          "removed": false
        }
      ],
      "logsBloom": "0x00000008000002000000000000000000000000000000000000000000000000000100000000000000000000000000000000000000000000000000000000000000800000000000000000000000000000100000000000024000000000000000000000000000000000000000000000000000000000000000000100000000000000000000000000000000000000000040000000000000000000000000000000000000000000000000000000000000008000000000000000020000000000000000080000000000000400000000000000000000000000000000000000000000000000200000000000000000000000000000000000010000000000000000000000000000",
      "type": "0x2",
      "transactionHash": "0x9c36f1268a369a590614a6ee3c9a688c7f24209bb6760dbc5e8899b61274777d",
      "transactionIndex": "0xa",
      "blockHash": "0x39caf2d667b13de4ae41e3990762715a0b0a49a851ee2a9d99b5e1efcbb2058b",
      "blockNumber": "0x1f8ba5f",
      "gasUsed": "0xd361",
      "effectiveGasPrice": "0xedd54",
      "from": "0xf2f1acbe0ba726fee8d75f3e32900526874740bb",
      "to": "0xd925c84b55e4e44a53749ff5f2a5a13f63d128fd",
      "contractAddress": null,
      "l1BaseFeeScalar": "0x44d",
      "l1BlobBaseFee": "0x1",
      "l1BlobBaseFeeScalar": "0xa118b",
      "l1Fee": "0x151",
      "l1GasPrice": "0x9",
      "l1GasUsed": "0x710"
    },
    {
      "status": "0x1",
      "cumulativeGasUsed": "0x524e11",
      "logs": [
        {
          "address": "0xd925c84b55e4e44a53749ff5f2a5a13f63d128fd",
          "topics": [
            "0xeb8377c150d1438121333afa2027232605a400b1208ae6f9cfa156438e453f6d",
            "0x000000000000000000000000437cc33344a0b27a429f795ff6b469c72698b291",
            "0x0000000000000000000000000000000000000000000000000000000000002713",
            "0x000000000000000000000000437cc33344a0b27a429f795ff6b469c72698b291"
          ],
          "data": "0x0000000000000000000000000000000000000000000000000000000000000001",
          "blockHash": "0xb1f82154501a6836ae822deebfaa195e37f28ced9afc79e2c26cf174d72f7228",
          "blockNumber": "0x1f8ba60",
          "blockTimestamp": "0x6904d3a0",
          "transactionHash": "0xbd69b05226bd18fb653d7896932ea123e405ce52d302c9148d8a25277f55d7f2",
          "transactionIndex": "0x2b",
          "logIndex": "0x34",
          "removed": false
        }
      ],
      "logsBloom": "0x00000008000002000000000000000000000000000000000000000000000000000100000000000000000000000000000000000000000000000000000000000000800000000000000000000000000000100000000000024000000000000000000000000000000000000000000000000000000000000000000000000000000000000000000000000000000000000000000000000000000000000000000000000000000000000000000000000000008000000000000000020000000000000000080000000000000000000000000000000000000000000000000000000000000000200000000000000000000000000000000000010000000000000000000000000000",
      "type": "0x2",
      "transactionHash": "0xbd69b05226bd18fb653d7896932ea123e405ce52d302c9148d8a25277f55d7f2",
      "transactionIndex": "0x2b",
      "blockHash": "0xb1f82154501a6836ae822deebfaa195e37f28ced9afc79e2c26cf174d72f7228",
      "blockNumber": "0x1f8ba60",
      "gasUsed": "0xd361",
      "effectiveGasPrice": "0xedd53",
      "from": "0xf2f1acbe0ba726fee8d75f3e32900526874740bb",
      "to": "0xd925c84b55e4e44a53749ff5f2a5a13f63d128fd",
      "contractAddress": null,
      "l1BaseFeeScalar": "0x44d",
      "l1BlobBaseFee": "0x1",
      "l1BlobBaseFeeScalar": "0xa118b",
      "l1Fee": "0x51",
      "l1GasPrice": "0x9",
      "l1GasUsed": "0x640"
    },
    {
      "status": "0x1",
      "cumulativeGasUsed": "0x15236ee",
      "logs": [
        {
          "address": "0x0763196a091575adf99e2306e5e90e0be5154841",
          "topics": [
            "0x528b18a533e892b5401d1fb63597275df9d2bb45b13e7695c3147cd07b9746c3"
          ],
          "data": "0x00000000000000000000000000000000000000000000000000000000000027130000000000000000000000000000000000000000000000000000000000000001",
          "blockHash": "0xb1d42d94fcb82e0621ff1ae456232b68bc547c33f3ee7f2c78d30acd757f0f18",
          "blockNumber": "0x1f8ba61",
          "blockTimestamp": "0x6904d3a2",
          "transactionHash": "0x5a9cdb29adbb9ae995509a84a75b965085fb646c4e8b7471770afa63069f4a4d",
          "transactionIndex": "0x2e",
          "logIndex": "0x6b",
          "removed": false
        }
      ],
      "logsBloom": "0x00000000000000000000000000000000000000000000000000000000000080000000000000400000000000000000000000000000000000000000000000000000000000000000000000000000800000000000000000000000000000000001000000000000000000001000000000000000000000000000000000000000000000000000000000000000000000000000000000000000000000000000000000000000002000000000000000000000000000000000000000000000000000000000000000000000000000000000000000000000000000000000000000000000000000000000000000000000000000000000000000000000000000000000000000000000",
      "type": "0x2",
      "transactionHash": "0x5a9cdb29adbb9ae995509a84a75b965085fb646c4e8b7471770afa63069f4a4d",
      "transactionIndex": "0x2e",
      "blockHash": "0xb1d42d94fcb82e0621ff1ae456232b68bc547c33f3ee7f2c78d30acd757f0f18",
      "blockNumber": "0x1f8ba61",
      "gasUsed": "0xccc2",
      "effectiveGasPrice": "0xedd53",
      "from": "0xf2f1acbe0ba726fee8d75f3e32900526874740bb",
      "to": "0x0763196a091575adf99e2306e5e90e0be5154841",
      "contractAddress": null,
      "l1BaseFeeScalar": "0x44d",
      "l1BlobBaseFee": "0x1",
      "l1BlobBaseFeeScalar": "0xa118b",
      "l1Fee": "0x152",
      "l1GasPrice": "0x9",
      "l1GasUsed": "0x640"
    },
    {
      "status": "0x1",
      "cumulativeGasUsed": "0x30d07d",
      "logs": [
        {
          "address": "0x79a1027a6a159502049f10906d333ec57e95f083",
          "topics": [
            "0x6eb224fb001ed210e379b335e35efe88672a8ce935d981a6896b27ffdf52a3b2",
            "0x0000000000000000000000000763196a091575adf99e2306e5e90e0be5154841"
          ],
          "data": "0x00000000000000000000000000000000000000000000000000000000000000020000000000000000000000000000000000000000000000000000000000000000000000000000000000000000000000000000000000000000000000000000008000000000000000000000000000000000000000000000000000000000000000c8000000000000000000000000000000000000000000000000000000000000002618fc67c227130000000000000000000000000763196a091575adf99e2306e5e90e0be51548410000000000000000000000000000000000000000000000000000",
          "blockHash": "0xbff574ef0cd2aae8eeeaa1dff816455428b442b9ced6f513589428c7e70f95f7",
          "blockNumber": "0x1f8ba62",
          "blockTimestamp": "0x6904d3a4",
          "transactionHash": "0xfa9d744bcd2c3ee270c4ff645853338aa6d7f6a043a388f6cf0889d144d3b40d",
          "transactionIndex": "0x11",
          "logIndex": "0x44",
          "removed": false
        },
        {
          "address": "0x0763196a091575adf99e2306e5e90e0be5154841",
          "topics": [
            "0xa559263ee060c7a2560843b3a064ff0376c9753ae3e2449b595a3b615d326466"
          ],
          "data": "0x00000000000000000000000000000000000000000000000000000000000027130000000000000000000000000763196a091575adf99e2306e5e90e0be5154841",
          "blockHash": "0xbff574ef0cd2aae8eeeaa1dff816455428b442b9ced6f513589428c7e70f95f7",
          "blockNumber": "0x1f8ba62",
          "blockTimestamp": "0x6904d3a4",
          "transactionHash": "0xfa9d744bcd2c3ee270c4ff645853338aa6d7f6a043a388f6cf0889d144d3b40d",
          "transactionIndex": "0x11",
          "logIndex": "0x45",
          "removed": false
        }
      ],
      "logsBloom": "0x00000000000100000000000000000000000000000000000000000000000000000010000000000000000000000010000000000000000000000000000000000000000000000000000000000000000000000000000100000000000000000001000000000000000000001000000000000000000000000000000000000000000000000000000000000000000000000000000000000000000000000000000000000000002000000400000000000000000100000000044000000000000000008000000000000000000000000000000000000000400000000000000000000000000000000000000000000000210000000000000000000000000000000000000000000000",
      "type": "0x2",
      "transactionHash": "0xfa9d744bcd2c3ee270c4ff645853338aa6d7f6a043a388f6cf0889d144d3b40d",
      "transactionIndex": "0x11",
      "blockHash": "0xbff574ef0cd2aae8eeeaa1dff816455428b442b9ced6f513589428c7e70f95f7",
      "blockNumber": "0x1f8ba62",
      "gasUsed": "0x12ed4",
      "effectiveGasPrice": "0xedd54",
      "from": "0xf2f1acbe0ba726fee8d75f3e32900526874740bb",
      "to": "0x0763196a091575adf99e2306e5e90e0be5154841",
      "contractAddress": null,
      "l1BaseFeeScalar": "0x44d",
      "l1BlobBaseFee": "0x1",
      "l1BlobBaseFeeScalar": "0xa118b",
      "l1Fee": "0x51",
      "l1GasPrice": "0x9",
      "l1GasUsed": "0x640"
    },
    {
      "status": "0x1",
      "cumulativeGasUsed": "0x438d93",
      "logs": [
        {
          "address": "0x0763196a091575adf99e2306e5e90e0be5154841",
          "topics": [
            "0x4add57d97a7bf5035340ea1212aeeb3d4d3887eb1faf3821a8224c3a6956a10c"
          ],
          "data": "0x00000000000000000000000000000000000000000000000000000000000027130000000000000000000000000000000000000000000000000000000000000001",
          "blockHash": "0xfd898166abbfdd94c5b5afa8a8763e21a06760a349b42a3fc95daa8b798373d7",
          "blockNumber": "0x1f8ba63",
          "blockTimestamp": "0x6904d3a6",
          "transactionHash": "0x6881ad80b8285aca930df093ef6dc33aa1968a095563f1349d1ad47a9e58e732",
          "transactionIndex": "0x1d",
          "logIndex": "0x44",
          "removed": false
        }
      ],
      "logsBloom": "0x00000000000000080000000000000000000000000000000000000000000000000000000000000000000000000000000000000000000000000000000000000000000000000000000000000000000000000000000000000000000000000001000000000000000000001000000000000000000000000000000000000080000000000000000000000000000000000000000000000000000000000000000000000000002000000000000000000000000000000000000000000000000000000000000000000000000000000000000000000000000000000000000000000000000000000000000000000000000000000000000000000040000000000000000000000000",
      "type": "0x2",
      "transactionHash": "0x6881ad80b8285aca930df093ef6dc33aa1968a095563f1349d1ad47a9e58e732",
      "transactionIndex": "0x1d",
      "blockHash": "0xfd898166abbfdd94c5b5afa8a8763e21a06760a349b42a3fc95daa8b798373d7",
      "blockNumber": "0x1f8ba63",
      "gasUsed": "0xcde0",
      "effectiveGasPrice": "0xedd54",
      "from": "0xf2f1acbe0ba726fee8d75f3e32900526874740bb",
      "to": "0x0763196a091575adf99e2306e5e90e0be5154841",
      "contractAddress": null,
      "l1BaseFeeScalar": "0x44d",
      "l1BlobBaseFee": "0x1",
      "l1BlobBaseFeeScalar": "0xa118b",
      "l1Fee": "0x51",
      "l1GasPrice": "0x9",
      "l1GasUsed": "0x640"
    },
    {
      "status": "0x1",
      "cumulativeGasUsed": "0x1635ce",
      "logs": [
        {
          "address": "0xd925c84b55e4e44a53749ff5f2a5a13f63d128fd",
          "topics": [
            "0x1456404e7f41f35c3daac941bb50bad417a66275c3040061b4287d787719599d",
            "0x0000000000000000000000000000000000000000000000000000000000002715"
          ],
          "data": "0x00000000000000000000000000000000000000000000000000000000000000000000000000000000000000000000000000000000000000000000000000000000000000000000000000000000d925c84b55e4e44a53749ff5f2a5a13f63d128fd0000000000000000000000000000000000000000000000000000000000000006",
          "blockHash": "0xa94c170d58bbec7e7e01d02f24812f89a1b4f14bc4d72f2dce6ef7fd065e5a24",
          "blockNumber": "0x1f8ba64",
          "blockTimestamp": "0x6904d3a8",
          "transactionHash": "0x999e5b62581eaad0d4802ff733016c451b26788d640f7225199c314eb8199ba4",
          "transactionIndex": "0x14",
          "logIndex": "0x16",
          "removed": false
        }
      ],
      "logsBloom": "0x00000000000000000000000000000000000000000000000000000000010000000000800000000000002000000000000000000000000000000000000000000000000000000000000000000000000000000000000000024000000000000000000000002000000000000000000000000000000000000000000000000000000000000000000000000000000008000000000000000000000000000000000000000000000000000000000000000000000000000000000000000000000000000000080000000000000000000000000000000000000000000000000000000000000000000000000000000000000000000000008000000000000000000000000000000000",
      "type": "0x2",
      "transactionHash": "0x999e5b62581eaad0d4802ff733016c451b26788d640f7225199c314eb8199ba4",
      "transactionIndex": "0x14",
      "blockHash": "0xa94c170d58bbec7e7e01d02f24812f89a1b4f14bc4d72f2dce6ef7fd065e5a24",
      "blockNumber": "0x1f8ba64",
      "gasUsed": "0x14c7c",
      "effectiveGasPrice": "0xedd54",
      "from": "0xf2f1acbe0ba726fee8d75f3e32900526874740bb",
      "to": "0xd925c84b55e4e44a53749ff5f2a5a13f63d128fd",
      "contractAddress": null,
      "l1BaseFeeScalar": "0x44d",
      "l1BlobBaseFee": "0x1",
      "l1BlobBaseFeeScalar": "0xa118b",
      "l1Fee": "0x51",
      "l1GasPrice": "0x9",
      "l1GasUsed": "0x640"
    },
    {
      "status": "0x1",
      "cumulativeGasUsed": "0x20755c",
      "logs": [
        {
          "address": "0xd925c84b55e4e44a53749ff5f2a5a13f63d128fd",
          "topics": [
            "0xe6658eeba76934cef78dc5f420ee40406e4876e8d3e767f7b700c63daf1bf0ba",
            "0x0000000000000000000000000000000000000000000000000000000000002715"
          ],
          "data": "0x000000000000000000000000866a2bf4e572cbcf37d5071a7a58503bfb36be1b",
          "blockHash": "0x726a0002c941f69d8a03d5b8e239af56e5835631ed98704061b168f856f483fc",
          "blockNumber": "0x1f8ba65",
          "blockTimestamp": "0x6904d3aa",
          "transactionHash": "0xa7e566f894edc93bd3b43d30d261f739ece28cd0d9f83149b605f31d82fab2df",
          "transactionIndex": "0x20",
          "logIndex": "0x2f",
          "removed": false
        }
      ],
      "logsBloom": "0x00000000000000000000000000000000000000000000000000000000010000000000800000000000000000000000000000000000000000000000000000000000000000000000000000000000002000000000000000024000000000000000000000000000000000000000000000000000000000000000000000000000000000000000000000000000000000000000000000000000000000000000000000000000000080000000000000000000000000000000000000000000000000000000080000000000000020000000000000000000000000000000000000000000000000000000000000000000000000000000008000000000000000000000000000000000",
      "type": "0x2",
      "transactionHash": "0xa7e566f894edc93bd3b43d30d261f739ece28cd0d9f83149b605f31d82fab2df",
      "transactionIndex": "0x20",
      "blockHash": "0x726a0002c941f69d8a03d5b8e239af56e5835631ed98704061b168f856f483fc",
      "blockNumber": "0x1f8ba65",
      "gasUsed": "0xce67",
      "effectiveGasPrice": "0xedd54",
      "from": "0xf2f1acbe0ba726fee8d75f3e32900526874740bb",
      "to": "0xd925c84b55e4e44a53749ff5f2a5a13f63d128fd",
      "contractAddress": null,
      "l1BaseFeeScalar": "0x44d",
      "l1BlobBaseFee": "0x1",
      "l1BlobBaseFeeScalar": "0xa118b",
      "l1Fee": "0x51",
      "l1GasPrice": "0x9",
      "l1GasUsed": "0x640"
    },
    {
      "status": "0x1",
      "cumulativeGasUsed": "0x168cc8",
      "logs": [
        {
          "address": "0xd925c84b55e4e44a53749ff5f2a5a13f63d128fd",
          "topics": [
            "0xeb8377c150d1438121333afa2027232605a400b1208ae6f9cfa156438e453f6d",
            "0x000000000000000000000000866a2bf4e572cbcf37d5071a7a58503bfb36be1b",
            "0x0000000000000000000000000000000000000000000000000000000000002715",
            "0x000000000000000000000000866a2bf4e572cbcf37d5071a7a58503bfb36be1b"
          ],
          "data": "0x0000000000000000000000000000000000000000000000000000000000000001",
          "blockHash": "0xd5ad591fffc2980c47b2bf0b18ede61c43ff476b177eafc810d102433ded7961",
          "blockNumber": "0x1f8ba66",
          "blockTimestamp": "0x6904d3ac",
          "transactionHash": "0x4a43606fa1974a382f85da8642dc2d71eab5947b98b2723b93f4c60771d15130",
          "transactionIndex": "0xe",
          "logIndex": "0x37",
          "removed": false
        }
      ],
      "logsBloom": "0x00000008000000000000000000000000000000000000000000000000010000000000800000000000000000000000000000000000000000000000000000000000800000000000000000000000000000000000000000024000000000000000000000000000000000000000000000000000000000000000000100000000000000000000000000000000000000000040000000000000000000000000000000000000000000000000000000000000008000000000000000000000000000000000080000000000000400000000000000000000000000000000000000000000000000000000000000000000000000000000008000000000000000000000000000000000",
      "type": "0x2",
      "transactionHash": "0x4a43606fa1974a382f85da8642dc2d71eab5947b98b2723b93f4c60771d15130",
      "transactionIndex": "0xe",
      "blockHash": "0xd5ad591fffc2980c47b2bf0b18ede61c43ff476b177eafc810d102433ded7961",
      "blockNumber": "0x1f8ba66",
      "gasUsed": "0xd361",
      "effectiveGasPrice": "0xedd53",
      "from": "0xf2f1acbe0ba726fee8d75f3e32900526874740bb",
      "to": "0xd925c84b55e4e44a53749ff5f2a5a13f63d128fd",
      "contractAddress": null,
      "l1BaseFeeScalar": "0x44d",
      "l1BlobBaseFee": "0x1",
      "l1BlobBaseFeeScalar": "0xa118b",
      "l1Fee": "0x51",
      "l1GasPrice": "0x9",
      "l1GasUsed": "0x640"
    },
    {
      "status": "0x1",
      "cumulativeGasUsed": "0x2cca2b",
      "logs": [
        {
          "address": "0xd925c84b55e4e44a53749ff5f2a5a13f63d128fd",
          "topics": [
            "0xeb8377c150d1438121333afa2027232605a400b1208ae6f9cfa156438e453f6d",
            "0x000000000000000000000000866a2bf4e572cbcf37d5071a7a58503bfb36be1b",
            "0x0000000000000000000000000000000000000000000000000000000000002715",
            "0x000000000000000000000000437cc33344a0b27a429f795ff6b469c72698b291"
          ],
          "data": "0x0000000000000000000000000000000000000000000000000000000000000001",
          "blockHash": "0x4acbd6bc9619b54426409f7f5d50220630be1ba69cd4bf9614cd77b98b684d06",
          "blockNumber": "0x1f8ba67",
          "blockTimestamp": "0x6904d3ae",
          "transactionHash": "0xa74add71453dfc559cb3cd7ba28e7e6511c88303d9484bb0fab7c438263fe8a0",
          "transactionIndex": "0x17",
          "logIndex": "0x18",
          "removed": false
        }
      ],
      "logsBloom": "0x00000008000002000000000000000000000000000000000000000000010000000000800000000000000000000000000000000000000000000000000000000000800000000000000000000000000000000000000000024000000000000000000000000000000000000000000000000000000000000000000100000000000000000000000000000000000000000040000000000000000000000000000000000000000000000000000000000000008000000000000000020000000000000000080000000000000400000000000000000000000000000000000000000000000000200000000000000000000000000000008000000000000000000000000000000000",
      "type": "0x2",
      "transactionHash": "0xa74add71453dfc559cb3cd7ba28e7e6511c88303d9484bb0fab7c438263fe8a0",
      "transactionIndex": "0x17",
      "blockHash": "0x4acbd6bc9619b54426409f7f5d50220630be1ba69cd4bf9614cd77b98b684d06",
      "blockNumber": "0x1f8ba67",
      "gasUsed": "0xd361",
      "effectiveGasPrice": "0xedd53",
      "from": "0xf2f1acbe0ba726fee8d75f3e32900526874740bb",
      "to": "0xd925c84b55e4e44a53749ff5f2a5a13f63d128fd",
      "contractAddress": null,
      "l1BaseFeeScalar": "0x44d",
      "l1BlobBaseFee": "0x1",
      "l1BlobBaseFeeScalar": "0xa118b",
      "l1Fee": "0x5c",
      "l1GasPrice": "0x9",
      "l1GasUsed": "0x710"
    },
    {
      "status": "0x1",
      "cumulativeGasUsed": "0x37e072",
      "logs": [
        {
          "address": "0xd925c84b55e4e44a53749ff5f2a5a13f63d128fd",
          "topics": [
            "0xeb8377c150d1438121333afa2027232605a400b1208ae6f9cfa156438e453f6d",
            "0x000000000000000000000000437cc33344a0b27a429f795ff6b469c72698b291",
            "0x0000000000000000000000000000000000000000000000000000000000002715",
            "0x000000000000000000000000866a2bf4e572cbcf37d5071a7a58503bfb36be1b"
          ],
          "data": "0x0000000000000000000000000000000000000000000000000000000000000001",
          "blockHash": "0xc5d11793595438c486debeba8fa454fc7352c37dedd8636ca02592f01f4be693",
          "blockNumber": "0x1f8ba68",
          "blockTimestamp": "0x6904d3b0",
          "transactionHash": "0xb52f4123eaf3fb388132ce1a95a4120e66b5ea42ccb908b6d7565be4a8629b9c",
          "transactionIndex": "0x12",
          "logIndex": "0x11",
          "removed": false
        }
      ],
      "logsBloom": "0x00000008000002000000000000000000000000000000000000000000010000000000800000000000000000000000000000000000000000000000000000000000800000000000000000000000000000000000000000024000000000000000000000000000000000000000000000000000000000000000000100000000000000000000000000000000000000000040000000000000000000000000000000000000000000000000000000000000008000000000000000020000000000000000080000000000000400000000000000000000000000000000000000000000000000200000000000000000000000000000008000000000000000000000000000000000",
      "type": "0x2",
      "transactionHash": "0xb52f4123eaf3fb388132ce1a95a4120e66b5ea42ccb908b6d7565be4a8629b9c",
      "transactionIndex": "0x12",
      "blockHash": "0xc5d11793595438c486debeba8fa454fc7352c37dedd8636ca02592f01f4be693",
      "blockNumber": "0x1f8ba68",
      "gasUsed": "0xd361",
      "effectiveGasPrice": "0xedd53",
      "from": "0xf2f1acbe0ba726fee8d75f3e32900526874740bb",
      "to": "0xd925c84b55e4e44a53749ff5f2a5a13f63d128fd",
      "contractAddress": null,
      "l1BaseFeeScalar": "0x44d",
      "l1BlobBaseFee": "0x1",
      "l1BlobBaseFeeScalar": "0xa118b",
      "l1Fee": "0x51",
      "l1GasPrice": "0x9",
      "l1GasUsed": "0x710"
    },
    {
      "status": "0x1",
      "cumulativeGasUsed": "0x346c39",
      "logs": [
        {
          "address": "0xd925c84b55e4e44a53749ff5f2a5a13f63d128fd",
          "topics": [
            "0xeb8377c150d1438121333afa2027232605a400b1208ae6f9cfa156438e453f6d",
            "0x000000000000000000000000437cc33344a0b27a429f795ff6b469c72698b291",
            "0x0000000000000000000000000000000000000000000000000000000000002715",
            "0x000000000000000000000000437cc33344a0b27a429f795ff6b469c72698b291"
          ],
          "data": "0x0000000000000000000000000000000000000000000000000000000000000001",
          "blockHash": "0x5cde24eb27139ddded784192ceced4fba1710601e12875758ba611fdc581767a",
          "blockNumber": "0x1f8ba69",
          "blockTimestamp": "0x6904d3b2",
          "transactionHash": "0xf12786ac1c86e840cd404d82cd92777966310d6f1446c2f4ea32968754e893b1",
          "transactionIndex": "0x21",
          "logIndex": "0x7a",
          "removed": false
        }
      ],
      "logsBloom": "0x00000008000002000000000000000000000000000000000000000000010000000000800000000000000000000000000000000000000000000000000000000000800000000000000000000000000000000000000000024000000000000000000000000000000000000000000000000000000000000000000000000000000000000000000000000000000000000000000000000000000000000000000000000000000000000000000000000000008000000000000000020000000000000000080000000000000000000000000000000000000000000000000000000000000000200000000000000000000000000000008000000000000000000000000000000000",
      "type": "0x2",
      "transactionHash": "0xf12786ac1c86e840cd404d82cd92777966310d6f1446c2f4ea32968754e893b1",
      "transactionIndex": "0x21",
      "blockHash": "0x5cde24eb27139ddded784192ceced4fba1710601e12875758ba611fdc581767a",
      "blockNumber": "0x1f8ba69",
      "gasUsed": "0xd361",
      "effectiveGasPrice": "0xedd54",
      "from": "0xf2f1acbe0ba726fee8d75f3e32900526874740bb",
      "to": "0xd925c84b55e4e44a53749ff5f2a5a13f63d128fd",
      "contractAddress": null,
      "l1BaseFeeScalar": "0x44d",
      "l1BlobBaseFee": "0x1",
      "l1BlobBaseFeeScalar": "0xa118b",
      "l1Fee": "0x51",
      "l1GasPrice": "0x9",
      "l1GasUsed": "0x640"
    },
    {
      "status": "0x1",
      "cumulativeGasUsed": "0x31dd31",
      "logs": [
        {
          "address": "0x0763196a091575adf99e2306e5e90e0be5154841",
          "topics": [
            "0x528b18a533e892b5401d1fb63597275df9d2bb45b13e7695c3147cd07b9746c3"
          ],
          "data": "0x00000000000000000000000000000000000000000000000000000000000027150000000000000000000000000000000000000000000000000000000000000001",
          "blockHash": "0x0f7c4488a82f620813d4de519ee4b612e68e52e29ea01bb275bc6a44abfd3630",
          "blockNumber": "0x1f8ba6a",
          "blockTimestamp": "0x6904d3b4",
          "transactionHash": "0x6c05048d3fbda8e453d7ff004c2fd5cd1eb78fee7c25fb83bf4fe2bb3afe469a",
          "transactionIndex": "0x15",
          "logIndex": "0x43",
          "removed": false
        }
      ],
      "logsBloom": "0x00000000000000000000000000000000000000000000000000000000000080000000000000400000000000000000000000000000000000000000000000000000000000000000000000000000800000000000000000000000000000000001000000000000000000001000000000000000000000000000000000000000000000000000000000000000000000000000000000000000000000000000000000000000002000000000000000000000000000000000000000000000000000000000000000000000000000000000000000000000000000000000000000000000000000000000000000000000000000000000000000000000000000000000000000000000",
      "type": "0x2",
      "transactionHash": "0x6c05048d3fbda8e453d7ff004c2fd5cd1eb78fee7c25fb83bf4fe2bb3afe469a",
      "transactionIndex": "0x15",
      "blockHash": "0x0f7c4488a82f620813d4de519ee4b612e68e52e29ea01bb275bc6a44abfd3630",
      "blockNumber": "0x1f8ba6a",
      "gasUsed": "0xccc2",
      "effectiveGasPrice": "0xedd54",
      "from": "0xf2f1acbe0ba726fee8d75f3e32900526874740bb",
      "to": "0x0763196a091575adf99e2306e5e90e0be5154841",
      "contractAddress": null,
      "l1BaseFeeScalar": "0x44d",
      "l1BlobBaseFee": "0x1",
      "l1BlobBaseFeeScalar": "0xa118b",
      "l1Fee": "0x51",
      "l1GasPrice": "0x9",
      "l1GasUsed": "0x640"
    },
    {
      "status": "0x1",
      "cumulativeGasUsed": "0x84a35d",
      "logs": [
        {
          "address": "0x79a1027a6a159502049f10906d333ec57e95f083",
          "topics": [
            "0x6eb224fb001ed210e379b335e35efe88672a8ce935d981a6896b27ffdf52a3b2",
            "0x0000000000000000000000000763196a091575adf99e2306e5e90e0be5154841"
          ],
          "data": "0x00000000000000000000000000000000000000000000000000000000000000030000000000000000000000000000000000000000000000000000000000000000000000000000000000000000000000000000000000000000000000000000008000000000000000000000000000000000000000000000000000000000000000c8000000000000000000000000000000000000000000000000000000000000002618fc67c227150000000000000000000000000763196a091575adf99e2306e5e90e0be51548410000000000000000000000000000000000000000000000000000",
          "blockHash": "0x8f8bf68bddbcf4ee8d506896c1f4b1463696787eba53dcde697628d93a1fd6dd",
          "blockNumber": "0x1f8ba6b",
          "blockTimestamp": "0x6904d3b6",
          "transactionHash": "0xb1e37bb284fe3e34eb7e61e88455417df218e607cfeea4794d49ee26f2f85c94",
          "transactionIndex": "0x15",
          "logIndex": "0xf0",
          "removed": false
        },
        {
          "address": "0x0763196a091575adf99e2306e5e90e0be5154841",
          "topics": [
            "0xa559263ee060c7a2560843b3a064ff0376c9753ae3e2449b595a3b615d326466"
          ],
          "data": "0x00000000000000000000000000000000000000000000000000000000000027150000000000000000000000000763196a091575adf99e2306e5e90e0be5154841",
          "blockHash": "0x8f8bf68bddbcf4ee8d506896c1f4b1463696787eba53dcde697628d93a1fd6dd",
          "blockNumber": "0x1f8ba6b",
          "blockTimestamp": "0x6904d3b6",
          "transactionHash": "0xb1e37bb284fe3e34eb7e61e88455417df218e607cfeea4794d49ee26f2f85c94",
          "transactionIndex": "0x15",
          "logIndex": "0xf1",
          "removed": false
        }
      ],
      "logsBloom": "0x00000000000100000000000000000000000000000000000000000000000000000010000000000000000000000010000000000000000000000000000000000000000000000000000000000000000000000000000100000000000000000001000000000000000000001000000000000000000000000000000000000000000000000000000000000000000000000000000000000000000000000000000000000000002000000400000000000000000100000000044000000000000000008000000000000000000000000000000000000000400000000000000000000000000000000000000000000000210000000000000000000000000000000000000000000000",
      "type": "0x2",
      "transactionHash": "0xb1e37bb284fe3e34eb7e61e88455417df218e607cfeea4794d49ee26f2f85c94",
      "transactionIndex": "0x15",
      "blockHash": "0x8f8bf68bddbcf4ee8d506896c1f4b1463696787eba53dcde697628d93a1fd6dd",
      "blockNumber": "0x1f8ba6b",
      "gasUsed": "0x12ed4",
      "effectiveGasPrice": "0xedd54",
      "from": "0xf2f1acbe0ba726fee8d75f3e32900526874740bb",
      "to": "0x0763196a091575adf99e2306e5e90e0be5154841",
      "contractAddress": null,
      "l1BaseFeeScalar": "0x44d",
      "l1BlobBaseFee": "0x1",
      "l1BlobBaseFeeScalar": "0xa118b",
      "l1Fee": "0x51",
      "l1GasPrice": "0x9",
      "l1GasUsed": "0x640"
    },
    {
      "status": "0x1",
      "cumulativeGasUsed": "0x4e1134",
      "logs": [
        {
          "address": "0x0763196a091575adf99e2306e5e90e0be5154841",
          "topics": [
            "0x4add57d97a7bf5035340ea1212aeeb3d4d3887eb1faf3821a8224c3a6956a10c"
          ],
          "data": "0x00000000000000000000000000000000000000000000000000000000000027150000000000000000000000000000000000000000000000000000000000000001",
          "blockHash": "0x242e29aea6504dd97576810533067720ac90d232c4f42fef85ba970f62ab7535",
          "blockNumber": "0x1f8ba6c",
          "blockTimestamp": "0x6904d3b8",
          "transactionHash": "0xeb3fc1e32fb07692f2d8ad6f9609d16dd3d4c961333d9ff87ce948fa8f64f0a8",
          "transactionIndex": "0x27",
          "logIndex": "0xa6",
          "removed": false
        }
      ],
      "logsBloom": "0x00000000000000080000000000000000000000000000000000000000000000000000000000000000000000000000000000000000000000000000000000000000000000000000000000000000000000000000000000000000000000000001000000000000000000001000000000000000000000000000000000000080000000000000000000000000000000000000000000000000000000000000000000000000002000000000000000000000000000000000000000000000000000000000000000000000000000000000000000000000000000000000000000000000000000000000000000000000000000000000000000000040000000000000000000000000",
      "type": "0x2",
      "transactionHash": "0xeb3fc1e32fb07692f2d8ad6f9609d16dd3d4c961333d9ff87ce948fa8f64f0a8",
      "transactionIndex": "0x27",
      "blockHash": "0x242e29aea6504dd97576810533067720ac90d232c4f42fef85ba970f62ab7535",
      "blockNumber": "0x1f8ba6c",
      "gasUsed": "0xcde0",
      "effectiveGasPrice": "0xedd54",
      "from": "0xf2f1acbe0ba726fee8d75f3e32900526874740bb",
      "to": "0x0763196a091575adf99e2306e5e90e0be5154841",
      "contractAddress": null,
      "l1BaseFeeScalar": "0x44d",
      "l1BlobBaseFee": "0x1",
      "l1BlobBaseFeeScalar": "0xa118b",
      "l1Fee": "0x51",
      "l1GasPrice": "0x9",
      "l1GasUsed": "0x640"
    }
  ],
  "libraries": [],
  "pending": [],
  "returns": {},
  "timestamp": 1761924024,
  "chain": 84532,
  "commit": "3893460"
}
