{
  "transactions": [
    {
      "hash": "0xf4aaaad17d90b9f072a11ad9477bdf14afc091bc24d0735d0bcf4e29b942a676",
      "transactionType": "CALL",
      "contractName": null,
      "contractAddress": "0x83ae82bd4054e815fb7b189c39d9ce670369ea16",
      "function": "setPeer(uint16,bytes32,uint8,uint256)",
      "arguments": [
        "4009",
        "0x0000000000000000000000002e859506ba229c183f8985d54fe7210923fb9bca",
        "6",
        "0"
      ],
      "transaction": {
        "from": "0xf2f1acbe0ba726fee8d75f3e32900526874740bb",
        "to": "0x83ae82bd4054e815fb7b189c39d9ce670369ea16",
        "gas": "0x1b15e",
        "value": "0x0",
        "input": "0x7c9186340000000000000000000000000000000000000000000000000000000000000fa90000000000000000000000002e859506ba229c183f8985d54fe7210923fb9bca00000000000000000000000000000000000000000000000000000000000000060000000000000000000000000000000000000000000000000000000000000000",
        "nonce": "0x56",
        "chainId": "0x1"
      },
      "additionalContracts": [],
      "isFixedGasLimit": false
    },
    {
      "hash": "0x2bb25cf39ca8a0722c5ba5c49334bdcd4e4eb2e777ab3472cd10dc17884e18c3",
      "transactionType": "CALL",
      "contractName": null,
      "contractAddress": "0x83ae82bd4054e815fb7b189c39d9ce670369ea16",
      "function": "setDestinationMToken(uint16,bytes32)",
      "arguments": [
        "4009",
        "0x000000000000000000000000000000000000000000000000000000757573646e"
      ],
      "transaction": {
        "from": "0xf2f1acbe0ba726fee8d75f3e32900526874740bb",
        "to": "0x83ae82bd4054e815fb7b189c39d9ce670369ea16",
        "gas": "0x12d1b",
        "value": "0x0",
        "input": "0x76a4a5390000000000000000000000000000000000000000000000000000000000000fa9000000000000000000000000000000000000000000000000000000757573646e",
        "nonce": "0x57",
        "chainId": "0x1"
      },
      "additionalContracts": [],
      "isFixedGasLimit": false
    },
    {
      "hash": "0x893076a1814f87ff3206495666b6783c8fb7eecbe4aaed13907436d090cd9eb5",
      "transactionType": "CALL",
      "contractName": null,
      "contractAddress": "0x83ae82bd4054e815fb7b189c39d9ce670369ea16",
      "function": "setSupportedBridgingPath(address,uint16,bytes32,bool)",
      "arguments": [
        "0x866A2BF4E572CbcF37D5071A7a58503Bfb36be1b",
        "4009",
        "0x000000000000000000000000000000000000000000000000000000757573646e",
        "true"
      ],
      "transaction": {
        "from": "0xf2f1acbe0ba726fee8d75f3e32900526874740bb",
        "to": "0x83ae82bd4054e815fb7b189c39d9ce670369ea16",
        "gas": "0x13402",
        "value": "0x0",
        "input": "0x1482cb4a000000000000000000000000866a2bf4e572cbcf37d5071a7a58503bfb36be1b0000000000000000000000000000000000000000000000000000000000000fa9000000000000000000000000000000000000000000000000000000757573646e0000000000000000000000000000000000000000000000000000000000000001",
        "nonce": "0x58",
        "chainId": "0x1"
      },
      "additionalContracts": [],
      "isFixedGasLimit": false
    },
    {
      "hash": "0xf55c70186cb2840137e1063c3a05f9d2874b9f2af0f1073edfab086611851322",
      "transactionType": "CALL",
      "contractName": null,
      "contractAddress": "0x83ae82bd4054e815fb7b189c39d9ce670369ea16",
      "function": "setSupportedBridgingPath(address,uint16,bytes32,bool)",
      "arguments": [
        "0x437cc33344a0B27A429f795ff6B469C72698B291",
        "4009",
        "0x000000000000000000000000000000000000000000000000000000757573646e",
        "true"
      ],
      "transaction": {
        "from": "0xf2f1acbe0ba726fee8d75f3e32900526874740bb",
        "to": "0x83ae82bd4054e815fb7b189c39d9ce670369ea16",
        "gas": "0x13402",
        "value": "0x0",
        "input": "0x1482cb4a000000000000000000000000437cc33344a0b27a429f795ff6b469c72698b2910000000000000000000000000000000000000000000000000000000000000fa9000000000000000000000000000000000000000000000000000000757573646e0000000000000000000000000000000000000000000000000000000000000001",
        "nonce": "0x59",
        "chainId": "0x1"
      },
      "additionalContracts": [],
      "isFixedGasLimit": false
    },
    {
      "hash": "0xc983151ec985503a46ebcc7dd7b7588d0bbd01949fef25312658e451cca87980",
      "transactionType": "CALL",
      "contractName": null,
      "contractAddress": "0xc7dd372c39e38bf11451ab4a8427b4ae38cef644",
      "function": "setWormholePeer(uint16,bytes32)",
      "arguments": [
        "4009",
        "0x000000000000000000000000d1c9983597b8e45859df215dedad924b0f8505e3"
      ],
      "transaction": {
        "from": "0xf2f1acbe0ba726fee8d75f3e32900526874740bb",
        "to": "0xc7dd372c39e38bf11451ab4a8427b4ae38cef644",
        "gas": "0x1a258",
        "value": "0x0",
        "input": "0x7ab564030000000000000000000000000000000000000000000000000000000000000fa9000000000000000000000000d1c9983597b8e45859df215dedad924b0f8505e3",
        "nonce": "0x5a",
        "chainId": "0x1"
      },
      "additionalContracts": [],
      "isFixedGasLimit": false
    }
  ],
  "receipts": [
    {
      "status": "0x1",
      "cumulativeGasUsed": "0x1782f0d",
      "logs": [
        {
          "address": "0x83ae82bd4054e815fb7b189c39d9ce670369ea16",
          "topics": [
            "0x1456404e7f41f35c3daac941bb50bad417a66275c3040061b4287d787719599d",
            "0x0000000000000000000000000000000000000000000000000000000000000fa9"
          ],
          "data": "0x000000000000000000000000000000000000000000000000000000000000000000000000000000000000000000000000000000000000000000000000000000000000000000000000000000002e859506ba229c183f8985d54fe7210923fb9bca0000000000000000000000000000000000000000000000000000000000000006",
          "blockHash": "0xdb6f2b243e4ebc72afc1b5d8dc19b3bae5cdd42e77b4ddff7011afbf52d884af",
          "blockNumber": "0x14f3545",
          "transactionHash": "0xf4aaaad17d90b9f072a11ad9477bdf14afc091bc24d0735d0bcf4e29b942a676",
          "transactionIndex": "0xb2",
          "logIndex": "0x2de",
          "removed": false
        }
      ],
      "logsBloom": "0x00000000000000000000000000000000000000000000000000000000000000000000000000000000002000000000000000000001000000000010000000000000000000000000000000000000000000000000000000040000002000000000000000002000000000000000000000000000000000000000000000800000000000000000000000000000000008000000000000000000000000000000000000000000000000000000000000000000000000000000000000000000000000000000000000000000000000000000000000000000000000000020000000000000000000000000000000000000000000000000000000000000000000000000000000000000",
      "type": "0x2",
      "transactionHash": "0xf4aaaad17d90b9f072a11ad9477bdf14afc091bc24d0735d0bcf4e29b942a676",
      "transactionIndex": "0xb2",
      "blockHash": "0xdb6f2b243e4ebc72afc1b5d8dc19b3bae5cdd42e77b4ddff7011afbf52d884af",
      "blockNumber": "0x14f3545",
      "gasUsed": "0x139c0",
      "effectiveGasPrice": "0x17d301f72",
      "from": "0xf2f1acbe0ba726fee8d75f3e32900526874740bb",
      "to": "0x83ae82bd4054e815fb7b189c39d9ce670369ea16",
      "contractAddress": null
    },
    {
      "status": "0x1",
      "cumulativeGasUsed": "0xda0533",
      "logs": [
        {
          "address": "0x83ae82bd4054e815fb7b189c39d9ce670369ea16",
          "topics": [
            "0xe6658eeba76934cef78dc5f420ee40406e4876e8d3e767f7b700c63daf1bf0ba",
            "0x0000000000000000000000000000000000000000000000000000000000000fa9"
          ],
          "data": "0x000000000000000000000000000000000000000000000000000000757573646e",
          "blockHash": "0x69876c3535f394c316193c4ee33143dfc7c20ab32435b7fc434eb4f6e8bde664",
          "blockNumber": "0x14f3546",
          "transactionHash": "0x2bb25cf39ca8a0722c5ba5c49334bdcd4e4eb2e777ab3472cd10dc17884e18c3",
          "transactionIndex": "0x82",
          "logIndex": "0x150",
          "removed": false
        }
      ],
      "logsBloom": "0x00000000000000000000000000000000000000000000000000000000000000000000000000000000000000000000000000000001000000000010000000000000000000000000000000000000002000000000000000040000002000000000000000000000000000000000000000000000000000000000000000800000000000000000000000000000000000000000000000000000000000000000000000000000000080000000000000000000000000000000000000000000000000000000000000000000000020000000000000000000000000000020000000000000000000000000000000000000000000000000000000000000000000000000000000000000",
      "type": "0x2",
      "transactionHash": "0x2bb25cf39ca8a0722c5ba5c49334bdcd4e4eb2e777ab3472cd10dc17884e18c3",
      "transactionIndex": "0x82",
      "blockHash": "0x69876c3535f394c316193c4ee33143dfc7c20ab32435b7fc434eb4f6e8bde664",
      "blockNumber": "0x14f3546",
      "gasUsed": "0xcde3",
      "effectiveGasPrice": "0x19f6dd25d",
      "from": "0xf2f1acbe0ba726fee8d75f3e32900526874740bb",
      "to": "0x83ae82bd4054e815fb7b189c39d9ce670369ea16",
      "contractAddress": null
    },
    {
      "status": "0x1",
      "cumulativeGasUsed": "0x5c44a7",
      "logs": [
        {
          "address": "0x83ae82bd4054e815fb7b189c39d9ce670369ea16",
          "topics": [
            "0xeb8377c150d1438121333afa2027232605a400b1208ae6f9cfa156438e453f6d",
            "0x000000000000000000000000866a2bf4e572cbcf37d5071a7a58503bfb36be1b",
            "0x0000000000000000000000000000000000000000000000000000000000000fa9",
            "0x000000000000000000000000000000000000000000000000000000757573646e"
          ],
          "data": "0x0000000000000000000000000000000000000000000000000000000000000001",
          "blockHash": "0x9fb9bfec2c0fe7d73c99405d6e22c06c372180c4307d24b56bd377e1956ddc69",
          "blockNumber": "0x14f3547",
          "transactionHash": "0x893076a1814f87ff3206495666b6783c8fb7eecbe4aaed13907436d090cd9eb5",
          "transactionIndex": "0x6b",
          "logIndex": "0x59",
          "removed": false
        }
      ],
      "logsBloom": "0x00000008000000000000000000000000000000000000000000000000000000000000000000000000000000000000000000000001000000000010000000000008800000000000000000000000000000000000000000040000002000000000000000000000000000000000000000000000000000000000000100800000000001000000000000000000000000000040000000000000000000000000000000000000000000000000000000000000008000000000000000000000000000000000000000000000000400000000000000000000000000800020000000000000000000000000000000000000000000000000000000000000000000000000000000000000",
      "type": "0x2",
      "transactionHash": "0x893076a1814f87ff3206495666b6783c8fb7eecbe4aaed13907436d090cd9eb5",
      "transactionIndex": "0x6b",
      "blockHash": "0x9fb9bfec2c0fe7d73c99405d6e22c06c372180c4307d24b56bd377e1956ddc69",
      "blockNumber": "0x14f3547",
      "gasUsed": "0xd29b",
      "effectiveGasPrice": "0x19a38ce95",
      "from": "0xf2f1acbe0ba726fee8d75f3e32900526874740bb",
      "to": "0x83ae82bd4054e815fb7b189c39d9ce670369ea16",
      "contractAddress": null
    },
    {
      "status": "0x1",
      "cumulativeGasUsed": "0xe55b43",
      "logs": [
        {
          "address": "0x83ae82bd4054e815fb7b189c39d9ce670369ea16",
          "topics": [
            "0xeb8377c150d1438121333afa2027232605a400b1208ae6f9cfa156438e453f6d",
            "0x000000000000000000000000437cc33344a0b27a429f795ff6b469c72698b291",
            "0x0000000000000000000000000000000000000000000000000000000000000fa9",
            "0x000000000000000000000000000000000000000000000000000000757573646e"
          ],
          "data": "0x0000000000000000000000000000000000000000000000000000000000000001",
          "blockHash": "0xb0939f32b780dd9e9c6cca98bae432e6560ec724bf1f31f14f22c31e06b34a34",
          "blockNumber": "0x14f354c",
          "transactionHash": "0xf55c70186cb2840137e1063c3a05f9d2874b9f2af0f1073edfab086611851322",
          "transactionIndex": "0x8c",
          "logIndex": "0x17a",
          "removed": false
        }
      ],
      "logsBloom": "0x00000008000002000000000000000000000000000000000000000000000000000000000000000000000000000000000000000001000000000010000000000008800000000000000000000000000000000000000000040000002000000000000000000000000000000000000000000000000000000000000000800000000001000000000000000000000000000000000000000000000000000000000000000000000000000000000000000000008000000000000000020000000000000000000000000000000000000000000000000000000000800020000000000000000000200000000000000000000000000000000000000000000000000000000000000000",
      "type": "0x2",
      "transactionHash": "0xf55c70186cb2840137e1063c3a05f9d2874b9f2af0f1073edfab086611851322",
      "transactionIndex": "0x8c",
      "blockHash": "0xb0939f32b780dd9e9c6cca98bae432e6560ec724bf1f31f14f22c31e06b34a34",
      "blockNumber": "0x14f354c",
      "gasUsed": "0xd29b",
      "effectiveGasPrice": "0x197d5b4b9",
      "from": "0xf2f1acbe0ba726fee8d75f3e32900526874740bb",
      "to": "0x83ae82bd4054e815fb7b189c39d9ce670369ea16",
      "contractAddress": null
    },
    {
      "status": "0x1",
      "cumulativeGasUsed": "0x1c8bb6a",
      "logs": [
        {
          "address": "0x98f3c9e6e3face36baad05fe09d375ef1464288b",
          "topics": [
            "0x6eb224fb001ed210e379b335e35efe88672a8ce935d981a6896b27ffdf52a3b2",
            "0x000000000000000000000000c7dd372c39e38bf11451ab4a8427b4ae38cef644"
          ],
          "data": "0x0000000000000000000000000000000000000000000000000000000000000001000000000000000000000000000000000000000000000000000000000000000000000000000000000000000000000000000000000000000000000000000000800000000000000000000000000000000000000000000000000000000000000001000000000000000000000000000000000000000000000000000000000000002618fc67c20fa9000000000000000000000000d1c9983597b8e45859df215dedad924b0f8505e30000000000000000000000000000000000000000000000000000",
          "blockHash": "0x370a21560f271a44e0161177b7349a91b570a1f0b0ce7f3519ca59417758890d",
          "blockNumber": "0x14f3557",
          "transactionHash": "0xc983151ec985503a46ebcc7dd7b7588d0bbd01949fef25312658e451cca87980",
          "transactionIndex": "0x1f4",
          "logIndex": "0x29f",
          "removed": false
        },
        {
          "address": "0xc7dd372c39e38bf11451ab4a8427b4ae38cef644",
          "topics": [
            "0xa559263ee060c7a2560843b3a064ff0376c9753ae3e2449b595a3b615d326466"
          ],
          "data": "0x0000000000000000000000000000000000000000000000000000000000000fa9000000000000000000000000d1c9983597b8e45859df215dedad924b0f8505e3",
          "blockHash": "0x370a21560f271a44e0161177b7349a91b570a1f0b0ce7f3519ca59417758890d",
          "blockNumber": "0x14f3557",
          "transactionHash": "0xc983151ec985503a46ebcc7dd7b7588d0bbd01949fef25312658e451cca87980",
          "transactionIndex": "0x1f4",
          "logIndex": "0x2a0",
          "removed": false
        }
      ],
      "logsBloom": "0x00000000000100080000000000000000000000000000000000000000000000000010000000000000000004000010000000000000000000000000000000000000000000000000000004000000000000000000000100000000000000000000000000000000000000000000000000000000000000000000000000000000000000000000000000000000000000000000000000000000000000800000000000020400000000000400000001000000000000000000000000040000000000000000000000000000000000000000000000000000000000000000000000000000000000000000000000000000010000000000000000000000000000000000000200000000",
      "type": "0x2",
      "transactionHash": "0xc983151ec985503a46ebcc7dd7b7588d0bbd01949fef25312658e451cca87980",
      "transactionIndex": "0x1f4",
      "blockHash": "0x370a21560f271a44e0161177b7349a91b570a1f0b0ce7f3519ca59417758890d",
      "blockNumber": "0x14f3557",
      "gasUsed": "0x12ee0",
      "effectiveGasPrice": "0x1e2f6e93d",
      "from": "0xf2f1acbe0ba726fee8d75f3e32900526874740bb",
      "to": "0xc7dd372c39e38bf11451ab4a8427b4ae38cef644",
      "contractAddress": null
    }
  ],
  "libraries": [],
  "pending": [],
  "returns": {},
  "timestamp": 1741027299,
  "chain": 1,
  "commit": "049e01a"
}
