{
  "transactions": [
    {
      "hash": "0x83e6047ec34fd3ce38b7c55f74c27d6ade6133e4de00d106f51b0b6618176781",
      "transactionType": "CALL",
      "contractName": null,
      "contractAddress": "0xd925c84b55e4e44a53749ff5f2a5a13f63d128fd",
      "function": "setPeer(uint16,bytes32,uint8,uint256)",
      "arguments": [
        "2",
        "0x000000000000000000000000d925c84b55e4e44a53749ff5f2a5a13f63d128fd",
        "6",
        "0"
      ],
      "transaction": {
        "from": "0xf2f1acbe0ba726fee8d75f3e32900526874740bb",
        "to": "0xd925c84b55e4e44a53749ff5f2a5a13f63d128fd",
        "gas": "0x1d4e3",
        "value": "0x0",
        "input": "0x7c9186340000000000000000000000000000000000000000000000000000000000000002000000000000000000000000d925c84b55e4e44a53749ff5f2a5a13f63d128fd00000000000000000000000000000000000000000000000000000000000000060000000000000000000000000000000000000000000000000000000000000000",
        "nonce": "0x29",
        "chainId": "0xa4b1"
      },
      "additionalContracts": [],
      "isFixedGasLimit": false
    },
    {
      "hash": "0x1c260b3edceb248e7d343af63bdd827a81fcfe86c8d7ee3c3ab2c79dc7a3b778",
      "transactionType": "CALL",
      "contractName": null,
      "contractAddress": "0xd925c84b55e4e44a53749ff5f2a5a13f63d128fd",
      "function": "setDestinationMToken(uint16,bytes32)",
      "arguments": [
        "2",
        "0x000000000000000000000000866a2bf4e572cbcf37d5071a7a58503bfb36be1b"
      ],
      "transaction": {
        "from": "0xf2f1acbe0ba726fee8d75f3e32900526874740bb",
        "to": "0xd925c84b55e4e44a53749ff5f2a5a13f63d128fd",
        "gas": "0x13f52",
        "value": "0x0",
        "input": "0x76a4a5390000000000000000000000000000000000000000000000000000000000000002000000000000000000000000866a2bf4e572cbcf37d5071a7a58503bfb36be1b",
        "nonce": "0x2a",
        "chainId": "0xa4b1"
      },
      "additionalContracts": [],
      "isFixedGasLimit": false
    },
    {
      "hash": "0xa307a8d0ddf9dce7921c707ec9a1c263d7ace0f6c37418eb71c6919f815545d4",
      "transactionType": "CALL",
      "contractName": null,
      "contractAddress": "0xd925c84b55e4e44a53749ff5f2a5a13f63d128fd",
      "function": "setSupportedBridgingPath(address,uint16,bytes32,bool)",
      "arguments": [
        "0x866A2BF4E572CbcF37D5071A7a58503Bfb36be1b",
        "2",
        "0x000000000000000000000000866a2bf4e572cbcf37d5071a7a58503bfb36be1b",
        "true"
      ],
      "transaction": {
        "from": "0xf2f1acbe0ba726fee8d75f3e32900526874740bb",
        "to": "0xd925c84b55e4e44a53749ff5f2a5a13f63d128fd",
        "gas": "0x1531f",
        "value": "0x0",
        "input": "0x1482cb4a000000000000000000000000866a2bf4e572cbcf37d5071a7a58503bfb36be1b0000000000000000000000000000000000000000000000000000000000000002000000000000000000000000866a2bf4e572cbcf37d5071a7a58503bfb36be1b0000000000000000000000000000000000000000000000000000000000000001",
        "nonce": "0x2b",
        "chainId": "0xa4b1"
      },
      "additionalContracts": [],
      "isFixedGasLimit": false
    },
    {
      "hash": "0x919d493ea8b56f47d0d089a07d7c1b8fbc0127f5aa14d46f1baa49ae44e132be",
      "transactionType": "CALL",
      "contractName": null,
      "contractAddress": "0xd925c84b55e4e44a53749ff5f2a5a13f63d128fd",
      "function": "setSupportedBridgingPath(address,uint16,bytes32,bool)",
      "arguments": [
        "0x866A2BF4E572CbcF37D5071A7a58503Bfb36be1b",
        "2",
        "0x000000000000000000000000437cc33344a0b27a429f795ff6b469c72698b291",
        "true"
      ],
      "transaction": {
        "from": "0xf2f1acbe0ba726fee8d75f3e32900526874740bb",
        "to": "0xd925c84b55e4e44a53749ff5f2a5a13f63d128fd",
        "gas": "0x153ca",
        "value": "0x0",
        "input": "0x1482cb4a000000000000000000000000866a2bf4e572cbcf37d5071a7a58503bfb36be1b0000000000000000000000000000000000000000000000000000000000000002000000000000000000000000437cc33344a0b27a429f795ff6b469c72698b2910000000000000000000000000000000000000000000000000000000000000001",
        "nonce": "0x2c",
        "chainId": "0xa4b1"
      },
      "additionalContracts": [],
      "isFixedGasLimit": false
    },
    {
      "hash": "0x064752306447cea84848f3e0b2de28fbb0381fc1abd38bfc4c61fc5e203664f1",
      "transactionType": "CALL",
      "contractName": null,
      "contractAddress": "0xd925c84b55e4e44a53749ff5f2a5a13f63d128fd",
      "function": "setSupportedBridgingPath(address,uint16,bytes32,bool)",
      "arguments": [
        "0x437cc33344a0B27A429f795ff6B469C72698B291",
        "2",
        "0x000000000000000000000000866a2bf4e572cbcf37d5071a7a58503bfb36be1b",
        "true"
      ],
      "transaction": {
        "from": "0xf2f1acbe0ba726fee8d75f3e32900526874740bb",
        "to": "0xd925c84b55e4e44a53749ff5f2a5a13f63d128fd",
        "gas": "0x153ca",
        "value": "0x0",
        "input": "0x1482cb4a000000000000000000000000437cc33344a0b27a429f795ff6b469c72698b2910000000000000000000000000000000000000000000000000000000000000002000000000000000000000000866a2bf4e572cbcf37d5071a7a58503bfb36be1b0000000000000000000000000000000000000000000000000000000000000001",
        "nonce": "0x2d",
        "chainId": "0xa4b1"
      },
      "additionalContracts": [],
      "isFixedGasLimit": false
    },
    {
      "hash": "0x07fa2d7422be5289e9a79216a94e73cc27148cf1631118810f673192194d9618",
      "transactionType": "CALL",
      "contractName": null,
      "contractAddress": "0xd925c84b55e4e44a53749ff5f2a5a13f63d128fd",
      "function": "setSupportedBridgingPath(address,uint16,bytes32,bool)",
      "arguments": [
        "0x437cc33344a0B27A429f795ff6B469C72698B291",
        "2",
        "0x000000000000000000000000437cc33344a0b27a429f795ff6b469c72698b291",
        "true"
      ],
      "transaction": {
        "from": "0xf2f1acbe0ba726fee8d75f3e32900526874740bb",
        "to": "0xd925c84b55e4e44a53749ff5f2a5a13f63d128fd",
        "gas": "0x15402",
        "value": "0x0",
        "input": "0x1482cb4a000000000000000000000000437cc33344a0b27a429f795ff6b469c72698b2910000000000000000000000000000000000000000000000000000000000000002000000000000000000000000437cc33344a0b27a429f795ff6b469c72698b2910000000000000000000000000000000000000000000000000000000000000001",
        "nonce": "0x2e",
        "chainId": "0xa4b1"
      },
      "additionalContracts": [],
      "isFixedGasLimit": false
    },
    {
      "hash": "0x2f1d7f7f7259a0fd332a66271894579d05713e2a3201f34ff008208aa74156bc",
      "transactionType": "CALL",
      "contractName": null,
      "contractAddress": "0x0763196a091575adf99e2306e5e90e0be5154841",
      "function": "setIsWormholeRelayingEnabled(uint16,bool)",
      "arguments": ["2", "true"],
      "transaction": {
        "from": "0xf2f1acbe0ba726fee8d75f3e32900526874740bb",
        "to": "0x0763196a091575adf99e2306e5e90e0be5154841",
        "gas": "0x13ce3",
        "value": "0x0",
        "input": "0x657b3b2f00000000000000000000000000000000000000000000000000000000000000020000000000000000000000000000000000000000000000000000000000000001",
        "nonce": "0x2f",
        "chainId": "0xa4b1"
      },
      "additionalContracts": [],
      "isFixedGasLimit": false
    },
    {
      "hash": "0xb5d1e8c0fad5366111ffd2ac24e54714716fdf2152a749d137b732df9e0b0f56",
      "transactionType": "CALL",
      "contractName": null,
      "contractAddress": "0x0763196a091575adf99e2306e5e90e0be5154841",
      "function": "setWormholePeer(uint16,bytes32)",
      "arguments": [
        "2",
        "0x0000000000000000000000000763196a091575adf99e2306e5e90e0be5154841"
      ],
      "transaction": {
        "from": "0xf2f1acbe0ba726fee8d75f3e32900526874740bb",
        "to": "0x0763196a091575adf99e2306e5e90e0be5154841",
        "gas": "0x1bcf3",
        "value": "0x0",
        "input": "0x7ab5640300000000000000000000000000000000000000000000000000000000000000020000000000000000000000000763196a091575adf99e2306e5e90e0be5154841",
        "nonce": "0x30",
        "chainId": "0xa4b1"
      },
      "additionalContracts": [],
      "isFixedGasLimit": false
    },
    {
      "hash": "0x399c2a3e18aea82d438d490638578f2dcc252325d237f5520b567b38c4e9c86a",
      "transactionType": "CALL",
      "contractName": null,
      "contractAddress": "0x0763196a091575adf99e2306e5e90e0be5154841",
      "function": "setIsWormholeEvmChain(uint16,bool)",
      "arguments": ["2", "true"],
      "transaction": {
        "from": "0xf2f1acbe0ba726fee8d75f3e32900526874740bb",
        "to": "0x0763196a091575adf99e2306e5e90e0be5154841",
        "gas": "0x13e59",
        "value": "0x0",
        "input": "0x96dddc6300000000000000000000000000000000000000000000000000000000000000020000000000000000000000000000000000000000000000000000000000000001",
        "nonce": "0x31",
        "chainId": "0xa4b1"
      },
      "additionalContracts": [],
      "isFixedGasLimit": false
    },
    {
      "hash": "0x1532aff8da3df3497f94ba3f3e231d161bc6e5c469741d9a9e997e4e6a0a2508",
      "transactionType": "CALL",
      "contractName": null,
      "contractAddress": "0xd925c84b55e4e44a53749ff5f2a5a13f63d128fd",
      "function": "setPeer(uint16,bytes32,uint8,uint256)",
      "arguments": [
        "24",
        "0x000000000000000000000000d925c84b55e4e44a53749ff5f2a5a13f63d128fd",
        "6",
        "0"
      ],
      "transaction": {
        "from": "0xf2f1acbe0ba726fee8d75f3e32900526874740bb",
        "to": "0xd925c84b55e4e44a53749ff5f2a5a13f63d128fd",
        "gas": "0x1d51b",
        "value": "0x0",
        "input": "0x7c9186340000000000000000000000000000000000000000000000000000000000000018000000000000000000000000d925c84b55e4e44a53749ff5f2a5a13f63d128fd00000000000000000000000000000000000000000000000000000000000000060000000000000000000000000000000000000000000000000000000000000000",
        "nonce": "0x32",
        "chainId": "0xa4b1"
      },
      "additionalContracts": [],
      "isFixedGasLimit": false
    },
    {
      "hash": "0xd0c8bb12d44b1b405b1d45eeb8ef0fe6a8a9bcd1e794f66bcb15f1a01cc60b54",
      "transactionType": "CALL",
      "contractName": null,
      "contractAddress": "0xd925c84b55e4e44a53749ff5f2a5a13f63d128fd",
      "function": "setDestinationMToken(uint16,bytes32)",
      "arguments": [
        "24",
        "0x000000000000000000000000866a2bf4e572cbcf37d5071a7a58503bfb36be1b"
      ],
      "transaction": {
        "from": "0xf2f1acbe0ba726fee8d75f3e32900526874740bb",
        "to": "0xd925c84b55e4e44a53749ff5f2a5a13f63d128fd",
        "gas": "0x13f52",
        "value": "0x0",
        "input": "0x76a4a5390000000000000000000000000000000000000000000000000000000000000018000000000000000000000000866a2bf4e572cbcf37d5071a7a58503bfb36be1b",
        "nonce": "0x33",
        "chainId": "0xa4b1"
      },
      "additionalContracts": [],
      "isFixedGasLimit": false
    },
    {
      "hash": "0x8815b3988d12faf7c34099bdf6fe304d07fd2879067360f4590fc1ea84c6531c",
      "transactionType": "CALL",
      "contractName": null,
      "contractAddress": "0xd925c84b55e4e44a53749ff5f2a5a13f63d128fd",
      "function": "setSupportedBridgingPath(address,uint16,bytes32,bool)",
      "arguments": [
        "0x866A2BF4E572CbcF37D5071A7a58503Bfb36be1b",
        "24",
        "0x000000000000000000000000866a2bf4e572cbcf37d5071a7a58503bfb36be1b",
        "true"
      ],
      "transaction": {
        "from": "0xf2f1acbe0ba726fee8d75f3e32900526874740bb",
        "to": "0xd925c84b55e4e44a53749ff5f2a5a13f63d128fd",
        "gas": "0x1531f",
        "value": "0x0",
        "input": "0x1482cb4a000000000000000000000000866a2bf4e572cbcf37d5071a7a58503bfb36be1b0000000000000000000000000000000000000000000000000000000000000018000000000000000000000000866a2bf4e572cbcf37d5071a7a58503bfb36be1b0000000000000000000000000000000000000000000000000000000000000001",
        "nonce": "0x34",
        "chainId": "0xa4b1"
      },
      "additionalContracts": [],
      "isFixedGasLimit": false
    },
    {
      "hash": "0x1e75ee69abd31e07f0e3ed1df5537566296a6dbf2c75a2400ccece51f9b38a82",
      "transactionType": "CALL",
      "contractName": null,
      "contractAddress": "0xd925c84b55e4e44a53749ff5f2a5a13f63d128fd",
      "function": "setSupportedBridgingPath(address,uint16,bytes32,bool)",
      "arguments": [
        "0x866A2BF4E572CbcF37D5071A7a58503Bfb36be1b",
        "24",
        "0x000000000000000000000000437cc33344a0b27a429f795ff6b469c72698b291",
        "true"
      ],
      "transaction": {
        "from": "0xf2f1acbe0ba726fee8d75f3e32900526874740bb",
        "to": "0xd925c84b55e4e44a53749ff5f2a5a13f63d128fd",
        "gas": "0x153ca",
        "value": "0x0",
        "input": "0x1482cb4a000000000000000000000000866a2bf4e572cbcf37d5071a7a58503bfb36be1b0000000000000000000000000000000000000000000000000000000000000018000000000000000000000000437cc33344a0b27a429f795ff6b469c72698b2910000000000000000000000000000000000000000000000000000000000000001",
        "nonce": "0x35",
        "chainId": "0xa4b1"
      },
      "additionalContracts": [],
      "isFixedGasLimit": false
    },
    {
      "hash": "0x403505891d5e7672ccefe7f3d40c4b02473a386bbf216a9a50796b314ae1b7bc",
      "transactionType": "CALL",
      "contractName": null,
      "contractAddress": "0xd925c84b55e4e44a53749ff5f2a5a13f63d128fd",
      "function": "setSupportedBridgingPath(address,uint16,bytes32,bool)",
      "arguments": [
        "0x437cc33344a0B27A429f795ff6B469C72698B291",
        "24",
        "0x000000000000000000000000866a2bf4e572cbcf37d5071a7a58503bfb36be1b",
        "true"
      ],
      "transaction": {
        "from": "0xf2f1acbe0ba726fee8d75f3e32900526874740bb",
        "to": "0xd925c84b55e4e44a53749ff5f2a5a13f63d128fd",
        "gas": "0x153ca",
        "value": "0x0",
        "input": "0x1482cb4a000000000000000000000000437cc33344a0b27a429f795ff6b469c72698b2910000000000000000000000000000000000000000000000000000000000000018000000000000000000000000866a2bf4e572cbcf37d5071a7a58503bfb36be1b0000000000000000000000000000000000000000000000000000000000000001",
        "nonce": "0x36",
        "chainId": "0xa4b1"
      },
      "additionalContracts": [],
      "isFixedGasLimit": false
    },
    {
      "hash": "0x14d2bcd4583db815f38e47498b1f43acc189a3fe2fa88aa98a0109c4ea981000",
      "transactionType": "CALL",
      "contractName": null,
      "contractAddress": "0xd925c84b55e4e44a53749ff5f2a5a13f63d128fd",
      "function": "setSupportedBridgingPath(address,uint16,bytes32,bool)",
      "arguments": [
        "0x437cc33344a0B27A429f795ff6B469C72698B291",
        "24",
        "0x000000000000000000000000437cc33344a0b27a429f795ff6b469c72698b291",
        "true"
      ],
      "transaction": {
        "from": "0xf2f1acbe0ba726fee8d75f3e32900526874740bb",
        "to": "0xd925c84b55e4e44a53749ff5f2a5a13f63d128fd",
        "gas": "0x15402",
        "value": "0x0",
        "input": "0x1482cb4a000000000000000000000000437cc33344a0b27a429f795ff6b469c72698b2910000000000000000000000000000000000000000000000000000000000000018000000000000000000000000437cc33344a0b27a429f795ff6b469c72698b2910000000000000000000000000000000000000000000000000000000000000001",
        "nonce": "0x37",
        "chainId": "0xa4b1"
      },
      "additionalContracts": [],
      "isFixedGasLimit": false
    },
    {
      "hash": "0xd30ed1fa6c3af75e531bdb2a4bd45e8df32c776e10b1fe9cc71c9da4e155b680",
      "transactionType": "CALL",
      "contractName": null,
      "contractAddress": "0x0763196a091575adf99e2306e5e90e0be5154841",
      "function": "setIsWormholeRelayingEnabled(uint16,bool)",
      "arguments": ["24", "true"],
      "transaction": {
        "from": "0xf2f1acbe0ba726fee8d75f3e32900526874740bb",
        "to": "0x0763196a091575adf99e2306e5e90e0be5154841",
        "gas": "0x13ce3",
        "value": "0x0",
        "input": "0x657b3b2f00000000000000000000000000000000000000000000000000000000000000180000000000000000000000000000000000000000000000000000000000000001",
        "nonce": "0x38",
        "chainId": "0xa4b1"
      },
      "additionalContracts": [],
      "isFixedGasLimit": false
    },
    {
      "hash": "0xb21e788898c29fcc9293a178d5bc7313fd3fac41f785fae30cc0c44056872f1c",
      "transactionType": "CALL",
      "contractName": null,
      "contractAddress": "0x0763196a091575adf99e2306e5e90e0be5154841",
      "function": "setWormholePeer(uint16,bytes32)",
      "arguments": [
        "24",
        "0x0000000000000000000000000763196a091575adf99e2306e5e90e0be5154841"
      ],
      "transaction": {
        "from": "0xf2f1acbe0ba726fee8d75f3e32900526874740bb",
        "to": "0x0763196a091575adf99e2306e5e90e0be5154841",
        "gas": "0x1bcf3",
        "value": "0x0",
        "input": "0x7ab5640300000000000000000000000000000000000000000000000000000000000000180000000000000000000000000763196a091575adf99e2306e5e90e0be5154841",
        "nonce": "0x39",
        "chainId": "0xa4b1"
      },
      "additionalContracts": [],
      "isFixedGasLimit": false
    },
    {
      "hash": "0xe64bcddb0ad94430792d5f48ca59edb985df56cf6f2035bf9d986726a553467c",
      "transactionType": "CALL",
      "contractName": null,
      "contractAddress": "0x0763196a091575adf99e2306e5e90e0be5154841",
      "function": "setIsWormholeEvmChain(uint16,bool)",
      "arguments": ["24", "true"],
      "transaction": {
        "from": "0xf2f1acbe0ba726fee8d75f3e32900526874740bb",
        "to": "0x0763196a091575adf99e2306e5e90e0be5154841",
        "gas": "0x13e59",
        "value": "0x0",
        "input": "0x96dddc6300000000000000000000000000000000000000000000000000000000000000180000000000000000000000000000000000000000000000000000000000000001",
        "nonce": "0x3a",
        "chainId": "0xa4b1"
      },
      "additionalContracts": [],
      "isFixedGasLimit": false
    }
  ],
  "receipts": [
    {
      "status": "0x1",
      "cumulativeGasUsed": "0x2414b",
      "logs": [
        {
          "address": "0xd925c84b55e4e44a53749ff5f2a5a13f63d128fd",
          "topics": [
            "0x1456404e7f41f35c3daac941bb50bad417a66275c3040061b4287d787719599d",
            "0x0000000000000000000000000000000000000000000000000000000000000002"
          ],
          "data": "0x00000000000000000000000000000000000000000000000000000000000000000000000000000000000000000000000000000000000000000000000000000000000000000000000000000000d925c84b55e4e44a53749ff5f2a5a13f63d128fd0000000000000000000000000000000000000000000000000000000000000006",
          "blockHash": "0xbbf0b3a789ad26d3a64f64ee66299c672b3a599f20a395890d8d8567f088f2de",
          "blockNumber": "0x1258520d",
          "transactionHash": "0x83e6047ec34fd3ce38b7c55f74c27d6ade6133e4de00d106f51b0b6618176781",
          "transactionIndex": "0x2",
          "logIndex": "0x1",
          "removed": false
        }
      ],
      "logsBloom": "0x04000000000000000000000000000000000000000000000000000000000000000000000000000000002000000000000000000000000000000000000000000000000000000000000000000000000000000000000000024000000000000000000000002000000000000000000000000000000000000000000000000000000000000000000000000000000008000000000000000000000000000000000000000000000000000000000000000100000000000000000000000000000000000000080000000000000000000000000000000000000000000000000000000000000000000000000000000000000000000000000000000000008000000000000000000000",
      "type": "0x2",
      "transactionHash": "0x83e6047ec34fd3ce38b7c55f74c27d6ade6133e4de00d106f51b0b6618176781",
      "transactionIndex": "0x2",
      "blockHash": "0xbbf0b3a789ad26d3a64f64ee66299c672b3a599f20a395890d8d8567f088f2de",
      "blockNumber": "0x1258520d",
      "gasUsed": "0x15c8b",
      "effectiveGasPrice": "0x989680",
      "from": "0xf2f1acbe0ba726fee8d75f3e32900526874740bb",
      "to": "0xd925c84b55e4e44a53749ff5f2a5a13f63d128fd",
      "contractAddress": null,
      "gasUsedForL1": "0x22d9",
      "l1BlockNumber": "0x14de599"
    },
    {
      "status": "0x1",
      "cumulativeGasUsed": "0xea16",
      "logs": [
        {
          "address": "0xd925c84b55e4e44a53749ff5f2a5a13f63d128fd",
          "topics": [
            "0xe6658eeba76934cef78dc5f420ee40406e4876e8d3e767f7b700c63daf1bf0ba",
            "0x0000000000000000000000000000000000000000000000000000000000000002"
          ],
          "data": "0x000000000000000000000000866a2bf4e572cbcf37d5071a7a58503bfb36be1b",
          "blockHash": "0xbb809c2fee7a09479e77574ac6319af0faec6bec55059f8cb817892e456be04f",
          "blockNumber": "0x12585210",
          "transactionHash": "0x1c260b3edceb248e7d343af63bdd827a81fcfe86c8d7ee3c3ab2c79dc7a3b778",
          "transactionIndex": "0x1",
          "logIndex": "0x0",
          "removed": false
        }
      ],
      "logsBloom": "0x04000000000000000000000000000000000000000000000000000000000000000000000000000000000000000000000000000000000000000000000000000000000000000000000000000000002000000000000000024000000000000000000000000000000000000000000000000000000000000000000000000000000000000000000000000000000000000000000000000000000000000000000000000000000080000000000000000100000000000000000000000000000000000000080000000000000020000000000000000000000000000000000000000000000000000000000000000000000000000000000000000000008000000000000000000000",
      "type": "0x2",
      "transactionHash": "0x1c260b3edceb248e7d343af63bdd827a81fcfe86c8d7ee3c3ab2c79dc7a3b778",
      "transactionIndex": "0x1",
      "blockHash": "0xbb809c2fee7a09479e77574ac6319af0faec6bec55059f8cb817892e456be04f",
      "blockNumber": "0x12585210",
      "gasUsed": "0xea16",
      "effectiveGasPrice": "0x989680",
      "from": "0xf2f1acbe0ba726fee8d75f3e32900526874740bb",
      "to": "0xd925c84b55e4e44a53749ff5f2a5a13f63d128fd",
      "contractAddress": null,
      "gasUsedForL1": "0x1b83",
      "l1BlockNumber": "0x14de599"
    },
    {
      "status": "0x1",
      "cumulativeGasUsed": "0x36239",
      "logs": [
        {
          "address": "0xd925c84b55e4e44a53749ff5f2a5a13f63d128fd",
          "topics": [
            "0xeb8377c150d1438121333afa2027232605a400b1208ae6f9cfa156438e453f6d",
            "0x000000000000000000000000866a2bf4e572cbcf37d5071a7a58503bfb36be1b",
            "0x0000000000000000000000000000000000000000000000000000000000000002",
            "0x000000000000000000000000866a2bf4e572cbcf37d5071a7a58503bfb36be1b"
          ],
          "data": "0x0000000000000000000000000000000000000000000000000000000000000001",
          "blockHash": "0x7655df1e72b9048872d8a506aa1a8d94c9785c1c391dfc6238e6222872229b58",
          "blockNumber": "0x12585214",
          "transactionHash": "0xa307a8d0ddf9dce7921c707ec9a1c263d7ace0f6c37418eb71c6919f815545d4",
          "transactionIndex": "0x2",
          "logIndex": "0x3",
          "removed": false
        }
      ],
      "logsBloom": "0x04000008000000000000000000000000000000000000000000000000000000000000000000000000000000000000000000000000000000000000000000000000800000000000000000000000000000000000000000024000000000000000000000000000000000000000000000000000000000000000000100000000000000000000000000000000000000000040000000000000000000000000000000000000000000000000000000000100008000000000000000000000000000000000080000000000000400000000000000000000000000000000000000000000000000000000000000000000000000000000000000000000008000000000000000000000",
      "type": "0x2",
      "transactionHash": "0xa307a8d0ddf9dce7921c707ec9a1c263d7ace0f6c37418eb71c6919f815545d4",
      "transactionIndex": "0x2",
      "blockHash": "0x7655df1e72b9048872d8a506aa1a8d94c9785c1c391dfc6238e6222872229b58",
      "blockNumber": "0x12585214",
      "gasUsed": "0xf8ac",
      "effectiveGasPrice": "0x989680",
      "from": "0xf2f1acbe0ba726fee8d75f3e32900526874740bb",
      "to": "0xd925c84b55e4e44a53749ff5f2a5a13f63d128fd",
      "contractAddress": null,
      "gasUsedForL1": "0x254b",
      "l1BlockNumber": "0x14de599"
    },
    {
      "status": "0x1",
      "cumulativeGasUsed": "0x1ad26d",
      "logs": [
        {
          "address": "0xd925c84b55e4e44a53749ff5f2a5a13f63d128fd",
          "topics": [
            "0xeb8377c150d1438121333afa2027232605a400b1208ae6f9cfa156438e453f6d",
            "0x000000000000000000000000866a2bf4e572cbcf37d5071a7a58503bfb36be1b",
            "0x0000000000000000000000000000000000000000000000000000000000000002",
            "0x000000000000000000000000437cc33344a0b27a429f795ff6b469c72698b291"
          ],
          "data": "0x0000000000000000000000000000000000000000000000000000000000000001",
          "blockHash": "0x98785b4b68333607d79057c940f5c55a8437851443a4415e0366015a954b790e",
          "blockNumber": "0x12585217",
          "transactionHash": "0x919d493ea8b56f47d0d089a07d7c1b8fbc0127f5aa14d46f1baa49ae44e132be",
          "transactionIndex": "0xf",
          "logIndex": "0x1e",
          "removed": false
        }
      ],
      "logsBloom": "0x04000008000002000000000000000000000000000000000000000000000000000000000000000000000000000000000000000000000000000000000000000000800000000000000000000000000000000000000000024000000000000000000000000000000000000000000000000000000000000000000100000000000000000000000000000000000000000040000000000000000000000000000000000000000000000000000000000100008000000000000000020000000000000000080000000000000400000000000000000000000000000000000000000000000000200000000000000000000000000000000000000000008000000000000000000000",
      "type": "0x2",
      "transactionHash": "0x919d493ea8b56f47d0d089a07d7c1b8fbc0127f5aa14d46f1baa49ae44e132be",
      "transactionIndex": "0xf",
      "blockHash": "0x98785b4b68333607d79057c940f5c55a8437851443a4415e0366015a954b790e",
      "blockNumber": "0x12585217",
      "gasUsed": "0xf8d3",
      "effectiveGasPrice": "0x989680",
      "from": "0xf2f1acbe0ba726fee8d75f3e32900526874740bb",
      "to": "0xd925c84b55e4e44a53749ff5f2a5a13f63d128fd",
      "contractAddress": null,
      "gasUsedForL1": "0x2572",
      "l1BlockNumber": "0x14de599"
    },
    {
      "status": "0x1",
      "cumulativeGasUsed": "0xce91f",
      "logs": [
        {
          "address": "0xd925c84b55e4e44a53749ff5f2a5a13f63d128fd",
          "topics": [
            "0xeb8377c150d1438121333afa2027232605a400b1208ae6f9cfa156438e453f6d",
            "0x000000000000000000000000437cc33344a0b27a429f795ff6b469c72698b291",
            "0x0000000000000000000000000000000000000000000000000000000000000002",
            "0x000000000000000000000000866a2bf4e572cbcf37d5071a7a58503bfb36be1b"
          ],
          "data": "0x0000000000000000000000000000000000000000000000000000000000000001",
          "blockHash": "0xead0afc7d4c6c0ad73160159277c7dfb1f00a0e6600a90e4c32d7c255f199137",
          "blockNumber": "0x1258521b",
          "transactionHash": "0x064752306447cea84848f3e0b2de28fbb0381fc1abd38bfc4c61fc5e203664f1",
          "transactionIndex": "0x7",
          "logIndex": "0xe",
          "removed": false
        }
      ],
      "logsBloom": "0x04000008000002000000000000000000000000000000000000000000000000000000000000000000000000000000000000000000000000000000000000000000800000000000000000000000000000000000000000024000000000000000000000000000000000000000000000000000000000000000000100000000000000000000000000000000000000000040000000000000000000000000000000000000000000000000000000000100008000000000000000020000000000000000080000000000000400000000000000000000000000000000000000000000000000200000000000000000000000000000000000000000008000000000000000000000",
      "type": "0x2",
      "transactionHash": "0x064752306447cea84848f3e0b2de28fbb0381fc1abd38bfc4c61fc5e203664f1",
      "transactionIndex": "0x7",
      "blockHash": "0xead0afc7d4c6c0ad73160159277c7dfb1f00a0e6600a90e4c32d7c255f199137",
      "blockNumber": "0x1258521b",
      "gasUsed": "0xf8d3",
      "effectiveGasPrice": "0x989680",
      "from": "0xf2f1acbe0ba726fee8d75f3e32900526874740bb",
      "to": "0xd925c84b55e4e44a53749ff5f2a5a13f63d128fd",
      "contractAddress": null,
      "gasUsedForL1": "0x2572",
      "l1BlockNumber": "0x14de59a"
    },
    {
      "status": "0x1",
      "cumulativeGasUsed": "0x19c691",
      "logs": [
        {
          "address": "0xd925c84b55e4e44a53749ff5f2a5a13f63d128fd",
          "topics": [
            "0xeb8377c150d1438121333afa2027232605a400b1208ae6f9cfa156438e453f6d",
            "0x000000000000000000000000437cc33344a0b27a429f795ff6b469c72698b291",
            "0x0000000000000000000000000000000000000000000000000000000000000002",
            "0x000000000000000000000000437cc33344a0b27a429f795ff6b469c72698b291"
          ],
          "data": "0x0000000000000000000000000000000000000000000000000000000000000001",
          "blockHash": "0x251d12b07faf422ee2ec3459847296c2df983bb030fa658b925744e886c62b99",
          "blockNumber": "0x12585221",
          "transactionHash": "0x07fa2d7422be5289e9a79216a94e73cc27148cf1631118810f673192194d9618",
          "transactionIndex": "0x4",
          "logIndex": "0x1",
          "removed": false
        }
      ],
      "logsBloom": "0x04000008000002000000000000000000000000000000000000000000000000000000000000000000000000000000000000000000000000000000000000000000800000000000000000000000000000000000000000024000000000000000000000000000000000000000000000000000000000000000000000000000000000000000000000000000000000000000000000000000000000000000000000000000000000000000000000000100008000000000000000020000000000000000080000000000000000000000000000000000000000000000000000000000000000200000000000000000000000000000000000000000008000000000000000000000",
      "type": "0x2",
      "transactionHash": "0x07fa2d7422be5289e9a79216a94e73cc27148cf1631118810f673192194d9618",
      "transactionIndex": "0x4",
      "blockHash": "0x251d12b07faf422ee2ec3459847296c2df983bb030fa658b925744e886c62b99",
      "blockNumber": "0x12585221",
      "gasUsed": "0xf810",
      "effectiveGasPrice": "0x989680",
      "from": "0xf2f1acbe0ba726fee8d75f3e32900526874740bb",
      "to": "0xd925c84b55e4e44a53749ff5f2a5a13f63d128fd",
      "contractAddress": null,
      "gasUsedForL1": "0x24af",
      "l1BlockNumber": "0x14de59a"
    },
    {
      "status": "0x1",
      "cumulativeGasUsed": "0x506ee",
      "logs": [
        {
          "address": "0x0763196a091575adf99e2306e5e90e0be5154841",
          "topics": [
            "0x528b18a533e892b5401d1fb63597275df9d2bb45b13e7695c3147cd07b9746c3"
          ],
          "data": "0x00000000000000000000000000000000000000000000000000000000000000020000000000000000000000000000000000000000000000000000000000000001",
          "blockHash": "0xccefe8d2d973cdd0419006f02780e9f5e2cc1e66cb2923192cb754738e67afe0",
          "blockNumber": "0x12585225",
          "transactionHash": "0x2f1d7f7f7259a0fd332a66271894579d05713e2a3201f34ff008208aa74156bc",
          "transactionIndex": "0x2",
          "logIndex": "0x5",
          "removed": false
        }
      ],
      "logsBloom": "0x00000000000000000000000000000000000000000000000000000000000080000000000000400000000000000000000000000000000000000000000000000000000000000000000000000000800000000000000000000000000000000001000000000000000000001000000000000000000000000000000000000000000000000000000000000000000000000000000000000000000000000000000000000000002000000000000000000000000000000000000000000000000000000000000000000000000000000000000000000000000000000000000000000000000000000000000000000000000000000000000000000000000000000000000000000000",
      "type": "0x2",
      "transactionHash": "0x2f1d7f7f7259a0fd332a66271894579d05713e2a3201f34ff008208aa74156bc",
      "transactionIndex": "0x2",
      "blockHash": "0xccefe8d2d973cdd0419006f02780e9f5e2cc1e66cb2923192cb754738e67afe0",
      "blockNumber": "0x12585225",
      "gasUsed": "0xe860",
      "effectiveGasPrice": "0x989680",
      "from": "0xf2f1acbe0ba726fee8d75f3e32900526874740bb",
      "to": "0x0763196a091575adf99e2306e5e90e0be5154841",
      "contractAddress": null,
      "gasUsedForL1": "0x1baa",
      "l1BlockNumber": "0x14de59a"
    },
    {
      "status": "0x1",
      "cumulativeGasUsed": "0x14a7e",
      "logs": [
        {
          "address": "0xa5f208e072434bc67592e4c49c1b991ba79bca46",
          "topics": [
            "0x6eb224fb001ed210e379b335e35efe88672a8ce935d981a6896b27ffdf52a3b2",
            "0x0000000000000000000000000763196a091575adf99e2306e5e90e0be5154841"
          ],
          "data": "0x0000000000000000000000000000000000000000000000000000000000000001000000000000000000000000000000000000000000000000000000000000000000000000000000000000000000000000000000000000000000000000000000800000000000000000000000000000000000000000000000000000000000000001000000000000000000000000000000000000000000000000000000000000002618fc67c200020000000000000000000000000763196a091575adf99e2306e5e90e0be51548410000000000000000000000000000000000000000000000000000",
          "blockHash": "0x85cea129fce699655ee187cded05c422ce5b080915600d67f6a6dcb1980a76e6",
          "blockNumber": "0x12585229",
          "transactionHash": "0xb5d1e8c0fad5366111ffd2ac24e54714716fdf2152a749d137b732df9e0b0f56",
          "transactionIndex": "0x1",
          "logIndex": "0x0",
          "removed": false
        },
        {
          "address": "0x0763196a091575adf99e2306e5e90e0be5154841",
          "topics": [
            "0xa559263ee060c7a2560843b3a064ff0376c9753ae3e2449b595a3b615d326466"
          ],
          "data": "0x00000000000000000000000000000000000000000000000000000000000000020000000000000000000000000763196a091575adf99e2306e5e90e0be5154841",
          "blockHash": "0x85cea129fce699655ee187cded05c422ce5b080915600d67f6a6dcb1980a76e6",
          "blockNumber": "0x12585229",
          "transactionHash": "0xb5d1e8c0fad5366111ffd2ac24e54714716fdf2152a749d137b732df9e0b0f56",
          "transactionIndex": "0x1",
          "logIndex": "0x1",
          "removed": false
        }
      ],
      "logsBloom": "0x00000000000100000000000000000000000000000000000000000000000000000010000000000000000000000010000000000000000000000000000000000000000000000000000000000000080000000000200100000000000000000001000000000000000000001000000000000000000000000000000000000000000000000000000000000000000000000000000000000000000000000000000000040000002000000400000000000000000000000000004000000000000000008000000000000000000000000000000000000000000000000000000000000000000000000000000000000000210000000000000000000000000000000000000000000000",
      "type": "0x2",
      "transactionHash": "0xb5d1e8c0fad5366111ffd2ac24e54714716fdf2152a749d137b732df9e0b0f56",
      "transactionIndex": "0x1",
      "blockHash": "0x85cea129fce699655ee187cded05c422ce5b080915600d67f6a6dcb1980a76e6",
      "blockNumber": "0x12585229",
      "gasUsed": "0x14a7e",
      "effectiveGasPrice": "0x989680",
      "from": "0xf2f1acbe0ba726fee8d75f3e32900526874740bb",
      "to": "0x0763196a091575adf99e2306e5e90e0be5154841",
      "contractAddress": null,
      "gasUsedForL1": "0x1baa",
      "l1BlockNumber": "0x14de59a"
    },
    {
      "status": "0x1",
      "cumulativeGasUsed": "0x5a281",
      "logs": [
        {
          "address": "0x0763196a091575adf99e2306e5e90e0be5154841",
          "topics": [
            "0x4add57d97a7bf5035340ea1212aeeb3d4d3887eb1faf3821a8224c3a6956a10c"
          ],
          "data": "0x00000000000000000000000000000000000000000000000000000000000000020000000000000000000000000000000000000000000000000000000000000001",
          "blockHash": "0x71b1d83f69e83750d3b446e8f80940ada4a6827f48c5cd6b8b144aa7cb88bdea",
          "blockNumber": "0x1258522d",
          "transactionHash": "0x399c2a3e18aea82d438d490638578f2dcc252325d237f5520b567b38c4e9c86a",
          "transactionIndex": "0x4",
          "logIndex": "0x7",
          "removed": false
        }
      ],
      "logsBloom": "0x00000000000000080000000000000000000000000000000000000000000000000000000000000000000000000000000000000000000000000000000000000000000000000000000000000000000000000000000000000000000000000001000000000000000000001000000000000000000000000000000000000080000000000000000000000000000000000000000000000000000000000000000000000000002000000000000000000000000000000000000000000000000000000000000000000000000000000000000000000000000000000000000000000000000000000000000000000000000000000000000000000040000000000000000000000000",
      "type": "0x2",
      "transactionHash": "0x399c2a3e18aea82d438d490638578f2dcc252325d237f5520b567b38c4e9c86a",
      "transactionIndex": "0x4",
      "blockHash": "0x71b1d83f69e83750d3b446e8f80940ada4a6827f48c5cd6b8b144aa7cb88bdea",
      "blockNumber": "0x1258522d",
      "gasUsed": "0xe97e",
      "effectiveGasPrice": "0x989680",
      "from": "0xf2f1acbe0ba726fee8d75f3e32900526874740bb",
      "to": "0x0763196a091575adf99e2306e5e90e0be5154841",
      "contractAddress": null,
      "gasUsedForL1": "0x1baa",
      "l1BlockNumber": "0x14de59a"
    },
    {
      "status": "0x1",
      "cumulativeGasUsed": "0x15add",
      "logs": [
        {
          "address": "0xd925c84b55e4e44a53749ff5f2a5a13f63d128fd",
          "topics": [
            "0x1456404e7f41f35c3daac941bb50bad417a66275c3040061b4287d787719599d",
            "0x0000000000000000000000000000000000000000000000000000000000000018"
          ],
          "data": "0x00000000000000000000000000000000000000000000000000000000000000000000000000000000000000000000000000000000000000000000000000000000000000000000000000000000d925c84b55e4e44a53749ff5f2a5a13f63d128fd0000000000000000000000000000000000000000000000000000000000000006",
          "blockHash": "0x301a937457f35836787c851dccf5cc9d51ec0a2a8aa0db2c9ef221c2bce66fe7",
          "blockNumber": "0x12585231",
          "transactionHash": "0x1532aff8da3df3497f94ba3f3e231d161bc6e5c469741d9a9e997e4e6a0a2508",
          "transactionIndex": "0x1",
          "logIndex": "0x0",
          "removed": false
        }
      ],
      "logsBloom": "0x00000000000000000000000000000000000000000000000000000000000000000000000000000000002000000000000000000000000000000000000000000000000000000000000000000000000000000040000000024000000000000000000000002000000000000000000000000000000000000000000000000000000000000000000000000000000008000000000000000000000000000000000000000000000000000000000000000000000000000000000000000000000000000000080000100000000000000000000000000000000000000000000020000000000000000000000000000000000000000000000000000000000000000000000000000000",
      "type": "0x2",
      "transactionHash": "0x1532aff8da3df3497f94ba3f3e231d161bc6e5c469741d9a9e997e4e6a0a2508",
      "transactionIndex": "0x1",
      "blockHash": "0x301a937457f35836787c851dccf5cc9d51ec0a2a8aa0db2c9ef221c2bce66fe7",
      "blockNumber": "0x12585231",
      "gasUsed": "0x15add",
      "effectiveGasPrice": "0x989680",
      "from": "0xf2f1acbe0ba726fee8d75f3e32900526874740bb",
      "to": "0xd925c84b55e4e44a53749ff5f2a5a13f63d128fd",
      "contractAddress": null,
      "gasUsedForL1": "0x212b",
      "l1BlockNumber": "0x14de59a"
    },
    {
      "status": "0x1",
      "cumulativeGasUsed": "0x1153cf",
      "logs": [
        {
          "address": "0xd925c84b55e4e44a53749ff5f2a5a13f63d128fd",
          "topics": [
            "0xe6658eeba76934cef78dc5f420ee40406e4876e8d3e767f7b700c63daf1bf0ba",
            "0x0000000000000000000000000000000000000000000000000000000000000018"
          ],
          "data": "0x000000000000000000000000866a2bf4e572cbcf37d5071a7a58503bfb36be1b",
          "blockHash": "0x23a71c8457900b83b9ee23b8c163db59b74ad2f4551ab0f66240da7705c9292e",
          "blockNumber": "0x1258523b",
          "transactionHash": "0xd0c8bb12d44b1b405b1d45eeb8ef0fe6a8a9bcd1e794f66bcb15f1a01cc60b54",
          "transactionIndex": "0x3",
          "logIndex": "0x8",
          "removed": false
        }
      ],
      "logsBloom": "0x00000000000000000000000000000000000000000000000000000000000000000000000000000000000000000000000000000000000000000000000000000000000000000000000000000000002000000040000000024000000000000000000000000000000000000000000000000000000000000000000000000000000000000000000000000000000000000000000000000000000000000000000000000000000080000000000000000000000000000000000000000000000000000000080000100000000020000000000000000000000000000000000020000000000000000000000000000000000000000000000000000000000000000000000000000000",
      "type": "0x2",
      "transactionHash": "0xd0c8bb12d44b1b405b1d45eeb8ef0fe6a8a9bcd1e794f66bcb15f1a01cc60b54",
      "transactionIndex": "0x3",
      "blockHash": "0x23a71c8457900b83b9ee23b8c163db59b74ad2f4551ab0f66240da7705c9292e",
      "blockNumber": "0x1258523b",
      "gasUsed": "0xea3d",
      "effectiveGasPrice": "0x989680",
      "from": "0xf2f1acbe0ba726fee8d75f3e32900526874740bb",
      "to": "0xd925c84b55e4e44a53749ff5f2a5a13f63d128fd",
      "contractAddress": null,
      "gasUsedForL1": "0x1baa",
      "l1BlockNumber": "0x14de59a"
    },
    {
      "status": "0x1",
      "cumulativeGasUsed": "0x53dbe",
      "logs": [
        {
          "address": "0xd925c84b55e4e44a53749ff5f2a5a13f63d128fd",
          "topics": [
            "0xeb8377c150d1438121333afa2027232605a400b1208ae6f9cfa156438e453f6d",
            "0x000000000000000000000000866a2bf4e572cbcf37d5071a7a58503bfb36be1b",
            "0x0000000000000000000000000000000000000000000000000000000000000018",
            "0x000000000000000000000000866a2bf4e572cbcf37d5071a7a58503bfb36be1b"
          ],
          "data": "0x0000000000000000000000000000000000000000000000000000000000000001",
          "blockHash": "0x5c1521473d633c890e0cc6b39467c7d86bd1ecfc97b30916683698e03d42df70",
          "blockNumber": "0x1258523f",
          "transactionHash": "0x8815b3988d12faf7c34099bdf6fe304d07fd2879067360f4590fc1ea84c6531c",
          "transactionIndex": "0x2",
          "logIndex": "0x14",
          "removed": false
        }
      ],
      "logsBloom": "0x00000008000000000000000000000000000000000000000000000000000000000000000000000000000000000000000000000000000000000000000000000000800000000000000000000000000000000040000000024000000000000000000000000000000000000000000000000000000000000000000100000000000000000000000000000000000000000040000000000000000000000000000000000000000000000000000000000000008000000000000000000000000000000000080000100000000400000000000000000000000000000000000020000000000000000000000000000000000000000000000000000000000000000000000000000000",
      "type": "0x2",
      "transactionHash": "0x8815b3988d12faf7c34099bdf6fe304d07fd2879067360f4590fc1ea84c6531c",
      "transactionIndex": "0x2",
      "blockHash": "0x5c1521473d633c890e0cc6b39467c7d86bd1ecfc97b30916683698e03d42df70",
      "blockNumber": "0x1258523f",
      "gasUsed": "0xf7e9",
      "effectiveGasPrice": "0x989680",
      "from": "0xf2f1acbe0ba726fee8d75f3e32900526874740bb",
      "to": "0xd925c84b55e4e44a53749ff5f2a5a13f63d128fd",
      "contractAddress": null,
      "gasUsedForL1": "0x2488",
      "l1BlockNumber": "0x14de59a"
    },
    {
      "status": "0x1",
      "cumulativeGasUsed": "0xf8d3",
      "logs": [
        {
          "address": "0xd925c84b55e4e44a53749ff5f2a5a13f63d128fd",
          "topics": [
            "0xeb8377c150d1438121333afa2027232605a400b1208ae6f9cfa156438e453f6d",
            "0x000000000000000000000000866a2bf4e572cbcf37d5071a7a58503bfb36be1b",
            "0x0000000000000000000000000000000000000000000000000000000000000018",
            "0x000000000000000000000000437cc33344a0b27a429f795ff6b469c72698b291"
          ],
          "data": "0x0000000000000000000000000000000000000000000000000000000000000001",
          "blockHash": "0x71ec86177a35a4a76d64e17ae797cfd0952b4b54f6f1432ba54e57f318c7afa5",
          "blockNumber": "0x12585243",
          "transactionHash": "0x1e75ee69abd31e07f0e3ed1df5537566296a6dbf2c75a2400ccece51f9b38a82",
          "transactionIndex": "0x1",
          "logIndex": "0x0",
          "removed": false
        }
      ],
      "logsBloom": "0x00000008000002000000000000000000000000000000000000000000000000000000000000000000000000000000000000000000000000000000000000000000800000000000000000000000000000000040000000024000000000000000000000000000000000000000000000000000000000000000000100000000000000000000000000000000000000000040000000000000000000000000000000000000000000000000000000000000008000000000000000020000000000000000080000100000000400000000000000000000000000000000000020000000000000200000000000000000000000000000000000000000000000000000000000000000",
      "type": "0x2",
      "transactionHash": "0x1e75ee69abd31e07f0e3ed1df5537566296a6dbf2c75a2400ccece51f9b38a82",
      "transactionIndex": "0x1",
      "blockHash": "0x71ec86177a35a4a76d64e17ae797cfd0952b4b54f6f1432ba54e57f318c7afa5",
      "blockNumber": "0x12585243",
      "gasUsed": "0xf8d3",
      "effectiveGasPrice": "0x989680",
      "from": "0xf2f1acbe0ba726fee8d75f3e32900526874740bb",
      "to": "0xd925c84b55e4e44a53749ff5f2a5a13f63d128fd",
      "contractAddress": null,
      "gasUsedForL1": "0x2572",
      "l1BlockNumber": "0x14de59a"
    },
    {
      "status": "0x1",
      "cumulativeGasUsed": "0xf8d3",
      "logs": [
        {
          "address": "0xd925c84b55e4e44a53749ff5f2a5a13f63d128fd",
          "topics": [
            "0xeb8377c150d1438121333afa2027232605a400b1208ae6f9cfa156438e453f6d",
            "0x000000000000000000000000437cc33344a0b27a429f795ff6b469c72698b291",
            "0x0000000000000000000000000000000000000000000000000000000000000018",
            "0x000000000000000000000000866a2bf4e572cbcf37d5071a7a58503bfb36be1b"
          ],
          "data": "0x0000000000000000000000000000000000000000000000000000000000000001",
          "blockHash": "0xf5a73b425a5d0eda4edec788f94766a294e0a409f1f4bf46ff25722737d1d92f",
          "blockNumber": "0x12585247",
          "transactionHash": "0x403505891d5e7672ccefe7f3d40c4b02473a386bbf216a9a50796b314ae1b7bc",
          "transactionIndex": "0x1",
          "logIndex": "0x0",
          "removed": false
        }
      ],
      "logsBloom": "0x00000008000002000000000000000000000000000000000000000000000000000000000000000000000000000000000000000000000000000000000000000000800000000000000000000000000000000040000000024000000000000000000000000000000000000000000000000000000000000000000100000000000000000000000000000000000000000040000000000000000000000000000000000000000000000000000000000000008000000000000000020000000000000000080000100000000400000000000000000000000000000000000020000000000000200000000000000000000000000000000000000000000000000000000000000000",
      "type": "0x2",
      "transactionHash": "0x403505891d5e7672ccefe7f3d40c4b02473a386bbf216a9a50796b314ae1b7bc",
      "transactionIndex": "0x1",
      "blockHash": "0xf5a73b425a5d0eda4edec788f94766a294e0a409f1f4bf46ff25722737d1d92f",
      "blockNumber": "0x12585247",
      "gasUsed": "0xf8d3",
      "effectiveGasPrice": "0x989680",
      "from": "0xf2f1acbe0ba726fee8d75f3e32900526874740bb",
      "to": "0xd925c84b55e4e44a53749ff5f2a5a13f63d128fd",
      "contractAddress": null,
      "gasUsedForL1": "0x2572",
      "l1BlockNumber": "0x14de59a"
    },
    {
      "status": "0x1",
      "cumulativeGasUsed": "0x86d47",
      "logs": [
        {
          "address": "0xd925c84b55e4e44a53749ff5f2a5a13f63d128fd",
          "topics": [
            "0xeb8377c150d1438121333afa2027232605a400b1208ae6f9cfa156438e453f6d",
            "0x000000000000000000000000437cc33344a0b27a429f795ff6b469c72698b291",
            "0x0000000000000000000000000000000000000000000000000000000000000018",
            "0x000000000000000000000000437cc33344a0b27a429f795ff6b469c72698b291"
          ],
          "data": "0x0000000000000000000000000000000000000000000000000000000000000001",
          "blockHash": "0x810db114ccfd66244ba38c12551af948c9a559157cf4f9ea9a113d14ec275839",
          "blockNumber": "0x1258524a",
          "transactionHash": "0x14d2bcd4583db815f38e47498b1f43acc189a3fe2fa88aa98a0109c4ea981000",
          "transactionIndex": "0x4",
          "logIndex": "0x1",
          "removed": false
        }
      ],
      "logsBloom": "0x00000008000002000000000000000000000000000000000000000000000000000000000000000000000000000000000000000000000000000000000000000000800000000000000000000000000000000040000000024000000000000000000000000000000000000000000000000000000000000000000000000000000000000000000000000000000000000000000000000000000000000000000000000000000000000000000000000000008000000000000000020000000000000000080000100000000000000000000000000000000000000000000020000000000000200000000000000000000000000000000000000000000000000000000000000000",
      "type": "0x2",
      "transactionHash": "0x14d2bcd4583db815f38e47498b1f43acc189a3fe2fa88aa98a0109c4ea981000",
      "transactionIndex": "0x4",
      "blockHash": "0x810db114ccfd66244ba38c12551af948c9a559157cf4f9ea9a113d14ec275839",
      "blockNumber": "0x1258524a",
      "gasUsed": "0xf8d3",
      "effectiveGasPrice": "0x989680",
      "from": "0xf2f1acbe0ba726fee8d75f3e32900526874740bb",
      "to": "0xd925c84b55e4e44a53749ff5f2a5a13f63d128fd",
      "contractAddress": null,
      "gasUsedForL1": "0x2572",
      "l1BlockNumber": "0x14de59a"
    },
    {
      "status": "0x1",
      "cumulativeGasUsed": "0x67520",
      "logs": [
        {
          "address": "0x0763196a091575adf99e2306e5e90e0be5154841",
          "topics": [
            "0x528b18a533e892b5401d1fb63597275df9d2bb45b13e7695c3147cd07b9746c3"
          ],
          "data": "0x00000000000000000000000000000000000000000000000000000000000000180000000000000000000000000000000000000000000000000000000000000001",
          "blockHash": "0x13cef7ece79568ff37b32ff7b3277ea11237e7b189564fcc8111f4fb3192c8e5",
          "blockNumber": "0x1258524e",
          "transactionHash": "0xd30ed1fa6c3af75e531bdb2a4bd45e8df32c776e10b1fe9cc71c9da4e155b680",
          "transactionIndex": "0x3",
          "logIndex": "0xb",
          "removed": false
        }
      ],
      "logsBloom": "0x00000000000000000000000000000000000000000000000000000000000080000000000000400000000000000000000000000000000000000000000000000000000000000000000000000000800000000000000000000000000000000001000000000000000000001000000000000000000000000000000000000000000000000000000000000000000000000000000000000000000000000000000000000000002000000000000000000000000000000000000000000000000000000000000000000000000000000000000000000000000000000000000000000000000000000000000000000000000000000000000000000000000000000000000000000000",
      "type": "0x2",
      "transactionHash": "0xd30ed1fa6c3af75e531bdb2a4bd45e8df32c776e10b1fe9cc71c9da4e155b680",
      "transactionIndex": "0x3",
      "blockHash": "0x13cef7ece79568ff37b32ff7b3277ea11237e7b189564fcc8111f4fb3192c8e5",
      "blockNumber": "0x1258524e",
      "gasUsed": "0xe860",
      "effectiveGasPrice": "0x989680",
      "from": "0xf2f1acbe0ba726fee8d75f3e32900526874740bb",
      "to": "0x0763196a091575adf99e2306e5e90e0be5154841",
      "contractAddress": null,
      "gasUsedForL1": "0x1baa",
      "l1BlockNumber": "0x14de59a"
    },
    {
      "status": "0x1",
      "cumulativeGasUsed": "0x334d6f",
      "logs": [
        {
          "address": "0xa5f208e072434bc67592e4c49c1b991ba79bca46",
          "topics": [
            "0x6eb224fb001ed210e379b335e35efe88672a8ce935d981a6896b27ffdf52a3b2",
            "0x0000000000000000000000000763196a091575adf99e2306e5e90e0be5154841"
          ],
          "data": "0x0000000000000000000000000000000000000000000000000000000000000002000000000000000000000000000000000000000000000000000000000000000000000000000000000000000000000000000000000000000000000000000000800000000000000000000000000000000000000000000000000000000000000001000000000000000000000000000000000000000000000000000000000000002618fc67c200180000000000000000000000000763196a091575adf99e2306e5e90e0be51548410000000000000000000000000000000000000000000000000000",
          "blockHash": "0xcdaeaf885bbe3e1741b7a1d82e99dab802c193941099fcffde314b415e89be8c",
          "blockNumber": "0x12585253",
          "transactionHash": "0xb21e788898c29fcc9293a178d5bc7313fd3fac41f785fae30cc0c44056872f1c",
          "transactionIndex": "0x15",
          "logIndex": "0x3f",
          "removed": false
        },
        {
          "address": "0x0763196a091575adf99e2306e5e90e0be5154841",
          "topics": [
            "0xa559263ee060c7a2560843b3a064ff0376c9753ae3e2449b595a3b615d326466"
          ],
          "data": "0x00000000000000000000000000000000000000000000000000000000000000180000000000000000000000000763196a091575adf99e2306e5e90e0be5154841",
          "blockHash": "0xcdaeaf885bbe3e1741b7a1d82e99dab802c193941099fcffde314b415e89be8c",
          "blockNumber": "0x12585253",
          "transactionHash": "0xb21e788898c29fcc9293a178d5bc7313fd3fac41f785fae30cc0c44056872f1c",
          "transactionIndex": "0x15",
          "logIndex": "0x40",
          "removed": false
        }
      ],
      "logsBloom": "0x00000000000100000000000000000000000000000000000000000000000000000010000000000000000000000010000000000000000000000000000000000000000000000000000000000000080000000000200100000000000000000001000000000000000000001000000000000000000000000000000000000000000000000000000000000000000000000000000000000000000000000000000000040000002000000400000000000000000000000000004000000000000000008000000000000000000000000000000000000000000000000000000000000000000000000000000000000000210000000000000000000000000000000000000000000000",
      "type": "0x2",
      "transactionHash": "0xb21e788898c29fcc9293a178d5bc7313fd3fac41f785fae30cc0c44056872f1c",
      "transactionIndex": "0x15",
      "blockHash": "0xcdaeaf885bbe3e1741b7a1d82e99dab802c193941099fcffde314b415e89be8c",
      "blockNumber": "0x12585253",
      "gasUsed": "0x14a7e",
      "effectiveGasPrice": "0x989680",
      "from": "0xf2f1acbe0ba726fee8d75f3e32900526874740bb",
      "to": "0x0763196a091575adf99e2306e5e90e0be5154841",
      "contractAddress": null,
      "gasUsedForL1": "0x1baa",
      "l1BlockNumber": "0x14de59a"
    },
    {
      "status": "0x1",
      "cumulativeGasUsed": "0x183f09",
      "logs": [
        {
          "address": "0x0763196a091575adf99e2306e5e90e0be5154841",
          "topics": [
            "0x4add57d97a7bf5035340ea1212aeeb3d4d3887eb1faf3821a8224c3a6956a10c"
          ],
          "data": "0x00000000000000000000000000000000000000000000000000000000000000180000000000000000000000000000000000000000000000000000000000000001",
          "blockHash": "0x89c62b1d7f0369f7a0f99b87bd133561105788d0d4f5b10c9958f7947193c274",
          "blockNumber": "0x12585257",
          "transactionHash": "0xe64bcddb0ad94430792d5f48ca59edb985df56cf6f2035bf9d986726a553467c",
          "transactionIndex": "0x5",
          "logIndex": "0xf",
          "removed": false
        }
      ],
      "logsBloom": "0x00000000000000080000000000000000000000000000000000000000000000000000000000000000000000000000000000000000000000000000000000000000000000000000000000000000000000000000000000000000000000000001000000000000000000001000000000000000000000000000000000000080000000000000000000000000000000000000000000000000000000000000000000000000002000000000000000000000000000000000000000000000000000000000000000000000000000000000000000000000000000000000000000000000000000000000000000000000000000000000000000000040000000000000000000000000",
      "type": "0x2",
      "transactionHash": "0xe64bcddb0ad94430792d5f48ca59edb985df56cf6f2035bf9d986726a553467c",
      "transactionIndex": "0x5",
      "blockHash": "0x89c62b1d7f0369f7a0f99b87bd133561105788d0d4f5b10c9958f7947193c274",
      "blockNumber": "0x12585257",
      "gasUsed": "0xe97e",
      "effectiveGasPrice": "0x989680",
      "from": "0xf2f1acbe0ba726fee8d75f3e32900526874740bb",
      "to": "0x0763196a091575adf99e2306e5e90e0be5154841",
      "contractAddress": null,
      "gasUsedForL1": "0x1baa",
      "l1BlockNumber": "0x14de59c"
    }
  ],
  "libraries": [],
  "pending": [],
  "returns": {},
  "timestamp": 1739990477,
  "chain": 42161,
  "commit": "6824811"
}
