{
  "transactions": [
    {
      "hash": "0x8efcce4890a941b8c95b67534eb2c66ff593e42192157f3841168cd27190a29d",
      "transactionType": "CALL",
      "contractName": null,
      "contractAddress": "0xd925c84b55e4e44a53749ff5f2a5a13f63d128fd",
      "function": "setPeer(uint16,bytes32,uint8,uint256)",
      "arguments": [
        "1",
        "0x0b86ec181cd4c5c984e9062b13f2b2de7b9f5b5e68e84349231d6614cdf3f99f",
        "6",
        "0"
      ],
      "transaction": {
        "from": "0xf2f1acbe0ba726fee8d75f3e32900526874740bb",
        "to": "0xd925c84b55e4e44a53749ff5f2a5a13f63d128fd",
        "gas": "0x1a80d",
        "value": "0x0",
        "input": "0x7c91863400000000000000000000000000000000000000000000000000000000000000010b86ec181cd4c5c984e9062b13f2b2de7b9f5b5e68e84349231d6614cdf3f99f00000000000000000000000000000000000000000000000000000000000000060000000000000000000000000000000000000000000000000000000000000000",
        "nonce": "0x3f",
        "chainId": "0xa4b1"
      },
      "additionalContracts": [],
      "isFixedGasLimit": false
    },
    {
      "hash": "0x89a38ff10ea1cb40b0b09157bc26d71b0167132c75abae9a03a47852af917dce",
      "transactionType": "CALL",
      "contractName": null,
      "contractAddress": "0xd925c84b55e4e44a53749ff5f2a5a13f63d128fd",
      "function": "setDestinationMToken(uint16,bytes32)",
      "arguments": [
        "1",
        "0x0b86be66d32bc5a4b5ab1febdf48e33b06c3b5a163b19c1730ed78705f7ef68c"
      ],
      "transaction": {
        "from": "0xf2f1acbe0ba726fee8d75f3e32900526874740bb",
        "to": "0xd925c84b55e4e44a53749ff5f2a5a13f63d128fd",
        "gas": "0x119b1",
        "value": "0x0",
        "input": "0x76a4a53900000000000000000000000000000000000000000000000000000000000000010b86be66d32bc5a4b5ab1febdf48e33b06c3b5a163b19c1730ed78705f7ef68c",
        "nonce": "0x40",
        "chainId": "0xa4b1"
      },
      "additionalContracts": [],
      "isFixedGasLimit": false
    },
    {
      "hash": "0x0f2039e1c813009d8c964063f5b52a50b92b4969c103950652b859e82302fa58",
      "transactionType": "CALL",
      "contractName": null,
      "contractAddress": "0xd925c84b55e4e44a53749ff5f2a5a13f63d128fd",
      "function": "setSupportedBridgingPath(address,uint16,bytes32,bool)",
      "arguments": [
        "0x866A2BF4E572CbcF37D5071A7a58503Bfb36be1b",
        "1",
        "0x0b86be66d32bc5a4b5ab1febdf48e33b06c3b5a163b19c1730ed78705f7ef68c",
        "true"
      ],
      "transaction": {
        "from": "0xf2f1acbe0ba726fee8d75f3e32900526874740bb",
        "to": "0xd925c84b55e4e44a53749ff5f2a5a13f63d128fd",
        "gas": "0x12283",
        "value": "0x0",
        "input": "0x1482cb4a000000000000000000000000866a2bf4e572cbcf37d5071a7a58503bfb36be1b00000000000000000000000000000000000000000000000000000000000000010b86be66d32bc5a4b5ab1febdf48e33b06c3b5a163b19c1730ed78705f7ef68c0000000000000000000000000000000000000000000000000000000000000001",
        "nonce": "0x41",
        "chainId": "0xa4b1"
      },
      "additionalContracts": [],
      "isFixedGasLimit": false
    },
    {
      "hash": "0xac3b4ece430d0adbfdcae981b54295c0f5075a9325882b977f512c9f4643cbb9",
      "transactionType": "CALL",
      "contractName": null,
      "contractAddress": "0xd925c84b55e4e44a53749ff5f2a5a13f63d128fd",
      "function": "setSupportedBridgingPath(address,uint16,bytes32,bool)",
      "arguments": [
        "0x437cc33344a0B27A429f795ff6B469C72698B291",
        "1",
        "0x0b86be66d32bc5a4b5ab1febdf48e33b06c3b5a163b19c1730ed78705f7ef68c",
        "true"
      ],
      "transaction": {
        "from": "0xf2f1acbe0ba726fee8d75f3e32900526874740bb",
        "to": "0xd925c84b55e4e44a53749ff5f2a5a13f63d128fd",
        "gas": "0x12283",
        "value": "0x0",
        "input": "0x1482cb4a000000000000000000000000437cc33344a0b27a429f795ff6b469c72698b29100000000000000000000000000000000000000000000000000000000000000010b86be66d32bc5a4b5ab1febdf48e33b06c3b5a163b19c1730ed78705f7ef68c0000000000000000000000000000000000000000000000000000000000000001",
        "nonce": "0x42",
        "chainId": "0xa4b1"
      },
      "additionalContracts": [],
      "isFixedGasLimit": false
    },
    {
      "hash": "0xca0c839ec3ad166896917b64804a28c99e5865da31e1d97ec6610d3255d4bb4e",
      "transactionType": "CALL",
      "contractName": null,
      "contractAddress": "0x0763196a091575adf99e2306e5e90e0be5154841",
      "function": "setIsSpecialRelayingEnabled(uint16,bool)",
      "arguments": ["1", "true"],
      "transaction": {
        "from": "0xf2f1acbe0ba726fee8d75f3e32900526874740bb",
        "to": "0x0763196a091575adf99e2306e5e90e0be5154841",
        "gas": "0x11630",
        "value": "0x0",
        "input": "0x4b795b2100000000000000000000000000000000000000000000000000000000000000010000000000000000000000000000000000000000000000000000000000000001",
        "nonce": "0x43",
        "chainId": "0xa4b1"
      },
      "additionalContracts": [],
      "isFixedGasLimit": false
    },
    {
      "hash": "0x8de820a6c2856570de44d1d71c8099e7c51256f1054bce4ca5afda49dc84b425",
      "transactionType": "CALL",
      "contractName": null,
      "contractAddress": "0x0763196a091575adf99e2306e5e90e0be5154841",
      "function": "setWormholePeer(uint16,bytes32)",
      "arguments": [
        "1",
        "0xfcbdac3b256685bd2cc3a97bfcd815fb76b8d33df924e607c409c0bce3fa1668"
      ],
      "transaction": {
        "from": "0xf2f1acbe0ba726fee8d75f3e32900526874740bb",
        "to": "0x0763196a091575adf99e2306e5e90e0be5154841",
        "gas": "0x19742",
        "value": "0x0",
        "input": "0x7ab564030000000000000000000000000000000000000000000000000000000000000001fcbdac3b256685bd2cc3a97bfcd815fb76b8d33df924e607c409c0bce3fa1668",
        "nonce": "0x44",
        "chainId": "0xa4b1"
      },
      "additionalContracts": [],
      "isFixedGasLimit": false
    }
  ],
  "receipts": [
    {
      "status": "0x1",
      "cumulativeGasUsed": "0x140fa",
      "logs": [
        {
          "address": "0xd925c84b55e4e44a53749ff5f2a5a13f63d128fd",
          "topics": [
            "0x1456404e7f41f35c3daac941bb50bad417a66275c3040061b4287d787719599d",
            "0x0000000000000000000000000000000000000000000000000000000000000001"
          ],
          "data": "0x000000000000000000000000000000000000000000000000000000000000000000000000000000000000000000000000000000000000000000000000000000000b86ec181cd4c5c984e9062b13f2b2de7b9f5b5e68e84349231d6614cdf3f99f0000000000000000000000000000000000000000000000000000000000000006",
          "blockHash": "0xe76ab4123a614ebd028e5a58fec87c8f8dbc09a867422077a1acd79d678ffd43",
          "blockNumber": "0x13993ff0",
          "transactionHash": "0x8efcce4890a941b8c95b67534eb2c66ff593e42192157f3841168cd27190a29d",
          "transactionIndex": "0x1",
          "logIndex": "0x0",
          "removed": false
        }
      ],
      "logsBloom": "0x00000000000000000000000000000000000000000000000000000000000000000000000000000000002000000000000000000000000000000000000000040000000000000000000000000000000000000000000000064000000000000000000000002000000000000000000000000000000000000000000000000000000000000000000000000000000008000000000000000000000000000000000000000000000000000000000000000000000000000000000000000000000000000000080000000000000000000000000000000000000000000000000000000000000040000000000000000000000000000000000000000000000000000000000000000000",
      "type": "0x2",
      "transactionHash": "0x8efcce4890a941b8c95b67534eb2c66ff593e42192157f3841168cd27190a29d",
      "transactionIndex": "0x1",
      "blockHash": "0xe76ab4123a614ebd028e5a58fec87c8f8dbc09a867422077a1acd79d678ffd43",
      "blockNumber": "0x13993ff0",
      "gasUsed": "0x140fa",
      "effectiveGasPrice": "0x989680",
      "from": "0xf2f1acbe0ba726fee8d75f3e32900526874740bb",
      "to": "0xd925c84b55e4e44a53749ff5f2a5a13f63d128fd",
      "contractAddress": null,
      "gasUsedForL1": "0x6b8",
      "l1BlockNumber": "0x154935f"
    },
    {
      "status": "0x1",
      "cumulativeGasUsed": "0xd419",
      "logs": [
        {
          "address": "0xd925c84b55e4e44a53749ff5f2a5a13f63d128fd",
          "topics": [
            "0xe6658eeba76934cef78dc5f420ee40406e4876e8d3e767f7b700c63daf1bf0ba",
            "0x0000000000000000000000000000000000000000000000000000000000000001"
          ],
          "data": "0x0b86be66d32bc5a4b5ab1febdf48e33b06c3b5a163b19c1730ed78705f7ef68c",
          "blockHash": "0xe7b40b1ef65973007702f545aa93865688dcc36e1474d33065dfa23e083f56b4",
          "blockNumber": "0x13993ffc",
          "transactionHash": "0x89a38ff10ea1cb40b0b09157bc26d71b0167132c75abae9a03a47852af917dce",
          "transactionIndex": "0x1",
          "logIndex": "0x0",
          "removed": false
        }
      ],
      "logsBloom": "0x00000000000000000000000000000000000000000000000000000000000000000000000000000000000000000000000000000000000000000000000000040000000000000000000000000000002000000000000000064000000000000000000000000000000000000000000000000000000000000000000000000000000000000000000000000000000000000000000000000000000000000000000000000000000080000000000000000000000000000000000000000000000000000000080000000000000020000000000000000000000000000000000000000000000040000000000000000000000000000000000000000000000000000000000000000000",
      "type": "0x2",
      "transactionHash": "0x89a38ff10ea1cb40b0b09157bc26d71b0167132c75abae9a03a47852af917dce",
      "transactionIndex": "0x1",
      "blockHash": "0xe7b40b1ef65973007702f545aa93865688dcc36e1474d33065dfa23e083f56b4",
      "blockNumber": "0x13993ffc",
      "gasUsed": "0xd419",
      "effectiveGasPrice": "0x989680",
      "from": "0xf2f1acbe0ba726fee8d75f3e32900526874740bb",
      "to": "0xd925c84b55e4e44a53749ff5f2a5a13f63d128fd",
      "contractAddress": null,
      "gasUsedForL1": "0x4f6",
      "l1BlockNumber": "0x154935f"
    },
    {
      "status": "0x1",
      "cumulativeGasUsed": "0xdaa9",
      "logs": [
        {
          "address": "0xd925c84b55e4e44a53749ff5f2a5a13f63d128fd",
          "topics": [
            "0xeb8377c150d1438121333afa2027232605a400b1208ae6f9cfa156438e453f6d",
            "0x000000000000000000000000866a2bf4e572cbcf37d5071a7a58503bfb36be1b",
            "0x0000000000000000000000000000000000000000000000000000000000000001",
            "0x0b86be66d32bc5a4b5ab1febdf48e33b06c3b5a163b19c1730ed78705f7ef68c"
          ],
          "data": "0x0000000000000000000000000000000000000000000000000000000000000001",
          "blockHash": "0xa76c84bd9f4f9bf7b9af9e32930eb2b55a94a1ba3014f210f8c0d1d25d1d8eac",
          "blockNumber": "0x13994008",
          "transactionHash": "0x0f2039e1c813009d8c964063f5b52a50b92b4969c103950652b859e82302fa58",
          "transactionIndex": "0x1",
          "logIndex": "0x0",
          "removed": false
        }
      ],
      "logsBloom": "0x00000008000000000000000000000000000000000000000000000000000000000000000000000000000000000000000000000000200000000000000000040000800000000000000000000000000000000000000000064000000000000000000000000000000000000000000000000020000000000000000100000000000000000000000000000000000000000040000000000000000000000000000000000000000000000000000000000000008000000000000000000000000000200000080000000000000400000000000000000000000000000000000000000000000040000000000000000000000000000000000000000000000000000000000000000000",
      "type": "0x2",
      "transactionHash": "0x0f2039e1c813009d8c964063f5b52a50b92b4969c103950652b859e82302fa58",
      "transactionIndex": "0x1",
      "blockHash": "0xa76c84bd9f4f9bf7b9af9e32930eb2b55a94a1ba3014f210f8c0d1d25d1d8eac",
      "blockNumber": "0x13994008",
      "gasUsed": "0xdaa9",
      "effectiveGasPrice": "0x989680",
      "from": "0xf2f1acbe0ba726fee8d75f3e32900526874740bb",
      "to": "0xd925c84b55e4e44a53749ff5f2a5a13f63d128fd",
      "contractAddress": null,
      "gasUsedForL1": "0x6b8",
      "l1BlockNumber": "0x1549361"
    },
    {
      "status": "0x1",
      "cumulativeGasUsed": "0x16d79a",
      "logs": [
        {
          "address": "0xd925c84b55e4e44a53749ff5f2a5a13f63d128fd",
          "topics": [
            "0xeb8377c150d1438121333afa2027232605a400b1208ae6f9cfa156438e453f6d",
            "0x000000000000000000000000437cc33344a0b27a429f795ff6b469c72698b291",
            "0x0000000000000000000000000000000000000000000000000000000000000001",
            "0x0b86be66d32bc5a4b5ab1febdf48e33b06c3b5a163b19c1730ed78705f7ef68c"
          ],
          "data": "0x0000000000000000000000000000000000000000000000000000000000000001",
          "blockHash": "0x5a63466c37c3dc0984cd19597090e00098bf07e785a5c61619e81d4382fe587c",
          "blockNumber": "0x13994014",
          "transactionHash": "0xac3b4ece430d0adbfdcae981b54295c0f5075a9325882b977f512c9f4643cbb9",
          "transactionIndex": "0x2",
          "logIndex": "0x19",
          "removed": false
        }
      ],
      "logsBloom": "0x00000008000002000000000000000000000000000000000000000000000000000000000000000000000000000000000000000000200000000000000000040000800000000000000000000000000000000000000000064000000000000000000000000000000000000000000000000020000000000000000000000000000000000000000000000000000000000000000000000000000000000000000000000000000000000000000000000000008000000000000000020000000000200000080000000000000000000000000000000000000000000000000000000000000040200000000000000000000000000000000000000000000000000000000000000000",
      "type": "0x2",
      "transactionHash": "0xac3b4ece430d0adbfdcae981b54295c0f5075a9325882b977f512c9f4643cbb9",
      "transactionIndex": "0x2",
      "blockHash": "0x5a63466c37c3dc0984cd19597090e00098bf07e785a5c61619e81d4382fe587c",
      "blockNumber": "0x13994014",
      "gasUsed": "0xdaa9",
      "effectiveGasPrice": "0x989680",
      "from": "0xf2f1acbe0ba726fee8d75f3e32900526874740bb",
      "to": "0xd925c84b55e4e44a53749ff5f2a5a13f63d128fd",
      "contractAddress": null,
      "gasUsedForL1": "0x6b8",
      "l1BlockNumber": "0x1549361"
    },
    {
      "status": "0x1",
      "cumulativeGasUsed": "0xd16a",
      "logs": [
        {
          "address": "0x0763196a091575adf99e2306e5e90e0be5154841",
          "topics": [
            "0x0fe301480713b2c2072ee91b3bcfcbf2c0014f0447c89046f020f0f80727003c"
          ],
          "data": "0x00000000000000000000000000000000000000000000000000000000000000010000000000000000000000000000000000000000000000000000000000000001",
          "blockHash": "0x5445ed1ce5adfedf405f6270861baffd4b95baf1094f8f572e543d9faced1d94",
          "blockNumber": "0x13994020",
          "transactionHash": "0xca0c839ec3ad166896917b64804a28c99e5865da31e1d97ec6610d3255d4bb4e",
          "transactionIndex": "0x1",
          "logIndex": "0x0",
          "removed": false
        }
      ],
      "logsBloom": "0x00000000000000000000000000000000000000000000000000000000000000000000000000000000000000000000000000000000000000000000000000000000000000000000000000000000000000000000000000000000000000000001000000000000000000001000000000000000000000000000000000000000000000000000000000000000000000001000000000000000000000000000000000000000002002000000000000000000000000000000000000000000000000000000000000000000000000000000000000000000000000000000000000000000000000000000000000000000000000000000000000000000000000000000000400000000",
      "type": "0x2",
      "transactionHash": "0xca0c839ec3ad166896917b64804a28c99e5865da31e1d97ec6610d3255d4bb4e",
      "transactionIndex": "0x1",
      "blockHash": "0x5445ed1ce5adfedf405f6270861baffd4b95baf1094f8f572e543d9faced1d94",
      "blockNumber": "0x13994020",
      "gasUsed": "0xd16a",
      "effectiveGasPrice": "0x989680",
      "from": "0xf2f1acbe0ba726fee8d75f3e32900526874740bb",
      "to": "0x0763196a091575adf99e2306e5e90e0be5154841",
      "contractAddress": null,
      "gasUsedForL1": "0x4f6",
      "l1BlockNumber": "0x1549361"
    },
    {
      "status": "0x1",
      "cumulativeGasUsed": "0x60acb",
      "logs": [
        {
          "address": "0xa5f208e072434bc67592e4c49c1b991ba79bca46",
          "topics": [
            "0x6eb224fb001ed210e379b335e35efe88672a8ce935d981a6896b27ffdf52a3b2",
            "0x0000000000000000000000000763196a091575adf99e2306e5e90e0be5154841"
          ],
          "data": "0x0000000000000000000000000000000000000000000000000000000000000003000000000000000000000000000000000000000000000000000000000000000000000000000000000000000000000000000000000000000000000000000000800000000000000000000000000000000000000000000000000000000000000001000000000000000000000000000000000000000000000000000000000000002618fc67c20001fcbdac3b256685bd2cc3a97bfcd815fb76b8d33df924e607c409c0bce3fa16680000000000000000000000000000000000000000000000000000",
          "blockHash": "0x22408d5d2480283c47afc63e89276d84c07624cbee689e4295efb79e15a79f9d",
          "blockNumber": "0x1399402c",
          "transactionHash": "0x8de820a6c2856570de44d1d71c8099e7c51256f1054bce4ca5afda49dc84b425",
          "transactionIndex": "0x2",
          "logIndex": "0x7",
          "removed": false
        },
        {
          "address": "0x0763196a091575adf99e2306e5e90e0be5154841",
          "topics": [
            "0xa559263ee060c7a2560843b3a064ff0376c9753ae3e2449b595a3b615d326466"
          ],
          "data": "0x0000000000000000000000000000000000000000000000000000000000000001fcbdac3b256685bd2cc3a97bfcd815fb76b8d33df924e607c409c0bce3fa1668",
          "blockHash": "0x22408d5d2480283c47afc63e89276d84c07624cbee689e4295efb79e15a79f9d",
          "blockNumber": "0x1399402c",
          "transactionHash": "0x8de820a6c2856570de44d1d71c8099e7c51256f1054bce4ca5afda49dc84b425",
          "transactionIndex": "0x2",
          "logIndex": "0x8",
          "removed": false
        }
      ],
      "logsBloom": "0x00000000000100000000000000000000000000000000000000000000000000000010000000000000000000000010000000000000000000000000000000000000000000000000000000000000080000000000200100000000000000000001000000000000000000001000000000000000000000000000000000000000000000000000000000000000000000000000000000000000000000000000000000040000002000000400000000000000000000000000004000000000000000008000000000000000000000000000000000000000000000000000000000000000000000000000000000000000210000000000000000000000000000000000000000000000",
      "type": "0x2",
      "transactionHash": "0x8de820a6c2856570de44d1d71c8099e7c51256f1054bce4ca5afda49dc84b425",
      "transactionIndex": "0x2",
      "blockHash": "0x22408d5d2480283c47afc63e89276d84c07624cbee689e4295efb79e15a79f9d",
      "blockNumber": "0x1399402c",
      "gasUsed": "0x1344e",
      "effectiveGasPrice": "0x989680",
      "from": "0xf2f1acbe0ba726fee8d75f3e32900526874740bb",
      "to": "0x0763196a091575adf99e2306e5e90e0be5154841",
      "contractAddress": null,
      "gasUsedForL1": "0x4f6",
      "l1BlockNumber": "0x1549361"
    }
  ],
  "libraries": [],
  "pending": [],
  "returns": {},
  "timestamp": 1745269774,
  "chain": 42161,
  "commit": "5c64749"
}
