{
  "transactions": [
    {
      "hash": "0x188c3048b9bd994e5d6b7ff065d845a0a6b33053da8437f079a58f2ed3017270",
      "transactionType": "CALL",
      "contractName": null,
      "contractAddress": "0xd925c84b55e4e44a53749ff5f2a5a13f63d128fd",
      "function": "setPeer(uint16,bytes32,uint8,uint256)",
      "arguments": [
        "10004",
        "0x000000000000000000000000d925c84b55e4e44a53749ff5f2a5a13f63d128fd",
        "6",
        "0"
      ],
      "transaction": {
        "from": "0xf2f1acbe0ba726fee8d75f3e32900526874740bb",
        "to": "0xd925c84b55e4e44a53749ff5f2a5a13f63d128fd",
        "gas": "0x1b199",
        "value": "0x0",
        "input": "0x7c9186340000000000000000000000000000000000000000000000000000000000002714000000000000000000000000d925c84b55e4e44a53749ff5f2a5a13f63d128fd00000000000000000000000000000000000000000000000000000000000000060000000000000000000000000000000000000000000000000000000000000000",
        "nonce": "0xf1",
        "chainId": "0xaa36a7"
      },
      "additionalContracts": [],
      "isFixedGasLimit": false
    },
    {
      "hash": "0xc06dde8ac3e3e979a3faaf28324f0bd386a8fad2718a24347813dbc6365c9441",
      "transactionType": "CALL",
      "contractName": null,
      "contractAddress": "0xd925c84b55e4e44a53749ff5f2a5a13f63d128fd",
      "function": "setDestinationMToken(uint16,bytes32)",
      "arguments": [
        "10004",
        "0x000000000000000000000000866a2bf4e572cbcf37d5071a7a58503bfb36be1b"
      ],
      "transaction": {
        "from": "0xf2f1acbe0ba726fee8d75f3e32900526874740bb",
        "to": "0xd925c84b55e4e44a53749ff5f2a5a13f63d128fd",
        "gas": "0x11d59",
        "value": "0x0",
        "input": "0x76a4a5390000000000000000000000000000000000000000000000000000000000002714000000000000000000000000866a2bf4e572cbcf37d5071a7a58503bfb36be1b",
        "nonce": "0xf2",
        "chainId": "0xaa36a7"
      },
      "additionalContracts": [],
      "isFixedGasLimit": false
    },
    {
      "hash": "0x652dc02e5f03baeadf97a0597feb0e959109a3a48c9359faac3967c6d8116f4e",
      "transactionType": "CALL",
      "contractName": null,
      "contractAddress": "0xd925c84b55e4e44a53749ff5f2a5a13f63d128fd",
      "function": "setSupportedBridgingPath(address,uint16,bytes32,bool)",
      "arguments": [
        "0x866A2BF4E572CbcF37D5071A7a58503Bfb36be1b",
        "10004",
        "0x000000000000000000000000866a2bf4e572cbcf37d5071a7a58503bfb36be1b",
        "true"
      ],
      "transaction": {
        "from": "0xf2f1acbe0ba726fee8d75f3e32900526874740bb",
        "to": "0xd925c84b55e4e44a53749ff5f2a5a13f63d128fd",
        "gas": "0x123dd",
        "value": "0x0",
        "input": "0x1482cb4a000000000000000000000000866a2bf4e572cbcf37d5071a7a58503bfb36be1b0000000000000000000000000000000000000000000000000000000000002714000000000000000000000000866a2bf4e572cbcf37d5071a7a58503bfb36be1b0000000000000000000000000000000000000000000000000000000000000001",
        "nonce": "0xf3",
        "chainId": "0xaa36a7"
      },
      "additionalContracts": [],
      "isFixedGasLimit": false
    },
    {
      "hash": "0x22f4d264acd57a8b154d82912b9146bd2abd041636743d98c59bafe980c16934",
      "transactionType": "CALL",
      "contractName": null,
      "contractAddress": "0xd925c84b55e4e44a53749ff5f2a5a13f63d128fd",
      "function": "setSupportedBridgingPath(address,uint16,bytes32,bool)",
      "arguments": [
        "0x866A2BF4E572CbcF37D5071A7a58503Bfb36be1b",
        "10004",
        "0x000000000000000000000000437cc33344a0b27a429f795ff6b469c72698b291",
        "true"
      ],
      "transaction": {
        "from": "0xf2f1acbe0ba726fee8d75f3e32900526874740bb",
        "to": "0xd925c84b55e4e44a53749ff5f2a5a13f63d128fd",
        "gas": "0x123dd",
        "value": "0x0",
        "input": "0x1482cb4a000000000000000000000000866a2bf4e572cbcf37d5071a7a58503bfb36be1b0000000000000000000000000000000000000000000000000000000000002714000000000000000000000000437cc33344a0b27a429f795ff6b469c72698b2910000000000000000000000000000000000000000000000000000000000000001",
        "nonce": "0xf4",
        "chainId": "0xaa36a7"
      },
      "additionalContracts": [],
      "isFixedGasLimit": false
    },
    {
      "hash": "0xef8d7a7b660799c4e40fd9ce8266b274d196292ed09f15ce24145fcb00f2703f",
      "transactionType": "CALL",
      "contractName": null,
      "contractAddress": "0xd925c84b55e4e44a53749ff5f2a5a13f63d128fd",
      "function": "setSupportedBridgingPath(address,uint16,bytes32,bool)",
      "arguments": [
        "0x437cc33344a0B27A429f795ff6B469C72698B291",
        "10004",
        "0x000000000000000000000000866a2bf4e572cbcf37d5071a7a58503bfb36be1b",
        "true"
      ],
      "transaction": {
        "from": "0xf2f1acbe0ba726fee8d75f3e32900526874740bb",
        "to": "0xd925c84b55e4e44a53749ff5f2a5a13f63d128fd",
        "gas": "0x123dd",
        "value": "0x0",
        "input": "0x1482cb4a000000000000000000000000437cc33344a0b27a429f795ff6b469c72698b2910000000000000000000000000000000000000000000000000000000000002714000000000000000000000000866a2bf4e572cbcf37d5071a7a58503bfb36be1b0000000000000000000000000000000000000000000000000000000000000001",
        "nonce": "0xf5",
        "chainId": "0xaa36a7"
      },
      "additionalContracts": [],
      "isFixedGasLimit": false
    },
    {
      "hash": "0x9a1f791ad1b2c389da6516c872a34aef2296515c4db5ec8d0669568c6276dda4",
      "transactionType": "CALL",
      "contractName": null,
      "contractAddress": "0xd925c84b55e4e44a53749ff5f2a5a13f63d128fd",
      "function": "setSupportedBridgingPath(address,uint16,bytes32,bool)",
      "arguments": [
        "0x437cc33344a0B27A429f795ff6B469C72698B291",
        "10004",
        "0x000000000000000000000000437cc33344a0b27a429f795ff6b469c72698b291",
        "true"
      ],
      "transaction": {
        "from": "0xf2f1acbe0ba726fee8d75f3e32900526874740bb",
        "to": "0xd925c84b55e4e44a53749ff5f2a5a13f63d128fd",
        "gas": "0x123dd",
        "value": "0x0",
        "input": "0x1482cb4a000000000000000000000000437cc33344a0b27a429f795ff6b469c72698b2910000000000000000000000000000000000000000000000000000000000002714000000000000000000000000437cc33344a0b27a429f795ff6b469c72698b2910000000000000000000000000000000000000000000000000000000000000001",
        "nonce": "0xf6",
        "chainId": "0xaa36a7"
      },
      "additionalContracts": [],
      "isFixedGasLimit": false
    },
    {
      "hash": "0x68a3251d1337ec68bee757705e4f42b8e29aefe94f59a0c21b81e20d6a006156",
      "transactionType": "CALL",
      "contractName": "ERC1967Proxy",
      "contractAddress": "0x0763196a091575adf99e2306e5e90e0be5154841",
      "function": null,
      "arguments": null,
      "transaction": {
        "from": "0xf2f1acbe0ba726fee8d75f3e32900526874740bb",
        "to": "0x0763196a091575adf99e2306e5e90e0be5154841",
        "gas": "0x12b75",
        "value": "0x0",
        "input": "0x657b3b2f00000000000000000000000000000000000000000000000000000000000027140000000000000000000000000000000000000000000000000000000000000001",
        "nonce": "0xf7",
        "chainId": "0xaa36a7"
      },
      "additionalContracts": [],
      "isFixedGasLimit": false
    },
    {
      "hash": "0x16e3a6370d24fd61c37e1e82e2368f2b4f6efd96f02511b94a4304fc888e45e4",
      "transactionType": "CALL",
      "contractName": "ERC1967Proxy",
      "contractAddress": "0x0763196a091575adf99e2306e5e90e0be5154841",
      "function": null,
      "arguments": null,
      "transaction": {
        "from": "0xf2f1acbe0ba726fee8d75f3e32900526874740bb",
        "to": "0x0763196a091575adf99e2306e5e90e0be5154841",
        "gas": "0x1a247",
        "value": "0x0",
        "input": "0x7ab5640300000000000000000000000000000000000000000000000000000000000027140000000000000000000000000763196a091575adf99e2306e5e90e0be5154841",
        "nonce": "0xf8",
        "chainId": "0xaa36a7"
      },
      "additionalContracts": [],
      "isFixedGasLimit": false
    },
    {
      "hash": "0xf2590a6c3d9f28b0cc5407d22e7534edd01590abdcdadff56179eb1fbf6f19f5",
      "transactionType": "CALL",
      "contractName": "ERC1967Proxy",
      "contractAddress": "0x0763196a091575adf99e2306e5e90e0be5154841",
      "function": null,
      "arguments": null,
      "transaction": {
        "from": "0xf2f1acbe0ba726fee8d75f3e32900526874740bb",
        "to": "0x0763196a091575adf99e2306e5e90e0be5154841",
        "gas": "0x11c5d",
        "value": "0x0",
        "input": "0x96dddc6300000000000000000000000000000000000000000000000000000000000027140000000000000000000000000000000000000000000000000000000000000001",
        "nonce": "0xf9",
        "chainId": "0xaa36a7"
      },
      "additionalContracts": [],
      "isFixedGasLimit": false
    }
  ],
  "receipts": [
    {
      "status": "0x1",
      "cumulativeGasUsed": "0x8fb99d",
      "logs": [
        {
          "address": "0xd925c84b55e4e44a53749ff5f2a5a13f63d128fd",
          "topics": [
            "0x1456404e7f41f35c3daac941bb50bad417a66275c3040061b4287d787719599d",
            "0x0000000000000000000000000000000000000000000000000000000000002714"
          ],
          "data": "0x00000000000000000000000000000000000000000000000000000000000000000000000000000000000000000000000000000000000000000000000000000000000000000000000000000000d925c84b55e4e44a53749ff5f2a5a13f63d128fd0000000000000000000000000000000000000000000000000000000000000006",
          "blockHash": "0x2fda415d3f52267009a5f543a9c703df02728cac90b9829614e358984d597205",
          "blockNumber": "0x9160b7",
          "blockTimestamp": "0x69043434",
          "transactionHash": "0x188c3048b9bd994e5d6b7ff065d845a0a6b33053da8437f079a58f2ed3017270",
          "transactionIndex": "0x39",
          "logIndex": "0x56",
          "removed": false
        }
      ],
      "logsBloom": "0x00200000000008000000002000000000000000000000000000000000000000000000000000000000002000000000000000000000000000000000000000000000000000000000000000000000000000000000000000024000000000000000000000002000000000000000000000000000000000000000000000000000000000000000000000000000000008000000000000000000000000000000000000000000000000000000000000000000000000000000000000000000000000000000080000000000000000000000000000000000000000000000000000000000000000000000000000000000000000000000000000000000000000000000000000000000",
      "type": "0x2",
      "transactionHash": "0x188c3048b9bd994e5d6b7ff065d845a0a6b33053da8437f079a58f2ed3017270",
      "transactionIndex": "0x39",
      "blockHash": "0x2fda415d3f52267009a5f543a9c703df02728cac90b9829614e358984d597205",
      "blockNumber": "0x9160b7",
      "gasUsed": "0x139ec",
      "effectiveGasPrice": "0xf4248",
      "from": "0xf2f1acbe0ba726fee8d75f3e32900526874740bb",
      "to": "0xd925c84b55e4e44a53749ff5f2a5a13f63d128fd",
      "contractAddress": null
    },
    {
      "status": "0x1",
      "cumulativeGasUsed": "0x3ff556",
      "logs": [
        {
          "address": "0xd925c84b55e4e44a53749ff5f2a5a13f63d128fd",
          "topics": [
            "0xe6658eeba76934cef78dc5f420ee40406e4876e8d3e767f7b700c63daf1bf0ba",
            "0x0000000000000000000000000000000000000000000000000000000000002714"
          ],
          "data": "0x000000000000000000000000866a2bf4e572cbcf37d5071a7a58503bfb36be1b",
          "blockHash": "0xcbefbb4b541b79b593f5033816f2bae1accdd530b92ed2e8f6e8c6d2eb2518db",
          "blockNumber": "0x9160b8",
          "blockTimestamp": "0x69043440",
          "transactionHash": "0xc06dde8ac3e3e979a3faaf28324f0bd386a8fad2718a24347813dbc6365c9441",
          "transactionIndex": "0x21",
          "logIndex": "0x2c",
          "removed": false
        }
      ],
      "logsBloom": "0x00200000000008000000002000000000000000000000000000000000000000000000000000000000000000000000000000000000000000000000000000000000000000000000000000000000002000000000000000024000000000000000000000000000000000000000000000000000000000000000000000000000000000000000000000000000000000000000000000000000000000000000000000000000000080000000000000000000000000000000000000000000000000000000080000000000000020000000000000000000000000000000000000000000000000000000000000000000000000000000000000000000000000000000000000000000",
      "type": "0x2",
      "transactionHash": "0xc06dde8ac3e3e979a3faaf28324f0bd386a8fad2718a24347813dbc6365c9441",
      "transactionIndex": "0x21",
      "blockHash": "0xcbefbb4b541b79b593f5033816f2bae1accdd530b92ed2e8f6e8c6d2eb2518db",
      "blockNumber": "0x9160b8",
      "gasUsed": "0xce97",
      "effectiveGasPrice": "0xf4248",
      "from": "0xf2f1acbe0ba726fee8d75f3e32900526874740bb",
      "to": "0xd925c84b55e4e44a53749ff5f2a5a13f63d128fd",
      "contractAddress": null
    },
    {
      "status": "0x1",
      "cumulativeGasUsed": "0xc2149b",
      "logs": [
        {
          "address": "0xd925c84b55e4e44a53749ff5f2a5a13f63d128fd",
          "topics": [
            "0xeb8377c150d1438121333afa2027232605a400b1208ae6f9cfa156438e453f6d",
            "0x000000000000000000000000866a2bf4e572cbcf37d5071a7a58503bfb36be1b",
            "0x0000000000000000000000000000000000000000000000000000000000002714",
            "0x000000000000000000000000866a2bf4e572cbcf37d5071a7a58503bfb36be1b"
          ],
          "data": "0x0000000000000000000000000000000000000000000000000000000000000001",
          "blockHash": "0x9c7bcfc50139d58b188ce36c953fd89380e7888e37a0f3923c819a22c31a1b09",
          "blockNumber": "0x9160b9",
          "blockTimestamp": "0x6904344c",
          "transactionHash": "0x652dc02e5f03baeadf97a0597feb0e959109a3a48c9359faac3967c6d8116f4e",
          "transactionIndex": "0x84",
          "logIndex": "0x87",
          "removed": false
        }
      ],
      "logsBloom": "0x00200008000008000000002000000000000000000000000000000000000000000000000000000000000000000000000000000000000000000000000000000000800000000000000000000000000000000000000000024000000000000000000000000000000000000000000000000000000000000000000100000000000000000000000000000000000000000040000000000000000000000000000000000000000000000000000000000000008000000000000000000000000000000000080000000000000400000000000000000000000000000000000000000000000000000000000000000000000000000000000000000000000000000000000000000000",
      "type": "0x2",
      "transactionHash": "0x652dc02e5f03baeadf97a0597feb0e959109a3a48c9359faac3967c6d8116f4e",
      "transactionIndex": "0x84",
      "blockHash": "0x9c7bcfc50139d58b188ce36c953fd89380e7888e37a0f3923c819a22c31a1b09",
      "blockNumber": "0x9160b9",
      "gasUsed": "0xd34f",
      "effectiveGasPrice": "0xf4248",
      "from": "0xf2f1acbe0ba726fee8d75f3e32900526874740bb",
      "to": "0xd925c84b55e4e44a53749ff5f2a5a13f63d128fd",
      "contractAddress": null
    },
    {
      "status": "0x1",
      "cumulativeGasUsed": "0x553d42",
      "logs": [
        {
          "address": "0xd925c84b55e4e44a53749ff5f2a5a13f63d128fd",
          "topics": [
            "0xeb8377c150d1438121333afa2027232605a400b1208ae6f9cfa156438e453f6d",
            "0x000000000000000000000000866a2bf4e572cbcf37d5071a7a58503bfb36be1b",
            "0x0000000000000000000000000000000000000000000000000000000000002714",
            "0x000000000000000000000000437cc33344a0b27a429f795ff6b469c72698b291"
          ],
          "data": "0x0000000000000000000000000000000000000000000000000000000000000001",
          "blockHash": "0xd1358e847f5bf320bf5e06adcd125893ea6616b10d82c3ddb5829b6435d62a90",
          "blockNumber": "0x9160ba",
          "blockTimestamp": "0x69043458",
          "transactionHash": "0x22f4d264acd57a8b154d82912b9146bd2abd041636743d98c59bafe980c16934",
          "transactionIndex": "0x24",
          "logIndex": "0x37",
          "removed": false
        }
      ],
      "logsBloom": "0x0020000800000a000000002000000000000000000000000000000000000000000000000000000000000000000000000000000000000000000000000000000000800000000000000000000000000000000000000000024000000000000000000000000000000000000000000000000000000000000000000100000000000000000000000000000000000000000040000000000000000000000000000000000000000000000000000000000000008000000000000000020000000000000000080000000000000400000000000000000000000000000000000000000000000000200000000000000000000000000000000000000000000000000000000000000000",
      "type": "0x2",
      "transactionHash": "0x22f4d264acd57a8b154d82912b9146bd2abd041636743d98c59bafe980c16934",
      "transactionIndex": "0x24",
      "blockHash": "0xd1358e847f5bf320bf5e06adcd125893ea6616b10d82c3ddb5829b6435d62a90",
      "blockNumber": "0x9160ba",
      "gasUsed": "0xd34f",
      "effectiveGasPrice": "0xf4248",
      "from": "0xf2f1acbe0ba726fee8d75f3e32900526874740bb",
      "to": "0xd925c84b55e4e44a53749ff5f2a5a13f63d128fd",
      "contractAddress": null
    },
    {
      "status": "0x1",
      "cumulativeGasUsed": "0x4f2a58",
      "logs": [
        {
          "address": "0xd925c84b55e4e44a53749ff5f2a5a13f63d128fd",
          "topics": [
            "0xeb8377c150d1438121333afa2027232605a400b1208ae6f9cfa156438e453f6d",
            "0x000000000000000000000000437cc33344a0b27a429f795ff6b469c72698b291",
            "0x0000000000000000000000000000000000000000000000000000000000002714",
            "0x000000000000000000000000866a2bf4e572cbcf37d5071a7a58503bfb36be1b"
          ],
          "data": "0x0000000000000000000000000000000000000000000000000000000000000001",
          "blockHash": "0xf61905cf68cd033c5083da2589948d0979af8c9f9cb1ababff5944ca547211be",
          "blockNumber": "0x9160bb",
          "blockTimestamp": "0x69043464",
          "transactionHash": "0xef8d7a7b660799c4e40fd9ce8266b274d196292ed09f15ce24145fcb00f2703f",
          "transactionIndex": "0x3b",
          "logIndex": "0x65",
          "removed": false
        }
      ],
      "logsBloom": "0x0020000800000a000000002000000000000000000000000000000000000000000000000000000000000000000000000000000000000000000000000000000000800000000000000000000000000000000000000000024000000000000000000000000000000000000000000000000000000000000000000100000000000000000000000000000000000000000040000000000000000000000000000000000000000000000000000000000000008000000000000000020000000000000000080000000000000400000000000000000000000000000000000000000000000000200000000000000000000000000000000000000000000000000000000000000000",
      "type": "0x2",
      "transactionHash": "0xef8d7a7b660799c4e40fd9ce8266b274d196292ed09f15ce24145fcb00f2703f",
      "transactionIndex": "0x3b",
      "blockHash": "0xf61905cf68cd033c5083da2589948d0979af8c9f9cb1ababff5944ca547211be",
      "blockNumber": "0x9160bb",
      "gasUsed": "0xd34f",
      "effectiveGasPrice": "0xf4248",
      "from": "0xf2f1acbe0ba726fee8d75f3e32900526874740bb",
      "to": "0xd925c84b55e4e44a53749ff5f2a5a13f63d128fd",
      "contractAddress": null
    },
    {
      "status": "0x1",
      "cumulativeGasUsed": "0x5c616c",
      "logs": [
        {
          "address": "0xd925c84b55e4e44a53749ff5f2a5a13f63d128fd",
          "topics": [
            "0xeb8377c150d1438121333afa2027232605a400b1208ae6f9cfa156438e453f6d",
            "0x000000000000000000000000437cc33344a0b27a429f795ff6b469c72698b291",
            "0x0000000000000000000000000000000000000000000000000000000000002714",
            "0x000000000000000000000000437cc33344a0b27a429f795ff6b469c72698b291"
          ],
          "data": "0x0000000000000000000000000000000000000000000000000000000000000001",
          "blockHash": "0x47cdc21c0f80cdbd736d8e7e7b3c7e507bc242c9a54cd41254ec42dcc031941d",
          "blockNumber": "0x9160bc",
          "blockTimestamp": "0x69043470",
          "transactionHash": "0x9a1f791ad1b2c389da6516c872a34aef2296515c4db5ec8d0669568c6276dda4",
          "transactionIndex": "0x79",
          "logIndex": "0x48",
          "removed": false
        }
      ],
      "logsBloom": "0x0020000800000a000000002000000000000000000000000000000000000000000000000000000000000000000000000000000000000000000000000000000000800000000000000000000000000000000000000000024000000000000000000000000000000000000000000000000000000000000000000000000000000000000000000000000000000000000000000000000000000000000000000000000000000000000000000000000000008000000000000000020000000000000000080000000000000000000000000000000000000000000000000000000000000000200000000000000000000000000000000000000000000000000000000000000000",
      "type": "0x2",
      "transactionHash": "0x9a1f791ad1b2c389da6516c872a34aef2296515c4db5ec8d0669568c6276dda4",
      "transactionIndex": "0x79",
      "blockHash": "0x47cdc21c0f80cdbd736d8e7e7b3c7e507bc242c9a54cd41254ec42dcc031941d",
      "blockNumber": "0x9160bc",
      "gasUsed": "0xd34f",
      "effectiveGasPrice": "0xf4248",
      "from": "0xf2f1acbe0ba726fee8d75f3e32900526874740bb",
      "to": "0xd925c84b55e4e44a53749ff5f2a5a13f63d128fd",
      "contractAddress": null
    },
    {
      "status": "0x1",
      "cumulativeGasUsed": "0x9b3b96",
      "logs": [
        {
          "address": "0x0763196a091575adf99e2306e5e90e0be5154841",
          "topics": [
            "0x528b18a533e892b5401d1fb63597275df9d2bb45b13e7695c3147cd07b9746c3"
          ],
          "data": "0x00000000000000000000000000000000000000000000000000000000000027140000000000000000000000000000000000000000000000000000000000000001",
          "blockHash": "0xeaa83222283a85c951d05ecaaa35c920a77fdebcc713d27062dc85c681878edb",
          "blockNumber": "0x9160bd",
          "blockTimestamp": "0x6904347c",
          "transactionHash": "0x68a3251d1337ec68bee757705e4f42b8e29aefe94f59a0c21b81e20d6a006156",
          "transactionIndex": "0x2f",
          "logIndex": "0x43",
          "removed": false
        }
      ],
      "logsBloom": "0x00000000000000000000000000000000000000000000000000000000000080000000000000400000000000000000000000000000000000000000000000000000000000000000000000000000800000000000000000000000000000000001000000000000000000001000000000000000000000000000000000000000000000000000000000000000000000000000000000000000000000000000000000000000002000000000000000000000000000000000000000000000000000000000000000000000000000000000000000000000000000000000000000000000000000000000000000000000000000000000000000000000000000000000000000000000",
      "type": "0x2",
      "transactionHash": "0x68a3251d1337ec68bee757705e4f42b8e29aefe94f59a0c21b81e20d6a006156",
      "transactionIndex": "0x2f",
      "blockHash": "0xeaa83222283a85c951d05ecaaa35c920a77fdebcc713d27062dc85c681878edb",
      "blockNumber": "0x9160bd",
      "gasUsed": "0xccc2",
      "effectiveGasPrice": "0xf4248",
      "from": "0xf2f1acbe0ba726fee8d75f3e32900526874740bb",
      "to": "0x0763196a091575adf99e2306e5e90e0be5154841",
      "contractAddress": null
    },
    {
      "status": "0x1",
      "cumulativeGasUsed": "0x89b782",
      "logs": [
        {
          "address": "0x4a8bc80ed5a4067f1ccf107057b8270e0cc11a78",
          "topics": [
            "0x6eb224fb001ed210e379b335e35efe88672a8ce935d981a6896b27ffdf52a3b2",
            "0x0000000000000000000000000763196a091575adf99e2306e5e90e0be5154841"
          ],
          "data": "0x00000000000000000000000000000000000000000000000000000000000009c10000000000000000000000000000000000000000000000000000000000000000000000000000000000000000000000000000000000000000000000000000008000000000000000000000000000000000000000000000000000000000000000c8000000000000000000000000000000000000000000000000000000000000002618fc67c227140000000000000000000000000763196a091575adf99e2306e5e90e0be51548410000000000000000000000000000000000000000000000000000",
          "blockHash": "0xfcaeb5de3f90aa07e3ba963c11c16fefd64a685575cccfb2e62b9abf7dfefdc2",
          "blockNumber": "0x9160be",
          "blockTimestamp": "0x69043488",
          "transactionHash": "0x16e3a6370d24fd61c37e1e82e2368f2b4f6efd96f02511b94a4304fc888e45e4",
          "transactionIndex": "0x3d",
          "logIndex": "0x68",
          "removed": false
        },
        {
          "address": "0x0763196a091575adf99e2306e5e90e0be5154841",
          "topics": [
            "0xa559263ee060c7a2560843b3a064ff0376c9753ae3e2449b595a3b615d326466"
          ],
          "data": "0x00000000000000000000000000000000000000000000000000000000000027140000000000000000000000000763196a091575adf99e2306e5e90e0be5154841",
          "blockHash": "0xfcaeb5de3f90aa07e3ba963c11c16fefd64a685575cccfb2e62b9abf7dfefdc2",
          "blockNumber": "0x9160be",
          "blockTimestamp": "0x69043488",
          "transactionHash": "0x16e3a6370d24fd61c37e1e82e2368f2b4f6efd96f02511b94a4304fc888e45e4",
          "transactionIndex": "0x3d",
          "logIndex": "0x69",
          "removed": false
        }
      ],
      "logsBloom": "0x00000000000100000000000000000010000000000000000000000000000000000010000000000000000000000010000000000000000000000000000000000000000000000000000000000000000000000000000100000000000000000101000000000000000000001000000000000000000000000000000000000000000000000000000000000000000000000000000000000000000000000000100000000000002000000400000000000000000000000000004000000000000000008000000000000000000000000000000000000000000000000000000000000000000000000000000000000000210000000000000000000000000000000000000000000000",
      "type": "0x2",
      "transactionHash": "0x16e3a6370d24fd61c37e1e82e2368f2b4f6efd96f02511b94a4304fc888e45e4",
      "transactionIndex": "0x3d",
      "blockHash": "0xfcaeb5de3f90aa07e3ba963c11c16fefd64a685575cccfb2e62b9abf7dfefdc2",
      "blockNumber": "0x9160be",
      "gasUsed": "0x12ed4",
      "effectiveGasPrice": "0xf4248",
      "from": "0xf2f1acbe0ba726fee8d75f3e32900526874740bb",
      "to": "0x0763196a091575adf99e2306e5e90e0be5154841",
      "contractAddress": null
    },
    {
      "status": "0x1",
      "cumulativeGasUsed": "0xec76a9",
      "logs": [
        {
          "address": "0x0763196a091575adf99e2306e5e90e0be5154841",
          "topics": [
            "0x4add57d97a7bf5035340ea1212aeeb3d4d3887eb1faf3821a8224c3a6956a10c"
          ],
          "data": "0x00000000000000000000000000000000000000000000000000000000000027140000000000000000000000000000000000000000000000000000000000000001",
          "blockHash": "0xd526d574cb8e8d88ceb46928ef0fa8e25ce4280f69d842623eeedea634813615",
          "blockNumber": "0x9160bf",
          "blockTimestamp": "0x69043494",
          "transactionHash": "0xf2590a6c3d9f28b0cc5407d22e7534edd01590abdcdadff56179eb1fbf6f19f5",
          "transactionIndex": "0x50",
          "logIndex": "0xae",
          "removed": false
        }
      ],
      "logsBloom": "0x00000000000000080000000000000000000000000000000000000000000000000000000000000000000000000000000000000000000000000000000000000000000000000000000000000000000000000000000000000000000000000001000000000000000000001000000000000000000000000000000000000080000000000000000000000000000000000000000000000000000000000000000000000000002000000000000000000000000000000000000000000000000000000000000000000000000000000000000000000000000000000000000000000000000000000000000000000000000000000000000000000040000000000000000000000000",
      "type": "0x2",
      "transactionHash": "0xf2590a6c3d9f28b0cc5407d22e7534edd01590abdcdadff56179eb1fbf6f19f5",
      "transactionIndex": "0x50",
      "blockHash": "0xd526d574cb8e8d88ceb46928ef0fa8e25ce4280f69d842623eeedea634813615",
      "blockNumber": "0x9160bf",
      "gasUsed": "0xcde0",
      "effectiveGasPrice": "0xf4248",
      "from": "0xf2f1acbe0ba726fee8d75f3e32900526874740bb",
      "to": "0x0763196a091575adf99e2306e5e90e0be5154841",
      "contractAddress": null
    }
  ],
  "libraries": [],
  "pending": [],
  "returns": {},
  "timestamp": 1761883285,
  "chain": 11155111,
  "commit": "2573ad2"
}
