{
  "transactions": [
    {
      "hash": "0x988f50568d2a2986a29b326da31877170e045e539c38931cddc45b9b96407f37",
      "transactionType": "CALL",
      "contractName": null,
      "contractAddress": "0xd925c84b55e4e44a53749ff5f2a5a13f63d128fd",
      "function": "setPeer(uint16,bytes32,uint8,uint256)",
      "arguments": [
        "1",
        "0x0b86ec181cd4c5c984e9062b13f2b2de7b9f5b5e68e84349231d6614cdf3f99f",
        "6",
        "0"
      ],
      "transaction": {
        "from": "0xf2f1acbe0ba726fee8d75f3e32900526874740bb",
        "to": "0xd925c84b55e4e44a53749ff5f2a5a13f63d128fd",
        "gas": "0x1b214",
        "value": "0x0",
        "input": "0x7c91863400000000000000000000000000000000000000000000000000000000000000010b86ec181cd4c5c984e9062b13f2b2de7b9f5b5e68e84349231d6614cdf3f99f00000000000000000000000000000000000000000000000000000000000000060000000000000000000000000000000000000000000000000000000000000000",
        "nonce": "0x4f",
        "chainId": "0xaa36a7"
      },
      "additionalContracts": [],
      "isFixedGasLimit": false
    },
    {
      "hash": "0x865787e47f854c8cc8db69b89bf66d1aaabe3a4ddf0f5074d6058e40c762a9db",
      "transactionType": "CALL",
      "contractName": null,
      "contractAddress": "0xd925c84b55e4e44a53749ff5f2a5a13f63d128fd",
      "function": "setDestinationMToken(uint16,bytes32)",
      "arguments": [
        "1",
        "0x0b86be66bfceb4c1d7e927bcc4d014be0f2863ab9df85fda610851b64dbd0ae5"
      ],
      "transaction": {
        "from": "0xf2f1acbe0ba726fee8d75f3e32900526874740bb",
        "to": "0xd925c84b55e4e44a53749ff5f2a5a13f63d128fd",
        "gas": "0x12ee3",
        "value": "0x0",
        "input": "0x76a4a53900000000000000000000000000000000000000000000000000000000000000010b86be66bfceb4c1d7e927bcc4d014be0f2863ab9df85fda610851b64dbd0ae5",
        "nonce": "0x50",
        "chainId": "0xaa36a7"
      },
      "additionalContracts": [],
      "isFixedGasLimit": false
    },
    {
      "hash": "0xa22f5e91c9be327b6f2e093ff583267f6383ea469155dfe7c14d2342f509af98",
      "transactionType": "CALL",
      "contractName": null,
      "contractAddress": "0xd925c84b55e4e44a53749ff5f2a5a13f63d128fd",
      "function": "setSupportedBridgingPath(address,uint16,bytes32,bool)",
      "arguments": [
        "0x866A2BF4E572CbcF37D5071A7a58503Bfb36be1b",
        "1",
        "0x0b86be66bfceb4c1d7e927bcc4d014be0f2863ab9df85fda610851b64dbd0ae5",
        "true"
      ],
      "transaction": {
        "from": "0xf2f1acbe0ba726fee8d75f3e32900526874740bb",
        "to": "0xd925c84b55e4e44a53749ff5f2a5a13f63d128fd",
        "gas": "0x135ca",
        "value": "0x0",
        "input": "0x1482cb4a000000000000000000000000866a2bf4e572cbcf37d5071a7a58503bfb36be1b00000000000000000000000000000000000000000000000000000000000000010b86be66bfceb4c1d7e927bcc4d014be0f2863ab9df85fda610851b64dbd0ae50000000000000000000000000000000000000000000000000000000000000001",
        "nonce": "0x51",
        "chainId": "0xaa36a7"
      },
      "additionalContracts": [],
      "isFixedGasLimit": false
    },
    {
      "hash": "0x151ead18b86f8c573aaac557c7c473d0561478cb0b8a7ef2a67f58cff2121409",
      "transactionType": "CALL",
      "contractName": null,
      "contractAddress": "0xd925c84b55e4e44a53749ff5f2a5a13f63d128fd",
      "function": "setSupportedBridgingPath(address,uint16,bytes32,bool)",
      "arguments": [
        "0x437cc33344a0B27A429f795ff6B469C72698B291",
        "1",
        "0x0b86be66bfceb4c1d7e927bcc4d014be0f2863ab9df85fda610851b64dbd0ae5",
        "true"
      ],
      "transaction": {
        "from": "0xf2f1acbe0ba726fee8d75f3e32900526874740bb",
        "to": "0xd925c84b55e4e44a53749ff5f2a5a13f63d128fd",
        "gas": "0x135ca",
        "value": "0x0",
        "input": "0x1482cb4a000000000000000000000000437cc33344a0b27a429f795ff6b469c72698b29100000000000000000000000000000000000000000000000000000000000000010b86be66bfceb4c1d7e927bcc4d014be0f2863ab9df85fda610851b64dbd0ae50000000000000000000000000000000000000000000000000000000000000001",
        "nonce": "0x52",
        "chainId": "0xaa36a7"
      },
      "additionalContracts": [],
      "isFixedGasLimit": false
    },
    {
      "hash": "0xf64b593b42bac873c7744050f0b816891ca73595dd70f46bba7bb3e02a3a8d87",
      "transactionType": "CALL",
      "contractName": "ERC1967Proxy",
      "contractAddress": "0x0763196a091575adf99e2306e5e90e0be5154841",
      "function": null,
      "arguments": null,
      "transaction": {
        "from": "0xf2f1acbe0ba726fee8d75f3e32900526874740bb",
        "to": "0x0763196a091575adf99e2306e5e90e0be5154841",
        "gas": "0x11a66",
        "value": "0x0",
        "input": "0x4b795b2100000000000000000000000000000000000000000000000000000000000000010000000000000000000000000000000000000000000000000000000000000001",
        "nonce": "0x53",
        "chainId": "0xaa36a7"
      },
      "additionalContracts": [],
      "isFixedGasLimit": false
    },
    {
      "hash": "0x35a35d21947e32741e118a66f93c420bfed1e5c5fe5821274a1f64c5f3538b5e",
      "transactionType": "CALL",
      "contractName": "ERC1967Proxy",
      "contractAddress": "0x0763196a091575adf99e2306e5e90e0be5154841",
      "function": null,
      "arguments": null,
      "transaction": {
        "from": "0xf2f1acbe0ba726fee8d75f3e32900526874740bb",
        "to": "0x0763196a091575adf99e2306e5e90e0be5154841",
        "gas": "0x1a30e",
        "value": "0x0",
        "input": "0x7ab5640300000000000000000000000000000000000000000000000000000000000000010b86ec181cd4c5c984e9062b13f2b2de7b9f5b5e68e84349231d6614cdf3f99f",
        "nonce": "0x54",
        "chainId": "0xaa36a7"
      },
      "additionalContracts": [],
      "isFixedGasLimit": false
    }
  ],
  "receipts": [
    {
      "status": "0x1",
      "cumulativeGasUsed": "0xcd4163",
      "logs": [
        {
          "address": "0xd925c84b55e4e44a53749ff5f2a5a13f63d128fd",
          "topics": [
            "0x1456404e7f41f35c3daac941bb50bad417a66275c3040061b4287d787719599d",
            "0x0000000000000000000000000000000000000000000000000000000000000001"
          ],
          "data": "0x000000000000000000000000000000000000000000000000000000000000000000000000000000000000000000000000000000000000000000000000000000000b86ec181cd4c5c984e9062b13f2b2de7b9f5b5e68e84349231d6614cdf3f99f0000000000000000000000000000000000000000000000000000000000000006",
          "blockHash": "0x334b7d5c1a6740d2f8da5ae92d1a3ca600a4fb1ec8df8c70d599d83b8f338503",
          "blockNumber": "0x778580",
          "transactionHash": "0x988f50568d2a2986a29b326da31877170e045e539c38931cddc45b9b96407f37",
          "transactionIndex": "0x9d",
          "logIndex": "0xc6",
          "removed": false
        }
      ],
      "logsBloom": "0x00000000000000000000000000000000000000000000000000000000000000000000000000000000002000000000000000000000000000000000000000040000000000000000000000000000000000000000000000064000000000000000000000002000000000000000000000000000000000000000000000000000000000000000000000000000000008000000000000000000000000000000000000000000000000000000000000000000000000000000000000000000000000000000080000000000000000000000000000000000000000000000000000000000000040000000000000000000000000000000000000000000000000000000000000000000",
      "type": "0x2",
      "transactionHash": "0x988f50568d2a2986a29b326da31877170e045e539c38931cddc45b9b96407f37",
      "transactionIndex": "0x9d",
      "blockHash": "0x334b7d5c1a6740d2f8da5ae92d1a3ca600a4fb1ec8df8c70d599d83b8f338503",
      "blockNumber": "0x778580",
      "gasUsed": "0x13a44",
      "effectiveGasPrice": "0x4dda948b",
      "from": "0xf2f1acbe0ba726fee8d75f3e32900526874740bb",
      "to": "0xd925c84b55e4e44a53749ff5f2a5a13f63d128fd",
      "contractAddress": null
    },
    {
      "status": "0x1",
      "cumulativeGasUsed": "0x604268",
      "logs": [
        {
          "address": "0xd925c84b55e4e44a53749ff5f2a5a13f63d128fd",
          "topics": [
            "0xe6658eeba76934cef78dc5f420ee40406e4876e8d3e767f7b700c63daf1bf0ba",
            "0x0000000000000000000000000000000000000000000000000000000000000001"
          ],
          "data": "0x0b86be66bfceb4c1d7e927bcc4d014be0f2863ab9df85fda610851b64dbd0ae5",
          "blockHash": "0xf69528302ff7147644c9571242f33e09280733f80328bc088b40434f23771241",
          "blockNumber": "0x778581",
          "transactionHash": "0x865787e47f854c8cc8db69b89bf66d1aaabe3a4ddf0f5074d6058e40c762a9db",
          "transactionIndex": "0x56",
          "logIndex": "0x5e",
          "removed": false
        }
      ],
      "logsBloom": "0x00000000000000000000000000000000000000000000000000000000000000000000000000000000000000000000000000000000000000000000000000040000000000000000000000000000002000000000000000064000000000000000000000000000000000000000000000000000000000000000000000000000000000000000000000000000000000000000000000000000000000000000000000000000000080000000000000000000000000000000000000000000000000000000080000000000000020000000000000000000000000000000000000000000000040000000000000000000000000000000000000000000000000000000000000000000",
      "type": "0x2",
      "transactionHash": "0x865787e47f854c8cc8db69b89bf66d1aaabe3a4ddf0f5074d6058e40c762a9db",
      "transactionIndex": "0x56",
      "blockHash": "0xf69528302ff7147644c9571242f33e09280733f80328bc088b40434f23771241",
      "blockNumber": "0x778581",
      "gasUsed": "0xcf1b",
      "effectiveGasPrice": "0x4b95c1ac",
      "from": "0xf2f1acbe0ba726fee8d75f3e32900526874740bb",
      "to": "0xd925c84b55e4e44a53749ff5f2a5a13f63d128fd",
      "contractAddress": null
    },
    {
      "status": "0x1",
      "cumulativeGasUsed": "0x96dedf",
      "logs": [
        {
          "address": "0xd925c84b55e4e44a53749ff5f2a5a13f63d128fd",
          "topics": [
            "0xeb8377c150d1438121333afa2027232605a400b1208ae6f9cfa156438e453f6d",
            "0x000000000000000000000000866a2bf4e572cbcf37d5071a7a58503bfb36be1b",
            "0x0000000000000000000000000000000000000000000000000000000000000001",
            "0x0b86be66bfceb4c1d7e927bcc4d014be0f2863ab9df85fda610851b64dbd0ae5"
          ],
          "data": "0x0000000000000000000000000000000000000000000000000000000000000001",
          "blockHash": "0x1792e0a4d45d581ba81eca31bd22f33c9fc98cd962597ae41039a87883f5e506",
          "blockNumber": "0x778582",
          "transactionHash": "0xa22f5e91c9be327b6f2e093ff583267f6383ea469155dfe7c14d2342f509af98",
          "transactionIndex": "0x81",
          "logIndex": "0x8e",
          "removed": false
        }
      ],
      "logsBloom": "0x00000008000000000000000000000000000000000001000000000000000000000000000000000000000000000000000000200000000000000000000000040000800000000000000000000000000000000000000000064000000000000000000000000000000000000000000000000000000000000000000100000000000000000000000000000000000000000040000000000000000000000000000000000000000000000000000000000000008000000000000000000000000000000000080000000000000400000000000001000000000000000000000000000000000040000000000000000000000000000000000000000000000000000000000000000000",
      "type": "0x2",
      "transactionHash": "0xa22f5e91c9be327b6f2e093ff583267f6383ea469155dfe7c14d2342f509af98",
      "transactionIndex": "0x81",
      "blockHash": "0x1792e0a4d45d581ba81eca31bd22f33c9fc98cd962597ae41039a87883f5e506",
      "blockNumber": "0x778582",
      "gasUsed": "0xd3d3",
      "effectiveGasPrice": "0x468d9b60",
      "from": "0xf2f1acbe0ba726fee8d75f3e32900526874740bb",
      "to": "0xd925c84b55e4e44a53749ff5f2a5a13f63d128fd",
      "contractAddress": null
    },
    {
      "status": "0x1",
      "cumulativeGasUsed": "0xa41a98",
      "logs": [
        {
          "address": "0xd925c84b55e4e44a53749ff5f2a5a13f63d128fd",
          "topics": [
            "0xeb8377c150d1438121333afa2027232605a400b1208ae6f9cfa156438e453f6d",
            "0x000000000000000000000000437cc33344a0b27a429f795ff6b469c72698b291",
            "0x0000000000000000000000000000000000000000000000000000000000000001",
            "0x0b86be66bfceb4c1d7e927bcc4d014be0f2863ab9df85fda610851b64dbd0ae5"
          ],
          "data": "0x0000000000000000000000000000000000000000000000000000000000000001",
          "blockHash": "0xef76e5e357ae639b8d26be5766bf80efc1ae14bf33cf2fe160390b15d25293ea",
          "blockNumber": "0x778583",
          "transactionHash": "0x151ead18b86f8c573aaac557c7c473d0561478cb0b8a7ef2a67f58cff2121409",
          "transactionIndex": "0x8e",
          "logIndex": "0x9c",
          "removed": false
        }
      ],
      "logsBloom": "0x00000008000002000000000000000000000000000001000000000000000000000000000000000000000000000000000000200000000000000000000000040000800000000000000000000000000000000000000000064000000000000000000000000000000000000000000000000000000000000000000000000000000000000000000000000000000000000000000000000000000000000000000000000000000000000000000000000000008000000000000000020000000000000000080000000000000000000000000001000000000000000000000000000000000040200000000000000000000000000000000000000000000000000000000000000000",
      "type": "0x2",
      "transactionHash": "0x151ead18b86f8c573aaac557c7c473d0561478cb0b8a7ef2a67f58cff2121409",
      "transactionIndex": "0x8e",
      "blockHash": "0xef76e5e357ae639b8d26be5766bf80efc1ae14bf33cf2fe160390b15d25293ea",
      "blockNumber": "0x778583",
      "gasUsed": "0xd3d3",
      "effectiveGasPrice": "0x46e2645a",
      "from": "0xf2f1acbe0ba726fee8d75f3e32900526874740bb",
      "to": "0xd925c84b55e4e44a53749ff5f2a5a13f63d128fd",
      "contractAddress": null
    },
    {
      "status": "0x1",
      "cumulativeGasUsed": "0xab0b75",
      "logs": [
        {
          "address": "0x0763196a091575adf99e2306e5e90e0be5154841",
          "topics": [
            "0x0fe301480713b2c2072ee91b3bcfcbf2c0014f0447c89046f020f0f80727003c"
          ],
          "data": "0x00000000000000000000000000000000000000000000000000000000000000010000000000000000000000000000000000000000000000000000000000000001",
          "blockHash": "0xb0e908d254eabfc6d2c6ec745998e2e464fffeb256e7293aefc8eb4d8d122c67",
          "blockNumber": "0x778584",
          "transactionHash": "0xf64b593b42bac873c7744050f0b816891ca73595dd70f46bba7bb3e02a3a8d87",
          "transactionIndex": "0x8a",
          "logIndex": "0x9b",
          "removed": false
        }
      ],
      "logsBloom": "0x00000000000000000000000000000000000000000000000000000000000000000000000000000000000000000000000000000000000000000000000000000000000000000000000000000000000000000000000000000000000000000001000000000000000000001000000000000000000000000000000000000000000000000000000000000000000000001000000000000000000000000000000000000000002002000000000000000000000000000000000000000000000000000000000000000000000000000000000000000000000000000000000000000000000000000000000000000000000000000000000000000000000000000000000400000000",
      "type": "0x2",
      "transactionHash": "0xf64b593b42bac873c7744050f0b816891ca73595dd70f46bba7bb3e02a3a8d87",
      "transactionIndex": "0x8a",
      "blockHash": "0xb0e908d254eabfc6d2c6ec745998e2e464fffeb256e7293aefc8eb4d8d122c67",
      "blockNumber": "0x778584",
      "gasUsed": "0xcc74",
      "effectiveGasPrice": "0x4712001e",
      "from": "0xf2f1acbe0ba726fee8d75f3e32900526874740bb",
      "to": "0x0763196a091575adf99e2306e5e90e0be5154841",
      "contractAddress": null
    },
    {
      "status": "0x1",
      "cumulativeGasUsed": "0x10ebf0a",
      "logs": [
        {
          "address": "0x4a8bc80ed5a4067f1ccf107057b8270e0cc11a78",
          "topics": [
            "0x6eb224fb001ed210e379b335e35efe88672a8ce935d981a6896b27ffdf52a3b2",
            "0x0000000000000000000000000763196a091575adf99e2306e5e90e0be5154841"
          ],
          "data": "0x000000000000000000000000000000000000000000000000000000000000001b0000000000000000000000000000000000000000000000000000000000000000000000000000000000000000000000000000000000000000000000000000008000000000000000000000000000000000000000000000000000000000000000c8000000000000000000000000000000000000000000000000000000000000002618fc67c200010b86ec181cd4c5c984e9062b13f2b2de7b9f5b5e68e84349231d6614cdf3f99f0000000000000000000000000000000000000000000000000000",
          "blockHash": "0x775681253864f36ccc553d86212f2606f8ae53af449f1b3f8cab65d2b86960dd",
          "blockNumber": "0x778585",
          "transactionHash": "0x35a35d21947e32741e118a66f93c420bfed1e5c5fe5821274a1f64c5f3538b5e",
          "transactionIndex": "0xa8",
          "logIndex": "0xa5",
          "removed": false
        },
        {
          "address": "0x0763196a091575adf99e2306e5e90e0be5154841",
          "topics": [
            "0xa559263ee060c7a2560843b3a064ff0376c9753ae3e2449b595a3b615d326466"
          ],
          "data": "0x00000000000000000000000000000000000000000000000000000000000000010b86ec181cd4c5c984e9062b13f2b2de7b9f5b5e68e84349231d6614cdf3f99f",
          "blockHash": "0x775681253864f36ccc553d86212f2606f8ae53af449f1b3f8cab65d2b86960dd",
          "blockNumber": "0x778585",
          "transactionHash": "0x35a35d21947e32741e118a66f93c420bfed1e5c5fe5821274a1f64c5f3538b5e",
          "transactionIndex": "0xa8",
          "logIndex": "0xa6",
          "removed": false
        }
      ],
      "logsBloom": "0x00000000000100000000000000000010000000000000000000000000000000000010000000000000000000000010000000000000000000000000000000000000000000000000000000000000000000000000000100000000000000000101000000000000000000001000000000000000000000000000000000000000000000000000000000000000000000000000000000000000000000000000100000000000002000000400000000000000000000000000004000000000000000008000000000000000000000000000000000000000000000000000000000000000000000000000000000000000210000000000000000000000000000000000000000000000",
      "type": "0x2",
      "transactionHash": "0x35a35d21947e32741e118a66f93c420bfed1e5c5fe5821274a1f64c5f3538b5e",
      "transactionIndex": "0xa8",
      "blockHash": "0x775681253864f36ccc553d86212f2606f8ae53af449f1b3f8cab65d2b86960dd",
      "blockNumber": "0x778585",
      "gasUsed": "0x12f64",
      "effectiveGasPrice": "0x44f24fc3",
      "from": "0xf2f1acbe0ba726fee8d75f3e32900526874740bb",
      "to": "0x0763196a091575adf99e2306e5e90e0be5154841",
      "contractAddress": null
    }
  ],
  "libraries": [],
  "pending": [],
  "returns": {},
  "timestamp": 1741116230,
  "chain": 11155111,
  "commit": "d30de18"
}
