{
  "transactions": [
    {
      "hash": "0xd40c7985ab4b1a1b1d68fe621ddb5696f9e194aa2b516961abacb5e622be990c",
      "transactionType": "CALL",
      "contractName": null,
      "contractAddress": "0xb1725758f7255b025cdbf2814bc428b403623562",
      "function": "setIsWormholeRelayingEnabled(uint16,bool)",
      "arguments": ["10003", "true"],
      "transaction": {
        "from": "0xc68d74f5a99a2c1f3e3625e1d69919e2b77ac7d2",
        "to": "0xb1725758f7255b025cdbf2814bc428b403623562",
        "gas": "0x12b75",
        "value": "0x0",
        "input": "0x657b3b2f00000000000000000000000000000000000000000000000000000000000027130000000000000000000000000000000000000000000000000000000000000001",
        "nonce": "0x9",
        "chainId": "0xaa36a7"
      },
      "additionalContracts": [],
      "isFixedGasLimit": false
    },
    {
      "hash": "0x7f5c7ee937d49617d03804045628068ce51be697c5cca079ee472e383683a794",
      "transactionType": "CALL",
      "contractName": null,
      "contractAddress": "0xb1725758f7255b025cdbf2814bc428b403623562",
      "function": "setWormholePeer(uint16,bytes32)",
      "arguments": [
        "10003",
        "0x000000000000000000000000b1725758f7255b025cdbf2814bc428b403623562"
      ],
      "transaction": {
        "from": "0xc68d74f5a99a2c1f3e3625e1d69919e2b77ac7d2",
        "to": "0xb1725758f7255b025cdbf2814bc428b403623562",
        "gas": "0x1a258",
        "value": "0x0",
        "input": "0x7ab564030000000000000000000000000000000000000000000000000000000000002713000000000000000000000000b1725758f7255b025cdbf2814bc428b403623562",
        "nonce": "0xa",
        "chainId": "0xaa36a7"
      },
      "additionalContracts": [],
      "isFixedGasLimit": false
    },
    {
      "hash": "0x542b183bed06663b664bb576d1c4158b22d3a776238db813d3bcf209dd87456c",
      "transactionType": "CALL",
      "contractName": null,
      "contractAddress": "0xb1725758f7255b025cdbf2814bc428b403623562",
      "function": "setIsWormholeEvmChain(uint16,bool)",
      "arguments": ["10003", "true"],
      "transaction": {
        "from": "0xc68d74f5a99a2c1f3e3625e1d69919e2b77ac7d2",
        "to": "0xb1725758f7255b025cdbf2814bc428b403623562",
        "gas": "0x11c5d",
        "value": "0x0",
        "input": "0x96dddc6300000000000000000000000000000000000000000000000000000000000027130000000000000000000000000000000000000000000000000000000000000001",
        "nonce": "0xb",
        "chainId": "0xaa36a7"
      },
      "additionalContracts": [],
      "isFixedGasLimit": false
    },
    {
      "hash": "0xbf6be33807caf67d109fccccc4d2ce3e5fd23c8e5b77f9a87ca91a00d8781eee",
      "transactionType": "CALL",
      "contractName": null,
      "contractAddress": "0xb1725758f7255b025cdbf2814bc428b403623562",
      "function": "setIsWormholeRelayingEnabled(uint16,bool)",
      "arguments": ["10005", "true"],
      "transaction": {
        "from": "0xc68d74f5a99a2c1f3e3625e1d69919e2b77ac7d2",
        "to": "0xb1725758f7255b025cdbf2814bc428b403623562",
        "gas": "0x12b75",
        "value": "0x0",
        "input": "0x657b3b2f00000000000000000000000000000000000000000000000000000000000027150000000000000000000000000000000000000000000000000000000000000001",
        "nonce": "0xc",
        "chainId": "0xaa36a7"
      },
      "additionalContracts": [],
      "isFixedGasLimit": false
    },
    {
      "hash": "0x6c9cf94be7a705f03100b576545dd65f73d99ccaf8afa975f1c889a68517d2a5",
      "transactionType": "CALL",
      "contractName": null,
      "contractAddress": "0xb1725758f7255b025cdbf2814bc428b403623562",
      "function": "setWormholePeer(uint16,bytes32)",
      "arguments": [
        "10005",
        "0x000000000000000000000000b1725758f7255b025cdbf2814bc428b403623562"
      ],
      "transaction": {
        "from": "0xc68d74f5a99a2c1f3e3625e1d69919e2b77ac7d2",
        "to": "0xb1725758f7255b025cdbf2814bc428b403623562",
        "gas": "0x1a258",
        "value": "0x0",
        "input": "0x7ab564030000000000000000000000000000000000000000000000000000000000002715000000000000000000000000b1725758f7255b025cdbf2814bc428b403623562",
        "nonce": "0xd",
        "chainId": "0xaa36a7"
      },
      "additionalContracts": [],
      "isFixedGasLimit": false
    },
    {
      "hash": "0x84e31fb41156757791a0081859ef412266b34267082f44379c984c5340972cef",
      "transactionType": "CALL",
      "contractName": null,
      "contractAddress": "0xb1725758f7255b025cdbf2814bc428b403623562",
      "function": "setIsWormholeEvmChain(uint16,bool)",
      "arguments": ["10005", "true"],
      "transaction": {
        "from": "0xc68d74f5a99a2c1f3e3625e1d69919e2b77ac7d2",
        "to": "0xb1725758f7255b025cdbf2814bc428b403623562",
        "gas": "0x11c5d",
        "value": "0x0",
        "input": "0x96dddc6300000000000000000000000000000000000000000000000000000000000027150000000000000000000000000000000000000000000000000000000000000001",
        "nonce": "0xe",
        "chainId": "0xaa36a7"
      },
      "additionalContracts": [],
      "isFixedGasLimit": false
    },
    {
      "hash": "0x4a2f8f1bed9c5b046e5c1ab4caa8957f69b5474f72e96787af28ec59344aaf10",
      "transactionType": "CALL",
      "contractName": null,
      "contractAddress": "0xf1669804140fa31cdaa805a1b3be91e6282d5e41",
      "function": "setPeer(uint16,bytes32,uint8,uint256)",
      "arguments": [
        "10003",
        "0x000000000000000000000000f1669804140fa31cdaa805a1b3be91e6282d5e41",
        "6",
        "0"
      ],
      "transaction": {
        "from": "0xc68d74f5a99a2c1f3e3625e1d69919e2b77ac7d2",
        "to": "0xf1669804140fa31cdaa805a1b3be91e6282d5e41",
        "gas": "0x1cade",
        "value": "0x0",
        "input": "0x7c9186340000000000000000000000000000000000000000000000000000000000002713000000000000000000000000f1669804140fa31cdaa805a1b3be91e6282d5e4100000000000000000000000000000000000000000000000000000000000000060000000000000000000000000000000000000000000000000000000000000000",
        "nonce": "0xf",
        "chainId": "0xaa36a7"
      },
      "additionalContracts": [],
      "isFixedGasLimit": false
    },
    {
      "hash": "0xf596243ea31e5aa94d520482209017395f50d6ee35599c7e15b9fe7e0564cfc9",
      "transactionType": "CALL",
      "contractName": null,
      "contractAddress": "0xf1669804140fa31cdaa805a1b3be91e6282d5e41",
      "function": "setDestinationMToken(uint16,bytes32)",
      "arguments": [
        "10003",
        "0x00000000000000000000000058582438ab47ffa2206570ac93e85b42640bef09"
      ],
      "transaction": {
        "from": "0xc68d74f5a99a2c1f3e3625e1d69919e2b77ac7d2",
        "to": "0xf1669804140fa31cdaa805a1b3be91e6282d5e41",
        "gas": "0x11d59",
        "value": "0x0",
        "input": "0x76a4a539000000000000000000000000000000000000000000000000000000000000271300000000000000000000000058582438ab47ffa2206570ac93e85b42640bef09",
        "nonce": "0x10",
        "chainId": "0xaa36a7"
      },
      "additionalContracts": [],
      "isFixedGasLimit": false
    },
    {
      "hash": "0xe6c09dc2b4544690458ff697af2dddf76b0ab79683bfc2886f5608ebd3d395f7",
      "transactionType": "CALL",
      "contractName": null,
      "contractAddress": "0xf1669804140fa31cdaa805a1b3be91e6282d5e41",
      "function": "setSupportedBridgingPath(address,uint16,bytes32,bool)",
      "arguments": [
        "0x245902cAB620E32DF09DA4a26094064e096dd480",
        "10003",
        "0x00000000000000000000000058582438ab47ffa2206570ac93e85b42640bef09",
        "true"
      ],
      "transaction": {
        "from": "0xc68d74f5a99a2c1f3e3625e1d69919e2b77ac7d2",
        "to": "0xf1669804140fa31cdaa805a1b3be91e6282d5e41",
        "gas": "0x123dd",
        "value": "0x0",
        "input": "0x1482cb4a000000000000000000000000245902cab620e32df09da4a26094064e096dd480000000000000000000000000000000000000000000000000000000000000271300000000000000000000000058582438ab47ffa2206570ac93e85b42640bef090000000000000000000000000000000000000000000000000000000000000001",
        "nonce": "0x11",
        "chainId": "0xaa36a7"
      },
      "additionalContracts": [],
      "isFixedGasLimit": false
    },
    {
      "hash": "0x3c50a7d6867c57430049162e5c8c5847f81927b8c66006c37479538b1dee58c0",
      "transactionType": "CALL",
      "contractName": null,
      "contractAddress": "0xf1669804140fa31cdaa805a1b3be91e6282d5e41",
      "function": "setSupportedBridgingPath(address,uint16,bytes32,bool)",
      "arguments": [
        "0xe91A93a2B782781744a07118bab5855fb256b881",
        "10003",
        "0x00000000000000000000000058582438ab47ffa2206570ac93e85b42640bef09",
        "true"
      ],
      "transaction": {
        "from": "0xc68d74f5a99a2c1f3e3625e1d69919e2b77ac7d2",
        "to": "0xf1669804140fa31cdaa805a1b3be91e6282d5e41",
        "gas": "0x123dd",
        "value": "0x0",
        "input": "0x1482cb4a000000000000000000000000e91a93a2b782781744a07118bab5855fb256b881000000000000000000000000000000000000000000000000000000000000271300000000000000000000000058582438ab47ffa2206570ac93e85b42640bef090000000000000000000000000000000000000000000000000000000000000001",
        "nonce": "0x12",
        "chainId": "0xaa36a7"
      },
      "additionalContracts": [],
      "isFixedGasLimit": false
    },
    {
      "hash": "0x1329da02d9b795538e747c168579f9553c7bd53f81a876f40f6c2e5664bad0a4",
      "transactionType": "CALL",
      "contractName": null,
      "contractAddress": "0xf1669804140fa31cdaa805a1b3be91e6282d5e41",
      "function": "setSupportedBridgingPath(address,uint16,bytes32,bool)",
      "arguments": [
        "0x245902cAB620E32DF09DA4a26094064e096dd480",
        "10003",
        "0x00000000000000000000000071c72ee9f587dac1df749940c7581e4bbc789f85",
        "true"
      ],
      "transaction": {
        "from": "0xc68d74f5a99a2c1f3e3625e1d69919e2b77ac7d2",
        "to": "0xf1669804140fa31cdaa805a1b3be91e6282d5e41",
        "gas": "0x123dd",
        "value": "0x0",
        "input": "0x1482cb4a000000000000000000000000245902cab620e32df09da4a26094064e096dd480000000000000000000000000000000000000000000000000000000000000271300000000000000000000000071c72ee9f587dac1df749940c7581e4bbc789f850000000000000000000000000000000000000000000000000000000000000001",
        "nonce": "0x13",
        "chainId": "0xaa36a7"
      },
      "additionalContracts": [],
      "isFixedGasLimit": false
    },
    {
      "hash": "0x50e119d3d1249571042fa643ba3a59e0b4350909a3f7b1345bc62bc829ccaae3",
      "transactionType": "CALL",
      "contractName": null,
      "contractAddress": "0xf1669804140fa31cdaa805a1b3be91e6282d5e41",
      "function": "setSupportedBridgingPath(address,uint16,bytes32,bool)",
      "arguments": [
        "0xe91A93a2B782781744a07118bab5855fb256b881",
        "10003",
        "0x00000000000000000000000071c72ee9f587dac1df749940c7581e4bbc789f85",
        "true"
      ],
      "transaction": {
        "from": "0xc68d74f5a99a2c1f3e3625e1d69919e2b77ac7d2",
        "to": "0xf1669804140fa31cdaa805a1b3be91e6282d5e41",
        "gas": "0x123dd",
        "value": "0x0",
        "input": "0x1482cb4a000000000000000000000000e91a93a2b782781744a07118bab5855fb256b881000000000000000000000000000000000000000000000000000000000000271300000000000000000000000071c72ee9f587dac1df749940c7581e4bbc789f850000000000000000000000000000000000000000000000000000000000000001",
        "nonce": "0x14",
        "chainId": "0xaa36a7"
      },
      "additionalContracts": [],
      "isFixedGasLimit": false
    },
    {
      "hash": "0xb3e02912dcd3cf07ea424f05bc35694a4c1ea573e67666c81fdfe4b801e225d0",
      "transactionType": "CALL",
      "contractName": null,
      "contractAddress": "0xf1669804140fa31cdaa805a1b3be91e6282d5e41",
      "function": "setPeer(uint16,bytes32,uint8,uint256)",
      "arguments": [
        "10005",
        "0x000000000000000000000000f1669804140fa31cdaa805a1b3be91e6282d5e41",
        "6",
        "0"
      ],
      "transaction": {
        "from": "0xc68d74f5a99a2c1f3e3625e1d69919e2b77ac7d2",
        "to": "0xf1669804140fa31cdaa805a1b3be91e6282d5e41",
        "gas": "0x1cade",
        "value": "0x0",
        "input": "0x7c9186340000000000000000000000000000000000000000000000000000000000002715000000000000000000000000f1669804140fa31cdaa805a1b3be91e6282d5e4100000000000000000000000000000000000000000000000000000000000000060000000000000000000000000000000000000000000000000000000000000000",
        "nonce": "0x15",
        "chainId": "0xaa36a7"
      },
      "additionalContracts": [],
      "isFixedGasLimit": false
    },
    {
      "hash": "0x003329feae94d2caf957b4668d79e927af2378415056e7e500373ee7c724ddcc",
      "transactionType": "CALL",
      "contractName": null,
      "contractAddress": "0xf1669804140fa31cdaa805a1b3be91e6282d5e41",
      "function": "setDestinationMToken(uint16,bytes32)",
      "arguments": [
        "10005",
        "0x00000000000000000000000058582438ab47ffa2206570ac93e85b42640bef09"
      ],
      "transaction": {
        "from": "0xc68d74f5a99a2c1f3e3625e1d69919e2b77ac7d2",
        "to": "0xf1669804140fa31cdaa805a1b3be91e6282d5e41",
        "gas": "0x11d59",
        "value": "0x0",
        "input": "0x76a4a539000000000000000000000000000000000000000000000000000000000000271500000000000000000000000058582438ab47ffa2206570ac93e85b42640bef09",
        "nonce": "0x16",
        "chainId": "0xaa36a7"
      },
      "additionalContracts": [],
      "isFixedGasLimit": false
    },
    {
      "hash": "0x5733275fb6d4d31b193c8a235d39906a0c06c6cf45c09ea048d11e020cd6a28f",
      "transactionType": "CALL",
      "contractName": null,
      "contractAddress": "0xf1669804140fa31cdaa805a1b3be91e6282d5e41",
      "function": "setSupportedBridgingPath(address,uint16,bytes32,bool)",
      "arguments": [
        "0x245902cAB620E32DF09DA4a26094064e096dd480",
        "10005",
        "0x00000000000000000000000058582438ab47ffa2206570ac93e85b42640bef09",
        "true"
      ],
      "transaction": {
        "from": "0xc68d74f5a99a2c1f3e3625e1d69919e2b77ac7d2",
        "to": "0xf1669804140fa31cdaa805a1b3be91e6282d5e41",
        "gas": "0x123dd",
        "value": "0x0",
        "input": "0x1482cb4a000000000000000000000000245902cab620e32df09da4a26094064e096dd480000000000000000000000000000000000000000000000000000000000000271500000000000000000000000058582438ab47ffa2206570ac93e85b42640bef090000000000000000000000000000000000000000000000000000000000000001",
        "nonce": "0x17",
        "chainId": "0xaa36a7"
      },
      "additionalContracts": [],
      "isFixedGasLimit": false
    },
    {
      "hash": "0xece7938e0e222658f55985e71d3989942fed5f72d7700dce4c00fcd18914bf8f",
      "transactionType": "CALL",
      "contractName": null,
      "contractAddress": "0xf1669804140fa31cdaa805a1b3be91e6282d5e41",
      "function": "setSupportedBridgingPath(address,uint16,bytes32,bool)",
      "arguments": [
        "0xe91A93a2B782781744a07118bab5855fb256b881",
        "10005",
        "0x00000000000000000000000058582438ab47ffa2206570ac93e85b42640bef09",
        "true"
      ],
      "transaction": {
        "from": "0xc68d74f5a99a2c1f3e3625e1d69919e2b77ac7d2",
        "to": "0xf1669804140fa31cdaa805a1b3be91e6282d5e41",
        "gas": "0x123dd",
        "value": "0x0",
        "input": "0x1482cb4a000000000000000000000000e91a93a2b782781744a07118bab5855fb256b881000000000000000000000000000000000000000000000000000000000000271500000000000000000000000058582438ab47ffa2206570ac93e85b42640bef090000000000000000000000000000000000000000000000000000000000000001",
        "nonce": "0x18",
        "chainId": "0xaa36a7"
      },
      "additionalContracts": [],
      "isFixedGasLimit": false
    },
    {
      "hash": "0x4dea645105e5fdd3af832f36117b6e35e55b6ebf4ff29e22d9da0053ef7fb510",
      "transactionType": "CALL",
      "contractName": null,
      "contractAddress": "0xf1669804140fa31cdaa805a1b3be91e6282d5e41",
      "function": "setSupportedBridgingPath(address,uint16,bytes32,bool)",
      "arguments": [
        "0x245902cAB620E32DF09DA4a26094064e096dd480",
        "10005",
        "0x00000000000000000000000071c72ee9f587dac1df749940c7581e4bbc789f85",
        "true"
      ],
      "transaction": {
        "from": "0xc68d74f5a99a2c1f3e3625e1d69919e2b77ac7d2",
        "to": "0xf1669804140fa31cdaa805a1b3be91e6282d5e41",
        "gas": "0x123dd",
        "value": "0x0",
        "input": "0x1482cb4a000000000000000000000000245902cab620e32df09da4a26094064e096dd480000000000000000000000000000000000000000000000000000000000000271500000000000000000000000071c72ee9f587dac1df749940c7581e4bbc789f850000000000000000000000000000000000000000000000000000000000000001",
        "nonce": "0x19",
        "chainId": "0xaa36a7"
      },
      "additionalContracts": [],
      "isFixedGasLimit": false
    },
    {
      "hash": "0x43f6491caf84bfbbcd5deb0e12254f40447270ea5ef167798d6e04bc9321a202",
      "transactionType": "CALL",
      "contractName": null,
      "contractAddress": "0xf1669804140fa31cdaa805a1b3be91e6282d5e41",
      "function": "setSupportedBridgingPath(address,uint16,bytes32,bool)",
      "arguments": [
        "0xe91A93a2B782781744a07118bab5855fb256b881",
        "10005",
        "0x00000000000000000000000071c72ee9f587dac1df749940c7581e4bbc789f85",
        "true"
      ],
      "transaction": {
        "from": "0xc68d74f5a99a2c1f3e3625e1d69919e2b77ac7d2",
        "to": "0xf1669804140fa31cdaa805a1b3be91e6282d5e41",
        "gas": "0x123dd",
        "value": "0x0",
        "input": "0x1482cb4a000000000000000000000000e91a93a2b782781744a07118bab5855fb256b881000000000000000000000000000000000000000000000000000000000000271500000000000000000000000071c72ee9f587dac1df749940c7581e4bbc789f850000000000000000000000000000000000000000000000000000000000000001",
        "nonce": "0x1a",
        "chainId": "0xaa36a7"
      },
      "additionalContracts": [],
      "isFixedGasLimit": false
    }
  ],
  "receipts": [
    {
      "status": "0x1",
      "cumulativeGasUsed": "0xbdac31",
      "logs": [
        {
          "address": "0xb1725758f7255b025cdbf2814bc428b403623562",
          "topics": [
            "0x528b18a533e892b5401d1fb63597275df9d2bb45b13e7695c3147cd07b9746c3"
          ],
          "data": "0x00000000000000000000000000000000000000000000000000000000000027130000000000000000000000000000000000000000000000000000000000000001",
          "blockHash": "0x348c83bfe45aa19302798afc3fd46ba533935a0f435d58de50a449bd1c32b3fa",
          "blockNumber": "0x74a25c",
          "transactionHash": "0xd40c7985ab4b1a1b1d68fe621ddb5696f9e194aa2b516961abacb5e622be990c",
          "transactionIndex": "0x79",
          "logIndex": "0xc4",
          "removed": false
        }
      ],
      "logsBloom": "0x00000000000000000000000000000000000000000000000000000000000080000000000000400000000000000000000000000000001000000000000000000000000000000000000000000000800000000000000000000000000000000000000000000010000000000000000000000000000000000000000000000000000000000000000000000000000000000000000000000000000000000000000000000000000000000000000000000000000000000000000000000000000000000000000000000000000000000000000000000000000000000000000000000000000000000000000000000000200000000000000000000000000000000000000000000000",
      "type": "0x2",
      "transactionHash": "0xd40c7985ab4b1a1b1d68fe621ddb5696f9e194aa2b516961abacb5e622be990c",
      "transactionIndex": "0x79",
      "blockHash": "0x348c83bfe45aa19302798afc3fd46ba533935a0f435d58de50a449bd1c32b3fa",
      "blockNumber": "0x74a25c",
      "gasUsed": "0xccc2",
      "effectiveGasPrice": "0x93c6fe822",
      "from": "0xc68d74f5a99a2c1f3e3625e1d69919e2b77ac7d2",
      "to": "0xb1725758f7255b025cdbf2814bc428b403623562",
      "contractAddress": null
    },
    {
      "status": "0x1",
      "cumulativeGasUsed": "0x11537c2",
      "logs": [
        {
          "address": "0x4a8bc80ed5a4067f1ccf107057b8270e0cc11a78",
          "topics": [
            "0x6eb224fb001ed210e379b335e35efe88672a8ce935d981a6896b27ffdf52a3b2",
            "0x000000000000000000000000b1725758f7255b025cdbf2814bc428b403623562"
          ],
          "data": "0x00000000000000000000000000000000000000000000000000000000000000010000000000000000000000000000000000000000000000000000000000000000000000000000000000000000000000000000000000000000000000000000008000000000000000000000000000000000000000000000000000000000000000c8000000000000000000000000000000000000000000000000000000000000002618fc67c22713000000000000000000000000b1725758f7255b025cdbf2814bc428b4036235620000000000000000000000000000000000000000000000000000",
          "blockHash": "0x38dfce2b581a9a9c6a0880d6d977a5b9de17a3831ae00690f1bfc27ed4040ff7",
          "blockNumber": "0x74a25d",
          "transactionHash": "0x7f5c7ee937d49617d03804045628068ce51be697c5cca079ee472e383683a794",
          "transactionIndex": "0x6a",
          "logIndex": "0x163",
          "removed": false
        },
        {
          "address": "0xb1725758f7255b025cdbf2814bc428b403623562",
          "topics": [
            "0xa559263ee060c7a2560843b3a064ff0376c9753ae3e2449b595a3b615d326466"
          ],
          "data": "0x0000000000000000000000000000000000000000000000000000000000002713000000000000000000000000b1725758f7255b025cdbf2814bc428b403623562",
          "blockHash": "0x38dfce2b581a9a9c6a0880d6d977a5b9de17a3831ae00690f1bfc27ed4040ff7",
          "blockNumber": "0x74a25d",
          "transactionHash": "0x7f5c7ee937d49617d03804045628068ce51be697c5cca079ee472e383683a794",
          "transactionIndex": "0x6a",
          "logIndex": "0x164",
          "removed": false
        }
      ],
      "logsBloom": "0x00000000000100000000000000000010000000000000000000000000000000000014000000000000000000000010000000000000001000000000000000000000000000000000000000000000000000000000000100000000000000000100000000000010000000000000000000000000000000000000000000000000000000000000000000000400000000000000000000000000000000000000100000000000000000000400000000000000000000010000000000000000000000000000000000000000000000000000000000000000000000000000000000000000000000000000000000000000210000000000000000000000000000000000000000000000",
      "type": "0x2",
      "transactionHash": "0x7f5c7ee937d49617d03804045628068ce51be697c5cca079ee472e383683a794",
      "transactionIndex": "0x6a",
      "blockHash": "0x38dfce2b581a9a9c6a0880d6d977a5b9de17a3831ae00690f1bfc27ed4040ff7",
      "blockNumber": "0x74a25d",
      "gasUsed": "0x12ee0",
      "effectiveGasPrice": "0x98e0999dd",
      "from": "0xc68d74f5a99a2c1f3e3625e1d69919e2b77ac7d2",
      "to": "0xb1725758f7255b025cdbf2814bc428b403623562",
      "contractAddress": null
    },
    {
      "status": "0x1",
      "cumulativeGasUsed": "0xea7965",
      "logs": [
        {
          "address": "0xb1725758f7255b025cdbf2814bc428b403623562",
          "topics": [
            "0x4add57d97a7bf5035340ea1212aeeb3d4d3887eb1faf3821a8224c3a6956a10c"
          ],
          "data": "0x00000000000000000000000000000000000000000000000000000000000027130000000000000000000000000000000000000000000000000000000000000001",
          "blockHash": "0xff41c1e21604890907f545be1649ce8d4e6967c82c715298b5e3a9b196cc0383",
          "blockNumber": "0x74a25f",
          "transactionHash": "0x542b183bed06663b664bb576d1c4158b22d3a776238db813d3bcf209dd87456c",
          "transactionIndex": "0x96",
          "logIndex": "0x106",
          "removed": false
        }
      ],
      "logsBloom": "0x00000000000000080000000000000000000000000000000000000000000000000000000000000000000000000000000000000000001000000000000000000000000000000000000000000000000000000000000000000000000000000000000000000010000000000000000000000000000000000000000000000080000000000000000000000000000000000000000000000000000000000000000000000000000000000000000000000000000000000000000000000000000000000000000000000000000000000000000000000000000000000000000000000000000000000000000000000000200000000000000000000040000000000000000000000000",
      "type": "0x2",
      "transactionHash": "0x542b183bed06663b664bb576d1c4158b22d3a776238db813d3bcf209dd87456c",
      "transactionIndex": "0x96",
      "blockHash": "0xff41c1e21604890907f545be1649ce8d4e6967c82c715298b5e3a9b196cc0383",
      "blockNumber": "0x74a25f",
      "gasUsed": "0xcde0",
      "effectiveGasPrice": "0x8e4836c4d",
      "from": "0xc68d74f5a99a2c1f3e3625e1d69919e2b77ac7d2",
      "to": "0xb1725758f7255b025cdbf2814bc428b403623562",
      "contractAddress": null
    },
    {
      "status": "0x1",
      "cumulativeGasUsed": "0x12ee583",
      "logs": [
        {
          "address": "0xb1725758f7255b025cdbf2814bc428b403623562",
          "topics": [
            "0x528b18a533e892b5401d1fb63597275df9d2bb45b13e7695c3147cd07b9746c3"
          ],
          "data": "0x00000000000000000000000000000000000000000000000000000000000027150000000000000000000000000000000000000000000000000000000000000001",
          "blockHash": "0xaa59a913860a6c24dbd64bc097c914bd86f79f083353ca9bf56ef7d472c56cfd",
          "blockNumber": "0x74a260",
          "transactionHash": "0xbf6be33807caf67d109fccccc4d2ce3e5fd23c8e5b77f9a87ca91a00d8781eee",
          "transactionIndex": "0x74",
          "logIndex": "0x18a",
          "removed": false
        }
      ],
      "logsBloom": "0x00000000000000000000000000000000000000000000000000000000000080000000000000400000000000000000000000000000001000000000000000000000000000000000000000000000800000000000000000000000000000000000000000000010000000000000000000000000000000000000000000000000000000000000000000000000000000000000000000000000000000000000000000000000000000000000000000000000000000000000000000000000000000000000000000000000000000000000000000000000000000000000000000000000000000000000000000000000200000000000000000000000000000000000000000000000",
      "type": "0x2",
      "transactionHash": "0xbf6be33807caf67d109fccccc4d2ce3e5fd23c8e5b77f9a87ca91a00d8781eee",
      "transactionIndex": "0x74",
      "blockHash": "0xaa59a913860a6c24dbd64bc097c914bd86f79f083353ca9bf56ef7d472c56cfd",
      "blockNumber": "0x74a260",
      "gasUsed": "0xccc2",
      "effectiveGasPrice": "0x8fa70b668",
      "from": "0xc68d74f5a99a2c1f3e3625e1d69919e2b77ac7d2",
      "to": "0xb1725758f7255b025cdbf2814bc428b403623562",
      "contractAddress": null
    },
    {
      "status": "0x1",
      "cumulativeGasUsed": "0xe012cf",
      "logs": [
        {
          "address": "0x4a8bc80ed5a4067f1ccf107057b8270e0cc11a78",
          "topics": [
            "0x6eb224fb001ed210e379b335e35efe88672a8ce935d981a6896b27ffdf52a3b2",
            "0x000000000000000000000000b1725758f7255b025cdbf2814bc428b403623562"
          ],
          "data": "0x00000000000000000000000000000000000000000000000000000000000000020000000000000000000000000000000000000000000000000000000000000000000000000000000000000000000000000000000000000000000000000000008000000000000000000000000000000000000000000000000000000000000000c8000000000000000000000000000000000000000000000000000000000000002618fc67c22715000000000000000000000000b1725758f7255b025cdbf2814bc428b4036235620000000000000000000000000000000000000000000000000000",
          "blockHash": "0xfc55d1f7d1d42f918aa0859abd582b18414f2c74d757bcff79c2a6a133cccd67",
          "blockNumber": "0x74a261",
          "transactionHash": "0x6c9cf94be7a705f03100b576545dd65f73d99ccaf8afa975f1c889a68517d2a5",
          "transactionIndex": "0x8f",
          "logIndex": "0xde",
          "removed": false
        },
        {
          "address": "0xb1725758f7255b025cdbf2814bc428b403623562",
          "topics": [
            "0xa559263ee060c7a2560843b3a064ff0376c9753ae3e2449b595a3b615d326466"
          ],
          "data": "0x0000000000000000000000000000000000000000000000000000000000002715000000000000000000000000b1725758f7255b025cdbf2814bc428b403623562",
          "blockHash": "0xfc55d1f7d1d42f918aa0859abd582b18414f2c74d757bcff79c2a6a133cccd67",
          "blockNumber": "0x74a261",
          "transactionHash": "0x6c9cf94be7a705f03100b576545dd65f73d99ccaf8afa975f1c889a68517d2a5",
          "transactionIndex": "0x8f",
          "logIndex": "0xdf",
          "removed": false
        }
      ],
      "logsBloom": "0x00000000000100000000000000000010000000000000000000000000000000000014000000000000000000000010000000000000001000000000000000000000000000000000000000000000000000000000000100000000000000000100000000000010000000000000000000000000000000000000000000000000000000000000000000000400000000000000000000000000000000000000100000000000000000000400000000000000000000010000000000000000000000000000000000000000000000000000000000000000000000000000000000000000000000000000000000000000210000000000000000000000000000000000000000000000",
      "type": "0x2",
      "transactionHash": "0x6c9cf94be7a705f03100b576545dd65f73d99ccaf8afa975f1c889a68517d2a5",
      "transactionIndex": "0x8f",
      "blockHash": "0xfc55d1f7d1d42f918aa0859abd582b18414f2c74d757bcff79c2a6a133cccd67",
      "blockNumber": "0x74a261",
      "gasUsed": "0x12ee0",
      "effectiveGasPrice": "0x926d7aa67",
      "from": "0xc68d74f5a99a2c1f3e3625e1d69919e2b77ac7d2",
      "to": "0xb1725758f7255b025cdbf2814bc428b403623562",
      "contractAddress": null
    },
    {
      "status": "0x1",
      "cumulativeGasUsed": "0x1b2fab5",
      "logs": [
        {
          "address": "0xb1725758f7255b025cdbf2814bc428b403623562",
          "topics": [
            "0x4add57d97a7bf5035340ea1212aeeb3d4d3887eb1faf3821a8224c3a6956a10c"
          ],
          "data": "0x00000000000000000000000000000000000000000000000000000000000027150000000000000000000000000000000000000000000000000000000000000001",
          "blockHash": "0x9687872bca00b3dddda86d26f66a2e9719814aca1e8056408720f2219edf499e",
          "blockNumber": "0x74a262",
          "transactionHash": "0x84e31fb41156757791a0081859ef412266b34267082f44379c984c5340972cef",
          "transactionIndex": "0xdd",
          "logIndex": "0x1e3",
          "removed": false
        }
      ],
      "logsBloom": "0x00000000000000080000000000000000000000000000000000000000000000000000000000000000000000000000000000000000001000000000000000000000000000000000000000000000000000000000000000000000000000000000000000000010000000000000000000000000000000000000000000000080000000000000000000000000000000000000000000000000000000000000000000000000000000000000000000000000000000000000000000000000000000000000000000000000000000000000000000000000000000000000000000000000000000000000000000000000200000000000000000000040000000000000000000000000",
      "type": "0x2",
      "transactionHash": "0x84e31fb41156757791a0081859ef412266b34267082f44379c984c5340972cef",
      "transactionIndex": "0xdd",
      "blockHash": "0x9687872bca00b3dddda86d26f66a2e9719814aca1e8056408720f2219edf499e",
      "blockNumber": "0x74a262",
      "gasUsed": "0xcde0",
      "effectiveGasPrice": "0x9084721a8",
      "from": "0xc68d74f5a99a2c1f3e3625e1d69919e2b77ac7d2",
      "to": "0xb1725758f7255b025cdbf2814bc428b403623562",
      "contractAddress": null
    },
    {
      "status": "0x1",
      "cumulativeGasUsed": "0x13e0213",
      "logs": [
        {
          "address": "0xf1669804140fa31cdaa805a1b3be91e6282d5e41",
          "topics": [
            "0x1456404e7f41f35c3daac941bb50bad417a66275c3040061b4287d787719599d",
            "0x0000000000000000000000000000000000000000000000000000000000002713"
          ],
          "data": "0x00000000000000000000000000000000000000000000000000000000000000000000000000000000000000000000000000000000000000000000000000000000000000000000000000000000f1669804140fa31cdaa805a1b3be91e6282d5e410000000000000000000000000000000000000000000000000000000000000006",
          "blockHash": "0x939c427ce1bdf599bfb4b52c6ebd8ff75306603969b88472fed75f3e597d46b1",
          "blockNumber": "0x74a263",
          "transactionHash": "0x4a2f8f1bed9c5b046e5c1ab4caa8957f69b5474f72e96787af28ec59344aaf10",
          "transactionIndex": "0x8d",
          "logIndex": "0x16a",
          "removed": false
        }
      ],
      "logsBloom": "0x00000000000080000000000000000000000000000000000000000040000000000100000000000000002000000000000000000000000000000000000000000000000000000000000000000000000000100000000000000000000000000000000000002000000000000000000000000000000000000000000000000000000000000000000000000000000008000000000000000000000000000000000000000000000000000000000000000000000000000000000000000000000000000000000000000000000000000000000000000000000000000000000000000000000000000000000000000000000000000000000000010000000000000080000000000000",
      "type": "0x2",
      "transactionHash": "0x4a2f8f1bed9c5b046e5c1ab4caa8957f69b5474f72e96787af28ec59344aaf10",
      "transactionIndex": "0x8d",
      "blockHash": "0x939c427ce1bdf599bfb4b52c6ebd8ff75306603969b88472fed75f3e597d46b1",
      "blockNumber": "0x74a263",
      "gasUsed": "0x139c2",
      "effectiveGasPrice": "0xa230ecc9c",
      "from": "0xc68d74f5a99a2c1f3e3625e1d69919e2b77ac7d2",
      "to": "0xf1669804140fa31cdaa805a1b3be91e6282d5e41",
      "contractAddress": null
    },
    {
      "status": "0x1",
      "cumulativeGasUsed": "0xeea9fa",
      "logs": [
        {
          "address": "0xf1669804140fa31cdaa805a1b3be91e6282d5e41",
          "topics": [
            "0xe6658eeba76934cef78dc5f420ee40406e4876e8d3e767f7b700c63daf1bf0ba",
            "0x0000000000000000000000000000000000000000000000000000000000002713"
          ],
          "data": "0x00000000000000000000000058582438ab47ffa2206570ac93e85b42640bef09",
          "blockHash": "0x4a8345a6710a70fcc503ee1ce2cd5d136fbde5156558f0f0090f23aab4b5dfc4",
          "blockNumber": "0x74a264",
          "transactionHash": "0xf596243ea31e5aa94d520482209017395f50d6ee35599c7e15b9fe7e0564cfc9",
          "transactionIndex": "0x57",
          "logIndex": "0x10e",
          "removed": false
        }
      ],
      "logsBloom": "0x00000000000080000000000000000000000000000000000000000040000000000100000000000000000000000000000000000000000000000000000000000000000000000000000000000000002000100000000000000000000000000000000000000000000000000000000000000000000000000000000000000000000000000000000000000000000000000000000000000000000000000000000000000000000080000000000000000000000000000000000000000000000000000000000000000000000020000000000000000000000000000000000000000000000000000000000000000000000000000000000000010000000000000080000000000000",
      "type": "0x2",
      "transactionHash": "0xf596243ea31e5aa94d520482209017395f50d6ee35599c7e15b9fe7e0564cfc9",
      "transactionIndex": "0x57",
      "blockHash": "0x4a8345a6710a70fcc503ee1ce2cd5d136fbde5156558f0f0090f23aab4b5dfc4",
      "blockNumber": "0x74a264",
      "gasUsed": "0xce97",
      "effectiveGasPrice": "0xaeac00639",
      "from": "0xc68d74f5a99a2c1f3e3625e1d69919e2b77ac7d2",
      "to": "0xf1669804140fa31cdaa805a1b3be91e6282d5e41",
      "contractAddress": null
    },
    {
      "status": "0x1",
      "cumulativeGasUsed": "0x7e1262",
      "logs": [
        {
          "address": "0xf1669804140fa31cdaa805a1b3be91e6282d5e41",
          "topics": [
            "0xeb8377c150d1438121333afa2027232605a400b1208ae6f9cfa156438e453f6d",
            "0x000000000000000000000000245902cab620e32df09da4a26094064e096dd480",
            "0x0000000000000000000000000000000000000000000000000000000000002713",
            "0x00000000000000000000000058582438ab47ffa2206570ac93e85b42640bef09"
          ],
          "data": "0x0000000000000000000000000000000000000000000000000000000000000001",
          "blockHash": "0x236275fc0d5c2e9f2f524cdb86efde39d2f81106373a7db49d1eb89c628c6176",
          "blockNumber": "0x74a265",
          "transactionHash": "0xe6c09dc2b4544690458ff697af2dddf76b0ab79683bfc2886f5608ebd3d395f7",
          "transactionIndex": "0x5e",
          "logIndex": "0x92",
          "removed": false
        }
      ],
      "logsBloom": "0x00000008000080000000000000000000000000000000000000000040000000000100000000000008000000000000000000000000000000000000000000000000808000000000000000000000000004100000000000000000000000000000000000000000000010000000000000000000000000000000000000000000000000000000000000000000000000000000000000000000000000000000000000000000000000000000000000000000008000000000000200000000000000000000000000000000000000000000000000000000000000000000000000000000000000000000000000000000000000001000000000010000000000000080000000000000",
      "type": "0x2",
      "transactionHash": "0xe6c09dc2b4544690458ff697af2dddf76b0ab79683bfc2886f5608ebd3d395f7",
      "transactionIndex": "0x5e",
      "blockHash": "0x236275fc0d5c2e9f2f524cdb86efde39d2f81106373a7db49d1eb89c628c6176",
      "blockNumber": "0x74a265",
      "gasUsed": "0xd34f",
      "effectiveGasPrice": "0xb4d0f62c9",
      "from": "0xc68d74f5a99a2c1f3e3625e1d69919e2b77ac7d2",
      "to": "0xf1669804140fa31cdaa805a1b3be91e6282d5e41",
      "contractAddress": null
    },
    {
      "status": "0x1",
      "cumulativeGasUsed": "0xd7837a",
      "logs": [
        {
          "address": "0xf1669804140fa31cdaa805a1b3be91e6282d5e41",
          "topics": [
            "0xeb8377c150d1438121333afa2027232605a400b1208ae6f9cfa156438e453f6d",
            "0x000000000000000000000000e91a93a2b782781744a07118bab5855fb256b881",
            "0x0000000000000000000000000000000000000000000000000000000000002713",
            "0x00000000000000000000000058582438ab47ffa2206570ac93e85b42640bef09"
          ],
          "data": "0x0000000000000000000000000000000000000000000000000000000000000001",
          "blockHash": "0x02ad11d1eacf4ec7e771c61d9966aee6883406a597554c0f1d2edee5f30f7aa6",
          "blockNumber": "0x74a266",
          "transactionHash": "0x3c50a7d6867c57430049162e5c8c5847f81927b8c66006c37479538b1dee58c0",
          "transactionIndex": "0x79",
          "logIndex": "0xd0",
          "removed": false
        }
      ],
      "logsBloom": "0x00000008000080000000000000000000000000000000000000000040000000000100000000200000000000000000000000000000000000000000000000000000808000000000000000000000000004100000000000100000000000000000000000000000000000000000000000000000000000000000000000000000000004000000000000000000000000000000000000000000000000000000000000000000000000000000000000000000008000000000000200000000000000000000000000000000000000000000000000000000000000000000000000000000000000000000000000000000000000000000000000010000000000000080000000000000",
      "type": "0x2",
      "transactionHash": "0x3c50a7d6867c57430049162e5c8c5847f81927b8c66006c37479538b1dee58c0",
      "transactionIndex": "0x79",
      "blockHash": "0x02ad11d1eacf4ec7e771c61d9966aee6883406a597554c0f1d2edee5f30f7aa6",
      "blockNumber": "0x74a266",
      "gasUsed": "0xd34f",
      "effectiveGasPrice": "0xaa21db21f",
      "from": "0xc68d74f5a99a2c1f3e3625e1d69919e2b77ac7d2",
      "to": "0xf1669804140fa31cdaa805a1b3be91e6282d5e41",
      "contractAddress": null
    },
    {
      "status": "0x1",
      "cumulativeGasUsed": "0xe2d777",
      "logs": [
        {
          "address": "0xf1669804140fa31cdaa805a1b3be91e6282d5e41",
          "topics": [
            "0xeb8377c150d1438121333afa2027232605a400b1208ae6f9cfa156438e453f6d",
            "0x000000000000000000000000245902cab620e32df09da4a26094064e096dd480",
            "0x0000000000000000000000000000000000000000000000000000000000002713",
            "0x00000000000000000000000071c72ee9f587dac1df749940c7581e4bbc789f85"
          ],
          "data": "0x0000000000000000000000000000000000000000000000000000000000000001",
          "blockHash": "0x6e4ef054453cfd725183209813d32a62ae0c283438c2f205142f567f9f43c433",
          "blockNumber": "0x74a267",
          "transactionHash": "0x1329da02d9b795538e747c168579f9553c7bd53f81a876f40f6c2e5664bad0a4",
          "transactionIndex": "0x51",
          "logIndex": "0x13d",
          "removed": false
        }
      ],
      "logsBloom": "0x00000008000080000000000000000000000000000000000000000040000000000100000000000008000000000000000000000000000000000000000000000000800000000000000000000000000000100000000000000000000000000000000000000000000010000000000000000000000000000000000000000000000000000000000001000000000000000000000000000000000000000000000000000000000000000000000000000000008000000000000000000000000010000000000000000000000000000000000000000000000000000000000000000000000000000000000000000000000000001000400000010000000000000080000000000000",
      "type": "0x2",
      "transactionHash": "0x1329da02d9b795538e747c168579f9553c7bd53f81a876f40f6c2e5664bad0a4",
      "transactionIndex": "0x51",
      "blockHash": "0x6e4ef054453cfd725183209813d32a62ae0c283438c2f205142f567f9f43c433",
      "blockNumber": "0x74a267",
      "gasUsed": "0xd34f",
      "effectiveGasPrice": "0xa80d3b426",
      "from": "0xc68d74f5a99a2c1f3e3625e1d69919e2b77ac7d2",
      "to": "0xf1669804140fa31cdaa805a1b3be91e6282d5e41",
      "contractAddress": null
    },
    {
      "status": "0x1",
      "cumulativeGasUsed": "0xd8c85b",
      "logs": [
        {
          "address": "0xf1669804140fa31cdaa805a1b3be91e6282d5e41",
          "topics": [
            "0xeb8377c150d1438121333afa2027232605a400b1208ae6f9cfa156438e453f6d",
            "0x000000000000000000000000e91a93a2b782781744a07118bab5855fb256b881",
            "0x0000000000000000000000000000000000000000000000000000000000002713",
            "0x00000000000000000000000071c72ee9f587dac1df749940c7581e4bbc789f85"
          ],
          "data": "0x0000000000000000000000000000000000000000000000000000000000000001",
          "blockHash": "0x47f82e94087d0097e7eaefa0953978d035e7594941693bffbc4f7a65766202ef",
          "blockNumber": "0x74a268",
          "transactionHash": "0x50e119d3d1249571042fa643ba3a59e0b4350909a3f7b1345bc62bc829ccaae3",
          "transactionIndex": "0x6e",
          "logIndex": "0xa2",
          "removed": false
        }
      ],
      "logsBloom": "0x00000008000080000000000000000000000000000000000000000040000000000100000000200000000000000000000000000000000000000000000000000000800000000000000000000000000000100000000000100000000000000000000000000000000000000000000000000000000000000000000000000000000004000000000001000000000000000000000000000000000000000000000000000000000000000000000000000000008000000000000000000000000010000000000000000000000000000000000000000000000000000000000000000000000000000000000000000000000000000000400000010000000000000080000000000000",
      "type": "0x2",
      "transactionHash": "0x50e119d3d1249571042fa643ba3a59e0b4350909a3f7b1345bc62bc829ccaae3",
      "transactionIndex": "0x6e",
      "blockHash": "0x47f82e94087d0097e7eaefa0953978d035e7594941693bffbc4f7a65766202ef",
      "blockNumber": "0x74a268",
      "gasUsed": "0xd34f",
      "effectiveGasPrice": "0xa5cb0cecc",
      "from": "0xc68d74f5a99a2c1f3e3625e1d69919e2b77ac7d2",
      "to": "0xf1669804140fa31cdaa805a1b3be91e6282d5e41",
      "contractAddress": null
    },
    {
      "status": "0x1",
      "cumulativeGasUsed": "0xed0c69",
      "logs": [
        {
          "address": "0xf1669804140fa31cdaa805a1b3be91e6282d5e41",
          "topics": [
            "0x1456404e7f41f35c3daac941bb50bad417a66275c3040061b4287d787719599d",
            "0x0000000000000000000000000000000000000000000000000000000000002715"
          ],
          "data": "0x00000000000000000000000000000000000000000000000000000000000000000000000000000000000000000000000000000000000000000000000000000000000000000000000000000000f1669804140fa31cdaa805a1b3be91e6282d5e410000000000000000000000000000000000000000000000000000000000000006",
          "blockHash": "0x8e11643d789175b52bdbf35cb7c3f8a2177cea2de4cb0b93817659e0bbec4ea3",
          "blockNumber": "0x74a269",
          "transactionHash": "0xb3e02912dcd3cf07ea424f05bc35694a4c1ea573e67666c81fdfe4b801e225d0",
          "transactionIndex": "0x6b",
          "logIndex": "0x146",
          "removed": false
        }
      ],
      "logsBloom": "0x00000000000080000000000000000000000000000000000000000040010000000000800000000000002000000000000000000000000000000000000000000000000000000000000000000000000000000000000000000000000000000000000000002000000000000000000000000000000000000000000000000000000000000000000000000000000008000000000000000000000000000000000000000000000000000000000000000000000000000000000000000000000000000000000000000000000000000000000000000000000000000000000000000000000000000000000000000000000000000000008000000000000000000080000000000000",
      "type": "0x2",
      "transactionHash": "0xb3e02912dcd3cf07ea424f05bc35694a4c1ea573e67666c81fdfe4b801e225d0",
      "transactionIndex": "0x6b",
      "blockHash": "0x8e11643d789175b52bdbf35cb7c3f8a2177cea2de4cb0b93817659e0bbec4ea3",
      "blockNumber": "0x74a269",
      "gasUsed": "0x139c2",
      "effectiveGasPrice": "0xa37bc6bec",
      "from": "0xc68d74f5a99a2c1f3e3625e1d69919e2b77ac7d2",
      "to": "0xf1669804140fa31cdaa805a1b3be91e6282d5e41",
      "contractAddress": null
    },
    {
      "status": "0x1",
      "cumulativeGasUsed": "0x95c2aa",
      "logs": [
        {
          "address": "0xf1669804140fa31cdaa805a1b3be91e6282d5e41",
          "topics": [
            "0xe6658eeba76934cef78dc5f420ee40406e4876e8d3e767f7b700c63daf1bf0ba",
            "0x0000000000000000000000000000000000000000000000000000000000002715"
          ],
          "data": "0x00000000000000000000000058582438ab47ffa2206570ac93e85b42640bef09",
          "blockHash": "0x89462712eed6816d861d1784df1a2809ee01a878755c2fb1f43031c94d2d7a24",
          "blockNumber": "0x74a26a",
          "transactionHash": "0x003329feae94d2caf957b4668d79e927af2378415056e7e500373ee7c724ddcc",
          "transactionIndex": "0x77",
          "logIndex": "0xb4",
          "removed": false
        }
      ],
      "logsBloom": "0x00000000000080000000000000000000000000000000000000000040010000000000800000000000000000000000000000000000000000000000000000000000000000000000000000000000002000000000000000000000000000000000000000000000000000000000000000000000000000000000000000000000000000000000000000000000000000000000000000000000000000000000000000000000000080000000000000000000000000000000000000000000000000000000000000000000000020000000000000000000000000000000000000000000000000000000000000000000000000000000008000000000000000000080000000000000",
      "type": "0x2",
      "transactionHash": "0x003329feae94d2caf957b4668d79e927af2378415056e7e500373ee7c724ddcc",
      "transactionIndex": "0x77",
      "blockHash": "0x89462712eed6816d861d1784df1a2809ee01a878755c2fb1f43031c94d2d7a24",
      "blockNumber": "0x74a26a",
      "gasUsed": "0xce97",
      "effectiveGasPrice": "0xa5fabe60c",
      "from": "0xc68d74f5a99a2c1f3e3625e1d69919e2b77ac7d2",
      "to": "0xf1669804140fa31cdaa805a1b3be91e6282d5e41",
      "contractAddress": null
    },
    {
      "status": "0x1",
      "cumulativeGasUsed": "0x888a87",
      "logs": [
        {
          "address": "0xf1669804140fa31cdaa805a1b3be91e6282d5e41",
          "topics": [
            "0xeb8377c150d1438121333afa2027232605a400b1208ae6f9cfa156438e453f6d",
            "0x000000000000000000000000245902cab620e32df09da4a26094064e096dd480",
            "0x0000000000000000000000000000000000000000000000000000000000002715",
            "0x00000000000000000000000058582438ab47ffa2206570ac93e85b42640bef09"
          ],
          "data": "0x0000000000000000000000000000000000000000000000000000000000000001",
          "blockHash": "0x33626f60589c1d7a293ba3f46145093adb4df90b960d4fe93f1a704fb6ebf0cd",
          "blockNumber": "0x74a26b",
          "transactionHash": "0x5733275fb6d4d31b193c8a235d39906a0c06c6cf45c09ea048d11e020cd6a28f",
          "transactionIndex": "0x55",
          "logIndex": "0x90",
          "removed": false
        }
      ],
      "logsBloom": "0x00000008000080000000000000000000000000000000000000000040010000000000800000000008000000000000000000000000000000000000000000000000808000000000000000000000000004000000000000000000000000000000000000000000000010000000000000000000000000000000000000000000000000000000000000000000000000000000000000000000000000000000000000000000000000000000000000000000008000000000000200000000000000000000000000000000000000000000000000000000000000000000000000000000000000000000000000000000000000001000008000000000000000000080000000000000",
      "type": "0x2",
      "transactionHash": "0x5733275fb6d4d31b193c8a235d39906a0c06c6cf45c09ea048d11e020cd6a28f",
      "transactionIndex": "0x55",
      "blockHash": "0x33626f60589c1d7a293ba3f46145093adb4df90b960d4fe93f1a704fb6ebf0cd",
      "blockNumber": "0x74a26b",
      "gasUsed": "0xd34f",
      "effectiveGasPrice": "0xa03629a20",
      "from": "0xc68d74f5a99a2c1f3e3625e1d69919e2b77ac7d2",
      "to": "0xf1669804140fa31cdaa805a1b3be91e6282d5e41",
      "contractAddress": null
    },
    {
      "status": "0x1",
      "cumulativeGasUsed": "0x67acbf",
      "logs": [
        {
          "address": "0xf1669804140fa31cdaa805a1b3be91e6282d5e41",
          "topics": [
            "0xeb8377c150d1438121333afa2027232605a400b1208ae6f9cfa156438e453f6d",
            "0x000000000000000000000000e91a93a2b782781744a07118bab5855fb256b881",
            "0x0000000000000000000000000000000000000000000000000000000000002715",
            "0x00000000000000000000000058582438ab47ffa2206570ac93e85b42640bef09"
          ],
          "data": "0x0000000000000000000000000000000000000000000000000000000000000001",
          "blockHash": "0x02ff5f31f71bd26460971397f7aca058bf348a20f02f3f622dfd872d7bd407f8",
          "blockNumber": "0x74a26d",
          "transactionHash": "0xece7938e0e222658f55985e71d3989942fed5f72d7700dce4c00fcd18914bf8f",
          "transactionIndex": "0x58",
          "logIndex": "0x73",
          "removed": false
        }
      ],
      "logsBloom": "0x00000008000080000000000000000000000000000000000000000040010000000000800000200000000000000000000000000000000000000000000000000000808000000000000000000000000004000000000000100000000000000000000000000000000000000000000000000000000000000000000000000000000004000000000000000000000000000000000000000000000000000000000000000000000000000000000000000000008000000000000200000000000000000000000000000000000000000000000000000000000000000000000000000000000000000000000000000000000000000000008000000000000000000080000000000000",
      "type": "0x2",
      "transactionHash": "0xece7938e0e222658f55985e71d3989942fed5f72d7700dce4c00fcd18914bf8f",
      "transactionIndex": "0x58",
      "blockHash": "0x02ff5f31f71bd26460971397f7aca058bf348a20f02f3f622dfd872d7bd407f8",
      "blockNumber": "0x74a26d",
      "gasUsed": "0xd34f",
      "effectiveGasPrice": "0x93d074a5d",
      "from": "0xc68d74f5a99a2c1f3e3625e1d69919e2b77ac7d2",
      "to": "0xf1669804140fa31cdaa805a1b3be91e6282d5e41",
      "contractAddress": null
    },
    {
      "status": "0x1",
      "cumulativeGasUsed": "0xc9e682",
      "logs": [
        {
          "address": "0xf1669804140fa31cdaa805a1b3be91e6282d5e41",
          "topics": [
            "0xeb8377c150d1438121333afa2027232605a400b1208ae6f9cfa156438e453f6d",
            "0x000000000000000000000000245902cab620e32df09da4a26094064e096dd480",
            "0x0000000000000000000000000000000000000000000000000000000000002715",
            "0x00000000000000000000000071c72ee9f587dac1df749940c7581e4bbc789f85"
          ],
          "data": "0x0000000000000000000000000000000000000000000000000000000000000001",
          "blockHash": "0x9b09f9304999f532e8207921420333024e4a9f55d57c9f037d66816413030f6d",
          "blockNumber": "0x74a26e",
          "transactionHash": "0x4dea645105e5fdd3af832f36117b6e35e55b6ebf4ff29e22d9da0053ef7fb510",
          "transactionIndex": "0x4c",
          "logIndex": "0x89",
          "removed": false
        }
      ],
      "logsBloom": "0x00000008000080000000000000000000000000000000000000000040010000000000800000000008000000000000000000000000000000000000000000000000800000000000000000000000000000000000000000000000000000000000000000000000000010000000000000000000000000000000000000000000000000000000000001000000000000000000000000000000000000000000000000000000000000000000000000000000008000000000000000000000000010000000000000000000000000000000000000000000000000000000000000000000000000000000000000000000000000001000408000000000000000000080000000000000",
      "type": "0x2",
      "transactionHash": "0x4dea645105e5fdd3af832f36117b6e35e55b6ebf4ff29e22d9da0053ef7fb510",
      "transactionIndex": "0x4c",
      "blockHash": "0x9b09f9304999f532e8207921420333024e4a9f55d57c9f037d66816413030f6d",
      "blockNumber": "0x74a26e",
      "gasUsed": "0xd34f",
      "effectiveGasPrice": "0x90305f26f",
      "from": "0xc68d74f5a99a2c1f3e3625e1d69919e2b77ac7d2",
      "to": "0xf1669804140fa31cdaa805a1b3be91e6282d5e41",
      "contractAddress": null
    },
    {
      "status": "0x1",
      "cumulativeGasUsed": "0x1147d8a",
      "logs": [
        {
          "address": "0xf1669804140fa31cdaa805a1b3be91e6282d5e41",
          "topics": [
            "0xeb8377c150d1438121333afa2027232605a400b1208ae6f9cfa156438e453f6d",
            "0x000000000000000000000000e91a93a2b782781744a07118bab5855fb256b881",
            "0x0000000000000000000000000000000000000000000000000000000000002715",
            "0x00000000000000000000000071c72ee9f587dac1df749940c7581e4bbc789f85"
          ],
          "data": "0x0000000000000000000000000000000000000000000000000000000000000001",
          "blockHash": "0x6afab193915a3cf41c9ba9b52dd8dc4e447acbe54ed5e086cc9b429968f4a581",
          "blockNumber": "0x74a26f",
          "transactionHash": "0x43f6491caf84bfbbcd5deb0e12254f40447270ea5ef167798d6e04bc9321a202",
          "transactionIndex": "0x6e",
          "logIndex": "0x13e",
          "removed": false
        }
      ],
      "logsBloom": "0x00000008000080000000000000000000000000000000000000000040010000000000800000200000000000000000000000000000000000000000000000000000800000000000000000000000000000000000000000100000000000000000000000000000000000000000000000000000000000000000000000000000000004000000000001000000000000000000000000000000000000000000000000000000000000000000000000000000008000000000000000000000000010000000000000000000000000000000000000000000000000000000000000000000000000000000000000000000000000000000408000000000000000000080000000000000",
      "type": "0x2",
      "transactionHash": "0x43f6491caf84bfbbcd5deb0e12254f40447270ea5ef167798d6e04bc9321a202",
      "transactionIndex": "0x6e",
      "blockHash": "0x6afab193915a3cf41c9ba9b52dd8dc4e447acbe54ed5e086cc9b429968f4a581",
      "blockNumber": "0x74a26f",
      "gasUsed": "0xd34f",
      "effectiveGasPrice": "0x91eb9dbca",
      "from": "0xc68d74f5a99a2c1f3e3625e1d69919e2b77ac7d2",
      "to": "0xf1669804140fa31cdaa805a1b3be91e6282d5e41",
      "contractAddress": null
    }
  ],
  "libraries": [],
  "pending": [],
  "returns": {},
  "timestamp": 1738743589,
  "chain": 11155111,
  "commit": "422d087"
}
