{
  "transactions": [
    {
      "hash": "0xfa514004c450d5ac5f12f8083e96f883a42b6ca98283421b0c4f5e47b32131ed",
      "transactionType": "CALL",
      "contractName": null,
      "contractAddress": "0xd925c84b55e4e44a53749ff5f2a5a13f63d128fd",
      "function": "setPeer(uint16,bytes32,uint8,uint256)",
      "arguments": [
        "1",
        "0x0b86ec181cd4c5c984e9062b13f2b2de7b9f5b5e68e84349231d6614cdf3f99f",
        "6",
        "0"
      ],
      "transaction": {
        "from": "0xf2f1acbe0ba726fee8d75f3e32900526874740bb",
        "to": "0xd925c84b55e4e44a53749ff5f2a5a13f63d128fd",
        "gas": "0x1cb99",
        "value": "0x0",
        "input": "0x7c91863400000000000000000000000000000000000000000000000000000000000000010b86ec181cd4c5c984e9062b13f2b2de7b9f5b5e68e84349231d6614cdf3f99f00000000000000000000000000000000000000000000000000000000000000060000000000000000000000000000000000000000000000000000000000000000",
        "nonce": "0x3c",
        "chainId": "0xaa37dc"
      },
      "additionalContracts": [],
      "isFixedGasLimit": false
    },
    {
      "hash": "0x1efd73356b5c3dc045262f5fbf85b831d7ced47acf7ba8891523d10b564dcd4d",
      "transactionType": "CALL",
      "contractName": null,
      "contractAddress": "0xd925c84b55e4e44a53749ff5f2a5a13f63d128fd",
      "function": "setDestinationMToken(uint16,bytes32)",
      "arguments": [
        "1",
        "0x0b86be66bfceb4c1d7e927bcc4d014be0f2863ab9df85fda610851b64dbd0ae5"
      ],
      "transaction": {
        "from": "0xf2f1acbe0ba726fee8d75f3e32900526874740bb",
        "to": "0xd925c84b55e4e44a53749ff5f2a5a13f63d128fd",
        "gas": "0x12eef",
        "value": "0x0",
        "input": "0x76a4a53900000000000000000000000000000000000000000000000000000000000000010b86be66bfceb4c1d7e927bcc4d014be0f2863ab9df85fda610851b64dbd0ae5",
        "nonce": "0x3d",
        "chainId": "0xaa37dc"
      },
      "additionalContracts": [],
      "isFixedGasLimit": false
    },
    {
      "hash": "0x5593af2b86b0d373ea3de447af0e73d589ffd1f3f333b3db980348e700c33e1b",
      "transactionType": "CALL",
      "contractName": null,
      "contractAddress": "0xd925c84b55e4e44a53749ff5f2a5a13f63d128fd",
      "function": "setSupportedBridgingPath(address,uint16,bytes32,bool)",
      "arguments": [
        "0x866A2BF4E572CbcF37D5071A7a58503Bfb36be1b",
        "1",
        "0x0b86be66bfceb4c1d7e927bcc4d014be0f2863ab9df85fda610851b64dbd0ae5",
        "true"
      ],
      "transaction": {
        "from": "0xf2f1acbe0ba726fee8d75f3e32900526874740bb",
        "to": "0xd925c84b55e4e44a53749ff5f2a5a13f63d128fd",
        "gas": "0x135f6",
        "value": "0x0",
        "input": "0x1482cb4a000000000000000000000000866a2bf4e572cbcf37d5071a7a58503bfb36be1b00000000000000000000000000000000000000000000000000000000000000010b86be66bfceb4c1d7e927bcc4d014be0f2863ab9df85fda610851b64dbd0ae50000000000000000000000000000000000000000000000000000000000000001",
        "nonce": "0x3e",
        "chainId": "0xaa37dc"
      },
      "additionalContracts": [],
      "isFixedGasLimit": false
    },
    {
      "hash": "0xeda00b3fe6e45b59a59aeab5719a74ee5f3ef3cc59355d719ac91edfea56234c",
      "transactionType": "CALL",
      "contractName": null,
      "contractAddress": "0xd925c84b55e4e44a53749ff5f2a5a13f63d128fd",
      "function": "setSupportedBridgingPath(address,uint16,bytes32,bool)",
      "arguments": [
        "0x437cc33344a0B27A429f795ff6B469C72698B291",
        "1",
        "0x0b86be66bfceb4c1d7e927bcc4d014be0f2863ab9df85fda610851b64dbd0ae5",
        "true"
      ],
      "transaction": {
        "from": "0xf2f1acbe0ba726fee8d75f3e32900526874740bb",
        "to": "0xd925c84b55e4e44a53749ff5f2a5a13f63d128fd",
        "gas": "0x135f6",
        "value": "0x0",
        "input": "0x1482cb4a000000000000000000000000437cc33344a0b27a429f795ff6b469c72698b29100000000000000000000000000000000000000000000000000000000000000010b86be66bfceb4c1d7e927bcc4d014be0f2863ab9df85fda610851b64dbd0ae50000000000000000000000000000000000000000000000000000000000000001",
        "nonce": "0x3f",
        "chainId": "0xaa37dc"
      },
      "additionalContracts": [],
      "isFixedGasLimit": false
    },
    {
      "hash": "0xa00aa8c172feb59c24370dbd554380735fcadbeee2b15d7982ade288901f065d",
      "transactionType": "CALL",
      "contractName": null,
      "contractAddress": "0x0763196a091575adf99e2306e5e90e0be5154841",
      "function": "setIsSpecialRelayingEnabled(uint16,bool)",
      "arguments": ["1", "true"],
      "transaction": {
        "from": "0xf2f1acbe0ba726fee8d75f3e32900526874740bb",
        "to": "0x0763196a091575adf99e2306e5e90e0be5154841",
        "gas": "0x11a66",
        "value": "0x0",
        "input": "0x4b795b2100000000000000000000000000000000000000000000000000000000000000010000000000000000000000000000000000000000000000000000000000000001",
        "nonce": "0x40",
        "chainId": "0xaa37dc"
      },
      "additionalContracts": [],
      "isFixedGasLimit": false
    },
    {
      "hash": "0x6f6f104efe2737a17d6dff8d8c36c7bf6cfebfdf8b36faff92a47bc16343dd57",
      "transactionType": "CALL",
      "contractName": null,
      "contractAddress": "0x0763196a091575adf99e2306e5e90e0be5154841",
      "function": "setWormholePeer(uint16,bytes32)",
      "arguments": [
        "1",
        "0x0b86ec181cd4c5c984e9062b13f2b2de7b9f5b5e68e84349231d6614cdf3f99f"
      ],
      "transaction": {
        "from": "0xf2f1acbe0ba726fee8d75f3e32900526874740bb",
        "to": "0x0763196a091575adf99e2306e5e90e0be5154841",
        "gas": "0x1a30e",
        "value": "0x0",
        "input": "0x7ab5640300000000000000000000000000000000000000000000000000000000000000010b86ec181cd4c5c984e9062b13f2b2de7b9f5b5e68e84349231d6614cdf3f99f",
        "nonce": "0x41",
        "chainId": "0xaa37dc"
      },
      "additionalContracts": [],
      "isFixedGasLimit": false
    }
  ],
  "receipts": [
    {
      "status": "0x1",
      "cumulativeGasUsed": "0x1e5a5",
      "logs": [
        {
          "address": "0xd925c84b55e4e44a53749ff5f2a5a13f63d128fd",
          "topics": [
            "0x1456404e7f41f35c3daac941bb50bad417a66275c3040061b4287d787719599d",
            "0x0000000000000000000000000000000000000000000000000000000000000001"
          ],
          "data": "0x000000000000000000000000000000000000000000000000000000000000000000000000000000000000000000000000000000000000000000000000000000000b86ec181cd4c5c984e9062b13f2b2de7b9f5b5e68e84349231d6614cdf3f99f0000000000000000000000000000000000000000000000000000000000000006",
          "blockHash": "0xa8d94b0f0958ceb11733e925ed469f6090d3d6a5d7836e775c278216b9c07555",
          "blockNumber": "0x1785a60",
          "transactionHash": "0xfa514004c450d5ac5f12f8083e96f883a42b6ca98283421b0c4f5e47b32131ed",
          "transactionIndex": "0x1",
          "logIndex": "0x0",
          "removed": false
        }
      ],
      "logsBloom": "0x00000000000000000000000000000000000000000000000000000000000000000000000000000000002000000000000000000000000000000000000000040000000000000000000000000000000000000000000000064000000000000000000000002000000000000000000000000000000000000000000000000000000000000000000000000000000008000000000000000000000000000000000000000000000000000000000000000000000000000000000000000000000000000000080000000000000000000000000000000000000000000000000000000000000040000000000000000000000000000000000000000000000000000000000000000000",
      "type": "0x2",
      "transactionHash": "0xfa514004c450d5ac5f12f8083e96f883a42b6ca98283421b0c4f5e47b32131ed",
      "transactionIndex": "0x1",
      "blockHash": "0xa8d94b0f0958ceb11733e925ed469f6090d3d6a5d7836e775c278216b9c07555",
      "blockNumber": "0x1785a60",
      "gasUsed": "0x13a42",
      "effectiveGasPrice": "0xf433b",
      "from": "0xf2f1acbe0ba726fee8d75f3e32900526874740bb",
      "to": "0xd925c84b55e4e44a53749ff5f2a5a13f63d128fd",
      "contractAddress": null,
      "l1BaseFeeScalar": "0x1db0",
      "l1BlobBaseFee": "0x5dcb37612",
      "l1BlobBaseFeeScalar": "0xd2730",
      "l1Fee": "0x1fe4efb60b0",
      "l1GasPrice": "0x38633cf6",
      "l1GasUsed": "0x647"
    },
    {
      "status": "0x1",
      "cumulativeGasUsed": "0xfbf1de",
      "logs": [
        {
          "address": "0xd925c84b55e4e44a53749ff5f2a5a13f63d128fd",
          "topics": [
            "0xe6658eeba76934cef78dc5f420ee40406e4876e8d3e767f7b700c63daf1bf0ba",
            "0x0000000000000000000000000000000000000000000000000000000000000001"
          ],
          "data": "0x0b86be66bfceb4c1d7e927bcc4d014be0f2863ab9df85fda610851b64dbd0ae5",
          "blockHash": "0xca2749c44b718f34f9c49032effa308d0807bfc745409d0e6da975086e20bb09",
          "blockNumber": "0x1785a62",
          "transactionHash": "0x1efd73356b5c3dc045262f5fbf85b831d7ced47acf7ba8891523d10b564dcd4d",
          "transactionIndex": "0x3",
          "logIndex": "0x21c",
          "removed": false
        }
      ],
      "logsBloom": "0x00000000000000000000000000000000000000000000000000000000000000000000000000000000000000000000000000000000000000000000000000040000000000000000000000000000002000000000000000064000000000000000000000000000000000000000000000000000000000000000000000000000000000000000000000000000000000000000000000000000000000000000000000000000000080000000000000000000000000000000000000000000000000000000080000000000000020000000000000000000000000000000000000000000000040000000000000000000000000000000000000000000000000000000000000000000",
      "type": "0x2",
      "transactionHash": "0x1efd73356b5c3dc045262f5fbf85b831d7ced47acf7ba8891523d10b564dcd4d",
      "transactionIndex": "0x3",
      "blockHash": "0xca2749c44b718f34f9c49032effa308d0807bfc745409d0e6da975086e20bb09",
      "blockNumber": "0x1785a62",
      "gasUsed": "0xcf23",
      "effectiveGasPrice": "0xf433b",
      "from": "0xf2f1acbe0ba726fee8d75f3e32900526874740bb",
      "to": "0xd925c84b55e4e44a53749ff5f2a5a13f63d128fd",
      "contractAddress": null,
      "l1BaseFeeScalar": "0x1db0",
      "l1BlobBaseFee": "0x5dcb37612",
      "l1BlobBaseFeeScalar": "0xd2730",
      "l1Fee": "0x1fbfe1a0d58",
      "l1GasPrice": "0x38633cf6",
      "l1GasUsed": "0x640"
    },
    {
      "status": "0x1",
      "cumulativeGasUsed": "0x6dc1a",
      "logs": [
        {
          "address": "0xd925c84b55e4e44a53749ff5f2a5a13f63d128fd",
          "topics": [
            "0xeb8377c150d1438121333afa2027232605a400b1208ae6f9cfa156438e453f6d",
            "0x000000000000000000000000866a2bf4e572cbcf37d5071a7a58503bfb36be1b",
            "0x0000000000000000000000000000000000000000000000000000000000000001",
            "0x0b86be66bfceb4c1d7e927bcc4d014be0f2863ab9df85fda610851b64dbd0ae5"
          ],
          "data": "0x0000000000000000000000000000000000000000000000000000000000000001",
          "blockHash": "0x5338fc6dec4800217620749d2bf199c09d96a3fc8b7f4513bc151ca799103b07",
          "blockNumber": "0x1785a64",
          "transactionHash": "0x5593af2b86b0d373ea3de447af0e73d589ffd1f3f333b3db980348e700c33e1b",
          "transactionIndex": "0x5",
          "logIndex": "0xa",
          "removed": false
        }
      ],
      "logsBloom": "0x00000008000000000000000000000000000000000001000000000000000000000000000000000000000000000000000000200000000000000000000000040000800000000000000000000000000000000000000000064000000000000000000000000000000000000000000000000000000000000000000100000000000000000000000000000000000000000040000000000000000000000000000000000000000000000000000000000000008000000000000000000000000000000000080000000000000400000000000001000000000000000000000000000000000040000000000000000000000000000000000000000000000000000000000000000000",
      "type": "0x2",
      "transactionHash": "0x5593af2b86b0d373ea3de447af0e73d589ffd1f3f333b3db980348e700c33e1b",
      "transactionIndex": "0x5",
      "blockHash": "0x5338fc6dec4800217620749d2bf199c09d96a3fc8b7f4513bc151ca799103b07",
      "blockNumber": "0x1785a64",
      "gasUsed": "0xd3f1",
      "effectiveGasPrice": "0xf433c",
      "from": "0xf2f1acbe0ba726fee8d75f3e32900526874740bb",
      "to": "0xd925c84b55e4e44a53749ff5f2a5a13f63d128fd",
      "contractAddress": null,
      "l1BaseFeeScalar": "0x1db0",
      "l1BlobBaseFee": "0x5dcb37612",
      "l1BlobBaseFeeScalar": "0xd2730",
      "l1Fee": "0x2600b33a22d",
      "l1GasPrice": "0x38633cf6",
      "l1GasUsed": "0x77b"
    },
    {
      "status": "0x1",
      "cumulativeGasUsed": "0x17f54",
      "logs": [
        {
          "address": "0xd925c84b55e4e44a53749ff5f2a5a13f63d128fd",
          "topics": [
            "0xeb8377c150d1438121333afa2027232605a400b1208ae6f9cfa156438e453f6d",
            "0x000000000000000000000000437cc33344a0b27a429f795ff6b469c72698b291",
            "0x0000000000000000000000000000000000000000000000000000000000000001",
            "0x0b86be66bfceb4c1d7e927bcc4d014be0f2863ab9df85fda610851b64dbd0ae5"
          ],
          "data": "0x0000000000000000000000000000000000000000000000000000000000000001",
          "blockHash": "0xc244f87bd265035e6a78defb03da192fb43b5bbcef13707dcee14aa3e2e36330",
          "blockNumber": "0x1785a66",
          "transactionHash": "0xeda00b3fe6e45b59a59aeab5719a74ee5f3ef3cc59355d719ac91edfea56234c",
          "transactionIndex": "0x1",
          "logIndex": "0x0",
          "removed": false
        }
      ],
      "logsBloom": "0x00000008000002000000000000000000000000000001000000000000000000000000000000000000000000000000000000200000000000000000000000040000800000000000000000000000000000000000000000064000000000000000000000000000000000000000000000000000000000000000000000000000000000000000000000000000000000000000000000000000000000000000000000000000000000000000000000000000008000000000000000020000000000000000080000000000000000000000000001000000000000000000000000000000000040200000000000000000000000000000000000000000000000000000000000000000",
      "type": "0x2",
      "transactionHash": "0xeda00b3fe6e45b59a59aeab5719a74ee5f3ef3cc59355d719ac91edfea56234c",
      "transactionIndex": "0x1",
      "blockHash": "0xc244f87bd265035e6a78defb03da192fb43b5bbcef13707dcee14aa3e2e36330",
      "blockNumber": "0x1785a66",
      "gasUsed": "0xd3f1",
      "effectiveGasPrice": "0xf433d",
      "from": "0xf2f1acbe0ba726fee8d75f3e32900526874740bb",
      "to": "0xd925c84b55e4e44a53749ff5f2a5a13f63d128fd",
      "contractAddress": null,
      "l1BaseFeeScalar": "0x1db0",
      "l1BlobBaseFee": "0x56b5ee0c5",
      "l1BlobBaseFeeScalar": "0xd2730",
      "l1Fee": "0x2325b2227ef",
      "l1GasPrice": "0x382fbd3a",
      "l1GasUsed": "0x77b"
    },
    {
      "status": "0x1",
      "cumulativeGasUsed": "0x4450c3",
      "logs": [
        {
          "address": "0x0763196a091575adf99e2306e5e90e0be5154841",
          "topics": [
            "0x0fe301480713b2c2072ee91b3bcfcbf2c0014f0447c89046f020f0f80727003c"
          ],
          "data": "0x00000000000000000000000000000000000000000000000000000000000000010000000000000000000000000000000000000000000000000000000000000001",
          "blockHash": "0xc1a2a97871f55c14cac0364b00fae598fd97da2aba051cb2d62e4efe5a45e692",
          "blockNumber": "0x1785a67",
          "transactionHash": "0xa00aa8c172feb59c24370dbd554380735fcadbeee2b15d7982ade288901f065d",
          "transactionIndex": "0x2",
          "logIndex": "0x8",
          "removed": false
        }
      ],
      "logsBloom": "0x00000000000000000000000000000000000000000000000000000000000000000000000000000000000000000000000000000000000000000000000000000000000000000000000000000000000000000000000000000000000000000001000000000000000000001000000000000000000000000000000000000000000000000000000000000000000000001000000000000000000000000000000000000000002002000000000000000000000000000000000000000000000000000000000000000000000000000000000000000000000000000000000000000000000000000000000000000000000000000000000000000000000000000000000400000000",
      "type": "0x2",
      "transactionHash": "0xa00aa8c172feb59c24370dbd554380735fcadbeee2b15d7982ade288901f065d",
      "transactionIndex": "0x2",
      "blockHash": "0xc1a2a97871f55c14cac0364b00fae598fd97da2aba051cb2d62e4efe5a45e692",
      "blockNumber": "0x1785a67",
      "gasUsed": "0xcc74",
      "effectiveGasPrice": "0xf433d",
      "from": "0xf2f1acbe0ba726fee8d75f3e32900526874740bb",
      "to": "0x0763196a091575adf99e2306e5e90e0be5154841",
      "contractAddress": null,
      "l1BaseFeeScalar": "0x1db0",
      "l1BlobBaseFee": "0x56b5ee0c5",
      "l1BlobBaseFeeScalar": "0xd2730",
      "l1Fee": "0x1d5d2932702",
      "l1GasPrice": "0x382fbd3a",
      "l1GasUsed": "0x640"
    },
    {
      "status": "0x1",
      "cumulativeGasUsed": "0x1f8785",
      "logs": [
        {
          "address": "0x31377888146f3253211efef5c676d41ece7d58fe",
          "topics": [
            "0x6eb224fb001ed210e379b335e35efe88672a8ce935d981a6896b27ffdf52a3b2",
            "0x0000000000000000000000000763196a091575adf99e2306e5e90e0be5154841"
          ],
          "data": "0x00000000000000000000000000000000000000000000000000000000000000030000000000000000000000000000000000000000000000000000000000000000000000000000000000000000000000000000000000000000000000000000008000000000000000000000000000000000000000000000000000000000000000c8000000000000000000000000000000000000000000000000000000000000002618fc67c200010b86ec181cd4c5c984e9062b13f2b2de7b9f5b5e68e84349231d6614cdf3f99f0000000000000000000000000000000000000000000000000000",
          "blockHash": "0x20f5acced760dd062f6e9cc66ee4399a4c292376b21d8c6dfdc3f73502c7e954",
          "blockNumber": "0x1785a69",
          "transactionHash": "0x6f6f104efe2737a17d6dff8d8c36c7bf6cfebfdf8b36faff92a47bc16343dd57",
          "transactionIndex": "0x3",
          "logIndex": "0x4",
          "removed": false
        },
        {
          "address": "0x0763196a091575adf99e2306e5e90e0be5154841",
          "topics": [
            "0xa559263ee060c7a2560843b3a064ff0376c9753ae3e2449b595a3b615d326466"
          ],
          "data": "0x00000000000000000000000000000000000000000000000000000000000000010b86ec181cd4c5c984e9062b13f2b2de7b9f5b5e68e84349231d6614cdf3f99f",
          "blockHash": "0x20f5acced760dd062f6e9cc66ee4399a4c292376b21d8c6dfdc3f73502c7e954",
          "blockNumber": "0x1785a69",
          "transactionHash": "0x6f6f104efe2737a17d6dff8d8c36c7bf6cfebfdf8b36faff92a47bc16343dd57",
          "transactionIndex": "0x3",
          "logIndex": "0x5",
          "removed": false
        }
      ],
      "logsBloom": "0x00000000000100000000000000000000000000000000000000000000000000000010000000000000000000000010000000000000000000000000000000000000000000000000000000000000000000000000000100000000000000000001000000000040100000001000000000000000000000000000000000000000000000000000000000000000000000000000000000000000000000000000000000000000002000000400000000000000000000000000004000000000000000008000000000000000000000000000000000000000000000000000000000000000000000000000000000000000210000000000000000000000000000000000080000000000",
      "type": "0x2",
      "transactionHash": "0x6f6f104efe2737a17d6dff8d8c36c7bf6cfebfdf8b36faff92a47bc16343dd57",
      "transactionIndex": "0x3",
      "blockHash": "0x20f5acced760dd062f6e9cc66ee4399a4c292376b21d8c6dfdc3f73502c7e954",
      "blockNumber": "0x1785a69",
      "gasUsed": "0x12f64",
      "effectiveGasPrice": "0xf433d",
      "from": "0xf2f1acbe0ba726fee8d75f3e32900526874740bb",
      "to": "0x0763196a091575adf99e2306e5e90e0be5154841",
      "contractAddress": null,
      "l1BaseFeeScalar": "0x1db0",
      "l1BlobBaseFee": "0x56b5ee0c5",
      "l1BlobBaseFeeScalar": "0xd2730",
      "l1Fee": "0x1d5d2932702",
      "l1GasPrice": "0x382fbd3a",
      "l1GasUsed": "0x640"
    }
  ],
  "libraries": [],
  "pending": [],
  "returns": {},
  "timestamp": 1741131904,
  "chain": 11155420,
  "commit": "d30de18"
}
