{
  "transactions": [
    {
      "hash": "0x39cdf93a097314f27760e76bdaf751d061183a645c20e5b2bec960d3cdfd1648",
      "transactionType": "CALL",
      "contractName": null,
      "contractAddress": "0xd925c84b55e4e44a53749ff5f2a5a13f63d128fd",
      "function": "setPeer(uint16,bytes32,uint8,uint256)",
      "arguments": [
        "10004",
        "0x000000000000000000000000d925c84b55e4e44a53749ff5f2a5a13f63d128fd",
        "6",
        "0"
      ],
      "transaction": {
        "from": "0xf2f1acbe0ba726fee8d75f3e32900526874740bb",
        "to": "0xd925c84b55e4e44a53749ff5f2a5a13f63d128fd",
        "gas": "0x1b15a",
        "value": "0x0",
        "input": "0x7c9186340000000000000000000000000000000000000000000000000000000000002714000000000000000000000000d925c84b55e4e44a53749ff5f2a5a13f63d128fd00000000000000000000000000000000000000000000000000000000000000060000000000000000000000000000000000000000000000000000000000000000",
        "nonce": "0x4d",
        "chainId": "0xaa37dc"
      },
      "additionalContracts": [],
      "isFixedGasLimit": false
    },
    {
      "hash": "0x54f6a0a7dd79e4803e507a4ca2a8f966cdd723d450d574edcb9cc87cb2ae1879",
      "transactionType": "CALL",
      "contractName": null,
      "contractAddress": "0xd925c84b55e4e44a53749ff5f2a5a13f63d128fd",
      "function": "setDestinationMToken(uint16,bytes32)",
      "arguments": [
        "10004",
        "0x000000000000000000000000866a2bf4e572cbcf37d5071a7a58503bfb36be1b"
      ],
      "transaction": {
        "from": "0xf2f1acbe0ba726fee8d75f3e32900526874740bb",
        "to": "0xd925c84b55e4e44a53749ff5f2a5a13f63d128fd",
        "gas": "0x11d64",
        "value": "0x0",
        "input": "0x76a4a5390000000000000000000000000000000000000000000000000000000000002714000000000000000000000000866a2bf4e572cbcf37d5071a7a58503bfb36be1b",
        "nonce": "0x4e",
        "chainId": "0xaa37dc"
      },
      "additionalContracts": [],
      "isFixedGasLimit": false
    },
    {
      "hash": "0xadaf83ecdeaf815e2773ea11d74db3a3f1ce0d93f6ac8f7ef05d59f9f5108a9e",
      "transactionType": "CALL",
      "contractName": null,
      "contractAddress": "0xd925c84b55e4e44a53749ff5f2a5a13f63d128fd",
      "function": "setSupportedBridgingPath(address,uint16,bytes32,bool)",
      "arguments": [
        "0x866A2BF4E572CbcF37D5071A7a58503Bfb36be1b",
        "10004",
        "0x000000000000000000000000866a2bf4e572cbcf37d5071a7a58503bfb36be1b",
        "true"
      ],
      "transaction": {
        "from": "0xf2f1acbe0ba726fee8d75f3e32900526874740bb",
        "to": "0xd925c84b55e4e44a53749ff5f2a5a13f63d128fd",
        "gas": "0x12407",
        "value": "0x0",
        "input": "0x1482cb4a000000000000000000000000866a2bf4e572cbcf37d5071a7a58503bfb36be1b0000000000000000000000000000000000000000000000000000000000002714000000000000000000000000866a2bf4e572cbcf37d5071a7a58503bfb36be1b0000000000000000000000000000000000000000000000000000000000000001",
        "nonce": "0x4f",
        "chainId": "0xaa37dc"
      },
      "additionalContracts": [],
      "isFixedGasLimit": false
    },
    {
      "hash": "0x34b1eae4bc91e31b6feff9f8c8cf758f73527d27390c48c3be6c4b3b4fa47b29",
      "transactionType": "CALL",
      "contractName": null,
      "contractAddress": "0xd925c84b55e4e44a53749ff5f2a5a13f63d128fd",
      "function": "setSupportedBridgingPath(address,uint16,bytes32,bool)",
      "arguments": [
        "0x866A2BF4E572CbcF37D5071A7a58503Bfb36be1b",
        "10004",
        "0x000000000000000000000000437cc33344a0b27a429f795ff6b469c72698b291",
        "true"
      ],
      "transaction": {
        "from": "0xf2f1acbe0ba726fee8d75f3e32900526874740bb",
        "to": "0xd925c84b55e4e44a53749ff5f2a5a13f63d128fd",
        "gas": "0x12407",
        "value": "0x0",
        "input": "0x1482cb4a000000000000000000000000866a2bf4e572cbcf37d5071a7a58503bfb36be1b0000000000000000000000000000000000000000000000000000000000002714000000000000000000000000437cc33344a0b27a429f795ff6b469c72698b2910000000000000000000000000000000000000000000000000000000000000001",
        "nonce": "0x50",
        "chainId": "0xaa37dc"
      },
      "additionalContracts": [],
      "isFixedGasLimit": false
    },
    {
      "hash": "0xc2edf0a26f5033fcdc74c9e99af2879f487774c3b97de6986ea6366139a8e84c",
      "transactionType": "CALL",
      "contractName": null,
      "contractAddress": "0xd925c84b55e4e44a53749ff5f2a5a13f63d128fd",
      "function": "setSupportedBridgingPath(address,uint16,bytes32,bool)",
      "arguments": [
        "0x437cc33344a0B27A429f795ff6B469C72698B291",
        "10004",
        "0x000000000000000000000000866a2bf4e572cbcf37d5071a7a58503bfb36be1b",
        "true"
      ],
      "transaction": {
        "from": "0xf2f1acbe0ba726fee8d75f3e32900526874740bb",
        "to": "0xd925c84b55e4e44a53749ff5f2a5a13f63d128fd",
        "gas": "0x12407",
        "value": "0x0",
        "input": "0x1482cb4a000000000000000000000000437cc33344a0b27a429f795ff6b469c72698b2910000000000000000000000000000000000000000000000000000000000002714000000000000000000000000866a2bf4e572cbcf37d5071a7a58503bfb36be1b0000000000000000000000000000000000000000000000000000000000000001",
        "nonce": "0x51",
        "chainId": "0xaa37dc"
      },
      "additionalContracts": [],
      "isFixedGasLimit": false
    },
    {
      "hash": "0x5aedf8e06a4ef9972fda06638537d4a649f2194c795f04707ab8cb58984a25b2",
      "transactionType": "CALL",
      "contractName": null,
      "contractAddress": "0xd925c84b55e4e44a53749ff5f2a5a13f63d128fd",
      "function": "setSupportedBridgingPath(address,uint16,bytes32,bool)",
      "arguments": [
        "0x437cc33344a0B27A429f795ff6B469C72698B291",
        "10004",
        "0x000000000000000000000000437cc33344a0b27a429f795ff6b469c72698b291",
        "true"
      ],
      "transaction": {
        "from": "0xf2f1acbe0ba726fee8d75f3e32900526874740bb",
        "to": "0xd925c84b55e4e44a53749ff5f2a5a13f63d128fd",
        "gas": "0x12407",
        "value": "0x0",
        "input": "0x1482cb4a000000000000000000000000437cc33344a0b27a429f795ff6b469c72698b2910000000000000000000000000000000000000000000000000000000000002714000000000000000000000000437cc33344a0b27a429f795ff6b469c72698b2910000000000000000000000000000000000000000000000000000000000000001",
        "nonce": "0x52",
        "chainId": "0xaa37dc"
      },
      "additionalContracts": [],
      "isFixedGasLimit": false
    },
    {
      "hash": "0x360f2c3cddb966f9cde30ccf53f174a5d7363cb97a6fd2b178fe5c8544567aa3",
      "transactionType": "CALL",
      "contractName": "ERC1967Proxy",
      "contractAddress": "0x0763196a091575adf99e2306e5e90e0be5154841",
      "function": null,
      "arguments": null,
      "transaction": {
        "from": "0xf2f1acbe0ba726fee8d75f3e32900526874740bb",
        "to": "0x0763196a091575adf99e2306e5e90e0be5154841",
        "gas": "0x12b75",
        "value": "0x0",
        "input": "0x657b3b2f00000000000000000000000000000000000000000000000000000000000027140000000000000000000000000000000000000000000000000000000000000001",
        "nonce": "0x53",
        "chainId": "0xaa37dc"
      },
      "additionalContracts": [],
      "isFixedGasLimit": false
    },
    {
      "hash": "0xfc787ec54cce622687b5a26a2ab039bb04ca932ff5fc53e7056a581a498d7a9c",
      "transactionType": "CALL",
      "contractName": "ERC1967Proxy",
      "contractAddress": "0x0763196a091575adf99e2306e5e90e0be5154841",
      "function": null,
      "arguments": null,
      "transaction": {
        "from": "0xf2f1acbe0ba726fee8d75f3e32900526874740bb",
        "to": "0x0763196a091575adf99e2306e5e90e0be5154841",
        "gas": "0x1a1e6",
        "value": "0x0",
        "input": "0x7ab5640300000000000000000000000000000000000000000000000000000000000027140000000000000000000000000763196a091575adf99e2306e5e90e0be5154841",
        "nonce": "0x54",
        "chainId": "0xaa37dc"
      },
      "additionalContracts": [],
      "isFixedGasLimit": false
    },
    {
      "hash": "0xbd4dc367e194922411c44ae02f37421c536e5c0f0fa11c25ff7665780e4dc7c0",
      "transactionType": "CALL",
      "contractName": "ERC1967Proxy",
      "contractAddress": "0x0763196a091575adf99e2306e5e90e0be5154841",
      "function": null,
      "arguments": null,
      "transaction": {
        "from": "0xf2f1acbe0ba726fee8d75f3e32900526874740bb",
        "to": "0x0763196a091575adf99e2306e5e90e0be5154841",
        "gas": "0x11c5d",
        "value": "0x0",
        "input": "0x96dddc6300000000000000000000000000000000000000000000000000000000000027140000000000000000000000000000000000000000000000000000000000000001",
        "nonce": "0x55",
        "chainId": "0xaa37dc"
      },
      "additionalContracts": [],
      "isFixedGasLimit": false
    }
  ],
  "receipts": [
    {
      "status": "0x1",
      "cumulativeGasUsed": "0x1edda",
      "logs": [
        {
          "address": "0xd925c84b55e4e44a53749ff5f2a5a13f63d128fd",
          "topics": [
            "0x1456404e7f41f35c3daac941bb50bad417a66275c3040061b4287d787719599d",
            "0x0000000000000000000000000000000000000000000000000000000000002714"
          ],
          "data": "0x00000000000000000000000000000000000000000000000000000000000000000000000000000000000000000000000000000000000000000000000000000000000000000000000000000000d925c84b55e4e44a53749ff5f2a5a13f63d128fd0000000000000000000000000000000000000000000000000000000000000006",
          "blockHash": "0x4405ad7e46d9f4aea99933d38b57e890c3f520088eca9a791cea5e48cfba3895",
          "blockNumber": "0x21708e9",
          "blockTimestamp": "0x6904ed7e",
          "transactionHash": "0x39cdf93a097314f27760e76bdaf751d061183a645c20e5b2bec960d3cdfd1648",
          "transactionIndex": "0x1",
          "logIndex": "0x0",
          "removed": false
        }
      ],
      "logsBloom": "0x00200000000008000000002000000000000000000000000000000000000000000000000000000000002000000000000000000000000000000000000000000000000000000000000000000000000000000000000000024000000000000000000000002000000000000000000000000000000000000000000000000000000000000000000000000000000008000000000000000000000000000000000000000000000000000000000000000000000000000000000000000000000000000000080000000000000000000000000000000000000000000000000000000000000000000000000000000000000000000000000000000000000000000000000000000000",
      "type": "0x2",
      "transactionHash": "0x39cdf93a097314f27760e76bdaf751d061183a645c20e5b2bec960d3cdfd1648",
      "transactionIndex": "0x1",
      "blockHash": "0x4405ad7e46d9f4aea99933d38b57e890c3f520088eca9a791cea5e48cfba3895",
      "blockNumber": "0x21708e9",
      "gasUsed": "0x139be",
      "effectiveGasPrice": "0xf433a",
      "from": "0xf2f1acbe0ba726fee8d75f3e32900526874740bb",
      "to": "0xd925c84b55e4e44a53749ff5f2a5a13f63d128fd",
      "contractAddress": null,
      "l1BaseFeeScalar": "0x1db0",
      "l1BlobBaseFee": "0x1",
      "l1BlobBaseFeeScalar": "0xd2730",
      "l1Fee": "0xc3",
      "l1GasPrice": "0x9",
      "l1GasUsed": "0x640"
    },
    {
      "status": "0x1",
      "cumulativeGasUsed": "0x3715f",
      "logs": [
        {
          "address": "0xd925c84b55e4e44a53749ff5f2a5a13f63d128fd",
          "topics": [
            "0xe6658eeba76934cef78dc5f420ee40406e4876e8d3e767f7b700c63daf1bf0ba",
            "0x0000000000000000000000000000000000000000000000000000000000002714"
          ],
          "data": "0x000000000000000000000000866a2bf4e572cbcf37d5071a7a58503bfb36be1b",
          "blockHash": "0x78ddcd182fc97080e692a7d1e4670e2188b52ee5abd9e63c61763ec58cd6a771",
          "blockNumber": "0x21708ea",
          "blockTimestamp": "0x6904ed80",
          "transactionHash": "0x54f6a0a7dd79e4803e507a4ca2a8f966cdd723d450d574edcb9cc87cb2ae1879",
          "transactionIndex": "0x2",
          "logIndex": "0x3",
          "removed": false
        }
      ],
      "logsBloom": "0x00200000000008000000002000000000000000000000000000000000000000000000000000000000000000000000000000000000000000000000000000000000000000000000000000000000002000000000000000024000000000000000000000000000000000000000000000000000000000000000000000000000000000000000000000000000000000000000000000000000000000000000000000000000000080000000000000000000000000000000000000000000000000000000080000000000000020000000000000000000000000000000000000000000000000000000000000000000000000000000000000000000000000000000000000000000",
      "type": "0x2",
      "transactionHash": "0x54f6a0a7dd79e4803e507a4ca2a8f966cdd723d450d574edcb9cc87cb2ae1879",
      "transactionIndex": "0x2",
      "blockHash": "0x78ddcd182fc97080e692a7d1e4670e2188b52ee5abd9e63c61763ec58cd6a771",
      "blockNumber": "0x21708ea",
      "gasUsed": "0xce9f",
      "effectiveGasPrice": "0xf433a",
      "from": "0xf2f1acbe0ba726fee8d75f3e32900526874740bb",
      "to": "0xd925c84b55e4e44a53749ff5f2a5a13f63d128fd",
      "contractAddress": null,
      "l1BaseFeeScalar": "0x1db0",
      "l1BlobBaseFee": "0x1",
      "l1BlobBaseFeeScalar": "0xd2730",
      "l1Fee": "0x212",
      "l1GasPrice": "0x9",
      "l1GasUsed": "0x640"
    },
    {
      "status": "0x1",
      "cumulativeGasUsed": "0x18789",
      "logs": [
        {
          "address": "0xd925c84b55e4e44a53749ff5f2a5a13f63d128fd",
          "topics": [
            "0xeb8377c150d1438121333afa2027232605a400b1208ae6f9cfa156438e453f6d",
            "0x000000000000000000000000866a2bf4e572cbcf37d5071a7a58503bfb36be1b",
            "0x0000000000000000000000000000000000000000000000000000000000002714",
            "0x000000000000000000000000866a2bf4e572cbcf37d5071a7a58503bfb36be1b"
          ],
          "data": "0x0000000000000000000000000000000000000000000000000000000000000001",
          "blockHash": "0xa4df44793e0a7db542b1602a3bbfd28b9dd14191c2f38786bd2fc9e4f6d4ff62",
          "blockNumber": "0x21708eb",
          "blockTimestamp": "0x6904ed82",
          "transactionHash": "0xadaf83ecdeaf815e2773ea11d74db3a3f1ce0d93f6ac8f7ef05d59f9f5108a9e",
          "transactionIndex": "0x1",
          "logIndex": "0x0",
          "removed": false
        }
      ],
      "logsBloom": "0x00200008000008000000002000000000000000000000000000000000000000000000000000000000000000000000000000000000000000000000000000000000800000000000000000000000000000000000000000024000000000000000000000000000000000000000000000000000000000000000000100000000000000000000000000000000000000000040000000000000000000000000000000000000000000000000000000000000008000000000000000000000000000000000080000000000000400000000000000000000000000000000000000000000000000000000000000000000000000000000000000000000000000000000000000000000",
      "type": "0x2",
      "transactionHash": "0xadaf83ecdeaf815e2773ea11d74db3a3f1ce0d93f6ac8f7ef05d59f9f5108a9e",
      "transactionIndex": "0x1",
      "blockHash": "0xa4df44793e0a7db542b1602a3bbfd28b9dd14191c2f38786bd2fc9e4f6d4ff62",
      "blockNumber": "0x21708eb",
      "gasUsed": "0xd36d",
      "effectiveGasPrice": "0xf433a",
      "from": "0xf2f1acbe0ba726fee8d75f3e32900526874740bb",
      "to": "0xd925c84b55e4e44a53749ff5f2a5a13f63d128fd",
      "contractAddress": null,
      "l1BaseFeeScalar": "0x1db0",
      "l1BlobBaseFee": "0x1",
      "l1BlobBaseFeeScalar": "0xd2730",
      "l1Fee": "0xc3",
      "l1GasPrice": "0x9",
      "l1GasUsed": "0x640"
    },
    {
      "status": "0x1",
      "cumulativeGasUsed": "0x19d5d",
      "logs": [
        {
          "address": "0xd925c84b55e4e44a53749ff5f2a5a13f63d128fd",
          "topics": [
            "0xeb8377c150d1438121333afa2027232605a400b1208ae6f9cfa156438e453f6d",
            "0x000000000000000000000000866a2bf4e572cbcf37d5071a7a58503bfb36be1b",
            "0x0000000000000000000000000000000000000000000000000000000000002714",
            "0x000000000000000000000000437cc33344a0b27a429f795ff6b469c72698b291"
          ],
          "data": "0x0000000000000000000000000000000000000000000000000000000000000001",
          "blockHash": "0x98192ad0375fbd58528f08c5cbb924e77355414856cf1f0268e1320070c83160",
          "blockNumber": "0x21708ec",
          "blockTimestamp": "0x6904ed84",
          "transactionHash": "0x34b1eae4bc91e31b6feff9f8c8cf758f73527d27390c48c3be6c4b3b4fa47b29",
          "transactionIndex": "0x1",
          "logIndex": "0x0",
          "removed": false
        }
      ],
      "logsBloom": "0x0020000800000a000000002000000000000000000000000000000000000000000000000000000000000000000000000000000000000000000000000000000000800000000000000000000000000000000000000000024000000000000000000000000000000000000000000000000000000000000000000100000000000000000000000000000000000000000040000000000000000000000000000000000000000000000000000000000000008000000000000000020000000000000000080000000000000400000000000000000000000000000000000000000000000000200000000000000000000000000000000000000000000000000000000000000000",
      "type": "0x2",
      "transactionHash": "0x34b1eae4bc91e31b6feff9f8c8cf758f73527d27390c48c3be6c4b3b4fa47b29",
      "transactionIndex": "0x1",
      "blockHash": "0x98192ad0375fbd58528f08c5cbb924e77355414856cf1f0268e1320070c83160",
      "blockNumber": "0x21708ec",
      "gasUsed": "0xd36d",
      "effectiveGasPrice": "0xf433a",
      "from": "0xf2f1acbe0ba726fee8d75f3e32900526874740bb",
      "to": "0xd925c84b55e4e44a53749ff5f2a5a13f63d128fd",
      "contractAddress": null,
      "l1BaseFeeScalar": "0x1db0",
      "l1BlobBaseFee": "0x1",
      "l1BlobBaseFeeScalar": "0xd2730",
      "l1Fee": "0xdd",
      "l1GasPrice": "0x9",
      "l1GasUsed": "0x710"
    },
    {
      "status": "0x1",
      "cumulativeGasUsed": "0x1fda9",
      "logs": [
        {
          "address": "0xd925c84b55e4e44a53749ff5f2a5a13f63d128fd",
          "topics": [
            "0xeb8377c150d1438121333afa2027232605a400b1208ae6f9cfa156438e453f6d",
            "0x000000000000000000000000437cc33344a0b27a429f795ff6b469c72698b291",
            "0x0000000000000000000000000000000000000000000000000000000000002714",
            "0x000000000000000000000000866a2bf4e572cbcf37d5071a7a58503bfb36be1b"
          ],
          "data": "0x0000000000000000000000000000000000000000000000000000000000000001",
          "blockHash": "0xf67ff1212a4842995d4029d984acca2ab553614aef251c00e0ab54fde7c68be7",
          "blockNumber": "0x21708ed",
          "blockTimestamp": "0x6904ed86",
          "transactionHash": "0xc2edf0a26f5033fcdc74c9e99af2879f487774c3b97de6986ea6366139a8e84c",
          "transactionIndex": "0x2",
          "logIndex": "0x0",
          "removed": false
        }
      ],
      "logsBloom": "0x0020000800000a000000002000000000000000000000000000000000000000000000000000000000000000000000000000000000000000000000000000000000800000000000000000000000000000000000000000024000000000000000000000000000000000000000000000000000000000000000000100000000000000000000000000000000000000000040000000000000000000000000000000000000000000000000000000000000008000000000000000020000000000000000080000000000000400000000000000000000000000000000000000000000000000200000000000000000000000000000000000000000000000000000000000000000",
      "type": "0x2",
      "transactionHash": "0xc2edf0a26f5033fcdc74c9e99af2879f487774c3b97de6986ea6366139a8e84c",
      "transactionIndex": "0x2",
      "blockHash": "0xf67ff1212a4842995d4029d984acca2ab553614aef251c00e0ab54fde7c68be7",
      "blockNumber": "0x21708ed",
      "gasUsed": "0xd36d",
      "effectiveGasPrice": "0xf433a",
      "from": "0xf2f1acbe0ba726fee8d75f3e32900526874740bb",
      "to": "0xd925c84b55e4e44a53749ff5f2a5a13f63d128fd",
      "contractAddress": null,
      "l1BaseFeeScalar": "0x1db0",
      "l1BlobBaseFee": "0x1",
      "l1BlobBaseFeeScalar": "0xd2730",
      "l1Fee": "0x1e2",
      "l1GasPrice": "0x9",
      "l1GasUsed": "0x710"
    },
    {
      "status": "0x1",
      "cumulativeGasUsed": "0x230f43",
      "logs": [
        {
          "address": "0xd925c84b55e4e44a53749ff5f2a5a13f63d128fd",
          "topics": [
            "0xeb8377c150d1438121333afa2027232605a400b1208ae6f9cfa156438e453f6d",
            "0x000000000000000000000000437cc33344a0b27a429f795ff6b469c72698b291",
            "0x0000000000000000000000000000000000000000000000000000000000002714",
            "0x000000000000000000000000437cc33344a0b27a429f795ff6b469c72698b291"
          ],
          "data": "0x0000000000000000000000000000000000000000000000000000000000000001",
          "blockHash": "0xc59b28ea19d2a11ec6ad3015f07c94742fd42eef0f7e97ad37eabeec7ba13c3d",
          "blockNumber": "0x21708ee",
          "blockTimestamp": "0x6904ed88",
          "transactionHash": "0x5aedf8e06a4ef9972fda06638537d4a649f2194c795f04707ab8cb58984a25b2",
          "transactionIndex": "0x2",
          "logIndex": "0x1",
          "removed": false
        }
      ],
      "logsBloom": "0x0020000800000a000000002000000000000000000000000000000000000000000000000000000000000000000000000000000000000000000000000000000000800000000000000000000000000000000000000000024000000000000000000000000000000000000000000000000000000000000000000000000000000000000000000000000000000000000000000000000000000000000000000000000000000000000000000000000000008000000000000000020000000000000000080000000000000000000000000000000000000000000000000000000000000000200000000000000000000000000000000000000000000000000000000000000000",
      "type": "0x2",
      "transactionHash": "0x5aedf8e06a4ef9972fda06638537d4a649f2194c795f04707ab8cb58984a25b2",
      "transactionIndex": "0x2",
      "blockHash": "0xc59b28ea19d2a11ec6ad3015f07c94742fd42eef0f7e97ad37eabeec7ba13c3d",
      "blockNumber": "0x21708ee",
      "gasUsed": "0xd36d",
      "effectiveGasPrice": "0xf433a",
      "from": "0xf2f1acbe0ba726fee8d75f3e32900526874740bb",
      "to": "0xd925c84b55e4e44a53749ff5f2a5a13f63d128fd",
      "contractAddress": null,
      "l1BaseFeeScalar": "0x1db0",
      "l1BlobBaseFee": "0x1",
      "l1BlobBaseFeeScalar": "0xd2730",
      "l1Fee": "0x29e7",
      "l1GasPrice": "0x9",
      "l1GasUsed": "0x640"
    },
    {
      "status": "0x1",
      "cumulativeGasUsed": "0x180de",
      "logs": [
        {
          "address": "0x0763196a091575adf99e2306e5e90e0be5154841",
          "topics": [
            "0x528b18a533e892b5401d1fb63597275df9d2bb45b13e7695c3147cd07b9746c3"
          ],
          "data": "0x00000000000000000000000000000000000000000000000000000000000027140000000000000000000000000000000000000000000000000000000000000001",
          "blockHash": "0x18afc2338b23ed96ee709d1813731ead03a5891b18860bcc0b75185c7e901810",
          "blockNumber": "0x21708ef",
          "blockTimestamp": "0x6904ed8a",
          "transactionHash": "0x360f2c3cddb966f9cde30ccf53f174a5d7363cb97a6fd2b178fe5c8544567aa3",
          "transactionIndex": "0x1",
          "logIndex": "0x0",
          "removed": false
        }
      ],
      "logsBloom": "0x00000000000000000000000000000000000000000000000000000000000080000000000000400000000000000000000000000000000000000000000000000000000000000000000000000000800000000000000000000000000000000001000000000000000000001000000000000000000000000000000000000000000000000000000000000000000000000000000000000000000000000000000000000000002000000000000000000000000000000000000000000000000000000000000000000000000000000000000000000000000000000000000000000000000000000000000000000000000000000000000000000000000000000000000000000000",
      "type": "0x2",
      "transactionHash": "0x360f2c3cddb966f9cde30ccf53f174a5d7363cb97a6fd2b178fe5c8544567aa3",
      "transactionIndex": "0x1",
      "blockHash": "0x18afc2338b23ed96ee709d1813731ead03a5891b18860bcc0b75185c7e901810",
      "blockNumber": "0x21708ef",
      "gasUsed": "0xccc2",
      "effectiveGasPrice": "0xf433a",
      "from": "0xf2f1acbe0ba726fee8d75f3e32900526874740bb",
      "to": "0x0763196a091575adf99e2306e5e90e0be5154841",
      "contractAddress": null,
      "l1BaseFeeScalar": "0x1db0",
      "l1BlobBaseFee": "0x1",
      "l1BlobBaseFeeScalar": "0xd2730",
      "l1Fee": "0xc3",
      "l1GasPrice": "0x9",
      "l1GasUsed": "0x640"
    },
    {
      "status": "0x1",
      "cumulativeGasUsed": "0x1e2aa",
      "logs": [
        {
          "address": "0x31377888146f3253211efef5c676d41ece7d58fe",
          "topics": [
            "0x6eb224fb001ed210e379b335e35efe88672a8ce935d981a6896b27ffdf52a3b2",
            "0x0000000000000000000000000763196a091575adf99e2306e5e90e0be5154841"
          ],
          "data": "0x00000000000000000000000000000000000000000000000000000000000000050000000000000000000000000000000000000000000000000000000000000000000000000000000000000000000000000000000000000000000000000000008000000000000000000000000000000000000000000000000000000000000000c8000000000000000000000000000000000000000000000000000000000000002618fc67c227140000000000000000000000000763196a091575adf99e2306e5e90e0be51548410000000000000000000000000000000000000000000000000000",
          "blockHash": "0x1f455471f75b441f9be4da47e80e97a4789d0db22bcaf52c7c8d87692eab3b9c",
          "blockNumber": "0x21708f0",
          "blockTimestamp": "0x6904ed8c",
          "transactionHash": "0xfc787ec54cce622687b5a26a2ab039bb04ca932ff5fc53e7056a581a498d7a9c",
          "transactionIndex": "0x1",
          "logIndex": "0x0",
          "removed": false
        },
        {
          "address": "0x0763196a091575adf99e2306e5e90e0be5154841",
          "topics": [
            "0xa559263ee060c7a2560843b3a064ff0376c9753ae3e2449b595a3b615d326466"
          ],
          "data": "0x00000000000000000000000000000000000000000000000000000000000027140000000000000000000000000763196a091575adf99e2306e5e90e0be5154841",
          "blockHash": "0x1f455471f75b441f9be4da47e80e97a4789d0db22bcaf52c7c8d87692eab3b9c",
          "blockNumber": "0x21708f0",
          "blockTimestamp": "0x6904ed8c",
          "transactionHash": "0xfc787ec54cce622687b5a26a2ab039bb04ca932ff5fc53e7056a581a498d7a9c",
          "transactionIndex": "0x1",
          "logIndex": "0x1",
          "removed": false
        }
      ],
      "logsBloom": "0x00000000000100000000000000000000000000000000000000000000000000000010000000000000000000000010000000000000000000000000000000000000000000000000000000000000000000000000000100000000000000000001000000000040100000001000000000000000000000000000000000000000000000000000000000000000000000000000000000000000000000000000000000000000002000000400000000000000000000000000004000000000000000008000000000000000000000000000000000000000000000000000000000000000000000000000000000000000210000000000000000000000000000000000080000000000",
      "type": "0x2",
      "transactionHash": "0xfc787ec54cce622687b5a26a2ab039bb04ca932ff5fc53e7056a581a498d7a9c",
      "transactionIndex": "0x1",
      "blockHash": "0x1f455471f75b441f9be4da47e80e97a4789d0db22bcaf52c7c8d87692eab3b9c",
      "blockNumber": "0x21708f0",
      "gasUsed": "0x12e8e",
      "effectiveGasPrice": "0xf433a",
      "from": "0xf2f1acbe0ba726fee8d75f3e32900526874740bb",
      "to": "0x0763196a091575adf99e2306e5e90e0be5154841",
      "contractAddress": null,
      "l1BaseFeeScalar": "0x1db0",
      "l1BlobBaseFee": "0x1",
      "l1BlobBaseFeeScalar": "0xd2730",
      "l1Fee": "0xc3",
      "l1GasPrice": "0x9",
      "l1GasUsed": "0x640"
    },
    {
      "status": "0x1",
      "cumulativeGasUsed": "0x9e910",
      "logs": [
        {
          "address": "0x0763196a091575adf99e2306e5e90e0be5154841",
          "topics": [
            "0x4add57d97a7bf5035340ea1212aeeb3d4d3887eb1faf3821a8224c3a6956a10c"
          ],
          "data": "0x00000000000000000000000000000000000000000000000000000000000027140000000000000000000000000000000000000000000000000000000000000001",
          "blockHash": "0x792e3e167bd4004884644f0f0971a988ea669e4f3c442abd501a0c64aded1a61",
          "blockNumber": "0x21708f1",
          "blockTimestamp": "0x6904ed8e",
          "transactionHash": "0xbd4dc367e194922411c44ae02f37421c536e5c0f0fa11c25ff7665780e4dc7c0",
          "transactionIndex": "0x3",
          "logIndex": "0x4",
          "removed": false
        }
      ],
      "logsBloom": "0x00000000000000080000000000000000000000000000000000000000000000000000000000000000000000000000000000000000000000000000000000000000000000000000000000000000000000000000000000000000000000000001000000000000000000001000000000000000000000000000000000000080000000000000000000000000000000000000000000000000000000000000000000000000002000000000000000000000000000000000000000000000000000000000000000000000000000000000000000000000000000000000000000000000000000000000000000000000000000000000000000000040000000000000000000000000",
      "type": "0x2",
      "transactionHash": "0xbd4dc367e194922411c44ae02f37421c536e5c0f0fa11c25ff7665780e4dc7c0",
      "transactionIndex": "0x3",
      "blockHash": "0x792e3e167bd4004884644f0f0971a988ea669e4f3c442abd501a0c64aded1a61",
      "blockNumber": "0x21708f1",
      "gasUsed": "0xcde0",
      "effectiveGasPrice": "0xf433a",
      "from": "0xf2f1acbe0ba726fee8d75f3e32900526874740bb",
      "to": "0x0763196a091575adf99e2306e5e90e0be5154841",
      "contractAddress": null,
      "l1BaseFeeScalar": "0x1db0",
      "l1BlobBaseFee": "0x1",
      "l1BlobBaseFeeScalar": "0xd2730",
      "l1Fee": "0xa2d",
      "l1GasPrice": "0x9",
      "l1GasUsed": "0x640"
    }
  ],
  "libraries": [],
  "pending": [],
  "returns": {},
  "timestamp": 1761930636,
  "chain": 11155420,
  "commit": "3893460"
}
