{
  "transactions": [
    {
      "hash": "0x45ed85a005efaa06dbc0a047f01723f26b4ccc59c6b9f826af039a69f668f748",
      "transactionType": "CALL",
      "contractName": null,
      "contractAddress": "0x0763196a091575adf99e2306e5e90e0be5154841",
      "function": "setWormholePeer(uint16,bytes32)",
      "arguments": [
        "1",
        "0xfcbdac3b256685bd2cc3a97bfcd815fb76b8d33df924e607c409c0bce3fa1668"
      ],
      "transaction": {
        "from": "0xf2f1acbe0ba726fee8d75f3e32900526874740bb",
        "to": "0x0763196a091575adf99e2306e5e90e0be5154841",
        "gas": "0x14659",
        "value": "0x0",
        "input": "0x7ab564030000000000000000000000000000000000000000000000000000000000000001fcbdac3b256685bd2cc3a97bfcd815fb76b8d33df924e607c409c0bce3fa1668",
        "nonce": "0x46",
        "chainId": "0xaa37dc"
      },
      "additionalContracts": [],
      "isFixedGasLimit": false
    }
  ],
  "receipts": [
    {
      "status": "0x1",
      "cumulativeGasUsed": "0x1e97ad",
      "logs": [
        {
          "address": "0x31377888146f3253211efef5c676d41ece7d58fe",
          "topics": [
            "0x6eb224fb001ed210e379b335e35efe88672a8ce935d981a6896b27ffdf52a3b2",
            "0x0000000000000000000000000763196a091575adf99e2306e5e90e0be5154841"
          ],
          "data": "0x00000000000000000000000000000000000000000000000000000000000000040000000000000000000000000000000000000000000000000000000000000000000000000000000000000000000000000000000000000000000000000000008000000000000000000000000000000000000000000000000000000000000000c8000000000000000000000000000000000000000000000000000000000000002618fc67c20001fcbdac3b256685bd2cc3a97bfcd815fb76b8d33df924e607c409c0bce3fa16680000000000000000000000000000000000000000000000000000",
          "blockHash": "0x8144506987bf56fbc55616dfea08d769dda13a6d85b0adf8301aadc2670267b8",
          "blockNumber": "0x17d88aa",
          "transactionHash": "0x45ed85a005efaa06dbc0a047f01723f26b4ccc59c6b9f826af039a69f668f748",
          "transactionIndex": "0x4",
          "logIndex": "0x4",
          "removed": false
        },
        {
          "address": "0x0763196a091575adf99e2306e5e90e0be5154841",
          "topics": [
            "0xa559263ee060c7a2560843b3a064ff0376c9753ae3e2449b595a3b615d326466"
          ],
          "data": "0x0000000000000000000000000000000000000000000000000000000000000001fcbdac3b256685bd2cc3a97bfcd815fb76b8d33df924e607c409c0bce3fa1668",
          "blockHash": "0x8144506987bf56fbc55616dfea08d769dda13a6d85b0adf8301aadc2670267b8",
          "blockNumber": "0x17d88aa",
          "transactionHash": "0x45ed85a005efaa06dbc0a047f01723f26b4ccc59c6b9f826af039a69f668f748",
          "transactionIndex": "0x4",
          "logIndex": "0x5",
          "removed": false
        }
      ],
      "logsBloom": "0x00000000000100000000000000000000000000000000000000000000000000000010000000000000000000000010000000000000000000000000000000000000000000000000000000000000000000000000000100000000000000000001000000000040100000001000000000000000000000000000000000000000000000000000000000000000000000000000000000000000000000000000000000000000002000000400000000000000000000000000004000000000000000008000000000000000000000000000000000000000000000000000000000000000000000000000000000000000210000000000000000000000000000000000080000000000",
      "type": "0x2",
      "transactionHash": "0x45ed85a005efaa06dbc0a047f01723f26b4ccc59c6b9f826af039a69f668f748",
      "transactionIndex": "0x4",
      "blockHash": "0x8144506987bf56fbc55616dfea08d769dda13a6d85b0adf8301aadc2670267b8",
      "blockNumber": "0x17d88aa",
      "gasUsed": "0xec46",
      "effectiveGasPrice": "0xf433d",
      "from": "0xf2f1acbe0ba726fee8d75f3e32900526874740bb",
      "to": "0x0763196a091575adf99e2306e5e90e0be5154841",
      "contractAddress": null,
      "l1BaseFeeScalar": "0x1db0",
      "l1BlobBaseFee": "0x1",
      "l1BlobBaseFeeScalar": "0xd2730",
      "l1Fee": "0x17e99de3da",
      "l1GasPrice": "0x1f76c2465",
      "l1GasUsed": "0x640"
    }
  ],
  "libraries": [],
  "pending": [],
  "returns": {},
  "timestamp": 1741810945,
  "chain": 11155420,
  "commit": "335be00"
}
