{
  "transactions": [
    {
      "hash": "0xdac89465e17bf07b6bf18e8703a4a9dbe5d29f6ef4cd5c0966625e791fd246a3",
      "transactionType": "CALL",
      "contractName": null,
      "contractAddress": "0xb1725758f7255b025cdbf2814bc428b403623562",
      "function": "setIsWormholeRelayingEnabled(uint16,bool)",
      "arguments": ["10002", "true"],
      "transaction": {
        "from": "0xc68d74f5a99a2c1f3e3625e1d69919e2b77ac7d2",
        "to": "0xb1725758f7255b025cdbf2814bc428b403623562",
        "gas": "0x12b75",
        "value": "0x0",
        "input": "0x657b3b2f00000000000000000000000000000000000000000000000000000000000027120000000000000000000000000000000000000000000000000000000000000001",
        "nonce": "0x29",
        "chainId": "0xaa37dc"
      },
      "additionalContracts": [],
      "isFixedGasLimit": false
    },
    {
      "hash": "0x84a60897f3b9f3b42360edae9212cec8ee4abcbefc459425542ff4b2e5af6fbb",
      "transactionType": "CALL",
      "contractName": null,
      "contractAddress": "0xb1725758f7255b025cdbf2814bc428b403623562",
      "function": "setWormholePeer(uint16,bytes32)",
      "arguments": [
        "10002",
        "0x000000000000000000000000b1725758f7255b025cdbf2814bc428b403623562"
      ],
      "transaction": {
        "from": "0xc68d74f5a99a2c1f3e3625e1d69919e2b77ac7d2",
        "to": "0xb1725758f7255b025cdbf2814bc428b403623562",
        "gas": "0x1a258",
        "value": "0x0",
        "input": "0x7ab564030000000000000000000000000000000000000000000000000000000000002712000000000000000000000000b1725758f7255b025cdbf2814bc428b403623562",
        "nonce": "0x2a",
        "chainId": "0xaa37dc"
      },
      "additionalContracts": [],
      "isFixedGasLimit": false
    },
    {
      "hash": "0x9cf2439f57268a4de15500c8a7aecd32283f441c6539e43402ee4cc22d4bb053",
      "transactionType": "CALL",
      "contractName": null,
      "contractAddress": "0xb1725758f7255b025cdbf2814bc428b403623562",
      "function": "setIsWormholeEvmChain(uint16,bool)",
      "arguments": ["10002", "true"],
      "transaction": {
        "from": "0xc68d74f5a99a2c1f3e3625e1d69919e2b77ac7d2",
        "to": "0xb1725758f7255b025cdbf2814bc428b403623562",
        "gas": "0x11c5d",
        "value": "0x0",
        "input": "0x96dddc6300000000000000000000000000000000000000000000000000000000000027120000000000000000000000000000000000000000000000000000000000000001",
        "nonce": "0x2b",
        "chainId": "0xaa37dc"
      },
      "additionalContracts": [],
      "isFixedGasLimit": false
    },
    {
      "hash": "0xe9a0f80c311d5e0d28ff15a4ff3da0402d1298bf1367b02164e40049df66d0b9",
      "transactionType": "CALL",
      "contractName": null,
      "contractAddress": "0xb1725758f7255b025cdbf2814bc428b403623562",
      "function": "setIsWormholeRelayingEnabled(uint16,bool)",
      "arguments": ["10003", "true"],
      "transaction": {
        "from": "0xc68d74f5a99a2c1f3e3625e1d69919e2b77ac7d2",
        "to": "0xb1725758f7255b025cdbf2814bc428b403623562",
        "gas": "0x12b75",
        "value": "0x0",
        "input": "0x657b3b2f00000000000000000000000000000000000000000000000000000000000027130000000000000000000000000000000000000000000000000000000000000001",
        "nonce": "0x2c",
        "chainId": "0xaa37dc"
      },
      "additionalContracts": [],
      "isFixedGasLimit": false
    },
    {
      "hash": "0x1121abe10bd01f3b111275b1fdf25a9fbf970c534da7ac17e1a0c2eb23e22763",
      "transactionType": "CALL",
      "contractName": null,
      "contractAddress": "0xb1725758f7255b025cdbf2814bc428b403623562",
      "function": "setWormholePeer(uint16,bytes32)",
      "arguments": [
        "10003",
        "0x000000000000000000000000b1725758f7255b025cdbf2814bc428b403623562"
      ],
      "transaction": {
        "from": "0xc68d74f5a99a2c1f3e3625e1d69919e2b77ac7d2",
        "to": "0xb1725758f7255b025cdbf2814bc428b403623562",
        "gas": "0x1a258",
        "value": "0x0",
        "input": "0x7ab564030000000000000000000000000000000000000000000000000000000000002713000000000000000000000000b1725758f7255b025cdbf2814bc428b403623562",
        "nonce": "0x2d",
        "chainId": "0xaa37dc"
      },
      "additionalContracts": [],
      "isFixedGasLimit": false
    },
    {
      "hash": "0x91db56aa63d23b3c3dc69c841ba387353027c3e386850d5e791c44b4e4d560c3",
      "transactionType": "CALL",
      "contractName": null,
      "contractAddress": "0xb1725758f7255b025cdbf2814bc428b403623562",
      "function": "setIsWormholeEvmChain(uint16,bool)",
      "arguments": ["10003", "true"],
      "transaction": {
        "from": "0xc68d74f5a99a2c1f3e3625e1d69919e2b77ac7d2",
        "to": "0xb1725758f7255b025cdbf2814bc428b403623562",
        "gas": "0x11c5d",
        "value": "0x0",
        "input": "0x96dddc6300000000000000000000000000000000000000000000000000000000000027130000000000000000000000000000000000000000000000000000000000000001",
        "nonce": "0x2e",
        "chainId": "0xaa37dc"
      },
      "additionalContracts": [],
      "isFixedGasLimit": false
    },
    {
      "hash": "0x91e743f5f1a6edabb580c0beb7cc0aba3ea1a901f248566dd35ac0ff7cb04ffe",
      "transactionType": "CALL",
      "contractName": null,
      "contractAddress": "0xf1669804140fa31cdaa805a1b3be91e6282d5e41",
      "function": "setPeer(uint16,bytes32,uint8,uint256)",
      "arguments": [
        "10002",
        "0x000000000000000000000000f1669804140fa31cdaa805a1b3be91e6282d5e41",
        "6",
        "0"
      ],
      "transaction": {
        "from": "0xc68d74f5a99a2c1f3e3625e1d69919e2b77ac7d2",
        "to": "0xf1669804140fa31cdaa805a1b3be91e6282d5e41",
        "gas": "0x1b15a",
        "value": "0x0",
        "input": "0x7c9186340000000000000000000000000000000000000000000000000000000000002712000000000000000000000000f1669804140fa31cdaa805a1b3be91e6282d5e4100000000000000000000000000000000000000000000000000000000000000060000000000000000000000000000000000000000000000000000000000000000",
        "nonce": "0x2f",
        "chainId": "0xaa37dc"
      },
      "additionalContracts": [],
      "isFixedGasLimit": false
    },
    {
      "hash": "0x7806b8464ce2e0fec537206d84012f5bdf40bad135e9be095786544d556a6f6b",
      "transactionType": "CALL",
      "contractName": null,
      "contractAddress": "0xf1669804140fa31cdaa805a1b3be91e6282d5e41",
      "function": "setDestinationMToken(uint16,bytes32)",
      "arguments": [
        "10002",
        "0x000000000000000000000000245902cab620e32df09da4a26094064e096dd480"
      ],
      "transaction": {
        "from": "0xc68d74f5a99a2c1f3e3625e1d69919e2b77ac7d2",
        "to": "0xf1669804140fa31cdaa805a1b3be91e6282d5e41",
        "gas": "0x11d64",
        "value": "0x0",
        "input": "0x76a4a5390000000000000000000000000000000000000000000000000000000000002712000000000000000000000000245902cab620e32df09da4a26094064e096dd480",
        "nonce": "0x30",
        "chainId": "0xaa37dc"
      },
      "additionalContracts": [],
      "isFixedGasLimit": false
    },
    {
      "hash": "0xc727e1827a18dea393d58b64b2ead280f4647112157e28815581cffb91aadf5a",
      "transactionType": "CALL",
      "contractName": null,
      "contractAddress": "0xf1669804140fa31cdaa805a1b3be91e6282d5e41",
      "function": "setSupportedBridgingPath(address,uint16,bytes32,bool)",
      "arguments": [
        "0x58582438ab47FfA2206570AC93E85B42640bef09",
        "10002",
        "0x000000000000000000000000245902cab620e32df09da4a26094064e096dd480",
        "true"
      ],
      "transaction": {
        "from": "0xc68d74f5a99a2c1f3e3625e1d69919e2b77ac7d2",
        "to": "0xf1669804140fa31cdaa805a1b3be91e6282d5e41",
        "gas": "0x12407",
        "value": "0x0",
        "input": "0x1482cb4a00000000000000000000000058582438ab47ffa2206570ac93e85b42640bef090000000000000000000000000000000000000000000000000000000000002712000000000000000000000000245902cab620e32df09da4a26094064e096dd4800000000000000000000000000000000000000000000000000000000000000001",
        "nonce": "0x31",
        "chainId": "0xaa37dc"
      },
      "additionalContracts": [],
      "isFixedGasLimit": false
    },
    {
      "hash": "0x3c5192cc153c7a288f0b44eb3dcba542e7cc3b593a44339c53808078aaed7f1e",
      "transactionType": "CALL",
      "contractName": null,
      "contractAddress": "0xf1669804140fa31cdaa805a1b3be91e6282d5e41",
      "function": "setSupportedBridgingPath(address,uint16,bytes32,bool)",
      "arguments": [
        "0x71c72Ee9F587DAC1df749940c7581E4BbC789F85",
        "10002",
        "0x000000000000000000000000245902cab620e32df09da4a26094064e096dd480",
        "true"
      ],
      "transaction": {
        "from": "0xc68d74f5a99a2c1f3e3625e1d69919e2b77ac7d2",
        "to": "0xf1669804140fa31cdaa805a1b3be91e6282d5e41",
        "gas": "0x12407",
        "value": "0x0",
        "input": "0x1482cb4a00000000000000000000000071c72ee9f587dac1df749940c7581e4bbc789f850000000000000000000000000000000000000000000000000000000000002712000000000000000000000000245902cab620e32df09da4a26094064e096dd4800000000000000000000000000000000000000000000000000000000000000001",
        "nonce": "0x32",
        "chainId": "0xaa37dc"
      },
      "additionalContracts": [],
      "isFixedGasLimit": false
    },
    {
      "hash": "0xa734efffb96ea62fd51d3294aa3d7a7379756150819cf42b6280adba30c65c85",
      "transactionType": "CALL",
      "contractName": null,
      "contractAddress": "0xf1669804140fa31cdaa805a1b3be91e6282d5e41",
      "function": "setSupportedBridgingPath(address,uint16,bytes32,bool)",
      "arguments": [
        "0x58582438ab47FfA2206570AC93E85B42640bef09",
        "10002",
        "0x000000000000000000000000e91a93a2b782781744a07118bab5855fb256b881",
        "true"
      ],
      "transaction": {
        "from": "0xc68d74f5a99a2c1f3e3625e1d69919e2b77ac7d2",
        "to": "0xf1669804140fa31cdaa805a1b3be91e6282d5e41",
        "gas": "0x12407",
        "value": "0x0",
        "input": "0x1482cb4a00000000000000000000000058582438ab47ffa2206570ac93e85b42640bef090000000000000000000000000000000000000000000000000000000000002712000000000000000000000000e91a93a2b782781744a07118bab5855fb256b8810000000000000000000000000000000000000000000000000000000000000001",
        "nonce": "0x33",
        "chainId": "0xaa37dc"
      },
      "additionalContracts": [],
      "isFixedGasLimit": false
    },
    {
      "hash": "0xf6a622105f8c27309cce1d9c140d9cd41f42d1b5d51f578e8a37b9b3f00df054",
      "transactionType": "CALL",
      "contractName": null,
      "contractAddress": "0xf1669804140fa31cdaa805a1b3be91e6282d5e41",
      "function": "setSupportedBridgingPath(address,uint16,bytes32,bool)",
      "arguments": [
        "0x71c72Ee9F587DAC1df749940c7581E4BbC789F85",
        "10002",
        "0x000000000000000000000000e91a93a2b782781744a07118bab5855fb256b881",
        "true"
      ],
      "transaction": {
        "from": "0xc68d74f5a99a2c1f3e3625e1d69919e2b77ac7d2",
        "to": "0xf1669804140fa31cdaa805a1b3be91e6282d5e41",
        "gas": "0x12407",
        "value": "0x0",
        "input": "0x1482cb4a00000000000000000000000071c72ee9f587dac1df749940c7581e4bbc789f850000000000000000000000000000000000000000000000000000000000002712000000000000000000000000e91a93a2b782781744a07118bab5855fb256b8810000000000000000000000000000000000000000000000000000000000000001",
        "nonce": "0x34",
        "chainId": "0xaa37dc"
      },
      "additionalContracts": [],
      "isFixedGasLimit": false
    },
    {
      "hash": "0x92877029a8014db1c3f7be7528fd9697685d246a448294aaf1a897e834ebe09e",
      "transactionType": "CALL",
      "contractName": null,
      "contractAddress": "0xf1669804140fa31cdaa805a1b3be91e6282d5e41",
      "function": "setPeer(uint16,bytes32,uint8,uint256)",
      "arguments": [
        "10003",
        "0x000000000000000000000000f1669804140fa31cdaa805a1b3be91e6282d5e41",
        "6",
        "0"
      ],
      "transaction": {
        "from": "0xc68d74f5a99a2c1f3e3625e1d69919e2b77ac7d2",
        "to": "0xf1669804140fa31cdaa805a1b3be91e6282d5e41",
        "gas": "0x1b15a",
        "value": "0x0",
        "input": "0x7c9186340000000000000000000000000000000000000000000000000000000000002713000000000000000000000000f1669804140fa31cdaa805a1b3be91e6282d5e4100000000000000000000000000000000000000000000000000000000000000060000000000000000000000000000000000000000000000000000000000000000",
        "nonce": "0x35",
        "chainId": "0xaa37dc"
      },
      "additionalContracts": [],
      "isFixedGasLimit": false
    },
    {
      "hash": "0x09d398a654e28110b2514b5d47078ec0f695b373b916a3d64f09601431a3ee56",
      "transactionType": "CALL",
      "contractName": null,
      "contractAddress": "0xf1669804140fa31cdaa805a1b3be91e6282d5e41",
      "function": "setDestinationMToken(uint16,bytes32)",
      "arguments": [
        "10003",
        "0x00000000000000000000000058582438ab47ffa2206570ac93e85b42640bef09"
      ],
      "transaction": {
        "from": "0xc68d74f5a99a2c1f3e3625e1d69919e2b77ac7d2",
        "to": "0xf1669804140fa31cdaa805a1b3be91e6282d5e41",
        "gas": "0x11d64",
        "value": "0x0",
        "input": "0x76a4a539000000000000000000000000000000000000000000000000000000000000271300000000000000000000000058582438ab47ffa2206570ac93e85b42640bef09",
        "nonce": "0x36",
        "chainId": "0xaa37dc"
      },
      "additionalContracts": [],
      "isFixedGasLimit": false
    },
    {
      "hash": "0xc2a8783c8f52b4bcbb18f869273a61f278da5eabf2760e61881e85b3501e6068",
      "transactionType": "CALL",
      "contractName": null,
      "contractAddress": "0xf1669804140fa31cdaa805a1b3be91e6282d5e41",
      "function": "setSupportedBridgingPath(address,uint16,bytes32,bool)",
      "arguments": [
        "0x58582438ab47FfA2206570AC93E85B42640bef09",
        "10003",
        "0x00000000000000000000000058582438ab47ffa2206570ac93e85b42640bef09",
        "true"
      ],
      "transaction": {
        "from": "0xc68d74f5a99a2c1f3e3625e1d69919e2b77ac7d2",
        "to": "0xf1669804140fa31cdaa805a1b3be91e6282d5e41",
        "gas": "0x12407",
        "value": "0x0",
        "input": "0x1482cb4a00000000000000000000000058582438ab47ffa2206570ac93e85b42640bef09000000000000000000000000000000000000000000000000000000000000271300000000000000000000000058582438ab47ffa2206570ac93e85b42640bef090000000000000000000000000000000000000000000000000000000000000001",
        "nonce": "0x37",
        "chainId": "0xaa37dc"
      },
      "additionalContracts": [],
      "isFixedGasLimit": false
    },
    {
      "hash": "0x4b7cc5512795805c7d3cd3877acefdf0033c27cbb70e5a564a935710ebc90fee",
      "transactionType": "CALL",
      "contractName": null,
      "contractAddress": "0xf1669804140fa31cdaa805a1b3be91e6282d5e41",
      "function": "setSupportedBridgingPath(address,uint16,bytes32,bool)",
      "arguments": [
        "0x71c72Ee9F587DAC1df749940c7581E4BbC789F85",
        "10003",
        "0x00000000000000000000000058582438ab47ffa2206570ac93e85b42640bef09",
        "true"
      ],
      "transaction": {
        "from": "0xc68d74f5a99a2c1f3e3625e1d69919e2b77ac7d2",
        "to": "0xf1669804140fa31cdaa805a1b3be91e6282d5e41",
        "gas": "0x12407",
        "value": "0x0",
        "input": "0x1482cb4a00000000000000000000000071c72ee9f587dac1df749940c7581e4bbc789f85000000000000000000000000000000000000000000000000000000000000271300000000000000000000000058582438ab47ffa2206570ac93e85b42640bef090000000000000000000000000000000000000000000000000000000000000001",
        "nonce": "0x38",
        "chainId": "0xaa37dc"
      },
      "additionalContracts": [],
      "isFixedGasLimit": false
    },
    {
      "hash": "0xa41fb902297f6841ae231c6d4d1b6beea4f25de3456ca3eb5373882973d93c84",
      "transactionType": "CALL",
      "contractName": null,
      "contractAddress": "0xf1669804140fa31cdaa805a1b3be91e6282d5e41",
      "function": "setSupportedBridgingPath(address,uint16,bytes32,bool)",
      "arguments": [
        "0x58582438ab47FfA2206570AC93E85B42640bef09",
        "10003",
        "0x00000000000000000000000071c72ee9f587dac1df749940c7581e4bbc789f85",
        "true"
      ],
      "transaction": {
        "from": "0xc68d74f5a99a2c1f3e3625e1d69919e2b77ac7d2",
        "to": "0xf1669804140fa31cdaa805a1b3be91e6282d5e41",
        "gas": "0x12407",
        "value": "0x0",
        "input": "0x1482cb4a00000000000000000000000058582438ab47ffa2206570ac93e85b42640bef09000000000000000000000000000000000000000000000000000000000000271300000000000000000000000071c72ee9f587dac1df749940c7581e4bbc789f850000000000000000000000000000000000000000000000000000000000000001",
        "nonce": "0x39",
        "chainId": "0xaa37dc"
      },
      "additionalContracts": [],
      "isFixedGasLimit": false
    },
    {
      "hash": "0xa47d980198e6166669a3b4bae5d871671a813a399c144bc7b4dac5bb879c89b4",
      "transactionType": "CALL",
      "contractName": null,
      "contractAddress": "0xf1669804140fa31cdaa805a1b3be91e6282d5e41",
      "function": "setSupportedBridgingPath(address,uint16,bytes32,bool)",
      "arguments": [
        "0x71c72Ee9F587DAC1df749940c7581E4BbC789F85",
        "10003",
        "0x00000000000000000000000071c72ee9f587dac1df749940c7581e4bbc789f85",
        "true"
      ],
      "transaction": {
        "from": "0xc68d74f5a99a2c1f3e3625e1d69919e2b77ac7d2",
        "to": "0xf1669804140fa31cdaa805a1b3be91e6282d5e41",
        "gas": "0x12407",
        "value": "0x0",
        "input": "0x1482cb4a00000000000000000000000071c72ee9f587dac1df749940c7581e4bbc789f85000000000000000000000000000000000000000000000000000000000000271300000000000000000000000071c72ee9f587dac1df749940c7581e4bbc789f850000000000000000000000000000000000000000000000000000000000000001",
        "nonce": "0x3a",
        "chainId": "0xaa37dc"
      },
      "additionalContracts": [],
      "isFixedGasLimit": false
    }
  ],
  "receipts": [
    {
      "status": "0x1",
      "cumulativeGasUsed": "0x2611d4",
      "logs": [
        {
          "address": "0xb1725758f7255b025cdbf2814bc428b403623562",
          "topics": [
            "0x528b18a533e892b5401d1fb63597275df9d2bb45b13e7695c3147cd07b9746c3"
          ],
          "data": "0x00000000000000000000000000000000000000000000000000000000000027120000000000000000000000000000000000000000000000000000000000000001",
          "blockHash": "0x50336e26ec8cfd681959e6ccbd021d0d3cc9f1885c28f7777c4da29b512ea379",
          "blockNumber": "0x1665a3e",
          "transactionHash": "0xdac89465e17bf07b6bf18e8703a4a9dbe5d29f6ef4cd5c0966625e791fd246a3",
          "transactionIndex": "0x11",
          "logIndex": "0x3a",
          "removed": false
        }
      ],
      "logsBloom": "0x00000000000000000000000000000000000000000000000000000000000080000000000000400000000000000000000000000000001000000000000000000000000000000000000000000000800000000000000000000000000000000000000000000010000000000000000000000000000000000000000000000000000000000000000000000000000000000000000000000000000000000000000000000000000000000000000000000000000000000000000000000000000000000000000000000000000000000000000000000000000000000000000000000000000000000000000000000000200000000000000000000000000000000000000000000000",
      "type": "0x2",
      "transactionHash": "0xdac89465e17bf07b6bf18e8703a4a9dbe5d29f6ef4cd5c0966625e791fd246a3",
      "transactionIndex": "0x11",
      "blockHash": "0x50336e26ec8cfd681959e6ccbd021d0d3cc9f1885c28f7777c4da29b512ea379",
      "blockNumber": "0x1665a3e",
      "gasUsed": "0xccc2",
      "effectiveGasPrice": "0xc6e2",
      "from": "0xc68d74f5a99a2c1f3e3625e1d69919e2b77ac7d2",
      "to": "0xb1725758f7255b025cdbf2814bc428b403623562",
      "contractAddress": null,
      "l1BaseFeeScalar": "0x1db0",
      "l1BlobBaseFee": "0x1",
      "l1BlobBaseFeeScalar": "0xd2730",
      "l1Fee": "0x7f4be960b8",
      "l1GasPrice": "0xa77ed4c23",
      "l1GasUsed": "0x640"
    },
    {
      "status": "0x1",
      "cumulativeGasUsed": "0x14191d",
      "logs": [
        {
          "address": "0x31377888146f3253211efef5c676d41ece7d58fe",
          "topics": [
            "0x6eb224fb001ed210e379b335e35efe88672a8ce935d981a6896b27ffdf52a3b2",
            "0x000000000000000000000000b1725758f7255b025cdbf2814bc428b403623562"
          ],
          "data": "0x00000000000000000000000000000000000000000000000000000000000000010000000000000000000000000000000000000000000000000000000000000000000000000000000000000000000000000000000000000000000000000000008000000000000000000000000000000000000000000000000000000000000000c8000000000000000000000000000000000000000000000000000000000000002618fc67c22712000000000000000000000000b1725758f7255b025cdbf2814bc428b4036235620000000000000000000000000000000000000000000000000000",
          "blockHash": "0x3171f923281b6aa7d004a93796d193cd460014427b918a9974333b126ff5ec90",
          "blockNumber": "0x1665a3f",
          "transactionHash": "0x84a60897f3b9f3b42360edae9212cec8ee4abcbefc459425542ff4b2e5af6fbb",
          "transactionIndex": "0xe",
          "logIndex": "0x27",
          "removed": false
        },
        {
          "address": "0xb1725758f7255b025cdbf2814bc428b403623562",
          "topics": [
            "0xa559263ee060c7a2560843b3a064ff0376c9753ae3e2449b595a3b615d326466"
          ],
          "data": "0x0000000000000000000000000000000000000000000000000000000000002712000000000000000000000000b1725758f7255b025cdbf2814bc428b403623562",
          "blockHash": "0x3171f923281b6aa7d004a93796d193cd460014427b918a9974333b126ff5ec90",
          "blockNumber": "0x1665a3f",
          "transactionHash": "0x84a60897f3b9f3b42360edae9212cec8ee4abcbefc459425542ff4b2e5af6fbb",
          "transactionIndex": "0xe",
          "logIndex": "0x28",
          "removed": false
        }
      ],
      "logsBloom": "0x00000000000100000000000000000000000000000000000000000000000000000014000000000000000000000010000000000000001000000000000000000000000000000000000000000000000000000000000100000000000000000000000000000050100000000000000000000000000000000000000000000000000000000000000000000400000000000000000000000000000000000000000000000000000000000400000000000000000000010000000000000000000000000000000000000000000000000000000000000000000000000000000000000000000000000000000000000000210000000000000000000000000000000000080000000000",
      "type": "0x2",
      "transactionHash": "0x84a60897f3b9f3b42360edae9212cec8ee4abcbefc459425542ff4b2e5af6fbb",
      "transactionIndex": "0xe",
      "blockHash": "0x3171f923281b6aa7d004a93796d193cd460014427b918a9974333b126ff5ec90",
      "blockNumber": "0x1665a3f",
      "gasUsed": "0x12ee0",
      "effectiveGasPrice": "0xc6e2",
      "from": "0xc68d74f5a99a2c1f3e3625e1d69919e2b77ac7d2",
      "to": "0xb1725758f7255b025cdbf2814bc428b403623562",
      "contractAddress": null,
      "l1BaseFeeScalar": "0x1db0",
      "l1BlobBaseFee": "0x1",
      "l1BlobBaseFeeScalar": "0xd2730",
      "l1Fee": "0x7f4be960b8",
      "l1GasPrice": "0xa77ed4c23",
      "l1GasUsed": "0x640"
    },
    {
      "status": "0x1",
      "cumulativeGasUsed": "0x2669c7",
      "logs": [
        {
          "address": "0xb1725758f7255b025cdbf2814bc428b403623562",
          "topics": [
            "0x4add57d97a7bf5035340ea1212aeeb3d4d3887eb1faf3821a8224c3a6956a10c"
          ],
          "data": "0x00000000000000000000000000000000000000000000000000000000000027120000000000000000000000000000000000000000000000000000000000000001",
          "blockHash": "0x60549df2f63a5efc1e372b68267b2d015dd5f85d2a44944bb72e688ffa4ec5a3",
          "blockNumber": "0x1665a40",
          "transactionHash": "0x9cf2439f57268a4de15500c8a7aecd32283f441c6539e43402ee4cc22d4bb053",
          "transactionIndex": "0xf",
          "logIndex": "0x34",
          "removed": false
        }
      ],
      "logsBloom": "0x00000000000000080000000000000000000000000000000000000000000000000000000000000000000000000000000000000000001000000000000000000000000000000000000000000000000000000000000000000000000000000000000000000010000000000000000000000000000000000000000000000080000000000000000000000000000000000000000000000000000000000000000000000000000000000000000000000000000000000000000000000000000000000000000000000000000000000000000000000000000000000000000000000000000000000000000000000000200000000000000000000040000000000000000000000000",
      "type": "0x2",
      "transactionHash": "0x9cf2439f57268a4de15500c8a7aecd32283f441c6539e43402ee4cc22d4bb053",
      "transactionIndex": "0xf",
      "blockHash": "0x60549df2f63a5efc1e372b68267b2d015dd5f85d2a44944bb72e688ffa4ec5a3",
      "blockNumber": "0x1665a40",
      "gasUsed": "0xcde0",
      "effectiveGasPrice": "0xc6e2",
      "from": "0xc68d74f5a99a2c1f3e3625e1d69919e2b77ac7d2",
      "to": "0xb1725758f7255b025cdbf2814bc428b403623562",
      "contractAddress": null,
      "l1BaseFeeScalar": "0x1db0",
      "l1BlobBaseFee": "0x1",
      "l1BlobBaseFeeScalar": "0xd2730",
      "l1Fee": "0x885795754d",
      "l1GasPrice": "0xb365c4a76",
      "l1GasUsed": "0x640"
    },
    {
      "status": "0x1",
      "cumulativeGasUsed": "0x1f1cce",
      "logs": [
        {
          "address": "0xb1725758f7255b025cdbf2814bc428b403623562",
          "topics": [
            "0x528b18a533e892b5401d1fb63597275df9d2bb45b13e7695c3147cd07b9746c3"
          ],
          "data": "0x00000000000000000000000000000000000000000000000000000000000027130000000000000000000000000000000000000000000000000000000000000001",
          "blockHash": "0xdccd06235ad2d7a0062f16176362347ece4322369784e712765c6954d750d440",
          "blockNumber": "0x1665a41",
          "transactionHash": "0xe9a0f80c311d5e0d28ff15a4ff3da0402d1298bf1367b02164e40049df66d0b9",
          "transactionIndex": "0xc",
          "logIndex": "0x28",
          "removed": false
        }
      ],
      "logsBloom": "0x00000000000000000000000000000000000000000000000000000000000080000000000000400000000000000000000000000000001000000000000000000000000000000000000000000000800000000000000000000000000000000000000000000010000000000000000000000000000000000000000000000000000000000000000000000000000000000000000000000000000000000000000000000000000000000000000000000000000000000000000000000000000000000000000000000000000000000000000000000000000000000000000000000000000000000000000000000000200000000000000000000000000000000000000000000000",
      "type": "0x2",
      "transactionHash": "0xe9a0f80c311d5e0d28ff15a4ff3da0402d1298bf1367b02164e40049df66d0b9",
      "transactionIndex": "0xc",
      "blockHash": "0xdccd06235ad2d7a0062f16176362347ece4322369784e712765c6954d750d440",
      "blockNumber": "0x1665a41",
      "gasUsed": "0xccc2",
      "effectiveGasPrice": "0xc6e2",
      "from": "0xc68d74f5a99a2c1f3e3625e1d69919e2b77ac7d2",
      "to": "0xb1725758f7255b025cdbf2814bc428b403623562",
      "contractAddress": null,
      "l1BaseFeeScalar": "0x1db0",
      "l1BlobBaseFee": "0x1",
      "l1BlobBaseFeeScalar": "0xd2730",
      "l1Fee": "0x885795754d",
      "l1GasPrice": "0xb365c4a76",
      "l1GasUsed": "0x640"
    },
    {
      "status": "0x1",
      "cumulativeGasUsed": "0xeb06c",
      "logs": [
        {
          "address": "0x31377888146f3253211efef5c676d41ece7d58fe",
          "topics": [
            "0x6eb224fb001ed210e379b335e35efe88672a8ce935d981a6896b27ffdf52a3b2",
            "0x000000000000000000000000b1725758f7255b025cdbf2814bc428b403623562"
          ],
          "data": "0x00000000000000000000000000000000000000000000000000000000000000020000000000000000000000000000000000000000000000000000000000000000000000000000000000000000000000000000000000000000000000000000008000000000000000000000000000000000000000000000000000000000000000c8000000000000000000000000000000000000000000000000000000000000002618fc67c22713000000000000000000000000b1725758f7255b025cdbf2814bc428b4036235620000000000000000000000000000000000000000000000000000",
          "blockHash": "0x31558066538bded81190204c79ca03d3843acc49a1a533906dd3a59083b36e61",
          "blockNumber": "0x1665a42",
          "transactionHash": "0x1121abe10bd01f3b111275b1fdf25a9fbf970c534da7ac17e1a0c2eb23e22763",
          "transactionIndex": "0xb",
          "logIndex": "0x1b",
          "removed": false
        },
        {
          "address": "0xb1725758f7255b025cdbf2814bc428b403623562",
          "topics": [
            "0xa559263ee060c7a2560843b3a064ff0376c9753ae3e2449b595a3b615d326466"
          ],
          "data": "0x0000000000000000000000000000000000000000000000000000000000002713000000000000000000000000b1725758f7255b025cdbf2814bc428b403623562",
          "blockHash": "0x31558066538bded81190204c79ca03d3843acc49a1a533906dd3a59083b36e61",
          "blockNumber": "0x1665a42",
          "transactionHash": "0x1121abe10bd01f3b111275b1fdf25a9fbf970c534da7ac17e1a0c2eb23e22763",
          "transactionIndex": "0xb",
          "logIndex": "0x1c",
          "removed": false
        }
      ],
      "logsBloom": "0x00000000000100000000000000000000000000000000000000000000000000000014000000000000000000000010000000000000001000000000000000000000000000000000000000000000000000000000000100000000000000000000000000000050100000000000000000000000000000000000000000000000000000000000000000000400000000000000000000000000000000000000000000000000000000000400000000000000000000010000000000000000000000000000000000000000000000000000000000000000000000000000000000000000000000000000000000000000210000000000000000000000000000000000080000000000",
      "type": "0x2",
      "transactionHash": "0x1121abe10bd01f3b111275b1fdf25a9fbf970c534da7ac17e1a0c2eb23e22763",
      "transactionIndex": "0xb",
      "blockHash": "0x31558066538bded81190204c79ca03d3843acc49a1a533906dd3a59083b36e61",
      "blockNumber": "0x1665a42",
      "gasUsed": "0x12ee0",
      "effectiveGasPrice": "0xc6e2",
      "from": "0xc68d74f5a99a2c1f3e3625e1d69919e2b77ac7d2",
      "to": "0xb1725758f7255b025cdbf2814bc428b403623562",
      "contractAddress": null,
      "l1BaseFeeScalar": "0x1db0",
      "l1BlobBaseFee": "0x1",
      "l1BlobBaseFeeScalar": "0xd2730",
      "l1Fee": "0x885795754d",
      "l1GasPrice": "0xb365c4a76",
      "l1GasUsed": "0x640"
    },
    {
      "status": "0x1",
      "cumulativeGasUsed": "0xf5107",
      "logs": [
        {
          "address": "0xb1725758f7255b025cdbf2814bc428b403623562",
          "topics": [
            "0x4add57d97a7bf5035340ea1212aeeb3d4d3887eb1faf3821a8224c3a6956a10c"
          ],
          "data": "0x00000000000000000000000000000000000000000000000000000000000027130000000000000000000000000000000000000000000000000000000000000001",
          "blockHash": "0x763dc6eb7276d4b769b5abeea2f3c4cd9ba179c191af18466945950de762021b",
          "blockNumber": "0x1665a43",
          "transactionHash": "0x91db56aa63d23b3c3dc69c841ba387353027c3e386850d5e791c44b4e4d560c3",
          "transactionIndex": "0xc",
          "logIndex": "0x1c",
          "removed": false
        }
      ],
      "logsBloom": "0x00000000000000080000000000000000000000000000000000000000000000000000000000000000000000000000000000000000001000000000000000000000000000000000000000000000000000000000000000000000000000000000000000000010000000000000000000000000000000000000000000000080000000000000000000000000000000000000000000000000000000000000000000000000000000000000000000000000000000000000000000000000000000000000000000000000000000000000000000000000000000000000000000000000000000000000000000000000200000000000000000000040000000000000000000000000",
      "type": "0x2",
      "transactionHash": "0x91db56aa63d23b3c3dc69c841ba387353027c3e386850d5e791c44b4e4d560c3",
      "transactionIndex": "0xc",
      "blockHash": "0x763dc6eb7276d4b769b5abeea2f3c4cd9ba179c191af18466945950de762021b",
      "blockNumber": "0x1665a43",
      "gasUsed": "0xcde0",
      "effectiveGasPrice": "0xc6e3",
      "from": "0xc68d74f5a99a2c1f3e3625e1d69919e2b77ac7d2",
      "to": "0xb1725758f7255b025cdbf2814bc428b403623562",
      "contractAddress": null,
      "l1BaseFeeScalar": "0x1db0",
      "l1BlobBaseFee": "0x1",
      "l1BlobBaseFeeScalar": "0xd2730",
      "l1Fee": "0x885795754d",
      "l1GasPrice": "0xb365c4a76",
      "l1GasUsed": "0x640"
    },
    {
      "status": "0x1",
      "cumulativeGasUsed": "0xe694e",
      "logs": [
        {
          "address": "0xf1669804140fa31cdaa805a1b3be91e6282d5e41",
          "topics": [
            "0x1456404e7f41f35c3daac941bb50bad417a66275c3040061b4287d787719599d",
            "0x0000000000000000000000000000000000000000000000000000000000002712"
          ],
          "data": "0x00000000000000000000000000000000000000000000000000000000000000000000000000000000000000000000000000000000000000000000000000000000000000000000000000000000f1669804140fa31cdaa805a1b3be91e6282d5e410000000000000000000000000000000000000000000000000000000000000006",
          "blockHash": "0x7735147d711379048794ba9b1f916515dc53e076b596720598a1e9290837c809",
          "blockNumber": "0x1665a44",
          "transactionHash": "0x91e743f5f1a6edabb580c0beb7cc0aba3ea1a901f248566dd35ac0ff7cb04ffe",
          "transactionIndex": "0xa",
          "logIndex": "0x1b",
          "removed": false
        }
      ],
      "logsBloom": "0x00000000000080000000000000000000000000000000000000000040000000000000000000000000002000000000000000000000000000000000000000000000000000000000000000000000000000000000000000000000000000000000000000002000000000000000000000000000000000000000000000000000000000000000000000000000000008000000000000000000000000000000000000000008000000000000000000000040000000000000000000000000000000000000000000400000000000000000000000000000000000000000000000000000000000000000000000000000000000000000000000000000000000000080000000000000",
      "type": "0x2",
      "transactionHash": "0x91e743f5f1a6edabb580c0beb7cc0aba3ea1a901f248566dd35ac0ff7cb04ffe",
      "transactionIndex": "0xa",
      "blockHash": "0x7735147d711379048794ba9b1f916515dc53e076b596720598a1e9290837c809",
      "blockNumber": "0x1665a44",
      "gasUsed": "0x139be",
      "effectiveGasPrice": "0xc6e3",
      "from": "0xc68d74f5a99a2c1f3e3625e1d69919e2b77ac7d2",
      "to": "0xf1669804140fa31cdaa805a1b3be91e6282d5e41",
      "contractAddress": null,
      "l1BaseFeeScalar": "0x1db0",
      "l1BlobBaseFee": "0x1",
      "l1BlobBaseFeeScalar": "0xd2730",
      "l1Fee": "0x885795754d",
      "l1GasPrice": "0xb365c4a76",
      "l1GasUsed": "0x640"
    },
    {
      "status": "0x1",
      "cumulativeGasUsed": "0xeb3e4",
      "logs": [
        {
          "address": "0xf1669804140fa31cdaa805a1b3be91e6282d5e41",
          "topics": [
            "0xe6658eeba76934cef78dc5f420ee40406e4876e8d3e767f7b700c63daf1bf0ba",
            "0x0000000000000000000000000000000000000000000000000000000000002712"
          ],
          "data": "0x000000000000000000000000245902cab620e32df09da4a26094064e096dd480",
          "blockHash": "0x9e4afdb314b6c6e0b5341a7ca10ed866669f212c8b91a152d821ba0caa93963b",
          "blockNumber": "0x1665a46",
          "transactionHash": "0x7806b8464ce2e0fec537206d84012f5bdf40bad135e9be095786544d556a6f6b",
          "transactionIndex": "0xa",
          "logIndex": "0x1c",
          "removed": false
        }
      ],
      "logsBloom": "0x00000000000080000000000000000000000000000000000000000040000000000000000000000000000000000000000000000000000000000000000000000000000000000000000000000000002000000000000000000000000000000000000000000000000000000000000000000000000000000000000000000000000000000000000000000000000000000000000000000000000000000000000000000008000080000000000000000040000000000000000000000000000000000000000000400000000020000000000000000000000000000000000000000000000000000000000000000000000000000000000000000000000000000080000000000000",
      "type": "0x2",
      "transactionHash": "0x7806b8464ce2e0fec537206d84012f5bdf40bad135e9be095786544d556a6f6b",
      "transactionIndex": "0xa",
      "blockHash": "0x9e4afdb314b6c6e0b5341a7ca10ed866669f212c8b91a152d821ba0caa93963b",
      "blockNumber": "0x1665a46",
      "gasUsed": "0xce9f",
      "effectiveGasPrice": "0xc6e3",
      "from": "0xc68d74f5a99a2c1f3e3625e1d69919e2b77ac7d2",
      "to": "0xf1669804140fa31cdaa805a1b3be91e6282d5e41",
      "contractAddress": null,
      "l1BaseFeeScalar": "0x1db0",
      "l1BlobBaseFee": "0x1",
      "l1BlobBaseFeeScalar": "0xd2730",
      "l1Fee": "0x9937a738d1",
      "l1GasPrice": "0xc99a11ec0",
      "l1GasUsed": "0x640"
    },
    {
      "status": "0x1",
      "cumulativeGasUsed": "0x1de5bc",
      "logs": [
        {
          "address": "0xf1669804140fa31cdaa805a1b3be91e6282d5e41",
          "topics": [
            "0xeb8377c150d1438121333afa2027232605a400b1208ae6f9cfa156438e453f6d",
            "0x00000000000000000000000058582438ab47ffa2206570ac93e85b42640bef09",
            "0x0000000000000000000000000000000000000000000000000000000000002712",
            "0x000000000000000000000000245902cab620e32df09da4a26094064e096dd480"
          ],
          "data": "0x0000000000000000000000000000000000000000000000000000000000000001",
          "blockHash": "0x3636f5402ec54d21bd4b2ed1bcae397110b714f5ade261112fba6cf42ef1d298",
          "blockNumber": "0x1665a47",
          "transactionHash": "0xc727e1827a18dea393d58b64b2ead280f4647112157e28815581cffb91aadf5a",
          "transactionIndex": "0x15",
          "logIndex": "0x3a",
          "removed": false
        }
      ],
      "logsBloom": "0x00000008000080000000000000000000000000000000000000000040000000000000000000000008000000000000000000000000000000000000000000000000808000000000000000000000000004000000000000000000000000000000000000000000000010000000000000000000000000000000000000000000000000000000000000000000000000000000000000000000000000000000000000000008000000000000000000000040008000000000000200000000000000000000000000400000000000000000000000000000000000000000000000000000000000000000000000000000000000001000000000000000000000000080000000000000",
      "type": "0x2",
      "transactionHash": "0xc727e1827a18dea393d58b64b2ead280f4647112157e28815581cffb91aadf5a",
      "transactionIndex": "0x15",
      "blockHash": "0x3636f5402ec54d21bd4b2ed1bcae397110b714f5ade261112fba6cf42ef1d298",
      "blockNumber": "0x1665a47",
      "gasUsed": "0xd36d",
      "effectiveGasPrice": "0xc6e3",
      "from": "0xc68d74f5a99a2c1f3e3625e1d69919e2b77ac7d2",
      "to": "0xf1669804140fa31cdaa805a1b3be91e6282d5e41",
      "contractAddress": null,
      "l1BaseFeeScalar": "0x1db0",
      "l1BlobBaseFee": "0x1",
      "l1BlobBaseFeeScalar": "0xd2730",
      "l1Fee": "0xaa93d99a85",
      "l1GasPrice": "0xc99a11ec0",
      "l1GasUsed": "0x6f5"
    },
    {
      "status": "0x1",
      "cumulativeGasUsed": "0x1a82a3",
      "logs": [
        {
          "address": "0xf1669804140fa31cdaa805a1b3be91e6282d5e41",
          "topics": [
            "0xeb8377c150d1438121333afa2027232605a400b1208ae6f9cfa156438e453f6d",
            "0x00000000000000000000000071c72ee9f587dac1df749940c7581e4bbc789f85",
            "0x0000000000000000000000000000000000000000000000000000000000002712",
            "0x000000000000000000000000245902cab620e32df09da4a26094064e096dd480"
          ],
          "data": "0x0000000000000000000000000000000000000000000000000000000000000001",
          "blockHash": "0x63dc2a0d9396bb44be394b7add7cfd8334d79e1aafd01acb556fab70d4127228",
          "blockNumber": "0x1665a48",
          "transactionHash": "0x3c5192cc153c7a288f0b44eb3dcba542e7cc3b593a44339c53808078aaed7f1e",
          "transactionIndex": "0x15",
          "logIndex": "0x30",
          "removed": false
        }
      ],
      "logsBloom": "0x00000008000080000000000000000000000000000000000000000040000000000000000000000008000000000000000000000000000000000000000000000000800000000000000000000000000000000000000000000000000000000000000000000000000010000000000000000000000000000000000000000000000000000000000001000000000000000000000000000000000000000000000000000008000000000000000000000040008000000000000000000000000010000000000000400000000000000000000000000000000000000000000000000000000000000000000000000000000000001000400000000000000000000080000000000000",
      "type": "0x2",
      "transactionHash": "0x3c5192cc153c7a288f0b44eb3dcba542e7cc3b593a44339c53808078aaed7f1e",
      "transactionIndex": "0x15",
      "blockHash": "0x63dc2a0d9396bb44be394b7add7cfd8334d79e1aafd01acb556fab70d4127228",
      "blockNumber": "0x1665a48",
      "gasUsed": "0xd36d",
      "effectiveGasPrice": "0xc6e3",
      "from": "0xc68d74f5a99a2c1f3e3625e1d69919e2b77ac7d2",
      "to": "0xf1669804140fa31cdaa805a1b3be91e6282d5e41",
      "contractAddress": null,
      "l1BaseFeeScalar": "0x1db0",
      "l1BlobBaseFee": "0x1",
      "l1BlobBaseFeeScalar": "0xd2730",
      "l1Fee": "0xaa93d99a85",
      "l1GasPrice": "0xc99a11ec0",
      "l1GasUsed": "0x6f5"
    },
    {
      "status": "0x1",
      "cumulativeGasUsed": "0x3a447a",
      "logs": [
        {
          "address": "0xf1669804140fa31cdaa805a1b3be91e6282d5e41",
          "topics": [
            "0xeb8377c150d1438121333afa2027232605a400b1208ae6f9cfa156438e453f6d",
            "0x00000000000000000000000058582438ab47ffa2206570ac93e85b42640bef09",
            "0x0000000000000000000000000000000000000000000000000000000000002712",
            "0x000000000000000000000000e91a93a2b782781744a07118bab5855fb256b881"
          ],
          "data": "0x0000000000000000000000000000000000000000000000000000000000000001",
          "blockHash": "0x02578b6248cc3f0e91f0cb30e1c72f355f1cd7341e8ba3924aefc1a652f173ec",
          "blockNumber": "0x1665a49",
          "transactionHash": "0xa734efffb96ea62fd51d3294aa3d7a7379756150819cf42b6280adba30c65c85",
          "transactionIndex": "0xb",
          "logIndex": "0x29",
          "removed": false
        }
      ],
      "logsBloom": "0x00000008000080000000000000000000000000000000000000000040000000000000000000200000000000000000000000000000000000000000000000000000808000000000000000000000000004000000000000100000000000000000000000000000000000000000000000000000000000000000000000000000000004000000000000000000000000000000000000000000000000000000000000000008000000000000000000000040008000000000000200000000000000000000000000400000000000000000000000000000000000000000000000000000000000000000000000000000000000000000000000000000000000000080000000000000",
      "type": "0x2",
      "transactionHash": "0xa734efffb96ea62fd51d3294aa3d7a7379756150819cf42b6280adba30c65c85",
      "transactionIndex": "0xb",
      "blockHash": "0x02578b6248cc3f0e91f0cb30e1c72f355f1cd7341e8ba3924aefc1a652f173ec",
      "blockNumber": "0x1665a49",
      "gasUsed": "0xd36d",
      "effectiveGasPrice": "0xc6e3",
      "from": "0xc68d74f5a99a2c1f3e3625e1d69919e2b77ac7d2",
      "to": "0xf1669804140fa31cdaa805a1b3be91e6282d5e41",
      "contractAddress": null,
      "l1BaseFeeScalar": "0x1db0",
      "l1BlobBaseFee": "0x1",
      "l1BlobBaseFeeScalar": "0xd2730",
      "l1Fee": "0xaa93d99a85",
      "l1GasPrice": "0xc99a11ec0",
      "l1GasUsed": "0x6f5"
    },
    {
      "status": "0x1",
      "cumulativeGasUsed": "0x107148",
      "logs": [
        {
          "address": "0xf1669804140fa31cdaa805a1b3be91e6282d5e41",
          "topics": [
            "0xeb8377c150d1438121333afa2027232605a400b1208ae6f9cfa156438e453f6d",
            "0x00000000000000000000000071c72ee9f587dac1df749940c7581e4bbc789f85",
            "0x0000000000000000000000000000000000000000000000000000000000002712",
            "0x000000000000000000000000e91a93a2b782781744a07118bab5855fb256b881"
          ],
          "data": "0x0000000000000000000000000000000000000000000000000000000000000001",
          "blockHash": "0x82cd8a92f0929e46b57f44375707f90d54bbe5d22c1dc1a16440120765c2878d",
          "blockNumber": "0x1665a4b",
          "transactionHash": "0xf6a622105f8c27309cce1d9c140d9cd41f42d1b5d51f578e8a37b9b3f00df054",
          "transactionIndex": "0xb",
          "logIndex": "0x1e",
          "removed": false
        }
      ],
      "logsBloom": "0x00000008000080000000000000000000000000000000000000000040000000000000000000200000000000000000000000000000000000000000000000000000800000000000000000000000000000000000000000100000000000000000000000000000000000000000000000000000000000000000000000000000000004000000000001000000000000000000000000000000000000000000000000000008000000000000000000000040008000000000000000000000000010000000000000400000000000000000000000000000000000000000000000000000000000000000000000000000000000000000400000000000000000000080000000000000",
      "type": "0x2",
      "transactionHash": "0xf6a622105f8c27309cce1d9c140d9cd41f42d1b5d51f578e8a37b9b3f00df054",
      "transactionIndex": "0xb",
      "blockHash": "0x82cd8a92f0929e46b57f44375707f90d54bbe5d22c1dc1a16440120765c2878d",
      "blockNumber": "0x1665a4b",
      "gasUsed": "0xd36d",
      "effectiveGasPrice": "0xc6e4",
      "from": "0xc68d74f5a99a2c1f3e3625e1d69919e2b77ac7d2",
      "to": "0xf1669804140fa31cdaa805a1b3be91e6282d5e41",
      "contractAddress": null,
      "l1BaseFeeScalar": "0x1db0",
      "l1BlobBaseFee": "0x1",
      "l1BlobBaseFeeScalar": "0xd2730",
      "l1Fee": "0xaa93d99a85",
      "l1GasPrice": "0xc99a11ec0",
      "l1GasUsed": "0x6f5"
    },
    {
      "status": "0x1",
      "cumulativeGasUsed": "0x104023",
      "logs": [
        {
          "address": "0xf1669804140fa31cdaa805a1b3be91e6282d5e41",
          "topics": [
            "0x1456404e7f41f35c3daac941bb50bad417a66275c3040061b4287d787719599d",
            "0x0000000000000000000000000000000000000000000000000000000000002713"
          ],
          "data": "0x00000000000000000000000000000000000000000000000000000000000000000000000000000000000000000000000000000000000000000000000000000000000000000000000000000000f1669804140fa31cdaa805a1b3be91e6282d5e410000000000000000000000000000000000000000000000000000000000000006",
          "blockHash": "0xe13597aaab8a45842a7f7630e0d97fe571c7c48543f48d3c28ff4cf27eb52c57",
          "blockNumber": "0x1665a4c",
          "transactionHash": "0x92877029a8014db1c3f7be7528fd9697685d246a448294aaf1a897e834ebe09e",
          "transactionIndex": "0xc",
          "logIndex": "0x1e",
          "removed": false
        }
      ],
      "logsBloom": "0x00000000000080000000000000000000000000000000000000000040000000000100000000000000002000000000000000000000000000000000000000000000000000000000000000000000000000100000000000000000000000000000000000002000000000000000000000000000000000000000000000000000000000000000000000000000000008000000000000000000000000000000000000000000000000000000000000000000000000000000000000000000000000000000000000000000000000000000000000000000000000000000000000000000000000000000000000000000000000000000000000010000000000000080000000000000",
      "type": "0x2",
      "transactionHash": "0x92877029a8014db1c3f7be7528fd9697685d246a448294aaf1a897e834ebe09e",
      "transactionIndex": "0xc",
      "blockHash": "0xe13597aaab8a45842a7f7630e0d97fe571c7c48543f48d3c28ff4cf27eb52c57",
      "blockNumber": "0x1665a4c",
      "gasUsed": "0x139be",
      "effectiveGasPrice": "0xc6e4",
      "from": "0xc68d74f5a99a2c1f3e3625e1d69919e2b77ac7d2",
      "to": "0xf1669804140fa31cdaa805a1b3be91e6282d5e41",
      "contractAddress": null,
      "l1BaseFeeScalar": "0x1db0",
      "l1BlobBaseFee": "0x1",
      "l1BlobBaseFeeScalar": "0xd2730",
      "l1Fee": "0x8ed632bc53",
      "l1GasPrice": "0xbbf16b2d4",
      "l1GasUsed": "0x640"
    },
    {
      "status": "0x1",
      "cumulativeGasUsed": "0x1c1498",
      "logs": [
        {
          "address": "0xf1669804140fa31cdaa805a1b3be91e6282d5e41",
          "topics": [
            "0xe6658eeba76934cef78dc5f420ee40406e4876e8d3e767f7b700c63daf1bf0ba",
            "0x0000000000000000000000000000000000000000000000000000000000002713"
          ],
          "data": "0x00000000000000000000000058582438ab47ffa2206570ac93e85b42640bef09",
          "blockHash": "0xb34260dcb541466e59fef5d66e53a9acff22754a9997fa11d9dee0a444f2b841",
          "blockNumber": "0x1665a4d",
          "transactionHash": "0x09d398a654e28110b2514b5d47078ec0f695b373b916a3d64f09601431a3ee56",
          "transactionIndex": "0xc",
          "logIndex": "0x1e",
          "removed": false
        }
      ],
      "logsBloom": "0x00000000000080000000000000000000000000000000000000000040000000000100000000000000000000000000000000000000000000000000000000000000000000000000000000000000002000100000000000000000000000000000000000000000000000000000000000000000000000000000000000000000000000000000000000000000000000000000000000000000000000000000000000000000000080000000000000000000000000000000000000000000000000000000000000000000000020000000000000000000000000000000000000000000000000000000000000000000000000000000000000010000000000000080000000000000",
      "type": "0x2",
      "transactionHash": "0x09d398a654e28110b2514b5d47078ec0f695b373b916a3d64f09601431a3ee56",
      "transactionIndex": "0xc",
      "blockHash": "0xb34260dcb541466e59fef5d66e53a9acff22754a9997fa11d9dee0a444f2b841",
      "blockNumber": "0x1665a4d",
      "gasUsed": "0xce9f",
      "effectiveGasPrice": "0xc6e4",
      "from": "0xc68d74f5a99a2c1f3e3625e1d69919e2b77ac7d2",
      "to": "0xf1669804140fa31cdaa805a1b3be91e6282d5e41",
      "contractAddress": null,
      "l1BaseFeeScalar": "0x1db0",
      "l1BlobBaseFee": "0x1",
      "l1BlobBaseFeeScalar": "0xd2730",
      "l1Fee": "0x8ed632bc53",
      "l1GasPrice": "0xbbf16b2d4",
      "l1GasUsed": "0x640"
    },
    {
      "status": "0x1",
      "cumulativeGasUsed": "0x1e22c0",
      "logs": [
        {
          "address": "0xf1669804140fa31cdaa805a1b3be91e6282d5e41",
          "topics": [
            "0xeb8377c150d1438121333afa2027232605a400b1208ae6f9cfa156438e453f6d",
            "0x00000000000000000000000058582438ab47ffa2206570ac93e85b42640bef09",
            "0x0000000000000000000000000000000000000000000000000000000000002713",
            "0x00000000000000000000000058582438ab47ffa2206570ac93e85b42640bef09"
          ],
          "data": "0x0000000000000000000000000000000000000000000000000000000000000001",
          "blockHash": "0x2478124c4d569cf52d4ac0bb67a0f17fa60544ffa5608f2bff6fa905fb3d5d43",
          "blockNumber": "0x1665a4f",
          "transactionHash": "0xc2a8783c8f52b4bcbb18f869273a61f278da5eabf2760e61881e85b3501e6068",
          "transactionIndex": "0xf",
          "logIndex": "0x20",
          "removed": false
        }
      ],
      "logsBloom": "0x00000008000080000000000000000000000000000000000000000040000000000100000000000000000000000000000000000000000000000000000000000000808000000000000000000000000004100000000000000000000000000000000000000000000000000000000000000000000000000000000000000000000000000000000000000000000000000000000000000000000000000000000000000000000000000000000000000000008000000000000200000000000000000000000000000000000000000000000000000000000000000000000000000000000000000000000000000000000000000000000000010000000000000080000000000000",
      "type": "0x2",
      "transactionHash": "0xc2a8783c8f52b4bcbb18f869273a61f278da5eabf2760e61881e85b3501e6068",
      "transactionIndex": "0xf",
      "blockHash": "0x2478124c4d569cf52d4ac0bb67a0f17fa60544ffa5608f2bff6fa905fb3d5d43",
      "blockNumber": "0x1665a4f",
      "gasUsed": "0xd36d",
      "effectiveGasPrice": "0xc6e4",
      "from": "0xc68d74f5a99a2c1f3e3625e1d69919e2b77ac7d2",
      "to": "0xf1669804140fa31cdaa805a1b3be91e6282d5e41",
      "contractAddress": null,
      "l1BaseFeeScalar": "0x1db0",
      "l1BlobBaseFee": "0x1",
      "l1BlobBaseFeeScalar": "0xd2730",
      "l1Fee": "0x8ed632bc53",
      "l1GasPrice": "0xbbf16b2d4",
      "l1GasUsed": "0x640"
    },
    {
      "status": "0x1",
      "cumulativeGasUsed": "0x122f0c",
      "logs": [
        {
          "address": "0xf1669804140fa31cdaa805a1b3be91e6282d5e41",
          "topics": [
            "0xeb8377c150d1438121333afa2027232605a400b1208ae6f9cfa156438e453f6d",
            "0x00000000000000000000000071c72ee9f587dac1df749940c7581e4bbc789f85",
            "0x0000000000000000000000000000000000000000000000000000000000002713",
            "0x00000000000000000000000058582438ab47ffa2206570ac93e85b42640bef09"
          ],
          "data": "0x0000000000000000000000000000000000000000000000000000000000000001",
          "blockHash": "0xc424d7298c926de589d7566b8d1d6260d58ac6dbbc026fe8e9254322046ad5db",
          "blockNumber": "0x1665a50",
          "transactionHash": "0x4b7cc5512795805c7d3cd3877acefdf0033c27cbb70e5a564a935710ebc90fee",
          "transactionIndex": "0xd",
          "logIndex": "0x24",
          "removed": false
        }
      ],
      "logsBloom": "0x00000008000080000000000000000000000000000000000000000040000000000100000000000000000000000000000000000000000000000000000000000000808000000000000000000000000004100000000000000000000000000000000000000000000000000000000000000000000000000000000000000000000000000000000001000000000000000000000000000000000000000000000000000000000000000000000000000000008000000000000200000000000010000000000000000000000000000000000000000000000000000000000000000000000000000000000000000000000000000000400000010000000000000080000000000000",
      "type": "0x2",
      "transactionHash": "0x4b7cc5512795805c7d3cd3877acefdf0033c27cbb70e5a564a935710ebc90fee",
      "transactionIndex": "0xd",
      "blockHash": "0xc424d7298c926de589d7566b8d1d6260d58ac6dbbc026fe8e9254322046ad5db",
      "blockNumber": "0x1665a50",
      "gasUsed": "0xd36d",
      "effectiveGasPrice": "0xc6e4",
      "from": "0xc68d74f5a99a2c1f3e3625e1d69919e2b77ac7d2",
      "to": "0xf1669804140fa31cdaa805a1b3be91e6282d5e41",
      "contractAddress": null,
      "l1BaseFeeScalar": "0x1db0",
      "l1BlobBaseFee": "0x1",
      "l1BlobBaseFeeScalar": "0xd2730",
      "l1Fee": "0x9f054b71d0",
      "l1GasPrice": "0xbbf16b2d4",
      "l1GasUsed": "0x6f5"
    },
    {
      "status": "0x1",
      "cumulativeGasUsed": "0x126cef",
      "logs": [
        {
          "address": "0xf1669804140fa31cdaa805a1b3be91e6282d5e41",
          "topics": [
            "0xeb8377c150d1438121333afa2027232605a400b1208ae6f9cfa156438e453f6d",
            "0x00000000000000000000000058582438ab47ffa2206570ac93e85b42640bef09",
            "0x0000000000000000000000000000000000000000000000000000000000002713",
            "0x00000000000000000000000071c72ee9f587dac1df749940c7581e4bbc789f85"
          ],
          "data": "0x0000000000000000000000000000000000000000000000000000000000000001",
          "blockHash": "0x1e8042750654a635dd175ae56265766c695d12497865ab252454fe836d63e6b9",
          "blockNumber": "0x1665a51",
          "transactionHash": "0xa41fb902297f6841ae231c6d4d1b6beea4f25de3456ca3eb5373882973d93c84",
          "transactionIndex": "0xf",
          "logIndex": "0x21",
          "removed": false
        }
      ],
      "logsBloom": "0x00000008000080000000000000000000000000000000000000000040000000000100000000000000000000000000000000000000000000000000000000000000808000000000000000000000000004100000000000000000000000000000000000000000000000000000000000000000000000000000000000000000000000000000000001000000000000000000000000000000000000000000000000000000000000000000000000000000008000000000000200000000000010000000000000000000000000000000000000000000000000000000000000000000000000000000000000000000000000000000400000010000000000000080000000000000",
      "type": "0x2",
      "transactionHash": "0xa41fb902297f6841ae231c6d4d1b6beea4f25de3456ca3eb5373882973d93c84",
      "transactionIndex": "0xf",
      "blockHash": "0x1e8042750654a635dd175ae56265766c695d12497865ab252454fe836d63e6b9",
      "blockNumber": "0x1665a51",
      "gasUsed": "0xd36d",
      "effectiveGasPrice": "0xc6e4",
      "from": "0xc68d74f5a99a2c1f3e3625e1d69919e2b77ac7d2",
      "to": "0xf1669804140fa31cdaa805a1b3be91e6282d5e41",
      "contractAddress": null,
      "l1BaseFeeScalar": "0x1db0",
      "l1BlobBaseFee": "0x1",
      "l1BlobBaseFeeScalar": "0xd2730",
      "l1Fee": "0x9f054b71d0",
      "l1GasPrice": "0xbbf16b2d4",
      "l1GasUsed": "0x6f5"
    },
    {
      "status": "0x1",
      "cumulativeGasUsed": "0x21c8c1",
      "logs": [
        {
          "address": "0xf1669804140fa31cdaa805a1b3be91e6282d5e41",
          "topics": [
            "0xeb8377c150d1438121333afa2027232605a400b1208ae6f9cfa156438e453f6d",
            "0x00000000000000000000000071c72ee9f587dac1df749940c7581e4bbc789f85",
            "0x0000000000000000000000000000000000000000000000000000000000002713",
            "0x00000000000000000000000071c72ee9f587dac1df749940c7581e4bbc789f85"
          ],
          "data": "0x0000000000000000000000000000000000000000000000000000000000000001",
          "blockHash": "0xbe3dd7d404d475a2242741cae74e757b5ff9b1c81ffc39c630cab282a9a88e0a",
          "blockNumber": "0x1665a53",
          "transactionHash": "0xa47d980198e6166669a3b4bae5d871671a813a399c144bc7b4dac5bb879c89b4",
          "transactionIndex": "0xd",
          "logIndex": "0x2d",
          "removed": false
        }
      ],
      "logsBloom": "0x00000008000080000000000000000000000000000000000000000040000000000100000000000000000000000000000000000000000000000000000000000000800000000000000000000000000000100000000000000000000000000000000000000000000000000000000000000000000000000000000000000000000000000000000001000000000000000000000000000000000000000000000000000000000000000000000000000000008000000000000000000000000010000000000000000000000000000000000000000000000000000000000000000000000000000000000000000000000000000000400000010000000000000080000000000000",
      "type": "0x2",
      "transactionHash": "0xa47d980198e6166669a3b4bae5d871671a813a399c144bc7b4dac5bb879c89b4",
      "transactionIndex": "0xd",
      "blockHash": "0xbe3dd7d404d475a2242741cae74e757b5ff9b1c81ffc39c630cab282a9a88e0a",
      "blockNumber": "0x1665a53",
      "gasUsed": "0xd36d",
      "effectiveGasPrice": "0xc6e4",
      "from": "0xc68d74f5a99a2c1f3e3625e1d69919e2b77ac7d2",
      "to": "0xf1669804140fa31cdaa805a1b3be91e6282d5e41",
      "contractAddress": null,
      "l1BaseFeeScalar": "0x1db0",
      "l1BlobBaseFee": "0x1",
      "l1BlobBaseFeeScalar": "0xd2730",
      "l1Fee": "0x9ac45400aa",
      "l1GasPrice": "0xcba402bd1",
      "l1GasUsed": "0x640"
    }
  ],
  "libraries": [],
  "pending": [],
  "returns": {},
  "timestamp": 1738772562,
  "chain": 11155420,
  "commit": "422d087"
}
