{
  "transactions": [
    {
      "hash": "0x128da030c81f7c1d98de1d180cdc41b05081c68388769de3efa28a6f33b80960",
      "transactionType": "CALL",
      "contractName": null,
      "contractAddress": "0xd925c84b55e4e44a53749ff5f2a5a13f63d128fd",
      "function": "setPeer(uint16,bytes32,uint8,uint256)",
      "arguments": [
        "10002",
        "0x000000000000000000000000d925c84b55e4e44a53749ff5f2a5a13f63d128fd",
        "6",
        "0"
      ],
      "transaction": {
        "from": "0xf2f1acbe0ba726fee8d75f3e32900526874740bb",
        "to": "0xd925c84b55e4e44a53749ff5f2a5a13f63d128fd",
        "gas": "0x1b15a",
        "value": "0x0",
        "input": "0x7c9186340000000000000000000000000000000000000000000000000000000000002712000000000000000000000000d925c84b55e4e44a53749ff5f2a5a13f63d128fd00000000000000000000000000000000000000000000000000000000000000060000000000000000000000000000000000000000000000000000000000000000",
        "nonce": "0x29",
        "chainId": "0xaa37dc"
      },
      "additionalContracts": [],
      "isFixedGasLimit": false
    },
    {
      "hash": "0x4292ce3557b2f3098f3290d95c67ae16b09b2dd1842990c9726f45403a26c652",
      "transactionType": "CALL",
      "contractName": null,
      "contractAddress": "0xd925c84b55e4e44a53749ff5f2a5a13f63d128fd",
      "function": "setDestinationMToken(uint16,bytes32)",
      "arguments": [
        "10002",
        "0x000000000000000000000000866a2bf4e572cbcf37d5071a7a58503bfb36be1b"
      ],
      "transaction": {
        "from": "0xf2f1acbe0ba726fee8d75f3e32900526874740bb",
        "to": "0xd925c84b55e4e44a53749ff5f2a5a13f63d128fd",
        "gas": "0x11d64",
        "value": "0x0",
        "input": "0x76a4a5390000000000000000000000000000000000000000000000000000000000002712000000000000000000000000866a2bf4e572cbcf37d5071a7a58503bfb36be1b",
        "nonce": "0x2a",
        "chainId": "0xaa37dc"
      },
      "additionalContracts": [],
      "isFixedGasLimit": false
    },
    {
      "hash": "0x25500b7dbb8cd0354dd005af8590810e696718615e58180c8c4ba2ae13ec0234",
      "transactionType": "CALL",
      "contractName": null,
      "contractAddress": "0xd925c84b55e4e44a53749ff5f2a5a13f63d128fd",
      "function": "setSupportedBridgingPath(address,uint16,bytes32,bool)",
      "arguments": [
        "0x866A2BF4E572CbcF37D5071A7a58503Bfb36be1b",
        "10002",
        "0x000000000000000000000000866a2bf4e572cbcf37d5071a7a58503bfb36be1b",
        "true"
      ],
      "transaction": {
        "from": "0xf2f1acbe0ba726fee8d75f3e32900526874740bb",
        "to": "0xd925c84b55e4e44a53749ff5f2a5a13f63d128fd",
        "gas": "0x12407",
        "value": "0x0",
        "input": "0x1482cb4a000000000000000000000000866a2bf4e572cbcf37d5071a7a58503bfb36be1b0000000000000000000000000000000000000000000000000000000000002712000000000000000000000000866a2bf4e572cbcf37d5071a7a58503bfb36be1b0000000000000000000000000000000000000000000000000000000000000001",
        "nonce": "0x2b",
        "chainId": "0xaa37dc"
      },
      "additionalContracts": [],
      "isFixedGasLimit": false
    },
    {
      "hash": "0x50a5a9e564e6245f492bdb6b14361f86a5d9d7e36f323a58d556639e78d49f8c",
      "transactionType": "CALL",
      "contractName": null,
      "contractAddress": "0xd925c84b55e4e44a53749ff5f2a5a13f63d128fd",
      "function": "setSupportedBridgingPath(address,uint16,bytes32,bool)",
      "arguments": [
        "0x866A2BF4E572CbcF37D5071A7a58503Bfb36be1b",
        "10002",
        "0x000000000000000000000000437cc33344a0b27a429f795ff6b469c72698b291",
        "true"
      ],
      "transaction": {
        "from": "0xf2f1acbe0ba726fee8d75f3e32900526874740bb",
        "to": "0xd925c84b55e4e44a53749ff5f2a5a13f63d128fd",
        "gas": "0x12407",
        "value": "0x0",
        "input": "0x1482cb4a000000000000000000000000866a2bf4e572cbcf37d5071a7a58503bfb36be1b0000000000000000000000000000000000000000000000000000000000002712000000000000000000000000437cc33344a0b27a429f795ff6b469c72698b2910000000000000000000000000000000000000000000000000000000000000001",
        "nonce": "0x2c",
        "chainId": "0xaa37dc"
      },
      "additionalContracts": [],
      "isFixedGasLimit": false
    },
    {
      "hash": "0xb91be887625b7d5f478c0417781777bf2462dc547fe7620c2dc196490c904eaf",
      "transactionType": "CALL",
      "contractName": null,
      "contractAddress": "0xd925c84b55e4e44a53749ff5f2a5a13f63d128fd",
      "function": "setSupportedBridgingPath(address,uint16,bytes32,bool)",
      "arguments": [
        "0x437cc33344a0B27A429f795ff6B469C72698B291",
        "10002",
        "0x000000000000000000000000866a2bf4e572cbcf37d5071a7a58503bfb36be1b",
        "true"
      ],
      "transaction": {
        "from": "0xf2f1acbe0ba726fee8d75f3e32900526874740bb",
        "to": "0xd925c84b55e4e44a53749ff5f2a5a13f63d128fd",
        "gas": "0x12407",
        "value": "0x0",
        "input": "0x1482cb4a000000000000000000000000437cc33344a0b27a429f795ff6b469c72698b2910000000000000000000000000000000000000000000000000000000000002712000000000000000000000000866a2bf4e572cbcf37d5071a7a58503bfb36be1b0000000000000000000000000000000000000000000000000000000000000001",
        "nonce": "0x2d",
        "chainId": "0xaa37dc"
      },
      "additionalContracts": [],
      "isFixedGasLimit": false
    },
    {
      "hash": "0x05acda31cb2c1316320bc68bf34ea3c81f4bb98848b4cb0a82a81f0464dec43b",
      "transactionType": "CALL",
      "contractName": null,
      "contractAddress": "0xd925c84b55e4e44a53749ff5f2a5a13f63d128fd",
      "function": "setSupportedBridgingPath(address,uint16,bytes32,bool)",
      "arguments": [
        "0x437cc33344a0B27A429f795ff6B469C72698B291",
        "10002",
        "0x000000000000000000000000437cc33344a0b27a429f795ff6b469c72698b291",
        "true"
      ],
      "transaction": {
        "from": "0xf2f1acbe0ba726fee8d75f3e32900526874740bb",
        "to": "0xd925c84b55e4e44a53749ff5f2a5a13f63d128fd",
        "gas": "0x12407",
        "value": "0x0",
        "input": "0x1482cb4a000000000000000000000000437cc33344a0b27a429f795ff6b469c72698b2910000000000000000000000000000000000000000000000000000000000002712000000000000000000000000437cc33344a0b27a429f795ff6b469c72698b2910000000000000000000000000000000000000000000000000000000000000001",
        "nonce": "0x2e",
        "chainId": "0xaa37dc"
      },
      "additionalContracts": [],
      "isFixedGasLimit": false
    },
    {
      "hash": "0x783a0e4583cc37ef953c96443bea4b74f874b2bd37630b6dfcd5bc9eb3549360",
      "transactionType": "CALL",
      "contractName": null,
      "contractAddress": "0x0763196a091575adf99e2306e5e90e0be5154841",
      "function": "setIsWormholeRelayingEnabled(uint16,bool)",
      "arguments": ["10002", "true"],
      "transaction": {
        "from": "0xf2f1acbe0ba726fee8d75f3e32900526874740bb",
        "to": "0x0763196a091575adf99e2306e5e90e0be5154841",
        "gas": "0x12b75",
        "value": "0x0",
        "input": "0x657b3b2f00000000000000000000000000000000000000000000000000000000000027120000000000000000000000000000000000000000000000000000000000000001",
        "nonce": "0x2f",
        "chainId": "0xaa37dc"
      },
      "additionalContracts": [],
      "isFixedGasLimit": false
    },
    {
      "hash": "0xd9bb3e5dda23a0a2c26bd53bc5ef57b0a9838848ae469f209d1e12e0d654f632",
      "transactionType": "CALL",
      "contractName": null,
      "contractAddress": "0x0763196a091575adf99e2306e5e90e0be5154841",
      "function": "setWormholePeer(uint16,bytes32)",
      "arguments": [
        "10002",
        "0x0000000000000000000000000763196a091575adf99e2306e5e90e0be5154841"
      ],
      "transaction": {
        "from": "0xf2f1acbe0ba726fee8d75f3e32900526874740bb",
        "to": "0x0763196a091575adf99e2306e5e90e0be5154841",
        "gas": "0x1a258",
        "value": "0x0",
        "input": "0x7ab5640300000000000000000000000000000000000000000000000000000000000027120000000000000000000000000763196a091575adf99e2306e5e90e0be5154841",
        "nonce": "0x30",
        "chainId": "0xaa37dc"
      },
      "additionalContracts": [],
      "isFixedGasLimit": false
    },
    {
      "hash": "0x0b4c0712b0480686ee8a3516cdd5f5600d849e5f276e05e3e58f614c88698871",
      "transactionType": "CALL",
      "contractName": null,
      "contractAddress": "0x0763196a091575adf99e2306e5e90e0be5154841",
      "function": "setIsWormholeEvmChain(uint16,bool)",
      "arguments": ["10002", "true"],
      "transaction": {
        "from": "0xf2f1acbe0ba726fee8d75f3e32900526874740bb",
        "to": "0x0763196a091575adf99e2306e5e90e0be5154841",
        "gas": "0x11c5d",
        "value": "0x0",
        "input": "0x96dddc6300000000000000000000000000000000000000000000000000000000000027120000000000000000000000000000000000000000000000000000000000000001",
        "nonce": "0x31",
        "chainId": "0xaa37dc"
      },
      "additionalContracts": [],
      "isFixedGasLimit": false
    },
    {
      "hash": "0xb2bebbf3a3de3ba2c1415db09bc4c9cc7c4c7872f2733510fa6be6e96e9ea017",
      "transactionType": "CALL",
      "contractName": null,
      "contractAddress": "0xd925c84b55e4e44a53749ff5f2a5a13f63d128fd",
      "function": "setPeer(uint16,bytes32,uint8,uint256)",
      "arguments": [
        "10003",
        "0x000000000000000000000000d925c84b55e4e44a53749ff5f2a5a13f63d128fd",
        "6",
        "0"
      ],
      "transaction": {
        "from": "0xf2f1acbe0ba726fee8d75f3e32900526874740bb",
        "to": "0xd925c84b55e4e44a53749ff5f2a5a13f63d128fd",
        "gas": "0x1b15a",
        "value": "0x0",
        "input": "0x7c9186340000000000000000000000000000000000000000000000000000000000002713000000000000000000000000d925c84b55e4e44a53749ff5f2a5a13f63d128fd00000000000000000000000000000000000000000000000000000000000000060000000000000000000000000000000000000000000000000000000000000000",
        "nonce": "0x32",
        "chainId": "0xaa37dc"
      },
      "additionalContracts": [],
      "isFixedGasLimit": false
    },
    {
      "hash": "0x95eec8599256611904c3a6e01c0d5498a6efc3a3fd7c1d6c6cab71a9e22cd020",
      "transactionType": "CALL",
      "contractName": null,
      "contractAddress": "0xd925c84b55e4e44a53749ff5f2a5a13f63d128fd",
      "function": "setDestinationMToken(uint16,bytes32)",
      "arguments": [
        "10003",
        "0x000000000000000000000000866a2bf4e572cbcf37d5071a7a58503bfb36be1b"
      ],
      "transaction": {
        "from": "0xf2f1acbe0ba726fee8d75f3e32900526874740bb",
        "to": "0xd925c84b55e4e44a53749ff5f2a5a13f63d128fd",
        "gas": "0x11d64",
        "value": "0x0",
        "input": "0x76a4a5390000000000000000000000000000000000000000000000000000000000002713000000000000000000000000866a2bf4e572cbcf37d5071a7a58503bfb36be1b",
        "nonce": "0x33",
        "chainId": "0xaa37dc"
      },
      "additionalContracts": [],
      "isFixedGasLimit": false
    },
    {
      "hash": "0x23c907f18074c0a55369b28fe3cee03eb86eea41c647c7ce763c823ba4e7bbdf",
      "transactionType": "CALL",
      "contractName": null,
      "contractAddress": "0xd925c84b55e4e44a53749ff5f2a5a13f63d128fd",
      "function": "setSupportedBridgingPath(address,uint16,bytes32,bool)",
      "arguments": [
        "0x866A2BF4E572CbcF37D5071A7a58503Bfb36be1b",
        "10003",
        "0x000000000000000000000000866a2bf4e572cbcf37d5071a7a58503bfb36be1b",
        "true"
      ],
      "transaction": {
        "from": "0xf2f1acbe0ba726fee8d75f3e32900526874740bb",
        "to": "0xd925c84b55e4e44a53749ff5f2a5a13f63d128fd",
        "gas": "0x12407",
        "value": "0x0",
        "input": "0x1482cb4a000000000000000000000000866a2bf4e572cbcf37d5071a7a58503bfb36be1b0000000000000000000000000000000000000000000000000000000000002713000000000000000000000000866a2bf4e572cbcf37d5071a7a58503bfb36be1b0000000000000000000000000000000000000000000000000000000000000001",
        "nonce": "0x34",
        "chainId": "0xaa37dc"
      },
      "additionalContracts": [],
      "isFixedGasLimit": false
    },
    {
      "hash": "0x51e111db8f3dbbda87ddfe7bb5d47be4e708a819e2318c848289a96abc7f3396",
      "transactionType": "CALL",
      "contractName": null,
      "contractAddress": "0xd925c84b55e4e44a53749ff5f2a5a13f63d128fd",
      "function": "setSupportedBridgingPath(address,uint16,bytes32,bool)",
      "arguments": [
        "0x866A2BF4E572CbcF37D5071A7a58503Bfb36be1b",
        "10003",
        "0x000000000000000000000000437cc33344a0b27a429f795ff6b469c72698b291",
        "true"
      ],
      "transaction": {
        "from": "0xf2f1acbe0ba726fee8d75f3e32900526874740bb",
        "to": "0xd925c84b55e4e44a53749ff5f2a5a13f63d128fd",
        "gas": "0x12407",
        "value": "0x0",
        "input": "0x1482cb4a000000000000000000000000866a2bf4e572cbcf37d5071a7a58503bfb36be1b0000000000000000000000000000000000000000000000000000000000002713000000000000000000000000437cc33344a0b27a429f795ff6b469c72698b2910000000000000000000000000000000000000000000000000000000000000001",
        "nonce": "0x35",
        "chainId": "0xaa37dc"
      },
      "additionalContracts": [],
      "isFixedGasLimit": false
    },
    {
      "hash": "0x2a323e2eac5c8a49e5a51c0dff20094ea821492db6781c80c9724ab745875854",
      "transactionType": "CALL",
      "contractName": null,
      "contractAddress": "0xd925c84b55e4e44a53749ff5f2a5a13f63d128fd",
      "function": "setSupportedBridgingPath(address,uint16,bytes32,bool)",
      "arguments": [
        "0x437cc33344a0B27A429f795ff6B469C72698B291",
        "10003",
        "0x000000000000000000000000866a2bf4e572cbcf37d5071a7a58503bfb36be1b",
        "true"
      ],
      "transaction": {
        "from": "0xf2f1acbe0ba726fee8d75f3e32900526874740bb",
        "to": "0xd925c84b55e4e44a53749ff5f2a5a13f63d128fd",
        "gas": "0x12407",
        "value": "0x0",
        "input": "0x1482cb4a000000000000000000000000437cc33344a0b27a429f795ff6b469c72698b2910000000000000000000000000000000000000000000000000000000000002713000000000000000000000000866a2bf4e572cbcf37d5071a7a58503bfb36be1b0000000000000000000000000000000000000000000000000000000000000001",
        "nonce": "0x36",
        "chainId": "0xaa37dc"
      },
      "additionalContracts": [],
      "isFixedGasLimit": false
    },
    {
      "hash": "0xf83b374447c2cf3857e8729d52b8b0befe7b009bed4a15ddcd303622a185f42a",
      "transactionType": "CALL",
      "contractName": null,
      "contractAddress": "0xd925c84b55e4e44a53749ff5f2a5a13f63d128fd",
      "function": "setSupportedBridgingPath(address,uint16,bytes32,bool)",
      "arguments": [
        "0x437cc33344a0B27A429f795ff6B469C72698B291",
        "10003",
        "0x000000000000000000000000437cc33344a0b27a429f795ff6b469c72698b291",
        "true"
      ],
      "transaction": {
        "from": "0xf2f1acbe0ba726fee8d75f3e32900526874740bb",
        "to": "0xd925c84b55e4e44a53749ff5f2a5a13f63d128fd",
        "gas": "0x12407",
        "value": "0x0",
        "input": "0x1482cb4a000000000000000000000000437cc33344a0b27a429f795ff6b469c72698b2910000000000000000000000000000000000000000000000000000000000002713000000000000000000000000437cc33344a0b27a429f795ff6b469c72698b2910000000000000000000000000000000000000000000000000000000000000001",
        "nonce": "0x37",
        "chainId": "0xaa37dc"
      },
      "additionalContracts": [],
      "isFixedGasLimit": false
    },
    {
      "hash": "0x19b9a600cea6b385fee4fb86e29b25e536d689f6e11d78dbd1d3e7464cebc97d",
      "transactionType": "CALL",
      "contractName": null,
      "contractAddress": "0x0763196a091575adf99e2306e5e90e0be5154841",
      "function": "setIsWormholeRelayingEnabled(uint16,bool)",
      "arguments": ["10003", "true"],
      "transaction": {
        "from": "0xf2f1acbe0ba726fee8d75f3e32900526874740bb",
        "to": "0x0763196a091575adf99e2306e5e90e0be5154841",
        "gas": "0x12b75",
        "value": "0x0",
        "input": "0x657b3b2f00000000000000000000000000000000000000000000000000000000000027130000000000000000000000000000000000000000000000000000000000000001",
        "nonce": "0x38",
        "chainId": "0xaa37dc"
      },
      "additionalContracts": [],
      "isFixedGasLimit": false
    },
    {
      "hash": "0xc4d4917523ba296bdaa4153f8c340c2dba942bd7cf5334c52913b62e4abfd5d5",
      "transactionType": "CALL",
      "contractName": null,
      "contractAddress": "0x0763196a091575adf99e2306e5e90e0be5154841",
      "function": "setWormholePeer(uint16,bytes32)",
      "arguments": [
        "10003",
        "0x0000000000000000000000000763196a091575adf99e2306e5e90e0be5154841"
      ],
      "transaction": {
        "from": "0xf2f1acbe0ba726fee8d75f3e32900526874740bb",
        "to": "0x0763196a091575adf99e2306e5e90e0be5154841",
        "gas": "0x1a258",
        "value": "0x0",
        "input": "0x7ab5640300000000000000000000000000000000000000000000000000000000000027130000000000000000000000000763196a091575adf99e2306e5e90e0be5154841",
        "nonce": "0x39",
        "chainId": "0xaa37dc"
      },
      "additionalContracts": [],
      "isFixedGasLimit": false
    },
    {
      "hash": "0xd881add6452033598b9154a394d9e20e129d9f715405d3dea8811604738e6d1a",
      "transactionType": "CALL",
      "contractName": null,
      "contractAddress": "0x0763196a091575adf99e2306e5e90e0be5154841",
      "function": "setIsWormholeEvmChain(uint16,bool)",
      "arguments": ["10003", "true"],
      "transaction": {
        "from": "0xf2f1acbe0ba726fee8d75f3e32900526874740bb",
        "to": "0x0763196a091575adf99e2306e5e90e0be5154841",
        "gas": "0x11c5d",
        "value": "0x0",
        "input": "0x96dddc6300000000000000000000000000000000000000000000000000000000000027130000000000000000000000000000000000000000000000000000000000000001",
        "nonce": "0x3a",
        "chainId": "0xaa37dc"
      },
      "additionalContracts": [],
      "isFixedGasLimit": false
    }
  ],
  "receipts": [
    {
      "status": "0x1",
      "cumulativeGasUsed": "0x5e19f",
      "logs": [
        {
          "address": "0xd925c84b55e4e44a53749ff5f2a5a13f63d128fd",
          "topics": [
            "0x1456404e7f41f35c3daac941bb50bad417a66275c3040061b4287d787719599d",
            "0x0000000000000000000000000000000000000000000000000000000000002712"
          ],
          "data": "0x00000000000000000000000000000000000000000000000000000000000000000000000000000000000000000000000000000000000000000000000000000000000000000000000000000000d925c84b55e4e44a53749ff5f2a5a13f63d128fd0000000000000000000000000000000000000000000000000000000000000006",
          "blockHash": "0x8fce640305a52030395e6a3f0b5f59efab340ce9ec405b969bfa4e442cd05c13",
          "blockNumber": "0x16ebfca",
          "transactionHash": "0x128da030c81f7c1d98de1d180cdc41b05081c68388769de3efa28a6f33b80960",
          "transactionIndex": "0x5",
          "logIndex": "0x2",
          "removed": false
        }
      ],
      "logsBloom": "0x00000000000000000000000000000000000000000000000000000000000000000000000000000000002000000000000000000000000000000000000000000000000000000000000000000000000000000000000000024000000000000000000000002000000000000000000000000000000000000000000000000000000000000000000000000000000008000000000000000000000000000000000000000008000000000000000000000040000000000000000000000000000000000000080000400000000000000000000000000000000000000000000000000000000000000000000000000000000000000000000000000000000000000000000000000000",
      "type": "0x2",
      "transactionHash": "0x128da030c81f7c1d98de1d180cdc41b05081c68388769de3efa28a6f33b80960",
      "transactionIndex": "0x5",
      "blockHash": "0x8fce640305a52030395e6a3f0b5f59efab340ce9ec405b969bfa4e442cd05c13",
      "blockNumber": "0x16ebfca",
      "gasUsed": "0x139be",
      "effectiveGasPrice": "0xf433b",
      "from": "0xf2f1acbe0ba726fee8d75f3e32900526874740bb",
      "to": "0xd925c84b55e4e44a53749ff5f2a5a13f63d128fd",
      "contractAddress": null,
      "l1BaseFeeScalar": "0x1db0",
      "l1BlobBaseFee": "0x3",
      "l1BlobBaseFeeScalar": "0xd2730",
      "l1Fee": "0xc81b30255",
      "l1GasPrice": "0x1074c31cb",
      "l1GasUsed": "0x640"
    },
    {
      "status": "0x1",
      "cumulativeGasUsed": "0x2fbed",
      "logs": [
        {
          "address": "0xd925c84b55e4e44a53749ff5f2a5a13f63d128fd",
          "topics": [
            "0xe6658eeba76934cef78dc5f420ee40406e4876e8d3e767f7b700c63daf1bf0ba",
            "0x0000000000000000000000000000000000000000000000000000000000002712"
          ],
          "data": "0x000000000000000000000000866a2bf4e572cbcf37d5071a7a58503bfb36be1b",
          "blockHash": "0xc12fcd192cf863993da588b0e8d120eaef880449e9da9f353c024ba3ad311c0b",
          "blockNumber": "0x16ebfcc",
          "transactionHash": "0x4292ce3557b2f3098f3290d95c67ae16b09b2dd1842990c9726f45403a26c652",
          "transactionIndex": "0x3",
          "logIndex": "0x2",
          "removed": false
        }
      ],
      "logsBloom": "0x00000000000000000000000000000000000000000000000000000000000000000000000000000000000000000000000000000000000000000000000000000000000000000000000000000000002000000000000000024000000000000000000000000000000000000000000000000000000000000000000000000000000000000000000000000000000000000000000000000000000000000000000000000008000080000000000000000040000000000000000000000000000000000000080000400000000020000000000000000000000000000000000000000000000000000000000000000000000000000000000000000000000000000000000000000000",
      "type": "0x2",
      "transactionHash": "0x4292ce3557b2f3098f3290d95c67ae16b09b2dd1842990c9726f45403a26c652",
      "transactionIndex": "0x3",
      "blockHash": "0xc12fcd192cf863993da588b0e8d120eaef880449e9da9f353c024ba3ad311c0b",
      "blockNumber": "0x16ebfcc",
      "gasUsed": "0xce9f",
      "effectiveGasPrice": "0xf433b",
      "from": "0xf2f1acbe0ba726fee8d75f3e32900526874740bb",
      "to": "0xd925c84b55e4e44a53749ff5f2a5a13f63d128fd",
      "contractAddress": null,
      "l1BaseFeeScalar": "0x1db0",
      "l1BlobBaseFee": "0x3",
      "l1BlobBaseFeeScalar": "0xd2730",
      "l1Fee": "0xd80497e43",
      "l1GasPrice": "0x11c3bf032",
      "l1GasUsed": "0x640"
    },
    {
      "status": "0x1",
      "cumulativeGasUsed": "0x376f7",
      "logs": [
        {
          "address": "0xd925c84b55e4e44a53749ff5f2a5a13f63d128fd",
          "topics": [
            "0xeb8377c150d1438121333afa2027232605a400b1208ae6f9cfa156438e453f6d",
            "0x000000000000000000000000866a2bf4e572cbcf37d5071a7a58503bfb36be1b",
            "0x0000000000000000000000000000000000000000000000000000000000002712",
            "0x000000000000000000000000866a2bf4e572cbcf37d5071a7a58503bfb36be1b"
          ],
          "data": "0x0000000000000000000000000000000000000000000000000000000000000001",
          "blockHash": "0x633cc7dcaec3602d6656ce77a107701c8a16bf34c2ae8ac89ce96fe4aab737d4",
          "blockNumber": "0x16ebfce",
          "transactionHash": "0x25500b7dbb8cd0354dd005af8590810e696718615e58180c8c4ba2ae13ec0234",
          "transactionIndex": "0x3",
          "logIndex": "0x3",
          "removed": false
        }
      ],
      "logsBloom": "0x00000008000000000000000000000000000000000000000000000000000000000000000000000000000000000000000000000000000000000000000000000000800000000000000000000000000000000000000000024000000000000000000000000000000000000000000000000000000000000000000100000000000000000000000000000000000000000040000000000000000000000000000000000008000000000000000000000040008000000000000000000000000000000000080000400000000400000000000000000000000000000000000000000000000000000000000000000000000000000000000000000000000000000000000000000000",
      "type": "0x2",
      "transactionHash": "0x25500b7dbb8cd0354dd005af8590810e696718615e58180c8c4ba2ae13ec0234",
      "transactionIndex": "0x3",
      "blockHash": "0x633cc7dcaec3602d6656ce77a107701c8a16bf34c2ae8ac89ce96fe4aab737d4",
      "blockNumber": "0x16ebfce",
      "gasUsed": "0xd36d",
      "effectiveGasPrice": "0xf433b",
      "from": "0xf2f1acbe0ba726fee8d75f3e32900526874740bb",
      "to": "0xd925c84b55e4e44a53749ff5f2a5a13f63d128fd",
      "contractAddress": null,
      "l1BaseFeeScalar": "0x1db0",
      "l1BlobBaseFee": "0x3",
      "l1BlobBaseFeeScalar": "0xd2730",
      "l1Fee": "0xd80497e43",
      "l1GasPrice": "0x11c3bf032",
      "l1GasUsed": "0x640"
    },
    {
      "status": "0x1",
      "cumulativeGasUsed": "0x4ae117",
      "logs": [
        {
          "address": "0xd925c84b55e4e44a53749ff5f2a5a13f63d128fd",
          "topics": [
            "0xeb8377c150d1438121333afa2027232605a400b1208ae6f9cfa156438e453f6d",
            "0x000000000000000000000000866a2bf4e572cbcf37d5071a7a58503bfb36be1b",
            "0x0000000000000000000000000000000000000000000000000000000000002712",
            "0x000000000000000000000000437cc33344a0b27a429f795ff6b469c72698b291"
          ],
          "data": "0x0000000000000000000000000000000000000000000000000000000000000001",
          "blockHash": "0x0bbb7569c4cc113a6b528c6d6c713a15ae75b31c6fb63863e2253f62b9b79ac9",
          "blockNumber": "0x16ebfd0",
          "transactionHash": "0x50a5a9e564e6245f492bdb6b14361f86a5d9d7e36f323a58d556639e78d49f8c",
          "transactionIndex": "0x3",
          "logIndex": "0xc",
          "removed": false
        }
      ],
      "logsBloom": "0x00000008000002000000000000000000000000000000000000000000000000000000000000000000000000000000000000000000000000000000000000000000800000000000000000000000000000000000000000024000000000000000000000000000000000000000000000000000000000000000000100000000000000000000000000000000000000000040000000000000000000000000000000000008000000000000000000000040008000000000000000020000000000000000080000400000000400000000000000000000000000000000000000000000000000200000000000000000000000000000000000000000000000000000000000000000",
      "type": "0x2",
      "transactionHash": "0x50a5a9e564e6245f492bdb6b14361f86a5d9d7e36f323a58d556639e78d49f8c",
      "transactionIndex": "0x3",
      "blockHash": "0x0bbb7569c4cc113a6b528c6d6c713a15ae75b31c6fb63863e2253f62b9b79ac9",
      "blockNumber": "0x16ebfd0",
      "gasUsed": "0xd36d",
      "effectiveGasPrice": "0xf433b",
      "from": "0xf2f1acbe0ba726fee8d75f3e32900526874740bb",
      "to": "0xd925c84b55e4e44a53749ff5f2a5a13f63d128fd",
      "contractAddress": null,
      "l1BaseFeeScalar": "0x1db0",
      "l1BlobBaseFee": "0x3",
      "l1BlobBaseFeeScalar": "0xd2730",
      "l1Fee": "0xf41b8cf94",
      "l1GasPrice": "0x11c3bf032",
      "l1GasUsed": "0x710"
    },
    {
      "status": "0x1",
      "cumulativeGasUsed": "0x1060ab",
      "logs": [
        {
          "address": "0xd925c84b55e4e44a53749ff5f2a5a13f63d128fd",
          "topics": [
            "0xeb8377c150d1438121333afa2027232605a400b1208ae6f9cfa156438e453f6d",
            "0x000000000000000000000000437cc33344a0b27a429f795ff6b469c72698b291",
            "0x0000000000000000000000000000000000000000000000000000000000002712",
            "0x000000000000000000000000866a2bf4e572cbcf37d5071a7a58503bfb36be1b"
          ],
          "data": "0x0000000000000000000000000000000000000000000000000000000000000001",
          "blockHash": "0x8d688ff78d4bf112b10eb7847f4d114629a47ed655854ac1089a4f926afc0abd",
          "blockNumber": "0x16ebfd2",
          "transactionHash": "0xb91be887625b7d5f478c0417781777bf2462dc547fe7620c2dc196490c904eaf",
          "transactionIndex": "0x5",
          "logIndex": "0xc",
          "removed": false
        }
      ],
      "logsBloom": "0x00000008000002000000000000000000000000000000000000000000000000000000000000000000000000000000000000000000000000000000000000000000800000000000000000000000000000000000000000024000000000000000000000000000000000000000000000000000000000000000000100000000000000000000000000000000000000000040000000000000000000000000000000000008000000000000000000000040008000000000000000020000000000000000080000400000000400000000000000000000000000000000000000000000000000200000000000000000000000000000000000000000000000000000000000000000",
      "type": "0x2",
      "transactionHash": "0xb91be887625b7d5f478c0417781777bf2462dc547fe7620c2dc196490c904eaf",
      "transactionIndex": "0x5",
      "blockHash": "0x8d688ff78d4bf112b10eb7847f4d114629a47ed655854ac1089a4f926afc0abd",
      "blockNumber": "0x16ebfd2",
      "gasUsed": "0xd36d",
      "effectiveGasPrice": "0xf433b",
      "from": "0xf2f1acbe0ba726fee8d75f3e32900526874740bb",
      "to": "0xd925c84b55e4e44a53749ff5f2a5a13f63d128fd",
      "contractAddress": null,
      "l1BaseFeeScalar": "0x1db0",
      "l1BlobBaseFee": "0x3",
      "l1BlobBaseFeeScalar": "0xd2730",
      "l1Fee": "0xe6eaf1be4",
      "l1GasPrice": "0x10ce048ad",
      "l1GasUsed": "0x710"
    },
    {
      "status": "0x1",
      "cumulativeGasUsed": "0x24082c",
      "logs": [
        {
          "address": "0xd925c84b55e4e44a53749ff5f2a5a13f63d128fd",
          "topics": [
            "0xeb8377c150d1438121333afa2027232605a400b1208ae6f9cfa156438e453f6d",
            "0x000000000000000000000000437cc33344a0b27a429f795ff6b469c72698b291",
            "0x0000000000000000000000000000000000000000000000000000000000002712",
            "0x000000000000000000000000437cc33344a0b27a429f795ff6b469c72698b291"
          ],
          "data": "0x0000000000000000000000000000000000000000000000000000000000000001",
          "blockHash": "0xc632516785b908f39345d8e22ff26d05855ae05fc369dd64c64515ce98e198fb",
          "blockNumber": "0x16ebfd4",
          "transactionHash": "0x05acda31cb2c1316320bc68bf34ea3c81f4bb98848b4cb0a82a81f0464dec43b",
          "transactionIndex": "0x3",
          "logIndex": "0x22",
          "removed": false
        }
      ],
      "logsBloom": "0x00000008000002000000000000000000000000000000000000000000000000000000000000000000000000000000000000000000000000000000000000000000800000000000000000000000000000000000000000024000000000000000000000000000000000000000000000000000000000000000000000000000000000000000000000000000000000000000000000000000000000000000000000000008000000000000000000000040008000000000000000020000000000000000080000400000000000000000000000000000000000000000000000000000000000200000000000000000000000000000000000000000000000000000000000000000",
      "type": "0x2",
      "transactionHash": "0x05acda31cb2c1316320bc68bf34ea3c81f4bb98848b4cb0a82a81f0464dec43b",
      "transactionIndex": "0x3",
      "blockHash": "0xc632516785b908f39345d8e22ff26d05855ae05fc369dd64c64515ce98e198fb",
      "blockNumber": "0x16ebfd4",
      "gasUsed": "0xd36d",
      "effectiveGasPrice": "0xf433b",
      "from": "0xf2f1acbe0ba726fee8d75f3e32900526874740bb",
      "to": "0xd925c84b55e4e44a53749ff5f2a5a13f63d128fd",
      "contractAddress": null,
      "l1BaseFeeScalar": "0x1db0",
      "l1BlobBaseFee": "0x3",
      "l1BlobBaseFeeScalar": "0xd2730",
      "l1Fee": "0xcc5889377",
      "l1GasPrice": "0x10ce048ad",
      "l1GasUsed": "0x640"
    },
    {
      "status": "0x1",
      "cumulativeGasUsed": "0x160008",
      "logs": [
        {
          "address": "0x0763196a091575adf99e2306e5e90e0be5154841",
          "topics": [
            "0x528b18a533e892b5401d1fb63597275df9d2bb45b13e7695c3147cd07b9746c3"
          ],
          "data": "0x00000000000000000000000000000000000000000000000000000000000027120000000000000000000000000000000000000000000000000000000000000001",
          "blockHash": "0x9571f0e81408b27bc9211bedadae0879ab2d2691659bc65edddb4c3b5808c526",
          "blockNumber": "0x16ebfd6",
          "transactionHash": "0x783a0e4583cc37ef953c96443bea4b74f874b2bd37630b6dfcd5bc9eb3549360",
          "transactionIndex": "0x5",
          "logIndex": "0x6",
          "removed": false
        }
      ],
      "logsBloom": "0x00000000000000000000000000000000000000000000000000000000000080000000000000400000000000000000000000000000000000000000000000000000000000000000000000000000800000000000000000000000000000000001000000000000000000001000000000000000000000000000000000000000000000000000000000000000000000000000000000000000000000000000000000000000002000000000000000000000000000000000000000000000000000000000000000000000000000000000000000000000000000000000000000000000000000000000000000000000000000000000000000000000000000000000000000000000",
      "type": "0x2",
      "transactionHash": "0x783a0e4583cc37ef953c96443bea4b74f874b2bd37630b6dfcd5bc9eb3549360",
      "transactionIndex": "0x5",
      "blockHash": "0x9571f0e81408b27bc9211bedadae0879ab2d2691659bc65edddb4c3b5808c526",
      "blockNumber": "0x16ebfd6",
      "gasUsed": "0xccc2",
      "effectiveGasPrice": "0xf433b",
      "from": "0xf2f1acbe0ba726fee8d75f3e32900526874740bb",
      "to": "0x0763196a091575adf99e2306e5e90e0be5154841",
      "contractAddress": null,
      "l1BaseFeeScalar": "0x1db0",
      "l1BlobBaseFee": "0x3",
      "l1BlobBaseFeeScalar": "0xd2730",
      "l1Fee": "0xcc5889377",
      "l1GasPrice": "0x10ce048ad",
      "l1GasUsed": "0x640"
    },
    {
      "status": "0x1",
      "cumulativeGasUsed": "0x246d24",
      "logs": [
        {
          "address": "0x31377888146f3253211efef5c676d41ece7d58fe",
          "topics": [
            "0x6eb224fb001ed210e379b335e35efe88672a8ce935d981a6896b27ffdf52a3b2",
            "0x0000000000000000000000000763196a091575adf99e2306e5e90e0be5154841"
          ],
          "data": "0x00000000000000000000000000000000000000000000000000000000000000010000000000000000000000000000000000000000000000000000000000000000000000000000000000000000000000000000000000000000000000000000008000000000000000000000000000000000000000000000000000000000000000c8000000000000000000000000000000000000000000000000000000000000002618fc67c227120000000000000000000000000763196a091575adf99e2306e5e90e0be51548410000000000000000000000000000000000000000000000000000",
          "blockHash": "0xf6bec8c469290511aa258469b655f63db595669586fb2de696470d625c8c131d",
          "blockNumber": "0x16ebfd7",
          "transactionHash": "0xd9bb3e5dda23a0a2c26bd53bc5ef57b0a9838848ae469f209d1e12e0d654f632",
          "transactionIndex": "0x5",
          "logIndex": "0x23",
          "removed": false
        },
        {
          "address": "0x0763196a091575adf99e2306e5e90e0be5154841",
          "topics": [
            "0xa559263ee060c7a2560843b3a064ff0376c9753ae3e2449b595a3b615d326466"
          ],
          "data": "0x00000000000000000000000000000000000000000000000000000000000027120000000000000000000000000763196a091575adf99e2306e5e90e0be5154841",
          "blockHash": "0xf6bec8c469290511aa258469b655f63db595669586fb2de696470d625c8c131d",
          "blockNumber": "0x16ebfd7",
          "transactionHash": "0xd9bb3e5dda23a0a2c26bd53bc5ef57b0a9838848ae469f209d1e12e0d654f632",
          "transactionIndex": "0x5",
          "logIndex": "0x24",
          "removed": false
        }
      ],
      "logsBloom": "0x00000000000100000000000000000000000000000000000000000000000000000010000000000000000000000010000000000000000000000000000000000000000000000000000000000000000000000000000100000000000000000001000000000040100000001000000000000000000000000000000000000000000000000000000000000000000000000000000000000000000000000000000000000000002000000400000000000000000000000000004000000000000000008000000000000000000000000000000000000000000000000000000000000000000000000000000000000000210000000000000000000000000000000000080000000000",
      "type": "0x2",
      "transactionHash": "0xd9bb3e5dda23a0a2c26bd53bc5ef57b0a9838848ae469f209d1e12e0d654f632",
      "transactionIndex": "0x5",
      "blockHash": "0xf6bec8c469290511aa258469b655f63db595669586fb2de696470d625c8c131d",
      "blockNumber": "0x16ebfd7",
      "gasUsed": "0x12ee0",
      "effectiveGasPrice": "0xf433b",
      "from": "0xf2f1acbe0ba726fee8d75f3e32900526874740bb",
      "to": "0x0763196a091575adf99e2306e5e90e0be5154841",
      "contractAddress": null,
      "l1BaseFeeScalar": "0x1db0",
      "l1BlobBaseFee": "0x3",
      "l1BlobBaseFeeScalar": "0xd2730",
      "l1Fee": "0xc686adba7",
      "l1GasPrice": "0x10537f1fb",
      "l1GasUsed": "0x640"
    },
    {
      "status": "0x1",
      "cumulativeGasUsed": "0x5ee86a",
      "logs": [
        {
          "address": "0x0763196a091575adf99e2306e5e90e0be5154841",
          "topics": [
            "0x4add57d97a7bf5035340ea1212aeeb3d4d3887eb1faf3821a8224c3a6956a10c"
          ],
          "data": "0x00000000000000000000000000000000000000000000000000000000000027120000000000000000000000000000000000000000000000000000000000000001",
          "blockHash": "0x3c07f1c082e8d1379217de92510f64165e8b4b62f7d4ca45ef9a05370eb6dcd3",
          "blockNumber": "0x16ebfd8",
          "transactionHash": "0x0b4c0712b0480686ee8a3516cdd5f5600d849e5f276e05e3e58f614c88698871",
          "transactionIndex": "0x8",
          "logIndex": "0x22",
          "removed": false
        }
      ],
      "logsBloom": "0x00000000000000080000000000000000000000000000000000000000000000000000000000000000000000000000000000000000000000000000000000000000000000000000000000000000000000000000000000000000000000000001000000000000000000001000000000000000000000000000000000000080000000000000000000000000000000000000000000000000000000000000000000000000002000000000000000000000000000000000000000000000000000000000000000000000000000000000000000000000000000000000000000000000000000000000000000000000000000000000000000000040000000000000000000000000",
      "type": "0x2",
      "transactionHash": "0x0b4c0712b0480686ee8a3516cdd5f5600d849e5f276e05e3e58f614c88698871",
      "transactionIndex": "0x8",
      "blockHash": "0x3c07f1c082e8d1379217de92510f64165e8b4b62f7d4ca45ef9a05370eb6dcd3",
      "blockNumber": "0x16ebfd8",
      "gasUsed": "0xcde0",
      "effectiveGasPrice": "0xf433b",
      "from": "0xf2f1acbe0ba726fee8d75f3e32900526874740bb",
      "to": "0x0763196a091575adf99e2306e5e90e0be5154841",
      "contractAddress": null,
      "l1BaseFeeScalar": "0x1db0",
      "l1BlobBaseFee": "0x3",
      "l1BlobBaseFeeScalar": "0xd2730",
      "l1Fee": "0xc686adba7",
      "l1GasPrice": "0x10537f1fb",
      "l1GasUsed": "0x640"
    },
    {
      "status": "0x1",
      "cumulativeGasUsed": "0x285799",
      "logs": [
        {
          "address": "0xd925c84b55e4e44a53749ff5f2a5a13f63d128fd",
          "topics": [
            "0x1456404e7f41f35c3daac941bb50bad417a66275c3040061b4287d787719599d",
            "0x0000000000000000000000000000000000000000000000000000000000002713"
          ],
          "data": "0x00000000000000000000000000000000000000000000000000000000000000000000000000000000000000000000000000000000000000000000000000000000000000000000000000000000d925c84b55e4e44a53749ff5f2a5a13f63d128fd0000000000000000000000000000000000000000000000000000000000000006",
          "blockHash": "0x8a47be4a0e5764f2fca18d11b64205624073e43fa636df416c9ad48d95a60b9f",
          "blockNumber": "0x16ebfda",
          "transactionHash": "0xb2bebbf3a3de3ba2c1415db09bc4c9cc7c4c7872f2733510fa6be6e96e9ea017",
          "transactionIndex": "0x7",
          "logIndex": "0x22",
          "removed": false
        }
      ],
      "logsBloom": "0x00000000000000000000000000000000000000000000000000000000000000000100000000000000002000000000000000000000000000000000000000000000000000000000000000000000000000100000000000024000000000000000000000002000000000000000000000000000000000000000000000000000000000000000000000000000000008000000000000000000000000000000000000000000000000000000000000000000000000000000000000000000000000000000080000000000000000000000000000000000000000000000000000000000000000000000000000000000000000000000000000010000000000000000000000000000",
      "type": "0x2",
      "transactionHash": "0xb2bebbf3a3de3ba2c1415db09bc4c9cc7c4c7872f2733510fa6be6e96e9ea017",
      "transactionIndex": "0x7",
      "blockHash": "0x8a47be4a0e5764f2fca18d11b64205624073e43fa636df416c9ad48d95a60b9f",
      "blockNumber": "0x16ebfda",
      "gasUsed": "0x139be",
      "effectiveGasPrice": "0xf433b",
      "from": "0xf2f1acbe0ba726fee8d75f3e32900526874740bb",
      "to": "0xd925c84b55e4e44a53749ff5f2a5a13f63d128fd",
      "contractAddress": null,
      "l1BaseFeeScalar": "0x1db0",
      "l1BlobBaseFee": "0x3",
      "l1BlobBaseFeeScalar": "0xd2730",
      "l1Fee": "0xc686adba7",
      "l1GasPrice": "0x10537f1fb",
      "l1GasUsed": "0x640"
    },
    {
      "status": "0x1",
      "cumulativeGasUsed": "0x2f809a",
      "logs": [
        {
          "address": "0xd925c84b55e4e44a53749ff5f2a5a13f63d128fd",
          "topics": [
            "0xe6658eeba76934cef78dc5f420ee40406e4876e8d3e767f7b700c63daf1bf0ba",
            "0x0000000000000000000000000000000000000000000000000000000000002713"
          ],
          "data": "0x000000000000000000000000866a2bf4e572cbcf37d5071a7a58503bfb36be1b",
          "blockHash": "0x294f82b08882fbcc8f2520f93da33cdecb1e43a0694c657d73272584148de711",
          "blockNumber": "0x16ebfdc",
          "transactionHash": "0x95eec8599256611904c3a6e01c0d5498a6efc3a3fd7c1d6c6cab71a9e22cd020",
          "transactionIndex": "0x6",
          "logIndex": "0x2a",
          "removed": false
        }
      ],
      "logsBloom": "0x00000000000000000000000000000000000000000000000000000000000000000100000000000000000000000000000000000000000000000000000000000000000000000000000000000000002000100000000000024000000000000000000000000000000000000000000000000000000000000000000000000000000000000000000000000000000000000000000000000000000000000000000000000000000080000000000000000000000000000000000000000000000000000000080000000000000020000000000000000000000000000000000000000000000000000000000000000000000000000000000000010000000000000000000000000000",
      "type": "0x2",
      "transactionHash": "0x95eec8599256611904c3a6e01c0d5498a6efc3a3fd7c1d6c6cab71a9e22cd020",
      "transactionIndex": "0x6",
      "blockHash": "0x294f82b08882fbcc8f2520f93da33cdecb1e43a0694c657d73272584148de711",
      "blockNumber": "0x16ebfdc",
      "gasUsed": "0xce9f",
      "effectiveGasPrice": "0xf433b",
      "from": "0xf2f1acbe0ba726fee8d75f3e32900526874740bb",
      "to": "0xd925c84b55e4e44a53749ff5f2a5a13f63d128fd",
      "contractAddress": null,
      "l1BaseFeeScalar": "0x1db0",
      "l1BlobBaseFee": "0x3",
      "l1BlobBaseFeeScalar": "0xd2730",
      "l1Fee": "0xc686adba7",
      "l1GasPrice": "0x10537f1fb",
      "l1GasUsed": "0x640"
    },
    {
      "status": "0x1",
      "cumulativeGasUsed": "0x1d879c",
      "logs": [
        {
          "address": "0xd925c84b55e4e44a53749ff5f2a5a13f63d128fd",
          "topics": [
            "0xeb8377c150d1438121333afa2027232605a400b1208ae6f9cfa156438e453f6d",
            "0x000000000000000000000000866a2bf4e572cbcf37d5071a7a58503bfb36be1b",
            "0x0000000000000000000000000000000000000000000000000000000000002713",
            "0x000000000000000000000000866a2bf4e572cbcf37d5071a7a58503bfb36be1b"
          ],
          "data": "0x0000000000000000000000000000000000000000000000000000000000000001",
          "blockHash": "0x043bf1d9008e3011313d9326c83e520f67a271268b3ffd7af0ccc3bdb5199e55",
          "blockNumber": "0x16ebfde",
          "transactionHash": "0x23c907f18074c0a55369b28fe3cee03eb86eea41c647c7ce763c823ba4e7bbdf",
          "transactionIndex": "0x5",
          "logIndex": "0x15",
          "removed": false
        }
      ],
      "logsBloom": "0x00000008000000000000000000000000000000000000000000000000000000000100000000000000000000000000000000000000000000000000000000000000800000000000000000000000000000100000000000024000000000000000000000000000000000000000000000000000000000000000000100000000000000000000000000000000000000000040000000000000000000000000000000000000000000000000000000000000008000000000000000000000000000000000080000000000000400000000000000000000000000000000000000000000000000000000000000000000000000000000000000010000000000000000000000000000",
      "type": "0x2",
      "transactionHash": "0x23c907f18074c0a55369b28fe3cee03eb86eea41c647c7ce763c823ba4e7bbdf",
      "transactionIndex": "0x5",
      "blockHash": "0x043bf1d9008e3011313d9326c83e520f67a271268b3ffd7af0ccc3bdb5199e55",
      "blockNumber": "0x16ebfde",
      "gasUsed": "0xd36d",
      "effectiveGasPrice": "0xf433b",
      "from": "0xf2f1acbe0ba726fee8d75f3e32900526874740bb",
      "to": "0xd925c84b55e4e44a53749ff5f2a5a13f63d128fd",
      "contractAddress": null,
      "l1BaseFeeScalar": "0x1db0",
      "l1BlobBaseFee": "0x4",
      "l1BlobBaseFeeScalar": "0xd2730",
      "l1Fee": "0xc9c9c7aed",
      "l1GasPrice": "0x10982c343",
      "l1GasUsed": "0x640"
    },
    {
      "status": "0x1",
      "cumulativeGasUsed": "0x150887",
      "logs": [
        {
          "address": "0xd925c84b55e4e44a53749ff5f2a5a13f63d128fd",
          "topics": [
            "0xeb8377c150d1438121333afa2027232605a400b1208ae6f9cfa156438e453f6d",
            "0x000000000000000000000000866a2bf4e572cbcf37d5071a7a58503bfb36be1b",
            "0x0000000000000000000000000000000000000000000000000000000000002713",
            "0x000000000000000000000000437cc33344a0b27a429f795ff6b469c72698b291"
          ],
          "data": "0x0000000000000000000000000000000000000000000000000000000000000001",
          "blockHash": "0xcd2610468831a4e1e7a22021ae10faebe41cf78c564a882147a3179925575628",
          "blockNumber": "0x16ebfe0",
          "transactionHash": "0x51e111db8f3dbbda87ddfe7bb5d47be4e708a819e2318c848289a96abc7f3396",
          "transactionIndex": "0x4",
          "logIndex": "0x12",
          "removed": false
        }
      ],
      "logsBloom": "0x00000008000002000000000000000000000000000000000000000000000000000100000000000000000000000000000000000000000000000000000000000000800000000000000000000000000000100000000000024000000000000000000000000000000000000000000000000000000000000000000100000000000000000000000000000000000000000040000000000000000000000000000000000000000000000000000000000000008000000000000000020000000000000000080000000000000400000000000000000000000000000000000000000000000000200000000000000000000000000000000000010000000000000000000000000000",
      "type": "0x2",
      "transactionHash": "0x51e111db8f3dbbda87ddfe7bb5d47be4e708a819e2318c848289a96abc7f3396",
      "transactionIndex": "0x4",
      "blockHash": "0xcd2610468831a4e1e7a22021ae10faebe41cf78c564a882147a3179925575628",
      "blockNumber": "0x16ebfe0",
      "gasUsed": "0xd36d",
      "effectiveGasPrice": "0xf433c",
      "from": "0xf2f1acbe0ba726fee8d75f3e32900526874740bb",
      "to": "0xd925c84b55e4e44a53749ff5f2a5a13f63d128fd",
      "contractAddress": null,
      "l1BaseFeeScalar": "0x1db0",
      "l1BlobBaseFee": "0x4",
      "l1BlobBaseFeeScalar": "0xd2730",
      "l1Fee": "0xe4070c3b3",
      "l1GasPrice": "0x10982c343",
      "l1GasUsed": "0x710"
    },
    {
      "status": "0x1",
      "cumulativeGasUsed": "0x22e507",
      "logs": [
        {
          "address": "0xd925c84b55e4e44a53749ff5f2a5a13f63d128fd",
          "topics": [
            "0xeb8377c150d1438121333afa2027232605a400b1208ae6f9cfa156438e453f6d",
            "0x000000000000000000000000437cc33344a0b27a429f795ff6b469c72698b291",
            "0x0000000000000000000000000000000000000000000000000000000000002713",
            "0x000000000000000000000000866a2bf4e572cbcf37d5071a7a58503bfb36be1b"
          ],
          "data": "0x0000000000000000000000000000000000000000000000000000000000000001",
          "blockHash": "0xdc7fac22e8aa33d703bab6ada9c7e98005d4085c18d83fa176367435888d615a",
          "blockNumber": "0x16ebfe2",
          "transactionHash": "0x2a323e2eac5c8a49e5a51c0dff20094ea821492db6781c80c9724ab745875854",
          "transactionIndex": "0x5",
          "logIndex": "0x25",
          "removed": false
        }
      ],
      "logsBloom": "0x00000008000002000000000000000000000000000000000000000000000000000100000000000000000000000000000000000000000000000000000000000000800000000000000000000000000000100000000000024000000000000000000000000000000000000000000000000000000000000000000100000000000000000000000000000000000000000040000000000000000000000000000000000000000000000000000000000000008000000000000000020000000000000000080000000000000400000000000000000000000000000000000000000000000000200000000000000000000000000000000000010000000000000000000000000000",
      "type": "0x2",
      "transactionHash": "0x2a323e2eac5c8a49e5a51c0dff20094ea821492db6781c80c9724ab745875854",
      "transactionIndex": "0x5",
      "blockHash": "0xdc7fac22e8aa33d703bab6ada9c7e98005d4085c18d83fa176367435888d615a",
      "blockNumber": "0x16ebfe2",
      "gasUsed": "0xd36d",
      "effectiveGasPrice": "0xf433c",
      "from": "0xf2f1acbe0ba726fee8d75f3e32900526874740bb",
      "to": "0xd925c84b55e4e44a53749ff5f2a5a13f63d128fd",
      "contractAddress": null,
      "l1BaseFeeScalar": "0x1db0",
      "l1BlobBaseFee": "0x4",
      "l1BlobBaseFeeScalar": "0xd2730",
      "l1Fee": "0xe4070c3b3",
      "l1GasPrice": "0x10982c343",
      "l1GasUsed": "0x710"
    },
    {
      "status": "0x1",
      "cumulativeGasUsed": "0x24d758",
      "logs": [
        {
          "address": "0xd925c84b55e4e44a53749ff5f2a5a13f63d128fd",
          "topics": [
            "0xeb8377c150d1438121333afa2027232605a400b1208ae6f9cfa156438e453f6d",
            "0x000000000000000000000000437cc33344a0b27a429f795ff6b469c72698b291",
            "0x0000000000000000000000000000000000000000000000000000000000002713",
            "0x000000000000000000000000437cc33344a0b27a429f795ff6b469c72698b291"
          ],
          "data": "0x0000000000000000000000000000000000000000000000000000000000000001",
          "blockHash": "0x21d2545298f77eb770361efd6c799088a64f8fc4618dd42964cfbadc42c87fed",
          "blockNumber": "0x16ebfe4",
          "transactionHash": "0xf83b374447c2cf3857e8729d52b8b0befe7b009bed4a15ddcd303622a185f42a",
          "transactionIndex": "0x5",
          "logIndex": "0x1a",
          "removed": false
        }
      ],
      "logsBloom": "0x00000008000002000000000000000000000000000000000000000000000000000100000000000000000000000000000000000000000000000000000000000000800000000000000000000000000000100000000000024000000000000000000000000000000000000000000000000000000000000000000000000000000000000000000000000000000000000000000000000000000000000000000000000000000000000000000000000000008000000000000000020000000000000000080000000000000000000000000000000000000000000000000000000000000000200000000000000000000000000000000000010000000000000000000000000000",
      "type": "0x2",
      "transactionHash": "0xf83b374447c2cf3857e8729d52b8b0befe7b009bed4a15ddcd303622a185f42a",
      "transactionIndex": "0x5",
      "blockHash": "0x21d2545298f77eb770361efd6c799088a64f8fc4618dd42964cfbadc42c87fed",
      "blockNumber": "0x16ebfe4",
      "gasUsed": "0xd36d",
      "effectiveGasPrice": "0xf433c",
      "from": "0xf2f1acbe0ba726fee8d75f3e32900526874740bb",
      "to": "0xd925c84b55e4e44a53749ff5f2a5a13f63d128fd",
      "contractAddress": null,
      "l1BaseFeeScalar": "0x1db0",
      "l1BlobBaseFee": "0x4",
      "l1BlobBaseFeeScalar": "0xd2730",
      "l1Fee": "0xcc8f70ca6",
      "l1GasPrice": "0x10d2886d3",
      "l1GasUsed": "0x640"
    },
    {
      "status": "0x1",
      "cumulativeGasUsed": "0x14bb8a",
      "logs": [
        {
          "address": "0x0763196a091575adf99e2306e5e90e0be5154841",
          "topics": [
            "0x528b18a533e892b5401d1fb63597275df9d2bb45b13e7695c3147cd07b9746c3"
          ],
          "data": "0x00000000000000000000000000000000000000000000000000000000000027130000000000000000000000000000000000000000000000000000000000000001",
          "blockHash": "0x8ef9ef3704d87711d7389b251590a5ee0a93ab42c299f4b2a72e432a1de06100",
          "blockNumber": "0x16ebfe6",
          "transactionHash": "0x19b9a600cea6b385fee4fb86e29b25e536d689f6e11d78dbd1d3e7464cebc97d",
          "transactionIndex": "0x4",
          "logIndex": "0x14",
          "removed": false
        }
      ],
      "logsBloom": "0x00000000000000000000000000000000000000000000000000000000000080000000000000400000000000000000000000000000000000000000000000000000000000000000000000000000800000000000000000000000000000000001000000000000000000001000000000000000000000000000000000000000000000000000000000000000000000000000000000000000000000000000000000000000002000000000000000000000000000000000000000000000000000000000000000000000000000000000000000000000000000000000000000000000000000000000000000000000000000000000000000000000000000000000000000000000",
      "type": "0x2",
      "transactionHash": "0x19b9a600cea6b385fee4fb86e29b25e536d689f6e11d78dbd1d3e7464cebc97d",
      "transactionIndex": "0x4",
      "blockHash": "0x8ef9ef3704d87711d7389b251590a5ee0a93ab42c299f4b2a72e432a1de06100",
      "blockNumber": "0x16ebfe6",
      "gasUsed": "0xccc2",
      "effectiveGasPrice": "0xf433c",
      "from": "0xf2f1acbe0ba726fee8d75f3e32900526874740bb",
      "to": "0x0763196a091575adf99e2306e5e90e0be5154841",
      "contractAddress": null,
      "l1BaseFeeScalar": "0x1db0",
      "l1BlobBaseFee": "0x4",
      "l1BlobBaseFeeScalar": "0xd2730",
      "l1Fee": "0xcc8f70ca6",
      "l1GasPrice": "0x10d2886d3",
      "l1GasUsed": "0x640"
    },
    {
      "status": "0x1",
      "cumulativeGasUsed": "0x1a5d3c",
      "logs": [
        {
          "address": "0x31377888146f3253211efef5c676d41ece7d58fe",
          "topics": [
            "0x6eb224fb001ed210e379b335e35efe88672a8ce935d981a6896b27ffdf52a3b2",
            "0x0000000000000000000000000763196a091575adf99e2306e5e90e0be5154841"
          ],
          "data": "0x00000000000000000000000000000000000000000000000000000000000000020000000000000000000000000000000000000000000000000000000000000000000000000000000000000000000000000000000000000000000000000000008000000000000000000000000000000000000000000000000000000000000000c8000000000000000000000000000000000000000000000000000000000000002618fc67c227130000000000000000000000000763196a091575adf99e2306e5e90e0be51548410000000000000000000000000000000000000000000000000000",
          "blockHash": "0xa341a32be5a8621a464f608834c5d486bead9bf83e90ec6e0c1139cb614dc43e",
          "blockNumber": "0x16ebfe8",
          "transactionHash": "0xc4d4917523ba296bdaa4153f8c340c2dba942bd7cf5334c52913b62e4abfd5d5",
          "transactionIndex": "0x4",
          "logIndex": "0x1c",
          "removed": false
        },
        {
          "address": "0x0763196a091575adf99e2306e5e90e0be5154841",
          "topics": [
            "0xa559263ee060c7a2560843b3a064ff0376c9753ae3e2449b595a3b615d326466"
          ],
          "data": "0x00000000000000000000000000000000000000000000000000000000000027130000000000000000000000000763196a091575adf99e2306e5e90e0be5154841",
          "blockHash": "0xa341a32be5a8621a464f608834c5d486bead9bf83e90ec6e0c1139cb614dc43e",
          "blockNumber": "0x16ebfe8",
          "transactionHash": "0xc4d4917523ba296bdaa4153f8c340c2dba942bd7cf5334c52913b62e4abfd5d5",
          "transactionIndex": "0x4",
          "logIndex": "0x1d",
          "removed": false
        }
      ],
      "logsBloom": "0x00000000000100000000000000000000000000000000000000000000000000000010000000000000000000000010000000000000000000000000000000000000000000000000000000000000000000000000000100000000000000000001000000000040100000001000000000000000000000000000000000000000000000000000000000000000000000000000000000000000000000000000000000000000002000000400000000000000000000000000004000000000000000008000000000000000000000000000000000000000000000000000000000000000000000000000000000000000210000000000000000000000000000000000080000000000",
      "type": "0x2",
      "transactionHash": "0xc4d4917523ba296bdaa4153f8c340c2dba942bd7cf5334c52913b62e4abfd5d5",
      "transactionIndex": "0x4",
      "blockHash": "0xa341a32be5a8621a464f608834c5d486bead9bf83e90ec6e0c1139cb614dc43e",
      "blockNumber": "0x16ebfe8",
      "gasUsed": "0x12ee0",
      "effectiveGasPrice": "0xf433c",
      "from": "0xf2f1acbe0ba726fee8d75f3e32900526874740bb",
      "to": "0x0763196a091575adf99e2306e5e90e0be5154841",
      "contractAddress": null,
      "l1BaseFeeScalar": "0x1db0",
      "l1BlobBaseFee": "0x4",
      "l1BlobBaseFeeScalar": "0xd2730",
      "l1Fee": "0xcc8f70ca6",
      "l1GasPrice": "0x10d2886d3",
      "l1GasUsed": "0x640"
    },
    {
      "status": "0x1",
      "cumulativeGasUsed": "0x1235dc",
      "logs": [
        {
          "address": "0x0763196a091575adf99e2306e5e90e0be5154841",
          "topics": [
            "0x4add57d97a7bf5035340ea1212aeeb3d4d3887eb1faf3821a8224c3a6956a10c"
          ],
          "data": "0x00000000000000000000000000000000000000000000000000000000000027130000000000000000000000000000000000000000000000000000000000000001",
          "blockHash": "0x2004ce6af98df10d19035237b0c652f437476ffbc574475443d65254b55f3400",
          "blockNumber": "0x16ebfea",
          "transactionHash": "0xd881add6452033598b9154a394d9e20e129d9f715405d3dea8811604738e6d1a",
          "transactionIndex": "0x2",
          "logIndex": "0x10",
          "removed": false
        }
      ],
      "logsBloom": "0x00000000000000080000000000000000000000000000000000000000000000000000000000000000000000000000000000000000000000000000000000000000000000000000000000000000000000000000000000000000000000000001000000000000000000001000000000000000000000000000000000000080000000000000000000000000000000000000000000000000000000000000000000000000002000000000000000000000000000000000000000000000000000000000000000000000000000000000000000000000000000000000000000000000000000000000000000000000000000000000000000000040000000000000000000000000",
      "type": "0x2",
      "transactionHash": "0xd881add6452033598b9154a394d9e20e129d9f715405d3dea8811604738e6d1a",
      "transactionIndex": "0x2",
      "blockHash": "0x2004ce6af98df10d19035237b0c652f437476ffbc574475443d65254b55f3400",
      "blockNumber": "0x16ebfea",
      "gasUsed": "0xcde0",
      "effectiveGasPrice": "0xf433c",
      "from": "0xf2f1acbe0ba726fee8d75f3e32900526874740bb",
      "to": "0x0763196a091575adf99e2306e5e90e0be5154841",
      "contractAddress": null,
      "l1BaseFeeScalar": "0x1db0",
      "l1BlobBaseFee": "0x4",
      "l1BlobBaseFeeScalar": "0xd2730",
      "l1Fee": "0xc81191c69",
      "l1GasPrice": "0x1073f89ce",
      "l1GasUsed": "0x640"
    }
  ],
  "libraries": [],
  "pending": [],
  "returns": {},
  "timestamp": 1739873153,
  "chain": 11155420,
  "commit": "6558790"
}
